{
  "_format": "hh-sol-artifact-1",
  "contractName": "CrossErasMemory",
  "sourceName": "contracts/core/crossErasMemory/CrossErasMemory.sol",
  "abi": [
    {
      "inputs": [],
      "name": "OnlyActiveEra",
      "type": "error"
    },
    {
      "inputs": [],
      "name": "OnlyActiveGame",
      "type": "error"
    },
    {
      "inputs": [],
      "name": "OnlyWorldAssetFromActiveEra",
      "type": "error"
    },
    {
      "inputs": [],
      "name": "OnlyWorldAssetFromOldEra",
      "type": "error"
    },
    {
      "anonymous": false,
      "inputs": [
        {
          "indexed": false,
          "internalType": "uint8",
          "name": "version",
          "type": "uint8"
        }
      ],
      "name": "Initialized",
      "type": "event"
    },
    {
      "anonymous": false,
      "inputs": [
        {
          "indexed": false,
          "internalType": "uint256",
          "name": "bannerId",
          "type": "uint256"
        },
        {
          "indexed": false,
          "internalType": "address",
          "name": "settlementAddress",
          "type": "address"
        }
      ],
      "name": "SettlementByBannerIdUpdated",
      "type": "event"
    },
    {
      "anonymous": false,
      "inputs": [
        {
          "indexed": false,
          "internalType": "uint64",
          "name": "position",
          "type": "uint64"
        },
        {
          "indexed": false,
          "internalType": "address",
          "name": "settlementAddress",
          "type": "address"
        }
      ],
      "name": "SettlementOnPositionUpdated",
      "type": "event"
    },
    {
      "inputs": [
        {
          "internalType": "uint256",
          "name": "bannerId",
          "type": "uint256"
        },
        {
          "internalType": "uint64",
          "name": "regionId",
          "type": "uint64"
        },
        {
          "internalType": "address",
          "name": "settlementAddress",
          "type": "address"
        },
        {
          "internalType": "bool",
          "name": "isNewSettlement",
          "type": "bool"
        }
      ],
      "name": "addUserSettlement",
      "outputs": [],
      "stateMutability": "nonpayable",
      "type": "function"
    },
    {
      "inputs": [
        {
          "internalType": "uint64",
          "name": "regionId",
          "type": "uint64"
        },
        {
          "internalType": "uint256",
          "name": "settlementPrice",
          "type": "uint256"
        },
        {
          "internalType": "uint256",
          "name": "lastUpdateTime",
          "type": "uint256"
        }
      ],
      "name": "changeRegionSettlementPrice",
      "outputs": [],
      "stateMutability": "nonpayable",
      "type": "function"
    },
    {
      "inputs": [
        {
          "internalType": "address",
          "name": "worldAddress",
          "type": "address"
        }
      ],
      "name": "init",
      "outputs": [],
      "stateMutability": "nonpayable",
      "type": "function"
    },
    {
      "inputs": [
        {
          "internalType": "uint64",
          "name": "position",
          "type": "uint64"
        },
        {
          "internalType": "address",
          "name": "settlementAddress",
          "type": "address"
        }
      ],
      "name": "placeSettlementOnMap",
      "outputs": [],
      "stateMutability": "nonpayable",
      "type": "function"
    },
    {
      "inputs": [
        {
          "internalType": "uint64",
          "name": "",
          "type": "uint64"
        }
      ],
      "name": "regionSettlementPrice",
      "outputs": [
        {
          "internalType": "uint256",
          "name": "",
          "type": "uint256"
        }
      ],
      "stateMutability": "view",
      "type": "function"
    },
    {
      "inputs": [
        {
          "internalType": "uint64",
          "name": "",
          "type": "uint64"
        }
      ],
      "name": "regionSettlementPriceUpdateTime",
      "outputs": [
        {
          "internalType": "uint256",
          "name": "",
          "type": "uint256"
        }
      ],
      "stateMutability": "view",
      "type": "function"
    },
    {
      "inputs": [
        {
          "internalType": "uint64",
          "name": "",
          "type": "uint64"
        }
      ],
      "name": "regionUserSettlementsCount",
      "outputs": [
        {
          "internalType": "uint256",
          "name": "",
          "type": "uint256"
        }
      ],
      "stateMutability": "view",
      "type": "function"
    },
    {
      "inputs": [
        {
          "internalType": "address",
          "name": "settlementAddress",
          "type": "address"
        }
      ],
      "name": "removeUserSettlement",
      "outputs": [],
      "stateMutability": "nonpayable",
      "type": "function"
    },
    {
      "inputs": [
        {
          "internalType": "uint256",
          "name": "",
          "type": "uint256"
        }
      ],
      "name": "settlementByBannerId",
      "outputs": [
        {
          "internalType": "contract ISettlement",
          "name": "",
          "type": "address"
        }
      ],
      "stateMutability": "view",
      "type": "function"
    },
    {
      "inputs": [
        {
          "internalType": "uint64",
          "name": "",
          "type": "uint64"
        }
      ],
      "name": "settlementByPosition",
      "outputs": [
        {
          "internalType": "contract ISettlement",
          "name": "",
          "type": "address"
        }
      ],
      "stateMutability": "view",
      "type": "function"
    },
    {
      "inputs": [],
      "name": "world",
      "outputs": [
        {
          "internalType": "contract IWorld",
          "name": "",
          "type": "address"
        }
      ],
      "stateMutability": "view",
      "type": "function"
    }
  ],
  "bytecode": "0x6080604052348015600f57600080fd5b50610da48061001f6000396000f3fe608060405234801561001057600080fd5b50600436106100c95760003560e01c8063c29f8ac211610081578063e301e6401161005b578063e301e640146101d6578063ebe63ec8146101e9578063ff0336731461021257600080fd5b8063c29f8ac214610187578063c4c31e851461019a578063dc39f809146101c357600080fd5b806330b67baa116100b257806330b67baa146101165780639b9a21e814610147578063a57415d91461016757600080fd5b806319704039146100ce57806319ab453c14610101575b600080fd5b6100ee6100dc366004610ba0565b60046020526000908152604090205481565b6040519081526020015b60405180910390f35b61011461010f366004610bd9565b610225565b005b60005461012f906201000090046001600160a01b031681565b6040516001600160a01b0390911681526020016100f8565b6100ee610155366004610ba0565b60036020526000908152604090205481565b6100ee610175366004610ba0565b60056020526000908152604090205481565b610114610195366004610bf6565b61034d565b61012f6101a8366004610ba0565b6001602052600090815260409020546001600160a01b031681565b6101146101d1366004610c2b565b61037e565b6101146101e4366004610bd9565b6103f0565b61012f6101f7366004610c64565b6002602052600090815260409020546001600160a01b031681565b610114610220366004610c7d565b610679565b600054610100900460ff16158080156102455750600054600160ff909116105b8061025f5750303b15801561025f575060005460ff166001145b6102d65760405162461bcd60e51b815260206004820152602e60248201527f496e697469616c697a61626c653a20636f6e747261637420697320616c72656160448201527f647920696e697469616c697a656400000000000000000000000000000000000060648201526084015b60405180910390fd5b6000805460ff1916600117905580156102f9576000805461ff0019166101001790555b6103028261071a565b8015610349576000805461ff0019169055604051600181527f7f26b83ff96e1f2b6a682f133852f6798a09c465da95921460cefb3847402498906020015b60405180910390a15b5050565b6103556107d7565b67ffffffffffffffff909216600090815260046020908152604080832093909355600590522055565b6103866108ee565b67ffffffffffffffff821660008181526001602090815260409182902080546001600160a01b0319166001600160a01b0386169081179091558251938452908301527f5685ecc3c8c689bb47b86934ce8ce252dc13a5936567fb8f1408db413690e7c59101610340565b6103f8610a0b565b60008190506000816001600160a01b03166309218e916040518163ffffffff1660e01b8152600401602060405180830381865afa15801561043d573d6000803e3d6000fd5b505050506040513d601f19601f820116820180604052508101906104619190610cd5565b90506000826001600160a01b031663e6c15c996040518163ffffffff1660e01b8152600401602060405180830381865afa1580156104a3573d6000803e3d6000fd5b505050506040513d601f19601f820116820180604052508101906104c79190610cf2565b6001600160a01b031663b2fd89336040518163ffffffff1660e01b8152600401602060405180830381865afa158015610504573d6000803e3d6000fd5b505050506040513d601f19601f820116820180604052508101906105289190610cd5565b90506000836001600160a01b031663d63a68ec6040518163ffffffff1660e01b8152600401602060405180830381865afa15801561056a573d6000803e3d6000fd5b505050506040513d601f19601f8201168201806040525081019061058e9190610d0f565b67ffffffffffffffff8416600081815260016020908152604080832080546001600160a01b03191690558051938452908301919091529192507f5685ecc3c8c689bb47b86934ce8ce252dc13a5936567fb8f1408db413690e7c5910160405180910390a1600081815260026020908152604080832080546001600160a01b03191690558051848152918201929092527fb59a7fa1779ce14368835c76b45a902e63f438ba39799e52e9c6bff3502e2932910160405180910390a167ffffffffffffffff8216600090815260036020526040812080549161066d83610d3e565b91905055505050505050565b6106816108ee565b60008481526002602090815260409182902080546001600160a01b0319166001600160a01b0386169081179091558251878152918201527fb59a7fa1779ce14368835c76b45a902e63f438ba39799e52e9c6bff3502e2932910160405180910390a180156107145767ffffffffffffffff8316600090815260036020526040812080549161070e83610d55565b91905055505b50505050565b600054610100900460ff166107975760405162461bcd60e51b815260206004820152602b60248201527f496e697469616c697a61626c653a20636f6e7472616374206973206e6f74206960448201527f6e697469616c697a696e6700000000000000000000000000000000000000000060648201526084016102cd565b600080546001600160a01b0390921662010000027fffffffffffffffffffff0000000000000000000000000000000000000000ffff909216919091179055565b60008060029054906101000a90046001600160a01b03166001600160a01b031663704f63a16040518163ffffffff1660e01b8152600401602060405180830381865afa15801561082b573d6000803e3d6000fd5b505050506040513d601f19601f8201168201806040525081019061084f9190610d0f565b60008054604051633aefa00d60e21b8152600481018490523360248201529293509091620100009091046001600160a01b03169063ebbe803490604401602060405180830381865afa1580156108a9573d6000803e3d6000fd5b505050506040513d601f19601f820116820180604052508101906108cd9190610d0f565b036108eb576040516305016ca360e41b815260040160405180910390fd5b50565b60008060029054906101000a90046001600160a01b03166001600160a01b031663704f63a16040518163ffffffff1660e01b8152600401602060405180830381865afa158015610942573d6000803e3d6000fd5b505050506040513d601f19601f820116820180604052508101906109669190610d0f565b60005460405163720a70bd60e01b8152600481018390529192506201000090046001600160a01b03169063720a70bd90602401602060405180830381865afa1580156109b6573d6000803e3d6000fd5b505050506040513d601f19601f820116820180604052508101906109da9190610cf2565b6001600160a01b0316336001600160a01b0316146108eb57604051633833078760e01b815260040160405180910390fd5b6000336001600160a01b0316637d884c746040518163ffffffff1660e01b8152600401602060405180830381865afa158015610a4b573d6000803e3d6000fd5b505050506040513d601f19601f82011682018060405250810190610a6f9190610d0f565b9050600060029054906101000a90046001600160a01b03166001600160a01b031663704f63a16040518163ffffffff1660e01b8152600401602060405180830381865afa158015610ac4573d6000803e3d6000fd5b505050506040513d601f19601f82011682018060405250810190610ae89190610d0f565b81101580610b6c575060008054604051633aefa00d60e21b815260048101849052336024820152620100009091046001600160a01b03169063ebbe803490604401602060405180830381865afa158015610b46573d6000803e3d6000fd5b505050506040513d601f19601f82011682018060405250810190610b6a9190610d0f565b145b156108eb576040516373f0ba8360e11b815260040160405180910390fd5b67ffffffffffffffff811681146108eb57600080fd5b600060208284031215610bb257600080fd5b8135610bbd81610b8a565b9392505050565b6001600160a01b03811681146108eb57600080fd5b600060208284031215610beb57600080fd5b8135610bbd81610bc4565b600080600060608486031215610c0b57600080fd5b8335610c1681610b8a565b95602085013595506040909401359392505050565b60008060408385031215610c3e57600080fd5b8235610c4981610b8a565b91506020830135610c5981610bc4565b809150509250929050565b600060208284031215610c7657600080fd5b5035919050565b60008060008060808587031215610c9357600080fd5b843593506020850135610ca581610b8a565b92506040850135610cb581610bc4565b915060608501358015158114610cca57600080fd5b939692955090935050565b600060208284031215610ce757600080fd5b8151610bbd81610b8a565b600060208284031215610d0457600080fd5b8151610bbd81610bc4565b600060208284031215610d2157600080fd5b5051919050565b634e487b7160e01b600052601160045260246000fd5b600081610d4d57610d4d610d28565b506000190190565b600060018201610d6757610d67610d28565b506001019056fea2646970667358221220dc41aff8c95d1429c96424fff5470af9f0ce455164c998035f8f99fb83c406fa64736f6c634300081a0033",
  "linkReferences": {},
  "deployedLinkReferences": {}
}