{
  "_format": "hh-sol-artifact-1",
  "contractName": "RewardPool",
  "sourceName": "contracts/core/rewardPool/RewardPool.sol",
  "abi": [
    {
      "inputs": [],
      "name": "CannotSetDefaultTokenPriceDueToWrongMsgSender",
      "type": "error"
    },
    {
      "inputs": [],
      "name": "NoTokensWillBeReceived",
      "type": "error"
    },
    {
      "inputs": [],
      "name": "NotEnoughTokensLeft",
      "type": "error"
    },
    {
      "inputs": [],
      "name": "OnlyActiveGame",
      "type": "error"
    },
    {
      "inputs": [],
      "name": "ReentrantCall",
      "type": "error"
    },
    {
      "inputs": [],
      "name": "TokensToBeReceivedLessThanMinimumRequired",
      "type": "error"
    },
    {
      "inputs": [],
      "name": "UnableToReceiveEther",
      "type": "error"
    },
    {
      "anonymous": false,
      "inputs": [
        {
          "indexed": false,
          "internalType": "uint256",
          "name": "newEthBalance",
          "type": "uint256"
        }
      ],
      "name": "EthBalanceUpdated",
      "type": "event"
    },
    {
      "anonymous": false,
      "inputs": [
        {
          "indexed": false,
          "internalType": "uint8",
          "name": "version",
          "type": "uint8"
        }
      ],
      "name": "Initialized",
      "type": "event"
    },
    {
      "anonymous": false,
      "inputs": [
        {
          "indexed": false,
          "internalType": "uint256",
          "name": "newLastSyncedTokenBalance",
          "type": "uint256"
        }
      ],
      "name": "LastSyncedTokenBalanceUpdated",
      "type": "event"
    },
    {
      "anonymous": false,
      "inputs": [
        {
          "indexed": false,
          "internalType": "uint256",
          "name": "newToBeRepaidTokenAmount",
          "type": "uint256"
        }
      ],
      "name": "ToBeRepaidTokenAmountUpdated",
      "type": "event"
    },
    {
      "inputs": [],
      "name": "defaultTokenPrice",
      "outputs": [
        {
          "internalType": "int128",
          "name": "",
          "type": "int128"
        }
      ],
      "stateMutability": "view",
      "type": "function"
    },
    {
      "inputs": [],
      "name": "getCurrentPrice",
      "outputs": [
        {
          "internalType": "uint256",
          "name": "",
          "type": "uint256"
        }
      ],
      "stateMutability": "view",
      "type": "function"
    },
    {
      "inputs": [
        {
          "internalType": "uint256",
          "name": "tokensAmountOut",
          "type": "uint256"
        }
      ],
      "name": "getIngotsAmountIn",
      "outputs": [
        {
          "internalType": "uint256",
          "name": "",
          "type": "uint256"
        }
      ],
      "stateMutability": "view",
      "type": "function"
    },
    {
      "inputs": [
        {
          "internalType": "uint256",
          "name": "ingotsAmountIn",
          "type": "uint256"
        }
      ],
      "name": "getTokensAmountOut",
      "outputs": [
        {
          "internalType": "uint256",
          "name": "",
          "type": "uint256"
        }
      ],
      "stateMutability": "view",
      "type": "function"
    },
    {
      "inputs": [
        {
          "internalType": "address",
          "name": "worldAddress",
          "type": "address"
        }
      ],
      "name": "init",
      "outputs": [],
      "stateMutability": "nonpayable",
      "type": "function"
    },
    {
      "inputs": [
        {
          "internalType": "uint256",
          "name": "amountToInvest",
          "type": "uint256"
        }
      ],
      "name": "investIntoPrizePool",
      "outputs": [],
      "stateMutability": "payable",
      "type": "function"
    },
    {
      "inputs": [],
      "name": "lastSyncedTokenBalance",
      "outputs": [
        {
          "internalType": "uint256",
          "name": "",
          "type": "uint256"
        }
      ],
      "stateMutability": "view",
      "type": "function"
    },
    {
      "inputs": [
        {
          "internalType": "int128",
          "name": "newPrice",
          "type": "int128"
        }
      ],
      "name": "setDefaultTokenPrice",
      "outputs": [],
      "stateMutability": "nonpayable",
      "type": "function"
    },
    {
      "inputs": [
        {
          "internalType": "address",
          "name": "resourcesOwner",
          "type": "address"
        },
        {
          "internalType": "uint256",
          "name": "ingotsAmount",
          "type": "uint256"
        },
        {
          "internalType": "uint256",
          "name": "minTokensToReceive",
          "type": "uint256"
        }
      ],
      "name": "swapIngotsForTokens",
      "outputs": [],
      "stateMutability": "nonpayable",
      "type": "function"
    },
    {
      "inputs": [],
      "name": "toBeRepaidTokenAmount",
      "outputs": [
        {
          "internalType": "uint256",
          "name": "",
          "type": "uint256"
        }
      ],
      "stateMutability": "view",
      "type": "function"
    },
    {
      "inputs": [],
      "name": "withdrawRepayment",
      "outputs": [],
      "stateMutability": "nonpayable",
      "type": "function"
    },
    {
      "inputs": [],
      "name": "world",
      "outputs": [
        {
          "internalType": "contract IWorld",
          "name": "",
          "type": "address"
        }
      ],
      "stateMutability": "view",
      "type": "function"
    },
    {
      "stateMutability": "payable",
      "type": "receive"
    }
  ],
  "bytecode": "0x6080604052348015600f57600080fd5b50611e838061001f6000396000f3fe6080604052600436106100cb5760003560e01c80637489b45111610074578063a9e6beb81161004e578063a9e6beb8146102fb578063b0786e2314610311578063eb91d37e1461032757600080fd5b80637489b451146102985780638096d7dd146102ad578063a9d75dac146102db57600080fd5b80631d29daa3116100a55780631d29daa3146102275780632495b7281461023a57806330b67baa1461025a57600080fd5b8063157da2ac146101b357806318e12e03146101d557806319ab453c1461020757600080fd5b366101ae5760006001600160a01b0316600060029054906101000a90046001600160a01b03166001600160a01b031663c1897e346040518163ffffffff1660e01b8152600401602060405180830381865afa15801561012e573d6000803e3d6000fd5b505050506040513d601f19601f820116820180604052508101906101529190611b4a565b6001600160a01b03161461017957604051638e2d9fb960e01b815260040160405180910390fd5b6040514781527fe968090a83cd0c78dcb9e891725da982db6cdbe2c46d6a3c88c132b4a365e13f9060200160405180910390a1005b600080fd5b3480156101bf57600080fd5b506101d36101ce366004611b67565b61033c565b005b3480156101e157600080fd5b506001546101ef90600f0b81565b604051600f9190910b81526020015b60405180910390f35b34801561021357600080fd5b506101d3610222366004611b8a565b610479565b6101d3610235366004611ba7565b6105dc565b34801561024657600080fd5b506101d3610255366004611bc0565b6108d3565b34801561026657600080fd5b50600054610280906201000090046001600160a01b031681565b6040516001600160a01b0390911681526020016101fe565b3480156102a457600080fd5b506101d3610e19565b3480156102b957600080fd5b506102cd6102c8366004611ba7565b610f4a565b6040519081526020016101fe565b3480156102e757600080fd5b506102cd6102f6366004611ba7565b610f6b565b34801561030757600080fd5b506102cd60035481565b34801561031d57600080fd5b506102cd60025481565b34801561033357600080fd5b506102cd610f86565b600060029054906101000a90046001600160a01b03166001600160a01b0316637b1039996040518163ffffffff1660e01b8152600401602060405180830381865afa15801561038f573d6000803e3d6000fd5b505050506040513d601f19601f820116820180604052508101906103b39190611b4a565b6001600160a01b031663271530506040518163ffffffff1660e01b8152600401602060405180830381865afa1580156103f0573d6000803e3d6000fd5b505050506040513d601f19601f820116820180604052508101906104149190611b4a565b6001600160a01b0316336001600160a01b031614610445576040516373df24cf60e01b815260040160405180910390fd5b600180546fffffffffffffffffffffffffffffffff19166fffffffffffffffffffffffffffffffff92909216919091179055565b600054610100900460ff16158080156104995750600054600160ff909116105b806104b35750303b1580156104b3575060005460ff166001145b61052a5760405162461bcd60e51b815260206004820152602e60248201527f496e697469616c697a61626c653a20636f6e747261637420697320616c72656160448201527f647920696e697469616c697a656400000000000000000000000000000000000060648201526084015b60405180910390fd5b6000805460ff19166001179055801561054d576000805461ff0019166101001790555b61055682611295565b6105606000611352565b600180546fffffffffffffffffffffffffffffffff19166fffffffffffffffffffffffffffffffff9290921691909117905580156105d8576000805461ff0019169055604051600181527f7f26b83ff96e1f2b6a682f133852f6798a09c465da95921460cefb38474024989060200160405180910390a15b5050565b346000816105e8611370565b6105f29190611c0b565b90506000600354826106049190611c0b565b9050801561075357600061061a60025483611470565b9050801561075157610703600060029054906101000a90046001600160a01b03166001600160a01b0316637b1039996040518163ffffffff1660e01b8152600401602060405180830381865afa158015610678573d6000803e3d6000fd5b505050506040513d601f19601f8201168201806040525081019061069c9190611b4a565b6001600160a01b031663271530506040518163ffffffff1660e01b8152600401602060405180830381865afa1580156106d9573d6000803e3d6000fd5b505050506040513d601f19601f820116820180604052508101906106fd9190611b4a565b82611488565b80600260008282546107159190611c0b565b90915550506002546040519081527f38026f0733511c2e2735c2b8cefaf895b5f4ce408a17d1bd38fcbdaec6f1255e9060200160405180910390a15b505b60008060029054906101000a90046001600160a01b03166001600160a01b031663c1897e346040518163ffffffff1660e01b8152600401602060405180830381865afa1580156107a7573d6000803e3d6000fd5b505050506040513d601f19601f820116820180604052508101906107cb9190611b4a565b90506001600160a01b038116158015906107e457503415155b1561080257604051638e2d9fb960e01b815260040160405180910390fd5b6001600160a01b03811661082d5734600260008282546108229190611c1e565b909155506108519050565b61083981333088611562565b846002600082825461084b9190611c1e565b90915550505b7f38026f0733511c2e2735c2b8cefaf895b5f4ce408a17d1bd38fcbdaec6f1255e60025460405161088491815260200190565b60405180910390a150610895611370565b60038190556040519081527f80ea096b9def4b66fbd7cbb7acc80fbf1ed860a2d4e57b2acb5a99c7ad77411f9060200160405180910390a150505050565b600054600160b01b900460ff161515600103610902576040516306fda65d60e31b815260040160405180910390fd5b6000805460ff60b01b1916600160b01b178155808061091f611370565b6109299190611c0b565b905060006003548261093b9190611c0b565b905080156109ff57600061095160025483611470565b905080156109fd576109af600060029054906101000a90046001600160a01b03166001600160a01b0316637b1039996040518163ffffffff1660e01b8152600401602060405180830381865afa158015610678573d6000803e3d6000fd5b80600260008282546109c19190611c0b565b90915550506002546040519081527f38026f0733511c2e2735c2b8cefaf895b5f4ce408a17d1bd38fcbdaec6f1255e9060200160405180910390a15b505b6000610a09611600565b90506000610a15610f86565b90506000610a21611370565b90506000610a30898585611707565b90508181118015610a4057508782115b15610a485750805b80600003610a6957604051634e3eebe360e01b815260040160405180910390fd5b87811015610a8a57604051631b22b33160e01b815260040160405180910390fd5b81881180610a96575081155b15610ab4576040516376592c6f60e01b815260040160405180910390fd5b6000610ac1828686611726565b600080546040805163704f63a160e01b815290519394509192620100009091046001600160a01b03169163720a70bd91839163704f63a19160048083019260209291908290030181865afa158015610b1d573d6000803e3d6000fd5b505050506040513d601f19601f82011682018060405250810190610b419190611c31565b6040518263ffffffff1660e01b8152600401610b5f91815260200190565b602060405180830381865afa158015610b7c573d6000803e3d6000fd5b505050506040513d601f19601f82011682018060405250810190610ba09190611b4a565b6040805180820182526005815264125391d3d560da1b6020909101525163912929df60e01b81527ff4d3d98b93a17290e7883bbc86b83d603b27efc328d7873b3fc648501d83e57260048201526001600160a01b03919091169063912929df90602401602060405180830381865afa158015610c20573d6000803e3d6000fd5b505050506040513d601f19601f82011682018060405250810190610c449190611b4a565b90506001600160a01b038c16610cd1576040516323b872dd60e01b8152336004820152306024820152604481018390526001600160a01b038216906323b872dd906064016020604051808303816000875af1158015610ca7573d6000803e3d6000fd5b505050506040513d601f19601f82011682018060405250810190610ccb9190611c4a565b50610db4565b60405163dd8aaa4f60e01b81526001600160a01b038d811660048301523360248301526044820184905282169063dd8aaa4f90606401600060405180830381600087803b158015610d2157600080fd5b505af1158015610d35573d6000803e3d6000fd5b50506040516323b872dd60e01b81526001600160a01b038f8116600483015230602483015260448201869052841692506323b872dd91506064016020604051808303816000875af1158015610d8e573d6000803e3d6000fd5b505050506040513d601f19601f82011682018060405250810190610db29190611c4a565b505b610dbe3384611488565b505050505050610dcc611370565b60038190556040519081527f80ea096b9def4b66fbd7cbb7acc80fbf1ed860a2d4e57b2acb5a99c7ad77411f9060200160405180910390a150506000805460ff60b01b1916905550505050565b60008081610e25611370565b610e2f9190611c0b565b9050600060035482610e419190611c0b565b90508015610f05576000610e5760025483611470565b90508015610f0357610eb5600060029054906101000a90046001600160a01b03166001600160a01b0316637b1039996040518163ffffffff1660e01b8152600401602060405180830381865afa158015610678573d6000803e3d6000fd5b8060026000828254610ec79190611c0b565b90915550506002546040519081527f38026f0733511c2e2735c2b8cefaf895b5f4ce408a17d1bd38fcbdaec6f1255e9060200160405180910390a15b505b610f0d611370565b60038190556040519081527f80ea096b9def4b66fbd7cbb7acc80fbf1ed860a2d4e57b2acb5a99c7ad77411f9060200160405180910390a1505050565b6000610f6582610f58611600565b610f60610f86565b611726565b92915050565b6000610f6582610f79611600565b610f81610f86565b611707565b600080600060029054906101000a90046001600160a01b03166001600160a01b031663704f63a16040518163ffffffff1660e01b8152600401602060405180830381865afa158015610fdc573d6000803e3d6000fd5b505050506040513d601f19601f820116820180604052508101906110009190611c31565b6000805460405163720a70bd60e01b8152600481018490529293509091620100009091046001600160a01b03169063720a70bd90602401602060405180830381865afa158015611054573d6000803e3d6000fd5b505050506040513d601f19601f820116820180604052508101906110789190611b4a565b6040805180820182526005815264125391d3d560da1b6020909101525163912929df60e01b81527ff4d3d98b93a17290e7883bbc86b83d603b27efc328d7873b3fc648501d83e57260048201529091506000906001600160a01b0383169063912929df90602401602060405180830381865afa1580156110fc573d6000803e3d6000fd5b505050506040513d601f19601f820116820180604052508101906111209190611b4a565b90506000816001600160a01b031663313ce5676040518163ffffffff1660e01b8152600401602060405180830381865afa158015611162573d6000803e3d6000fd5b505050506040513d601f19601f820116820180604052508101906111869190611c6c565b61119190600a611d76565b9050600061127f85856001600160a01b031663d8270dce6040518163ffffffff1660e01b8152600401602060405180830381865afa1580156111d7573d6000803e3d6000fd5b505050506040513d601f19601f820116820180604052508101906111fb9190611c31565b600060029054906101000a90046001600160a01b03166001600160a01b0316633c8ca83d6040518163ffffffff1660e01b8152600401602060405180830381865afa15801561124e573d6000803e3d6000fd5b505050506040513d601f19601f820116820180604052508101906112729190611c31565b600154600f0b9392505050565b905061128b818361176b565b9550505050505090565b600054610100900460ff166113125760405162461bcd60e51b815260206004820152602b60248201527f496e697469616c697a61626c653a20636f6e7472616374206973206e6f74206960448201527f6e697469616c697a696e670000000000000000000000000000000000000000006064820152608401610521565b600080546001600160a01b0390921662010000027fffffffffffffffffffff0000000000000000000000000000000000000000ffff909216919091179055565b6000677fffffffffffffff82111561136957600080fd5b5060401b90565b600080600060029054906101000a90046001600160a01b03166001600160a01b031663c1897e346040518163ffffffff1660e01b8152600401602060405180830381865afa1580156113c6573d6000803e3d6000fd5b505050506040513d601f19601f820116820180604052508101906113ea9190611b4a565b90506001600160a01b03811615611468576040516370a0823160e01b81523060048201526001600160a01b038216906370a0823190602401602060405180830381865afa15801561143f573d6000803e3d6000fd5b505050506040513d601f19601f820116820180604052508101906114639190611c31565b61146a565b475b91505090565b600081831061147f5781611481565b825b9392505050565b60008060029054906101000a90046001600160a01b03166001600160a01b031663c1897e346040518163ffffffff1660e01b8152600401602060405180830381865afa1580156114dc573d6000803e3d6000fd5b505050506040513d601f19601f820116820180604052508101906115009190611b4a565b90506001600160a01b0381166115525761151a83836117f0565b6040514781527fe968090a83cd0c78dcb9e891725da982db6cdbe2c46d6a3c88c132b4a365e13f9060200160405180910390a1505050565b61155d818484611909565b505050565b6040516001600160a01b03808516602483015283166044820152606481018290526115fa9085906323b872dd60e01b906084015b60408051601f198184030181529190526020810180517bffffffffffffffffffffffffffffffffffffffffffffffffffffffff167fffffffff0000000000000000000000000000000000000000000000000000000090931692909217909152611939565b50505050565b600080600060029054906101000a90046001600160a01b03166001600160a01b031663c1897e346040518163ffffffff1660e01b8152600401602060405180830381865afa158015611656573d6000803e3d6000fd5b505050506040513d601f19601f8201168201806040525081019061167a9190611b4a565b90506001600160a01b038116156116f857806001600160a01b031663313ce5676040518163ffffffff1660e01b8152600401602060405180830381865afa1580156116c9573d6000803e3d6000fd5b505050506040513d601f19601f820116820180604052508101906116ed9190611c6c565b61146390600a611d76565b670de0b6b3a764000091505090565b6000816117148486611d85565b61171e9190611db2565b949350505050565b6000806117338584611d85565b905061173f8482611dc6565b156117615761174e8482611db2565b611759906001611c1e565b915050611481565b6117598482611db2565b60008160000361177d57506000610f65565b600083600f0b121561178e57600080fd5b600f83900b6fffffffffffffffffffffffffffffffff8316810260401c90608084901c0277ffffffffffffffffffffffffffffffffffffffffffffffff8111156117d757600080fd5b60401b81198111156117e857600080fd5b019392505050565b804710156118405760405162461bcd60e51b815260206004820152601d60248201527f416464726573733a20696e73756666696369656e742062616c616e63650000006044820152606401610521565b6000826001600160a01b03168260405160006040518083038185875af1925050503d806000811461188d576040519150601f19603f3d011682016040523d82523d6000602084013e611892565b606091505b505090508061155d5760405162461bcd60e51b815260206004820152603a60248201527f416464726573733a20756e61626c6520746f2073656e642076616c75652c207260448201527f6563697069656e74206d617920686176652072657665727465640000000000006064820152608401610521565b6040516001600160a01b03831660248201526044810182905261155d90849063a9059cbb60e01b90606401611596565b600061198e826040518060400160405280602081526020017f5361666545524332303a206c6f772d6c6576656c2063616c6c206661696c6564815250856001600160a01b0316611a1e9092919063ffffffff16565b80519091501561155d57808060200190518101906119ac9190611c4a565b61155d5760405162461bcd60e51b815260206004820152602a60248201527f5361666545524332303a204552433230206f7065726174696f6e20646964206e60448201527f6f742073756363656564000000000000000000000000000000000000000000006064820152608401610521565b606061171e8484600085856001600160a01b0385163b611a805760405162461bcd60e51b815260206004820152601d60248201527f416464726573733a2063616c6c20746f206e6f6e2d636f6e74726163740000006044820152606401610521565b600080866001600160a01b03168587604051611a9c9190611dfe565b60006040518083038185875af1925050503d8060008114611ad9576040519150601f19603f3d011682016040523d82523d6000602084013e611ade565b606091505b5091509150611aee828286611af9565b979650505050505050565b60608315611b08575081611481565b825115611b185782518084602001fd5b8160405162461bcd60e51b81526004016105219190611e1a565b6001600160a01b0381168114611b4757600080fd5b50565b600060208284031215611b5c57600080fd5b815161148181611b32565b600060208284031215611b7957600080fd5b813580600f0b811461148157600080fd5b600060208284031215611b9c57600080fd5b813561148181611b32565b600060208284031215611bb957600080fd5b5035919050565b600080600060608486031215611bd557600080fd5b8335611be081611b32565b95602085013595506040909401359392505050565b634e487b7160e01b600052601160045260246000fd5b81810381811115610f6557610f65611bf5565b80820180821115610f6557610f65611bf5565b600060208284031215611c4357600080fd5b5051919050565b600060208284031215611c5c57600080fd5b8151801515811461148157600080fd5b600060208284031215611c7e57600080fd5b815160ff8116811461148157600080fd5b6001815b6001841115611cca57808504811115611cae57611cae611bf5565b6001841615611cbc57908102905b60019390931c928002611c93565b935093915050565b600082611ce157506001610f65565b81611cee57506000610f65565b8160018114611d045760028114611d0e57611d2a565b6001915050610f65565b60ff841115611d1f57611d1f611bf5565b50506001821b610f65565b5060208310610133831016604e8410600b8410161715611d4d575081810a610f65565b611d5a6000198484611c8f565b8060001904821115611d6e57611d6e611bf5565b029392505050565b600061148160ff841683611cd2565b8082028115828204841417610f6557610f65611bf5565b634e487b7160e01b600052601260045260246000fd5b600082611dc157611dc1611d9c565b500490565b600082611dd557611dd5611d9c565b500690565b60005b83811015611df5578181015183820152602001611ddd565b50506000910152565b60008251611e10818460208701611dda565b9190910192915050565b6020815260008251806020840152611e39816040850160208701611dda565b601f01601f1916919091016040019291505056fea2646970667358221220952bd60191878fd7e0525397e120179bcc0b9622fa217ebe1f14d626ac670a5b64736f6c634300081a0033",
  "linkReferences": {},
  "deployedLinkReferences": {}
}