{
  "_format": "hh-sol-artifact-1",
  "contractName": "RegionOwnershipToken",
  "sourceName": "contracts/core/regionOwnershipToken/RegionOwnershipToken.sol",
  "abi": [
    {
      "inputs": [
        {
          "internalType": "string",
          "name": "name_",
          "type": "string"
        },
        {
          "internalType": "string",
          "name": "symbol_",
          "type": "string"
        },
        {
          "internalType": "string",
          "name": "uri_",
          "type": "string"
        },
        {
          "internalType": "address",
          "name": "worldAddress_",
          "type": "address"
        }
      ],
      "stateMutability": "nonpayable",
      "type": "constructor"
    },
    {
      "inputs": [],
      "name": "OnlyGeography",
      "type": "error"
    },
    {
      "anonymous": false,
      "inputs": [
        {
          "indexed": true,
          "internalType": "address",
          "name": "owner",
          "type": "address"
        },
        {
          "indexed": true,
          "internalType": "address",
          "name": "approved",
          "type": "address"
        },
        {
          "indexed": true,
          "internalType": "uint256",
          "name": "tokenId",
          "type": "uint256"
        }
      ],
      "name": "Approval",
      "type": "event"
    },
    {
      "anonymous": false,
      "inputs": [
        {
          "indexed": true,
          "internalType": "address",
          "name": "owner",
          "type": "address"
        },
        {
          "indexed": true,
          "internalType": "address",
          "name": "operator",
          "type": "address"
        },
        {
          "indexed": false,
          "internalType": "bool",
          "name": "approved",
          "type": "bool"
        }
      ],
      "name": "ApprovalForAll",
      "type": "event"
    },
    {
      "anonymous": false,
      "inputs": [
        {
          "indexed": true,
          "internalType": "address",
          "name": "previousOwner",
          "type": "address"
        },
        {
          "indexed": true,
          "internalType": "address",
          "name": "newOwner",
          "type": "address"
        }
      ],
      "name": "OwnershipTransferred",
      "type": "event"
    },
    {
      "anonymous": false,
      "inputs": [
        {
          "indexed": true,
          "internalType": "address",
          "name": "from",
          "type": "address"
        },
        {
          "indexed": true,
          "internalType": "address",
          "name": "to",
          "type": "address"
        },
        {
          "indexed": true,
          "internalType": "uint256",
          "name": "tokenId",
          "type": "uint256"
        }
      ],
      "name": "Transfer",
      "type": "event"
    },
    {
      "inputs": [
        {
          "internalType": "address",
          "name": "to",
          "type": "address"
        },
        {
          "internalType": "uint256",
          "name": "tokenId",
          "type": "uint256"
        }
      ],
      "name": "approve",
      "outputs": [],
      "stateMutability": "nonpayable",
      "type": "function"
    },
    {
      "inputs": [
        {
          "internalType": "address",
          "name": "owner",
          "type": "address"
        }
      ],
      "name": "balanceOf",
      "outputs": [
        {
          "internalType": "uint256",
          "name": "",
          "type": "uint256"
        }
      ],
      "stateMutability": "view",
      "type": "function"
    },
    {
      "inputs": [],
      "name": "baseURI",
      "outputs": [
        {
          "internalType": "string",
          "name": "",
          "type": "string"
        }
      ],
      "stateMutability": "view",
      "type": "function"
    },
    {
      "inputs": [
        {
          "internalType": "uint256",
          "name": "tokenId",
          "type": "uint256"
        }
      ],
      "name": "getApproved",
      "outputs": [
        {
          "internalType": "address",
          "name": "",
          "type": "address"
        }
      ],
      "stateMutability": "view",
      "type": "function"
    },
    {
      "inputs": [
        {
          "internalType": "address",
          "name": "holderAddress",
          "type": "address"
        }
      ],
      "name": "getTokenIdsByAddress",
      "outputs": [
        {
          "internalType": "uint256[]",
          "name": "tokenIds",
          "type": "uint256[]"
        }
      ],
      "stateMutability": "view",
      "type": "function"
    },
    {
      "inputs": [
        {
          "internalType": "address",
          "name": "owner",
          "type": "address"
        },
        {
          "internalType": "address",
          "name": "operator",
          "type": "address"
        }
      ],
      "name": "isApprovedForAll",
      "outputs": [
        {
          "internalType": "bool",
          "name": "",
          "type": "bool"
        }
      ],
      "stateMutability": "view",
      "type": "function"
    },
    {
      "inputs": [
        {
          "internalType": "address",
          "name": "to",
          "type": "address"
        },
        {
          "internalType": "uint256",
          "name": "regionId",
          "type": "uint256"
        }
      ],
      "name": "mint",
      "outputs": [],
      "stateMutability": "nonpayable",
      "type": "function"
    },
    {
      "inputs": [],
      "name": "name",
      "outputs": [
        {
          "internalType": "string",
          "name": "",
          "type": "string"
        }
      ],
      "stateMutability": "view",
      "type": "function"
    },
    {
      "inputs": [],
      "name": "owner",
      "outputs": [
        {
          "internalType": "address",
          "name": "",
          "type": "address"
        }
      ],
      "stateMutability": "view",
      "type": "function"
    },
    {
      "inputs": [
        {
          "internalType": "uint256",
          "name": "tokenId",
          "type": "uint256"
        }
      ],
      "name": "ownerOf",
      "outputs": [
        {
          "internalType": "address",
          "name": "",
          "type": "address"
        }
      ],
      "stateMutability": "view",
      "type": "function"
    },
    {
      "inputs": [],
      "name": "renounceOwnership",
      "outputs": [],
      "stateMutability": "nonpayable",
      "type": "function"
    },
    {
      "inputs": [
        {
          "internalType": "address",
          "name": "from",
          "type": "address"
        },
        {
          "internalType": "address",
          "name": "to",
          "type": "address"
        },
        {
          "internalType": "uint256",
          "name": "tokenId",
          "type": "uint256"
        }
      ],
      "name": "safeTransferFrom",
      "outputs": [],
      "stateMutability": "nonpayable",
      "type": "function"
    },
    {
      "inputs": [
        {
          "internalType": "address",
          "name": "from",
          "type": "address"
        },
        {
          "internalType": "address",
          "name": "to",
          "type": "address"
        },
        {
          "internalType": "uint256",
          "name": "tokenId",
          "type": "uint256"
        },
        {
          "internalType": "bytes",
          "name": "data",
          "type": "bytes"
        }
      ],
      "name": "safeTransferFrom",
      "outputs": [],
      "stateMutability": "nonpayable",
      "type": "function"
    },
    {
      "inputs": [
        {
          "internalType": "address",
          "name": "operator",
          "type": "address"
        },
        {
          "internalType": "bool",
          "name": "approved",
          "type": "bool"
        }
      ],
      "name": "setApprovalForAll",
      "outputs": [],
      "stateMutability": "nonpayable",
      "type": "function"
    },
    {
      "inputs": [
        {
          "internalType": "bytes4",
          "name": "interfaceId",
          "type": "bytes4"
        }
      ],
      "name": "supportsInterface",
      "outputs": [
        {
          "internalType": "bool",
          "name": "",
          "type": "bool"
        }
      ],
      "stateMutability": "view",
      "type": "function"
    },
    {
      "inputs": [],
      "name": "symbol",
      "outputs": [
        {
          "internalType": "string",
          "name": "",
          "type": "string"
        }
      ],
      "stateMutability": "view",
      "type": "function"
    },
    {
      "inputs": [
        {
          "internalType": "uint256",
          "name": "index",
          "type": "uint256"
        }
      ],
      "name": "tokenByIndex",
      "outputs": [
        {
          "internalType": "uint256",
          "name": "",
          "type": "uint256"
        }
      ],
      "stateMutability": "view",
      "type": "function"
    },
    {
      "inputs": [
        {
          "internalType": "address",
          "name": "owner",
          "type": "address"
        },
        {
          "internalType": "uint256",
          "name": "index",
          "type": "uint256"
        }
      ],
      "name": "tokenOfOwnerByIndex",
      "outputs": [
        {
          "internalType": "uint256",
          "name": "",
          "type": "uint256"
        }
      ],
      "stateMutability": "view",
      "type": "function"
    },
    {
      "inputs": [
        {
          "internalType": "uint256",
          "name": "tokenId",
          "type": "uint256"
        }
      ],
      "name": "tokenURI",
      "outputs": [
        {
          "internalType": "string",
          "name": "",
          "type": "string"
        }
      ],
      "stateMutability": "view",
      "type": "function"
    },
    {
      "inputs": [],
      "name": "totalSupply",
      "outputs": [
        {
          "internalType": "uint256",
          "name": "",
          "type": "uint256"
        }
      ],
      "stateMutability": "view",
      "type": "function"
    },
    {
      "inputs": [
        {
          "internalType": "address",
          "name": "from",
          "type": "address"
        },
        {
          "internalType": "address",
          "name": "to",
          "type": "address"
        },
        {
          "internalType": "uint256",
          "name": "tokenId",
          "type": "uint256"
        }
      ],
      "name": "transferFrom",
      "outputs": [],
      "stateMutability": "nonpayable",
      "type": "function"
    },
    {
      "inputs": [
        {
          "internalType": "address",
          "name": "newOwner",
          "type": "address"
        }
      ],
      "name": "transferOwnership",
      "outputs": [],
      "stateMutability": "nonpayable",
      "type": "function"
    },
    {
      "inputs": [
        {
          "internalType": "string",
          "name": "_uri",
          "type": "string"
        }
      ],
      "name": "updateURI",
      "outputs": [],
      "stateMutability": "nonpayable",
      "type": "function"
    },
    {
      "inputs": [],
      "name": "world",
      "outputs": [
        {
          "internalType": "contract IWorld",
          "name": "",
          "type": "address"
        }
      ],
      "stateMutability": "view",
      "type": "function"
    }
  ],
  "bytecode": "0x608060405234801561001057600080fd5b506040516121c13803806121c183398101604081905261002f916101a3565b8383600061003d83826102e2565b50600161004a82826102e2565b50505061006361005e61009460201b60201c565b610098565b600b80546001600160a01b0319166001600160a01b038316179055600c61008a83826102e2565b50505050506103a0565b3390565b600a80546001600160a01b038381166001600160a01b0319831681179093556040519116919082907f8be0079c531659141344cd1fd0a4f28419497f9722a3daafe3b4186f6b6457e090600090a35050565b634e487b7160e01b600052604160045260246000fd5b600082601f83011261011157600080fd5b81516001600160401b0381111561012a5761012a6100ea565b604051601f8201601f19908116603f011681016001600160401b0381118282101715610158576101586100ea565b60405281815283820160200185101561017057600080fd5b60005b8281101561018f57602081860181015183830182015201610173565b506000918101602001919091529392505050565b600080600080608085870312156101b957600080fd5b84516001600160401b038111156101cf57600080fd5b6101db87828801610100565b602087015190955090506001600160401b038111156101f957600080fd5b61020587828801610100565b604087015190945090506001600160401b0381111561022357600080fd5b61022f87828801610100565b606087015190935090506001600160a01b038116811461024e57600080fd5b939692955090935050565b600181811c9082168061026d57607f821691505b60208210810361028d57634e487b7160e01b600052602260045260246000fd5b50919050565b601f8211156102dd57806000526020600020601f840160051c810160208510156102ba5750805b601f840160051c820191505b818110156102da57600081556001016102c6565b50505b505050565b81516001600160401b038111156102fb576102fb6100ea565b61030f816103098454610259565b84610293565b6020601f821160018114610343576000831561032b5750848201515b600019600385901b1c1916600184901b1784556102da565b600084815260208120601f198516915b828110156103735787850151825560209485019460019092019101610353565b50848210156103915786840151600019600387901b60f8161c191681555b50505050600190811b01905550565b611e12806103af6000396000f3fe608060405234801561001057600080fd5b50600436106101985760003560e01c80636c0360eb116100e3578063a22cb4651161008c578063c87b56dd11610066578063c87b56dd14610346578063e985e9c514610359578063f2fde38b1461039557600080fd5b8063a22cb4651461030d578063b88d4fde14610320578063c30f4a5a1461033357600080fd5b806389d5feee116100bd57806389d5feee146102d45780638da5cb5b146102f457806395d89b411461030557600080fd5b80636c0360eb146102b157806370a08231146102b9578063715018a6146102cc57600080fd5b80632f745c591161014557806342842e0e1161011f57806342842e0e146102785780634f6ccce71461028b5780636352211e1461029e57600080fd5b80632f745c591461023f57806330b67baa1461025257806340c10f191461026557600080fd5b8063095ea7b311610176578063095ea7b31461020557806318160ddd1461021a57806323b872dd1461022c57600080fd5b806301ffc9a71461019d57806306fdde03146101c5578063081812fc146101da575b600080fd5b6101b06101ab3660046117ec565b6103a8565b60405190151581526020015b60405180910390f35b6101cd6103d3565b6040516101bc9190611859565b6101ed6101e836600461186c565b610465565b6040516001600160a01b0390911681526020016101bc565b61021861021336600461189a565b61048c565b005b6008545b6040519081526020016101bc565b61021861023a3660046118c6565b6105a6565b61021e61024d36600461189a565b61061e565b600b546101ed906001600160a01b031681565b61021861027336600461189a565b6106c6565b6102186102863660046118c6565b61078c565b61021e61029936600461186c565b6107a7565b6101ed6102ac36600461186c565b61084b565b6101cd6108b0565b61021e6102c7366004611907565b61093e565b6102186109d8565b6102e76102e2366004611907565b6109ec565b6040516101bc9190611924565b600a546001600160a01b03166101ed565b6101cd610a81565b61021861031b366004611967565b610a90565b61021861032e366004611a35565b610a9b565b610218610341366004611ab5565b610b1a565b6101cd61035436600461186c565b610b2e565b6101b0610367366004611afe565b6001600160a01b03918216600090815260056020908152604080832093909416825291909152205460ff1690565b6102186103a3366004611907565b610b95565b60006001600160e01b0319821663780e9d6360e01b14806103cd57506103cd82610c0e565b92915050565b6060600080546103e290611b2c565b80601f016020809104026020016040519081016040528092919081815260200182805461040e90611b2c565b801561045b5780601f106104305761010080835404028352916020019161045b565b820191906000526020600020905b81548152906001019060200180831161043e57829003601f168201915b5050505050905090565b600061047082610c5e565b506000908152600460205260409020546001600160a01b031690565b60006104978261084b565b9050806001600160a01b0316836001600160a01b0316036105095760405162461bcd60e51b815260206004820152602160248201527f4552433732313a20617070726f76616c20746f2063757272656e74206f776e656044820152603960f91b60648201526084015b60405180910390fd5b336001600160a01b038216148061052557506105258133610367565b6105975760405162461bcd60e51b815260206004820152603e60248201527f4552433732313a20617070726f76652063616c6c6572206973206e6f7420746f60448201527f6b656e206f776e6572206e6f7220617070726f76656420666f7220616c6c00006064820152608401610500565b6105a18383610cc2565b505050565b6105b03382610d30565b6106135760405162461bcd60e51b815260206004820152602e60248201527f4552433732313a2063616c6c6572206973206e6f7420746f6b656e206f776e6560448201526d1c881b9bdc88185c1c1c9bdd995960921b6064820152608401610500565b6105a1838383610daf565b60006106298361093e565b821061069d5760405162461bcd60e51b815260206004820152602b60248201527f455243373231456e756d657261626c653a206f776e657220696e646578206f7560448201527f74206f6620626f756e64730000000000000000000000000000000000000000006064820152608401610500565b506001600160a01b03919091166000908152600660209081526040808320938352929052205490565b600b60009054906101000a90046001600160a01b03166001600160a01b031663f5f026a36040518163ffffffff1660e01b8152600401602060405180830381865afa158015610719573d6000803e3d6000fd5b505050506040513d601f19601f8201168201806040525081019061073d9190611b66565b6001600160a01b0316336001600160a01b03161461076e576040516301252dd760e11b815260040160405180910390fd5b610788828260405180602001604052806000815250610f56565b5050565b6105a183838360405180602001604052806000815250610a9b565b60006107b260085490565b82106108265760405162461bcd60e51b815260206004820152602c60248201527f455243373231456e756d657261626c653a20676c6f62616c20696e646578206f60448201527f7574206f6620626f756e647300000000000000000000000000000000000000006064820152608401610500565b6008828154811061083957610839611b83565b90600052602060002001549050919050565b6000818152600260205260408120546001600160a01b0316806103cd5760405162461bcd60e51b815260206004820152601860248201527f4552433732313a20696e76616c696420746f6b656e20494400000000000000006044820152606401610500565b600c80546108bd90611b2c565b80601f01602080910402602001604051908101604052809291908181526020018280546108e990611b2c565b80156109365780601f1061090b57610100808354040283529160200191610936565b820191906000526020600020905b81548152906001019060200180831161091957829003601f168201915b505050505081565b60006001600160a01b0382166109bc5760405162461bcd60e51b815260206004820152602960248201527f4552433732313a2061646472657373207a65726f206973206e6f74206120766160448201527f6c6964206f776e657200000000000000000000000000000000000000000000006064820152608401610500565b506001600160a01b031660009081526003602052604090205490565b6109e0610fd4565b6109ea600061102e565b565b606060006109f98361093e565b90508067ffffffffffffffff811115610a1457610a146119a5565b604051908082528060200260200182016040528015610a3d578160200160208202803683370190505b50915060005b81811015610a7a57610a55848261061e565b838281518110610a6757610a67611b83565b6020908102919091010152600101610a43565b5050919050565b6060600180546103e290611b2c565b610788338383611080565b610aa53383610d30565b610b085760405162461bcd60e51b815260206004820152602e60248201527f4552433732313a2063616c6c6572206973206e6f7420746f6b656e206f776e6560448201526d1c881b9bdc88185c1c1c9bdd995960921b6064820152608401610500565b610b148484848461114e565b50505050565b610b22610fd4565b600c6107888282611be7565b6060610b3982610c5e565b6000610b436111cc565b90506000815111610b635760405180602001604052806000815250610b8e565b80610b6d846111db565b604051602001610b7e929190611ca6565b6040516020818303038152906040525b9392505050565b610b9d610fd4565b6001600160a01b038116610c025760405162461bcd60e51b815260206004820152602660248201527f4f776e61626c653a206e6577206f776e657220697320746865207a65726f206160448201526564647265737360d01b6064820152608401610500565b610c0b8161102e565b50565b60006001600160e01b031982166380ac58cd60e01b1480610c3f57506001600160e01b03198216635b5e139f60e01b145b806103cd57506301ffc9a760e01b6001600160e01b03198316146103cd565b6000818152600260205260409020546001600160a01b0316610c0b5760405162461bcd60e51b815260206004820152601860248201527f4552433732313a20696e76616c696420746f6b656e20494400000000000000006044820152606401610500565b600081815260046020526040902080546001600160a01b0319166001600160a01b0384169081179091558190610cf78261084b565b6001600160a01b03167f8c5be1e5ebec7d5bd14f71427d1e84f3dd0314c0f7b2291e5b200ac8c7c3b92560405160405180910390a45050565b600080610d3c8361084b565b9050806001600160a01b0316846001600160a01b03161480610d8357506001600160a01b0380821660009081526005602090815260408083209388168352929052205460ff165b80610da75750836001600160a01b0316610d9c84610465565b6001600160a01b0316145b949350505050565b826001600160a01b0316610dc28261084b565b6001600160a01b031614610e265760405162461bcd60e51b815260206004820152602560248201527f4552433732313a207472616e736665722066726f6d20696e636f72726563742060448201526437bbb732b960d91b6064820152608401610500565b6001600160a01b038216610e885760405162461bcd60e51b8152602060048201526024808201527f4552433732313a207472616e7366657220746f20746865207a65726f206164646044820152637265737360e01b6064820152608401610500565b610e938383836112f4565b610e9e600082610cc2565b6001600160a01b0383166000908152600360205260408120805460019290610ec7908490611ceb565b90915550506001600160a01b0382166000908152600360205260408120805460019290610ef5908490611cfe565b909155505060008181526002602052604080822080546001600160a01b0319166001600160a01b0386811691821790925591518493918716917fddf252ad1be2c89b69c2b068fc378daa952ba7f163c4a11628f55a4df523b3ef91a4505050565b610f6083836113ac565b610f6d60008484846114fa565b6105a15760405162461bcd60e51b815260206004820152603260248201527f4552433732313a207472616e7366657220746f206e6f6e20455243373231526560448201527131b2b4bb32b91034b6b83632b6b2b73a32b960711b6064820152608401610500565b600a546001600160a01b031633146109ea5760405162461bcd60e51b815260206004820181905260248201527f4f776e61626c653a2063616c6c6572206973206e6f7420746865206f776e65726044820152606401610500565b600a80546001600160a01b038381166001600160a01b0319831681179093556040519116919082907f8be0079c531659141344cd1fd0a4f28419497f9722a3daafe3b4186f6b6457e090600090a35050565b816001600160a01b0316836001600160a01b0316036110e15760405162461bcd60e51b815260206004820152601960248201527f4552433732313a20617070726f766520746f2063616c6c6572000000000000006044820152606401610500565b6001600160a01b03838116600081815260056020908152604080832094871680845294825291829020805460ff191686151590811790915591519182527f17307eab39ab6107e8899845ad3d59bd9653f200f220920489ca2b5937696c31910160405180910390a3505050565b611159848484610daf565b611165848484846114fa565b610b145760405162461bcd60e51b815260206004820152603260248201527f4552433732313a207472616e7366657220746f206e6f6e20455243373231526560448201527131b2b4bb32b91034b6b83632b6b2b73a32b960711b6064820152608401610500565b6060600c80546103e290611b2c565b6060816000036112025750506040805180820190915260018152600360fc1b602082015290565b8160005b811561122c578061121681611d11565b91506112259050600a83611d40565b9150611206565b60008167ffffffffffffffff811115611247576112476119a5565b6040519080825280601f01601f191660200182016040528015611271576020820181803683370190505b5090505b8415610da757611286600183611ceb565b9150611293600a86611d54565b61129e906030611cfe565b60f81b8183815181106112b3576112b3611b83565b60200101907effffffffffffffffffffffffffffffffffffffffffffffffffffffffffffff1916908160001a9053506112ed600a86611d40565b9450611275565b6001600160a01b03831661134f5761134a81600880546000838152600960205260408120829055600182018355919091527ff3f7a9fe364faab93b216da50a3214154f22a0a2b415b23a84c8169e8b636ee30155565b611372565b816001600160a01b0316836001600160a01b031614611372576113728382611646565b6001600160a01b038216611389576105a1816116e3565b826001600160a01b0316826001600160a01b0316146105a1576105a18282611792565b6001600160a01b0382166114025760405162461bcd60e51b815260206004820181905260248201527f4552433732313a206d696e7420746f20746865207a65726f20616464726573736044820152606401610500565b6000818152600260205260409020546001600160a01b0316156114675760405162461bcd60e51b815260206004820152601c60248201527f4552433732313a20746f6b656e20616c7265616479206d696e746564000000006044820152606401610500565b611473600083836112f4565b6001600160a01b038216600090815260036020526040812080546001929061149c908490611cfe565b909155505060008181526002602052604080822080546001600160a01b0319166001600160a01b03861690811790915590518392907fddf252ad1be2c89b69c2b068fc378daa952ba7f163c4a11628f55a4df523b3ef908290a45050565b60006001600160a01b0384163b1561163b57604051630a85bd0160e11b81526001600160a01b0385169063150b7a029061153e903390899088908890600401611d68565b6020604051808303816000875af1925050508015611579575060408051601f3d908101601f1916820190925261157691810190611da9565b60015b611621573d8080156115a7576040519150601f19603f3d011682016040523d82523d6000602084013e6115ac565b606091505b5080516000036116195760405162461bcd60e51b815260206004820152603260248201527f4552433732313a207472616e7366657220746f206e6f6e20455243373231526560448201527131b2b4bb32b91034b6b83632b6b2b73a32b960711b6064820152608401610500565b805181602001fd5b6001600160e01b031916630a85bd0160e11b149050610da7565b506001949350505050565b600060016116538461093e565b61165d9190611ceb565b6000838152600760205260409020549091508082146116b0576001600160a01b03841660009081526006602090815260408083208584528252808320548484528184208190558352600790915290208190555b5060009182526007602090815260408084208490556001600160a01b039094168352600681528383209183525290812055565b6008546000906116f590600190611ceb565b6000838152600960205260408120546008805493945090928490811061171d5761171d611b83565b90600052602060002001549050806008838154811061173e5761173e611b83565b600091825260208083209091019290925582815260099091526040808220849055858252812055600880548061177657611776611dc6565b6001900381819060005260206000200160009055905550505050565b600061179d8361093e565b6001600160a01b039093166000908152600660209081526040808320868452825280832085905593825260079052919091209190915550565b6001600160e01b031981168114610c0b57600080fd5b6000602082840312156117fe57600080fd5b8135610b8e816117d6565b60005b8381101561182457818101518382015260200161180c565b50506000910152565b60008151808452611845816020860160208601611809565b601f01601f19169290920160200192915050565b602081526000610b8e602083018461182d565b60006020828403121561187e57600080fd5b5035919050565b6001600160a01b0381168114610c0b57600080fd5b600080604083850312156118ad57600080fd5b82356118b881611885565b946020939093013593505050565b6000806000606084860312156118db57600080fd5b83356118e681611885565b925060208401356118f681611885565b929592945050506040919091013590565b60006020828403121561191957600080fd5b8135610b8e81611885565b602080825282518282018190526000918401906040840190835b8181101561195c57835183526020938401939092019160010161193e565b509095945050505050565b6000806040838503121561197a57600080fd5b823561198581611885565b91506020830135801515811461199a57600080fd5b809150509250929050565b634e487b7160e01b600052604160045260246000fd5b60008067ffffffffffffffff8411156119d6576119d66119a5565b50604051601f19601f85018116603f0116810181811067ffffffffffffffff82111715611a0557611a056119a5565b604052838152905080828401851015611a1d57600080fd5b83836020830137600060208583010152509392505050565b60008060008060808587031215611a4b57600080fd5b8435611a5681611885565b93506020850135611a6681611885565b925060408501359150606085013567ffffffffffffffff811115611a8957600080fd5b8501601f81018713611a9a57600080fd5b611aa9878235602084016119bb565b91505092959194509250565b600060208284031215611ac757600080fd5b813567ffffffffffffffff811115611ade57600080fd5b8201601f81018413611aef57600080fd5b610da7848235602084016119bb565b60008060408385031215611b1157600080fd5b8235611b1c81611885565b9150602083013561199a81611885565b600181811c90821680611b4057607f821691505b602082108103611b6057634e487b7160e01b600052602260045260246000fd5b50919050565b600060208284031215611b7857600080fd5b8151610b8e81611885565b634e487b7160e01b600052603260045260246000fd5b601f8211156105a157806000526020600020601f840160051c81016020851015611bc05750805b601f840160051c820191505b81811015611be05760008155600101611bcc565b5050505050565b815167ffffffffffffffff811115611c0157611c016119a5565b611c1581611c0f8454611b2c565b84611b99565b6020601f821160018114611c495760008315611c315750848201515b600019600385901b1c1916600184901b178455611be0565b600084815260208120601f198516915b82811015611c795787850151825560209485019460019092019101611c59565b5084821015611c975786840151600019600387901b60f8161c191681555b50505050600190811b01905550565b60008351611cb8818460208801611809565b835190830190611ccc818360208801611809565b01949350505050565b634e487b7160e01b600052601160045260246000fd5b818103818111156103cd576103cd611cd5565b808201808211156103cd576103cd611cd5565b600060018201611d2357611d23611cd5565b5060010190565b634e487b7160e01b600052601260045260246000fd5b600082611d4f57611d4f611d2a565b500490565b600082611d6357611d63611d2a565b500690565b6001600160a01b03851681526001600160a01b0384166020820152826040820152608060608201526000611d9f608083018461182d565b9695505050505050565b600060208284031215611dbb57600080fd5b8151610b8e816117d6565b634e487b7160e01b600052603160045260246000fdfea2646970667358221220eec4969e4695743631c2b8b5f682d71f8e7b24539cfba0582eb97f4159241fa664736f6c634300081a0033",
  "linkReferences": {},
  "deployedLinkReferences": {}
}