{
  "_format": "hh-sol-artifact-1",
  "contractName": "Battle",
  "sourceName": "contracts/core/assets/battle/Battle.sol",
  "abi": [
    {
      "inputs": [],
      "name": "BattleCannotAcceptCultistsArmyWhenCultistsAmountChangedToLowerValueThanDesired",
      "type": "error"
    },
    {
      "inputs": [],
      "name": "BattleCannotBeCreatedByDesiringToAttackCultistsArmyWithoutUnits",
      "type": "error"
    },
    {
      "inputs": [],
      "name": "BattleCannotBeCreatedWhenArmyUnitsExceedDesiredAmountToAttack",
      "type": "error"
    },
    {
      "inputs": [],
      "name": "BattleCannotBeCreatedWhenAttackedArmyIsAlmostOnAnotherPosition",
      "type": "error"
    },
    {
      "inputs": [],
      "name": "BattleCannotBeCreatedWithArmiesHavingZeroUnits",
      "type": "error"
    },
    {
      "inputs": [],
      "name": "BattleCannotBeFinishedAtThisTime",
      "type": "error"
    },
    {
      "inputs": [],
      "name": "BattleCannotBeFinishedMoreThanOnce",
      "type": "error"
    },
    {
      "inputs": [],
      "name": "OnlyActiveGame",
      "type": "error"
    },
    {
      "inputs": [],
      "name": "OnlyMightyCreator",
      "type": "error"
    },
    {
      "inputs": [],
      "name": "OnlyWorldAssetFromSameEra",
      "type": "error"
    },
    {
      "inputs": [],
      "name": "UnknownInputParameter",
      "type": "error"
    },
    {
      "anonymous": false,
      "inputs": [
        {
          "indexed": false,
          "internalType": "address",
          "name": "armyAddress",
          "type": "address"
        },
        {
          "indexed": false,
          "internalType": "uint256",
          "name": "side",
          "type": "uint256"
        }
      ],
      "name": "ArmyJoined",
      "type": "event"
    },
    {
      "anonymous": false,
      "inputs": [
        {
          "indexed": false,
          "internalType": "uint256",
          "name": "endTime",
          "type": "uint256"
        }
      ],
      "name": "BattleEnded",
      "type": "event"
    },
    {
      "anonymous": false,
      "inputs": [
        {
          "indexed": false,
          "internalType": "uint8",
          "name": "version",
          "type": "uint8"
        }
      ],
      "name": "Initialized",
      "type": "event"
    },
    {
      "inputs": [
        {
          "internalType": "address",
          "name": "armyAddress",
          "type": "address"
        },
        {
          "internalType": "uint256",
          "name": "side",
          "type": "uint256"
        }
      ],
      "name": "acceptArmyInBattle",
      "outputs": [],
      "stateMutability": "nonpayable",
      "type": "function"
    },
    {
      "inputs": [
        {
          "internalType": "address",
          "name": "",
          "type": "address"
        }
      ],
      "name": "armySide",
      "outputs": [
        {
          "internalType": "uint256",
          "name": "",
          "type": "uint256"
        }
      ],
      "stateMutability": "view",
      "type": "function"
    },
    {
      "inputs": [
        {
          "internalType": "address",
          "name": "",
          "type": "address"
        },
        {
          "internalType": "bytes32",
          "name": "",
          "type": "bytes32"
        }
      ],
      "name": "armyUnitsAdditionalMultipliers",
      "outputs": [
        {
          "internalType": "uint256",
          "name": "",
          "type": "uint256"
        }
      ],
      "stateMutability": "view",
      "type": "function"
    },
    {
      "inputs": [
        {
          "internalType": "address",
          "name": "",
          "type": "address"
        },
        {
          "internalType": "bytes32",
          "name": "",
          "type": "bytes32"
        }
      ],
      "name": "armyUnitsAmount",
      "outputs": [
        {
          "internalType": "uint256",
          "name": "",
          "type": "uint256"
        }
      ],
      "stateMutability": "view",
      "type": "function"
    },
    {
      "inputs": [],
      "name": "assetGroupId",
      "outputs": [
        {
          "internalType": "bytes32",
          "name": "",
          "type": "bytes32"
        }
      ],
      "stateMutability": "view",
      "type": "function"
    },
    {
      "inputs": [],
      "name": "assetTypeId",
      "outputs": [
        {
          "internalType": "bytes32",
          "name": "",
          "type": "bytes32"
        }
      ],
      "stateMutability": "view",
      "type": "function"
    },
    {
      "inputs": [],
      "name": "battleTimeInfo",
      "outputs": [
        {
          "internalType": "uint64",
          "name": "beginTime",
          "type": "uint64"
        },
        {
          "internalType": "uint64",
          "name": "duration",
          "type": "uint64"
        },
        {
          "internalType": "uint64",
          "name": "endTime",
          "type": "uint64"
        }
      ],
      "stateMutability": "view",
      "type": "function"
    },
    {
      "inputs": [],
      "name": "calculateAllCasualties",
      "outputs": [
        {
          "internalType": "uint256[]",
          "name": "",
          "type": "uint256[]"
        },
        {
          "internalType": "uint256[]",
          "name": "",
          "type": "uint256[]"
        },
        {
          "internalType": "uint256",
          "name": "",
          "type": "uint256"
        }
      ],
      "stateMutability": "view",
      "type": "function"
    },
    {
      "inputs": [
        {
          "internalType": "address",
          "name": "armyAddress",
          "type": "address"
        }
      ],
      "name": "calculateArmyCasualties",
      "outputs": [
        {
          "internalType": "bool",
          "name": "",
          "type": "bool"
        },
        {
          "internalType": "uint256[]",
          "name": "",
          "type": "uint256[]"
        }
      ],
      "stateMutability": "view",
      "type": "function"
    },
    {
      "inputs": [
        {
          "internalType": "uint256",
          "name": "globalMultiplier",
          "type": "uint256"
        },
        {
          "internalType": "uint256",
          "name": "baseBattleDuration",
          "type": "uint256"
        },
        {
          "internalType": "uint256",
          "name": "minimumBattleDuration",
          "type": "uint256"
        },
        {
          "internalType": "bool",
          "name": "isCultistsAttacked",
          "type": "bool"
        },
        {
          "internalType": "uint256",
          "name": "side1UnitsAmount",
          "type": "uint256"
        },
        {
          "internalType": "uint256",
          "name": "side2UnitsAmount",
          "type": "uint256"
        },
        {
          "internalType": "uint256",
          "name": "maxBattleDuration",
          "type": "uint256"
        }
      ],
      "name": "calculateBattleDuration",
      "outputs": [
        {
          "internalType": "uint64",
          "name": "",
          "type": "uint64"
        }
      ],
      "stateMutability": "view",
      "type": "function"
    },
    {
      "inputs": [],
      "name": "calculateStage1Casualties",
      "outputs": [
        {
          "internalType": "uint256[]",
          "name": "_side1Casualties",
          "type": "uint256[]"
        },
        {
          "internalType": "uint256[]",
          "name": "_side2Casualties",
          "type": "uint256[]"
        },
        {
          "internalType": "bytes",
          "name": "stageParams",
          "type": "bytes"
        }
      ],
      "stateMutability": "view",
      "type": "function"
    },
    {
      "inputs": [
        {
          "internalType": "uint256[]",
          "name": "stage1Side1Casualties",
          "type": "uint256[]"
        },
        {
          "internalType": "uint256[]",
          "name": "stage1Side2Casualties",
          "type": "uint256[]"
        }
      ],
      "name": "calculateStage2Casualties",
      "outputs": [
        {
          "internalType": "uint256[]",
          "name": "_side1Casualties",
          "type": "uint256[]"
        },
        {
          "internalType": "uint256[]",
          "name": "_side2Casualties",
          "type": "uint256[]"
        },
        {
          "internalType": "bytes",
          "name": "stageParams",
          "type": "bytes"
        }
      ],
      "stateMutability": "view",
      "type": "function"
    },
    {
      "inputs": [],
      "name": "canEndBattle",
      "outputs": [
        {
          "internalType": "bool",
          "name": "",
          "type": "bool"
        }
      ],
      "stateMutability": "view",
      "type": "function"
    },
    {
      "inputs": [
        {
          "internalType": "uint256",
          "name": "",
          "type": "uint256"
        },
        {
          "internalType": "bytes32",
          "name": "",
          "type": "bytes32"
        }
      ],
      "name": "casualties",
      "outputs": [
        {
          "internalType": "uint256",
          "name": "",
          "type": "uint256"
        }
      ],
      "stateMutability": "view",
      "type": "function"
    },
    {
      "inputs": [],
      "name": "endBattle",
      "outputs": [],
      "stateMutability": "nonpayable",
      "type": "function"
    },
    {
      "inputs": [],
      "name": "era",
      "outputs": [
        {
          "internalType": "contract IEra",
          "name": "",
          "type": "address"
        }
      ],
      "stateMutability": "view",
      "type": "function"
    },
    {
      "inputs": [],
      "name": "eraNumber",
      "outputs": [
        {
          "internalType": "uint256",
          "name": "",
          "type": "uint256"
        }
      ],
      "stateMutability": "view",
      "type": "function"
    },
    {
      "inputs": [
        {
          "internalType": "bool",
          "name": "isCultistsAttacked",
          "type": "bool"
        },
        {
          "internalType": "uint256",
          "name": "maxBattleDuration",
          "type": "uint256"
        },
        {
          "internalType": "uint256",
          "name": "side1UnitsAmount",
          "type": "uint256"
        },
        {
          "internalType": "uint256",
          "name": "side2UnitsAmount",
          "type": "uint256"
        }
      ],
      "name": "getBattleDuration",
      "outputs": [
        {
          "internalType": "uint64",
          "name": "",
          "type": "uint64"
        }
      ],
      "stateMutability": "view",
      "type": "function"
    },
    {
      "inputs": [
        {
          "internalType": "bytes",
          "name": "initParams",
          "type": "bytes"
        }
      ],
      "name": "init",
      "outputs": [],
      "stateMutability": "nonpayable",
      "type": "function"
    },
    {
      "inputs": [],
      "name": "isEndedBattle",
      "outputs": [
        {
          "internalType": "bool",
          "name": "",
          "type": "bool"
        }
      ],
      "stateMutability": "view",
      "type": "function"
    },
    {
      "inputs": [],
      "name": "isLobbyTime",
      "outputs": [
        {
          "internalType": "bool",
          "name": "",
          "type": "bool"
        }
      ],
      "stateMutability": "view",
      "type": "function"
    },
    {
      "inputs": [],
      "name": "position",
      "outputs": [
        {
          "internalType": "uint64",
          "name": "",
          "type": "uint64"
        }
      ],
      "stateMutability": "view",
      "type": "function"
    },
    {
      "inputs": [],
      "name": "registry",
      "outputs": [
        {
          "internalType": "contract IRegistry",
          "name": "",
          "type": "address"
        }
      ],
      "stateMutability": "view",
      "type": "function"
    },
    {
      "inputs": [
        {
          "internalType": "uint256",
          "name": "",
          "type": "uint256"
        },
        {
          "internalType": "bytes32",
          "name": "",
          "type": "bytes32"
        }
      ],
      "name": "sideUnitsAmount",
      "outputs": [
        {
          "internalType": "uint256",
          "name": "",
          "type": "uint256"
        }
      ],
      "stateMutability": "view",
      "type": "function"
    },
    {
      "inputs": [],
      "name": "winningSide",
      "outputs": [
        {
          "internalType": "uint256",
          "name": "",
          "type": "uint256"
        }
      ],
      "stateMutability": "view",
      "type": "function"
    },
    {
      "inputs": [],
      "name": "world",
      "outputs": [
        {
          "internalType": "contract IWorld",
          "name": "",
          "type": "address"
        }
      ],
      "stateMutability": "view",
      "type": "function"
    },
    {
      "inputs": [],
      "name": "worldAssetFactory",
      "outputs": [
        {
          "internalType": "contract IWorldAssetFactory",
          "name": "",
          "type": "address"
        }
      ],
      "stateMutability": "view",
      "type": "function"
    }
  ],
  "bytecode": "0x6080604052348015600f57600080fd5b506136e88061001f6000396000f3fe608060405234801561001057600080fd5b50600436106101b95760003560e01c80637b103999116100f9578063bb713ee811610097578063ece56a1a11610071578063ece56a1a1461045f578063ee260fbb14610467578063f4f67fc114610492578063fbf06338146104b257600080fd5b8063bb713ee81461042d578063bc68eb4914610444578063d1c986181461045757600080fd5b80638dc82a4a116100d35780638dc82a4a146103d05780638f5803f0146103fb578063971e03cc1461040e5780639d4095fe1461042557600080fd5b80637b1039991461037a5780637d884c741461038257806384ba89e3146103a957600080fd5b806330b67baa116101665780634ddf47d4116101405780634ddf47d41461032957806371b95cb11461033e57806373511c0214610351578063758461351461037257600080fd5b806330b67baa146102a3578063383f9ac3146102ab57806338569379146102fe57600080fd5b8063143e55e011610197578063143e55e014610232578063143ef9ac146102525780631852b5af1461027d57600080fd5b8063057dc995146101be57806309218e91146101ee5780630b4e99c314610201575b600080fd5b6101d16101cc366004612f78565b6104bb565b6040516001600160401b0390911681526020015b60405180910390f35b6003546101d1906001600160401b031681565b7f6c85b93e587873fbe6712f3b438d42c2945689b262f7bd34b8ea4e3f832a89ea545b6040519081526020016101e5565b61023a6105cd565b6040516001600160a01b0390911681526020016101e5565b610224610260366004612fea565b600560209081526000928352604080842090915290825290205481565b600954600160801b90046001600160401b031615155b60405190151581526020016101e5565b61023a610671565b6009546102d4906001600160401b0380821691600160401b8104821691600160801b9091041683565b604080516001600160401b03948516815292841660208401529216918101919091526060016101e5565b61022461030c366004613016565b600460209081526000928352604080842090915290825290205481565b61033c61033736600461307e565b6106a4565b005b6101d161034c366004613116565b610b88565b61036461035f36600461314f565b610ba0565b6040516101e59291906131a8565b610293610dd4565b61023a610ea7565b7f6c85b93e587873fbe6712f3b438d42c2945689b262f7bd34b8ea4e3f832a89e754610224565b7f6c85b93e587873fbe6712f3b438d42c2945689b262f7bd34b8ea4e3f832a89e954610224565b6102246103de366004613016565b600760209081526000928352604080842090915290825290205481565b61033c610409366004612fea565b610eee565b6104166112cc565b6040516101e5939291906131c3565b6102936117e5565b6104356118b7565b6040516101e593929190613239565b6104166104523660046132ff565b611a5d565b61033c611f33565b61023a612288565b610224610475366004612fea565b600660209081526000928352604080842090915290825290205481565b6102246104a036600461314f565b60086020526000908152604090205481565b610224600a5481565b60008315806104c8575082155b156104e65760405163e12ddd0b60e01b815260040160405180910390fd5b60006104f28989613392565b90508561058e57838510158015610512575060016105108587613392565b115b156105445784846105248360026133a6565b6001600160401b031661053791906133c8565b6105419190613392565b90505b848411801561055c5750600161055a8686613392565b115b1561058e57838561056e8360026133a6565b6001600160401b031661058191906133c8565b61058b9190613392565b90505b82158015906105a55750806001600160401b031683105b156105ad5750815b86816001600160401b031610156105c15750855b98975050505050505050565b60006105d7610671565b6001600160a01b031663720a70bd61060d7f6c85b93e587873fbe6712f3b438d42c2945689b262f7bd34b8ea4e3f832a89e75490565b6040518263ffffffff1660e01b815260040161062b91815260200190565b602060405180830381865afa158015610648573d6000803e3d6000fd5b505050506040513d601f19601f8201168201806040525081019061066c91906133df565b905090565b600061066c7f6c85b93e587873fbe6712f3b438d42c2945689b262f7bd34b8ea4e3f832a89e6546001600160a01b031690565b600054610100900460ff16158080156106c45750600054600160ff909116105b806106de5750303b1580156106de575060005460ff166001145b6107545760405162461bcd60e51b815260206004820152602e60248201527f496e697469616c697a61626c653a20636f6e747261637420697320616c72656160448201527f647920696e697469616c697a6564000000000000000000000000000000000000606482015260840160405180910390fd5b6000805460ff191660011790558015610777576000805461ff0019166101001790555b60008060008085806020019051810190610791919061345a565b935093509350935060008490506000849050816001600160a01b031663418f35cc6040518163ffffffff1660e01b8152600401602060405180830381865afa1580156107e1573d6000803e3d6000fd5b505050506040513d601f19601f82011682018060405250810190610805919061355a565b6003805467ffffffffffffffff199081166001600160401b039384161790915560098054909116429092169190911790556000610841866122cf565b905080610876576108538686866123c8565b1561087157604051634f55a85360e11b815260040160405180910390fd5b610965565b6000805b865181101561094157600087828151811061089757610897613575565b6020026020010151905060008783815181106108b5576108b5613575565b6020026020010151905060016000018984815181106108d6576108d6613575565b60209081029190910181015182546001810184556000938452919092200155875160029089908590811061090c5761090c613575565b60209081029190910181015182546001810184556000938452919092200155610935818561358b565b9350505060010161087a565b50806000036109635760405163a7998b9760e01b815260040160405180910390fd5b505b6000826001600160a01b031663610bb6a06040518163ffffffff1660e01b815260040160a060405180830381865afa1580156109a5573d6000803e3d6000fd5b505050506040513d601f19601f820116820180604052508101906109c9919061359e565b505060095491935060009250506001600160401b039081169083161115610a2d57600954610a00906001600160401b0316836135fe565b6001600160401b03169050600a811015610a2d5760405163f9df86ef60e01b815260040160405180910390fd5b610a448382610a3b8c612516565b61034c8c612516565b600980546001600160401b0392909216600160401b026fffffffffffffffff000000000000000019909216919091179055604051631397487f60e31b8152306004820152600160248201526001600160a01b03861690639cba43f890604401600060405180830381600087803b158015610abd57600080fd5b505af1158015610ad1573d6000803e3d6000fd5b5050604051631397487f60e31b8152306004820152600260248201526001600160a01b0387169250639cba43f89150604401600060405180830381600087803b158015610b1d57600080fd5b505af1158015610b31573d6000803e3d6000fd5b505050505050505050505050508015610b84576000805461ff0019169055604051600181527f7f26b83ff96e1f2b6a682f133852f6798a09c465da95921460cefb38474024989060200160405180910390a15b5050565b6000600561fd20600a6105c18383838b8a8a8d6104bb565b6001600160a01b03811660009081526008602052604081205460609082610bc561264d565b9050600081516001600160401b03811115610be257610be2613038565b604051908082528060200260200182016040528015610c0b578160200160208202803683370190505b50600a54909150831460005b8351811015610dc8576000848281518110610c3457610c34613575565b60209081029190910181015160008881526004835260408082208383528452808220546001600160a01b038e16835260058552818320848452909452902054909250811580610c81575080155b15610c8e57505050610dc0565b600082610ca383670de0b6b3a76400006133c8565b610cad9190613392565b90506000600760008b815260200190815260200160002060008681526020019081526020016000205490506000600660008f6001600160a01b03166001600160a01b03168152602001908152602001600020600087815260200190815260200160002054670de0b6b3a7640000610d24919061358b565b9050600081610d3385856133c8565b610d3d9190613392565b905080600003610d535750505050505050610dc0565b6000610d6782670de0b6b3a76400006126f8565b905089610d98576000610d8283670de0b6b3a7640000612718565b905080871015610d925781610d94565b805b9150505b808b8a81518110610dab57610dab613575565b60200260200101818152505050505050505050505b600101610c17565b50969095509350505050565b600080610ddf610671565b6001600160a01b03166344d9bc5f6040518163ffffffff1660e01b8152600401602060405180830381865afa158015610e1c573d6000803e3d6000fd5b505050506040513d601f19601f82011682018060405250810190610e40919061361d565b905060008115610e5957610e544283612748565b610e5b565b425b600954909150600090610e80906001600160401b03600160401b820481169116613636565b6009546001600160401b039182169250168210801590610e9f57508082105b935050505090565b6000610eb1610671565b6001600160a01b0316637b1039996040518163ffffffff1660e01b8152600401602060405180830381865afa158015610648573d6000803e3d6000fd5b610ef661275e565b6000610f0061264d565b90506000610f0d846122cf565b9050600081610f1c5782610f6b565b6001805460408051602080840282018101909252828152929190830182828015610f6557602002820191906000526020600020905b815481526020019060010190808311610f51575b50505050505b905060005b81518110156111de576000828281518110610f8d57610f8d613575565b602002602001015190506000610fa16105cd565b6001600160a01b031663feae7dc3836040518263ffffffff1660e01b8152600401610fce91815260200190565b602060405180830381865afa158015610feb573d6000803e3d6000fd5b505050506040513d601f19601f8201168201806040525081019061100f91906133df565b6040516370a0823160e01b81526001600160a01b038a8116600483015291909116906370a0823190602401602060405180830381865afa158015611057573d6000803e3d6000fd5b505050506040513d601f19601f8201168201806040525081019061107b919061361d565b90508085156110cc57600060018001858154811061109b5761109b613575565b90600052602060002001549050808310156110c95760405163da4cfa9760e01b815260040160405180910390fd5b90505b604051630729dd9560e31b8152600481018490526000906001600160a01b038b169063394eeca890602401602060405180830381865afa158015611114573d6000803e3d6000fd5b505050506040513d601f19601f82011682018060405250810190611138919061361d565b90506000670de0b6b3a764000061114f838261358b565b61115990856133c8565b6111639190613392565b60008b815260046020908152604080832089845290915281208054929350839290919061119190849061358b565b90915550506001600160a01b038b16600081815260056020908152604080832089845282528083209490945591815260068252828120968152959052909320929092555050600101610f70565b50600080856001146111f15760016111f4565b60025b60ff16905060005b85518110156112575760008281526004602052604081208751829089908590811061122957611229613575565b6020026020010151815260200190815260200160002054111561124f5760019250611257565b6001016111fc565b506001600160a01b0387166000908152600860205260409020869055811561128157611281612862565b604080516001600160a01b0389168152602081018890527ff6a9086f0e560818b9fc087387152503d2864daffa4c3387be717f065c1e0f22910160405180910390a150505050505050565b606080606060006112db61264d565b905080516001600160401b038111156112f6576112f6613038565b60405190808252806020026020018201604052801561131f578160200160208202803683370190505b50935080516001600160401b0381111561133b5761133b613038565b604051908082528060200260200182016040528015611364578160200160208202803683370190505b50925060008060008060005b855181101561151857600086828151811061138d5761138d613575565b6020026020010151905060006113a282612958565b805160008481527fabd6e7cb50984ff9c2f3e18a2660c3353dadf4e3291deeb275dae2cd1e44fe0560205260409020549192506113de916133c8565b6113f090670de0b6b3a76400006133c8565b6113fa908861358b565b815160008481527f91da3fd0782e51c6b3986e9e672fd566868e71f3dbc2d6c2cd6fbb3e361af2a76020526040902054919850611436916133c8565b61144890670de0b6b3a76400006133c8565b611452908761358b565b60208083015160008581527fabd6e7cb50984ff9c2f3e18a2660c3353dadf4e3291deeb275dae2cd1e44fe05909252604090912054919750611493916133c8565b6114a590670de0b6b3a76400006133c8565b6114af908661358b565b60208083015160008581527f91da3fd0782e51c6b3986e9e672fd566868e71f3dbc2d6c2cd6fbb3e361af2a79092526040909120549196506114f0916133c8565b61150290670de0b6b3a76400006133c8565b61150c908561358b565b93505050600101611370565b506040805160208101869052908101849052606081018390526080810182905260a00160408051808303601f1901815291905260095490965060009061157e9085908590600160401b90046001600160401b0316611579600561fd20613392565b612b48565b6009549091506000906115ac9087908590600160401b90046001600160401b0316611579600561fd20613392565b905060005b87518110156117d85760008882815181106115ce576115ce613575565b60209081029190910181015160008181527fabd6e7cb50984ff9c2f3e18a2660c3353dadf4e3291deeb275dae2cd1e44fe059092526040822054909250670de0b6b3a7640000906116209087906133c8565b61162a9190613392565b60008381527fabd6e7cb50984ff9c2f3e18a2660c3353dadf4e3291deeb275dae2cd1e44fe0560205260409020549091508111156116b55760008281527fabd6e7cb50984ff9c2f3e18a2660c3353dadf4e3291deeb275dae2cd1e44fe0560205260409020548d518e90859081106116a4576116a4613575565b6020026020010181815250506116d5565b808d84815181106116c8576116c8613575565b6020026020010181815250505b60008281527f91da3fd0782e51c6b3986e9e672fd566868e71f3dbc2d6c2cd6fbb3e361af2a76020526040812054670de0b6b3a7640000906117189087906133c8565b6117229190613392565b60008481527f91da3fd0782e51c6b3986e9e672fd566868e71f3dbc2d6c2cd6fbb3e361af2a760205260409020549091508111156117ad5760008381527f91da3fd0782e51c6b3986e9e672fd566868e71f3dbc2d6c2cd6fbb3e361af2a760205260409020548d518e908690811061179c5761179c613575565b6020026020010181815250506117cd565b808d85815181106117c0576117c0613575565b6020026020010181815250505b5050506001016115b1565b5050505050505050909192565b6000806117f0610671565b6001600160a01b03166344d9bc5f6040518163ffffffff1660e01b8152600401602060405180830381865afa15801561182d573d6000803e3d6000fd5b505050506040513d601f19601f82011682018060405250810190611851919061361d565b90506000811561186a576118654283612748565b61186c565b425b6009549091506001600160401b0316158015906118b057506009546118a3906001600160401b03600160401b820481169116613636565b6001600160401b03168110155b9250505090565b6060806000806000806118c86112cc565b92509250925060008060006118dd8686611a5d565b92509250925060006118ef8583612b89565b9050600087516001600160401b0381111561190c5761190c613038565b604051908082528060200260200182016040528015611935578160200160208202803683370190505b509050600087516001600160401b0381111561195357611953613038565b60405190808252806020026020018201604052801561197c578160200160208202803683370190505b50905060005b8951811015611a4a5786818151811061199d5761199d613575565b60200260200101518a82815181106119b7576119b7613575565b60200260200101516119c9919061358b565b8382815181106119db576119db613575565b6020026020010181815250508581815181106119f9576119f9613575565b6020026020010151898281518110611a1357611a13613575565b6020026020010151611a25919061358b565b828281518110611a3757611a37613575565b6020908102919091010152600101611982565b50909b909a509098509650505050505050565b60608060606000611a6c61264d565b905080516001600160401b03811115611a8757611a87613038565b604051908082528060200260200182016040528015611ab0578160200160208202803683370190505b50935080516001600160401b03811115611acc57611acc613038565b604051908082528060200260200182016040528015611af5578160200160208202803683370190505b50925060008060008060005b8551811015611cb3576000868281518110611b1e57611b1e613575565b602002602001015190506000611b3382612958565b905060008d8481518110611b4957611b49613575565b60209081029190910181015160008581527fabd6e7cb50984ff9c2f3e18a2660c3353dadf4e3291deeb275dae2cd1e44fe05909252604090912054611b8e9190613655565b905060008d8581518110611ba457611ba4613575565b60209081029190910181015160008681527f91da3fd0782e51c6b3986e9e672fd566868e71f3dbc2d6c2cd6fbb3e361af2a7909252604090912054611be99190613655565b9050826040015182611bfb91906133c8565b611c0d90670de0b6b3a76400006133c8565b611c17908a61358b565b9850826040015181611c2991906133c8565b611c3b90670de0b6b3a76400006133c8565b611c45908961358b565b9750826060015182611c5791906133c8565b611c6990670de0b6b3a76400006133c8565b611c73908861358b565b9650826060015181611c8591906133c8565b611c9790670de0b6b3a76400006133c8565b611ca1908761358b565b95505060019093019250611b01915050565b506040805160208101869052908101849052606081018390526080810182905260a00160405160208183030381529060405295508160001480611cf4575080155b15611d03575050505050611f2c565b600954600090611d2e9085908590600160401b90046001600160401b0316611579600561fd20613392565b600954909150600090611d5c9087908590600160401b90046001600160401b0316611579600561fd20613392565b905060005b8751811015611f23576000888281518110611d7e57611d7e613575565b6020026020010151905060008e8381518110611d9c57611d9c613575565b60209081029190910181015160008481527fabd6e7cb50984ff9c2f3e18a2660c3353dadf4e3291deeb275dae2cd1e44fe05909252604090912054611de19190613655565b90506000670de0b6b3a7640000611df887846133c8565b611e029190613392565b9050818110611e2f57818e8581518110611e1e57611e1e613575565b602002602001018181525050611e4f565b808e8581518110611e4257611e42613575565b6020026020010181815250505b505060008d8381518110611e6557611e65613575565b60209081029190910181015160008481527f91da3fd0782e51c6b3986e9e672fd566868e71f3dbc2d6c2cd6fbb3e361af2a7909252604090912054611eaa9190613655565b90506000670de0b6b3a7640000611ec186846133c8565b611ecb9190613392565b9050818110611ef857818d8581518110611ee757611ee7613575565b602002602001018181525050611f18565b808d8581518110611f0b57611f0b613575565b6020026020010181815250505b505050600101611d61565b50505050505050505b9250925092565b611f3b6117e5565b611f5857604051630355dc2160e61b815260040160405180910390fd5b600954600160801b90046001600160401b031615611f8957604051637f56dbbd60e01b815260040160405180910390fd5b600954611fa8906001600160401b03600160401b820481169116613636565b600980547fffffffffffffffff0000000000000000ffffffffffffffffffffffffffffffff16600160801b6001600160401b0393841681029190911791829055604051910490911681527f6e89b8a2a3c481f57d678455f59f42429cb60be86708621a7d8a371ca5da3a049060200160405180910390a160006120296105cd565b60035460405163c4c31e8560e01b81526001600160401b0390911660048201526001600160a01b03919091169063c4c31e8590602401602060405180830381865afa15801561207c573d6000803e3d6000fd5b505050506040513d601f19601f820116820180604052508101906120a091906133df565b90506000816001600160a01b0316630b4e99c36040518163ffffffff1660e01b8152600401602060405180830381865afa1580156120e2573d6000803e3d6000fd5b505050506040513d601f19601f82011682018060405250810190612106919061361d565b60408051808201909152600881526743554c544953545360c01b60209091015290507f9720b703263248cc672c2dcf2bd34d367a3fd48b1bcd07ae36199e513e33ff108101610b84576000826001600160a01b031663f10e38af6040518163ffffffff1660e01b8152600401602060405180830381865afa15801561218f573d6000803e3d6000fd5b505050506040513d601f19601f820116820180604052508101906121b391906133df565b9050306001600160a01b0316816001600160a01b03166344e445456040518163ffffffff1660e01b8152600401602060405180830381865afa1580156121fd573d6000803e3d6000fd5b505050506040513d601f19601f8201168201806040525081019061222191906133df565b6001600160a01b03160361228357806001600160a01b0316631d8557d76040518163ffffffff1660e01b8152600401600060405180830381600087803b15801561226a57600080fd5b505af115801561227e573d6000803e3d6000fd5b505050505b505050565b6000612292610ea7565b6001600160a01b031663ece56a1a6040518163ffffffff1660e01b8152600401602060405180830381865afa158015610648573d6000803e3d6000fd5b600080826001600160a01b031663c45f10006040518163ffffffff1660e01b8152600401602060405180830381865afa158015612310573d6000803e3d6000fd5b505050506040513d601f19601f8201168201806040525081019061233491906133df565b90506040518060400160405280600881526020016743554c544953545360c01b81525080519060200120816001600160a01b0316630b4e99c36040518163ffffffff1660e01b8152600401602060405180830381865afa15801561239c573d6000803e3d6000fd5b505050506040513d601f19601f820116820180604052508101906123c0919061361d565b149392505050565b6000805b83518110156125095760006123df6105cd565b6001600160a01b031663feae7dc38684815181106123ff576123ff613575565b60200260200101516040518263ffffffff1660e01b815260040161242591815260200190565b602060405180830381865afa158015612442573d6000803e3d6000fd5b505050506040513d601f19601f8201168201806040525081019061246691906133df565b6040516370a0823160e01b81526001600160a01b03888116600483015291909116906370a0823190602401602060405180830381865afa1580156124ae573d6000803e3d6000fd5b505050506040513d601f19601f820116820180604052508101906124d2919061361d565b90508382815181106124e6576124e6613575565b60200260200101518111156125005760019250505061250f565b506001016123cc565b50600090505b9392505050565b60008061252161264d565b90506000805b825181101561264557600083828151811061254457612544613575565b602002602001015190506125566105cd565b6001600160a01b031663feae7dc3826040518263ffffffff1660e01b815260040161258391815260200190565b602060405180830381865afa1580156125a0573d6000803e3d6000fd5b505050506040513d601f19601f820116820180604052508101906125c491906133df565b6040516370a0823160e01b81526001600160a01b03888116600483015291909116906370a0823190602401602060405180830381865afa15801561260c573d6000803e3d6000fd5b505050506040513d601f19601f82011682018060405250810190612630919061361d565b61263a908461358b565b925050600101612527565b509392505050565b60606000612659612ca8565b9050600081516001600160401b0381111561267657612676613038565b60405190808252806020026020018201604052801561269f578160200160208202803683370190505b50905060005b81518110156126f1578281815181106126c0576126c0613575565b6020026020010151604001518282815181106126de576126de613575565b60209081029190910101526001016126a5565b5092915050565b6000816127058185613392565b61270f91906133c8565b90505b92915050565b60008061272584846126f8565b90506127318385613668565b1561270f57612740838261358b565b949350505050565b6000818310612757578161270f565b5090919050565b612766610671565b6001600160a01b0316336001600160a01b0316141580156128425750600061278c610671565b6001600160a01b031663ebbe80346127c27f6c85b93e587873fbe6712f3b438d42c2945689b262f7bd34b8ea4e3f832a89e75490565b6040517fffffffff0000000000000000000000000000000000000000000000000000000060e084901b1681526004810191909152336024820152604401602060405180830381865afa15801561281c573d6000803e3d6000fd5b505050506040513d601f19601f82011682018060405250810190612840919061361d565b145b156128605760405163422656d160e01b815260040160405180910390fd5b565b600080600061286f6118b7565b925092509250600061287f61264d565b905060005b815181101561294f5760008282815181106128a1576128a1613575565b602002602001015190508582815181106128bd576128bd613575565b60209081029190910181015160008381527fb39221ace053465ec3453ce2b36430bd138b997ecea25c1043da0c366812b828909252604090912055845185908390811061290c5761290c613575565b60209081029190910181015160009283527fb7c774451310d1be4108bc180d1b52823cb0ee0274a6c0081bcaf94f115fb96d909152604090912055600101612884565b5050600a555050565b6129916040518060c001604052806000815260200160008152602001600081526020016000815260200160008152602001600081525090565b6040805180820190915260078152662ba0a92924a7a960c91b6020909101527f963ace81a31bb0e5e04a9395a1006fbdeb19cac259cef54f594aee1106583c6f8201612a1b576040518060c0016040528060008152602001601481526020016005815260200160058152602001650a86cc92e3da815260200165150d9925c7b48152509050919050565b60408051808201909152600681526520a921a422a960d11b6020909101527fbd21a0403f8a882c166bd206a22b19e35435476f82a2cccdbfebf4d666c861c08201612aa4576040518060c0016040528060058152602001600581526020016000815260200160058152602001650a86cc92e3da815260200165150d9925c7b48152509050919050565b6040805180820190915260088152672427a929a2a6a0a760c11b6020909101527f762a1190b034cd04c3eae43da1943cdf0137d457634c4d62e69626f81f1986c78201612b2f576040518060c0016040528060008152602001600581526020016005815260200160148152602001650a86cc92e3da815260200165150d9925c7b48152509050919050565b60405163ea3b0abb60e01b815260040160405180910390fd5b60008082612b5685886133c8565b612b609190613392565b905084612b7582670de0b6b3a76400006133c8565b612b7f9190613392565b9695505050505050565b600080600080600086806020019051810190612ba5919061367c565b935093509350935060008060008089806020019051810190612bc7919061367c565b93509350935093506000808789670de0b6b3a7640000612be791906133c8565b612bf19190613392565b9050600087612c088c670de0b6b3a76400006133c8565b612c129190613392565b9050600085118015612c245750600084115b15612c7c5784612c3c87670de0b6b3a76400006133c8565b612c469190613392565b612c50908361358b565b915083612c6588670de0b6b3a76400006133c8565b612c6f9190613392565b612c79908261358b565b90505b80821115612c8957600292505b80821015612c9657600192505b50909c9b505050505050505050505050565b6040805160038082526080820190925260609160009190816020015b60408051606080820183528082526020820152600091810191909152815260200190600190039081612cc45750506040805160a0810182526011606082019081527f4d697468726165756d2057617272696f720000000000000000000000000000006080830152815281518083018352600881527f6d57415252494f52000000000000000000000000000000000000000000000000602080830191909152808301919091528251808401845260078152662ba0a92924a7a960c91b9101527f69c5317e5ce44f1a1fb56c6a5eff904214e6353da6310ab0a6b511eef9a7c391918101919091528151919250908290600090612dc157612dc1613575565b6020908102919091018101919091526040805160a0810182526010606082019081527f4d697468726165756d20417263686572000000000000000000000000000000006080830152815281518083018352600781526636a0a921a422a960c91b818501528184015281518083018352600681526520a921a422a960d11b9301929092527f42de5fbfc07577d3e9942df95dd4e61cabcab8907d5d333240140b2999379e4090820152815182906001908110612e7e57612e7e613575565b6020908102919091018101919091526040805160a0810182526012606082019081527f4d697468726165756d20486f7273656d616e00000000000000000000000000006080830152815281518083018352600981527f6d484f5253454d414e000000000000000000000000000000000000000000000081850152818401528151808301835260088152672427a929a2a6a0a760c11b9301929092527f89d5ee6f4fcb32fb3c151bc25e6bc320fec82ba89cb3b29d1969d907e0e6793990820152815182906002908110612f5357612f53613575565b6020908102919091010152919050565b80358015158114612f7357600080fd5b919050565b600080600080600080600060e0888a031215612f9357600080fd5b873596506020880135955060408801359450612fb160608901612f63565b9699959850939660808101359560a0820135955060c0909101359350915050565b6001600160a01b0381168114612fe757600080fd5b50565b60008060408385031215612ffd57600080fd5b823561300881612fd2565b946020939093013593505050565b6000806040838503121561302957600080fd5b50508035926020909101359150565b634e487b7160e01b600052604160045260246000fd5b604051601f8201601f191681016001600160401b038111828210171561307657613076613038565b604052919050565b60006020828403121561309057600080fd5b81356001600160401b038111156130a657600080fd5b8201601f810184136130b757600080fd5b80356001600160401b038111156130d0576130d0613038565b6130e3601f8201601f191660200161304e565b8181528560208385010111156130f857600080fd5b81602084016020830137600091810160200191909152949350505050565b6000806000806080858703121561312c57600080fd5b61313585612f63565b966020860135965060408601359560600135945092505050565b60006020828403121561316157600080fd5b813561270f81612fd2565b600081518084526020840193506020830160005b8281101561319e578151865260209586019590910190600101613180565b5093949350505050565b8215158152604060208201526000612740604083018461316c565b6060815260006131d6606083018661316c565b82810360208401526131e8818661316c565b90508281036040840152835180825260005b81811015613216576020818701810151848301820152016131fa565b506000602082840101526020601f19601f83011683010192505050949350505050565b60608152600061324c606083018661316c565b828103602084015261325e818661316c565b915050826040830152949350505050565b60006001600160401b0382111561328857613288613038565b5060051b60200190565b600082601f8301126132a357600080fd5b81356132b66132b18261326f565b61304e565b8082825260208201915060208360051b8601019250858311156132d857600080fd5b602085015b838110156132f55780358352602092830192016132dd565b5095945050505050565b6000806040838503121561331257600080fd5b82356001600160401b0381111561332857600080fd5b61333485828601613292565b92505060208301356001600160401b0381111561335057600080fd5b61335c85828601613292565b9150509250929050565b634e487b7160e01b600052601260045260246000fd5b634e487b7160e01b600052601160045260246000fd5b6000826133a1576133a1613366565b500490565b6001600160401b0381811683821602908116908181146126f1576126f161337c565b80820281158282048414176127125761271261337c565b6000602082840312156133f157600080fd5b815161270f81612fd2565b600082601f83011261340d57600080fd5b815161341b6132b18261326f565b8082825260208201915060208360051b86010192508583111561343d57600080fd5b602085015b838110156132f5578051835260209283019201613442565b6000806000806080858703121561347057600080fd5b845161347b81612fd2565b602086015190945061348c81612fd2565b60408601519093506001600160401b038111156134a857600080fd5b8501601f810187136134b957600080fd5b80516134c76132b18261326f565b8082825260208201915060208360051b8501019250898311156134e957600080fd5b6020840193505b8284101561350b5783518252602093840193909101906134f0565b8095505050505060608501516001600160401b0381111561352b57600080fd5b613537878288016133fc565b91505092959194509250565b80516001600160401b0381168114612f7357600080fd5b60006020828403121561356c57600080fd5b61270f82613543565b634e487b7160e01b600052603260045260246000fd5b808201808211156127125761271261337c565b600080600080600060a086880312156135b657600080fd5b6135bf86613543565b94506135cd60208701613543565b93506135db60408701613543565b92506135e960608701613543565b60809690960151949793965091949392915050565b6001600160401b0382811682821603908111156127125761271261337c565b60006020828403121561362f57600080fd5b5051919050565b6001600160401b0381811683821601908111156127125761271261337c565b818103818111156127125761271261337c565b60008261367757613677613366565b500690565b6000806000806080858703121561369257600080fd5b50508251602084015160408501516060909501519196909550909250905056fea26469706673582212202f02bcfd776afe86c7c2c06af6465be7be14dd7ffe69c30c9f9a63bca4eae1bb64736f6c634300081a0033",
  "linkReferences": {},
  "deployedLinkReferences": {}
}