{
  "_format": "hh-sol-artifact-1",
  "contractName": "Geography",
  "sourceName": "contracts/core/geography/Geography.sol",
  "abi": [
    {
      "inputs": [],
      "name": "CannotIncludeAlreadyIncludedRegion",
      "type": "error"
    },
    {
      "inputs": [],
      "name": "CannotIncludeRegionDueToInsufficientUserSettlementsCountInNeighboringRegion",
      "type": "error"
    },
    {
      "inputs": [],
      "name": "CannotIncludeRegionDueToInsufficientValueSent",
      "type": "error"
    },
    {
      "inputs": [],
      "name": "CannotIncludeRegionWithInvalidRegionInclusionProofProvided",
      "type": "error"
    },
    {
      "inputs": [],
      "name": "FirstRegionCanOnlyBeIncludedByMightyCreator",
      "type": "error"
    },
    {
      "inputs": [],
      "name": "InvalidNeighborDirectionSpecified",
      "type": "error"
    },
    {
      "inputs": [],
      "name": "InvalidTileBonusConfiguration",
      "type": "error"
    },
    {
      "inputs": [],
      "name": "OnlyActiveGame",
      "type": "error"
    },
    {
      "inputs": [],
      "name": "ReentrantCall",
      "type": "error"
    },
    {
      "inputs": [],
      "name": "UnknownInputParameter",
      "type": "error"
    },
    {
      "anonymous": false,
      "inputs": [
        {
          "indexed": false,
          "internalType": "uint8",
          "name": "version",
          "type": "uint8"
        }
      ],
      "name": "Initialized",
      "type": "event"
    },
    {
      "anonymous": false,
      "inputs": [
        {
          "indexed": false,
          "internalType": "uint64",
          "name": "regionId",
          "type": "uint64"
        }
      ],
      "name": "RegionIncluded",
      "type": "event"
    },
    {
      "inputs": [
        {
          "internalType": "uint64",
          "name": "position1",
          "type": "uint64"
        },
        {
          "internalType": "uint64",
          "name": "position2",
          "type": "uint64"
        }
      ],
      "name": "getDistanceBetweenPositions",
      "outputs": [
        {
          "internalType": "uint64",
          "name": "",
          "type": "uint64"
        }
      ],
      "stateMutability": "pure",
      "type": "function"
    },
    {
      "inputs": [
        {
          "internalType": "uint64",
          "name": "position",
          "type": "uint64"
        }
      ],
      "name": "getRegionIdByPosition",
      "outputs": [
        {
          "internalType": "uint64",
          "name": "",
          "type": "uint64"
        },
        {
          "internalType": "bool",
          "name": "",
          "type": "bool"
        }
      ],
      "stateMutability": "view",
      "type": "function"
    },
    {
      "inputs": [
        {
          "internalType": "uint64",
          "name": "regionId",
          "type": "uint64"
        }
      ],
      "name": "getRegionOwner",
      "outputs": [
        {
          "internalType": "address",
          "name": "",
          "type": "address"
        }
      ],
      "stateMutability": "view",
      "type": "function"
    },
    {
      "inputs": [
        {
          "internalType": "uint64",
          "name": "regionId",
          "type": "uint64"
        }
      ],
      "name": "getRegionTier",
      "outputs": [
        {
          "internalType": "uint256",
          "name": "",
          "type": "uint256"
        }
      ],
      "stateMutability": "view",
      "type": "function"
    },
    {
      "inputs": [],
      "name": "getRegionsCount",
      "outputs": [
        {
          "internalType": "uint256",
          "name": "",
          "type": "uint256"
        }
      ],
      "stateMutability": "view",
      "type": "function"
    },
    {
      "inputs": [
        {
          "internalType": "uint64",
          "name": "position",
          "type": "uint64"
        },
        {
          "internalType": "uint256",
          "name": "radius",
          "type": "uint256"
        }
      ],
      "name": "getRingPositions",
      "outputs": [
        {
          "internalType": "uint64[]",
          "name": "",
          "type": "uint64[]"
        },
        {
          "internalType": "uint256",
          "name": "",
          "type": "uint256"
        }
      ],
      "stateMutability": "pure",
      "type": "function"
    },
    {
      "inputs": [
        {
          "internalType": "bytes32",
          "name": "tileBonusesSeed",
          "type": "bytes32"
        },
        {
          "internalType": "uint256",
          "name": "chanceForTileWithBonus",
          "type": "uint256"
        },
        {
          "internalType": "uint64",
          "name": "position",
          "type": "uint64"
        }
      ],
      "name": "getTileBonus",
      "outputs": [
        {
          "components": [
            {
              "internalType": "enum IGeography.TileBonusType",
              "name": "tileBonusType",
              "type": "uint8"
            },
            {
              "internalType": "uint8",
              "name": "tileBonusVariation",
              "type": "uint8"
            }
          ],
          "internalType": "struct IGeography.TileBonus",
          "name": "",
          "type": "tuple"
        }
      ],
      "stateMutability": "pure",
      "type": "function"
    },
    {
      "inputs": [
        {
          "internalType": "uint64",
          "name": "newRegionPosition",
          "type": "uint64"
        },
        {
          "internalType": "uint64",
          "name": "neighborRegionPosition",
          "type": "uint64"
        }
      ],
      "name": "includeRegion",
      "outputs": [],
      "stateMutability": "payable",
      "type": "function"
    },
    {
      "inputs": [
        {
          "internalType": "address",
          "name": "worldAddress",
          "type": "address"
        }
      ],
      "name": "init",
      "outputs": [],
      "stateMutability": "nonpayable",
      "type": "function"
    },
    {
      "inputs": [
        {
          "internalType": "uint64",
          "name": "regionId",
          "type": "uint64"
        }
      ],
      "name": "isRegionIncluded",
      "outputs": [
        {
          "internalType": "bool",
          "name": "",
          "type": "bool"
        }
      ],
      "stateMutability": "view",
      "type": "function"
    },
    {
      "inputs": [],
      "name": "world",
      "outputs": [
        {
          "internalType": "contract IWorld",
          "name": "",
          "type": "address"
        }
      ],
      "stateMutability": "view",
      "type": "function"
    }
  ],
  "bytecode": "0x6080604052348015600f57600080fd5b5061545d8061001f6000396000f3fe6080604052600436106100bc5760003560e01c806365668c5a11610074578063d1331b071161004e578063d1331b0714610257578063e114c8d914610284578063f791a01f146102a357600080fd5b806365668c5a146101cd57806366b9e25614610216578063a4911a2c1461024457600080fd5b806330b67baa116100a557806330b67baa1461012857806340adb9d514610166578063585cac101461019f57600080fd5b80630915dd5d146100c157806319ab453c14610106575b600080fd5b3480156100cd57600080fd5b506100e16100dc366004614e72565b6102c3565b6040805167ffffffffffffffff90931683529015156020830152015b60405180910390f35b34801561011257600080fd5b50610126610121366004614ea4565b6103b6565b005b34801561013457600080fd5b5060005461014e906201000090046001600160a01b031681565b6040516001600160a01b0390911681526020016100fd565b34801561017257600080fd5b50610186610181366004614ec1565b6104dd565b60405167ffffffffffffffff90911681526020016100fd565b3480156101ab57600080fd5b506101bf6101ba366004614efa565b610597565b6040516100fd929190614f26565b3480156101d957600080fd5b506102066101e8366004614e72565b67ffffffffffffffff16600090815260016020526040902054151590565b60405190151581526020016100fd565b34801561022257600080fd5b50610236610231366004614e72565b6106e3565b6040519081526020016100fd565b610126610252366004614ec1565b610713565b34801561026357600080fd5b50610277610272366004614f7d565b610ffc565b6040516100fd9190614fb6565b34801561029057600080fd5b5060035467ffffffffffffffff16610236565b3480156102af57600080fd5b5061014e6102be366004614e72565b611458565b60008060008060029054906101000a90046001600160a01b031690506103ac84826001600160a01b031663879d62ed6040518163ffffffff1660e01b8152600401602060405180830381865afa158015610321573d6000803e3d6000fd5b505050506040513d601f19601f820116820180604052508101906103459190614ff2565b836001600160a01b03166348524fe56040518163ffffffff1660e01b8152600401602060405180830381865afa158015610383573d6000803e3d6000fd5b505050506040513d601f19601f820116820180604052508101906103a7919061500f565b611544565b9250925050915091565b600054610100900460ff16158080156103d65750600054600160ff909116105b806103f05750303b1580156103f0575060005460ff166001145b6104675760405162461bcd60e51b815260206004820152602e60248201527f496e697469616c697a61626c653a20636f6e747261637420697320616c72656160448201527f647920696e697469616c697a656400000000000000000000000000000000000060648201526084015b60405180910390fd5b6000805460ff19166001179055801561048a576000805461ff0019166101001790555b61049382611683565b80156104d9576000805461ff0019169055604051600181527f7f26b83ff96e1f2b6a682f133852f6798a09c465da95921460cefb38474024989060200160405180910390a15b5050565b600080610520846040805180820182526000808252602091820152815180830190925263ffffffff838116600790810b845293821c1690920b9181019190915290565b90506000610564846040805180820182526000808252602091820152815180830190925263ffffffff838116600790810b845293821c1690920b9181019190915290565b9050600061057183611740565b9050600061057e83611740565b905061058a8282611791565b9450505050505b92915050565b60606000806105a784600661503e565b67ffffffffffffffff8111156105bf576105bf615055565b6040519080825280602002602001820160405280156105e8578160200160208202803683370190505b509050600061062d866040805180820182526000808252602091820152815180830190925263ffffffff838116600790810b845293821c1690920b9181019190915290565b905060005b8581101561064f5761064582600461183a565b9150600101610632565b506000805b60068110156106d55760005b878110156106cc5761067184611a10565b156106b85761067f84611a62565b8584815181106106915761069161506b565b67ffffffffffffffff90921660209283029190910190910152826106b481615081565b9350505b6106c2848361183a565b9350600101610660565b50600101610654565b509196919550909350505050565b67ffffffffffffffff811660009081526002602052604081205480156107095792915050565b60035b9392505050565b600054600160b01b900460ff161515600103610742576040516306fda65d60e31b815260040160405180910390fd5b6000805460ff60b01b1916600160b01b17905560035467ffffffffffffffff161580156108585750600060029054906101000a90046001600160a01b03166001600160a01b0316637b1039996040518163ffffffff1660e01b8152600401602060405180830381865afa1580156107bd573d6000803e3d6000fd5b505050506040513d601f19601f820116820180604052508101906107e1919061509a565b6001600160a01b031663271530506040518163ffffffff1660e01b8152600401602060405180830381865afa15801561081e573d6000803e3d6000fd5b505050506040513d601f19601f82011682018060405250810190610842919061509a565b6001600160a01b0316336001600160a01b031614155b1561087657604051632163e23560e11b815260040160405180910390fd5b600080610882846102c3565b91509150806108a45760405163cdbbe49960e01b815260040160405180910390fd5b67ffffffffffffffff8216600090815260016020526040902054156108dc5760405163241c925160e01b815260040160405180910390fd5b60035467ffffffffffffffff1615610b79576000806108fa856102c3565b915091508061091c5760405163cdbbe49960e01b815260040160405180910390fd5b67ffffffffffffffff82166000908152600160205260409020546109535760405163cdbbe49960e01b815260040160405180910390fd5b61095d8686611a86565b61097a5760405163cdbbe49960e01b815260040160405180910390fd5b600060029054906101000a90046001600160a01b03166001600160a01b0316637b1039996040518163ffffffff1660e01b8152600401602060405180830381865afa1580156109cd573d6000803e3d6000fd5b505050506040513d601f19601f820116820180604052508101906109f1919061509a565b6001600160a01b031663271530506040518163ffffffff1660e01b8152600401602060405180830381865afa158015610a2e573d6000803e3d6000fd5b505050506040513d601f19601f82011682018060405250810190610a52919061509a565b6001600160a01b0316336001600160a01b031614610b76576014600060029054906101000a90046001600160a01b03166001600160a01b031663a8d66c756040518163ffffffff1660e01b8152600401602060405180830381865afa158015610abf573d6000803e3d6000fd5b505050506040513d601f19601f82011682018060405250810190610ae3919061509a565b604051631373443d60e31b815267ffffffffffffffff851660048201526001600160a01b039190911690639b9a21e890602401602060405180830381865afa158015610b33573d6000803e3d6000fd5b505050506040513d601f19601f82011682018060405250810190610b57919061500f565b1015610b7657604051631d5c302560e11b815260040160405180910390fd5b50505b60035467ffffffffffffffff1615610e5d5767ffffffffffffffff8216600090815260026020526040812060039081905590610bb482611aa7565b905060008060029054906101000a90046001600160a01b03166001600160a01b03166316229bef6040518163ffffffff1660e01b8152600401602060405180830381865afa158015610c0a573d6000803e3d6000fd5b505050506040513d601f19601f82011682018060405250810190610c2e919061509a565b90506001600160a01b038116610d725781341015610c5f5760405163f31a030b60e01b815260040160405180910390fd5b6000823411610c6f576000610c79565b610c7983346150b7565b90508015610c8b57610c8b3382611b26565b610d6c600060029054906101000a90046001600160a01b03166001600160a01b0316637b1039996040518163ffffffff1660e01b8152600401602060405180830381865afa158015610ce1573d6000803e3d6000fd5b505050506040513d601f19601f82011682018060405250810190610d05919061509a565b6001600160a01b031663271530506040518163ffffffff1660e01b8152600401602060405180830381865afa158015610d42573d6000803e3d6000fd5b505050506040513d601f19601f82011682018060405250810190610d66919061509a565b84611b26565b50610e55565b610e558133600060029054906101000a90046001600160a01b03166001600160a01b0316637b1039996040518163ffffffff1660e01b8152600401602060405180830381865afa158015610dca573d6000803e3d6000fd5b505050506040513d601f19601f82011682018060405250810190610dee919061509a565b6001600160a01b031663271530506040518163ffffffff1660e01b8152600401602060405180830381865afa158015610e2b573d6000803e3d6000fd5b505050506040513d601f19601f82011682018060405250810190610e4f919061509a565b85611c44565b505050610e7b565b67ffffffffffffffff82166000908152600260205260409020600490555b6003805467ffffffffffffffff16906000610e95836150ca565b82546101009290920a67ffffffffffffffff818102199093169183160217909155600354848216600090815260016020908152604080832093909416909255548251635d733b9560e11b81529251620100009091046001600160a01b0316935063bae6772a9260048082019392918290030181865afa158015610f1c573d6000803e3d6000fd5b505050506040513d601f19601f82011682018060405250810190610f40919061509a565b6040516340c10f1960e01b815233600482015267ffffffffffffffff841660248201526001600160a01b0391909116906340c10f1990604401600060405180830381600087803b158015610f9357600080fd5b505af1158015610fa7573d6000803e3d6000fd5b505060405167ffffffffffffffff851681527fb2cc3f25ef34290401da8b961a928db2654d8a579f363c28f2d0ac9d3fc6e01d9250602001905060405180910390a150506000805460ff60b01b191690555050565b60408051808201909152600080825260208201526040517fffffffffffffffff00000000000000000000000000000000000000000000000060c084901b1660208201526028810185905260009060480160408051601f1981840301815291905280516020909101209050600061107a670de0b6b3a76400008361510d565b9050848111156110a15750506040805180820190915260008082526020820152905061070c565b670de0b6b3a7640000826040516020016110bd91815260200190565b6040516020818303038152906040528051906020012060001c6110e0919061510d565b60408051600a808252610160820190925291925060009190602082016101408036833701905050905067016345785d8a0000816000815181106111255761112561506b565b60200260200101818152505066f8b0a10e4700008160018151811061114c5761114c61506b565b60200260200101818152505067013fbe85edc90000816002815181106111745761117461506b565b60200260200101818152505066d529ae9e8600008160038151811061119b5761119b61506b565b60200260200101818152505066f8b0a10e470000816004815181106111c2576111c261506b565b60200260200101818152505066b1a2bc2ec50000816005815181106111e9576111e961506b565b60200260200101818152505066d529ae9e860000816006815181106112105761121061506b565b60200260200101818152505066b1a2bc2ec50000816007815181106112375761123761506b565b60200260200101818152505066f8b0a10e4700008160088151811061125e5761125e61506b565b60200260200101818152505066b1a2bc2ec50000816009815181106112855761128561506b565b6020026020010181815250506000805b82518160ff16101561131a576000838260ff16815181106112b8576112b861506b565b6020026020010151836112cb9190615121565b90508285101580156112dc57508085105b156113065750604080518082019091526001815260ff9091166020820152945061070c9350505050565b91508061131281615134565b915050611295565b50604080516003808252608082019092526000916020820160608036833701905050905067025bf6196bd100008160008151811061135a5761135a61506b565b60200260200101818152505067016345785d8a0000816001815181106113825761138261506b565b60200260200101818152505066d529ae9e860000816002815181106113a9576113a961506b565b60200260200101818152505060005b81518160ff16101561143e576000828260ff16815181106113db576113db61506b565b6020026020010151846113ee9190615121565b90508386101580156113ff57508086105b1561142a5750604080518082019091526002815260ff9091166020820152955061070c945050505050565b92508061143681615134565b9150506113b8565b5060405163497e68f360e11b815260040160405180910390fd5b60008060029054906101000a90046001600160a01b03166001600160a01b031663bae6772a6040518163ffffffff1660e01b8152600401602060405180830381865afa1580156114ac573d6000803e3d6000fd5b505050506040513d601f19601f820116820180604052508101906114d0919061509a565b6040516331a9108f60e11b815267ffffffffffffffff841660048201526001600160a01b039190911690636352211e90602401602060405180830381865afa158015611520573d6000803e3d6000fd5b505050506040513d601f19601f82011682018060405250810190610591919061509a565b6000806000611589866040805180820182526000808252602091820152815180830190925263ffffffff838116600790810b845293821c1690920b9181019190915290565b9050600061159682611740565b905060006115a387611cb9565b905060006115b088611cd1565b905060006115c0848a8585611cfe565b905060006115d1828a8c8787611d9b565b90506115dd818b611e89565b6115f3576000809750975050505050505061167b565b84518151600091600791820b910b14801561161b5750856020015160070b826020015160070b145b905080158015611631575061162f87611f0c565b155b1561164957600080985098505050505050505061167b565b600061165987858e8e8a8a611f99565b905061166c61166782612461565b611a62565b60019950995050505050505050505b935093915050565b600054610100900460ff166117005760405162461bcd60e51b815260206004820152602b60248201527f496e697469616c697a61626c653a20636f6e7472616374206973206e6f74206960448201527f6e697469616c697a696e67000000000000000000000000000000000000000000606482015260840161045e565b600080546001600160a01b0390921662010000027fffffffffffffffffffff0000000000000000000000000000000000000000ffff909216919091179055565b60408051808201909152600080825260208201528151600061176360028361514a565b84602001516117729190615189565b60408051808201909152600793840b8152920b60208301525092915050565b600080836020015184600001516117a7906151b8565b6117b19190615189565b90506000836020015184600001516117c8906151b8565b6117d29190615189565b905060026117eb6117e38385615189565b60070b6124a1565b611802866020015188602001516117e39190615189565b86518851611813916117e391615189565b61181d9190615121565b6118279190615121565b61183191906151df565b95945050505050565b6040805180820190915260008082526020820152825160208401516001821660070b1560008590036118975760405180604001604052808460070b81526020016001846118879190615189565b60070b8152509350505050610591565b846001036119015780156118d05760405180604001604052808460016118bd91906151f3565b60070b8152602001611887600185615189565b60405180604001604052808460016118e891906151f3565b60070b81526020018360070b8152509350505050610591565b846002036119525780156119275760405180604001604052808460016118e891906151f3565b604051806040016040528084600161193f91906151f3565b60070b81526020016118878460016151f3565b8460030361197b5760405180604001604052808460070b815260200183600161188791906151f3565b846004036119b95780156119a15760405180604001604052806001856118e89190615189565b604051806040016040528060018561193f9190615189565b846005036119f75780156119df5760405180604001604052806001856118bd9190615189565b60405180604001604052806001856118e89190615189565b60405163444dc91f60e11b815260040160405180910390fd5b600080826000015160070b12158015611a335750815163ffffffff60079190910b125b8015611a4757506000826020015160070b12155b80156105915750506020015163ffffffff60079190910b1290565b600081600001516020836020015167ffffffffffffffff16901b6105919190615222565b6000611a9283836104dd565b67ffffffffffffffff16600114905092915050565b600081600103611ac25750690878678326eac9000000919050565b81600203611adb57506910f0cf064dd592000000919050565b81600303611af457506921e19e0c9bab24000000919050565b81600403611b0d57506943c33c19375648000000919050565b60405163ea3b0abb60e01b815260040160405180910390fd5b80471015611b765760405162461bcd60e51b815260206004820152601d60248201527f416464726573733a20696e73756666696369656e742062616c616e6365000000604482015260640161045e565b6000826001600160a01b03168260405160006040518083038185875af1925050503d8060008114611bc3576040519150601f19603f3d011682016040523d82523d6000602084013e611bc8565b606091505b5050905080611c3f5760405162461bcd60e51b815260206004820152603a60248201527f416464726573733a20756e61626c6520746f2073656e642076616c75652c207260448201527f6563697069656e74206d61792068617665207265766572746564000000000000606482015260840161045e565b505050565b604080516001600160a01b0385811660248301528416604482015260648082018490528251808303909101815260849091019091526020810180517bffffffffffffffffffffffffffffffffffffffffffffffffffffffff166323b872dd60e01b179052611cb39085906124b8565b50505050565b6000611cc6826003615242565b610591906002615222565b6000611cde826001615222565b611ce9836003615242565b611cf39190615242565b610591906001615222565b604080518082019091526000808252602082015284516000908390611d23908661526c565b8760200151611d3291906151f3565b611d3c919061528c565b90506000611d4b82878761259d565b90506000604051806040016040528083600001518a60000151611d6e9190615189565b60070b815260200183602001518a60200151611d8a9190615189565b60070b905298975050505050505050565b60408051808201825260008082526020808301829052885189820151855160c092831b81850152911b602882015260308082018a905285518083039091018152605090910190945283519301929092209091611dff670de0b6b3a76400008361510d565b90506000670de0b6b3a7640000611e2067ffffffffffffffff87168461503e565b611e2a91906151df565b90506000611e3982898961259d565b9050604051806040016040528082600001518c60000151611e5a91906151f3565b60070b815260200182602001518c60200151611e7691906151f3565b60070b90529a9950505050505050505050565b600080611e9584612461565b9050600083611ea9600163ffffffff615189565b611eb39190615189565b90508360070b826000015160070b12158015611ed957508060070b826000015160070b13155b8015611eef57508360070b826020015160070b12155b80156118315750602090910151600791820b910b13159392505050565b600080611f418360000151610c80611f24919061526c565b60070b8460200151610c80611f39919061526c565b60070b61268d565b90506168248112611f555750600092915050565b8251611f7c90611f679061138861526c565b60070b8460200151611388611f39919061526c565b90506132c88112611f905750600092915050565b50600192915050565b6040805180820182526000808252602082018190528251601280825261026082019094529192909190816020015b6040805180820190915260008082526020820152815260200190600190039081611fc757905050905085611ffb8882612793565b8260008151811061200e5761200e61506b565b602002602001018190525061202388826127ff565b826001815181106120365761203661506b565b602002602001018190525061204b8882612842565b8260028151811061205e5761205e61506b565b60200260200101819052506120738882612898565b826003815181106120865761208661506b565b602002602001018190525061209b88826128e4565b826004815181106120ae576120ae61506b565b60200260200101819052506120c38882612926565b826005815181106120d6576120d661506b565b6020026020010181905250612105826000815181106120f7576120f761506b565b602002602001015182612793565b826006815181106121185761211861506b565b6020026020010181905250612139826001815181106120f7576120f761506b565b8260078151811061214c5761214c61506b565b602002602001018190525061217b8260018151811061216d5761216d61506b565b6020026020010151826127ff565b8260088151811061218e5761218e61506b565b60200260200101819052506121bd826001815181106121af576121af61506b565b602002602001015182612842565b826009815181106121d0576121d061506b565b60200260200101819052506121f1826002815181106121af576121af61506b565b82600a815181106122045761220461506b565b6020026020010181905250612233826002815181106122255761222561506b565b602002602001015182612898565b82600b815181106122465761224661506b565b6020026020010181905250612267826003815181106122255761222561506b565b82600c8151811061227a5761227a61506b565b602002602001018190525061229b826004815181106122255761222561506b565b82600d815181106122ae576122ae61506b565b60200260200101819052506122dd826004815181106122cf576122cf61506b565b6020026020010151826128e4565b82600e815181106122f0576122f061506b565b6020026020010181905250612311826005815181106122cf576122cf61506b565b82600f815181106123245761232461506b565b6020026020010181905250612353826005815181106123455761234561506b565b602002602001015182612926565b826010815181106123665761236661506b565b6020026020010181905250612387826005815181106120f7576120f761506b565b8260118151811061239a5761239a61506b565b602002602001018190525060006123b489888a8989611d9b565b905060006123c28b83611791565b905060005b60128110156124515760008582815181106123e4576123e461506b565b6020026020010151905060006123fd828c8e8d8d611d9b565b9050612409818d611e89565b612414575050612449565b60006124208f83611791565b90508467ffffffffffffffff168167ffffffffffffffff161015612445578195508094505b5050505b6001016123c7565b50909a9950505050505050505050565b60408051808201909152600080825260208201528151600060026124886001841684615189565b612492919061514a565b846020015161177291906151f3565b6000808212156124b45781600003610591565b5090565b600061250d826040518060400160405280602081526020017f5361666545524332303a206c6f772d6c6576656c2063616c6c206661696c6564815250856001600160a01b031661296f9092919063ffffffff16565b805190915015611c3f578080602001905181019061252b91906152ae565b611c3f5760405162461bcd60e51b815260206004820152602a60248201527f5361666545524332303a204552433230206f7065726174696f6e20646964206e60448201527f6f74207375636365656400000000000000000000000000000000000000000000606482015260840161045e565b604080518082019091526000808252602082015260006125be846002615242565b90506000836125cd8688615222565b6125d791906152d0565b905060006125e6600186615300565b6125f08489615222565b6125fa91906152d0565b905060006126088784615242565b905060006126168884615242565b90506000816126258685615222565b61262f9190615189565b9050600061263d8584615222565b86612649866002615242565b6126539190615222565b61265d908d615189565b6126679190615189565b60408051808201909152600793840b8152920b6020830152509998505050505050505050565b6000806126a0601085901d60ff16612986565b905060006126c16126bc60ff601087901d16600885901d615320565b612986565b905060006126dc6126bc60ff601088901d8116908616615320565b905061ffff8616955061ffff8516945060006126f787613a82565b9050600061272e8261270e600887901d8b8b613ac2565b612729600887901d612723620100008e615348565b8c613ac2565b613b1c565b905060006127718361275060ff88168c61274b620100008e615348565b613ac2565b61272960ff8816612764620100008f615348565b61274b620100008f615348565b905061278661277f89613a82565b8383613b1c565b9998505050505050505050565b604080518082019091526000808252602082015260006127b483600261526c565b84516127c091906151f3565b6127cb9060016151f3565b905060008385602001516127df9190615189565b60408051808201909152600793840b8152920b6020830152509392505050565b604080518082019091526000808252602082015282516000906128239084906151f3565b9050600083856020015161283791906151f3565b6127df9060016151f3565b604080518082019091526000808252602082015260006128638360016151f3565b845161286f9190615189565b9050600061287e84600261526c565b6128899060016151f3565b85602001516127df91906151f3565b604080518082019091526000808252602082015260006128b983600261526c565b6128c49060016151f3565b84516128d09190615189565b905060008385602001516127df91906151f3565b60408051808201909152600080825260208201528251600090612908908490615189565b905060006129178460016151f3565b85602001516127df9190615189565b6040805180820190915260008082526020820152825160009061294a9084906151f3565b6129559060016151f3565b9050600061296484600261526c565b6129179060016151f3565b606061297e8484600085613b3f565b949350505050565b60ff166000607f821361320a57603f8213612dd257601f8213612bbb57600f8213612ab35760078213612a3357600382136129f757600182136129dd57816000036129d457506197a0919050565b5061a089919050565b816002036129ee575061895b919050565b50615b5a919050565b60058213612a195781600403612a105750615a0f919050565b50610f83919050565b81600603612a2a575061830d919050565b50610dc9919050565b600b8213612a775760098213612a5d5781600803612a54575061c95f919050565b50615f60919050565b81600a03612a6e5750616035919050565b506135c2919050565b600d8213612a995781600c03612a90575061c2e9919050565b5061e907919050565b81600e03612aaa57506107e1919050565b5061e18c919050565b60178213612b3b5760138213612aff5760118213612ae55781601003612adc5750618c24919050565b50612467919050565b81601203612af6575061671e919050565b50611e45919050565b60158213612b215781601403612b18575061458e919050565b50618e08919050565b81601603612b325750610863919050565b50616325919050565b601b8213612b7f5760198213612b655781601803612b5c57506125f0919050565b5061f015919050565b81601a03612b76575061150a919050565b50610a17919050565b601d8213612ba15781601c03612b9857506117be919050565b5061be06919050565b81601e03612bb25750610694919050565b506194f7919050565b602f8213612cca5760278213612c4a5760238213612c0f5760218213612bf55781602003612bec575061f778919050565b506178ea919050565b81602203612c06575061ea4b919050565b50614b00919050565b60258213612c305781602403612c275750601a919050565b50611ac5919050565b81602603612c41575061c53e919050565b50613e5e919050565b602b8213612c8e5760298213612c745781602803612c6b5750615efc919050565b5061fcdb919050565b81602a03612c85575061dbcb919050565b5061cb75919050565b602d8213612cb05781602c03612ca75750617523919050565b5061230b919050565b81602e03612cc15750610b20919050565b50612039919050565b60378213612d525760338213612d165760318213612cfc5781603003612cf357506139b1919050565b5061b121919050565b81603203612d0d5750612158919050565b506158ed919050565b60358213612d385781603403612d2f575061ed95919050565b50619538919050565b81603603612d495750613857919050565b506157ae919050565b603b8213612d965760398213612d7c5781603803612d73575061ae14919050565b5061147d919050565b81603a03612d8d5750617d88919050565b506188ab919050565b603d8213612db85781603c03612daf575061aba8919050565b5061a844919050565b81603e03612dc957506144af919050565b5061af4a919050565b605f8213612ff257604f8213612eea5760478213612e6a5760438213612e2e5760418213612e145781604003612e0b5750614aa5919050565b5061a547919050565b81604203612e255750614786919050565b5061868b919050565b60458213612e505781604403612e475750618b30919050565b5061301b919050565b81604603612e615750611ba6919050565b5061a64d919050565b604b8213612eae5760498213612e945781604803612e8b5750614d92919050565b5061929e919050565b81604a03612ea55750619ee7919050565b5061e753919050565b604d8213612ed05781604c03612ec7575061536f919050565b50616fe5919050565b81604e03612ee1575061e57a919050565b50617a3c919050565b60578213612f725760538213612f365760518213612f1c5781605003612f135750613cd3919050565b5061d385919050565b81605203612f2d57506185e6919050565b5061e6dc919050565b60558213612f585781605403612f4f575061dc69919050565b5061695c919050565b81605603612f695750615c29919050565b50612937919050565b605b8213612fb65760598213612f9c5781605803612f93575061372e919050565b50612ef5919050565b81605a03612fad575061f528919050565b506128f4919050565b605d8213612fd85781605c03612fcf575061f466919050565b5061668f919050565b81605e03612fe95750618f36919050565b50613641919050565b606f821361310257606782136130825760638213613046576061821361302c57816060036130235750614119919050565b5061193f919050565b8160620361303d5750613fa1919050565b5061a101919050565b60658213613068578160640361305f57506101d8919050565b5061d850919050565b816066036130795750615049919050565b506149d1919050565b606b82136130c657606982136130ac57816068036130a3575061d14c919050565b50614c84919050565b81606a036130bd57506184bb919050565b5061bbd0919050565b606d82136130e85781606c036130df575061d059919050565b50615912919050565b81606e036130f957506112a9919050565b5061a9c8919050565b6077821361318a576073821361314e5760718213613134578160700361312b575061c8c4919050565b5061c487919050565b816072036131455750618782919050565b50618274919050565b60758213613170578160740361316757506174bc919050565b5061bc9f919050565b816076036131815750619f56919050565b506156a4919050565b607b82136131ce57607982136131b457816078036131ab575061a464919050565b5061646d919050565b81607a036131c55750616dc6919050565b5061c6ad919050565b607d82136131f05781607c036131e7575061adba919050565b5061ba03919050565b81607e036132015750610340919050565b50614034919050565b60bf821361364a57609f821361343257608f821361332a57608782136132aa576083821361326e5760818213613254578160800361324b57506134d9919050565b5061d9e2919050565b81608203613265575061e2fa919050565b5061fa7c919050565b6085821361329057816084036132875750617c7b919050565b50617b05919050565b816086036132a157506105ca919050565b5061ca26919050565b608b82136132ee57608982136132d457816088036132cb5750612693919050565b50619376919050565b81608a036132e5575061767e919050565b50617eff919050565b608d82136133105781608c03613307575061ff52919050565b50615255919050565b81608e0361332157506155d4919050565b5061d4cf919050565b609782136133b25760938213613376576091821361335c5781609003613353575061cfce919050565b5061ce3b919050565b8160920361336d5750613be3919050565b5061e32f919050565b60958213613398578160940361338f5750612f10919050565b5061103a919050565b816096036133a95750613a11919050565b506111b6919050565b609b82136133f657609982136133dc57816098036133d3575061b6bd919050565b5061bd1c919050565b81609a036133ed5750611c2a919050565b50612adf919050565b609d82136134185781609c0361340f575061dfb7919050565b5061b7aa919050565b81609e03613429575061aad5919050565b5061d577919050565b60af82136135425760a782136134c25760a382136134865760a1821361346c578160a00361346357506177f8919050565b5061f898919050565b8160a20361347d5750619802919050565b5061022c919050565b60a582136134a8578160a40361349f5750612c9a919050565b50619aa3919050565b8160a6036134b9575061a346919050565b506146dd919050565b60ab82136135065760a982136134ec578160a8036134e3575061dd99919050565b50619965919050565b8160aa036134fd575061659b919050565b50619ba7919050565b60ad8213613528578160ac0361351f575061a72b919050565b50612bac919050565b8160ae03613539575061ac09919050565b50610981919050565b60b782136135ca5760b3821361358e5760b18213613574578160b00361356b5750618116919050565b50611627919050565b8160b20361358557506127fd919050565b5061fd13919050565b60b582136135b0578160b4036135a75750611362919050565b5061626c919050565b8160b6036135c15750616c6e919050565b50616e4f919050565b60bb821361360e5760b982136135f4578160b8036135eb5750614f71919050565b506171e0919050565b8160ba03613605575061e0e8919050565b5061e8b2919050565b60bd8213613630578160bc03613627575061b2b9919050565b5061b970919050565b8160be036136415750617068919050565b506168da919050565b60df821361386a5760cf82136137625760c782136136e25760c382136136a65760c1821361368c578160c003613683575061daf6919050565b5061f661919050565b8160c20361369d57506161e4919050565b5061e4fb919050565b60c582136136c8578160c4036136bf575061fb22919050565b506122f2919050565b8160c6036136d9575061f2c1919050565b5061c1ee919050565b60cb82136137265760c9821361370c578160c803613703575061eed2919050565b5061d290919050565b8160ca0361371d575061900c919050565b50610cbf919050565b60cd8213613748578160cc0361373f575061bfb3919050565b5061b3a2919050565b8160ce03613759575061a2f1919050565b5061f151919050565b60d782136137ea5760d382136137ae5760d18213613794578160d00361378b5750615133919050565b50613391919050565b8160d2036137a557506191eb919050565b5061ebf9919050565b60d582136137d0578160d4036137c7575061f90e919050565b50610eef919050565b8160d6036137e1575061ef6b919050565b50616b31919050565b60db821361382e5760d98213613814578160d80361380b57506131c0919050565b5061c0d6919050565b8160da03613825575061d61f919050565b50611fb5919050565b60dd8213613850578160dc03613847575061b5c7919050565b5061c76a919050565b8160de036138615750616a9d919050565b50619db8919050565b60ef821361397a5760e782136138fa5760e382136138be5760e182136138a4578160e00361389b575061b854919050565b506154cc919050565b8160e2036138b5575061ccb0919050565b5061b073919050565b60e582136138e0578160e4036138d75750617379919050565b50617932919050565b8160e6036138f1575061322d919050565b50612d7f919050565b60eb821361393e5760e98213613924578160e80361391b5750617f04919050565b50610496919050565b8160ea0361393557506196fe919050565b5061fe8a919050565b60ed8213613960578160ec036139575750618aec919050565b5061eccd919050565b8160ee03613971575061cd5d919050565b50615dde919050565b60f78213613a025760f382136139c65760f182136139ac578160f0036139a3575061de72919050565b50617243919050565b8160f2036139bd575061431d919050565b50611d18919050565b60f582136139e8578160f4036139df5750611848919050565b506148f3919050565b8160f6036139f9575061f38d919050565b50618d80919050565b60fb8213613a465760f98213613a2c578160f803613a2357506180c3919050565b5061c34e919050565b8160fa03613a3d5750614e42919050565b506142d7919050565b60fd8213613a68578160fc03613a5f575061d73d919050565b50613d9c919050565b8160fe03613a795750619cb4919050565b5061b497919050565b600080613a92600884901d613c70565b9050600c81901d610fff82166008613aaa8383615348565b613ab79060ff8816615368565b611831911d83615320565b6000600384169350600084600116600003613ade575082613aea565b613ae784615398565b90505b60006002861215613afc575082613b08565b613b0584615398565b90505b613b128183615320565b9695505050505050565b6000600c613b2a8484615348565b613b349086615368565b61297e911d84615320565b606082471015613ba05760405162461bcd60e51b815260206004820152602660248201527f416464726573733a20696e73756666696369656e742062616c616e636520666f6044820152651c8818d85b1b60d21b606482015260840161045e565b6001600160a01b0385163b613bf75760405162461bcd60e51b815260206004820152601d60248201527f416464726573733a2063616c6c20746f206e6f6e2d636f6e7472616374000000604482015260640161045e565b600080866001600160a01b03168587604051613c1391906153d8565b60006040518083038185875af1925050503d8060008114613c50576040519150601f19603f3d011682016040523d82523d6000602084013e613c55565b606091505b5091509150613c65828286614e20565b979650505050505050565b6000607f821361454657603f82136140ce57601f8213613e9657600f8213613d825760078213613d025760038213613cd25760018213613cc25781600003613cba57506000919050565b506000919050565b81600203613cba57506000919050565b60058213613cea5781600403613cba57506000919050565b81600603613cfa57506000919050565b506001919050565b600b8213613d465760098213613d2c5781600803613d235750611001919050565b50611002919050565b81600a03613d3d5750612003919050565b50613003919050565b600d8213613d685781600c03613d5f5750613004919050565b50614006919050565b81600e03613d795750616007919050565b50617009919050565b60178213613e0e5760138213613dce5760118213613db45781601003613dab575061900a919050565b5061a00c919050565b81601203613dc5575061c00e919050565b5061e011919050565b60158213613df25781601403613de8575062011013919050565b5062013016919050565b81601603613e04575062016019919050565b506201901d919050565b601b8213613e565760198213613e3a5781601803613e3057506201d020919050565b5062020024919050565b81601a03613e4c575062024028919050565b506202802d919050565b601d8213613e7a5781601c03613e7057506202d031919050565b5062031036919050565b81601e03613e8c57506203603c919050565b506203c041919050565b602f8213613fb65760278213613f2e5760238213613eee5760218213613ed25781602003613ec8575062041047919050565b506204704d919050565b81602203613ee457506204d054919050565b506205405b919050565b60258213613f125781602403613f0857506205b062919050565b5062062069919050565b81602603613f24575062069071919050565b5062071079919050565b602b8213613f765760298213613f5a5781602803613f50575062079082919050565b506208208b919050565b81602a03613f6c57506208b094919050565b506209409e919050565b602d8213613f9a5781602c03613f9057506209e0a7919050565b50620a70b2919050565b81602e03613fac5750620b20bc919050565b50620bc0c7919050565b6037821361404657603382136140065760318213613fea5781603003613fe05750620c70d3919050565b50620d30de919050565b81603203613ffc5750620de0ea919050565b50620ea0f7919050565b6035821361402a57816034036140205750620f7103919050565b5062103111919050565b8160360361403c57506211111e919050565b506211e12c919050565b603b821361408e5760398213614072578160380361406857506212c13a919050565b506213a149919050565b81603a03614084575062149158919050565b5062158167919050565b603d82136140b25781603c036140a8575062167176919050565b5062176186919050565b81603e036140c4575062186197919050565b50621971a8919050565b605f821361430e57604f82136141f6576047821361416e576043821361412e576041821361411257816040036141085750621a81b9919050565b50621b91ca919050565b816042036141245750621ca1dc919050565b50621dc1ee919050565b6045821361415257816044036141485750621ee200919050565b5062200213919050565b81604603614164575062213226919050565b506222623a919050565b604b82136141b6576049821361419a578160480361419057506223a24d919050565b506224d261919050565b81604a036141ac575062261276919050565b506227628b919050565b604d82136141da5781604c036141d057506228b2a0919050565b50622a02b5919050565b81604e036141ec5750622b52cb919050565b50622cb2e1919050565b605782136142865760538213614246576051821361422a57816050036142205750622e12f7919050565b50622f730e919050565b8160520361423c57506230e325919050565b506232533c919050565b6055821361426a578160540361426057506233c353919050565b506235336b919050565b8160560361427c57506236b383919050565b506238339b919050565b605b82136142ce57605982136142b257816058036142a857506239b3b4919050565b50623b43cd919050565b81605a036142c45750623cd3e6919050565b50623e63ff919050565b605d82136142f25781605c036142e85750623ff419919050565b5062419432919050565b81605e0361430457506243244c919050565b506244c467919050565b606f821361442e57606782136143a65760638213614366576061821361434a5781606003614340575062467481919050565b506248149c919050565b8160620361435c57506249c4b7919050565b50624b74d2919050565b6065821361438a57816064036143805750624d24ed919050565b50624ed509919050565b8160660361439c575062509524919050565b5062524540919050565b606b82136143ee57606982136143d257816068036143c857506254055c919050565b506255c578919050565b81606a036143e4575062578595919050565b50625955b1919050565b606d82136144125781606c036144085750625b15ce919050565b50625ce5eb919050565b81606e036144245750625eb607919050565b5062607624919050565b607782136144be576073821361447e57607182136144625781607003614458575062624642919050565b506264265f919050565b8160720361447457506265f67c919050565b506267c69a919050565b607582136144a2578160740361449857506269a6b7919050565b50626b76d5919050565b816076036144b45750626d56f2919050565b50626f2710919050565b607b821361450657607982136144ea57816078036144e057506271072e919050565b506272e74c919050565b81607a036144fc57506274c76a919050565b506276a788919050565b607d821361452a5781607c036145205750627887a6919050565b50627a67c4919050565b81607e0361453c5750627c47e2919050565b50627e2800919050565b60bf82136149c657609f821361478e57608f821361467657608782136145ee57608382136145ae5760818213614592578160800361458857506280081d919050565b506281d83b919050565b816082036145a457506283b859919050565b5062859877919050565b608582136145d257816084036145c8575062877895919050565b50628958b3919050565b816086036145e45750628b38d1919050565b50628d18ef919050565b608b8213614636576089821361461a57816088036146105750628ef90d919050565b506290d92a919050565b81608a0361462c57506292a948919050565b5062948965919050565b608d821361465a5781608c03614650575062965983919050565b50629839a0919050565b81608e0361466c5750629a09bd919050565b50629bd9db919050565b6097821361470657609382136146c657609182136146aa57816090036146a05750629db9f8919050565b50629f8a14919050565b816092036146bc575062a14a31919050565b5062a31a4e919050565b609582136146ea57816094036146e0575062a4ea6a919050565b5062a6aa87919050565b816096036146fc575062a87aa3919050565b5062aa3abf919050565b609b821361474e57609982136147325781609803614728575062abfadb919050565b5062adbaf6919050565b81609a03614744575062af6b12919050565b5062b12b2d919050565b609d82136147725781609c03614768575062b2db48919050565b5062b48b63919050565b81609e03614784575062b63b7e919050565b5062b7eb98919050565b60af82136148ae5760a782136148265760a382136147e65760a182136147ca578160a0036147c0575062b98bb3919050565b5062bb3bcd919050565b8160a2036147dc575062bcdbe6919050565b5062be6c00919050565b60a5821361480a578160a403614800575062c00c19919050565b5062c19c32919050565b8160a60361481c575062c32c4b919050565b5062c4bc64919050565b60ab821361486e5760a98213614852578160a803614848575062c64c7c919050565b5062c7cc94919050565b8160aa03614864575062c94cac919050565b5062caccc3919050565b60ad8213614892578160ac03614888575062cc3cda919050565b5062cdacf1919050565b8160ae036148a4575062cf1d08919050565b5062d08d1e919050565b60b7821361493e5760b382136148fe5760b182136148e2578160b0036148d8575062d1ed34919050565b5062d34d4a919050565b8160b2036148f4575062d4ad5f919050565b5062d5fd74919050565b60b58213614922578160b403614918575062d74d89919050565b5062d89d9e919050565b8160b603614934575062d9edb2919050565b5062db2dc5919050565b60bb82136149865760b9821361496a578160b803614960575062dc5dd9919050565b5062dd9dec919050565b8160ba0361497c575062decdff919050565b5062dffe11919050565b60bd82136149aa578160bc036149a0575062e11e23919050565b5062e23e35919050565b8160be036149bc575062e35e46919050565b5062e46e58919050565b60df8213614c065760cf8213614aee5760c78213614a665760c38213614a265760c18213614a0a578160c003614a00575062e58e68919050565b5062e68e79919050565b8160c203614a1c575062e79e89919050565b5062e89e98919050565b60c58213614a4a578160c403614a40575062e98ea7919050565b5062ea7eb6919050565b8160c603614a5c575062eb6ec5919050565b5062ec5ed3919050565b60cb8213614aae5760c98213614a92578160c803614a88575062ed3ee1919050565b5062ee1eee919050565b8160ca03614aa4575062eeeefc919050565b5062efcf08919050565b60cd8213614ad2578160cc03614ac8575062f08f15919050565b5062f15f21919050565b8160ce03614ae4575062f21f2c919050565b5062f2cf38919050565b60d78213614b7e5760d38213614b3e5760d18213614b22578160d003614b18575062f38f43919050565b5062f43f4d919050565b8160d203614b34575062f4df58919050565b5062f58f61919050565b60d58213614b62578160d403614b58575062f61f6b919050565b5062f6bf74919050565b8160d603614b74575062f74f7d919050565b5062f7df86919050565b60db8213614bc65760d98213614baa578160d803614ba0575062f86f8e919050565b5062f8ef96919050565b8160da03614bbc575062f96f9d919050565b5062f9dfa4919050565b60dd8213614bea578160dc03614be0575062fa4fab919050565b5062fabfb2919050565b8160de03614bfc575062fb2fb8919050565b5062fb8fbe919050565b60ef8213614d265760e78213614c9e5760e38213614c5e5760e18213614c42578160e003614c38575062fbefc3919050565b5062fc3fc9919050565b8160e203614c54575062fc9fce919050565b5062fcefd2919050565b60e58213614c82578160e403614c78575062fd2fd7919050565b5062fd7fdb919050565b8160e603614c94575062fdbfdf919050565b5062fdffe2919050565b60eb8213614ce65760e98213614cca578160e803614cc0575062fe2fe6919050565b5062fe6fe9919050565b8160ea03614cdc575062fe9fec919050565b5062fecfee919050565b60ed8213614d0a578160ec03614d00575062feeff1919050565b5062ff1ff3919050565b8160ee03614d1c575062ff3ff5919050565b5062ff5ff6919050565b60f78213614db65760f38213614d765760f18213614d5a578160f003614d50575062ff6ff8919050565b5062ff8ff9919050565b8160f203614d6c575062ff9ffb919050565b5062ffbffc919050565b60f58213614d9a578160f403614d90575062ffcffc919050565b5062ffcffd919050565b8160f603614dac575062ffdffe919050565b5062ffeffe919050565b60fb8213614df45760f98213614de2578160f803614dd8575062ffefff919050565b5062ffffff919050565b8160fa03614dd8575062ffffff919050565b60fd8213614e0e578160fc03614dd8575062ffffff919050565b8160fe03614dd8575062ffffff919050565b60608315614e2f57508161070c565b825115614e3f5782518084602001fd5b8160405162461bcd60e51b815260040161045e91906153f4565b67ffffffffffffffff81168114614e6f57600080fd5b50565b600060208284031215614e8457600080fd5b813561070c81614e59565b6001600160a01b0381168114614e6f57600080fd5b600060208284031215614eb657600080fd5b813561070c81614e8f565b60008060408385031215614ed457600080fd5b8235614edf81614e59565b91506020830135614eef81614e59565b809150509250929050565b60008060408385031215614f0d57600080fd5b8235614f1881614e59565b946020939093013593505050565b6040808252835190820181905260009060208501906060840190835b81811015614f6a57835167ffffffffffffffff16835260209384019390920191600101614f42565b5050602093909301939093525092915050565b600080600060608486031215614f9257600080fd5b83359250602084013591506040840135614fab81614e59565b809150509250925092565b8151604082019060038110614fdb57634e487b7160e01b600052602160045260246000fd5b8083525060ff602084015116602083015292915050565b60006020828403121561500457600080fd5b815161070c81614e59565b60006020828403121561502157600080fd5b5051919050565b634e487b7160e01b600052601160045260246000fd5b808202811582820484141761059157610591615028565b634e487b7160e01b600052604160045260246000fd5b634e487b7160e01b600052603260045260246000fd5b60006001820161509357615093615028565b5060010190565b6000602082840312156150ac57600080fd5b815161070c81614e8f565b8181038181111561059157610591615028565b600067ffffffffffffffff821667ffffffffffffffff81036150ee576150ee615028565b60010192915050565b634e487b7160e01b600052601260045260246000fd5b60008261511c5761511c6150f7565b500690565b8082018082111561059157610591615028565b600060ff821660ff81036150ee576150ee615028565b60008160070b8360070b80615161576151616150f7565b677fffffffffffffff1982146000198214161561518057615180615028565b90059392505050565b600782810b9082900b03677fffffffffffffff198112677fffffffffffffff8213171561059157610591615028565b60008160070b677fffffffffffffff1981036151d6576151d6615028565b60000392915050565b6000826151ee576151ee6150f7565b500490565b600781810b9083900b01677fffffffffffffff8113677fffffffffffffff198212171561059157610591615028565b67ffffffffffffffff818116838216019081111561059157610591615028565b67ffffffffffffffff818116838216029081169081811461526557615265615028565b5092915050565b60008260070b8260070b028060070b915080821461526557615265615028565b60008260070b8061529f5761529f6150f7565b808360070b0791505092915050565b6000602082840312156152c057600080fd5b8151801515811461070c57600080fd5b600067ffffffffffffffff8316806152ea576152ea6150f7565b8067ffffffffffffffff84160491505092915050565b67ffffffffffffffff828116828216039081111561059157610591615028565b808201828112600083128015821682158216171561534057615340615028565b505092915050565b818103600083128015838313168383128216171561526557615265615028565b80820260008212600160ff1b8414161561538457615384615028565b818105831482151761059157610591615028565b6000600160ff1b82016153ad576153ad615028565b5060000390565b60005b838110156153cf5781810151838201526020016153b7565b50506000910152565b600082516153ea8184602087016153b4565b9190910192915050565b60208152600082518060208401526154138160408501602087016153b4565b601f01601f1916919091016040019291505056fea26469706673582212207a2c7930d8522df3e59f41bca4960c27cbfe71164820b6b9b1695c2f6dd4c46b64736f6c634300081a0033",
  "linkReferences": {},
  "deployedLinkReferences": {}
}