{
  "_format": "hh-sol-artifact-1",
  "contractName": "Prosperity",
  "sourceName": "contracts/core/assets/tokens/prosperity/Prosperity.sol",
  "abi": [
    {
      "inputs": [],
      "stateMutability": "nonpayable",
      "type": "constructor"
    },
    {
      "inputs": [],
      "name": "CannotApproveFromZeroAddress",
      "type": "error"
    },
    {
      "inputs": [],
      "name": "CannotApproveToZeroAddress",
      "type": "error"
    },
    {
      "inputs": [],
      "name": "CannotBurnFromZeroAddress",
      "type": "error"
    },
    {
      "inputs": [],
      "name": "CannotDecreaseAllowanceBelowZero",
      "type": "error"
    },
    {
      "inputs": [],
      "name": "CannotMintToZeroAddress",
      "type": "error"
    },
    {
      "inputs": [],
      "name": "CannotSpendMoreAllowanceThanCurrentValue",
      "type": "error"
    },
    {
      "inputs": [],
      "name": "CannotTransferFromZeroAddress",
      "type": "error"
    },
    {
      "inputs": [],
      "name": "CannotTransferHigherThanOwnedAmountOfTokens",
      "type": "error"
    },
    {
      "inputs": [],
      "name": "CannotTransferToZeroAddress",
      "type": "error"
    },
    {
      "inputs": [],
      "name": "Disabled",
      "type": "error"
    },
    {
      "inputs": [],
      "name": "OnlyActiveGame",
      "type": "error"
    },
    {
      "inputs": [],
      "name": "OnlyMightyCreator",
      "type": "error"
    },
    {
      "inputs": [],
      "name": "OnlyWorldAssetFromSameEra",
      "type": "error"
    },
    {
      "anonymous": false,
      "inputs": [
        {
          "indexed": true,
          "internalType": "address",
          "name": "owner",
          "type": "address"
        },
        {
          "indexed": true,
          "internalType": "address",
          "name": "spender",
          "type": "address"
        },
        {
          "indexed": false,
          "internalType": "uint256",
          "name": "value",
          "type": "uint256"
        }
      ],
      "name": "Approval",
      "type": "event"
    },
    {
      "anonymous": false,
      "inputs": [
        {
          "indexed": false,
          "internalType": "uint8",
          "name": "version",
          "type": "uint8"
        }
      ],
      "name": "Initialized",
      "type": "event"
    },
    {
      "anonymous": false,
      "inputs": [
        {
          "indexed": true,
          "internalType": "address",
          "name": "from",
          "type": "address"
        },
        {
          "indexed": true,
          "internalType": "address",
          "name": "to",
          "type": "address"
        },
        {
          "indexed": false,
          "internalType": "uint256",
          "name": "value",
          "type": "uint256"
        }
      ],
      "name": "Transfer",
      "type": "event"
    },
    {
      "inputs": [
        {
          "internalType": "address",
          "name": "owner",
          "type": "address"
        },
        {
          "internalType": "address",
          "name": "spender",
          "type": "address"
        }
      ],
      "name": "allowance",
      "outputs": [
        {
          "internalType": "uint256",
          "name": "",
          "type": "uint256"
        }
      ],
      "stateMutability": "view",
      "type": "function"
    },
    {
      "inputs": [
        {
          "internalType": "address",
          "name": "spender",
          "type": "address"
        },
        {
          "internalType": "uint256",
          "name": "amount",
          "type": "uint256"
        }
      ],
      "name": "approve",
      "outputs": [
        {
          "internalType": "bool",
          "name": "",
          "type": "bool"
        }
      ],
      "stateMutability": "nonpayable",
      "type": "function"
    },
    {
      "inputs": [],
      "name": "assetGroupId",
      "outputs": [
        {
          "internalType": "bytes32",
          "name": "",
          "type": "bytes32"
        }
      ],
      "stateMutability": "view",
      "type": "function"
    },
    {
      "inputs": [],
      "name": "assetTypeId",
      "outputs": [
        {
          "internalType": "bytes32",
          "name": "",
          "type": "bytes32"
        }
      ],
      "stateMutability": "view",
      "type": "function"
    },
    {
      "inputs": [
        {
          "internalType": "address",
          "name": "account",
          "type": "address"
        }
      ],
      "name": "balanceOf",
      "outputs": [
        {
          "internalType": "uint256",
          "name": "",
          "type": "uint256"
        }
      ],
      "stateMutability": "view",
      "type": "function"
    },
    {
      "inputs": [
        {
          "internalType": "uint256",
          "name": "amount",
          "type": "uint256"
        }
      ],
      "name": "burn",
      "outputs": [],
      "stateMutability": "nonpayable",
      "type": "function"
    },
    {
      "inputs": [
        {
          "internalType": "address",
          "name": "account",
          "type": "address"
        },
        {
          "internalType": "uint256",
          "name": "amount",
          "type": "uint256"
        }
      ],
      "name": "burnFrom",
      "outputs": [],
      "stateMutability": "nonpayable",
      "type": "function"
    },
    {
      "inputs": [],
      "name": "decimals",
      "outputs": [
        {
          "internalType": "uint8",
          "name": "",
          "type": "uint8"
        }
      ],
      "stateMutability": "view",
      "type": "function"
    },
    {
      "inputs": [
        {
          "internalType": "address",
          "name": "spender",
          "type": "address"
        },
        {
          "internalType": "uint256",
          "name": "subtractedValue",
          "type": "uint256"
        }
      ],
      "name": "decreaseAllowance",
      "outputs": [
        {
          "internalType": "bool",
          "name": "",
          "type": "bool"
        }
      ],
      "stateMutability": "nonpayable",
      "type": "function"
    },
    {
      "inputs": [],
      "name": "era",
      "outputs": [
        {
          "internalType": "contract IEra",
          "name": "",
          "type": "address"
        }
      ],
      "stateMutability": "view",
      "type": "function"
    },
    {
      "inputs": [],
      "name": "eraNumber",
      "outputs": [
        {
          "internalType": "uint256",
          "name": "",
          "type": "uint256"
        }
      ],
      "stateMutability": "view",
      "type": "function"
    },
    {
      "inputs": [
        {
          "internalType": "address",
          "name": "spender",
          "type": "address"
        },
        {
          "internalType": "uint256",
          "name": "addedValue",
          "type": "uint256"
        }
      ],
      "name": "increaseAllowance",
      "outputs": [
        {
          "internalType": "bool",
          "name": "",
          "type": "bool"
        }
      ],
      "stateMutability": "nonpayable",
      "type": "function"
    },
    {
      "inputs": [
        {
          "internalType": "bytes",
          "name": "initParams",
          "type": "bytes"
        }
      ],
      "name": "init",
      "outputs": [],
      "stateMutability": "nonpayable",
      "type": "function"
    },
    {
      "inputs": [
        {
          "internalType": "address",
          "name": "to",
          "type": "address"
        },
        {
          "internalType": "uint256",
          "name": "amount",
          "type": "uint256"
        }
      ],
      "name": "mint",
      "outputs": [],
      "stateMutability": "nonpayable",
      "type": "function"
    },
    {
      "inputs": [],
      "name": "name",
      "outputs": [
        {
          "internalType": "string",
          "name": "",
          "type": "string"
        }
      ],
      "stateMutability": "view",
      "type": "function"
    },
    {
      "inputs": [
        {
          "internalType": "address",
          "name": "",
          "type": "address"
        }
      ],
      "name": "prosperitySpent",
      "outputs": [
        {
          "internalType": "uint256",
          "name": "",
          "type": "uint256"
        }
      ],
      "stateMutability": "view",
      "type": "function"
    },
    {
      "inputs": [
        {
          "internalType": "address",
          "name": "account",
          "type": "address"
        }
      ],
      "name": "realBalanceOf",
      "outputs": [
        {
          "internalType": "int256",
          "name": "",
          "type": "int256"
        }
      ],
      "stateMutability": "view",
      "type": "function"
    },
    {
      "inputs": [],
      "name": "realTotalSupply",
      "outputs": [
        {
          "internalType": "int256",
          "name": "",
          "type": "int256"
        }
      ],
      "stateMutability": "view",
      "type": "function"
    },
    {
      "inputs": [],
      "name": "registry",
      "outputs": [
        {
          "internalType": "contract IRegistry",
          "name": "",
          "type": "address"
        }
      ],
      "stateMutability": "view",
      "type": "function"
    },
    {
      "inputs": [
        {
          "internalType": "address",
          "name": "from",
          "type": "address"
        },
        {
          "internalType": "uint256",
          "name": "amount",
          "type": "uint256"
        }
      ],
      "name": "spend",
      "outputs": [],
      "stateMutability": "nonpayable",
      "type": "function"
    },
    {
      "inputs": [],
      "name": "symbol",
      "outputs": [
        {
          "internalType": "string",
          "name": "",
          "type": "string"
        }
      ],
      "stateMutability": "view",
      "type": "function"
    },
    {
      "inputs": [],
      "name": "totalSupply",
      "outputs": [
        {
          "internalType": "uint256",
          "name": "",
          "type": "uint256"
        }
      ],
      "stateMutability": "view",
      "type": "function"
    },
    {
      "inputs": [
        {
          "internalType": "address",
          "name": "to",
          "type": "address"
        },
        {
          "internalType": "uint256",
          "name": "amount",
          "type": "uint256"
        }
      ],
      "name": "transfer",
      "outputs": [
        {
          "internalType": "bool",
          "name": "success",
          "type": "bool"
        }
      ],
      "stateMutability": "nonpayable",
      "type": "function"
    },
    {
      "inputs": [
        {
          "internalType": "address",
          "name": "from",
          "type": "address"
        },
        {
          "internalType": "address",
          "name": "to",
          "type": "address"
        },
        {
          "internalType": "uint256",
          "name": "amount",
          "type": "uint256"
        }
      ],
      "name": "transferFrom",
      "outputs": [
        {
          "internalType": "bool",
          "name": "success",
          "type": "bool"
        }
      ],
      "stateMutability": "nonpayable",
      "type": "function"
    },
    {
      "inputs": [],
      "name": "world",
      "outputs": [
        {
          "internalType": "contract IWorld",
          "name": "",
          "type": "address"
        }
      ],
      "stateMutability": "view",
      "type": "function"
    },
    {
      "inputs": [],
      "name": "worldAssetFactory",
      "outputs": [
        {
          "internalType": "contract IWorldAssetFactory",
          "name": "",
          "type": "address"
        }
      ],
      "stateMutability": "view",
      "type": "function"
    }
  ],
  "bytecode": "0x608060405234801561001057600080fd5b5060408051602080820183526000808352835191820190935291825290600361003983826100ed565b50600461004682826100ed565b5050506101ab565b634e487b7160e01b600052604160045260246000fd5b600181811c9082168061007857607f821691505b60208210810361009857634e487b7160e01b600052602260045260246000fd5b50919050565b601f8211156100e857806000526020600020601f840160051c810160208510156100c55750805b601f840160051c820191505b818110156100e557600081556001016100d1565b50505b505050565b81516001600160401b038111156101065761010661004e565b61011a816101148454610064565b8461009e565b6020601f82116001811461014e57600083156101365750848201515b600019600385901b1c1916600184901b1784556100e5565b600084815260208120601f198516915b8281101561017e578785015182556020948501946001909201910161015e565b508482101561019c5786840151600019600387901b60f8161c191681555b50505050600190811b01905550565b6113b5806101ba6000396000f3fe608060405234801561001057600080fd5b50600436106101ae5760003560e01c806379cc6790116100ee578063a457c2d711610097578063cd9641a411610071578063cd9641a4146103ab578063dd62ed3e146103cb578063ece56a1a14610404578063ef356a791461040c57600080fd5b8063a457c2d714610372578063a9059cbb14610385578063af7d6ca31461039857600080fd5b806384ba89e3116100c857806384ba89e31461031a57806395d89b411461034157806399a03c701461034957600080fd5b806379cc6790146102d85780637b103999146102eb5780637d884c74146102f357600080fd5b806330b67baa1161015b57806340c10f191161013557806340c10f191461028a57806342966c681461029f5780634ddf47d4146102b257806370a08231146102c557600080fd5b806330b67baa14610260578063313ce56714610268578063395093511461027757600080fd5b8063143e55e01161018c578063143e55e01461022557806318160ddd1461024557806323b872dd1461024d57600080fd5b806306fdde03146101b3578063095ea7b3146101d15780630b4e99c3146101f4575b600080fd5b6101bb610414565b6040516101c89190610fec565b60405180910390f35b6101e46101df366004611034565b61046a565b60405190151581526020016101c8565b7f6c85b93e587873fbe6712f3b438d42c2945689b262f7bd34b8ea4e3f832a89ea545b6040519081526020016101c8565b61022d610484565b6040516001600160a01b0390911681526020016101c8565b610217610528565b6101e461025b366004611060565b610541565b61022d610584565b604051601281526020016101c8565b6101e4610285366004611034565b6105b7565b61029d610298366004611034565b6105f6565b005b61029d6102ad3660046110a1565b61060c565b61029d6102c03660046110d0565b610619565b6102176102d3366004611189565b610735565b61029d6102e6366004611034565b610779565b61022d61079b565b7f6c85b93e587873fbe6712f3b438d42c2945689b262f7bd34b8ea4e3f832a89e754610217565b7f6c85b93e587873fbe6712f3b438d42c2945689b262f7bd34b8ea4e3f832a89e954610217565b6101bb6107e2565b610217610357366004611189565b6001600160a01b031660009081526020819052604090205490565b6101e4610380366004611034565b61081f565b6101e4610393366004611034565b61087f565b61029d6103a6366004611034565b61089a565b6102176103b9366004611189565b60066020526000908152604090205481565b6102176103d93660046111a6565b6001600160a01b03918216600090815260016020908152604080832093909416825291909152205490565b61022d6108da565b600254610217565b60606104466104417f6c85b93e587873fbe6712f3b438d42c2945689b262f7bd34b8ea4e3f832a89e75490565b610921565b60405160200161045691906111df565b604051602081830303815290604052905090565b600033610478818585610a42565b60019150505b92915050565b600061048e610584565b6001600160a01b031663720a70bd6104c47f6c85b93e587873fbe6712f3b438d42c2945689b262f7bd34b8ea4e3f832a89e75490565b6040518263ffffffff1660e01b81526004016104e291815260200190565b602060405180830381865afa1580156104ff573d6000803e3d6000fd5b505050506040513d601f19601f820116820180604052508101906105239190611224565b905090565b600080600254121561053a5750600090565b5060025490565b600061054c33610af2565b156105645761055c848484610be5565b50600161057d565b604051633ac4266d60e11b815260040160405180910390fd5b9392505050565b60006105237f6c85b93e587873fbe6712f3b438d42c2945689b262f7bd34b8ea4e3f832a89e6546001600160a01b031690565b3360008181526001602090815260408083206001600160a01b038716845290915281205490919061047890829086906105f1908790611257565b610a42565b6105fe610cff565b6106088282610e03565b5050565b6106163382610eb3565b50565b600554610100900460ff16158080156106395750600554600160ff909116105b806106535750303b158015610653575060055460ff166001145b6106c95760405162461bcd60e51b815260206004820152602e60248201527f496e697469616c697a61626c653a20636f6e747261637420697320616c72656160448201527f647920696e697469616c697a6564000000000000000000000000000000000000606482015260840160405180910390fd5b6005805460ff1916600117905580156106ec576005805461ff0019166101001790555b8015610608576005805461ff0019169055604051600181527f7f26b83ff96e1f2b6a682f133852f6798a09c465da95921460cefb38474024989060200160405180910390a15050565b6001600160a01b03811660009081526020819052604081205481131561075d57506000919050565b506001600160a01b031660009081526020819052604090205490565b61078233610af2565b15610791576106088282610eb3565b6106088282610f50565b60006107a5610584565b6001600160a01b0316637b1039996040518163ffffffff1660e01b8152600401602060405180830381865afa1580156104ff573d6000803e3d6000fd5b606061080f6104417f6c85b93e587873fbe6712f3b438d42c2945689b262f7bd34b8ea4e3f832a89e75490565b604051602001610456919061126a565b3360008181526001602090815260408083206001600160a01b0387168452909152812054909190838110156108675760405163285af3b760e11b815260040160405180910390fd5b6108748286868403610a42565b506001949350505050565b6000604051633ac4266d60e11b815260040160405180910390fd5b6108a2610cff565b6001600160a01b038216600090815260066020526040812080548392906108ca908490611257565b9091555061060890508282610eb3565b60006108e461079b565b6001600160a01b031663ece56a1a6040518163ffffffff1660e01b8152600401602060405180830381865afa1580156104ff573d6000803e3d6000fd5b6060816000036109485750506040805180820190915260018152600360fc1b602082015290565b8160005b8115610972578061095c81611297565b915061096b9050600a836112c6565b915061094c565b60008167ffffffffffffffff81111561098d5761098d6110ba565b6040519080825280601f01601f1916602001820160405280156109b7576020820181803683370190505b5090505b8415610a3a576109cc6001836112da565b91506109d9600a866112ed565b6109e4906030611257565b60f81b8183815181106109f9576109f9611301565b60200101907effffffffffffffffffffffffffffffffffffffffffffffffffffffffffffff1916908160001a905350610a33600a866112c6565b94506109bb565b949350505050565b6001600160a01b038316610a695760405163abe3697f60e01b815260040160405180910390fd5b6001600160a01b038216610a90576040516396a1f38160e01b815260040160405180910390fd5b6001600160a01b0383811660008181526001602090815260408083209487168084529482529182902085905590518481527f8c5be1e5ebec7d5bd14f71427d1e84f3dd0314c0f7b2291e5b200ac8c7c3b92591015b60405180910390a3505050565b6000610afc610584565b6001600160a01b0316826001600160a01b0316148061047e57506000610b20610584565b6001600160a01b031663ebbe8034610b567f6c85b93e587873fbe6712f3b438d42c2945689b262f7bd34b8ea4e3f832a89e75490565b6040517fffffffff0000000000000000000000000000000000000000000000000000000060e084901b16815260048101919091526001600160a01b0386166024820152604401602060405180830381865afa158015610bb9573d6000803e3d6000fd5b505050506040513d601f19601f82011682018060405250810190610bdd9190611317565b141592915050565b6001600160a01b038316610c0b576040516246d99360e41b815260040160405180910390fd5b6001600160a01b038216610c32576040516337af64f560e11b815260040160405180910390fd5b806001600160a01b03841660009081526020819052604090205481811215610c6d57604051631b56476360e31b815260040160405180910390fd5b6001600160a01b03808616600090815260208190526040808220858503905591861681529081208054849290610ca4908490611330565b92505081905550836001600160a01b0316856001600160a01b03167fddf252ad1be2c89b69c2b068fc378daa952ba7f163c4a11628f55a4df523b3ef85604051610cf091815260200190565b60405180910390a35050505050565b610d07610584565b6001600160a01b0316336001600160a01b031614158015610de357506000610d2d610584565b6001600160a01b031663ebbe8034610d637f6c85b93e587873fbe6712f3b438d42c2945689b262f7bd34b8ea4e3f832a89e75490565b6040517fffffffff0000000000000000000000000000000000000000000000000000000060e084901b1681526004810191909152336024820152604401602060405180830381865afa158015610dbd573d6000803e3d6000fd5b505050506040513d601f19601f82011682018060405250810190610de19190611317565b145b15610e015760405163422656d160e01b815260040160405180910390fd5b565b6001600160a01b038216610e2a576040516389a4ea1960e01b815260040160405180910390fd5b8060026000828254610e3c9190611330565b90915550506001600160a01b03821660009081526020819052604081208054839290610e69908490611330565b90915550506040518181526001600160a01b038316906000907fddf252ad1be2c89b69c2b068fc378daa952ba7f163c4a11628f55a4df523b3ef9060200160405180910390a35050565b6001600160a01b038216610eda5760405163a30d2d8760e01b815260040160405180910390fd5b6001600160a01b038216600090815260208190526040812080548381039091556002805491928492610f0d908490611358565b90915550506040518281526000906001600160a01b038516907fddf252ad1be2c89b69c2b068fc378daa952ba7f163c4a11628f55a4df523b3ef90602001610ae5565b610f5b823383610f65565b6106088282610eb3565b6001600160a01b038381166000908152600160209081526040808320938616835292905220546000198114610fc25781811015610fb55760405163013d476760e61b815260040160405180910390fd5b610fc28484848403610a42565b50505050565b60005b83811015610fe3578181015183820152602001610fcb565b50506000910152565b602081526000825180602084015261100b816040850160208701610fc8565b601f01601f19169190910160400192915050565b6001600160a01b038116811461061657600080fd5b6000806040838503121561104757600080fd5b82356110528161101f565b946020939093013593505050565b60008060006060848603121561107557600080fd5b83356110808161101f565b925060208401356110908161101f565b929592945050506040919091013590565b6000602082840312156110b357600080fd5b5035919050565b634e487b7160e01b600052604160045260246000fd5b6000602082840312156110e257600080fd5b813567ffffffffffffffff8111156110f957600080fd5b8201601f8101841361110a57600080fd5b803567ffffffffffffffff811115611124576111246110ba565b604051601f8201601f19908116603f0116810167ffffffffffffffff81118282101715611153576111536110ba565b60405281815282820160200186101561116b57600080fd5b81602084016020830137600091810160200191909152949350505050565b60006020828403121561119b57600080fd5b813561057d8161101f565b600080604083850312156111b957600080fd5b82356111c48161101f565b915060208301356111d48161101f565b809150509250929050565b7f50726f737065726974792040000000000000000000000000000000000000000081526000825161121781600c850160208701610fc8565b91909101600c0192915050565b60006020828403121561123657600080fd5b815161057d8161101f565b634e487b7160e01b600052601160045260246000fd5b8082018082111561047e5761047e611241565b640141494c8160de1b81526000825161128a816005850160208701610fc8565b9190910160050192915050565b6000600182016112a9576112a9611241565b5060010190565b634e487b7160e01b600052601260045260246000fd5b6000826112d5576112d56112b0565b500490565b8181038181111561047e5761047e611241565b6000826112fc576112fc6112b0565b500690565b634e487b7160e01b600052603260045260246000fd5b60006020828403121561132957600080fd5b5051919050565b808201828112600083128015821682158216171561135057611350611241565b505092915050565b818103600083128015838313168383128216171561137857611378611241565b509291505056fea2646970667358221220b26df37068dbf973a6028d942abff105d9840fa340035dd724bafe57b515062c64736f6c634300081a0033",
  "linkReferences": {},
  "deployedLinkReferences": {}
}