{
  "_format": "hh-sol-artifact-1",
  "contractName": "Distributions",
  "sourceName": "contracts/core/distributions/Distributions.sol",
  "abi": [
    {
      "inputs": [
        {
          "internalType": "address",
          "name": "worldAddress_",
          "type": "address"
        },
        {
          "internalType": "string",
          "name": "uri_",
          "type": "string"
        }
      ],
      "stateMutability": "nonpayable",
      "type": "constructor"
    },
    {
      "inputs": [],
      "name": "CannotTransferDistributionSharesToBuildingOfSameBuildingType",
      "type": "error"
    },
    {
      "inputs": [],
      "name": "OnlyWorldAssetFromSameEra",
      "type": "error"
    },
    {
      "anonymous": false,
      "inputs": [
        {
          "indexed": true,
          "internalType": "address",
          "name": "account",
          "type": "address"
        },
        {
          "indexed": true,
          "internalType": "address",
          "name": "operator",
          "type": "address"
        },
        {
          "indexed": false,
          "internalType": "bool",
          "name": "approved",
          "type": "bool"
        }
      ],
      "name": "ApprovalForAll",
      "type": "event"
    },
    {
      "anonymous": false,
      "inputs": [
        {
          "indexed": true,
          "internalType": "address",
          "name": "previousOwner",
          "type": "address"
        },
        {
          "indexed": true,
          "internalType": "address",
          "name": "newOwner",
          "type": "address"
        }
      ],
      "name": "OwnershipTransferred",
      "type": "event"
    },
    {
      "anonymous": false,
      "inputs": [
        {
          "indexed": true,
          "internalType": "address",
          "name": "operator",
          "type": "address"
        },
        {
          "indexed": true,
          "internalType": "address",
          "name": "from",
          "type": "address"
        },
        {
          "indexed": true,
          "internalType": "address",
          "name": "to",
          "type": "address"
        },
        {
          "indexed": false,
          "internalType": "uint256[]",
          "name": "ids",
          "type": "uint256[]"
        },
        {
          "indexed": false,
          "internalType": "uint256[]",
          "name": "values",
          "type": "uint256[]"
        }
      ],
      "name": "TransferBatch",
      "type": "event"
    },
    {
      "anonymous": false,
      "inputs": [
        {
          "indexed": true,
          "internalType": "address",
          "name": "operator",
          "type": "address"
        },
        {
          "indexed": true,
          "internalType": "address",
          "name": "from",
          "type": "address"
        },
        {
          "indexed": true,
          "internalType": "address",
          "name": "to",
          "type": "address"
        },
        {
          "indexed": false,
          "internalType": "uint256",
          "name": "id",
          "type": "uint256"
        },
        {
          "indexed": false,
          "internalType": "uint256",
          "name": "value",
          "type": "uint256"
        }
      ],
      "name": "TransferSingle",
      "type": "event"
    },
    {
      "anonymous": false,
      "inputs": [
        {
          "indexed": false,
          "internalType": "string",
          "name": "value",
          "type": "string"
        },
        {
          "indexed": true,
          "internalType": "uint256",
          "name": "id",
          "type": "uint256"
        }
      ],
      "name": "URI",
      "type": "event"
    },
    {
      "inputs": [
        {
          "internalType": "address",
          "name": "account",
          "type": "address"
        },
        {
          "internalType": "uint256",
          "name": "id",
          "type": "uint256"
        }
      ],
      "name": "balanceOf",
      "outputs": [
        {
          "internalType": "uint256",
          "name": "",
          "type": "uint256"
        }
      ],
      "stateMutability": "view",
      "type": "function"
    },
    {
      "inputs": [
        {
          "internalType": "address[]",
          "name": "accounts",
          "type": "address[]"
        },
        {
          "internalType": "uint256[]",
          "name": "ids",
          "type": "uint256[]"
        }
      ],
      "name": "balanceOfBatch",
      "outputs": [
        {
          "internalType": "uint256[]",
          "name": "",
          "type": "uint256[]"
        }
      ],
      "stateMutability": "view",
      "type": "function"
    },
    {
      "inputs": [
        {
          "internalType": "uint256",
          "name": "",
          "type": "uint256"
        }
      ],
      "name": "distributionIdToBuildingAddress",
      "outputs": [
        {
          "internalType": "address",
          "name": "",
          "type": "address"
        }
      ],
      "stateMutability": "view",
      "type": "function"
    },
    {
      "inputs": [
        {
          "internalType": "uint256",
          "name": "distributionId",
          "type": "uint256"
        }
      ],
      "name": "getDistributionReceivers",
      "outputs": [
        {
          "internalType": "address[]",
          "name": "",
          "type": "address[]"
        }
      ],
      "stateMutability": "view",
      "type": "function"
    },
    {
      "inputs": [],
      "name": "getItemsPerNft",
      "outputs": [
        {
          "internalType": "uint256",
          "name": "",
          "type": "uint256"
        }
      ],
      "stateMutability": "pure",
      "type": "function"
    },
    {
      "inputs": [
        {
          "internalType": "address",
          "name": "account",
          "type": "address"
        },
        {
          "internalType": "address",
          "name": "operator",
          "type": "address"
        }
      ],
      "name": "isApprovedForAll",
      "outputs": [
        {
          "internalType": "bool",
          "name": "",
          "type": "bool"
        }
      ],
      "stateMutability": "view",
      "type": "function"
    },
    {
      "inputs": [],
      "name": "lastDistributionId",
      "outputs": [
        {
          "internalType": "uint256",
          "name": "",
          "type": "uint256"
        }
      ],
      "stateMutability": "view",
      "type": "function"
    },
    {
      "inputs": [
        {
          "internalType": "address",
          "name": "to",
          "type": "address"
        }
      ],
      "name": "mint",
      "outputs": [
        {
          "internalType": "uint256",
          "name": "",
          "type": "uint256"
        }
      ],
      "stateMutability": "nonpayable",
      "type": "function"
    },
    {
      "inputs": [],
      "name": "owner",
      "outputs": [
        {
          "internalType": "address",
          "name": "",
          "type": "address"
        }
      ],
      "stateMutability": "view",
      "type": "function"
    },
    {
      "inputs": [],
      "name": "renounceOwnership",
      "outputs": [],
      "stateMutability": "nonpayable",
      "type": "function"
    },
    {
      "inputs": [
        {
          "internalType": "address",
          "name": "from",
          "type": "address"
        },
        {
          "internalType": "address",
          "name": "to",
          "type": "address"
        },
        {
          "internalType": "uint256[]",
          "name": "ids",
          "type": "uint256[]"
        },
        {
          "internalType": "uint256[]",
          "name": "amounts",
          "type": "uint256[]"
        },
        {
          "internalType": "bytes",
          "name": "data",
          "type": "bytes"
        }
      ],
      "name": "safeBatchTransferFrom",
      "outputs": [],
      "stateMutability": "nonpayable",
      "type": "function"
    },
    {
      "inputs": [
        {
          "internalType": "address",
          "name": "from",
          "type": "address"
        },
        {
          "internalType": "address",
          "name": "to",
          "type": "address"
        },
        {
          "internalType": "uint256",
          "name": "id",
          "type": "uint256"
        },
        {
          "internalType": "uint256",
          "name": "amount",
          "type": "uint256"
        },
        {
          "internalType": "bytes",
          "name": "data",
          "type": "bytes"
        }
      ],
      "name": "safeTransferFrom",
      "outputs": [],
      "stateMutability": "nonpayable",
      "type": "function"
    },
    {
      "inputs": [
        {
          "internalType": "address",
          "name": "operator",
          "type": "address"
        },
        {
          "internalType": "bool",
          "name": "approved",
          "type": "bool"
        }
      ],
      "name": "setApprovalForAll",
      "outputs": [],
      "stateMutability": "nonpayable",
      "type": "function"
    },
    {
      "inputs": [
        {
          "internalType": "bytes4",
          "name": "interfaceId",
          "type": "bytes4"
        }
      ],
      "name": "supportsInterface",
      "outputs": [
        {
          "internalType": "bool",
          "name": "",
          "type": "bool"
        }
      ],
      "stateMutability": "view",
      "type": "function"
    },
    {
      "inputs": [
        {
          "internalType": "address",
          "name": "newOwner",
          "type": "address"
        }
      ],
      "name": "transferOwnership",
      "outputs": [],
      "stateMutability": "nonpayable",
      "type": "function"
    },
    {
      "inputs": [
        {
          "internalType": "string",
          "name": "_newUri",
          "type": "string"
        }
      ],
      "name": "updateURI",
      "outputs": [],
      "stateMutability": "nonpayable",
      "type": "function"
    },
    {
      "inputs": [
        {
          "internalType": "uint256",
          "name": "",
          "type": "uint256"
        }
      ],
      "name": "uri",
      "outputs": [
        {
          "internalType": "string",
          "name": "",
          "type": "string"
        }
      ],
      "stateMutability": "view",
      "type": "function"
    },
    {
      "inputs": [],
      "name": "world",
      "outputs": [
        {
          "internalType": "contract IWorld",
          "name": "",
          "type": "address"
        }
      ],
      "stateMutability": "view",
      "type": "function"
    }
  ],
  "bytecode": "0x608060405234801561001057600080fd5b5060405161262238038061262283398101604081905261002f916100e1565b8061003981610069565b5061004333610079565b50600580546001600160a01b0319166001600160a01b0392909216919091179055610314565b60026100758282610256565b5050565b600380546001600160a01b038381166001600160a01b0319831681179093556040519116919082907f8be0079c531659141344cd1fd0a4f28419497f9722a3daafe3b4186f6b6457e090600090a35050565b634e487b7160e01b600052604160045260246000fd5b600080604083850312156100f457600080fd5b82516001600160a01b038116811461010b57600080fd5b60208401519092506001600160401b0381111561012757600080fd5b8301601f8101851361013857600080fd5b80516001600160401b03811115610151576101516100cb565b604051601f8201601f19908116603f011681016001600160401b038111828210171561017f5761017f6100cb565b60405281815282820160200187101561019757600080fd5b60005b828110156101b65760208185018101518383018201520161019a565b506000602083830101528093505050509250929050565b600181811c908216806101e157607f821691505b60208210810361020157634e487b7160e01b600052602260045260246000fd5b50919050565b601f82111561025157806000526020600020601f840160051c8101602085101561022e5750805b601f840160051c820191505b8181101561024e576000815560010161023a565b50505b505050565b81516001600160401b0381111561026f5761026f6100cb565b6102838161027d84546101cd565b84610207565b6020601f8211600181146102b7576000831561029f5750848201515b600019600385901b1c1916600184901b17845561024e565b600084815260208120601f198516915b828110156102e757878501518255602094850194600190920191016102c7565b50848210156103055786840151600019600387901b60f8161c191681555b50505050600190811b01905550565b6122ff806103236000396000f3fe608060405234801561001057600080fd5b50600436106101355760003560e01c8063715018a6116100b2578063c30f4a5a11610081578063e985e9c511610066578063e985e9c5146102ae578063f242432a146102ea578063f2fde38b146102fd57600080fd5b8063c30f4a5a14610272578063c99f4f891461028557600080fd5b8063715018a61461023d5780637ba41d34146102455780638da5cb5b1461024e578063a22cb4651461025f57600080fd5b80632eb2c2d6116101095780634e1273f4116100ee5780634e1273f4146101ea57806361a5d38c1461020a5780636a6278421461022a57600080fd5b80632eb2c2d6146101aa57806330b67baa146101bf57600080fd5b8062fdd58e1461013a57806301ffc9a71461016057806302705c2e146101835780630e89341c1461018a575b600080fd5b61014d6101483660046119ed565b610310565b6040519081526020015b60405180910390f35b61017361016e366004611a2d565b6103bc565b6040519015158152602001610157565b606461014d565b61019d610198366004611a4a565b61040c565b6040516101579190611aa9565b6101bd6101b8366004611c1a565b6104a0565b005b6005546101d2906001600160a01b031681565b6040516001600160a01b039091168152602001610157565b6101fd6101f8366004611cd0565b610534565b6040516101579190611de1565b61021d610218366004611a4a565b61066a565b6040516101579190611df4565b61014d610238366004611e40565b610684565b6101bd6106f5565b61014d60075481565b6003546001600160a01b03166101d2565b6101bd61026d366004611e5b565b610709565b6101bd610280366004611e97565b610718565b6101d2610293366004611a4a565b6006602052600090815260409020546001600160a01b031681565b6101736102bc366004611ee8565b6001600160a01b03918216600090815260016020908152604080832093909416825291909152205460ff1690565b6101bd6102f8366004611f1b565b61072c565b6101bd61030b366004611e40565b6107b9565b60006001600160a01b0383166103935760405162461bcd60e51b815260206004820152602a60248201527f455243313135353a2061646472657373207a65726f206973206e6f742061207660448201527f616c6964206f776e65720000000000000000000000000000000000000000000060648201526084015b60405180910390fd5b506000818152602081815260408083206001600160a01b03861684529091529020545b92915050565b60006001600160e01b03198216636cdb3d1360e11b14806103ed57506001600160e01b031982166303a24d0760e21b145b806103b657506301ffc9a760e01b6001600160e01b03198316146103b6565b60606002805461041b90611f74565b80601f016020809104026020016040519081016040528092919081815260200182805461044790611f74565b80156104945780601f1061046957610100808354040283529160200191610494565b820191906000526020600020905b81548152906001019060200180831161047757829003601f168201915b50505050509050919050565b6001600160a01b0385163314806104bc57506104bc85336102bc565b6105205760405162461bcd60e51b815260206004820152602f60248201527f455243313135353a2063616c6c6572206973206e6f7420746f6b656e206f776e60448201526e195c881b9bdc88185c1c1c9bdd9959608a1b606482015260840161038a565b61052d858585858561082f565b5050505050565b606081518351146105ad5760405162461bcd60e51b815260206004820152602960248201527f455243313135353a206163636f756e747320616e6420696473206c656e67746860448201527f206d69736d617463680000000000000000000000000000000000000000000000606482015260840161038a565b6000835167ffffffffffffffff8111156105c9576105c9611abc565b6040519080825280602002602001820160405280156105f2578160200160208202803683370190505b50905060005b84518110156106625761063d85828151811061061657610616611fae565b602002602001015185838151811061063057610630611fae565b6020026020010151610310565b82828151811061064f5761064f611fae565b60209081029190910101526001016105f8565b509392505050565b60008181526004602052604090206060906103b690610ab7565b600061068e610acb565b6000600754600161069f9190611fda565b90506106bd8382606460405180602001604052806000815250610bc6565b60078190556000818152600660205260409020805473ffffffffffffffffffffffffffffffffffffffff19163317905590505b919050565b6106fd610cf8565b6107076000610d52565b565b610714338383610db1565b5050565b610720610cf8565b61072981610ea5565b50565b6001600160a01b038516331480610748575061074885336102bc565b6107ac5760405162461bcd60e51b815260206004820152602f60248201527f455243313135353a2063616c6c6572206973206e6f7420746f6b656e206f776e60448201526e195c881b9bdc88185c1c1c9bdd9959608a1b606482015260840161038a565b61052d8585858585610eb1565b6107c1610cf8565b6001600160a01b0381166108265760405162461bcd60e51b815260206004820152602660248201527f4f776e61626c653a206e6577206f776e657220697320746865207a65726f206160448201526564647265737360d01b606482015260840161038a565b61072981610d52565b81518351146108a65760405162461bcd60e51b815260206004820152602860248201527f455243313135353a2069647320616e6420616d6f756e7473206c656e6774682060448201527f6d69736d61746368000000000000000000000000000000000000000000000000606482015260840161038a565b6001600160a01b03841661090a5760405162461bcd60e51b815260206004820152602560248201527f455243313135353a207472616e7366657220746f20746865207a65726f206164604482015264647265737360d81b606482015260840161038a565b33610919818787878787611078565b60005b8451811015610a3b57600085828151811061093957610939611fae565b60200260200101519050600085838151811061095757610957611fae565b602090810291909101810151600084815280835260408082206001600160a01b038e1683529093529190912054909150818110156109ea5760405162461bcd60e51b815260206004820152602a60248201527f455243313135353a20696e73756666696369656e742062616c616e636520666f60448201526939103a3930b739b332b960b11b606482015260840161038a565b6000838152602081815260408083206001600160a01b038e8116855292528083208585039055908b16825281208054849290610a27908490611fda565b90915550506001909301925061091c915050565b50846001600160a01b0316866001600160a01b0316826001600160a01b03167f4a39dc06d4c0dbc64b70af90fd698a233a518aa5d07e595d983b8c0526c8f7fb8787604051610a8b929190611fed565b60405180910390a4610aa18187878787876113b1565b610aaf818787878787611523565b505050505050565b60606000610ac4836116c8565b9392505050565b6000336001600160a01b0316637d884c746040518163ffffffff1660e01b8152600401602060405180830381865afa158015610b0b573d6000803e3d6000fd5b505050506040513d601f19601f82011682018060405250810190610b2f919061201b565b600554604051633aefa00d60e21b8152600481018390523360248201529192506000916001600160a01b039091169063ebbe803490604401602060405180830381865afa158015610b84573d6000803e3d6000fd5b505050506040513d601f19601f82011682018060405250810190610ba8919061201b565b036107295760405163422656d160e01b815260040160405180910390fd5b6001600160a01b038416610c265760405162461bcd60e51b815260206004820152602160248201527f455243313135353a206d696e7420746f20746865207a65726f206164647265736044820152607360f81b606482015260840161038a565b336000610c3285611723565b90506000610c3f85611723565b9050610c5083600089858589611078565b6000868152602081815260408083206001600160a01b038b16845290915281208054879290610c80908490611fda565b909155505060408051878152602081018790526001600160a01b03808a1692600092918716917fc3d58168c5ae7397731d063d5bbf3d657854427343f4c083240f7aacaa2d0f62910160405180910390a4610ce0836000898585896113b1565b610cef8360008989898961176e565b50505050505050565b6003546001600160a01b031633146107075760405162461bcd60e51b815260206004820181905260248201527f4f776e61626c653a2063616c6c6572206973206e6f7420746865206f776e6572604482015260640161038a565b600380546001600160a01b0383811673ffffffffffffffffffffffffffffffffffffffff19831681179093556040519116919082907f8be0079c531659141344cd1fd0a4f28419497f9722a3daafe3b4186f6b6457e090600090a35050565b816001600160a01b0316836001600160a01b031603610e385760405162461bcd60e51b815260206004820152602960248201527f455243313135353a2073657474696e6720617070726f76616c2073746174757360448201527f20666f722073656c660000000000000000000000000000000000000000000000606482015260840161038a565b6001600160a01b03838116600081815260016020908152604080832094871680845294825291829020805460ff191686151590811790915591519182527f17307eab39ab6107e8899845ad3d59bd9653f200f220920489ca2b5937696c31910160405180910390a3505050565b60026107148282612080565b6001600160a01b038416610f155760405162461bcd60e51b815260206004820152602560248201527f455243313135353a207472616e7366657220746f20746865207a65726f206164604482015264647265737360d81b606482015260840161038a565b336000610f2185611723565b90506000610f2e85611723565b9050610f3e838989858589611078565b6000868152602081815260408083206001600160a01b038c16845290915290205485811015610fc25760405162461bcd60e51b815260206004820152602a60248201527f455243313135353a20696e73756666696369656e742062616c616e636520666f60448201526939103a3930b739b332b960b11b606482015260840161038a565b6000878152602081815260408083206001600160a01b038d8116855292528083208985039055908a16825281208054889290610fff908490611fda565b909155505060408051888152602081018890526001600160a01b03808b16928c821692918816917fc3d58168c5ae7397731d063d5bbf3d657854427343f4c083240f7aacaa2d0f62910160405180910390a461105f848a8a86868a6113b1565b61106d848a8a8a8a8a61176e565b505050505050505050565b60005b8351811015610cef5760006006600086848151811061109c5761109c611fae565b6020908102919091018101518252810191909152604001600020546001600160a01b03169050806110cd57506113a9565b60008190506000826001600160a01b0316637d884c746040518163ffffffff1660e01b8152600401602060405180830381865afa158015611112573d6000803e3d6000fd5b505050506040513d601f19601f82011682018060405250810190611136919061201b565b604080518082018252600881527f6275696c64696e670000000000000000000000000000000000000000000000006020909101526005549051633aefa00d60e21b8152600481018390526001600160a01b038b811660248301529293507f010b6fd4eff8a0ca8c7925f2d29e6173e90462d56ae99e39fa817c79f4028518929091169063ebbe803490604401602060405180830381865afa1580156111df573d6000803e3d6000fd5b505050506040513d601f19601f82011682018060405250810190611203919061201b565b1480156112d15750816001600160a01b031663e05ab4986040518163ffffffff1660e01b8152600401602060405180830381865afa158015611249573d6000803e3d6000fd5b505050506040513d601f19601f8201168201806040525081019061126d919061201b565b886001600160a01b031663e05ab4986040518163ffffffff1660e01b8152600401602060405180830381865afa1580156112ab573d6000803e3d6000fd5b505050506040513d601f19601f820116820180604052508101906112cf919061201b565b145b156112ef5760405163cbb2164760e01b815260040160405180910390fd5b604051631ede8aff60e21b81526001600160a01b038a81166004830152831690637b7a2bfc90602401600060405180830381600087803b15801561133257600080fd5b505af1158015611346573d6000803e3d6000fd5b5050604051631ede8aff60e21b81526001600160a01b038b8116600483015285169250637b7a2bfc9150602401600060405180830381600087803b15801561138d57600080fd5b505af11580156113a1573d6000803e3d6000fd5b505050505050505b60010161107b565b60005b8351811015610cef576000600460008684815181106113d5576113d5611fae565b60200260200101518152602001908152602001600020905060006001600160a01b0316876001600160a01b03161415801561142357506114218786848151811061063057610630611fae565b155b1561143457611432818861186a565b505b61143e818761187f565b5060006006600087858151811061145757611457611fae565b6020908102919091018101518252810191909152604001600020546001600160a01b03169050801561151957806001600160a01b031663152d948389898887815181106114a6576114a6611fae565b60209081029190910101516040516001600160e01b031960e086901b1681526001600160a01b0393841660048201529290911660248301526044820152606401600060405180830381600087803b15801561150057600080fd5b505af1158015611514573d6000803e3d6000fd5b505050505b50506001016113b4565b6001600160a01b0384163b15610aaf5760405163bc197c8160e01b81526001600160a01b0385169063bc197c8190611567908990899088908890889060040161213f565b6020604051808303816000875af19250505080156115a2575060408051601f3d908101601f1916820190925261159f918101906121a2565b60015b611657576115ae6121bf565b806308c379a0036115e757506115c26121db565b806115cd57506115e9565b8060405162461bcd60e51b815260040161038a9190611aa9565b505b60405162461bcd60e51b815260206004820152603460248201527f455243313135353a207472616e7366657220746f206e6f6e204552433131353560448201527f526563656976657220696d706c656d656e746572000000000000000000000000606482015260840161038a565b6001600160e01b0319811663bc197c8160e01b14610cef5760405162461bcd60e51b815260206004820152602860248201527f455243313135353a204552433131353552656365697665722072656a656374656044820152676420746f6b656e7360c01b606482015260840161038a565b60608160000180548060200260200160405190810160405280929190818152602001828054801561049457602002820191906000526020600020905b8154815260200190600101908083116117045750505050509050919050565b6040805160018082528183019092526060916000919060208083019080368337019050509050828160008151811061175d5761175d611fae565b602090810291909101015292915050565b6001600160a01b0384163b15610aaf5760405163f23a6e6160e01b81526001600160a01b0385169063f23a6e61906117b29089908990889088908890600401612258565b6020604051808303816000875af19250505080156117ed575060408051601f3d908101601f191682019092526117ea918101906121a2565b60015b6117f9576115ae6121bf565b6001600160e01b0319811663f23a6e6160e01b14610cef5760405162461bcd60e51b815260206004820152602860248201527f455243313135353a204552433131353552656365697665722072656a656374656044820152676420746f6b656e7360c01b606482015260840161038a565b6000610ac4836001600160a01b038416611894565b6000610ac4836001600160a01b038416611987565b6000818152600183016020526040812054801561197d5760006118b86001836122a0565b85549091506000906118cc906001906122a0565b90508181146119315760008660000182815481106118ec576118ec611fae565b906000526020600020015490508087600001848154811061190f5761190f611fae565b6000918252602080832090910192909255918252600188019052604090208390555b8554869080611942576119426122b3565b6001900381819060005260206000200160009055905585600101600086815260200190815260200160002060009055600193505050506103b6565b60009150506103b6565b60008181526001830160205260408120546119ce575081546001818101845560008481526020808220909301849055845484825282860190935260409020919091556103b6565b5060006103b6565b80356001600160a01b03811681146106f057600080fd5b60008060408385031215611a0057600080fd5b611a09836119d6565b946020939093013593505050565b6001600160e01b03198116811461072957600080fd5b600060208284031215611a3f57600080fd5b8135610ac481611a17565b600060208284031215611a5c57600080fd5b5035919050565b6000815180845260005b81811015611a8957602081850181015186830182015201611a6d565b506000602082860101526020601f19601f83011685010191505092915050565b602081526000610ac46020830184611a63565b634e487b7160e01b600052604160045260246000fd5b601f8201601f1916810167ffffffffffffffff81118282101715611af857611af8611abc565b6040525050565b600067ffffffffffffffff821115611b1957611b19611abc565b5060051b60200190565b600082601f830112611b3457600080fd5b8135611b3f81611aff565b604051611b4c8282611ad2565b80915082815260208101915060208360051b860101925085831115611b7057600080fd5b602085015b83811015611b8d578035835260209283019201611b75565b5095945050505050565b60008067ffffffffffffffff841115611bb257611bb2611abc565b50604051601f8401601f191660200190611bcc8282611ad2565b809250848152858585011115611be157600080fd5b8484602083013760006020868301015250509392505050565b600082601f830112611c0b57600080fd5b610ac483833560208501611b97565b600080600080600060a08688031215611c3257600080fd5b611c3b866119d6565b9450611c49602087016119d6565b9350604086013567ffffffffffffffff811115611c6557600080fd5b611c7188828901611b23565b935050606086013567ffffffffffffffff811115611c8e57600080fd5b611c9a88828901611b23565b925050608086013567ffffffffffffffff811115611cb757600080fd5b611cc388828901611bfa565b9150509295509295909350565b60008060408385031215611ce357600080fd5b823567ffffffffffffffff811115611cfa57600080fd5b8301601f81018513611d0b57600080fd5b8035611d1681611aff565b604051611d238282611ad2565b80915082815260208101915060208360051b850101925087831115611d4757600080fd5b6020840193505b82841015611d7057611d5f846119d6565b825260209384019390910190611d4e565b9450505050602083013567ffffffffffffffff811115611d8f57600080fd5b611d9b85828601611b23565b9150509250929050565b600081518084526020840193506020830160005b82811015611dd7578151865260209586019590910190600101611db9565b5093949350505050565b602081526000610ac46020830184611da5565b602080825282518282018190526000918401906040840190835b81811015611e355783516001600160a01b0316835260209384019390920191600101611e0e565b509095945050505050565b600060208284031215611e5257600080fd5b610ac4826119d6565b60008060408385031215611e6e57600080fd5b611e77836119d6565b915060208301358015158114611e8c57600080fd5b809150509250929050565b600060208284031215611ea957600080fd5b813567ffffffffffffffff811115611ec057600080fd5b8201601f81018413611ed157600080fd5b611ee084823560208401611b97565b949350505050565b60008060408385031215611efb57600080fd5b611f04836119d6565b9150611f12602084016119d6565b90509250929050565b600080600080600060a08688031215611f3357600080fd5b611f3c866119d6565b9450611f4a602087016119d6565b93506040860135925060608601359150608086013567ffffffffffffffff811115611cb757600080fd5b600181811c90821680611f8857607f821691505b602082108103611fa857634e487b7160e01b600052602260045260246000fd5b50919050565b634e487b7160e01b600052603260045260246000fd5b634e487b7160e01b600052601160045260246000fd5b808201808211156103b6576103b6611fc4565b6040815260006120006040830185611da5565b82810360208401526120128185611da5565b95945050505050565b60006020828403121561202d57600080fd5b5051919050565b601f82111561207b57806000526020600020601f840160051c8101602085101561205b5750805b601f840160051c820191505b8181101561052d5760008155600101612067565b505050565b815167ffffffffffffffff81111561209a5761209a611abc565b6120ae816120a88454611f74565b84612034565b6020601f8211600181146120e257600083156120ca5750848201515b600019600385901b1c1916600184901b17845561052d565b600084815260208120601f198516915b8281101561211257878501518255602094850194600190920191016120f2565b50848210156121305786840151600019600387901b60f8161c191681555b50505050600190811b01905550565b6001600160a01b03861681526001600160a01b038516602082015260a06040820152600061217060a0830186611da5565b82810360608401526121828186611da5565b905082810360808401526121968185611a63565b98975050505050505050565b6000602082840312156121b457600080fd5b8151610ac481611a17565b600060033d11156121d85760046000803e5060005160e01c5b90565b600060443d10156121e95790565b6040513d600319016004823e80513d602482011167ffffffffffffffff8211171561221357505090565b808201805167ffffffffffffffff81111561222f575050505090565b3d8401600319018282016020011115612249575050505090565b61066260208285010185611ad2565b6001600160a01b03861681526001600160a01b038516602082015283604082015282606082015260a06080820152600061229560a0830184611a63565b979650505050505050565b818103818111156103b6576103b6611fc4565b634e487b7160e01b600052603160045260246000fdfea2646970667358221220cf75bf6c4464ff6409fda2c40e9a57537c5c4593cc0e33af65b2bbaca1bff24b64736f6c634300081a0033",
  "linkReferences": {},
  "deployedLinkReferences": {}
}