{
  "_format": "hh-sol-artifact-1",
  "contractName": "IngotsUnitsPool",
  "sourceName": "contracts/core/assets/unitsPool/IngotsUnitsPool.sol",
  "abi": [
    {
      "inputs": [],
      "name": "CannotHireUnitsDueToTheirCostIsHigherThanMaxTokensToSellSpecified",
      "type": "error"
    },
    {
      "inputs": [],
      "name": "CannotHireUnitsExceedingArmyUnitsLimit",
      "type": "error"
    },
    {
      "inputs": [],
      "name": "CannotHireUnitsExceedingTransactionLimit",
      "type": "error"
    },
    {
      "inputs": [],
      "name": "CannotHireUnitsForArmyWhichSettlementDoesNotBelongToRelatedRegion",
      "type": "error"
    },
    {
      "inputs": [],
      "name": "CannotHireUnitsInvalidUnitsToBuySpecified",
      "type": "error"
    },
    {
      "inputs": [],
      "name": "CannotHireUnitsWhileArmyIsManeuvering",
      "type": "error"
    },
    {
      "inputs": [],
      "name": "CannotHireUnitsWhileArmyIsNotOnHomePosition",
      "type": "error"
    },
    {
      "inputs": [],
      "name": "CannotHireUnitsWhileArmyIsStunned",
      "type": "error"
    },
    {
      "inputs": [],
      "name": "OnlyActiveGame",
      "type": "error"
    },
    {
      "inputs": [],
      "name": "OnlyMightyCreator",
      "type": "error"
    },
    {
      "inputs": [],
      "name": "OnlyRelatedRegion",
      "type": "error"
    },
    {
      "inputs": [],
      "name": "OnlyRulerOrWorldAsset",
      "type": "error"
    },
    {
      "inputs": [],
      "name": "OnlyWorldAssetFromSameEra",
      "type": "error"
    },
    {
      "inputs": [],
      "name": "UnknownInputParameter",
      "type": "error"
    },
    {
      "anonymous": false,
      "inputs": [
        {
          "indexed": false,
          "internalType": "uint8",
          "name": "version",
          "type": "uint8"
        }
      ],
      "name": "Initialized",
      "type": "event"
    },
    {
      "anonymous": false,
      "inputs": [
        {
          "indexed": false,
          "internalType": "address",
          "name": "spender",
          "type": "address"
        },
        {
          "indexed": false,
          "internalType": "address",
          "name": "armyAddress",
          "type": "address"
        },
        {
          "indexed": false,
          "internalType": "uint256",
          "name": "boughtUnitsAmount",
          "type": "uint256"
        },
        {
          "indexed": false,
          "internalType": "uint256",
          "name": "spentTokensAmount",
          "type": "uint256"
        },
        {
          "indexed": false,
          "internalType": "uint256",
          "name": "newUnitPrice",
          "type": "uint256"
        }
      ],
      "name": "UnitsBought",
      "type": "event"
    },
    {
      "inputs": [],
      "name": "assetGroupId",
      "outputs": [
        {
          "internalType": "bytes32",
          "name": "",
          "type": "bytes32"
        }
      ],
      "stateMutability": "view",
      "type": "function"
    },
    {
      "inputs": [],
      "name": "assetTypeId",
      "outputs": [
        {
          "internalType": "bytes32",
          "name": "",
          "type": "bytes32"
        }
      ],
      "stateMutability": "view",
      "type": "function"
    },
    {
      "inputs": [
        {
          "internalType": "uint256",
          "name": "unitsToBuy",
          "type": "uint256"
        }
      ],
      "name": "calculateTokensForExactUnits",
      "outputs": [
        {
          "internalType": "uint256",
          "name": "",
          "type": "uint256"
        },
        {
          "internalType": "uint256",
          "name": "",
          "type": "uint256"
        }
      ],
      "stateMutability": "view",
      "type": "function"
    },
    {
      "inputs": [],
      "name": "era",
      "outputs": [
        {
          "internalType": "contract IEra",
          "name": "",
          "type": "address"
        }
      ],
      "stateMutability": "view",
      "type": "function"
    },
    {
      "inputs": [],
      "name": "eraNumber",
      "outputs": [
        {
          "internalType": "uint256",
          "name": "",
          "type": "uint256"
        }
      ],
      "stateMutability": "view",
      "type": "function"
    },
    {
      "inputs": [
        {
          "internalType": "bytes",
          "name": "initParams",
          "type": "bytes"
        }
      ],
      "name": "init",
      "outputs": [],
      "stateMutability": "nonpayable",
      "type": "function"
    },
    {
      "inputs": [],
      "name": "lastPurchaseTime",
      "outputs": [
        {
          "internalType": "uint256",
          "name": "",
          "type": "uint256"
        }
      ],
      "stateMutability": "view",
      "type": "function"
    },
    {
      "inputs": [],
      "name": "registry",
      "outputs": [
        {
          "internalType": "contract IRegistry",
          "name": "",
          "type": "address"
        }
      ],
      "stateMutability": "view",
      "type": "function"
    },
    {
      "inputs": [],
      "name": "relatedRegion",
      "outputs": [
        {
          "internalType": "contract IRegion",
          "name": "",
          "type": "address"
        }
      ],
      "stateMutability": "view",
      "type": "function"
    },
    {
      "inputs": [
        {
          "internalType": "address",
          "name": "tokensOwner",
          "type": "address"
        },
        {
          "internalType": "address",
          "name": "settlementAddress",
          "type": "address"
        },
        {
          "internalType": "uint256",
          "name": "unitsToBuy",
          "type": "uint256"
        },
        {
          "internalType": "uint256",
          "name": "maxTokensToSell",
          "type": "uint256"
        }
      ],
      "name": "swapTokensForExactUnits",
      "outputs": [
        {
          "internalType": "uint256",
          "name": "",
          "type": "uint256"
        }
      ],
      "stateMutability": "nonpayable",
      "type": "function"
    },
    {
      "inputs": [
        {
          "internalType": "address",
          "name": "tokensOwner",
          "type": "address"
        },
        {
          "internalType": "address",
          "name": "msgSender",
          "type": "address"
        },
        {
          "internalType": "address",
          "name": "settlementAddress",
          "type": "address"
        },
        {
          "internalType": "uint256",
          "name": "unitsToBuy",
          "type": "uint256"
        },
        {
          "internalType": "uint256",
          "name": "maxTokensToSell",
          "type": "uint256"
        }
      ],
      "name": "swapTokensForExactUnitsByRegion",
      "outputs": [
        {
          "internalType": "uint256",
          "name": "",
          "type": "uint256"
        }
      ],
      "stateMutability": "nonpayable",
      "type": "function"
    },
    {
      "inputs": [],
      "name": "unitPrice",
      "outputs": [
        {
          "internalType": "uint256",
          "name": "",
          "type": "uint256"
        }
      ],
      "stateMutability": "view",
      "type": "function"
    },
    {
      "inputs": [],
      "name": "unitTypeId",
      "outputs": [
        {
          "internalType": "bytes32",
          "name": "",
          "type": "bytes32"
        }
      ],
      "stateMutability": "view",
      "type": "function"
    },
    {
      "inputs": [],
      "name": "world",
      "outputs": [
        {
          "internalType": "contract IWorld",
          "name": "",
          "type": "address"
        }
      ],
      "stateMutability": "view",
      "type": "function"
    },
    {
      "inputs": [],
      "name": "worldAssetFactory",
      "outputs": [
        {
          "internalType": "contract IWorldAssetFactory",
          "name": "",
          "type": "address"
        }
      ],
      "stateMutability": "view",
      "type": "function"
    }
  ],
  "bytecode": "0x6080604052348015600f57600080fd5b506125a68061001f6000396000f3fe608060405234801561001057600080fd5b50600436106100f55760003560e01c80637d884c7411610097578063e6c15c9911610066578063e6c15c9914610210578063e73faa2d14610229578063ece56a1a14610232578063fb75b12c1461023a57600080fd5b80637d884c741461019157806384ba89e3146101b8578063a7d6911c146101df578063c14bafb11461020757600080fd5b80634ddf47d4116100d35780634ddf47d4146101585780635920c5431461016d57806377258451146101765780637b1039991461018957600080fd5b80630b4e99c3146100fa578063143e55e01461013057806330b67baa14610150575b600080fd5b7f6c85b93e587873fbe6712f3b438d42c2945689b262f7bd34b8ea4e3f832a89ea545b6040519081526020015b60405180910390f35b61013861024d565b6040516001600160a01b039091168152602001610127565b6101386102f1565b61016b610166366004612252565b610324565b005b61011d60025481565b61011d610184366004612323565b6104ad565b6101386104d6565b7f6c85b93e587873fbe6712f3b438d42c2945689b262f7bd34b8ea4e3f832a89e75461011d565b7f6c85b93e587873fbe6712f3b438d42c2945689b262f7bd34b8ea4e3f832a89e95461011d565b6101f26101ed36600461237e565b61051d565b60408051928352602083019190915201610127565b61011d60015481565b600054610138906201000090046001600160a01b031681565b61011d60035481565b610138610549565b61011d610248366004612397565b610590565b60006102576102f1565b6001600160a01b031663720a70bd61028d7f6c85b93e587873fbe6712f3b438d42c2945689b262f7bd34b8ea4e3f832a89e75490565b6040518263ffffffff1660e01b81526004016102ab91815260200190565b602060405180830381865afa1580156102c8573d6000803e3d6000fd5b505050506040513d601f19601f820116820180604052508101906102ec91906123dd565b905090565b60006102ec7f6c85b93e587873fbe6712f3b438d42c2945689b262f7bd34b8ea4e3f832a89e6546001600160a01b031690565b600054610100900460ff16158080156103445750600054600160ff909116105b8061035e5750303b15801561035e575060005460ff166001145b6103d45760405162461bcd60e51b815260206004820152602e60248201527f496e697469616c697a61626c653a20636f6e747261637420697320616c72656160448201527f647920696e697469616c697a6564000000000000000000000000000000000000606482015260840160405180910390fd5b6000805460ff1916600117905580156103f7576000805461ff0019166101001790555b6000808380602001905181019061040e91906123fa565b600080546001600160a01b0390931662010000027fffffffffffffffffffff0000000000000000000000000000000000000000ffff909316929092179091556002555050426001556801158e460913d0000060035580156104a9576000805461ff0019169055604051600181527f7f26b83ff96e1f2b6a682f133852f6798a09c465da95921460cefb38474024989060200160405180910390a15b5050565b60006104b76105b0565b6104bf6106e1565b6104cc8686868686610714565b9695505050505050565b60006104e06102f1565b6001600160a01b0316637b1039996040518163ffffffff1660e01b8152600401602060405180830381865afa1580156102c8573d6000803e3d6000fd5b6000806103ec6103e8826105318383610e46565b905061053d8682610e89565b94509450505050915091565b60006105536104d6565b6001600160a01b031663ece56a1a6040518163ffffffff1660e01b8152600401602060405180830381865afa1580156102c8573d6000803e3d6000fd5b600061059a6105b0565b6105a78533868686610714565b95945050505050565b60006105ba6102f1565b6001600160a01b0316633c8ca83d6040518163ffffffff1660e01b8152600401602060405180830381865afa1580156105f7573d6000803e3d6000fd5b505050506040513d601f19601f8201168201806040525081019061061b9190612428565b905060006106276102f1565b6001600160a01b03166344d9bc5f6040518163ffffffff1660e01b8152600401602060405180830381865afa158015610664573d6000803e3d6000fd5b505050506040513d601f19601f820116820180604052508101906106889190612428565b905081158061069657508142105b156106b45760405163a00eda6960e01b815260040160405180910390fd5b80158015906106c35750804210155b156104a95760405163a00eda6960e01b815260040160405180910390fd5b6000546201000090046001600160a01b0316331461071257604051630ca829d560e31b815260040160405180910390fd5b565b6000808490506000816001600160a01b031663f10e38af6040518163ffffffff1660e01b8152600401602060405180830381865afa15801561075a573d6000803e3d6000fd5b505050506040513d601f19601f8201168201806040525081019061077e91906123dd565b9050816001600160a01b031663aef281d36040518163ffffffff1660e01b8152600401600060405180830381600087803b1580156107bb57600080fd5b505af11580156107cf573d6000803e3d6000fd5b50505050806001600160a01b0316631d8557d76040518163ffffffff1660e01b8152600401600060405180830381600087803b15801561080e57600080fd5b505af1158015610822573d6000803e3d6000fd5b50505050806001600160a01b0316638ff54e356040518163ffffffff1660e01b8152600401602060405180830381865afa158015610864573d6000803e3d6000fd5b505050506040513d601f19601f820116820180604052508101906108889190612441565b156108a65760405163100c419560e01b815260040160405180910390fd5b806001600160a01b031663bc3b0c4b6040518163ffffffff1660e01b8152600401602060405180830381865afa1580156108e4573d6000803e3d6000fd5b505050506040513d601f19601f820116820180604052508101906109089190612441565b6109255760405163a854541160e01b815260040160405180910390fd5b841580610941575061093f85670de0b6b3a7640000610f26565b155b1561095f5760405163a700f36360e01b815260040160405180910390fd5b600060029054906101000a90046001600160a01b03166001600160a01b0316826001600160a01b031663e6c15c996040518163ffffffff1660e01b8152600401602060405180830381865afa1580156109bc573d6000803e3d6000fd5b505050506040513d601f19601f820116820180604052508101906109e091906123dd565b6001600160a01b031614610a075760405163194d6c7d60e21b815260040160405180910390fd5b610a118282610f3a565b851115610a3157604051633181b8d360e01b815260040160405180910390fd5b69010f0cf064dd59200000851115610a5c576040516302d67e2960e41b815260040160405180910390fd5b600080610a746101ed670de0b6b3a76400008961248f565b9150915085821115610a995760405163331a433f60e11b815260040160405180910390fd5b6000836001600160a01b0316638e55bdc06040518163ffffffff1660e01b81526004016040805180830381865afa158015610ad8573d6000803e3d6000fd5b505050506040513d601f19601f82011682018060405250810190610afc91906124c0565b91505067ffffffffffffffff811615610b28576040516384cc247f60e01b815260040160405180910390fd5b6000610b32610fc7565b90506001600160a01b038c16610ba95760405163079cc67960e41b81526001600160a01b038c81166004830152602482018690528216906379cc679090604401600060405180830381600087803b158015610b8c57600080fd5b505af1158015610ba0573d6000803e3d6000fd5b50505050610c76565b60405163dd8aaa4f60e01b81526001600160a01b038d811660048301528c811660248301526044820186905282169063dd8aaa4f90606401600060405180830381600087803b158015610bfb57600080fd5b505af1158015610c0f573d6000803e3d6000fd5b505060405163079cc67960e41b81526001600160a01b038f8116600483015260248201889052841692506379cc67909150604401600060405180830381600087803b158015610c5d57600080fd5b505af1158015610c71573d6000803e3d6000fd5b505050505b600054604080518082019091526005815264125391d3d560da1b6020909101526201000090046001600160a01b0316635053c2998b670de0b6b3a764000087610cde7ff4d3d98b93a17290e7883bbc86b83d603b27efc328d7873b3fc648501d83e572611039565b610ce891906124f3565b610cf2919061248f565b6040517fffffffff0000000000000000000000000000000000000000000000000000000060e085901b1681526001600160a01b0390921660048301526024820152604401600060405180830381600087803b158015610d5057600080fd5b505af1158015610d64573d6000803e3d6000fd5b50505050610d7061119c565b6040516340c10f1960e01b81526001600160a01b038781166004830152602482018c905291909116906340c10f1990604401600060405180830381600087803b158015610dbc57600080fd5b505af1158015610dd0573d6000803e3d6000fd5b50505060038490555042600155604080516001600160a01b03808e168252871660208201529081018a905260608101859052608081018490527f2cdc858ec98ef184c62b1a5ad6d7fcfd26ec15fd28a95398a046e9593bb5ce1d9060a00160405180910390a150969a9950505050505050505050565b600081600003610e5557600080fd5b6000610e6184846111d5565b905060016001607f1b036001600160801b0382161115610e8057600080fd5b90505b92915050565b6000806000610e9661134b565b90506000610ea485876114d1565b90506000610ecc610ebe83610eb96001611730565b61174e565b610ec78861178b565b6117c5565b90506000610eda8483611825565b90506000610ee88585611825565b90506000610efe83670de0b6b3a7640000611864565b90506000610f1483670de0b6b3a7640000611864565b919b919a509098505050505050505050565b6000610f32828461250a565b159392505050565b6000806000610f4885611966565b915091506000610f5785611b58565b90506000610f9c83670de0b6b3a7640000610f7a671bc16d674ec80000886124f3565b610f84919061248f565b610f8e919061248f565b670de0b6b3a7640000611c89565b9050808210610fb2576000945050505050610e83565b610fbc828261251e565b979650505050505050565b6000610fd161024d565b6040805180820182526005815264125391d3d560da1b6020909101525163912929df60e01b81527ff4d3d98b93a17290e7883bbc86b83d603b27efc328d7873b3fc648501d83e57260048201526001600160a01b03919091169063912929df906024016102ab565b6040805180820190915260048152631193d3d160e21b60209091015260007fd090a5d9e290baeb3c0f657cb8df01a7c37d0d11b8a73165ba04298bd71606c3820161108d5750670429d069189e0000919050565b60408051808201909152600481526315d3d3d160e21b6020909101527fa0c2c402a49ee67eb7d8a3e87eb93de113a3a54817e8a70c39ae8ab51c0e12be82016110df5750670de0b6b3a7640000919050565b6040805180820190915260038152624f524560e81b6020909101527f624ae31110c92d70b58ec456bb42524ff16773a98936d8ef150f1e6b104b34ab820161113057506729a2241af62c0000919050565b604080518082019091526005815264125391d3d560da1b6020909101527f0b2c26746c5e8d6f1877c4437947c29fc4d8103cd72878c4c039b7afe27c1a8e82016111835750678ac7230489e80000919050565b60405163ea3b0abb60e01b815260040160405180910390fd5b60006111a661024d565b6001600160a01b031663feae7dc36002546040518263ffffffff1660e01b81526004016102ab91815260200190565b6000816000036111e457600080fd5b600077ffffffffffffffffffffffffffffffffffffffffffffffff84116112205782604085901b8161121857611218612463565b049050611337565b60c084811c6401000000008110611239576020918201911c5b62010000811061124b576010918201911c5b610100811061125c576008918201911c5b6010811061126c576004918201911c5b6004811061127c576002918201911c5b6002811061128b576001820191505b60bf820360018603901c6001018260ff0387901b816112ac576112ac612463565b0492506001600160801b038311156112c357600080fd5b608085901c83026001600160801b038616840260c088901c604089901b828110156112ef576001820391505b608084901b92900382811015611306576001820391505b829003608084901c821461131c5761131c612531565b88818161132b5761132b612463565b04870196505050505050505b6001600160801b03811115610e8057600080fd5b600042816113576102f1565b6001600160a01b0316633c8ca83d6040518163ffffffff1660e01b8152600401602060405180830381865afa158015611394573d6000803e3d6000fd5b505050506040513d601f19601f820116820180604052508101906113b89190612428565b9050808210156113c6578091505b60006113d06102f1565b6001600160a01b03166344d9bc5f6040518163ffffffff1660e01b8152600401602060405180830381865afa15801561140d573d6000803e3d6000fd5b505050506040513d601f19601f820116820180604052508101906114319190612428565b90508015611446576114438382611ca0565b92505b600154828110156114545750815b600061146a600354670de0b6b3a7640000610e46565b905084821061147c5795945050505050565b6000611488838761251e565b9050600080611498600254611cb6565b9150915060006114a88383610e46565b905060006114b682866114d1565b90506114c28682611825565b9a505050505050505050505090565b600080600084600f0b1280156114ea5750826001166001145b905060008085600f0b126114fe5784611503565b846000035b6001600160801b03169050600160801b68010000000000000000821161159d57603f82901b91505b8415611595576001851615611540578102607f1c5b908002607f1c906002851615611556578102607f1c5b908002607f1c90600485161561156c578102607f1c5b908002607f1c906008851615611582578102607f1c5b60049490941c93908002607f1c9061152b565b60401c6116eb565b603f6c010000000000000000000000008310156115c05760209290921b91601f19015b6e0100000000000000000000000000008310156115e35760109290921b91600f19015b6f010000000000000000000000000000008310156116075760089290921b91600719015b6f1000000000000000000000000000000083101561162b5760049290921b91600319015b6f4000000000000000000000000000000083101561164f5760029290921b91600119015b6001607f1b8310156116675760019290921b91600019015b60005b86156116d4576040821061167d57600080fd5b60018716156116a357918302607f1c918101600160801b8311156116a357600192831c92015b928002607f1c9260019190911b90600160801b84106116c857600193841c9391909101905b600187901c965061166a565b604081106116e157600080fd5b6040039190911c90505b6000836116f857816116fd565b816000035b90506f7fffffffffffffffffffffffffffffff198112801590611727575060016001607f1b038113155b6104cc57600080fd5b6000677fffffffffffffff82111561174757600080fd5b5060401b90565b6000600f82810b9084900b036f7fffffffffffffffffffffffffffffff198112801590611782575060016001607f1b038113155b610e8057600080fd5b60008082600f0b1361179c57600080fd5b60806117a783611d75565b600f0b6fb17217f7d1cf79abc9e3b39803f2f6af02901c9050919050565b600081600f0b6000036117d757600080fd5b600082600f0b604085600f0b901b816117f2576117f2612463565b0590506f7fffffffffffffffffffffffffffffff198112801590611782575060016001607f1b03811315610e8057600080fd5b6000600f83810b9083900b0260401d6f7fffffffffffffffffffffffffffffff198112801590611782575060016001607f1b03811315610e8057600080fd5b60006001607f1b600f84900b016118d5577fffffffffffffffff00000000000000000000000000000000000000000000000182121580156118be575078010000000000000000000000000000000000000000000000008213155b6118c757600080fd5b506000819003603f1b610e83565b60008084600f0b12156118ed57836000039350600190505b60008312156118ff5760009290920391155b600061190b8585611e59565b9050811561193057600160ff1b81111561192457600080fd5b6000039150610e839050565b7f7fffffffffffffffffffffffffffffffffffffffffffffffffffffffffffffff81111561195d57600080fd5b9150610e839050565b6040805180820182526004808252631193d49560e21b6020909201919091529051631b973c5760e21b8152600091829182916001600160a01b03861691636e5cf15c916119d9917f2911d5ca388af24ed7f391a4eb24469bc0fd8935cd73bb1075ca7e702a42eb19910190815260200190565b602060405180830381865afa1580156119f6573d6000803e3d6000fd5b505050506040513d601f19601f82011682018060405250810190611a1a91906123dd565b9050806001600160a01b0316637633a22c6040518163ffffffff1660e01b8152600401602060405180830381865afa158015611a5a573d6000803e3d6000fd5b505050506040513d601f19601f82011682018060405250810190611a7e9190612428565b816001600160a01b031663e91bde76836001600160a01b0316638545bc586040518163ffffffff1660e01b8152600401602060405180830381865afa158015611acb573d6000803e3d6000fd5b505050506040513d601f19601f82011682018060405250810190611aef9190612428565b6040518263ffffffff1660e01b8152600401611b0d91815260200190565b602060405180830381865afa158015611b2a573d6000803e3d6000fd5b505050506040513d601f19601f82011682018060405250810190611b4e9190612428565b9250925050915091565b600080611b63611ed5565b90506000805b8251811015611c8157611b7a61024d565b6001600160a01b031663feae7dc3848381518110611b9a57611b9a612547565b60200260200101516040518263ffffffff1660e01b8152600401611bc091815260200190565b602060405180830381865afa158015611bdd573d6000803e3d6000fd5b505050506040513d601f19601f82011682018060405250810190611c0191906123dd565b6040516370a0823160e01b81526001600160a01b03878116600483015291909116906370a0823190602401602060405180830381865afa158015611c49573d6000803e3d6000fd5b505050506040513d601f19601f82011682018060405250810190611c6d9190612428565b611c77908361255d565b9150600101611b69565b509392505050565b600081611c96818561248f565b610e8091906124f3565b6000818310611caf5781610e80565b5090919050565b60408051808201909152600681526520a921a422a960d11b6020909101526000807fbd21a0403f8a882c166bd206a22b19e35435476f82a2cccdbfebf4d666c861c08301611d165750662386ef98e7bf4c92662386f26fc1000092509050565b6040805180820190915260088152672427a929a2a6a0a760c11b6020909101527f762a1190b034cd04c3eae43da1943cdf0137d457634c4d62e69626f81f1986c783016111835750662386f07b1c993692662386f26fc1000092509050565b60008082600f0b13611d8657600080fd5b6000600f83900b680100000000000000008112611da5576040918201911d5b6401000000008112611db9576020918201911d5b620100008112611dcb576010918201911d5b6101008112611ddc576008918201911d5b60108112611dec576004918201911d5b60048112611dfc576002918201911d5b60028112611e0b576001820191505b603f19820160401b600f85900b607f8490031b6780000000000000005b6000811315611e4e5790800260ff81901c8281029390930192607f011c9060011d611e28565b509095945050505050565b600081600003611e6b57506000610e83565b600083600f0b1215611e7c57600080fd5b600f83900b6001600160801b038316810260401c90608084901c0277ffffffffffffffffffffffffffffffffffffffffffffffff811115611ebc57600080fd5b60401b8119811115611ecd57600080fd5b019392505050565b60606000611ee1611f81565b90506000815167ffffffffffffffff811115611eff57611eff61223c565b604051908082528060200260200182016040528015611f28578160200160208202803683370190505b50905060005b8151811015611f7a57828181518110611f4957611f49612547565b602002602001015160400151828281518110611f6757611f67612547565b6020908102919091010152600101611f2e565b5092915050565b6040805160038082526080820190925260609160009190816020015b60408051606080820183528082526020820152600091810191909152815260200190600190039081611f9d5750506040805160a0810182526011606082019081527f4d697468726165756d2057617272696f720000000000000000000000000000006080830152815281518083018352600881527f6d57415252494f52000000000000000000000000000000000000000000000000602080830191909152808301919091528251808401845260078152662ba0a92924a7a960c91b9101527f69c5317e5ce44f1a1fb56c6a5eff904214e6353da6310ab0a6b511eef9a7c39191810191909152815191925090829060009061209a5761209a612547565b6020908102919091018101919091526040805160a0810182526010606082019081527f4d697468726165756d20417263686572000000000000000000000000000000006080830152815281518083018352600781526636a0a921a422a960c91b818501528184015281518083018352600681526520a921a422a960d11b9301929092527f42de5fbfc07577d3e9942df95dd4e61cabcab8907d5d333240140b2999379e409082015281518290600190811061215757612157612547565b6020908102919091018101919091526040805160a0810182526012606082019081527f4d697468726165756d20486f7273656d616e00000000000000000000000000006080830152815281518083018352600981527f6d484f5253454d414e000000000000000000000000000000000000000000000081850152818401528151808301835260088152672427a929a2a6a0a760c11b9301929092527f89d5ee6f4fcb32fb3c151bc25e6bc320fec82ba89cb3b29d1969d907e0e679399082015281518290600290811061222c5761222c612547565b6020908102919091010152919050565b634e487b7160e01b600052604160045260246000fd5b60006020828403121561226457600080fd5b813567ffffffffffffffff81111561227b57600080fd5b8201601f8101841361228c57600080fd5b803567ffffffffffffffff8111156122a6576122a661223c565b604051601f8201601f19908116603f0116810167ffffffffffffffff811182821017156122d5576122d561223c565b6040528181528282016020018610156122ed57600080fd5b81602084016020830137600091810160200191909152949350505050565b6001600160a01b038116811461232057600080fd5b50565b600080600080600060a0868803121561233b57600080fd5b85356123468161230b565b945060208601356123568161230b565b935060408601356123668161230b565b94979396509394606081013594506080013592915050565b60006020828403121561239057600080fd5b5035919050565b600080600080608085870312156123ad57600080fd5b84356123b88161230b565b935060208501356123c88161230b565b93969395505050506040820135916060013590565b6000602082840312156123ef57600080fd5b8151610e808161230b565b6000806040838503121561240d57600080fd5b82516124188161230b565b6020939093015192949293505050565b60006020828403121561243a57600080fd5b5051919050565b60006020828403121561245357600080fd5b81518015158114610e8057600080fd5b634e487b7160e01b600052601260045260246000fd5b634e487b7160e01b600052601160045260246000fd5b60008261249e5761249e612463565b500490565b805167ffffffffffffffff811681146124bb57600080fd5b919050565b600080604083850312156124d357600080fd5b6124dc836124a3565b91506124ea602084016124a3565b90509250929050565b8082028115828204841417610e8357610e83612479565b60008261251957612519612463565b500690565b81810381811115610e8357610e83612479565b634e487b7160e01b600052600160045260246000fd5b634e487b7160e01b600052603260045260246000fd5b80820180821115610e8357610e8361247956fea264697066735822122040eb1b07481e56a9cbfe1ff76c5e2727a2184838f06756d72e8e90ef60a4284664736f6c634300081a0033",
  "linkReferences": {},
  "deployedLinkReferences": {}
}