{
  "_format": "hh-sol-artifact-1",
  "contractName": "BattleView",
  "sourceName": "contracts/periphery/BattleView.sol",
  "abi": [
    {
      "inputs": [
        {
          "internalType": "address",
          "name": "battleAddress",
          "type": "address"
        }
      ],
      "name": "getBattleCombinedData",
      "outputs": [
        {
          "components": [
            {
              "internalType": "address",
              "name": "id",
              "type": "address"
            },
            {
              "internalType": "uint64",
              "name": "battleBeginTime",
              "type": "uint64"
            },
            {
              "internalType": "uint64",
              "name": "battleDuration",
              "type": "uint64"
            },
            {
              "internalType": "uint64",
              "name": "battleEndDate",
              "type": "uint64"
            },
            {
              "internalType": "address",
              "name": "battleSettlementId",
              "type": "address"
            },
            {
              "internalType": "uint64",
              "name": "battleGamePosition",
              "type": "uint64"
            },
            {
              "internalType": "uint256[]",
              "name": "side1Casualties",
              "type": "uint256[]"
            },
            {
              "internalType": "uint256[]",
              "name": "side2Casualties",
              "type": "uint256[]"
            },
            {
              "internalType": "uint256[]",
              "name": "side1UnitsAmount",
              "type": "uint256[]"
            },
            {
              "internalType": "uint256[]",
              "name": "side2UnitsAmount",
              "type": "uint256[]"
            }
          ],
          "internalType": "struct BattleView.BattleCombinedData",
          "name": "battleCombinedData",
          "type": "tuple"
        }
      ],
      "stateMutability": "view",
      "type": "function"
    },
    {
      "inputs": [
        {
          "internalType": "address",
          "name": "battleAddress",
          "type": "address"
        }
      ],
      "name": "getBattleTimeInfo",
      "outputs": [
        {
          "components": [
            {
              "internalType": "uint64",
              "name": "beginTime",
              "type": "uint64"
            },
            {
              "internalType": "uint64",
              "name": "duration",
              "type": "uint64"
            },
            {
              "internalType": "uint64",
              "name": "endTime",
              "type": "uint64"
            }
          ],
          "internalType": "struct IBattle.BattleTimeInfo",
          "name": "battleTimeInfo",
          "type": "tuple"
        }
      ],
      "stateMutability": "view",
      "type": "function"
    }
  ],
  "bytecode": "0x6080604052348015600f57600080fd5b50610db08061001f6000396000f3fe608060405234801561001057600080fd5b50600436106100365760003560e01c8063204c93c01461003b578063737add4a14610086575b600080fd5b61004e610049366004610b2c565b6100a6565b60408051825167ffffffffffffffff908116825260208085015182169083015292820151909216908201526060015b60405180910390f35b610099610094366004610b2c565b610155565b60405161007d9190610b8c565b604080516060810182526000808252602082018190529181019190915260008290506000806000836001600160a01b031663383f9ac36040518163ffffffff1660e01b8152600401606060405180830381865afa15801561010b573d6000803e3d6000fd5b505050506040513d601f19601f8201168201806040525081019061012f9190610cba565b67ffffffffffffffff928316885290821660208801521660408601525092949350505050565b60408051610140810182526000808252602080830182905282840182905260608084018390526080840183905260a0840183905260c0840181905260e084018190526101008401819052610120840152835163185b3dd560e11b81529351929385936001600160a01b038516926330b67baa92600480820193918290030181865afa1580156101e8573d6000803e3d6000fd5b505050506040513d601f19601f8201168201806040525081019061020c9190610cfd565b90506000846001600160a01b031663143e55e06040518163ffffffff1660e01b8152600401602060405180830381865afa15801561024e573d6000803e3d6000fd5b505050506040513d601f19601f820116820180604052508101906102729190610cfd565b9050600061027e610798565b90506000815167ffffffffffffffff81111561029c5761029c610d1a565b6040519080825280602002602001820160405280156102c5578160200160208202803683370190505b5090506000825167ffffffffffffffff8111156102e4576102e4610d1a565b60405190808252806020026020018201604052801561030d578160200160208202803683370190505b5090506000835167ffffffffffffffff81111561032c5761032c610d1a565b604051908082528060200260200182016040528015610355578160200160208202803683370190505b5090506000845167ffffffffffffffff81111561037457610374610d1a565b60405190808252806020026020018201604052801561039d578160200160208202803683370190505b50905060005b855181101561060b5760008682815181106103c0576103c0610d30565b6020908102919091010151604051633856937960e01b815260016004820152602481018290529091506001600160a01b038b1690633856937990604401602060405180830381865afa15801561041a573d6000803e3d6000fd5b505050506040513d601f19601f8201168201806040525081019061043e9190610d46565b84838151811061045057610450610d30565b6020908102919091010152604051633856937960e01b815260026004820152602481018290526001600160a01b038b1690633856937990604401602060405180830381865afa1580156104a7573d6000803e3d6000fd5b505050506040513d601f19601f820116820180604052508101906104cb9190610d46565b8383815181106104dd576104dd610d30565b60209081029190910101526040516346e4152560e11b815260016004820152602481018290526001600160a01b038b1690638dc82a4a90604401602060405180830381865afa158015610534573d6000803e3d6000fd5b505050506040513d601f19601f820116820180604052508101906105589190610d46565b86838151811061056a5761056a610d30565b60209081029190910101526040516346e4152560e11b815260026004820152602481018290526001600160a01b038b1690638dc82a4a90604401602060405180830381865afa1580156105c1573d6000803e3d6000fd5b505050506040513d601f19601f820116820180604052508101906105e59190610d46565b8583815181106105f7576105f7610d30565b6020908102919091010152506001016103a3565b5060006106178b6100a6565b905060008b6001600160a01b03166309218e916040518163ffffffff1660e01b8152600401602060405180830381865afa158015610659573d6000803e3d6000fd5b505050506040513d601f19601f8201168201806040525081019061067d9190610d5f565b90506040518061014001604052808d6001600160a01b03168152602001836000015167ffffffffffffffff168152602001836020015167ffffffffffffffff168152602001836040015167ffffffffffffffff168152602001896001600160a01b031663c4c31e85846040518263ffffffff1660e01b8152600401610712919067ffffffffffffffff91909116815260200190565b602060405180830381865afa15801561072f573d6000803e3d6000fd5b505050506040513d601f19601f820116820180604052508101906107539190610cfd565b6001600160a01b031681526020018267ffffffffffffffff168152602001878152602001868152602001858152602001848152509a5050505050505050505050919050565b606060006107a4610844565b90506000815167ffffffffffffffff8111156107c2576107c2610d1a565b6040519080825280602002602001820160405280156107eb578160200160208202803683370190505b50905060005b815181101561083d5782818151811061080c5761080c610d30565b60200260200101516040015182828151811061082a5761082a610d30565b60209081029190910101526001016107f1565b5092915050565b6040805160038082526080820190925260609160009190816020015b604080516060808201835280825260208201526000918101919091528152602001906001900390816108605750506040805160a0810182526011606082019081527f4d697468726165756d2057617272696f720000000000000000000000000000006080830152815281518083018352600881527f6d57415252494f52000000000000000000000000000000000000000000000000602080830191909152808301919091528251808401845260078152662ba0a92924a7a960c91b9101527f69c5317e5ce44f1a1fb56c6a5eff904214e6353da6310ab0a6b511eef9a7c39191810191909152815191925090829060009061095d5761095d610d30565b6020908102919091018101919091526040805160a0810182526010606082019081527f4d697468726165756d20417263686572000000000000000000000000000000006080830152815281518083018352600781526636a0a921a422a960c91b818501528184015281518083018352600681526520a921a422a960d11b9301929092527f42de5fbfc07577d3e9942df95dd4e61cabcab8907d5d333240140b2999379e4090820152815182906001908110610a1a57610a1a610d30565b6020908102919091018101919091526040805160a0810182526012606082019081527f4d697468726165756d20486f7273656d616e00000000000000000000000000006080830152815281518083018352600981527f6d484f5253454d414e0000000000000000000000000000000000000000000000818501528184015281518083018352600881527f484f5253454d414e0000000000000000000000000000000000000000000000009301929092527f89d5ee6f4fcb32fb3c151bc25e6bc320fec82ba89cb3b29d1969d907e0e6793990820152815182906002908110610b0457610b04610d30565b6020908102919091010152919050565b6001600160a01b0381168114610b2957600080fd5b50565b600060208284031215610b3e57600080fd5b8135610b4981610b14565b9392505050565b600081518084526020840193506020830160005b82811015610b82578151865260209586019590910190600101610b64565b5093949350505050565b60208152610ba66020820183516001600160a01b03169052565b60006020830151610bc3604084018267ffffffffffffffff169052565b50604083015167ffffffffffffffff8116606084015250606083015167ffffffffffffffff811660808401525060808301516001600160a01b03811660a08401525060a083015167ffffffffffffffff811660c08401525060c083015161014060e0840152610c36610160840182610b50565b905060e0840151601f1984830301610100850152610c548282610b50565b915050610100840151601f1984830301610120850152610c748282610b50565b915050610120840151601f1984830301610140850152610c948282610b50565b95945050505050565b805167ffffffffffffffff81168114610cb557600080fd5b919050565b600080600060608486031215610ccf57600080fd5b610cd884610c9d565b9250610ce660208501610c9d565b9150610cf460408501610c9d565b90509250925092565b600060208284031215610d0f57600080fd5b8151610b4981610b14565b634e487b7160e01b600052604160045260246000fd5b634e487b7160e01b600052603260045260246000fd5b600060208284031215610d5857600080fd5b5051919050565b600060208284031215610d7157600080fd5b610b4982610c9d56fea26469706673582212200e71e422abfeea54f06cb875aa319ea178b93473ba9761e7e4b65107aeb1da8164736f6c634300081a0033",
  "linkReferences": {},
  "deployedLinkReferences": {}
}