{
  "_format": "hh-sol-artifact-1",
  "contractName": "Fort",
  "sourceName": "contracts/core/assets/building/impl/Fort.sol",
  "abi": [
    {
      "inputs": [],
      "name": "BuildingCannotBeUpgradedWhileUpgradeIsOnCooldown",
      "type": "error"
    },
    {
      "inputs": [],
      "name": "CannotTransferProducingResourceFromBuilding",
      "type": "error"
    },
    {
      "inputs": [],
      "name": "Disabled",
      "type": "error"
    },
    {
      "inputs": [],
      "name": "DistributionResetNotAllowedWhenTreasuryThresholdNotMet",
      "type": "error"
    },
    {
      "inputs": [],
      "name": "OnlyActiveGame",
      "type": "error"
    },
    {
      "inputs": [],
      "name": "OnlyDistributions",
      "type": "error"
    },
    {
      "inputs": [],
      "name": "OnlyMightyCreator",
      "type": "error"
    },
    {
      "inputs": [],
      "name": "OnlyRulerOrWorldAssetFromSameEra",
      "type": "error"
    },
    {
      "inputs": [],
      "name": "OnlySettlementOwner",
      "type": "error"
    },
    {
      "inputs": [],
      "name": "OnlyWorldAssetFromSameEra",
      "type": "error"
    },
    {
      "inputs": [],
      "name": "UnknownInputParameter",
      "type": "error"
    },
    {
      "anonymous": false,
      "inputs": [
        {
          "indexed": false,
          "internalType": "uint256",
          "name": "newAdditionalWorkersCapacityMultiplier",
          "type": "uint256"
        }
      ],
      "name": "AdvancedProductionAdditionalWorkersCapacityMultiplierUpdated",
      "type": "event"
    },
    {
      "anonymous": false,
      "inputs": [
        {
          "indexed": false,
          "internalType": "uint256",
          "name": "newAdvancedProductionLevel",
          "type": "uint256"
        },
        {
          "indexed": false,
          "internalType": "uint256",
          "name": "newAdvancedProductionCoefficient",
          "type": "uint256"
        }
      ],
      "name": "AdvancedProductionUpgraded",
      "type": "event"
    },
    {
      "anonymous": false,
      "inputs": [
        {
          "indexed": false,
          "internalType": "uint256",
          "name": "newBasicProductionLevel",
          "type": "uint256"
        },
        {
          "indexed": false,
          "internalType": "uint256",
          "name": "newBasicProductionCoefficient",
          "type": "uint256"
        }
      ],
      "name": "BasicProductionUpgraded",
      "type": "event"
    },
    {
      "anonymous": false,
      "inputs": [
        {
          "indexed": false,
          "internalType": "bytes32",
          "name": "resourceTypeId",
          "type": "bytes32"
        },
        {
          "indexed": false,
          "internalType": "address",
          "name": "holder",
          "type": "address"
        },
        {
          "indexed": false,
          "internalType": "uint256",
          "name": "amount",
          "type": "uint256"
        }
      ],
      "name": "DistributedToShareHolder",
      "type": "event"
    },
    {
      "anonymous": false,
      "inputs": [
        {
          "indexed": false,
          "internalType": "uint256",
          "name": "newDistributionId",
          "type": "uint256"
        }
      ],
      "name": "DistributionCreated",
      "type": "event"
    },
    {
      "anonymous": false,
      "inputs": [
        {
          "indexed": false,
          "internalType": "uint256",
          "name": "newHealth",
          "type": "uint256"
        }
      ],
      "name": "HealthUpdated",
      "type": "event"
    },
    {
      "anonymous": false,
      "inputs": [
        {
          "indexed": false,
          "internalType": "uint8",
          "name": "version",
          "type": "uint8"
        }
      ],
      "name": "Initialized",
      "type": "event"
    },
    {
      "anonymous": false,
      "inputs": [
        {
          "indexed": false,
          "internalType": "address",
          "name": "distributionNftHolder",
          "type": "address"
        },
        {
          "indexed": false,
          "internalType": "uint256",
          "name": "newDebt",
          "type": "uint256"
        }
      ],
      "name": "ProducedResourceDebtUpdated",
      "type": "event"
    },
    {
      "anonymous": false,
      "inputs": [
        {
          "indexed": false,
          "internalType": "uint256",
          "name": "lastUpdateStateTime",
          "type": "uint256"
        },
        {
          "indexed": false,
          "internalType": "uint256",
          "name": "lastUpdateStateRegionTime",
          "type": "uint256"
        },
        {
          "indexed": false,
          "internalType": "uint256",
          "name": "readyToBeDistributed",
          "type": "uint256"
        },
        {
          "indexed": false,
          "internalType": "uint256",
          "name": "totalDebt",
          "type": "uint256"
        }
      ],
      "name": "ProductionInfoUpdated",
      "type": "event"
    },
    {
      "inputs": [],
      "name": "advancedProduction",
      "outputs": [
        {
          "internalType": "uint256",
          "name": "level",
          "type": "uint256"
        },
        {
          "internalType": "uint256",
          "name": "coefficient",
          "type": "uint256"
        },
        {
          "internalType": "uint256",
          "name": "additionalWorkersCapacityMultiplier",
          "type": "uint256"
        },
        {
          "internalType": "uint256",
          "name": "toBeProducedTicks",
          "type": "uint256"
        }
      ],
      "stateMutability": "view",
      "type": "function"
    },
    {
      "inputs": [],
      "name": "assetGroupId",
      "outputs": [
        {
          "internalType": "bytes32",
          "name": "",
          "type": "bytes32"
        }
      ],
      "stateMutability": "view",
      "type": "function"
    },
    {
      "inputs": [],
      "name": "assetTypeId",
      "outputs": [
        {
          "internalType": "bytes32",
          "name": "",
          "type": "bytes32"
        }
      ],
      "stateMutability": "view",
      "type": "function"
    },
    {
      "inputs": [],
      "name": "basicProduction",
      "outputs": [
        {
          "internalType": "uint256",
          "name": "level",
          "type": "uint256"
        },
        {
          "internalType": "uint256",
          "name": "coefficient",
          "type": "uint256"
        }
      ],
      "stateMutability": "view",
      "type": "function"
    },
    {
      "inputs": [],
      "name": "buildingTypeId",
      "outputs": [
        {
          "internalType": "bytes32",
          "name": "",
          "type": "bytes32"
        }
      ],
      "stateMutability": "view",
      "type": "function"
    },
    {
      "inputs": [
        {
          "internalType": "uint256",
          "name": "burnAmount",
          "type": "uint256"
        }
      ],
      "name": "burnTreasury",
      "outputs": [],
      "stateMutability": "nonpayable",
      "type": "function"
    },
    {
      "inputs": [
        {
          "internalType": "uint256",
          "name": "timestamp",
          "type": "uint256"
        }
      ],
      "name": "calculateDamageDone",
      "outputs": [
        {
          "internalType": "uint256",
          "name": "damage",
          "type": "uint256"
        }
      ],
      "stateMutability": "view",
      "type": "function"
    },
    {
      "inputs": [
        {
          "internalType": "uint256",
          "name": "capacityAmount",
          "type": "uint256"
        }
      ],
      "name": "decreaseAdditionalWorkersCapacityMultiplier",
      "outputs": [],
      "stateMutability": "nonpayable",
      "type": "function"
    },
    {
      "inputs": [],
      "name": "distributeToAllShareholders",
      "outputs": [],
      "stateMutability": "nonpayable",
      "type": "function"
    },
    {
      "inputs": [
        {
          "internalType": "address",
          "name": "holder",
          "type": "address"
        }
      ],
      "name": "distributeToSingleShareholder",
      "outputs": [],
      "stateMutability": "nonpayable",
      "type": "function"
    },
    {
      "inputs": [],
      "name": "distributionId",
      "outputs": [
        {
          "internalType": "uint256",
          "name": "",
          "type": "uint256"
        }
      ],
      "stateMutability": "view",
      "type": "function"
    },
    {
      "inputs": [],
      "name": "era",
      "outputs": [
        {
          "internalType": "contract IEra",
          "name": "",
          "type": "address"
        }
      ],
      "stateMutability": "view",
      "type": "function"
    },
    {
      "inputs": [],
      "name": "eraNumber",
      "outputs": [
        {
          "internalType": "uint256",
          "name": "",
          "type": "uint256"
        }
      ],
      "stateMutability": "view",
      "type": "function"
    },
    {
      "inputs": [],
      "name": "getAdditionalWorkersFromAdditionalWorkersCapacityMultiplier",
      "outputs": [
        {
          "internalType": "uint256",
          "name": "",
          "type": "uint256"
        }
      ],
      "stateMutability": "view",
      "type": "function"
    },
    {
      "inputs": [
        {
          "internalType": "uint256",
          "name": "level",
          "type": "uint256"
        }
      ],
      "name": "getAdvancedUpgradeCooldownDuration",
      "outputs": [
        {
          "internalType": "uint256",
          "name": "",
          "type": "uint256"
        }
      ],
      "stateMutability": "view",
      "type": "function"
    },
    {
      "inputs": [],
      "name": "getAssignedWorkers",
      "outputs": [
        {
          "internalType": "uint256",
          "name": "",
          "type": "uint256"
        }
      ],
      "stateMutability": "view",
      "type": "function"
    },
    {
      "inputs": [],
      "name": "getAvailableForAdvancedProductionWorkersCapacity",
      "outputs": [
        {
          "internalType": "uint256",
          "name": "",
          "type": "uint256"
        }
      ],
      "stateMutability": "view",
      "type": "function"
    },
    {
      "inputs": [
        {
          "internalType": "uint256",
          "name": "level",
          "type": "uint256"
        }
      ],
      "name": "getBasicUpgradeCooldownDuration",
      "outputs": [
        {
          "internalType": "uint256",
          "name": "",
          "type": "uint256"
        }
      ],
      "stateMutability": "view",
      "type": "function"
    },
    {
      "inputs": [
        {
          "internalType": "uint256",
          "name": "level",
          "type": "uint256"
        }
      ],
      "name": "getBuildingCoefficient",
      "outputs": [
        {
          "internalType": "uint256",
          "name": "",
          "type": "uint256"
        }
      ],
      "stateMutability": "pure",
      "type": "function"
    },
    {
      "inputs": [],
      "name": "getBuildingLevel",
      "outputs": [
        {
          "internalType": "uint256",
          "name": "",
          "type": "uint256"
        }
      ],
      "stateMutability": "view",
      "type": "function"
    },
    {
      "inputs": [],
      "name": "getConfig",
      "outputs": [
        {
          "components": [
            {
              "internalType": "bytes32",
              "name": "resourceTypeId",
              "type": "bytes32"
            },
            {
              "internalType": "uint256",
              "name": "amountPerTick",
              "type": "uint256"
            },
            {
              "internalType": "bool",
              "name": "isProducing",
              "type": "bool"
            }
          ],
          "internalType": "struct IBuilding.ProductionConfigItem[]",
          "name": "",
          "type": "tuple[]"
        }
      ],
      "stateMutability": "pure",
      "type": "function"
    },
    {
      "inputs": [
        {
          "internalType": "uint256",
          "name": "level",
          "type": "uint256"
        }
      ],
      "name": "getMaxHealthOnLevel",
      "outputs": [
        {
          "internalType": "uint256",
          "name": "",
          "type": "uint256"
        }
      ],
      "stateMutability": "view",
      "type": "function"
    },
    {
      "inputs": [
        {
          "internalType": "uint256",
          "name": "level",
          "type": "uint256"
        }
      ],
      "name": "getMaxTreasuryByLevel",
      "outputs": [
        {
          "internalType": "uint256",
          "name": "",
          "type": "uint256"
        }
      ],
      "stateMutability": "view",
      "type": "function"
    },
    {
      "inputs": [],
      "name": "getProducingResourceTypeId",
      "outputs": [
        {
          "internalType": "bytes32",
          "name": "",
          "type": "bytes32"
        }
      ],
      "stateMutability": "view",
      "type": "function"
    },
    {
      "inputs": [
        {
          "internalType": "uint256",
          "name": "timestamp",
          "type": "uint256"
        }
      ],
      "name": "getProductionResult",
      "outputs": [
        {
          "components": [
            {
              "internalType": "bytes32",
              "name": "resourceTypeId",
              "type": "bytes32"
            },
            {
              "internalType": "uint256",
              "name": "balanceDelta",
              "type": "uint256"
            },
            {
              "internalType": "bool",
              "name": "isProduced",
              "type": "bool"
            }
          ],
          "internalType": "struct IBuilding.ProductionResultItem[]",
          "name": "",
          "type": "tuple[]"
        }
      ],
      "stateMutability": "view",
      "type": "function"
    },
    {
      "inputs": [
        {
          "internalType": "bytes32",
          "name": "resourceTypeId",
          "type": "bytes32"
        },
        {
          "internalType": "uint256",
          "name": "timestamp",
          "type": "uint256"
        }
      ],
      "name": "getResourcesAmount",
      "outputs": [
        {
          "internalType": "uint256",
          "name": "",
          "type": "uint256"
        }
      ],
      "stateMutability": "view",
      "type": "function"
    },
    {
      "inputs": [
        {
          "internalType": "uint256",
          "name": "timestamp",
          "type": "uint256"
        }
      ],
      "name": "getTreasuryAmount",
      "outputs": [
        {
          "internalType": "uint256",
          "name": "",
          "type": "uint256"
        }
      ],
      "stateMutability": "view",
      "type": "function"
    },
    {
      "inputs": [
        {
          "internalType": "uint256",
          "name": "level",
          "type": "uint256"
        }
      ],
      "name": "getUpgradePrice",
      "outputs": [
        {
          "internalType": "uint256",
          "name": "",
          "type": "uint256"
        }
      ],
      "stateMutability": "view",
      "type": "function"
    },
    {
      "inputs": [],
      "name": "getWorkersCapacity",
      "outputs": [
        {
          "internalType": "uint256",
          "name": "",
          "type": "uint256"
        }
      ],
      "stateMutability": "view",
      "type": "function"
    },
    {
      "inputs": [],
      "name": "givenProsperityAmount",
      "outputs": [
        {
          "internalType": "uint256",
          "name": "",
          "type": "uint256"
        }
      ],
      "stateMutability": "view",
      "type": "function"
    },
    {
      "inputs": [],
      "name": "handleProductionResourcesChanged",
      "outputs": [],
      "stateMutability": "nonpayable",
      "type": "function"
    },
    {
      "inputs": [],
      "name": "health",
      "outputs": [
        {
          "internalType": "uint256",
          "name": "",
          "type": "uint256"
        }
      ],
      "stateMutability": "view",
      "type": "function"
    },
    {
      "inputs": [
        {
          "internalType": "uint256",
          "name": "capacityAmount",
          "type": "uint256"
        }
      ],
      "name": "increaseAdditionalWorkersCapacityMultiplier",
      "outputs": [],
      "stateMutability": "nonpayable",
      "type": "function"
    },
    {
      "inputs": [
        {
          "internalType": "bytes",
          "name": "initParams",
          "type": "bytes"
        }
      ],
      "name": "init",
      "outputs": [],
      "stateMutability": "nonpayable",
      "type": "function"
    },
    {
      "inputs": [
        {
          "internalType": "bytes32",
          "name": "resourceTypeId",
          "type": "bytes32"
        }
      ],
      "name": "isResourceAcceptable",
      "outputs": [
        {
          "internalType": "bool",
          "name": "",
          "type": "bool"
        }
      ],
      "stateMutability": "view",
      "type": "function"
    },
    {
      "inputs": [
        {
          "internalType": "address",
          "name": "operator",
          "type": "address"
        },
        {
          "internalType": "address",
          "name": "from",
          "type": "address"
        },
        {
          "internalType": "uint256[]",
          "name": "ids",
          "type": "uint256[]"
        },
        {
          "internalType": "uint256[]",
          "name": "values",
          "type": "uint256[]"
        },
        {
          "internalType": "bytes",
          "name": "data",
          "type": "bytes"
        }
      ],
      "name": "onERC1155BatchReceived",
      "outputs": [
        {
          "internalType": "bytes4",
          "name": "",
          "type": "bytes4"
        }
      ],
      "stateMutability": "nonpayable",
      "type": "function"
    },
    {
      "inputs": [
        {
          "internalType": "address",
          "name": "operator",
          "type": "address"
        },
        {
          "internalType": "address",
          "name": "from",
          "type": "address"
        },
        {
          "internalType": "uint256",
          "name": "id",
          "type": "uint256"
        },
        {
          "internalType": "uint256",
          "name": "value",
          "type": "uint256"
        },
        {
          "internalType": "bytes",
          "name": "data",
          "type": "bytes"
        }
      ],
      "name": "onERC1155Received",
      "outputs": [
        {
          "internalType": "bytes4",
          "name": "",
          "type": "bytes4"
        }
      ],
      "stateMutability": "nonpayable",
      "type": "function"
    },
    {
      "inputs": [
        {
          "internalType": "address",
          "name": "",
          "type": "address"
        }
      ],
      "name": "producedResourceDebt",
      "outputs": [
        {
          "internalType": "uint256",
          "name": "",
          "type": "uint256"
        }
      ],
      "stateMutability": "view",
      "type": "function"
    },
    {
      "inputs": [],
      "name": "productionInfo",
      "outputs": [
        {
          "internalType": "uint256",
          "name": "lastUpdateStateTime",
          "type": "uint256"
        },
        {
          "internalType": "uint256",
          "name": "lastUpdateStateRegionTime",
          "type": "uint256"
        },
        {
          "internalType": "uint256",
          "name": "readyToBeDistributed",
          "type": "uint256"
        },
        {
          "internalType": "uint256",
          "name": "totalDebt",
          "type": "uint256"
        }
      ],
      "stateMutability": "view",
      "type": "function"
    },
    {
      "inputs": [],
      "name": "registry",
      "outputs": [
        {
          "internalType": "contract IRegistry",
          "name": "",
          "type": "address"
        }
      ],
      "stateMutability": "view",
      "type": "function"
    },
    {
      "inputs": [],
      "name": "relatedSettlement",
      "outputs": [
        {
          "internalType": "contract ISettlement",
          "name": "",
          "type": "address"
        }
      ],
      "stateMutability": "view",
      "type": "function"
    },
    {
      "inputs": [
        {
          "internalType": "address",
          "name": "workersReceiverAddress",
          "type": "address"
        },
        {
          "internalType": "uint256",
          "name": "workersAmount",
          "type": "uint256"
        },
        {
          "internalType": "address",
          "name": "resourcesReceiverAddress",
          "type": "address"
        },
        {
          "internalType": "bytes32[]",
          "name": "resourceTypeIds",
          "type": "bytes32[]"
        },
        {
          "internalType": "uint256[]",
          "name": "resourcesAmounts",
          "type": "uint256[]"
        }
      ],
      "name": "removeResourcesAndWorkers",
      "outputs": [],
      "stateMutability": "nonpayable",
      "type": "function"
    },
    {
      "inputs": [],
      "name": "resetDistribution",
      "outputs": [],
      "stateMutability": "nonpayable",
      "type": "function"
    },
    {
      "inputs": [
        {
          "internalType": "address",
          "name": "stealerSettlementAddress",
          "type": "address"
        },
        {
          "internalType": "uint256",
          "name": "amount",
          "type": "uint256"
        }
      ],
      "name": "stealTreasury",
      "outputs": [
        {
          "internalType": "uint256",
          "name": "",
          "type": "uint256"
        },
        {
          "internalType": "uint256",
          "name": "",
          "type": "uint256"
        }
      ],
      "stateMutability": "nonpayable",
      "type": "function"
    },
    {
      "inputs": [
        {
          "internalType": "bytes4",
          "name": "interfaceId",
          "type": "bytes4"
        }
      ],
      "name": "supportsInterface",
      "outputs": [
        {
          "internalType": "bool",
          "name": "",
          "type": "bool"
        }
      ],
      "stateMutability": "view",
      "type": "function"
    },
    {
      "inputs": [
        {
          "internalType": "address",
          "name": "from",
          "type": "address"
        },
        {
          "internalType": "address",
          "name": "to",
          "type": "address"
        },
        {
          "internalType": "uint256",
          "name": "amount",
          "type": "uint256"
        }
      ],
      "name": "updateDebtsAccordingToNewDistributionsAmounts",
      "outputs": [],
      "stateMutability": "nonpayable",
      "type": "function"
    },
    {
      "inputs": [],
      "name": "updateState",
      "outputs": [],
      "stateMutability": "nonpayable",
      "type": "function"
    },
    {
      "inputs": [
        {
          "internalType": "address",
          "name": "resourcesOwner",
          "type": "address"
        }
      ],
      "name": "upgradeAdvancedProduction",
      "outputs": [],
      "stateMutability": "nonpayable",
      "type": "function"
    },
    {
      "inputs": [
        {
          "internalType": "address",
          "name": "resourcesOwner",
          "type": "address"
        }
      ],
      "name": "upgradeBasicProduction",
      "outputs": [],
      "stateMutability": "nonpayable",
      "type": "function"
    },
    {
      "inputs": [],
      "name": "upgradeCooldownEndTime",
      "outputs": [
        {
          "internalType": "uint256",
          "name": "",
          "type": "uint256"
        }
      ],
      "stateMutability": "view",
      "type": "function"
    },
    {
      "inputs": [],
      "name": "world",
      "outputs": [
        {
          "internalType": "contract IWorld",
          "name": "",
          "type": "address"
        }
      ],
      "stateMutability": "view",
      "type": "function"
    },
    {
      "inputs": [],
      "name": "worldAssetFactory",
      "outputs": [
        {
          "internalType": "contract IWorldAssetFactory",
          "name": "",
          "type": "address"
        }
      ],
      "stateMutability": "view",
      "type": "function"
    }
  ],
  "bytecode": "0x6080604052348015600f57600080fd5b506151158061001f6000396000f3fe608060405234801561001057600080fd5b506004361061034b5760003560e01c80638a6bbad3116101bd578063c9c0df61116100f9578063e8d4d46d116100a2578063ece56a1a1161007c578063ece56a1a14610702578063f23a6e611461070a578063f2477b5b1461071d578063ffaf29a01461072557600080fd5b8063e8d4d46d146106dc578063e91bde76146106ef578063eb3585341461047b57600080fd5b8063e05ab498116100d3578063e05ab498146106b8578063e145c3ad146106c1578063e2ac48c7146106c957600080fd5b8063c9c0df611461069f578063d26aaf93146106a8578063d2bc7d85146106b057600080fd5b8063ad36624411610166578063bc197c8111610140578063bc197c8114610616578063c3f909d414610651578063c45f100014610666578063c724a0161461067f57600080fd5b8063ad366244146105e8578063ae6fd51d146105f0578063b78d13841461060357600080fd5b80638beab87e116101975780638beab87e146105ac57806390091872146105cc57806391ab778d146105df57600080fd5b80638a6bbad31461057b5780638ae52a38146105915780638bb9b6f21461059957600080fd5b806343e77f461161028c5780637633a22c116102355780637b7a2bfc1161020f5780637b7a2bfc146105125780637d884c741461052557806384ba89e31461054c5780638545bc581461057357600080fd5b80637633a22c146104ee5780637abdf949146104f75780637b1039991461050a57600080fd5b8063589ae40011610266578063589ae400146104be5780635ed697b71461047b57806365e6f4ce146104e657600080fd5b806343e77f461461048f578063486a42d5146104a25780634ddf47d4146104ab57600080fd5b806314dff0e8116102f95780631e9738d1116102d35780631e9738d11461044d5780631fb91f391461046057806330b67baa146104735780633c084b8b1461047b57600080fd5b806314dff0e8146103fc578063152d9483146104325780631d8557d71461044557600080fd5b806304b10ac81161032a57806304b10ac8146103ae5780630b4e99c3146103b5578063143e55e0146103dc57600080fd5b8062d4fbf81461035057806301288b521461037657806301ffc9a71461038b575b600080fd5b61036361035e3660046148f7565b610733565b6040519081526020015b60405180910390f35b61038961038436600461496d565b610753565b005b61039e610399366004614a11565b610789565b604051901515815260200161036d565b6000610363565b7f6c85b93e587873fbe6712f3b438d42c2945689b262f7bd34b8ea4e3f832a89ea54610363565b6103e46107be565b6040516001600160a01b03909116815260200161036d565b6004546005546006546007546104129392919084565b60408051948552602085019390935291830152606082015260800161036d565b610389610440366004614a3b565b610862565b6103896109be565b61036361045b366004614a7c565b610ddc565b61038961046e366004614a9e565b6110d7565b6103e461155c565b6103636104893660046148f7565b50600090565b61038961049d3660046148f7565b61158f565b61036360095481565b6103896104b9366004614b02565b6115f0565b6104d16104cc366004614b9c565b61178f565b6040805192835260208301919091520161036d565b610389611b5e565b61036360105481565b6103636105053660046148f7565b611f89565b6103e4612066565b610389610520366004614a9e565b6120ad565b7f6c85b93e587873fbe6712f3b438d42c2945689b262f7bd34b8ea4e3f832a89e754610363565b7f6c85b93e587873fbe6712f3b438d42c2945689b262f7bd34b8ea4e3f832a89e954610363565b6103636123c9565b600a54600b54600c54600d546104129392919084565b6103636123db565b6103636105a73660046148f7565b6124b0565b6105bf6105ba3660046148f7565b6124d9565b60405161036d9190614bc8565b61039e6105da3660046148f7565b61284c565b61036360085481565b6103636128a5565b6103896105fe3660046148f7565b6128bf565b6103896106113660046148f7565b61296d565b610638610624366004614c6e565b63bc197c8160e01b98975050505050505050565b6040516001600160e01b0319909116815260200161036d565b610659612a4b565b60405161036d9190614d39565b6000546103e4906201000090046001600160a01b031681565b61036361068d366004614a9e565b600f6020526000908152604090205481565b610363600e5481565b610363612c32565b610389612c4e565b61036360015481565b610389612c67565b6103636106d73660046148f7565b612c74565b6103896106ea366004614a9e565b612d92565b6103636106fd3660046148f7565b613209565b6103e4613284565b610638610718366004614d92565b6132cb565b6103636132de565b6002546003546104d1919082565b6000600561074383615460614e24565b61074d9190614e51565b92915050565b61075b61333b565b61076361346c565b85156107735761077387876135d2565b61078084848785856136b0565b50505050505050565b60006001600160e01b03198216630271189760e51b148061074d57506301ffc9a760e01b6001600160e01b031983161461074d565b60006107c861155c565b6001600160a01b031663720a70bd6107fe7f6c85b93e587873fbe6712f3b438d42c2945689b262f7bd34b8ea4e3f832a89e75490565b6040518263ffffffff1660e01b815260040161081c91815260200190565b602060405180830381865afa158015610839573d6000803e3d6000fd5b505050506040513d601f19601f8201168201806040525081019061085d9190614e65565b905090565b61086a6136fe565b600061087461155c565b6001600160a01b031663e4e940f06040518163ffffffff1660e01b8152600401602060405180830381865afa1580156108b1573d6000803e3d6000fd5b505050506040513d601f19601f820116820180604052508101906108d59190614e65565b6001600160a01b03166302705c2e6040518163ffffffff1660e01b8152600401602060405180830381865afa158015610912573d6000803e3d6000fd5b505050506040513d601f19601f820116820180604052508101906109369190614e82565b600c54610944908490614e24565b61094e9190614e51565b90508060000361095e5750505050565b6001600160a01b0384166000908152600f602052604090205461098d908590610988908490614e9b565b61378f565b6001600160a01b0383166000908152600f60205260409020546109b7908490610988908490614eae565b505b505050565b600060029054906101000a90046001600160a01b03166001600160a01b031663e6c15c996040518163ffffffff1660e01b8152600401602060405180830381865afa158015610a11573d6000803e3d6000fd5b505050506040513d601f19601f82011682018060405250810190610a359190614e65565b6001600160a01b0316631d8557d76040518163ffffffff1660e01b8152600401600060405180830381600087803b158015610a6f57600080fd5b505af1158015610a83573d6000803e3d6000fd5b505050506000610a916137e0565b905080600a6000015403610aa25750565b6000610aad826124d9565b9050610abd8260008060006138e8565b60005b81518110156109b957818181518110610adb57610adb614ec1565b60200260200101516020015160000315610dd4576040805180820190915260068152650908a8298a8960d31b60209091015281517f88ad4e672f8c8ca6cce86b10b118764bf098c06bb02cd6691dfb6641799afaa090839083908110610b4357610b43614ec1565b60200260200101516000015103610cc4576000828281518110610b6857610b68614ec1565b60200260200101516020015190506000838381518110610b8a57610b8a614ec1565b6020026020010151604001519050600060105490508115610bbf57610bb7610bb28483614eae565b61394a565b505050610dd4565b828110610bd357610bb7610bb28483614e9b565b610bdd600061394a565b600060029054906101000a90046001600160a01b03166001600160a01b0316632de7e9b06040518163ffffffff1660e01b8152600401602060405180830381865afa158015610c30573d6000803e3d6000fd5b505050506040513d601f19601f82011682018060405250810190610c549190614e65565b6001600160a01b031663f09dbd5b610c6c8386614e9b565b6040518263ffffffff1660e01b8152600401610c8a91815260200190565b600060405180830381600087803b158015610ca457600080fd5b505af1158015610cb8573d6000803e3d6000fd5b50505050505050610dd4565b610ccc6107be565b6001600160a01b031663912929df838381518110610cec57610cec614ec1565b6020026020010151600001516040518263ffffffff1660e01b8152600401610d1691815260200190565b602060405180830381865afa158015610d33573d6000803e3d6000fd5b505050506040513d601f19601f82011682018060405250810190610d579190614e65565b6001600160a01b03166342966c68838381518110610d7757610d77614ec1565b6020026020010151602001516040518263ffffffff1660e01b8152600401610da191815260200190565b600060405180830381600087803b158015610dbb57600080fd5b505af1158015610dcf573d6000803e3d6000fd5b505050505b600101610ac0565b600080610de8836124d9565b905060005b81518110156110cc5784828281518110610e0957610e09614ec1565b602002602001015160000151036110c457818181518110610e2c57610e2c614ec1565b60200260200101516040015115610fb3576000610e4a6104896123c9565b905080600003610e60576000935050505061074d565b6000670de0b6b3a764000080858581518110610e7e57610e7e614ec1565b602002602001015160200151610e949190614e24565b610e9e9190614e51565b90506000610eaa6107be565b60405163912929df60e01b8152600060048201526001600160a01b03919091169063912929df90602401602060405180830381865afa158015610ef1573d6000803e3d6000fd5b505050506040513d601f19601f82011682018060405250810190610f159190614e65565b6040516375719b0160e11b81523060048201526001600160a01b03919091169063eae3360290602401602060405180830381865afa158015610f5b573d6000803e3d6000fd5b505050506040513d601f19601f82011682018060405250810190610f7f9190614e82565b9050828110610f9457945061074d9350505050565b610fa7610fa18284614eae565b846139a5565b9550505050505061074d565b818181518110610fc557610fc5614ec1565b602002602001015160200151610fd96107be565b6001600160a01b031663912929df876040518263ffffffff1660e01b815260040161100691815260200190565b602060405180830381865afa158015611023573d6000803e3d6000fd5b505050506040513d601f19601f820116820180604052508101906110479190614e65565b6040516375719b0160e11b81523060048201526001600160a01b03919091169063eae3360290602401602060405180830381865afa15801561108d573d6000803e3d6000fd5b505050506040513d601f19601f820116820180604052508101906110b19190614e82565b6110bb9190614e9b565b9250505061074d565b600101610ded565b506000949350505050565b6110df61333b565b6110e761346c565b6110ef6109be565b6008544210156111125760405163aa4aed7160e01b815260040160405180910390fd5b600061111c6123c9565b9050600061112982611f89565b60408051808201909152600481526315d3d3d160e21b60209091015290507f5f3d3bfd5b61198148275c178146c21eec5c5ab7e81758f3c651754ae3f1ed426001600160a01b0384166112535761117e6107be565b6001600160a01b031663912929df826040518263ffffffff1660e01b81526004016111ab91815260200190565b602060405180830381865afa1580156111c8573d6000803e3d6000fd5b505050506040513d601f19601f820116820180604052508101906111ec9190614e65565b60405163079cc67960e41b8152336004820152602481018490526001600160a01b0391909116906379cc679090604401600060405180830381600087803b15801561123657600080fd5b505af115801561124a573d6000803e3d6000fd5b5050505061139b565b600061125d6107be565b6001600160a01b031663912929df836040518263ffffffff1660e01b815260040161128a91815260200190565b602060405180830381865afa1580156112a7573d6000803e3d6000fd5b505050506040513d601f19601f820116820180604052508101906112cb9190614e65565b60405163dd8aaa4f60e01b81526001600160a01b038781166004830152336024830152604482018690529192509082169063dd8aaa4f90606401600060405180830381600087803b15801561131f57600080fd5b505af1158015611333573d6000803e3d6000fd5b505060405163079cc67960e41b81526001600160a01b03888116600483015260248201879052841692506379cc67909150604401600060405180830381600087803b15801561138157600080fd5b505af1158015611395573d6000803e3d6000fd5b50505050505b600060029054906101000a90046001600160a01b03166001600160a01b031663e6c15c996040518163ffffffff1660e01b8152600401602060405180830381865afa1580156113ee573d6000803e3d6000fd5b505050506040513d601f19601f820116820180604052508101906114129190614e65565b6000546001600160a01b0391821691635053c2999162010000900416670de0b6b3a764000085611441866139bd565b61144b9190614e24565b6114559190614e51565b6040516001600160e01b031960e085901b1681526001600160a01b0390921660048301526024820152604401600060405180830381600087803b15801561149b57600080fd5b505af11580156114af573d6000803e3d6000fd5b505050506114bc83610733565b6114c69042614eae565b6008556003546000906114d885613209565b6114e66106fd876001614eae565b6114f09190614e9b565b6114fa9190614eae565b60025490915060009061150e906001614eae565b60038390556002819055905060408051828152602081018490527fa933a9f591d9b53ffc6316451d228c163207767426d4097ffa9434c2efa4f6ba91015b60405180910390a1505050505050565b600061085d7f6c85b93e587873fbe6712f3b438d42c2945689b262f7bd34b8ea4e3f832a89e6546001600160a01b031690565b611597613b20565b61159f6109be565b6006546000906115b0908390614e9b565b60068190556040518181529091507fa5b080ca657305a05e233a1bdfe1cb5a92588bd94928658051cf6ea8d91ae4b1906020015b60405180910390a15050565b600054610100900460ff16158080156116105750600054600160ff909116105b8061162a5750303b15801561162a575060005460ff166001145b6116a05760405162461bcd60e51b815260206004820152602e60248201527f496e697469616c697a61626c653a20636f6e747261637420697320616c72656160448201527f647920696e697469616c697a6564000000000000000000000000000000000000606482015260840160405180910390fd5b6000805460ff1916600117905580156116c3576000805461ff0019166101001790555b600080838060200190518101906116da9190614ed7565b600080547fffffffffffffffffffff0000000000000000000000000000000000000000ffff16620100006001600160a01b038516021781556001828155600281905560038190556004819055600555919350915061173b90429080806138e8565b5050673782dace9d900000601055801561178b576000805461ff0019169055604051600181527f7f26b83ff96e1f2b6a682f133852f6798a09c465da95921460cefb3847402498906020016115e4565b5050565b60008061179a613b20565b6117a26109be565b60006117ac6107be565b60405163912929df60e01b8152600060048201526001600160a01b03919091169063912929df90602401602060405180830381865afa1580156117f3573d6000803e3d6000fd5b505050506040513d601f19601f820116820180604052508101906118179190614e65565b905060006118976118296104896123c9565b6040516375719b0160e11b81523060048201526001600160a01b0385169063eae33602906024015b602060405180830381865afa15801561186e573d6000803e3d6000fd5b505050506040513d601f19601f820116820180604052508101906118929190614e82565b6139a5565b9050806000036118af57600080935093505050611b57565b6118b981866139a5565b600154604051631b973c5760e21b815291965087916000916001600160a01b03841691636e5cf15c916118f29160040190815260200190565b602060405180830381865afa15801561190f573d6000803e3d6000fd5b505050506040513d601f19601f820116820180604052508101906119339190614e65565b9050806001600160a01b0316631d8557d76040518163ffffffff1660e01b8152600401600060405180830381600087803b15801561197057600080fd5b505af1158015611984573d6000803e3d6000fd5b505050506000816001600160a01b0316633c084b8b836001600160a01b0316638545bc586040518163ffffffff1660e01b8152600401602060405180830381865afa1580156119d7573d6000803e3d6000fd5b505050506040513d601f19601f820116820180604052508101906119fb9190614e82565b6040518263ffffffff1660e01b8152600401611a1991815260200190565b602060405180830381865afa158015611a36573d6000803e3d6000fd5b505050506040513d601f19601f82011682018060405250810190611a5a9190614e82565b6040516375719b0160e11b81526001600160a01b038481166004830152919250600091611a9491849189169063eae3360290602401611851565b90506000611aa28284614e9b565b90506000611ab0828c6139a5565b90506000611abe828d614e9b565b90508115611b3b5760405163a9059cbb60e01b81526001600160a01b038781166004830152602482018490528a169063a9059cbb906044016020604051808303816000875af1158015611b15573d6000803e3d6000fd5b505050506040513d601f19601f82011682018060405250810190611b399190614f05565b505b8015611b4a57611b4a8161296d565b9099509750505050505050505b9250929050565b611b666109be565b600c54600080611b746107be565b6001600160a01b031663912929df836040518263ffffffff1660e01b8152600401611ba191815260200190565b602060405180830381865afa158015611bbe573d6000803e3d6000fd5b505050506040513d601f19601f82011682018060405250810190611be29190614e65565b90506000611bee61155c565b6001600160a01b031663e4e940f06040518163ffffffff1660e01b8152600401602060405180830381865afa158015611c2b573d6000803e3d6000fd5b505050506040513d601f19601f82011682018060405250810190611c4f9190614e65565b90506000816001600160a01b03166302705c2e6040518163ffffffff1660e01b8152600401602060405180830381865afa158015611c91573d6000803e3d6000fd5b505050506040513d601f19601f82011682018060405250810190611cb59190614e82565b9050846000611cc261155c565b6001600160a01b031663e4e940f06040518163ffffffff1660e01b8152600401602060405180830381865afa158015611cff573d6000803e3d6000fd5b505050506040513d601f19601f82011682018060405250810190611d239190614e65565b6001600160a01b03166361a5d38c600e546040518263ffffffff1660e01b8152600401611d5291815260200190565b600060405180830381865afa158015611d6f573d6000803e3d6000fd5b505050506040513d6000823e601f3d908101601f19168201604052611d979190810190614f27565b905060005b8151811015611f75576000828281518110611db957611db9614ec1565b6020908102919091018101516001600160a01b038082166000818152600f909452604080852054600e549151627eeac760e11b81526004810193909352602483019190915292945091929188918a169062fdd58e90604401602060405180830381865afa158015611e2e573d6000803e3d6000fd5b505050506040513d601f19601f82011682018060405250810190611e529190614e82565b611e5c908d614e24565b611e669190614e51565b90506000828211611e78576000611e82565b611e828383614e9b565b90508215611e9557611e9584600061378f565b611e9f8184614eae565b611ea99088614e9b565b965080600003611ebc5750505050611f6d565b6040516340c10f1960e01b81526001600160a01b038581166004830152602482018390528b16906340c10f1990604401600060405180830381600087803b158015611f0657600080fd5b505af1158015611f1a573d6000803e3d6000fd5b5050604080518e81526001600160a01b03881660208201529081018490527f4e4307e8da7cc13a61821561768c6b298d5d9ee55985f18cb747099e3f9fa8759250606001905060405180910390a1505050505b600101611d9c565b50600a54600b5461078091908460006138e8565b6000806002611f9784613209565b611fa191906150bc565b611fac90600a614e24565b611fbe90670de0b6b3a7640000614e24565b905060006002611fd26106fd866001614eae565b611fdc91906150bc565b611fe790600a614e24565b611ff990670de0b6b3a7640000614e24565b90506000606461200a84604b614e24565b6120149190614e51565b905060006120228284614e9b565b90506000612031600683614e51565b9050670de0b6b3a7640000612047600154613c0a565b6120519083614e24565b61205b9190614e51565b979650505050505050565b600061207061155c565b6001600160a01b0316637b1039996040518163ffffffff1660e01b8152600401602060405180830381865afa158015610839573d6000803e3d6000fd5b6120b56109be565b60006120bf61155c565b6001600160a01b031663e4e940f06040518163ffffffff1660e01b8152600401602060405180830381865afa1580156120fc573d6000803e3d6000fd5b505050506040513d601f19601f820116820180604052508101906121209190614e65565b600e54604051627eeac760e11b81526001600160a01b03858116600483015260248201929092529192506000919083169062fdd58e90604401602060405180830381865afa158015612176573d6000803e3d6000fd5b505050506040513d601f19601f8201168201806040525081019061219a9190614e82565b9050806000036121a957505050565b6001600160a01b038084166000908152600f602090815260408083205481516301382e1760e11b8152915190948716926302705c2e92600480820193918290030181865afa1580156121ff573d6000803e3d6000fd5b505050506040513d601f19601f820116820180604052508101906122239190614e82565b600c54612231908590614e24565b61223b9190614e51565b9050600082821161224d576000612257565b6122578383614e9b565b90508060000361226957505050505050565b612277866109888386614eae565b600a54600b54600c54600d5461229a93929190612295908690614eae565b6138e8565b60006122a46107be565b6001600160a01b031663912929df826040518263ffffffff1660e01b81526004016122d191815260200190565b602060405180830381865afa1580156122ee573d6000803e3d6000fd5b505050506040513d601f19601f820116820180604052508101906123129190614e65565b6040516340c10f1960e01b81526001600160a01b0389811660048301526024820185905291909116906340c10f1990604401600060405180830381600087803b15801561235e57600080fd5b505af1158015612372573d6000803e3d6000fd5b5050604080518481526001600160a01b038b1660208201529081018590527f4e4307e8da7cc13a61821561768c6b298d5d9ee55985f18cb747099e3f9fa8759250606001905060405180910390a150505050505050565b60045460025460009161085d91614eae565b60006123e56107be565b6001600160a01b031663cabb62f06040518163ffffffff1660e01b8152600401602060405180830381865afa158015612422573d6000803e3d6000fd5b505050506040513d601f19601f820116820180604052508101906124469190614e65565b6040516370a0823160e01b81523060048201526001600160a01b0391909116906370a0823190602401602060405180830381865afa15801561248c573d6000803e3d6000fd5b505050506040513d601f19601f8201168201806040525081019061085d9190614e82565b600060036124bd83613209565b6124c791906150bc565b61074d90670de0b6b3a7640000614e24565b6060816000036124e7574291505b60006124f161155c565b6001600160a01b0316633c8ca83d6040518163ffffffff1660e01b8152600401602060405180830381865afa15801561252e573d6000803e3d6000fd5b505050506040513d601f19601f820116820180604052508101906125529190614e82565b905080831015612560578092505b600061256a61155c565b6001600160a01b03166344d9bc5f6040518163ffffffff1660e01b8152600401602060405180830381865afa1580156125a7573d6000803e3d6000fd5b505050506040513d601f19601f820116820180604052508101906125cb9190614e82565b905080156125e0576125dd84826139a5565b93505b60006125ea612a4b565b90506000815167ffffffffffffffff81111561260857612608614abb565b60405190808252806020026020018201604052801561265357816020015b60408051606081018252600080825260208083018290529282015282526000199092019101816126265790505b50905060005b82518110156126df57604051806060016040528084838151811061267f5761267f614ec1565b6020026020010151600001518152602001600081526020018483815181106126a9576126a9614ec1565b60200260200101516040015115158152508282815181106126cc576126cc614ec1565b6020908102919091010152600101612659565b50600a54848110156126ee5750835b8087116126ff575095945050505050565b600061272a88838660028151811061271957612719614ec1565b602002602001015160200151613dae565b905060005b845181101561283f5784818151811061274a5761274a614ec1565b602002602001015160400151156127e757602082015182511015600081612781578351602085015161277c9190614e9b565b612792565b602084015184516127929190614e9b565b9050818684815181106127a7576127a7614ec1565b60200260200101516040019015159081151581525050808684815181106127d0576127d0614ec1565b602002602001015160200181815250505050612837565b81604001518582815181106127fe576127fe614ec1565b6020026020010151602001516128149190614e24565b84828151811061282657612826614ec1565b602002602001015160200181815250505b60010161272f565b5091979650505050505050565b600080612857612a4b565b905060005b815181101561289b578382828151811061287857612878614ec1565b60200260200101516000015103612893575060019392505050565b60010161285c565b5060009392505050565b60006128b2600154613ec7565b60055461085d9190614e24565b6128c7613b20565b6128cf6109be565b6006546000906128e0908390614eae565b60068190556040518181529091507fa5b080ca657305a05e233a1bdfe1cb5a92588bd94928658051cf6ea8d91ae4b19060200160405180910390a16000612925612c32565b905060006129316123db565b9050818111156109b75760006129478383614e9b565b600054909150612966906201000090046001600160a01b0316826135d2565b5050505050565b612975613b20565b600061297f6107be565b60405163912929df60e01b8152600060048201526001600160a01b03919091169063912929df90602401602060405180830381865afa1580156129c6573d6000803e3d6000fd5b505050506040513d601f19601f820116820180604052508101906129ea9190614e65565b604051630852cd8d60e31b8152600481018490529091506001600160a01b038216906342966c6890602401600060405180830381600087803b158015612a2f57600080fd5b505af1158015612a43573d6000803e3d6000fd5b505050505050565b6040805160038082526080820190925260609160009190816020015b6040805160608101825260008082526020808301829052928201528252600019909201910181612a675750506040805160a0810190915260046060820152631193d3d160e21b60808201527f2f6f5a261d6f4514c3f09a834720fe583c82f2ee4758ce9a45fbd67428e9f93d815290915060208101612af1620151806729a2241af62c0000614e51565b81526020016000151581525081600081518110612b1057612b10614ec1565b6020908102919091018101919091526040805160a08101909152600460608201526315d3d3d160e21b60808201527f5f3d3bfd5b61198148275c178146c21eec5c5ab7e81758f3c651754ae3f1ed428152908101612b7962015180671bc16d674ec80000614e51565b81526020016000151581525081600181518110612b9857612b98614ec1565b6020908102919091018101919091526040805160a0810190915260066060820152650908a8298a8960d31b60808201527f88ad4e672f8c8ca6cce86b10b118764bf098c06bb02cd6691dfb6641799afaa08152908101612c0362015180670de0b6b3a7640000614e51565b81526020016001151581525081600281518110612c2257612c22614ec1565b6020908102919091010152919050565b6000612c3c6132de565b612c446128a5565b61085d9190614e9b565b604051633ac4266d60e11b815260040160405180910390fd5b612c6f61406b565b600755565b600080612c80836124d9565b905060008060005b8351811015612d43576040805180820190915260068152650908a8298a8960d31b60209091015283517f88ad4e672f8c8ca6cce86b10b118764bf098c06bb02cd6691dfb6641799afaa090859083908110612ce557612ce5614ec1565b60200260200101516000015103612d3b57838181518110612d0857612d08614ec1565b6020026020010151602001519250838181518110612d2857612d28614ec1565b6020026020010151604001519150612d43565b600101612c88565b5081600003612d5757506000949350505050565b8015612d6857506000949350505050565b8160105410612d7c57506000949350505050565b601054612d899083614e9b565b95945050505050565b612d9a61333b565b612da261346c565b612daa6109be565b600854421015612dcd5760405163aa4aed7160e01b815260040160405180910390fd5b6000612dd76123c9565b90506000612de482611f89565b6040805180820190915260038152624f524560e81b60209091015290507f9db51ceeef36d28f4a713ba944bdadb00e988c5676c92710eaf0e194efb4cb556001600160a01b038416612f0d57612e386107be565b6001600160a01b031663912929df826040518263ffffffff1660e01b8152600401612e6591815260200190565b602060405180830381865afa158015612e82573d6000803e3d6000fd5b505050506040513d601f19601f82011682018060405250810190612ea69190614e65565b60405163079cc67960e41b8152336004820152602481018490526001600160a01b0391909116906379cc679090604401600060405180830381600087803b158015612ef057600080fd5b505af1158015612f04573d6000803e3d6000fd5b50505050613055565b6000612f176107be565b6001600160a01b031663912929df836040518263ffffffff1660e01b8152600401612f4491815260200190565b602060405180830381865afa158015612f61573d6000803e3d6000fd5b505050506040513d601f19601f82011682018060405250810190612f859190614e65565b60405163dd8aaa4f60e01b81526001600160a01b038781166004830152336024830152604482018690529192509082169063dd8aaa4f90606401600060405180830381600087803b158015612fd957600080fd5b505af1158015612fed573d6000803e3d6000fd5b505060405163079cc67960e41b81526001600160a01b03888116600483015260248201879052841692506379cc67909150604401600060405180830381600087803b15801561303b57600080fd5b505af115801561304f573d6000803e3d6000fd5b50505050505b600060029054906101000a90046001600160a01b03166001600160a01b031663e6c15c996040518163ffffffff1660e01b8152600401602060405180830381865afa1580156130a8573d6000803e3d6000fd5b505050506040513d601f19601f820116820180604052508101906130cc9190614e65565b6000546001600160a01b0391821691635053c2999162010000900416670de0b6b3a7640000856130fb866139bd565b6131059190614e24565b61310f9190614e51565b6040516001600160e01b031960e085901b1681526001600160a01b0390921660048301526024820152604401600060405180830381600087803b15801561315557600080fd5b505af1158015613169573d6000803e3d6000fd5b50505050613175600090565b61317f9042614eae565b60085560055460009061319185613209565b61319f6106fd876001614eae565b6131a99190614e9b565b6131b39190614eae565b6004549091506000906131c7906001614eae565b60058390556004819055905060408051828152602081018490527fd8f5076bf9515e2fc9ee2b3472c1f34b0474833710bcd006c2b502e6c659c9fd910161154c565b60006005816132188285614e51565b905060006132268383614e24565b6132309086614e9b565b9050600083600284613243816001614eae565b61324d9190614e24565b6132579190614e51565b6132619190614e24565b90506000613270846001614eae565b61327a9084614e24565b61205b9083614eae565b600061328e612066565b6001600160a01b031663ece56a1a6040518163ffffffff1660e01b8152600401602060405180830381865afa158015610839573d6000803e3d6000fd5b63f23a6e6160e01b5b9695505050505050565b6000806132f8600460020154670de0b6b3a76400006139a5565b905060006133046128a5565b9050613334670de0b6b3a764000061331c8484614e24565b6133269190614e51565b670de0b6b3a76400006141fc565b9250505090565b600061334561155c565b6001600160a01b0316633c8ca83d6040518163ffffffff1660e01b8152600401602060405180830381865afa158015613382573d6000803e3d6000fd5b505050506040513d601f19601f820116820180604052508101906133a69190614e82565b905060006133b261155c565b6001600160a01b03166344d9bc5f6040518163ffffffff1660e01b8152600401602060405180830381865afa1580156133ef573d6000803e3d6000fd5b505050506040513d601f19601f820116820180604052508101906134139190614e82565b905081158061342157508142105b1561343f5760405163a00eda6960e01b815260040160405180910390fd5b801580159061344e5750804210155b1561178b5760405163a00eda6960e01b815260040160405180910390fd5b600054604051631b0b969d60e01b8152336004820152620100009091046001600160a01b031690631b0b969d90602401602060405180830381865afa1580156134b9573d6000803e3d6000fd5b505050506040513d601f19601f820116820180604052508101906134dd9190614f05565b15801561350357506134ed61155c565b6001600160a01b0316336001600160a01b031614155b80156135b25750600061351461155c565b6001600160a01b031663ebbe803461354a7f6c85b93e587873fbe6712f3b438d42c2945689b262f7bd34b8ea4e3f832a89e75490565b6040516001600160e01b031960e084901b1681526004810191909152336024820152604401602060405180830381865afa15801561358c573d6000803e3d6000fd5b505050506040513d601f19601f820116820180604052508101906135b09190614e82565b145b156135d057604051630d319e2360e41b815260040160405180910390fd5b565b6135da6107be565b6001600160a01b031663cabb62f06040518163ffffffff1660e01b8152600401602060405180830381865afa158015613617573d6000803e3d6000fd5b505050506040513d601f19601f8201168201806040525081019061363b9190614e65565b60405163a9059cbb60e01b81526001600160a01b03848116600483015260248201849052919091169063a9059cbb906044016020604051808303816000875af115801561368c573d6000803e3d6000fd5b505050506040513d601f19601f820116820180604052508101906109b99190614f05565b60005b84811015612a43576136f68686838181106136d0576136d0614ec1565b90506020020135858585858181106136ea576136ea614ec1565b90506020020135614213565b6001016136b3565b3361370761155c565b6001600160a01b031663e4e940f06040518163ffffffff1660e01b8152600401602060405180830381865afa158015613744573d6000803e3d6000fd5b505050506040513d601f19601f820116820180604052508101906137689190614e65565b6001600160a01b0316146135d057604051638f857a2960e01b815260040160405180910390fd5b6001600160a01b0382166000818152600f6020908152604091829020849055815192835282018390527fdcea61563ab9f107db39d481e10a7eda8e255efb99c1bf6c57f2b2e5a8a6f90e91016115e4565b6000806137eb61155c565b6001600160a01b0316633c8ca83d6040518163ffffffff1660e01b8152600401602060405180830381865afa158015613828573d6000803e3d6000fd5b505050506040513d601f19601f8201168201806040525081019061384c9190614e82565b9050600061385861155c565b6001600160a01b03166344d9bc5f6040518163ffffffff1660e01b8152600401602060405180830381865afa158015613895573d6000803e3d6000fd5b505050506040513d601f19601f820116820180604052508101906138b99190614e82565b905042828110156138c75750815b816000036138d6579392505050565b6138e081836139a5565b935050505090565b600a849055600b839055600c829055600d8190556040805185815260208101859052908101839052606081018290527f0975f780ca30f886d7a3b13619106b83bfcd25cf1d64d5c2dd20e3546c4badf59060800160405180910390a150505050565b60006139576105a76123c9565b9050600061396583836139a5565b60108190556040518181529091507f1771dd072a23790eac90e53bda3f1a30fe5da27c57ad44ff1ad001cf795bd0d79060200160405180910390a1505050565b60008183106139b457816139b6565b825b9392505050565b6040805180820190915260048152631193d3d160e21b60209091015260007fd090a5d9e290baeb3c0f657cb8df01a7c37d0d11b8a73165ba04298bd71606c38201613a115750670429d069189e0000919050565b60408051808201909152600481526315d3d3d160e21b6020909101527fa0c2c402a49ee67eb7d8a3e87eb93de113a3a54817e8a70c39ae8ab51c0e12be8201613a635750670de0b6b3a7640000919050565b6040805180820190915260038152624f524560e81b6020909101527f624ae31110c92d70b58ec456bb42524ff16773a98936d8ef150f1e6b104b34ab8201613ab457506729a2241af62c0000919050565b604080518082019091526005815264125391d3d560da1b6020909101527f0b2c26746c5e8d6f1877c4437947c29fc4d8103cd72878c4c039b7afe27c1a8e8201613b075750678ac7230489e80000919050565b60405163ea3b0abb60e01b815260040160405180910390fd5b613b2861155c565b6001600160a01b0316336001600160a01b031614158015613bec57506000613b4e61155c565b6001600160a01b031663ebbe8034613b847f6c85b93e587873fbe6712f3b438d42c2945689b262f7bd34b8ea4e3f832a89e75490565b6040516001600160e01b031960e084901b1681526004810191909152336024820152604401602060405180830381865afa158015613bc6573d6000803e3d6000fd5b505050506040513d601f19601f82011682018060405250810190613bea9190614e82565b145b156135d05760405163422656d160e01b815260040160405180910390fd5b6040805180820190915260048152634641524d60e01b60209091015260007fea182adbe8a99c0376d68ae8663b1e572fb013df4142853d0efacd6d83e4a3f38201613c5e57506706f05b59d3b20000919050565b60408051808201909152600a8152691315535091549352531360b21b6020909101527f9105c25cd4a4f5de306390a4361214e261c5b47733a14849b60e1afd6befe9a78201613cb65750670de0b6b3a7640000919050565b6040805180820190915260048152634d494e4560e01b6020909101527fba703fbcaf9339015e918255c7c6fb66106877b9277228701a99875362186bbc8201613d085750671bc16d674ec80000919050565b604080518082019091526006815265534d4954485960d01b6020909101527f172dd3f67874f5199aae0df823a0dbc7dc361e67643d2a2054a704e56cc7902e8201613d5c5750673782dace9d900000919050565b6040805180820190915260048152631193d49560e21b6020909101527fd6ee2a35c7750db1280c6e5b14dbb9643f0276ca328c44ef8a35818fd5bd14e78201613b075750671bc16d674ec80000919050565b613dd260405180606001604052806000815260200160008152602001600081525090565b6000670de0b6b3a7640000613de56143b5565b613def9085614e24565b613df99190614e51565b90506000670de0b6b3a7640000613e0e614409565b613e189086614e24565b613e229190614e51565b90506000613e2e614433565b9050808310613e4c57613e418184614e9b565b925060009050613e5d565b613e568382614e9b565b9050600092505b6000613e6a6105a76123c9565b600754909150600090613e7d9088614e24565b90506000613e916010548488888887614519565b90506000613e9f8a8c614e9b565b9050613eb881836000015184602001518a8a8a8f614685565b9b9a5050505050505050505050565b6040805180820190915260048152634641524d60e01b60209091015260007fea182adbe8a99c0376d68ae8663b1e572fb013df4142853d0efacd6d83e4a3f38201613f1b5750678ac7230489e80000919050565b60408051808201909152600a8152691315535091549352531360b21b6020909101527f9105c25cd4a4f5de306390a4361214e261c5b47733a14849b60e1afd6befe9a78201613f735750676124fee993bc0000919050565b6040805180820190915260048152634d494e4560e01b6020909101527fba703fbcaf9339015e918255c7c6fb66106877b9277228701a99875362186bbc8201613fc55750674563918244f40000919050565b604080518082019091526006815265534d4954485960d01b6020909101527f172dd3f67874f5199aae0df823a0dbc7dc361e67643d2a2054a704e56cc7902e820161401957506729a2241af62c0000919050565b6040805180820190915260048152631193d49560e21b6020909101527fd6ee2a35c7750db1280c6e5b14dbb9643f0276ca328c44ef8a35818fd5bd14e78201613b075750674563918244f40000919050565b600080614076612a4b565b905060001960005b82518110156141f55782818151811061409957614099614ec1565b6020026020010151604001516141ed5760006140b36107be565b6001600160a01b031663912929df8584815181106140d3576140d3614ec1565b6020026020010151600001516040518263ffffffff1660e01b81526004016140fd91815260200190565b602060405180830381865afa15801561411a573d6000803e3d6000fd5b505050506040513d601f19601f8201168201806040525081019061413e9190614e65565b6040516375719b0160e11b81523060048201526001600160a01b03919091169063eae3360290602401602060405180830381865afa158015614184573d6000803e3d6000fd5b505050506040513d601f19601f820116820180604052508101906141a89190614e82565b9050806000036141bd57600094505050505090565b6141e98483815181106141d2576141d2614ec1565b60200260200101516020015182610fa19190614e51565b9250505b60010161407e565b5092915050565b6000816142098185614e51565b6139b69190614e24565b61421b6109be565b8261423957604051632dbfd57b60e01b815260040160405180910390fd5b60006142436107be565b6001600160a01b031663912929df856040518263ffffffff1660e01b815260040161427091815260200190565b602060405180830381865afa15801561428d573d6000803e3d6000fd5b505050506040513d601f19601f820116820180604052508101906142b19190614e65565b6040516370a0823160e01b81523060048201529091506000906001600160a01b038316906370a0823190602401602060405180830381865afa1580156142fb573d6000803e3d6000fd5b505050506040513d601f19601f8201168201806040525081019061431f9190614e82565b905080600003614330575050505050565b8083111561433c578092505b82156129665760405163a9059cbb60e01b81526001600160a01b0385811660048301526024820185905283169063a9059cbb906044016020604051808303816000875af1158015614391573d6000803e3d6000fd5b505050506040513d601f19601f82011682018060405250810190612a439190614f05565b600154600090670de0b6b3a764000060056143cf83613ec7565b6143d884614753565b6003546143e59190614e24565b6143ef9190614e24565b6143f99190614e24565b6144039190614e51565b91505090565b6000806144146132de565b61441c6123db565b6144269190614eae565b9050614403600582614e24565b60006005600060029054906101000a90046001600160a01b03166001600160a01b0316632de7e9b06040518163ffffffff1660e01b8152600401602060405180830381865afa15801561448a573d6000803e3d6000fd5b505050506040513d601f19601f820116820180604052508101906144ae9190614e65565b6001600160a01b031663cf35a3a96040518163ffffffff1660e01b8152600401602060405180830381865afa1580156144eb573d6000803e3d6000fd5b505050506040513d601f19601f8201168201806040525081019061450f9190614e82565b61085d9190614e24565b60408051808201909152600080825260208201528360000361454f575060408051808201909152600080825260208201526132d4565b600061455b8888614e9b565b905060006145698688614eae565b905060006145778786614e51565b90508186106145a0576040518060400160405280828152602001600081525093505050506132d4565b60006145ac8784614e9b565b905060006145ba82866150cb565b156145d9576145c98286614e51565b6145d4906001614eae565b6145e3565b6145e38286614e51565b90508760000361461857604051806040016040528061460285846139a5565b81526020016000815250955050505050506132d4565b8083116146415760405180604001604052808481526020016000815250955050505050506132d4565b6000888561464f8487614e9b565b6146599190614e24565b6146639190614e51565b604080518082019091529283526020830152509b9a5050505050505050505050565b6146a960405180606001604052806000815260200160008152602001600081525090565b60006146b5888a6139a5565b905060006146cc6146c6838c614e9b565b896139a5565b905060006146da888c614e24565b905060006146e88784614e24565b6146f28986614e24565b6146fc9190614eae565b9050600061470a8284614eae565b90506000614718898f614e24565b905060006147268985614e51565b60408051606081018252948552602085019390935291830191909152509c9b505050505050505050505050565b6040805180820190915260048152634641524d60e01b60209091015260007fea182adbe8a99c0376d68ae8663b1e572fb013df4142853d0efacd6d83e4a3f382016147a757506706f05b59d3b20000919050565b60408051808201909152600a8152691315535091549352531360b21b6020909101527f9105c25cd4a4f5de306390a4361214e261c5b47733a14849b60e1afd6befe9a782016147ff57506705f7aab8c56b0000919050565b6040805180820190915260048152634d494e4560e01b6020909101527fba703fbcaf9339015e918255c7c6fb66106877b9277228701a99875362186bbc8201614851575067058d15e176280000919050565b604080518082019091526006815265534d4954485960d01b6020909101527f172dd3f67874f5199aae0df823a0dbc7dc361e67643d2a2054a704e56cc7902e82016148a55750670494654067e10000919050565b6040805180820190915260048152631193d49560e21b6020909101527fd6ee2a35c7750db1280c6e5b14dbb9643f0276ca328c44ef8a35818fd5bd14e78201613b07575067058d15e176280000919050565b60006020828403121561490957600080fd5b5035919050565b6001600160a01b038116811461492557600080fd5b50565b60008083601f84011261493a57600080fd5b50813567ffffffffffffffff81111561495257600080fd5b6020830191508360208260051b8501011115611b5757600080fd5b600080600080600080600060a0888a03121561498857600080fd5b873561499381614910565b96506020880135955060408801356149aa81614910565b9450606088013567ffffffffffffffff8111156149c657600080fd5b6149d28a828b01614928565b909550935050608088013567ffffffffffffffff8111156149f257600080fd5b6149fe8a828b01614928565b989b979a50959850939692959293505050565b600060208284031215614a2357600080fd5b81356001600160e01b0319811681146139b657600080fd5b600080600060608486031215614a5057600080fd5b8335614a5b81614910565b92506020840135614a6b81614910565b929592945050506040919091013590565b60008060408385031215614a8f57600080fd5b50508035926020909101359150565b600060208284031215614ab057600080fd5b81356139b681614910565b634e487b7160e01b600052604160045260246000fd5b604051601f8201601f1916810167ffffffffffffffff81118282101715614afa57614afa614abb565b604052919050565b600060208284031215614b1457600080fd5b813567ffffffffffffffff811115614b2b57600080fd5b8201601f81018413614b3c57600080fd5b803567ffffffffffffffff811115614b5657614b56614abb565b614b69601f8201601f1916602001614ad1565b818152856020838501011115614b7e57600080fd5b81602084016020830137600091810160200191909152949350505050565b60008060408385031215614baf57600080fd5b8235614bba81614910565b946020939093013593505050565b602080825282518282018190526000918401906040840190835b81811015614c2157614c0b83855180518252602080820151908301526040908101511515910152565b6020939093019260609290920191600101614be2565b509095945050505050565b60008083601f840112614c3e57600080fd5b50813567ffffffffffffffff811115614c5657600080fd5b602083019150836020828501011115611b5757600080fd5b60008060008060008060008060a0898b031215614c8a57600080fd5b8835614c9581614910565b97506020890135614ca581614910565b9650604089013567ffffffffffffffff811115614cc157600080fd5b614ccd8b828c01614928565b909750955050606089013567ffffffffffffffff811115614ced57600080fd5b614cf98b828c01614928565b909550935050608089013567ffffffffffffffff811115614d1957600080fd5b614d258b828c01614c2c565b999c989b5096995094979396929594505050565b602080825282518282018190526000918401906040840190835b81811015614c2157614d7c83855180518252602080820151908301526040908101511515910152565b6020939093019260609290920191600101614d53565b60008060008060008060a08789031215614dab57600080fd5b8635614db681614910565b95506020870135614dc681614910565b94506040870135935060608701359250608087013567ffffffffffffffff811115614df057600080fd5b614dfc89828a01614c2c565b979a9699509497509295939492505050565b634e487b7160e01b600052601160045260246000fd5b808202811582820484141761074d5761074d614e0e565b634e487b7160e01b600052601260045260246000fd5b600082614e6057614e60614e3b565b500490565b600060208284031215614e7757600080fd5b81516139b681614910565b600060208284031215614e9457600080fd5b5051919050565b8181038181111561074d5761074d614e0e565b8082018082111561074d5761074d614e0e565b634e487b7160e01b600052603260045260246000fd5b60008060408385031215614eea57600080fd5b8251614ef581614910565b6020939093015192949293505050565b600060208284031215614f1757600080fd5b815180151581146139b657600080fd5b600060208284031215614f3957600080fd5b815167ffffffffffffffff811115614f5057600080fd5b8201601f81018413614f6157600080fd5b805167ffffffffffffffff811115614f7b57614f7b614abb565b8060051b614f8b60208201614ad1565b91825260208184018101929081019087841115614fa757600080fd5b6020850194505b8385101561205b5784519250614fc383614910565b82825260209485019490910190614fae565b6001815b600184111561501057808504811115614ff457614ff4614e0e565b600184161561500257908102905b60019390931c928002614fd9565b935093915050565b6000826150275750600161074d565b816150345750600061074d565b816001811461504a576002811461505457615070565b600191505061074d565b60ff84111561506557615065614e0e565b50506001821b61074d565b5060208310610133831016604e8410600b8410161715615093575081810a61074d565b6150a06000198484614fd5565b80600019048211156150b4576150b4614e0e565b029392505050565b60006139b660ff841683615018565b6000826150da576150da614e3b565b50069056fea2646970667358221220fd29104ebbdc0e4be2e80c8c2d6a37a35bdbc80ea56e641e94b65af10e5435da64736f6c634300081a0033",
  "linkReferences": {},
  "deployedLinkReferences": {}
}