{
  "_format": "hh-sol-artifact-1",
  "contractName": "Siege",
  "sourceName": "contracts/core/assets/siege/Siege.sol",
  "abi": [
    {
      "inputs": [],
      "name": "OnlyActiveGame",
      "type": "error"
    },
    {
      "inputs": [],
      "name": "OnlyMightyCreator",
      "type": "error"
    },
    {
      "inputs": [],
      "name": "OnlyWorldAssetFromSameEra",
      "type": "error"
    },
    {
      "inputs": [],
      "name": "RobberyPointsSwapNotAllowedDueToNothingWasStolenAndBurned",
      "type": "error"
    },
    {
      "inputs": [],
      "name": "RobberyPointsSwapNotAllowedDueToSpecifiedBuildingAddressDoesNotBelongToSettlementOfThisSiege",
      "type": "error"
    },
    {
      "inputs": [],
      "name": "RobberyPointsSwapNotAllowedDueToSpecifiedBuildingAddressIsNotPartOfEra",
      "type": "error"
    },
    {
      "inputs": [],
      "name": "RobberyPointsSwapNotAllowedDueToWrongMaxPointsToSpendSpecified",
      "type": "error"
    },
    {
      "inputs": [],
      "name": "SiegeCannotBeModifiedDueToInvalidUnitsAmountSpecified",
      "type": "error"
    },
    {
      "inputs": [],
      "name": "SiegeCannotLiquidateArmy",
      "type": "error"
    },
    {
      "inputs": [],
      "name": "UnknownInputParameter",
      "type": "error"
    },
    {
      "anonymous": false,
      "inputs": [
        {
          "indexed": false,
          "internalType": "address",
          "name": "armyAddress",
          "type": "address"
        }
      ],
      "name": "ArmyLiquidated",
      "type": "event"
    },
    {
      "anonymous": false,
      "inputs": [
        {
          "indexed": false,
          "internalType": "address",
          "name": "armyAddress",
          "type": "address"
        },
        {
          "indexed": false,
          "internalType": "bytes32[]",
          "name": "unitTypeIds",
          "type": "bytes32[]"
        },
        {
          "indexed": false,
          "internalType": "bool[]",
          "name": "toAddIndication",
          "type": "bool[]"
        },
        {
          "indexed": false,
          "internalType": "uint256[]",
          "name": "unitsAmounts",
          "type": "uint256[]"
        },
        {
          "indexed": false,
          "internalType": "uint256",
          "name": "newRobberyMultiplier",
          "type": "uint256"
        },
        {
          "indexed": false,
          "internalType": "uint256",
          "name": "newTotalSiegePower",
          "type": "uint256"
        }
      ],
      "name": "ArmySiegeModified",
      "type": "event"
    },
    {
      "anonymous": false,
      "inputs": [
        {
          "indexed": false,
          "internalType": "address",
          "name": "armyAddress",
          "type": "address"
        },
        {
          "indexed": false,
          "internalType": "address",
          "name": "buildingAddress",
          "type": "address"
        },
        {
          "indexed": false,
          "internalType": "uint256",
          "name": "stolenAmount",
          "type": "uint256"
        },
        {
          "indexed": false,
          "internalType": "uint256",
          "name": "burnedAmount",
          "type": "uint256"
        },
        {
          "indexed": false,
          "internalType": "uint256",
          "name": "pointsSpent",
          "type": "uint256"
        },
        {
          "indexed": false,
          "internalType": "uint256",
          "name": "newRobberyPointsAmount",
          "type": "uint256"
        }
      ],
      "name": "BuildingRobbed",
      "type": "event"
    },
    {
      "anonymous": false,
      "inputs": [
        {
          "indexed": false,
          "internalType": "uint8",
          "name": "version",
          "type": "uint8"
        }
      ],
      "name": "Initialized",
      "type": "event"
    },
    {
      "inputs": [
        {
          "internalType": "uint256",
          "name": "damage",
          "type": "uint256"
        }
      ],
      "name": "applyDamage",
      "outputs": [],
      "stateMutability": "nonpayable",
      "type": "function"
    },
    {
      "inputs": [
        {
          "internalType": "address",
          "name": "",
          "type": "address"
        }
      ],
      "name": "armyInfo",
      "outputs": [
        {
          "internalType": "uint256",
          "name": "robberyMultiplier",
          "type": "uint256"
        },
        {
          "internalType": "uint256",
          "name": "pointsDebt",
          "type": "uint256"
        },
        {
          "internalType": "uint256",
          "name": "points",
          "type": "uint256"
        }
      ],
      "stateMutability": "view",
      "type": "function"
    },
    {
      "inputs": [],
      "name": "assetGroupId",
      "outputs": [
        {
          "internalType": "bytes32",
          "name": "",
          "type": "bytes32"
        }
      ],
      "stateMutability": "view",
      "type": "function"
    },
    {
      "inputs": [],
      "name": "assetTypeId",
      "outputs": [
        {
          "internalType": "bytes32",
          "name": "",
          "type": "bytes32"
        }
      ],
      "stateMutability": "view",
      "type": "function"
    },
    {
      "inputs": [
        {
          "internalType": "address",
          "name": "",
          "type": "address"
        },
        {
          "internalType": "bytes32",
          "name": "",
          "type": "bytes32"
        }
      ],
      "name": "besiegingArmyUnitsByType",
      "outputs": [
        {
          "internalType": "uint256",
          "name": "",
          "type": "uint256"
        }
      ],
      "stateMutability": "view",
      "type": "function"
    },
    {
      "inputs": [
        {
          "internalType": "address",
          "name": "armyAddress",
          "type": "address"
        }
      ],
      "name": "calculateArmyTotalSiegePower",
      "outputs": [
        {
          "internalType": "uint256",
          "name": "",
          "type": "uint256"
        }
      ],
      "stateMutability": "view",
      "type": "function"
    },
    {
      "inputs": [
        {
          "internalType": "address",
          "name": "armyAddress",
          "type": "address"
        }
      ],
      "name": "calculateArmyUnitsSiegePower",
      "outputs": [
        {
          "internalType": "uint256",
          "name": "",
          "type": "uint256"
        }
      ],
      "stateMutability": "view",
      "type": "function"
    },
    {
      "inputs": [
        {
          "internalType": "address",
          "name": "armyAddress",
          "type": "address"
        }
      ],
      "name": "canLiquidateArmyBesiegingUnits",
      "outputs": [
        {
          "internalType": "bool",
          "name": "",
          "type": "bool"
        }
      ],
      "stateMutability": "view",
      "type": "function"
    },
    {
      "inputs": [],
      "name": "era",
      "outputs": [
        {
          "internalType": "contract IEra",
          "name": "",
          "type": "address"
        }
      ],
      "stateMutability": "view",
      "type": "function"
    },
    {
      "inputs": [],
      "name": "eraNumber",
      "outputs": [
        {
          "internalType": "uint256",
          "name": "",
          "type": "uint256"
        }
      ],
      "stateMutability": "view",
      "type": "function"
    },
    {
      "inputs": [
        {
          "internalType": "address",
          "name": "armyAddress",
          "type": "address"
        }
      ],
      "name": "getArmyBesiegingUnitsAmounts",
      "outputs": [
        {
          "internalType": "uint256[]",
          "name": "",
          "type": "uint256[]"
        }
      ],
      "stateMutability": "view",
      "type": "function"
    },
    {
      "inputs": [
        {
          "internalType": "address",
          "name": "armyAddress",
          "type": "address"
        },
        {
          "internalType": "uint256",
          "name": "timestamp",
          "type": "uint256"
        }
      ],
      "name": "getArmyRobberyPoints",
      "outputs": [
        {
          "internalType": "uint256",
          "name": "",
          "type": "uint256"
        }
      ],
      "stateMutability": "view",
      "type": "function"
    },
    {
      "inputs": [
        {
          "internalType": "bytes",
          "name": "initParams",
          "type": "bytes"
        }
      ],
      "name": "init",
      "outputs": [],
      "stateMutability": "nonpayable",
      "type": "function"
    },
    {
      "inputs": [
        {
          "internalType": "address",
          "name": "armyAddress",
          "type": "address"
        }
      ],
      "name": "liquidate",
      "outputs": [],
      "stateMutability": "nonpayable",
      "type": "function"
    },
    {
      "inputs": [
        {
          "internalType": "address",
          "name": "armyAddress",
          "type": "address"
        },
        {
          "internalType": "bytes32[]",
          "name": "unitTypeIds",
          "type": "bytes32[]"
        },
        {
          "internalType": "bool[]",
          "name": "toAddIndication",
          "type": "bool[]"
        },
        {
          "internalType": "uint256[]",
          "name": "unitsAmounts",
          "type": "uint256[]"
        },
        {
          "internalType": "uint256",
          "name": "newRobberyMultiplier",
          "type": "uint256"
        }
      ],
      "name": "modifyArmySiege",
      "outputs": [],
      "stateMutability": "nonpayable",
      "type": "function"
    },
    {
      "inputs": [],
      "name": "registry",
      "outputs": [
        {
          "internalType": "contract IRegistry",
          "name": "",
          "type": "address"
        }
      ],
      "stateMutability": "view",
      "type": "function"
    },
    {
      "inputs": [],
      "name": "relatedSettlement",
      "outputs": [
        {
          "internalType": "contract ISettlement",
          "name": "",
          "type": "address"
        }
      ],
      "stateMutability": "view",
      "type": "function"
    },
    {
      "inputs": [],
      "name": "robberyPointsPerOneDamage",
      "outputs": [
        {
          "internalType": "uint256",
          "name": "",
          "type": "uint256"
        }
      ],
      "stateMutability": "view",
      "type": "function"
    },
    {
      "inputs": [
        {
          "internalType": "address",
          "name": "buildingAddress",
          "type": "address"
        },
        {
          "internalType": "uint256",
          "name": "maxPointsToSpend",
          "type": "uint256"
        }
      ],
      "name": "swapRobberyPointsForResourceFromBuildingTreasury",
      "outputs": [],
      "stateMutability": "nonpayable",
      "type": "function"
    },
    {
      "inputs": [],
      "name": "totalSiegePower",
      "outputs": [
        {
          "internalType": "uint256",
          "name": "",
          "type": "uint256"
        }
      ],
      "stateMutability": "view",
      "type": "function"
    },
    {
      "inputs": [],
      "name": "world",
      "outputs": [
        {
          "internalType": "contract IWorld",
          "name": "",
          "type": "address"
        }
      ],
      "stateMutability": "view",
      "type": "function"
    },
    {
      "inputs": [],
      "name": "worldAssetFactory",
      "outputs": [
        {
          "internalType": "contract IWorldAssetFactory",
          "name": "",
          "type": "address"
        }
      ],
      "stateMutability": "view",
      "type": "function"
    }
  ],
  "bytecode": "0x6080604052348015600f57600080fd5b5061262f8061001f6000396000f3fe608060405234801561001057600080fd5b50600436106101825760003560e01c806384ba89e3116100d8578063c89e12671161008c578063eacaef9011610066578063eacaef9014610391578063ece56a1a146103a4578063f09dbd5b146103ac57600080fd5b8063c89e126714610362578063cf35a3a914610375578063e34d78271461037e57600080fd5b8063a54f366e116100bd578063a54f366e1461031d578063b9767dfc14610326578063c45f10001461034957600080fd5b806384ba89e3146102cb5780639cf70dd8146102f257600080fd5b80633eb233aa1161013a5780637b103999116101145780637b103999146102895780637d039f0c146102915780637d884c74146102a457600080fd5b80633eb233aa1461020d578063417fbd1d146102565780634ddf47d41461027657600080fd5b80631abcf4711161016b5780631abcf471146101dd5780632f865568146101f257806330b67baa1461020557600080fd5b80630b4e99c314610187578063143e55e0146101bd575b600080fd5b7f6c85b93e587873fbe6712f3b438d42c2945689b262f7bd34b8ea4e3f832a89ea545b6040519081526020015b60405180910390f35b6101c56103bf565b6040516001600160a01b0390911681526020016101b4565b6101f06101eb36600461209c565b610463565b005b6101f06102003660046120c8565b61091f565b6101c5610c46565b61023b61021b3660046120c8565b600160208190526000918252604090912080549181015460029091015483565b604080519384526020840192909252908201526060016101b4565b6102696102643660046120c8565b610c79565b6040516101b49190612121565b6101f061028436600461214a565b610d4e565b6101c5610ec0565b6101aa61029f36600461209c565b610f07565b7f6c85b93e587873fbe6712f3b438d42c2945689b262f7bd34b8ea4e3f832a89e7546101aa565b7f6c85b93e587873fbe6712f3b438d42c2945689b262f7bd34b8ea4e3f832a89e9546101aa565b6101aa61030036600461209c565b600260209081526000928352604080842090915290825290205481565b6101aa60035481565b6103396103343660046120c8565b6110db565b60405190151581526020016101b4565b6000546101c5906201000090046001600160a01b031681565b6101aa6103703660046120c8565b611154565b6101aa60045481565b6101aa61038c3660046120c8565b61120a565b6101f061039f36600461224f565b611244565b6101c56115e0565b6101f06103ba36600461230f565b611627565b60006103c9610c46565b6001600160a01b031663720a70bd6103ff7f6c85b93e587873fbe6712f3b438d42c2945689b262f7bd34b8ea4e3f832a89e75490565b6040518263ffffffff1660e01b815260040161041d91815260200190565b602060405180830381865afa15801561043a573d6000803e3d6000fd5b505050506040513d601f19601f8201168201806040525081019061045e9190612328565b905090565b61046b611667565b3361047581611753565b6001600160a01b0381166000908152600160209081526040918290208251808401909352600883527f6275696c64696e67000000000000000000000000000000000000000000000000929091019190915281907f010b6fd4eff8a0ca8c7925f2d29e6173e90462d56ae99e39fa817c79f40285186104f1610c46565b6001600160a01b031663ebbe80346105277f6c85b93e587873fbe6712f3b438d42c2945689b262f7bd34b8ea4e3f832a89e75490565b6040516001600160e01b031960e084901b16815260048101919091526001600160a01b0389166024820152604401602060405180830381865afa158015610572573d6000803e3d6000fd5b505050506040513d601f19601f820116820180604052508101906105969190612345565b146105b45760405163183e5eed60e01b815260040160405180910390fd5b83816002015410156105d95760405163186c0f9b60e21b815260040160405180910390fd5b6000859050806001600160a01b031663c45f10006040518163ffffffff1660e01b8152600401602060405180830381865afa15801561061c573d6000803e3d6000fd5b505050506040513d601f19601f820116820180604052508101906106409190612328565b6000546201000090046001600160a01b0390811691161461067457604051632f781f0560e11b815260040160405180910390fd5b60006106e0826001600160a01b03166304b10ac86040518163ffffffff1660e01b8152600401602060405180830381865afa1580156106b7573d6000803e3d6000fd5b505050506040513d601f19601f820116820180604052508101906106db9190612345565b611842565b90506000670de0b6b3a76400006106f78389612374565b61070191906123a1565b9050826001600160a01b0316631d8557d76040518163ffffffff1660e01b8152600401600060405180830381600087803b15801561073e57600080fd5b505af1158015610752573d6000803e3d6000fd5b50505050600080846001600160a01b031663589ae400886001600160a01b031663c45f10006040518163ffffffff1660e01b8152600401602060405180830381865afa1580156107a6573d6000803e3d6000fd5b505050506040513d601f19601f820116820180604052508101906107ca9190612328565b6040516001600160e01b031960e084901b1681526001600160a01b0390911660048201526024810186905260440160408051808303816000875af1158015610816573d6000803e3d6000fd5b505050506040513d601f19601f8201168201806040525081019061083a91906123b5565b9150915081600014801561084c575080155b1561086a576040516336ab9f2960e21b815260040160405180910390fd5b60008461087783856123d9565b61088990670de0b6b3a7640000612374565b61089391906123a1565b9050808760020160008282546108a991906123ec565b90915550506002870154604080516001600160a01b038c811682528e166020820152808201869052606081018590526080810184905260a0810192909252517f68a2b96508e3df357fd8fb4ff27dd7c97d0e321c30770fc502222930bde373949181900360c00190a15050505050505050505050565b6109276119a5565b600060029054906101000a90046001600160a01b03166001600160a01b031663aef281d36040518163ffffffff1660e01b8152600401600060405180830381600087803b15801561097757600080fd5b505af115801561098b573d6000803e3d6000fd5b505050506000819050806001600160a01b0316631d8557d76040518163ffffffff1660e01b8152600401600060405180830381600087803b1580156109cf57600080fd5b505af11580156109e3573d6000803e3d6000fd5b505050506109f0826110db565b610a0d576040516313c0818160e31b815260040160405180910390fd5b6000610a17611ad6565b90506000815167ffffffffffffffff811115610a3557610a35612134565b604051908082528060200260200182016040528015610a5e578160200160208202803683370190505b5090506000825167ffffffffffffffff811115610a7d57610a7d612134565b604051908082528060200260200182016040528015610aa6578160200160208202803683370190505b50905060005b8351811015610b43576000838281518110610ac957610ac96123ff565b9115156020928302919091018201526001600160a01b03871660009081526002909152604081208551909190869084908110610b0757610b076123ff565b6020026020010151815260200190815260200160002054828281518110610b3057610b306123ff565b6020908102919091010152600101610aac565b50604051630eacaef960e41b8152309063eacaef9090610b70908890879087908790600090600401612415565b600060405180830381600087803b158015610b8a57600080fd5b505af1158015610b9e573d6000803e3d6000fd5b50506040516389609e9f60e01b81526001600160a01b03871692506389609e9f9150610bd09086908590600401612497565b600060405180830381600087803b158015610bea57600080fd5b505af1158015610bfe573d6000803e3d6000fd5b50506040516001600160a01b03881681527f8c1485670613da39f0af37e94fc886c121013aa7275fc5b78a09a70f81ed79299250602001905060405180910390a15050505050565b600061045e7f6c85b93e587873fbe6712f3b438d42c2945689b262f7bd34b8ea4e3f832a89e6546001600160a01b031690565b60606000610c85611ad6565b90506000815167ffffffffffffffff811115610ca357610ca3612134565b604051908082528060200260200182016040528015610ccc578160200160208202803683370190505b50905060005b8251811015610d46576001600160a01b03851660009081526002602052604081208451909190859084908110610d0a57610d0a6123ff565b6020026020010151815260200190815260200160002054828281518110610d3357610d336123ff565b6020908102919091010152600101610cd2565b509392505050565b600054610100900460ff1615808015610d6e5750600054600160ff909116105b80610d885750303b158015610d88575060005460ff166001145b610dfe5760405162461bcd60e51b815260206004820152602e60248201527f496e697469616c697a61626c653a20636f6e747261637420697320616c72656160448201527f647920696e697469616c697a6564000000000000000000000000000000000000606482015260840160405180910390fd5b6000805460ff191660011790558015610e21576000805461ff0019166101001790555b600082806020019051810190610e379190612328565b600080546001600160a01b0390921662010000027fffffffffffffffffffff0000000000000000000000000000000000000000ffff909216919091179055508015610ebc576000805461ff0019169055604051600181527f7f26b83ff96e1f2b6a682f133852f6798a09c465da95921460cefb38474024989060200160405180910390a15b5050565b6000610eca610c46565b6001600160a01b0316637b1039996040518163ffffffff1660e01b8152600401602060405180830381865afa15801561043a573d6000803e3d6000fd5b600080546040805180820182526004808252631193d49560e21b6020909201919091529051631b973c5760e21b81527f2911d5ca388af24ed7f391a4eb24469bc0fd8935cd73bb1075ca7e702a42eb199181019190915282916201000090046001600160a01b031690636e5cf15c90602401602060405180830381865afa158015610f96573d6000803e3d6000fd5b505050506040513d601f19601f82011682018060405250810190610fba9190612328565b60405163e2ac48c760e01b8152600481018590529091506000906001600160a01b0383169063e2ac48c790602401602060405180830381865afa158015611005573d6000803e3d6000fd5b505050506040513d601f19601f820116820180604052508101906110299190612345565b600454909150600081900361104457600093505050506110d5565b6001600160a01b03861660009081526001602052604081209061106688611154565b90506000611078828460000154611b82565b905060006110868686611ba1565b905060008160035461109891906123d9565b90506000856001015482856110ad9190612374565b6110b791906123ec565b90508086600201546110c991906123d9565b99505050505050505050505b92915050565b6000806110e783611154565b905080836001600160a01b031663ab6a9acb6040518163ffffffff1660e01b8152600401602060405180830381865afa158015611128573d6000803e3d6000fd5b505050506040513d601f19601f8201168201806040525081019061114c9190612345565b109392505050565b60008061115f611ad6565b90506000805b8251811015610d46576000838281518110611182576111826123ff565b6020908102919091018101516001600160a01b038816600090815260028352604080822083835290935291822054909250908190036111c2575050611202565b60006111cd83611be1565b9050670de0b6b3a76400008160800151836111e89190612374565b6111f291906123a1565b6111fc90866123d9565b94505050505b600101611165565b60008061121683611154565b6001600160a01b03841660009081526001602052604090205490915061123d908290611b82565b9392505050565b61124c611667565b61125588611753565b60006112608961120a565b905060005b87811015611500576000858583818110611281576112816123ff565b9050602002013590508060000361129857506114f8565b6112aa81670de0b6b3a7640000611db8565b6112c7576040516367c8babf60e11b815260040160405180910390fd5b60008a8a848181106112db576112db6123ff565b90506020020135905060006112ee6103bf565b6001600160a01b031663feae7dc3836040518263ffffffff1660e01b815260040161131b91815260200190565b602060405180830381865afa158015611338573d6000803e3d6000fd5b505050506040513d601f19601f8201168201806040525081019061135c9190612328565b9050898985818110611370576113706123ff565b905060200201602081019061138591906124d3565b15611441576001600160a01b038d166000908152600260209081526040808320858452909152812080548592906113bd9084906123d9565b90915550506040516323b872dd60e01b81526001600160a01b038e81166004830152306024830152604482018590528216906323b872dd906064016020604051808303816000875af1158015611417573d6000803e3d6000fd5b505050506040513d601f19601f8201168201806040525081019061143b91906124f0565b506114f4565b6001600160a01b038d166000908152600260209081526040808320858452909152812080548592906114749084906123ec565b90915550506040516323b872dd60e01b81523060048201526001600160a01b038e81166024830152604482018590528216906323b872dd906064016020604051808303816000875af11580156114ce573d6000803e3d6000fd5b505050506040513d601f19601f820116820180604052508101906114f291906124f0565b505b5050505b600101611265565b506001600160a01b0389166000908152600160205260408120838155906115268b611154565b905060006115348286611b82565b9050600354816115449190612374565b6001840155600081900361155757600083555b80841461158957838160045461156d91906123d9565b61157791906123ec565b60048190556000036115895760006003555b7f2dec860ff69006eefd52e875bed95502113738d4d5578f09e539f8a6ebdb1d2e8c8c8c8c8c8c8c8c6004546040516115ca99989796959493929190612558565b60405180910390a1505050505050505050505050565b60006115ea610ec0565b6001600160a01b031663ece56a1a6040518163ffffffff1660e01b8152600401602060405180830381865afa15801561043a573d6000803e3d6000fd5b61162f611667565b600061163d82600454611ba1565b90508060000361164b575050565b806003600082825461165d91906123d9565b9091555050505b50565b61166f610c46565b6001600160a01b0316336001600160a01b03161415801561173357506000611695610c46565b6001600160a01b031663ebbe80346116cb7f6c85b93e587873fbe6712f3b438d42c2945689b262f7bd34b8ea4e3f832a89e75490565b6040516001600160e01b031960e084901b1681526004810191909152336024820152604401602060405180830381865afa15801561170d573d6000803e3d6000fd5b505050506040513d601f19601f820116820180604052508101906117319190612345565b145b156117515760405163422656d160e01b815260040160405180910390fd5b565b600060029054906101000a90046001600160a01b03166001600160a01b031663aef281d36040518163ffffffff1660e01b8152600401600060405180830381600087803b1580156117a357600080fd5b505af11580156117b7573d6000803e3d6000fd5b5050506001600160a01b038216600090815260016020526040812091506117dd83611154565b905060006117ef828460000154611b82565b90506000600354826118019190612374565b9050600084600101548261181591906123ec565b905080156118335780856002015461182d91906123d9565b60028601555b50600190930192909255505050565b6040805180820190915260048152631193d3d160e21b60209091015260007fd090a5d9e290baeb3c0f657cb8df01a7c37d0d11b8a73165ba04298bd71606c382016118965750670de0b6b3a7640000919050565b60408051808201909152600481526315d3d3d160e21b6020909101527fa0c2c402a49ee67eb7d8a3e87eb93de113a3a54817e8a70c39ae8ab51c0e12be82016118e85750670de0b6b3a7640000919050565b6040805180820190915260038152624f524560e81b6020909101527f624ae31110c92d70b58ec456bb42524ff16773a98936d8ef150f1e6b104b34ab82016119395750670de0b6b3a7640000919050565b604080518082019091526005815264125391d3d560da1b6020909101527f0b2c26746c5e8d6f1877c4437947c29fc4d8103cd72878c4c039b7afe27c1a8e820161198c5750670de0b6b3a7640000919050565b60405163ea3b0abb60e01b815260040160405180910390fd5b60006119af610c46565b6001600160a01b0316633c8ca83d6040518163ffffffff1660e01b8152600401602060405180830381865afa1580156119ec573d6000803e3d6000fd5b505050506040513d601f19601f82011682018060405250810190611a109190612345565b90506000611a1c610c46565b6001600160a01b03166344d9bc5f6040518163ffffffff1660e01b8152600401602060405180830381865afa158015611a59573d6000803e3d6000fd5b505050506040513d601f19601f82011682018060405250810190611a7d9190612345565b9050811580611a8b57508142105b15611aa95760405163a00eda6960e01b815260040160405180910390fd5b8015801590611ab85750804210155b15610ebc5760405163a00eda6960e01b815260040160405180910390fd5b60606000611ae2611dcc565b90506000815167ffffffffffffffff811115611b0057611b00612134565b604051908082528060200260200182016040528015611b29578160200160208202803683370190505b50905060005b8151811015611b7b57828181518110611b4a57611b4a6123ff565b602002602001015160400151828281518110611b6857611b686123ff565b6020908102919091010152600101611b2f565b5092915050565b6000670de0b6b3a7640000611b978385612374565b61123d91906123a1565b6000821580611bae575081155b15611bbb575060006110d5565b81670de0b6b3a7640000611bd7674563918244f4000086612374565b611b9791906123a1565b611c1a6040518060c001604052806000815260200160008152602001600081526020016000815260200160008152602001600081525090565b6040805180820190915260078152662ba0a92924a7a960c91b6020909101527f963ace81a31bb0e5e04a9395a1006fbdeb19cac259cef54f594aee1106583c6f8201611ca4576040518060c0016040528060008152602001601481526020016005815260200160058152602001650a86cc92e3da815260200165150d9925c7b48152509050919050565b60408051808201909152600681526520a921a422a960d11b6020909101527fbd21a0403f8a882c166bd206a22b19e35435476f82a2cccdbfebf4d666c861c08201611d2d576040518060c0016040528060058152602001600581526020016000815260200160058152602001650a86cc92e3da815260200165150d9925c7b48152509050919050565b6040805180820190915260088152672427a929a2a6a0a760c11b6020909101527f762a1190b034cd04c3eae43da1943cdf0137d457634c4d62e69626f81f1986c7820161198c576040518060c0016040528060008152602001600581526020016005815260200160148152602001650a86cc92e3da815260200165150d9925c7b48152509050919050565b6000611dc482846125e5565b159392505050565b6040805160038082526080820190925260609160009190816020015b60408051606080820183528082526020820152600091810191909152815260200190600190039081611de85750506040805160a0810182526011606082019081527f4d697468726165756d2057617272696f720000000000000000000000000000006080830152815281518083018352600881527f6d57415252494f52000000000000000000000000000000000000000000000000602080830191909152808301919091528251808401845260078152662ba0a92924a7a960c91b9101527f69c5317e5ce44f1a1fb56c6a5eff904214e6353da6310ab0a6b511eef9a7c391918101919091528151919250908290600090611ee557611ee56123ff565b6020908102919091018101919091526040805160a0810182526010606082019081527f4d697468726165756d20417263686572000000000000000000000000000000006080830152815281518083018352600781526636a0a921a422a960c91b818501528184015281518083018352600681526520a921a422a960d11b9301929092527f42de5fbfc07577d3e9942df95dd4e61cabcab8907d5d333240140b2999379e4090820152815182906001908110611fa257611fa26123ff565b6020908102919091018101919091526040805160a0810182526012606082019081527f4d697468726165756d20486f7273656d616e00000000000000000000000000006080830152815281518083018352600981527f6d484f5253454d414e000000000000000000000000000000000000000000000081850152818401528151808301835260088152672427a929a2a6a0a760c11b9301929092527f89d5ee6f4fcb32fb3c151bc25e6bc320fec82ba89cb3b29d1969d907e0e6793990820152815182906002908110612077576120776123ff565b6020908102919091010152919050565b6001600160a01b038116811461166457600080fd5b600080604083850312156120af57600080fd5b82356120ba81612087565b946020939093013593505050565b6000602082840312156120da57600080fd5b813561123d81612087565b600081518084526020840193506020830160005b828110156121175781518652602095860195909101906001016120f9565b5093949350505050565b60208152600061123d60208301846120e5565b634e487b7160e01b600052604160045260246000fd5b60006020828403121561215c57600080fd5b813567ffffffffffffffff81111561217357600080fd5b8201601f8101841361218457600080fd5b803567ffffffffffffffff81111561219e5761219e612134565b604051601f8201601f19908116603f0116810167ffffffffffffffff811182821017156121cd576121cd612134565b6040528181528282016020018610156121e557600080fd5b81602084016020830137600091810160200191909152949350505050565b60008083601f84011261221557600080fd5b50813567ffffffffffffffff81111561222d57600080fd5b6020830191508360208260051b850101111561224857600080fd5b9250929050565b60008060008060008060008060a0898b03121561226b57600080fd5b883561227681612087565b9750602089013567ffffffffffffffff81111561229257600080fd5b61229e8b828c01612203565b909850965050604089013567ffffffffffffffff8111156122be57600080fd5b6122ca8b828c01612203565b909650945050606089013567ffffffffffffffff8111156122ea57600080fd5b6122f68b828c01612203565b999c989b50969995989497949560800135949350505050565b60006020828403121561232157600080fd5b5035919050565b60006020828403121561233a57600080fd5b815161123d81612087565b60006020828403121561235757600080fd5b5051919050565b634e487b7160e01b600052601160045260246000fd5b80820281158282048414176110d5576110d561235e565b634e487b7160e01b600052601260045260246000fd5b6000826123b0576123b061238b565b500490565b600080604083850312156123c857600080fd5b505080516020909101519092909150565b808201808211156110d5576110d561235e565b818103818111156110d5576110d561235e565b634e487b7160e01b600052603260045260246000fd5b6001600160a01b038616815260a06020820152600061243760a08301876120e5565b82810360408401528551808252602080880192019060005b8181101561246f578351151583526020938401939092019160010161244f565b5050838103606085015261248381876120e5565b925050508260808301529695505050505050565b6040815260006124aa60408301856120e5565b82810360208401526124bc81856120e5565b95945050505050565b801515811461166457600080fd5b6000602082840312156124e557600080fd5b813561123d816124c5565b60006020828403121561250257600080fd5b815161123d816124c5565b81835260007f07ffffffffffffffffffffffffffffffffffffffffffffffffffffffffffffff83111561253f57600080fd5b8260051b80836020870137939093016020019392505050565b6001600160a01b038a16815260c06020820152600061257b60c083018a8c61250d565b8281036040840152878152889060200160005b898110156125b75782356125a1816124c5565b151582526020928301929091019060010161258e565b5083810360608501526125cb81888a61250d565b608085019690965250505060a00152979650505050505050565b6000826125f4576125f461238b565b50069056fea2646970667358221220be429e679a35bc4f482ad7319dc91020f42e7ea43ab45bacd60aac59d990267764736f6c634300081a0033",
  "linkReferences": {},
  "deployedLinkReferences": {}
}