{
  "_format": "hh-sol-artifact-1",
  "contractName": "SettlementsMarket",
  "sourceName": "contracts/core/assets/settlementsMarket/SettlementMarket.sol",
  "abi": [
    {
      "inputs": [],
      "name": "OnlyActiveGame",
      "type": "error"
    },
    {
      "inputs": [],
      "name": "OnlyMightyCreator",
      "type": "error"
    },
    {
      "inputs": [],
      "name": "OnlyWorldAssetFromSameEra",
      "type": "error"
    },
    {
      "inputs": [],
      "name": "ReentrantCall",
      "type": "error"
    },
    {
      "inputs": [],
      "name": "SettlementCannotBeBoughtDueInsufficientValueSent",
      "type": "error"
    },
    {
      "inputs": [],
      "name": "SettlementCannotBeBoughtDueToCostIsHigherThanMaxTokensToUseSpecified",
      "type": "error"
    },
    {
      "inputs": [],
      "name": "SettlementCannotBeBoughtForFreeAfterGameBegan",
      "type": "error"
    },
    {
      "inputs": [],
      "name": "SettlementCannotBeBoughtForNotOwnerBannerNft",
      "type": "error"
    },
    {
      "inputs": [],
      "name": "SettlementCannotBeBoughtOnNonExistentPosition",
      "type": "error"
    },
    {
      "inputs": [],
      "name": "SettlementCannotBeBoughtOnPositionWhichIsNotRelatedToThisSettlementMarket",
      "type": "error"
    },
    {
      "inputs": [],
      "name": "UnknownInputParameter",
      "type": "error"
    },
    {
      "anonymous": false,
      "inputs": [
        {
          "indexed": false,
          "internalType": "uint8",
          "name": "version",
          "type": "uint8"
        }
      ],
      "name": "Initialized",
      "type": "event"
    },
    {
      "anonymous": false,
      "inputs": [
        {
          "indexed": false,
          "internalType": "address",
          "name": "settlementAddress",
          "type": "address"
        },
        {
          "indexed": false,
          "internalType": "uint256",
          "name": "settlementCost",
          "type": "uint256"
        }
      ],
      "name": "SettlementBought",
      "type": "event"
    },
    {
      "inputs": [],
      "name": "assetGroupId",
      "outputs": [
        {
          "internalType": "bytes32",
          "name": "",
          "type": "bytes32"
        }
      ],
      "stateMutability": "view",
      "type": "function"
    },
    {
      "inputs": [],
      "name": "assetTypeId",
      "outputs": [
        {
          "internalType": "bytes32",
          "name": "",
          "type": "bytes32"
        }
      ],
      "stateMutability": "view",
      "type": "function"
    },
    {
      "inputs": [
        {
          "internalType": "uint64",
          "name": "position",
          "type": "uint64"
        },
        {
          "internalType": "uint256",
          "name": "bannerId",
          "type": "uint256"
        },
        {
          "internalType": "uint256",
          "name": "maxTokensToUse",
          "type": "uint256"
        }
      ],
      "name": "buySettlement",
      "outputs": [],
      "stateMutability": "payable",
      "type": "function"
    },
    {
      "inputs": [
        {
          "internalType": "uint64",
          "name": "position",
          "type": "uint64"
        },
        {
          "internalType": "uint256",
          "name": "bannerId",
          "type": "uint256"
        }
      ],
      "name": "buySettlementForFreeByMightyCreator",
      "outputs": [],
      "stateMutability": "nonpayable",
      "type": "function"
    },
    {
      "inputs": [],
      "name": "era",
      "outputs": [
        {
          "internalType": "contract IEra",
          "name": "",
          "type": "address"
        }
      ],
      "stateMutability": "view",
      "type": "function"
    },
    {
      "inputs": [],
      "name": "eraNumber",
      "outputs": [
        {
          "internalType": "uint256",
          "name": "",
          "type": "uint256"
        }
      ],
      "stateMutability": "view",
      "type": "function"
    },
    {
      "inputs": [
        {
          "internalType": "uint256",
          "name": "timestamp",
          "type": "uint256"
        }
      ],
      "name": "getNewSettlementCost",
      "outputs": [
        {
          "internalType": "uint256",
          "name": "",
          "type": "uint256"
        }
      ],
      "stateMutability": "view",
      "type": "function"
    },
    {
      "inputs": [
        {
          "internalType": "bytes",
          "name": "initParams",
          "type": "bytes"
        }
      ],
      "name": "init",
      "outputs": [],
      "stateMutability": "nonpayable",
      "type": "function"
    },
    {
      "inputs": [],
      "name": "marketCreationTime",
      "outputs": [
        {
          "internalType": "uint256",
          "name": "",
          "type": "uint256"
        }
      ],
      "stateMutability": "view",
      "type": "function"
    },
    {
      "inputs": [],
      "name": "registry",
      "outputs": [
        {
          "internalType": "contract IRegistry",
          "name": "",
          "type": "address"
        }
      ],
      "stateMutability": "view",
      "type": "function"
    },
    {
      "inputs": [],
      "name": "relatedRegion",
      "outputs": [
        {
          "internalType": "contract IRegion",
          "name": "",
          "type": "address"
        }
      ],
      "stateMutability": "view",
      "type": "function"
    },
    {
      "inputs": [],
      "name": "updateState",
      "outputs": [],
      "stateMutability": "nonpayable",
      "type": "function"
    },
    {
      "inputs": [],
      "name": "world",
      "outputs": [
        {
          "internalType": "contract IWorld",
          "name": "",
          "type": "address"
        }
      ],
      "stateMutability": "view",
      "type": "function"
    },
    {
      "inputs": [],
      "name": "worldAssetFactory",
      "outputs": [
        {
          "internalType": "contract IWorldAssetFactory",
          "name": "",
          "type": "address"
        }
      ],
      "stateMutability": "view",
      "type": "function"
    }
  ],
  "bytecode": "0x6080604052348015600f57600080fd5b50612e518061001f6000396000f3fe6080604052600436106100dd5760003560e01c80637b1039991161007f578063b0a0c9ce11610059578063b0a0c9ce14610251578063e6c15c9914610271578063ece56a1a14610298578063fbbdf4b0146102ad57600080fd5b80637b103999146101d45780637d884c74146101e957806384ba89e31461021d57600080fd5b806323aea47f116100bb57806323aea47f1461016957806330b67baa1461017f5780634ddf47d4146101945780636ce3c63f146101b457600080fd5b80630b4e99c3146100e2578063143e55e0146101255780631d8557d714610152575b600080fd5b3480156100ee57600080fd5b507f6c85b93e587873fbe6712f3b438d42c2945689b262f7bd34b8ea4e3f832a89ea545b6040519081526020015b60405180910390f35b34801561013157600080fd5b5061013a6102c0565b6040516001600160a01b03909116815260200161011c565b34801561015e57600080fd5b50610167610364565b005b34801561017557600080fd5b5061011260015481565b34801561018b57600080fd5b5061013a61055a565b3480156101a057600080fd5b506101676101af3660046129f5565b61058d565b3480156101c057600080fd5b506101676101cf366004612ac7565b610705565b3480156101e057600080fd5b5061013a610cbb565b3480156101f557600080fd5b507f6c85b93e587873fbe6712f3b438d42c2945689b262f7bd34b8ea4e3f832a89e754610112565b34801561022957600080fd5b507f6c85b93e587873fbe6712f3b438d42c2945689b262f7bd34b8ea4e3f832a89e954610112565b34801561025d57600080fd5b5061011261026c366004612af3565b610d02565b34801561027d57600080fd5b5060005461013a90630100000090046001600160a01b031681565b3480156102a457600080fd5b5061013a61124a565b6101676102bb366004612b0c565b611291565b60006102ca61055a565b6001600160a01b031663720a70bd6103007f6c85b93e587873fbe6712f3b438d42c2945689b262f7bd34b8ea4e3f832a89e75490565b6040518263ffffffff1660e01b815260040161031e91815260200190565b602060405180830381865afa15801561033b573d6000803e3d6000fd5b505050506040513d601f19601f8201168201806040525081019061035f9190612b56565b905090565b60008060039054906101000a90046001600160a01b03166001600160a01b031663b2fd89336040518163ffffffff1660e01b8152600401602060405180830381865afa1580156103b8573d6000803e3d6000fd5b505050506040513d601f19601f820116820180604052508101906103dc9190612b73565b905060006103e861055a565b6001600160a01b031663a8d66c756040518163ffffffff1660e01b8152600401602060405180830381865afa158015610425573d6000803e3d6000fd5b505050506040513d601f19601f820116820180604052508101906104499190612b56565b90506000610455611ba3565b60405163a57415d960e01b815267ffffffffffffffff8516600482015290915081906001600160a01b0384169063a57415d990602401602060405180830381865afa1580156104a8573d6000803e3d6000fd5b505050506040513d601f19601f820116820180604052508101906104cc9190612b90565b036104d657505050565b816001600160a01b031663c29f8ac2846104ef84610d02565b6040516001600160e01b031960e085901b16815267ffffffffffffffff9092166004830152602482015260448101849052606401600060405180830381600087803b15801561053d57600080fd5b505af1158015610551573d6000803e3d6000fd5b50505050505050565b600061035f7f6c85b93e587873fbe6712f3b438d42c2945689b262f7bd34b8ea4e3f832a89e6546001600160a01b031690565b600054610100900460ff16158080156105ad5750600054600160ff909116105b806105c75750303b1580156105c7575060005460ff166001145b61063e5760405162461bcd60e51b815260206004820152602e60248201527f496e697469616c697a61626c653a20636f6e747261637420697320616c72656160448201527f647920696e697469616c697a656400000000000000000000000000000000000060648201526084015b60405180910390fd5b6000805460ff191660011790558015610661576000805461ff0019166101001790555b6000828060200190518101906106779190612b56565b600080546001600160a01b039092166301000000027fffffffffffffffffff0000000000000000000000000000000000000000ffffff90921691909117905550426001558015610701576000805461ff0019169055604051600181527f7f26b83ff96e1f2b6a682f133852f6798a09c465da95921460cefb38474024989060200160405180910390a15b5050565b61070d611cab565b610715610364565b61071d61055a565b6001600160a01b0316633c8ca83d6040518163ffffffff1660e01b8152600401602060405180830381865afa15801561075a573d6000803e3d6000fd5b505050506040513d601f19601f8201168201806040525081019061077e9190612b90565b421061079d5760405163389c286560e21b815260040160405180910390fd5b60006107a761055a565b6001600160a01b031663183100fa6040518163ffffffff1660e01b8152600401602060405180830381865afa1580156107e4573d6000803e3d6000fd5b505050506040513d601f19601f820116820180604052508101906108089190612b56565b6001600160a01b0316636352211e836040518263ffffffff1660e01b815260040161083591815260200190565b602060405180830381865afa158015610852573d6000803e3d6000fd5b505050506040513d601f19601f820116820180604052508101906108769190612b56565b9050336001600160a01b038216146108a157604051636e6ff5ad60e01b815260040160405180910390fd5b60006108ab61055a565b6001600160a01b031663f5f026a36040518163ffffffff1660e01b8152600401602060405180830381865afa1580156108e8573d6000803e3d6000fd5b505050506040513d601f19601f8201168201806040525081019061090c9190612b56565b604051630915dd5d60e01b815267ffffffffffffffff8616600482015290915060009081906001600160a01b03841690630915dd5d906024016040805180830381865afa158015610961573d6000803e3d6000fd5b505050506040513d601f19601f820116820180604052508101906109859190612bbe565b91509150806109a7576040516376bc71ab60e11b815260040160405180910390fd5b600060039054906101000a90046001600160a01b03166001600160a01b031663b2fd89336040518163ffffffff1660e01b8152600401602060405180830381865afa1580156109fa573d6000803e3d6000fd5b505050506040513d601f19601f82011682018060405250810190610a1e9190612b73565b67ffffffffffffffff168267ffffffffffffffff1614610a515760405163ad75401b60e01b815260040160405180910390fd5b6000610a5c42610d02565b90506000610a686102c0565b604051636b29d33560e11b815267ffffffffffffffff808b16600483015286166024820152604481018990526001600160a01b03919091169063d653a66a906064016020604051808303816000875af1158015610ac9573d6000803e3d6000fd5b505050506040513d601f19601f82011682018060405250810190610aed9190612b56565b90506000670de0b6b3a7640000610b0c67120a871cc002000085612c09565b610b169190612c36565b9050610b2061055a565b6001600160a01b031663a8d66c756040518163ffffffff1660e01b8152600401602060405180830381865afa158015610b5d573d6000803e3d6000fd5b505050506040513d601f19601f82011682018060405250810190610b819190612b56565b6001600160a01b031663c29f8ac2600060039054906101000a90046001600160a01b03166001600160a01b031663b2fd89336040518163ffffffff1660e01b8152600401602060405180830381865afa158015610be2573d6000803e3d6000fd5b505050506040513d601f19601f82011682018060405250810190610c069190612b73565b6040516001600160e01b031960e084901b16815267ffffffffffffffff909116600482015260248101849052426044820152606401600060405180830381600087803b158015610c5557600080fd5b505af1158015610c69573d6000803e3d6000fd5b5050604080516001600160a01b0386168152600060208201527f6586502516238f1ec2240c09c57f98f6900dc29cb7e1a9dde2cdef56b17c291e935001905060405180910390a1505050505050505050565b6000610cc561055a565b6001600160a01b0316637b1039996040518163ffffffff1660e01b8152600401602060405180830381865afa15801561033b573d6000803e3d6000fd5b600081600003610d10574291505b60008060039054906101000a90046001600160a01b03166001600160a01b031663b2fd89336040518163ffffffff1660e01b8152600401602060405180830381865afa158015610d64573d6000803e3d6000fd5b505050506040513d601f19601f82011682018060405250810190610d889190612b73565b90506000610d9461055a565b6001600160a01b031663a8d66c756040518163ffffffff1660e01b8152600401602060405180830381865afa158015610dd1573d6000803e3d6000fd5b505050506040513d601f19601f82011682018060405250810190610df59190612b56565b604051631373443d60e31b815267ffffffffffffffff841660048201529091506000906001600160a01b03831690639b9a21e890602401602060405180830381865afa158015610e49573d6000803e3d6000fd5b505050506040513d601f19601f82011682018060405250810190610e6d9190612b90565b60405163a57415d960e01b815267ffffffffffffffff851660048201529091506000906001600160a01b0384169063a57415d990602401602060405180830381865afa158015610ec1573d6000803e3d6000fd5b505050506040513d601f19601f82011682018060405250810190610ee59190612b90565b90506000610f5e610ef461055a565b6001600160a01b0316633c8ca83d6040518163ffffffff1660e01b8152600401602060405180830381865afa158015610f31573d6000803e3d6000fd5b505050506040513d601f19601f82011682018060405250810190610f559190612b90565b60015484611d47565b90506000610fd488610f6e61055a565b6001600160a01b03166344d9bc5f6040518163ffffffff1660e01b8152600401602060405180830381865afa158015610fab573d6000803e3d6000fd5b505050506040513d601f19601f82011682018060405250810190610fcf9190612b90565b611d73565b90506000836000036110ea576000610fea61055a565b6001600160a01b031663f5f026a36040518163ffffffff1660e01b8152600401602060405180830381865afa158015611027573d6000803e3d6000fd5b505050506040513d601f19601f8201168201806040525081019061104b9190612b56565b60405163335cf12b60e11b815267ffffffffffffffff8a1660048201526001600160a01b0391909116906366b9e25690602401602060405180830381865afa15801561109b573d6000803e3d6000fd5b505050506040513d601f19601f820116820180604052508101906110bf9190612b90565b90506110cc600182612c4a565b6110d7906002612d44565b6110e2906000612c09565b91505061115f565b604051631970403960e01b815267ffffffffffffffff881660048201526001600160a01b03871690631970403990602401602060405180830381865afa158015611138573d6000803e3d6000fd5b505050506040513d601f19601f8201168201806040525081019061115c9190612b90565b90505b8183106111725798975050505050505050565b600061117e8484612c4a565b9050600061118e610e1083612c36565b905060006111cd61119f6001611d95565b6111c86111ae600a6064611db3565b6111c36111bd600b600a611db3565b8d611ded565b612056565b6120b7565b905060006111db8284611ded565b905060006111f3836111ee866001612d50565b611ded565b9050600061120e611206610e1088612d63565b610e10611db3565b90506000611229846111c861122387876120b7565b856120f3565b90506112358189612132565b9e505050505050505050505050505050919050565b6000611254610cbb565b6001600160a01b031663ece56a1a6040518163ffffffff1660e01b8152600401602060405180830381865afa15801561033b573d6000803e3d6000fd5b611299612234565b60005462010000900460ff1615156001036112c7576040516306fda65d60e31b815260040160405180910390fd5b6000805462ff00001916620100001790556112e0610364565b60006112ea61055a565b6001600160a01b031663183100fa6040518163ffffffff1660e01b8152600401602060405180830381865afa158015611327573d6000803e3d6000fd5b505050506040513d601f19601f8201168201806040525081019061134b9190612b56565b6001600160a01b0316636352211e846040518263ffffffff1660e01b815260040161137891815260200190565b602060405180830381865afa158015611395573d6000803e3d6000fd5b505050506040513d601f19601f820116820180604052508101906113b99190612b56565b9050336001600160a01b038216146113e457604051636e6ff5ad60e01b815260040160405180910390fd5b60006113ee61055a565b6001600160a01b031663f5f026a36040518163ffffffff1660e01b8152600401602060405180830381865afa15801561142b573d6000803e3d6000fd5b505050506040513d601f19601f8201168201806040525081019061144f9190612b56565b604051630915dd5d60e01b815267ffffffffffffffff8716600482015290915060009081906001600160a01b03841690630915dd5d906024016040805180830381865afa1580156114a4573d6000803e3d6000fd5b505050506040513d601f19601f820116820180604052508101906114c89190612bbe565b91509150806114ea576040516376bc71ab60e11b815260040160405180910390fd5b600060039054906101000a90046001600160a01b03166001600160a01b031663b2fd89336040518163ffffffff1660e01b8152600401602060405180830381865afa15801561153d573d6000803e3d6000fd5b505050506040513d601f19601f820116820180604052508101906115619190612b73565b67ffffffffffffffff168267ffffffffffffffff16146115945760405163ad75401b60e01b815260040160405180910390fd5b600061159f42610d02565b9050808610156115c2576040516372b861db60e01b815260040160405180910390fd5b60405163335cf12b60e11b815267ffffffffffffffff84166004820152600090670de0b6b3a76400009061164a906001600160a01b038816906366b9e25690602401602060405180830381865afa158015611621573d6000803e3d6000fd5b505050506040513d601f19601f820116820180604052508101906116459190612b90565b612365565b6116549084612c09565b61165e9190612c36565b9050600061166c8284612c4a565b9050600061167861055a565b6001600160a01b031663c1897e346040518163ffffffff1660e01b8152600401602060405180830381865afa1580156116b5573d6000803e3d6000fd5b505050506040513d601f19601f820116820180604052508101906116d99190612b56565b90506001600160a01b038116611836578334101561170a5760405163e76f88bf60e01b815260040160405180910390fd5b600084341161171a576000611724565b6117248534612c4a565b905080156117365761173633826123d5565b82156117ae576117ae61174761055a565b6001600160a01b03166366666aa96040518163ffffffff1660e01b8152600401602060405180830381865afa158015611784573d6000803e3d6000fd5b505050506040513d601f19601f820116820180604052508101906117a89190612b56565b846123d5565b83156118305760405163f791a01f60e01b815267ffffffffffffffff88166004820152611830906001600160a01b038a169063f791a01f90602401602060405180830381865afa158015611806573d6000803e3d6000fd5b505050506040513d601f19601f8201168201806040525081019061182a9190612b56565b856123d5565b50611936565b81156118b0576118b0813361184961055a565b6001600160a01b03166366666aa96040518163ffffffff1660e01b8152600401602060405180830381865afa158015611886573d6000803e3d6000fd5b505050506040513d601f19601f820116820180604052508101906118aa9190612b56565b856124f3565b82156119365760405163f791a01f60e01b815267ffffffffffffffff8716600482015261193690829033906001600160a01b038b169063f791a01f90602401602060405180830381865afa15801561190c573d6000803e3d6000fd5b505050506040513d601f19601f820116820180604052508101906119309190612b56565b866124f3565b60006119406102c0565b604051636b29d33560e11b815267ffffffffffffffff808f16600483015289166024820152604481018d90526001600160a01b03919091169063d653a66a906064016020604051808303816000875af11580156119a1573d6000803e3d6000fd5b505050506040513d601f19601f820116820180604052508101906119c59190612b56565b90506000670de0b6b3a76400006119e467120a871cc002000088612c09565b6119ee9190612c36565b90506119f861055a565b6001600160a01b031663a8d66c756040518163ffffffff1660e01b8152600401602060405180830381865afa158015611a35573d6000803e3d6000fd5b505050506040513d601f19601f82011682018060405250810190611a599190612b56565b6001600160a01b031663c29f8ac2600060039054906101000a90046001600160a01b03166001600160a01b031663b2fd89336040518163ffffffff1660e01b8152600401602060405180830381865afa158015611aba573d6000803e3d6000fd5b505050506040513d601f19601f82011682018060405250810190611ade9190612b73565b6040516001600160e01b031960e084901b16815267ffffffffffffffff909116600482015260248101849052426044820152606401600060405180830381600087803b158015611b2d57600080fd5b505af1158015611b41573d6000803e3d6000fd5b5050604080516001600160a01b0386168152602081018a90527f6586502516238f1ec2240c09c57f98f6900dc29cb7e1a9dde2cdef56b17c291e935001905060405180910390a150506000805462ff0000191690555050505050505050505050565b600080611bae61055a565b6001600160a01b0316633c8ca83d6040518163ffffffff1660e01b8152600401602060405180830381865afa158015611beb573d6000803e3d6000fd5b505050506040513d601f19601f82011682018060405250810190611c0f9190612b90565b90506000611c1b61055a565b6001600160a01b03166344d9bc5f6040518163ffffffff1660e01b8152600401602060405180830381865afa158015611c58573d6000803e3d6000fd5b505050506040513d601f19601f82011682018060405250810190611c7c9190612b90565b90504282811015611c8a5750815b81600003611c99579392505050565b611ca38183612568565b935050505090565b611cb3610cbb565b6001600160a01b031663271530506040518163ffffffff1660e01b8152600401602060405180830381865afa158015611cf0573d6000803e3d6000fd5b505050506040513d601f19601f82011682018060405250810190611d149190612b56565b6001600160a01b0316336001600160a01b031614611d455760405163d136afd560e01b815260040160405180910390fd5b565b600081600003611d6257611d5b8385612577565b9050611d6c565b611d5b8483612577565b9392505050565b60008115611d8c57611d858383612568565b9050611d8f565b50815b92915050565b6000677fffffffffffffff821115611dac57600080fd5b5060401b90565b600081600003611dc257600080fd5b6000611dce8484612587565b905060016001607f1b036001600160801b0382161115611d6c57600080fd5b600080600084600f0b128015611e065750826001166001145b905060008085600f0b12611e1a5784611e1f565b846000035b6001600160801b03169050600160801b680100000000000000008211611eb957603f82901b91505b8415611eb1576001851615611e5c578102607f1c5b908002607f1c906002851615611e72578102607f1c5b908002607f1c906004851615611e88578102607f1c5b908002607f1c906008851615611e9e578102607f1c5b60049490941c93908002607f1c90611e47565b60401c612007565b603f6c01000000000000000000000000831015611edc5760209290921b91601f19015b6e010000000000000000000000000000831015611eff5760109290921b91600f19015b6f01000000000000000000000000000000831015611f235760089290921b91600719015b6f10000000000000000000000000000000831015611f475760049290921b91600319015b6f40000000000000000000000000000000831015611f6b5760029290921b91600119015b6001607f1b831015611f835760019290921b91600019015b60005b8615611ff05760408210611f9957600080fd5b6001871615611fbf57918302607f1c918101600160801b831115611fbf57600192831c92015b928002607f1c9260019190911b90600160801b8410611fe457600193841c9391909101905b600187901c9650611f86565b60408110611ffd57600080fd5b6040039190911c90505b6000836120145781612019565b816000035b90506f7fffffffffffffffffffffffffffffff198112801590612043575060016001607f1b038113155b61204c57600080fd5b9695505050505050565b600081600f0b60000361206857600080fd5b600082600f0b604085600f0b901b8161208357612083612c20565b0590506f7fffffffffffffffffffffffffffffff1981128015906120ae575060016001607f1b038113155b611d6c57600080fd5b6000600f82810b9084900b036f7fffffffffffffffffffffffffffffff1981128015906120ae575060016001607f1b03811315611d6c57600080fd5b6000600f83810b9083900b0260401d6f7fffffffffffffffffffffffffffffff1981128015906120ae575060016001607f1b03811315611d6c57600080fd5b60006001607f1b600f84900b016121a3577fffffffffffffffff000000000000000000000000000000000000000000000001821215801561218c575078010000000000000000000000000000000000000000000000008213155b61219557600080fd5b506000819003603f1b611d8f565b60008084600f0b12156121bb57836000039350600190505b60008312156121cd5760009290920391155b60006121d985856126fd565b905081156121fe57600160ff1b8111156121f257600080fd5b6000039150611d8f9050565b7f7fffffffffffffffffffffffffffffffffffffffffffffffffffffffffffffff81111561222b57600080fd5b9150611d8f9050565b600061223e61055a565b6001600160a01b0316633c8ca83d6040518163ffffffff1660e01b8152600401602060405180830381865afa15801561227b573d6000803e3d6000fd5b505050506040513d601f19601f8201168201806040525081019061229f9190612b90565b905060006122ab61055a565b6001600160a01b03166344d9bc5f6040518163ffffffff1660e01b8152600401602060405180830381865afa1580156122e8573d6000803e3d6000fd5b505050506040513d601f19601f8201168201806040525081019061230c9190612b90565b905081158061231a57508142105b156123385760405163a00eda6960e01b815260040160405180910390fd5b80158015906123475750804210155b156107015760405163a00eda6960e01b815260040160405180910390fd5b60008160010361237e575067058d15e176280000919050565b8160020361239557506702c68af0bb140000919050565b816003036123ac575067016345785d8a0000919050565b816004036123bc57506000919050565b60405163ea3b0abb60e01b815260040160405180910390fd5b804710156124255760405162461bcd60e51b815260206004820152601d60248201527f416464726573733a20696e73756666696369656e742062616c616e63650000006044820152606401610635565b6000826001600160a01b03168260405160006040518083038185875af1925050503d8060008114612472576040519150601f19603f3d011682016040523d82523d6000602084013e612477565b606091505b50509050806124ee5760405162461bcd60e51b815260206004820152603a60248201527f416464726573733a20756e61626c6520746f2073656e642076616c75652c207260448201527f6563697069656e74206d617920686176652072657665727465640000000000006064820152608401610635565b505050565b604080516001600160a01b0385811660248301528416604482015260648082018490528251808303909101815260849091019091526020810180517bffffffffffffffffffffffffffffffffffffffffffffffffffffffff166323b872dd60e01b179052612562908590612779565b50505050565b6000818310611d8c5750919050565b600081831015611d8c5781611d6c565b60008160000361259657600080fd5b600077ffffffffffffffffffffffffffffffffffffffffffffffff84116125d25782604085901b816125ca576125ca612c20565b0490506126e9565b60c084811c64010000000081106125eb576020918201911c5b6201000081106125fd576010918201911c5b610100811061260e576008918201911c5b6010811061261e576004918201911c5b6004811061262e576002918201911c5b6002811061263d576001820191505b60bf820360018603901c6001018260ff0387901b8161265e5761265e612c20565b0492506001600160801b0383111561267557600080fd5b608085901c83026001600160801b038616840260c088901c604089901b828110156126a1576001820391505b608084901b929003828110156126b8576001820391505b829003608084901c82146126ce576126ce612d77565b8881816126dd576126dd612c20565b04870196505050505050505b6001600160801b03811115611d6c57600080fd5b60008160000361270f57506000611d8f565b600083600f0b121561272057600080fd5b600f83900b6001600160801b038316810260401c90608084901c0277ffffffffffffffffffffffffffffffffffffffffffffffff81111561276057600080fd5b60401b811981111561277157600080fd5b019392505050565b60006127ce826040518060400160405280602081526020017f5361666545524332303a206c6f772d6c6576656c2063616c6c206661696c6564815250856001600160a01b031661285e9092919063ffffffff16565b8051909150156124ee57808060200190518101906127ec9190612d8d565b6124ee5760405162461bcd60e51b815260206004820152602a60248201527f5361666545524332303a204552433230206f7065726174696f6e20646964206e60448201527f6f742073756363656564000000000000000000000000000000000000000000006064820152608401610635565b606061286d8484600085612875565b949350505050565b6060824710156128d65760405162461bcd60e51b815260206004820152602660248201527f416464726573733a20696e73756666696369656e742062616c616e636520666f6044820152651c8818d85b1b60d21b6064820152608401610635565b6001600160a01b0385163b61292d5760405162461bcd60e51b815260206004820152601d60248201527f416464726573733a2063616c6c20746f206e6f6e2d636f6e74726163740000006044820152606401610635565b600080866001600160a01b031685876040516129499190612dcc565b60006040518083038185875af1925050503d8060008114612986576040519150601f19603f3d011682016040523d82523d6000602084013e61298b565b606091505b509150915061299b8282866129a6565b979650505050505050565b606083156129b5575081611d6c565b8251156129c55782518084602001fd5b8160405162461bcd60e51b81526004016106359190612de8565b634e487b7160e01b600052604160045260246000fd5b600060208284031215612a0757600080fd5b813567ffffffffffffffff811115612a1e57600080fd5b8201601f81018413612a2f57600080fd5b803567ffffffffffffffff811115612a4957612a496129df565b604051601f8201601f19908116603f0116810167ffffffffffffffff81118282101715612a7857612a786129df565b604052818152828201602001861015612a9057600080fd5b81602084016020830137600091810160200191909152949350505050565b67ffffffffffffffff81168114612ac457600080fd5b50565b60008060408385031215612ada57600080fd5b8235612ae581612aae565b946020939093013593505050565b600060208284031215612b0557600080fd5b5035919050565b600080600060608486031215612b2157600080fd5b8335612b2c81612aae565b95602085013595506040909401359392505050565b6001600160a01b0381168114612ac457600080fd5b600060208284031215612b6857600080fd5b8151611d6c81612b41565b600060208284031215612b8557600080fd5b8151611d6c81612aae565b600060208284031215612ba257600080fd5b5051919050565b80518015158114612bb957600080fd5b919050565b60008060408385031215612bd157600080fd5b8251612bdc81612aae565b9150612bea60208401612ba9565b90509250929050565b634e487b7160e01b600052601160045260246000fd5b8082028115828204841417611d8f57611d8f612bf3565b634e487b7160e01b600052601260045260246000fd5b600082612c4557612c45612c20565b500490565b81810381811115611d8f57611d8f612bf3565b6001815b6001841115612c9857808504811115612c7c57612c7c612bf3565b6001841615612c8a57908102905b60019390931c928002612c61565b935093915050565b600082612caf57506001611d8f565b81612cbc57506000611d8f565b8160018114612cd25760028114612cdc57612cf8565b6001915050611d8f565b60ff841115612ced57612ced612bf3565b50506001821b611d8f565b5060208310610133831016604e8410600b8410161715612d1b575081810a611d8f565b612d286000198484612c5d565b8060001904821115612d3c57612d3c612bf3565b029392505050565b6000611d6c8383612ca0565b80820180821115611d8f57611d8f612bf3565b600082612d7257612d72612c20565b500690565b634e487b7160e01b600052600160045260246000fd5b600060208284031215612d9f57600080fd5b611d6c82612ba9565b60005b83811015612dc3578181015183820152602001612dab565b50506000910152565b60008251612dde818460208701612da8565b9190910192915050565b6020815260008251806020840152612e07816040850160208701612da8565b601f01601f1916919091016040019291505056fea2646970667358221220b5174a5aae7d3b60901a0c02217c914353e0f8658f47e20b7d0b0f90d2af49a964736f6c634300081a0033",
  "linkReferences": {},
  "deployedLinkReferences": {}
}