{
  "_format": "hh-sol-artifact-1",
  "contractName": "Registry",
  "sourceName": "contracts/core/Registry.sol",
  "abi": [
    {
      "inputs": [],
      "name": "OnlyMightyCreator",
      "type": "error"
    },
    {
      "inputs": [],
      "name": "UnknownInputParameter",
      "type": "error"
    },
    {
      "anonymous": false,
      "inputs": [
        {
          "indexed": false,
          "internalType": "uint8",
          "name": "version",
          "type": "uint8"
        }
      ],
      "name": "Initialized",
      "type": "event"
    },
    {
      "inputs": [
        {
          "internalType": "uint8",
          "name": "variation",
          "type": "uint8"
        }
      ],
      "name": "getAdvancedProductionTileBonusByVariation",
      "outputs": [
        {
          "internalType": "bytes32",
          "name": "",
          "type": "bytes32"
        },
        {
          "internalType": "uint256",
          "name": "",
          "type": "uint256"
        }
      ],
      "stateMutability": "pure",
      "type": "function"
    },
    {
      "inputs": [],
      "name": "getArmyStunDurationByJoiningBattleAtAttackingSide",
      "outputs": [
        {
          "internalType": "uint256",
          "name": "",
          "type": "uint256"
        }
      ],
      "stateMutability": "pure",
      "type": "function"
    },
    {
      "inputs": [],
      "name": "getArmyStunDurationPerRobberyMultiplier",
      "outputs": [
        {
          "internalType": "uint256",
          "name": "",
          "type": "uint256"
        }
      ],
      "stateMutability": "pure",
      "type": "function"
    },
    {
      "inputs": [],
      "name": "getBaseBattleDuration",
      "outputs": [
        {
          "internalType": "uint256",
          "name": "",
          "type": "uint256"
        }
      ],
      "stateMutability": "pure",
      "type": "function"
    },
    {
      "inputs": [
        {
          "internalType": "bytes32",
          "name": "buildingTypeId",
          "type": "bytes32"
        }
      ],
      "name": "getBasicProductionBuildingCoefficient",
      "outputs": [
        {
          "internalType": "uint256",
          "name": "",
          "type": "uint256"
        }
      ],
      "stateMutability": "pure",
      "type": "function"
    },
    {
      "inputs": [],
      "name": "getBattleDurationLosingArmyStunMultiplier",
      "outputs": [
        {
          "internalType": "uint256",
          "name": "",
          "type": "uint256"
        }
      ],
      "stateMutability": "pure",
      "type": "function"
    },
    {
      "inputs": [],
      "name": "getBattleDurationWinningArmyStunMultiplier",
      "outputs": [
        {
          "internalType": "uint256",
          "name": "",
          "type": "uint256"
        }
      ],
      "stateMutability": "pure",
      "type": "function"
    },
    {
      "inputs": [],
      "name": "getBuildingTokenTransferThresholdPercent",
      "outputs": [
        {
          "internalType": "uint256",
          "name": "",
          "type": "uint256"
        }
      ],
      "stateMutability": "pure",
      "type": "function"
    },
    {
      "inputs": [],
      "name": "getBuildingTypeIds",
      "outputs": [
        {
          "internalType": "bytes32[]",
          "name": "",
          "type": "bytes32[]"
        }
      ],
      "stateMutability": "pure",
      "type": "function"
    },
    {
      "inputs": [
        {
          "internalType": "bytes32",
          "name": "buildingTypeId",
          "type": "bytes32"
        }
      ],
      "name": "getBuildingUpgradeCostMultiplier",
      "outputs": [
        {
          "internalType": "uint256",
          "name": "",
          "type": "uint256"
        }
      ],
      "stateMutability": "pure",
      "type": "function"
    },
    {
      "inputs": [],
      "name": "getCaptureTileDurationPerTile",
      "outputs": [
        {
          "internalType": "uint256",
          "name": "",
          "type": "uint256"
        }
      ],
      "stateMutability": "pure",
      "type": "function"
    },
    {
      "inputs": [
        {
          "internalType": "uint256",
          "name": "regionTier",
          "type": "uint256"
        }
      ],
      "name": "getChanceForTileWithBonusByRegionTier",
      "outputs": [
        {
          "internalType": "uint256",
          "name": "",
          "type": "uint256"
        }
      ],
      "stateMutability": "pure",
      "type": "function"
    },
    {
      "inputs": [
        {
          "internalType": "bytes32",
          "name": "resourceTypeId",
          "type": "bytes32"
        }
      ],
      "name": "getCorruptionIndexByResource",
      "outputs": [
        {
          "internalType": "uint256",
          "name": "",
          "type": "uint256"
        }
      ],
      "stateMutability": "pure",
      "type": "function"
    },
    {
      "inputs": [],
      "name": "getCultistUnitTypeId",
      "outputs": [
        {
          "internalType": "bytes32",
          "name": "",
          "type": "bytes32"
        }
      ],
      "stateMutability": "pure",
      "type": "function"
    },
    {
      "inputs": [],
      "name": "getCultistsNoDestructionDelay",
      "outputs": [
        {
          "internalType": "uint256",
          "name": "",
          "type": "uint256"
        }
      ],
      "stateMutability": "pure",
      "type": "function"
    },
    {
      "inputs": [],
      "name": "getCultistsPerRegionMultiplier",
      "outputs": [
        {
          "internalType": "uint256",
          "name": "",
          "type": "uint256"
        }
      ],
      "stateMutability": "pure",
      "type": "function"
    },
    {
      "inputs": [],
      "name": "getCultistsSummonDelay",
      "outputs": [
        {
          "internalType": "uint256",
          "name": "",
          "type": "uint256"
        }
      ],
      "stateMutability": "pure",
      "type": "function"
    },
    {
      "inputs": [],
      "name": "getGameResources",
      "outputs": [
        {
          "components": [
            {
              "internalType": "string",
              "name": "tokenName",
              "type": "string"
            },
            {
              "internalType": "string",
              "name": "tokenSymbol",
              "type": "string"
            },
            {
              "internalType": "bytes32",
              "name": "resourceTypeId",
              "type": "bytes32"
            }
          ],
          "internalType": "struct Config.GameResource[]",
          "name": "",
          "type": "tuple[]"
        }
      ],
      "stateMutability": "pure",
      "type": "function"
    },
    {
      "inputs": [],
      "name": "getGameUnits",
      "outputs": [
        {
          "components": [
            {
              "internalType": "string",
              "name": "tokenName",
              "type": "string"
            },
            {
              "internalType": "string",
              "name": "tokenSymbol",
              "type": "string"
            },
            {
              "internalType": "bytes32",
              "name": "unitTypeId",
              "type": "bytes32"
            }
          ],
          "internalType": "struct Config.GameUnit[]",
          "name": "",
          "type": "tuple[]"
        }
      ],
      "stateMutability": "pure",
      "type": "function"
    },
    {
      "inputs": [],
      "name": "getGlobalMultiplier",
      "outputs": [
        {
          "internalType": "uint256",
          "name": "",
          "type": "uint256"
        }
      ],
      "stateMutability": "view",
      "type": "function"
    },
    {
      "inputs": [],
      "name": "getInitialCaptureProsperityBasicValue",
      "outputs": [
        {
          "internalType": "uint256",
          "name": "",
          "type": "uint256"
        }
      ],
      "stateMutability": "pure",
      "type": "function"
    },
    {
      "inputs": [],
      "name": "getInitialCaptureProsperityPerTileValue",
      "outputs": [
        {
          "internalType": "uint256",
          "name": "",
          "type": "uint256"
        }
      ],
      "stateMutability": "pure",
      "type": "function"
    },
    {
      "inputs": [],
      "name": "getInitialCorruptionIndexAmountPerRegionTier",
      "outputs": [
        {
          "internalType": "uint256",
          "name": "",
          "type": "uint256"
        }
      ],
      "stateMutability": "pure",
      "type": "function"
    },
    {
      "inputs": [],
      "name": "getInitialCultistsAmountPerRegionTier",
      "outputs": [
        {
          "internalType": "uint256",
          "name": "",
          "type": "uint256"
        }
      ],
      "stateMutability": "pure",
      "type": "function"
    },
    {
      "inputs": [],
      "name": "getManeuverDurationStunMultiplier",
      "outputs": [
        {
          "internalType": "uint256",
          "name": "",
          "type": "uint256"
        }
      ],
      "stateMutability": "pure",
      "type": "function"
    },
    {
      "inputs": [],
      "name": "getMaxAdvancedProductionTileBuff",
      "outputs": [
        {
          "internalType": "uint256",
          "name": "",
          "type": "uint256"
        }
      ],
      "stateMutability": "pure",
      "type": "function"
    },
    {
      "inputs": [],
      "name": "getMaxAllowedRobberyMultiplierIncreaseValue",
      "outputs": [
        {
          "internalType": "uint256",
          "name": "",
          "type": "uint256"
        }
      ],
      "stateMutability": "pure",
      "type": "function"
    },
    {
      "inputs": [],
      "name": "getMaxAllowedUnitsToBuyPerTransaction",
      "outputs": [
        {
          "internalType": "uint256",
          "name": "",
          "type": "uint256"
        }
      ],
      "stateMutability": "pure",
      "type": "function"
    },
    {
      "inputs": [],
      "name": "getMaxAllowedWorkersToBuyPerTransaction",
      "outputs": [
        {
          "internalType": "uint256",
          "name": "",
          "type": "uint256"
        }
      ],
      "stateMutability": "pure",
      "type": "function"
    },
    {
      "inputs": [
        {
          "internalType": "uint8",
          "name": "tileBonusType",
          "type": "uint8"
        }
      ],
      "name": "getMaxCapturedTilesForSettlement",
      "outputs": [
        {
          "internalType": "uint256",
          "name": "",
          "type": "uint256"
        }
      ],
      "stateMutability": "pure",
      "type": "function"
    },
    {
      "inputs": [],
      "name": "getMaxCultistsPerRegion",
      "outputs": [
        {
          "internalType": "uint256",
          "name": "",
          "type": "uint256"
        }
      ],
      "stateMutability": "pure",
      "type": "function"
    },
    {
      "inputs": [],
      "name": "getMaxRegionTier",
      "outputs": [
        {
          "internalType": "uint256",
          "name": "",
          "type": "uint256"
        }
      ],
      "stateMutability": "pure",
      "type": "function"
    },
    {
      "inputs": [],
      "name": "getMaxSettlementsPerRegion",
      "outputs": [
        {
          "internalType": "uint256",
          "name": "",
          "type": "uint256"
        }
      ],
      "stateMutability": "pure",
      "type": "function"
    },
    {
      "inputs": [],
      "name": "getMinimumBattleDuration",
      "outputs": [
        {
          "internalType": "uint256",
          "name": "",
          "type": "uint256"
        }
      ],
      "stateMutability": "pure",
      "type": "function"
    },
    {
      "inputs": [],
      "name": "getMinimumUserSettlementsCountInNeighboringRegionRequiredToIncludeRegion",
      "outputs": [
        {
          "internalType": "uint256",
          "name": "",
          "type": "uint256"
        }
      ],
      "stateMutability": "pure",
      "type": "function"
    },
    {
      "inputs": [],
      "name": "getNecessaryProsperityPercentForClaimingTileCapture",
      "outputs": [
        {
          "internalType": "uint256",
          "name": "",
          "type": "uint256"
        }
      ],
      "stateMutability": "pure",
      "type": "function"
    },
    {
      "inputs": [],
      "name": "getNewSettlementPriceIncreaseMultiplier",
      "outputs": [
        {
          "internalType": "uint256",
          "name": "",
          "type": "uint256"
        }
      ],
      "stateMutability": "pure",
      "type": "function"
    },
    {
      "inputs": [],
      "name": "getNewSettlementStartingPrice",
      "outputs": [
        {
          "internalType": "uint256",
          "name": "",
          "type": "uint256"
        }
      ],
      "stateMutability": "view",
      "type": "function"
    },
    {
      "inputs": [],
      "name": "getNextCaptureProsperityBasicThreshold",
      "outputs": [
        {
          "internalType": "uint256",
          "name": "",
          "type": "uint256"
        }
      ],
      "stateMutability": "pure",
      "type": "function"
    },
    {
      "inputs": [],
      "name": "getNextCaptureProsperityPerTileThreshold",
      "outputs": [
        {
          "internalType": "uint256",
          "name": "",
          "type": "uint256"
        }
      ],
      "stateMutability": "pure",
      "type": "function"
    },
    {
      "inputs": [],
      "name": "getProductionTicksInSecond",
      "outputs": [
        {
          "internalType": "uint256",
          "name": "",
          "type": "uint256"
        }
      ],
      "stateMutability": "view",
      "type": "function"
    },
    {
      "inputs": [
        {
          "internalType": "bytes32",
          "name": "unitTypeId",
          "type": "bytes32"
        }
      ],
      "name": "getProsperityForUnitLiquidation",
      "outputs": [
        {
          "internalType": "uint256",
          "name": "",
          "type": "uint256"
        }
      ],
      "stateMutability": "pure",
      "type": "function"
    },
    {
      "inputs": [
        {
          "internalType": "uint256",
          "name": "regionTier",
          "type": "uint256"
        }
      ],
      "name": "getRegionInclusionPrice",
      "outputs": [
        {
          "internalType": "uint256",
          "name": "",
          "type": "uint256"
        }
      ],
      "stateMutability": "pure",
      "type": "function"
    },
    {
      "inputs": [
        {
          "internalType": "uint256",
          "name": "regionTier",
          "type": "uint256"
        }
      ],
      "name": "getRegionOwnerSettlementPurchasePercent",
      "outputs": [
        {
          "internalType": "uint256",
          "name": "",
          "type": "uint256"
        }
      ],
      "stateMutability": "pure",
      "type": "function"
    },
    {
      "inputs": [
        {
          "internalType": "bytes32",
          "name": "resourceTypeId",
          "type": "bytes32"
        }
      ],
      "name": "getResourceWeight",
      "outputs": [
        {
          "internalType": "uint256",
          "name": "",
          "type": "uint256"
        }
      ],
      "stateMutability": "pure",
      "type": "function"
    },
    {
      "inputs": [],
      "name": "getRobberyPointsPerDamageMultiplier",
      "outputs": [
        {
          "internalType": "uint256",
          "name": "",
          "type": "uint256"
        }
      ],
      "stateMutability": "pure",
      "type": "function"
    },
    {
      "inputs": [
        {
          "internalType": "bytes32",
          "name": "resourceTypeId",
          "type": "bytes32"
        }
      ],
      "name": "getRobberyPointsToResourceMultiplier",
      "outputs": [
        {
          "internalType": "uint256",
          "name": "",
          "type": "uint256"
        }
      ],
      "stateMutability": "view",
      "type": "function"
    },
    {
      "inputs": [],
      "name": "getSettlementPayToDecreaseCorruptionIndexPenaltyMultiplier",
      "outputs": [
        {
          "internalType": "uint256",
          "name": "",
          "type": "uint256"
        }
      ],
      "stateMutability": "pure",
      "type": "function"
    },
    {
      "inputs": [],
      "name": "getSettlementPriceMultiplierPerIncreasedRegionTier",
      "outputs": [
        {
          "internalType": "uint256",
          "name": "",
          "type": "uint256"
        }
      ],
      "stateMutability": "pure",
      "type": "function"
    },
    {
      "inputs": [],
      "name": "getStunDurationMultiplierOfCancelledSecretManeuver",
      "outputs": [
        {
          "internalType": "uint256",
          "name": "",
          "type": "uint256"
        }
      ],
      "stateMutability": "pure",
      "type": "function"
    },
    {
      "inputs": [],
      "name": "getTileCaptureCancellationFee",
      "outputs": [
        {
          "internalType": "uint256",
          "name": "",
          "type": "uint256"
        }
      ],
      "stateMutability": "pure",
      "type": "function"
    },
    {
      "inputs": [],
      "name": "getToTreasuryPercent",
      "outputs": [
        {
          "internalType": "uint256",
          "name": "",
          "type": "uint256"
        }
      ],
      "stateMutability": "pure",
      "type": "function"
    },
    {
      "inputs": [
        {
          "internalType": "uint8",
          "name": "variation",
          "type": "uint8"
        }
      ],
      "name": "getUnitBattleMultiplierTileBonusByVariation",
      "outputs": [
        {
          "internalType": "bytes32",
          "name": "",
          "type": "bytes32"
        },
        {
          "internalType": "uint256",
          "name": "",
          "type": "uint256"
        }
      ],
      "stateMutability": "pure",
      "type": "function"
    },
    {
      "inputs": [],
      "name": "getUnitHiringFortHpMultiplier",
      "outputs": [
        {
          "internalType": "uint256",
          "name": "",
          "type": "uint256"
        }
      ],
      "stateMutability": "pure",
      "type": "function"
    },
    {
      "inputs": [
        {
          "internalType": "bytes32",
          "name": "unitTypeId",
          "type": "bytes32"
        }
      ],
      "name": "getUnitPoolType",
      "outputs": [
        {
          "internalType": "bytes32",
          "name": "",
          "type": "bytes32"
        }
      ],
      "stateMutability": "pure",
      "type": "function"
    },
    {
      "inputs": [
        {
          "internalType": "bytes32",
          "name": "unitTypeId",
          "type": "bytes32"
        }
      ],
      "name": "getUnitPriceDropByUnitTypeId",
      "outputs": [
        {
          "internalType": "uint256",
          "name": "",
          "type": "uint256"
        },
        {
          "internalType": "uint256",
          "name": "",
          "type": "uint256"
        }
      ],
      "stateMutability": "pure",
      "type": "function"
    },
    {
      "inputs": [],
      "name": "getUnitPriceIncreaseForEachUnit",
      "outputs": [
        {
          "internalType": "uint256",
          "name": "",
          "type": "uint256"
        },
        {
          "internalType": "uint256",
          "name": "",
          "type": "uint256"
        }
      ],
      "stateMutability": "pure",
      "type": "function"
    },
    {
      "inputs": [
        {
          "internalType": "bytes32",
          "name": "unitTypeId",
          "type": "bytes32"
        }
      ],
      "name": "getUnitResourceUsagePer1SecondOfDecreasedManeuverDuration",
      "outputs": [
        {
          "internalType": "uint256",
          "name": "",
          "type": "uint256"
        }
      ],
      "stateMutability": "pure",
      "type": "function"
    },
    {
      "inputs": [
        {
          "internalType": "bytes32",
          "name": "unitTypeId",
          "type": "bytes32"
        }
      ],
      "name": "getUnitStats",
      "outputs": [
        {
          "components": [
            {
              "internalType": "uint256",
              "name": "offenseStage1",
              "type": "uint256"
            },
            {
              "internalType": "uint256",
              "name": "defenceStage1",
              "type": "uint256"
            },
            {
              "internalType": "uint256",
              "name": "offenseStage2",
              "type": "uint256"
            },
            {
              "internalType": "uint256",
              "name": "defenceStage2",
              "type": "uint256"
            },
            {
              "internalType": "uint256",
              "name": "siegePower",
              "type": "uint256"
            },
            {
              "internalType": "uint256",
              "name": "siegeSupport",
              "type": "uint256"
            }
          ],
          "internalType": "struct Config.UnitStats",
          "name": "",
          "type": "tuple"
        }
      ],
      "stateMutability": "pure",
      "type": "function"
    },
    {
      "inputs": [],
      "name": "getUnitTypeIds",
      "outputs": [
        {
          "internalType": "bytes32[]",
          "name": "",
          "type": "bytes32[]"
        }
      ],
      "stateMutability": "pure",
      "type": "function"
    },
    {
      "inputs": [
        {
          "internalType": "bytes32",
          "name": "buildingTypeId",
          "type": "bytes32"
        }
      ],
      "name": "getWorkerCapacityCoefficient",
      "outputs": [
        {
          "internalType": "uint256",
          "name": "",
          "type": "uint256"
        }
      ],
      "stateMutability": "pure",
      "type": "function"
    },
    {
      "inputs": [],
      "name": "getWorkerPriceDrop",
      "outputs": [
        {
          "internalType": "uint256",
          "name": "",
          "type": "uint256"
        },
        {
          "internalType": "uint256",
          "name": "",
          "type": "uint256"
        }
      ],
      "stateMutability": "pure",
      "type": "function"
    },
    {
      "inputs": [],
      "name": "getWorkerPriceIncreaseForEachWorker",
      "outputs": [
        {
          "internalType": "uint256",
          "name": "",
          "type": "uint256"
        },
        {
          "internalType": "uint256",
          "name": "",
          "type": "uint256"
        }
      ],
      "stateMutability": "pure",
      "type": "function"
    },
    {
      "inputs": [
        {
          "internalType": "bytes32",
          "name": "unitTypeId",
          "type": "bytes32"
        }
      ],
      "name": "getWorkersForUnitLiquidation",
      "outputs": [
        {
          "internalType": "uint256",
          "name": "",
          "type": "uint256"
        }
      ],
      "stateMutability": "pure",
      "type": "function"
    },
    {
      "inputs": [],
      "name": "init",
      "outputs": [],
      "stateMutability": "nonpayable",
      "type": "function"
    },
    {
      "inputs": [],
      "name": "mightyCreator",
      "outputs": [
        {
          "internalType": "address",
          "name": "",
          "type": "address"
        }
      ],
      "stateMutability": "view",
      "type": "function"
    },
    {
      "inputs": [
        {
          "internalType": "address",
          "name": "newMightyCreator",
          "type": "address"
        }
      ],
      "name": "setMightyCreator",
      "outputs": [],
      "stateMutability": "nonpayable",
      "type": "function"
    },
    {
      "inputs": [
        {
          "internalType": "address",
          "name": "worldAssetFactoryAddress",
          "type": "address"
        }
      ],
      "name": "setWorldAssetFactory",
      "outputs": [],
      "stateMutability": "nonpayable",
      "type": "function"
    },
    {
      "inputs": [],
      "name": "worldAssetFactory",
      "outputs": [
        {
          "internalType": "contract IWorldAssetFactory",
          "name": "",
          "type": "address"
        }
      ],
      "stateMutability": "view",
      "type": "function"
    }
  ],
  "bytecode": "0x6080604052348015600f57600080fd5b50612cf98061001f6000396000f3fe608060405234801561001057600080fd5b50600436106104575760003560e01c80638514248111610250578063d13c422e11610150578063e7a76ce7116100c8578063f20bebf411610097578063f644c0ce1161007c578063f644c0ce1461089a578063fb5c6df4146105e6578063fe9135f0146108a257600080fd5b8063f20bebf414610888578063f51574131461089157600080fd5b8063e7a76ce714610859578063e84959f2146106b4578063ece56a1a14610867578063f1a5c01d1461087a57600080fd5b8063dcc6b96e1161011f578063e1b5c3ef11610104578063e1b5c3ef1461082b578063e1c7392a1461083e578063e5042f201461084657600080fd5b8063dcc6b96e14610811578063ddc838191461081857600080fd5b8063d13c422e146107db578063d6dd0499146107e9578063d7ee9004146107f0578063dbfb0ea1146107fe57600080fd5b8063b99cb62c116101e3578063c7388af4116101b2578063c80134be11610197578063c80134be146107a5578063c8923946146107b8578063cbaad441146107c857600080fd5b8063c7388af41461078b578063c7738b611461079257600080fd5b8063b99cb62c14610766578063bc2143e714610774578063bda261391461077c578063c15466dc146105e657600080fd5b8063a53a3bb71161021f578063a53a3bb714610734578063a6896cdb1461073d578063a7778ce01461074b578063b8daaaeb1461075857600080fd5b806385142481146106f25780638dcbb205146107005780638ed97a8c14610713578063a476a6c31461072657600080fd5b806357721c581161035b57806368e35ca0116102ee5780637496fc52116102bd5780637a893af5116102a25780637a893af5146106b45780637e7d746e146106d057806381bfdebc146106c257600080fd5b80637496fc52146106d8578063781e0efe146106eb57600080fd5b806368e35ca0146106a65780636f3426da146106b457806370a1859e146106c2578063746b537a146106d057600080fd5b8063616e00951161032a578063616e00951461067c578063657f17fd1461068457806366fa9d241461068c5780636795d4a01461069f57600080fd5b806357721c58146106395780635a28acb01461064c5780635c13c3bf146106615780635c724dbf1461066957600080fd5b80632e625985116103ee5780633afb0ebb116103bd578063413127ac116103a2578063413127ac14610609578063426851b91461061c578063569a52a51461063157600080fd5b80633afb0ebb146105e65780633cdba936146105f657600080fd5b80632e6259851461052d578063302c7c4a1461057257806335ba79891461058057806337a42b64146105df57600080fd5b8063205a7ec81161042a578063205a7ec8146104d4578063250c3a10146104db5780632701e0d0146104ee57806327153050146104fc57600080fd5b80630c451c201461045c5780630de89b46146104825780631dae2152146104975780632020e901146104ac575b600080fd5b61046f61046a366004612a58565b6108aa565b6040519081526020015b60405180910390f35b610495610490366004612a71565b6108bb565b005b61049f6108f2565b6040516104799190612b2c565b6104bf6104ba366004612b91565b610901565b60408051928352602083019190915201610479565b602861046f565b61046f6104e9366004612a58565b610916565b6729a2241af62c000061046f565b600054610515906201000090046001600160a01b031681565b6040516001600160a01b039091168152602001610479565b6040805180820190915260078152662ba0a92924a7a960c91b6020909101527f69c5317e5ce44f1a1fb56c6a5eff904214e6353da6310ab0a6b511eef9a7c39161046f565b670853a0d2313c000061046f565b61059361058e366004612a58565b610921565b6040516104799190600060c082019050825182526020830151602083015260408301516040830152606083015160608301526080830151608083015260a083015160a083015292915050565b600261046f565b69010f0cf064dd5920000061046f565b6104bf610604366004612a58565b610963565b610495610617366004612a71565b61096f565b6106246109ae565b6040516104799190612bb4565b6104bf6109b8565b61046f610647366004612b91565b6109d4565b6106546109df565b6040516104799190612c0d565b617e9061046f565b61046f610677366004612a58565b6109e9565b6106546109f4565b61046f6109fe565b61046f61069a366004612a58565b610a1c565b600461046f565b670429d069189e000061046f565b670de0b6b3a764000061046f565b6706f05b59d3b2000061046f565b6104bf610a27565b61046f6106e6366004612a58565b610a35565b600561046f565b6710a741a46278000061046f565b61046f61070e366004612a58565b610a40565b61046f610721366004612a58565b610a4b565b67058d15e17628000061046f565b621a5e0061046f565b671bc16d674ec8000061046f565b66b1a2bc2ec5000061046f565b67093a8dfa07a2800061046f565b6709b6e64a8ec6000061046f565b61a8c061046f565b685150ae84a8cdf0000061046f565b600061046f565b6104bf6107a0366004612b91565b610a56565b61046f6107b3366004612a58565b610a62565b69021e19e0c9bab240000061046f565b61046f6107d6366004612a58565b610a6d565b6704a628b99fc1800061046f565b600a61046f565b674563918244f4000061046f565b61046f61080c366004612a58565b610a78565b601461046f565b61046f610826366004612a58565b610a83565b61046f610839366004612a58565b610a8e565b610495610a99565b61046f610854366004612a58565b610bdb565b6703782dace9d9000061046f565b600154610515906001600160a01b031681565b67120a871cc002000061046f565b6201518061046f565b620d2f0061046f565b61046f610be6565b61fd2061046f565b60006108b582610bfc565b92915050565b6108c3610d10565b6001805473ffffffffffffffffffffffffffffffffffffffff19166001600160a01b0392909216919091179055565b60606108fc610d43565b905090565b60008061090d8361107c565b91509150915091565b60006108b5826113ff565b61095a6040518060c001604052806000815260200160008152602001600081526020016000815260200160008152602001600081525090565b6108b5826115a3565b60008061090d8361177a565b610977610d10565b600080546001600160a01b03909216620100000275ffffffffffffffffffffffffffffffffffffffff000019909216919091179055565b60606108fc611839565b600080662386f07b1c9936662386f26fc100005b915091509091565b60006108b582611ae4565b60606108fc611b14565b60006108b582611bc0565b60606108fc611c17565b60006108fc670de0b6b3a764000069021e19e0c9bab2400000612c50565b60006108b582611da3565b6000806103ec6103e86109cc565b60006108b582611e96565b60006108b582611fe0565b60006108b58261203d565b60008061090d836121e1565b60006108b5826122f5565b60006108b58261235b565b60006108b582612455565b60006108b582612620565b60006108b58261276a565b600054610100900460ff1615808015610ab95750600054600160ff909116105b80610ad35750303b158015610ad3575060005460ff166001145b610b495760405162461bcd60e51b815260206004820152602e60248201527f496e697469616c697a61626c653a20636f6e747261637420697320616c72656160448201527f647920696e697469616c697a6564000000000000000000000000000000000000606482015260840160405180910390fd5b6000805460ff191660011790558015610b6c576000805461ff0019166101001790555b6000805475ffffffffffffffffffffffffffffffffffffffff000019163362010000021790558015610bd8576000805461ff0019169055604051600181527f7f26b83ff96e1f2b6a682f133852f6798a09c465da95921460cefb38474024989060200160405180910390a15b50565b60006108b5826128b4565b60006108fc685150ae84a8cdf000006005612c72565b6040805180820190915260078152662ba0a92924a7a960c91b60209091015260007f963ace81a31bb0e5e04a9395a1006fbdeb19cac259cef54f594aee1106583c6f8201610c5157506597951b766aaa919050565b60408051808201909152600681526520a921a422a960d11b6020909101527fbd21a0403f8a882c166bd206a22b19e35435476f82a2cccdbfebf4d666c861c08201610ca35750653287092778e3919050565b6040805180820190915260088152672427a929a2a6a0a760c11b6020909101527f762a1190b034cd04c3eae43da1943cdf0137d457634c4d62e69626f81f1986c78201610cf75750650f2882bf0aaa919050565b60405163ea3b0abb60e01b815260040160405180910390fd5b6000546201000090046001600160a01b03163314610d415760405163d136afd560e01b815260040160405180910390fd5b565b60408051600480825260a0820190925260609160009190816020015b60408051606080820183528082526020820152600091810191909152815260200190600190039081610d5f5750506040805160a081018252600e606082019081527f4d697468726165756d20466f6f64000000000000000000000000000000000000608083015281528151808301835260058152641b5193d3d160da1b602080830191909152808301919091528251808401845260048152631193d3d160e21b9101527f2f6f5a261d6f4514c3f09a834720fe583c82f2ee4758ce9a45fbd67428e9f93d918101919091528151919250908290600090610e4157610e41612cad565b6020908102919091018101919091526040805160a081018252600e606082019081527f4d697468726165756d20576f6f64000000000000000000000000000000000000608083015281528151808301835260058152641b55d3d3d160da1b818501528184015281518083018352600481526315d3d3d160e21b9301929092527f5f3d3bfd5b61198148275c178146c21eec5c5ab7e81758f3c651754ae3f1ed4290820152815182906001908110610efa57610efa612cad565b6020908102919091018101919091526040805160a081018252600d606082019081527f4d697468726165756d204f726500000000000000000000000000000000000000608083015281528151808301835260048152636d4f524560e01b81850152818401528151808301835260038152624f524560e81b9301929092527f9db51ceeef36d28f4a713ba944bdadb00e988c5676c92710eaf0e194efb4cb5590820152815182906002908110610fb157610fb1612cad565b6020908102919091018101919091526040805160a081018252600f606082019081527f4d697468726165756d20496e676f740000000000000000000000000000000000608083015281528151808301835260068152651b525391d3d560d21b8185015281840152815180830183526005815264125391d3d560da1b9301929092527ff4d3d98b93a17290e7883bbc86b83d603b27efc328d7873b3fc648501d83e5729082015281518290600390811061106c5761106c612cad565b6020908102919091010152919050565b6000808260ff166000036110d75750506040805180820190915260048152634641524d60e01b602090910152507f15e7d524175663fc8929751799c4e1a8d04fec20bebd7ac2f10532927c1b5c0d906703782dace9d9000090565b8260ff1660010361112f5750506040805180820190915260048152634641524d60e01b602090910152507f15e7d524175663fc8929751799c4e1a8d04fec20bebd7ac2f10532927c1b5c0d9067058d15e17628000090565b8260ff1660020361118d57505060408051808201909152600a8152691315535091549352531360b21b602090910152507f6efa3da32b5b0a21cf9c6f5bc9edeb1d9e3a4b88cc5eb7b649f1e5029410165990670429d069189e000090565b8260ff166003036111eb57505060408051808201909152600a8152691315535091549352531360b21b602090910152507f6efa3da32b5b0a21cf9c6f5bc9edeb1d9e3a4b88cc5eb7b649f1e5029410165990670853a0d2313c000090565b8260ff166004036112435750506040805180820190915260048152634d494e4560e01b602090910152507f458fc043506cc6fea16e7daa38390499ef978846d88dd78fe56678ac9de79444906706f05b59d3b2000090565b8260ff1660050361129b5750506040805180820190915260048152634d494e4560e01b602090910152507f458fc043506cc6fea16e7daa38390499ef978846d88dd78fe56678ac9de7944490670b1a2bc2ec50000090565b8260ff166006036112f5575050604080518082019091526006815265534d4954485960d01b602090910152507fe8d22c09878b0ae66551f207dc5f243823c9e1989bc2d5dfab58fb1a93386fd2906709b6e64a8ec6000090565b8260ff1660070361134f575050604080518082019091526006815265534d4954485960d01b602090910152507fe8d22c09878b0ae66551f207dc5f243823c9e1989bc2d5dfab58fb1a93386fd290670de0b6b3a764000090565b8260ff166008036113a75750506040805180820190915260048152631193d49560e21b602090910152507f2911d5ca388af24ed7f391a4eb24469bc0fd8935cd73bb1075ca7e702a42eb199067058d15e17628000090565b8260ff16600903610cf75750506040805180820190915260048152631193d49560e21b602090910152507f2911d5ca388af24ed7f391a4eb24469bc0fd8935cd73bb1075ca7e702a42eb1990670853a0d2313c000090565b6040805180820190915260048152634641524d60e01b60209091015260007fea182adbe8a99c0376d68ae8663b1e572fb013df4142853d0efacd6d83e4a3f382016114535750678ac7230489e80000919050565b60408051808201909152600a8152691315535091549352531360b21b6020909101527f9105c25cd4a4f5de306390a4361214e261c5b47733a14849b60e1afd6befe9a782016114ab5750676124fee993bc0000919050565b6040805180820190915260048152634d494e4560e01b6020909101527fba703fbcaf9339015e918255c7c6fb66106877b9277228701a99875362186bbc82016114fd5750674563918244f40000919050565b604080518082019091526006815265534d4954485960d01b6020909101527f172dd3f67874f5199aae0df823a0dbc7dc361e67643d2a2054a704e56cc7902e820161155157506729a2241af62c0000919050565b6040805180820190915260048152631193d49560e21b6020909101527fd6ee2a35c7750db1280c6e5b14dbb9643f0276ca328c44ef8a35818fd5bd14e78201610cf75750674563918244f40000919050565b6115dc6040518060c001604052806000815260200160008152602001600081526020016000815260200160008152602001600081525090565b6040805180820190915260078152662ba0a92924a7a960c91b6020909101527f963ace81a31bb0e5e04a9395a1006fbdeb19cac259cef54f594aee1106583c6f8201611666576040518060c0016040528060008152602001601481526020016005815260200160058152602001650a86cc92e3da815260200165150d9925c7b48152509050919050565b60408051808201909152600681526520a921a422a960d11b6020909101527fbd21a0403f8a882c166bd206a22b19e35435476f82a2cccdbfebf4d666c861c082016116ef576040518060c0016040528060058152602001600581526020016000815260200160058152602001650a86cc92e3da815260200165150d9925c7b48152509050919050565b6040805180820190915260088152672427a929a2a6a0a760c11b6020909101527f762a1190b034cd04c3eae43da1943cdf0137d457634c4d62e69626f81f1986c78201610cf7576040518060c0016040528060008152602001600581526020016005815260200160148152602001650a86cc92e3da815260200165150d9925c7b48152509050919050565b60408051808201909152600681526520a921a422a960d11b6020909101526000807fbd21a0403f8a882c166bd206a22b19e35435476f82a2cccdbfebf4d666c861c083016117da5750662386ef98e7bf4c92662386f26fc1000092509050565b6040805180820190915260088152672427a929a2a6a0a760c11b6020909101527f762a1190b034cd04c3eae43da1943cdf0137d457634c4d62e69626f81f1986c78301610cf75750662386f07b1c993692662386f26fc1000092509050565b6040805160038082526080820190925260609160009190816020015b604080516060808201835280825260208201526000918101919091528152602001906001900390816118555750506040805160a0810182526011606082019081527f4d697468726165756d2057617272696f720000000000000000000000000000006080830152815281518083018352600881527f6d57415252494f52000000000000000000000000000000000000000000000000602080830191909152808301919091528251808401845260078152662ba0a92924a7a960c91b9101527f69c5317e5ce44f1a1fb56c6a5eff904214e6353da6310ab0a6b511eef9a7c39191810191909152815191925090829060009061195257611952612cad565b6020908102919091018101919091526040805160a0810182526010606082019081527f4d697468726165756d20417263686572000000000000000000000000000000006080830152815281518083018352600781526636a0a921a422a960c91b818501528184015281518083018352600681526520a921a422a960d11b9301929092527f42de5fbfc07577d3e9942df95dd4e61cabcab8907d5d333240140b2999379e4090820152815182906001908110611a0f57611a0f612cad565b6020908102919091018101919091526040805160a0810182526012606082019081527f4d697468726165756d20486f7273656d616e00000000000000000000000000006080830152815281518083018352600981527f6d484f5253454d414e000000000000000000000000000000000000000000000081850152818401528151808301835260088152672427a929a2a6a0a760c11b9301929092527f89d5ee6f4fcb32fb3c151bc25e6bc320fec82ba89cb3b29d1969d907e0e679399082015281518290600290811061106c5761106c612cad565b60008160ff16600103611af957506002919050565b8160ff16600203611b0c57506001919050565b506000919050565b60606000611b20611839565b90506000815167ffffffffffffffff811115611b3e57611b3e612c97565b604051908082528060200260200182016040528015611b67578160200160208202803683370190505b50905060005b8151811015611bb957828181518110611b8857611b88612cad565b602002602001015160400151828281518110611ba657611ba6612cad565b6020908102919091010152600101611b6d565b5092915050565b600081600103611bd9575067058d15e176280000919050565b81600203611bf057506702c68af0bb140000919050565b81600303611c07575067016345785d8a0000919050565b81600403610cf757506000919050565b60408051600580825260c08201909252606091600091906020820160a08036833750506040805180820190915260048152634641524d60e01b6020909101525080519091507f15e7d524175663fc8929751799c4e1a8d04fec20bebd7ac2f10532927c1b5c0d908290600090611c8f57611c8f612cad565b6020026020010181815250506040518060400160405280600a8152602001691315535091549352531360b21b8152508051906020012081600181518110611cd857611cd8612cad565b602002602001018181525050604051806040016040528060048152602001634d494e4560e01b8152508051906020012081600281518110611d1b57611d1b612cad565b60200260200101818152505060405180604001604052806006815260200165534d4954485960d01b8152508051906020012081600381518110611d6057611d60612cad565b602002602001018181525050604051806040016040528060048152602001631193d49560e21b815250805190602001208160048151811061106c5761106c612cad565b6040805180820190915260078152662ba0a92924a7a960c91b60209091015260007f963ace81a31bb0e5e04a9395a1006fbdeb19cac259cef54f594aee1106583c6f8201611dfa5750670de0b6b3a7640000919050565b60408051808201909152600681526520a921a422a960d11b6020909101527fbd21a0403f8a882c166bd206a22b19e35435476f82a2cccdbfebf4d666c861c08201611e4757506000919050565b6040805180820190915260088152672427a929a2a6a0a760c11b6020909101527f762a1190b034cd04c3eae43da1943cdf0137d457634c4d62e69626f81f1986c78201610cf757506000919050565b6040805180820190915260048152631193d3d160e21b60209091015260007fd090a5d9e290baeb3c0f657cb8df01a7c37d0d11b8a73165ba04298bd71606c38201611eea5750670429d069189e0000919050565b60408051808201909152600481526315d3d3d160e21b6020909101527fa0c2c402a49ee67eb7d8a3e87eb93de113a3a54817e8a70c39ae8ab51c0e12be8201611f3c5750670de0b6b3a7640000919050565b6040805180820190915260038152624f524560e81b6020909101527f624ae31110c92d70b58ec456bb42524ff16773a98936d8ef150f1e6b104b34ab8201611f8d57506729a2241af62c0000919050565b604080518082019091526005815264125391d3d560da1b6020909101527f0b2c26746c5e8d6f1877c4437947c29fc4d8103cd72878c4c039b7afe27c1a8e8201610cf75750678ac7230489e80000919050565b600081600103611ff85750668e1bc9bf040000919050565b8160020361200f575067011c37937e080000919050565b8160030361202657506701aa535d3d0c0000919050565b81600403610cf75750670214e8348c4f0000919050565b6040805180820190915260048152634641524d60e01b60209091015260007fea182adbe8a99c0376d68ae8663b1e572fb013df4142853d0efacd6d83e4a3f3820161209157506706f05b59d3b20000919050565b60408051808201909152600a8152691315535091549352531360b21b6020909101527f9105c25cd4a4f5de306390a4361214e261c5b47733a14849b60e1afd6befe9a782016120e957506705f7aab8c56b0000919050565b6040805180820190915260048152634d494e4560e01b6020909101527fba703fbcaf9339015e918255c7c6fb66106877b9277228701a99875362186bbc820161213b575067058d15e176280000919050565b604080518082019091526006815265534d4954485960d01b6020909101527f172dd3f67874f5199aae0df823a0dbc7dc361e67643d2a2054a704e56cc7902e820161218f5750670494654067e10000919050565b6040805180820190915260048152631193d49560e21b6020909101527fd6ee2a35c7750db1280c6e5b14dbb9643f0276ca328c44ef8a35818fd5bd14e78201610cf7575067058d15e176280000919050565b6000808260ff1660000361223f5750506040805180820190915260078152662ba0a92924a7a960c91b602090910152507f69c5317e5ce44f1a1fb56c6a5eff904214e6353da6310ab0a6b511eef9a7c39190670429d069189e000090565b8260ff1660010361229957505060408051808201909152600681526520a921a422a960d11b602090910152507f42de5fbfc07577d3e9942df95dd4e61cabcab8907d5d333240140b2999379e40906706f05b59d3b2000090565b8260ff16600203610cf75750506040805180820190915260088152672427a929a2a6a0a760c11b602090910152507f89d5ee6f4fcb32fb3c151bc25e6bc320fec82ba89cb3b29d1969d907e0e6793990670de0b6b3a764000090565b6000816001036123105750690878678326eac9000000919050565b8160020361232957506910f0cf064dd592000000919050565b8160030361234257506921e19e0c9bab24000000919050565b81600403610cf757506943c33c19375648000000919050565b6040805180820190915260078152662ba0a92924a7a960c91b60209091015260007f963ace81a31bb0e5e04a9395a1006fbdeb19cac259cef54f594aee1106583c6f82016123ab57506000919050565b60408051808201909152600681526520a921a422a960d11b6020909101527fbd21a0403f8a882c166bd206a22b19e35435476f82a2cccdbfebf4d666c861c082016123ff57506729a2241af62c0000919050565b6040805180820190915260088152672427a929a2a6a0a760c11b6020909101527f762a1190b034cd04c3eae43da1943cdf0137d457634c4d62e69626f81f1986c78201610cf75750673782dace9d900000919050565b6040805180820190915260078152662ba0a92924a7a960c91b60209091015260007f963ace81a31bb0e5e04a9395a1006fbdeb19cac259cef54f594aee1106583c6f82016124f857505060408051808201909152601181527f574f524b4552535f554e49545f504f4f4c0000000000000000000000000000006020909101527f8f75178ea8b939732f30df87bf2b4d5864e1068291d6e7b65eb7efcdd75e570290565b60408051808201909152600681526520a921a422a960d11b6020909101527fbd21a0403f8a882c166bd206a22b19e35435476f82a2cccdbfebf4d666c861c0820161258b57505060408051808201909152601081526f125391d3d514d7d553925517d413d3d360821b6020909101527facde00cf82db2dd178c1275275df8e6a2355a26d2338720a6239578a1148b9f790565b6040805180820190915260088152672427a929a2a6a0a760c11b6020909101527f762a1190b034cd04c3eae43da1943cdf0137d457634c4d62e69626f81f1986c78201610cf757505060408051808201909152601081526f125391d3d514d7d553925517d413d3d360821b6020909101527facde00cf82db2dd178c1275275df8e6a2355a26d2338720a6239578a1148b9f790565b6040805180820190915260048152631193d3d160e21b60209091015260007fd090a5d9e290baeb3c0f657cb8df01a7c37d0d11b8a73165ba04298bd71606c382016126745750670de0b6b3a7640000919050565b60408051808201909152600481526315d3d3d160e21b6020909101527fa0c2c402a49ee67eb7d8a3e87eb93de113a3a54817e8a70c39ae8ab51c0e12be82016126c65750670de0b6b3a7640000919050565b6040805180820190915260038152624f524560e81b6020909101527f624ae31110c92d70b58ec456bb42524ff16773a98936d8ef150f1e6b104b34ab82016127175750670de0b6b3a7640000919050565b604080518082019091526005815264125391d3d560da1b6020909101527f0b2c26746c5e8d6f1877c4437947c29fc4d8103cd72878c4c039b7afe27c1a8e8201610cf75750670de0b6b3a7640000919050565b6040805180820190915260048152631193d3d160e21b60209091015260007fd090a5d9e290baeb3c0f657cb8df01a7c37d0d11b8a73165ba04298bd71606c382016127be57506706f05b59d3b20000919050565b60408051808201909152600481526315d3d3d160e21b6020909101527fa0c2c402a49ee67eb7d8a3e87eb93de113a3a54817e8a70c39ae8ab51c0e12be82016128105750670de0b6b3a7640000919050565b6040805180820190915260038152624f524560e81b6020909101527f624ae31110c92d70b58ec456bb42524ff16773a98936d8ef150f1e6b104b34ab82016128615750671bc16d674ec80000919050565b604080518082019091526005815264125391d3d560da1b6020909101527f0b2c26746c5e8d6f1877c4437947c29fc4d8103cd72878c4c039b7afe27c1a8e8201611b0c57506729a2241af62c0000919050565b6040805180820190915260048152634641524d60e01b60209091015260007fea182adbe8a99c0376d68ae8663b1e572fb013df4142853d0efacd6d83e4a3f3820161290857506706f05b59d3b20000919050565b60408051808201909152600a8152691315535091549352531360b21b6020909101527f9105c25cd4a4f5de306390a4361214e261c5b47733a14849b60e1afd6befe9a782016129605750670de0b6b3a7640000919050565b6040805180820190915260048152634d494e4560e01b6020909101527fba703fbcaf9339015e918255c7c6fb66106877b9277228701a99875362186bbc82016129b25750671bc16d674ec80000919050565b604080518082019091526006815265534d4954485960d01b6020909101527f172dd3f67874f5199aae0df823a0dbc7dc361e67643d2a2054a704e56cc7902e8201612a065750673782dace9d900000919050565b6040805180820190915260048152631193d49560e21b6020909101527fd6ee2a35c7750db1280c6e5b14dbb9643f0276ca328c44ef8a35818fd5bd14e78201610cf75750671bc16d674ec80000919050565b600060208284031215612a6a57600080fd5b5035919050565b600060208284031215612a8357600080fd5b81356001600160a01b0381168114612a9a57600080fd5b9392505050565b6000815180845260005b81811015612ac757602081850181015186830182015201612aab565b506000602082860101526020601f19601f83011685010191505092915050565b6000815160608452612afc6060850182612aa1565b905060208301518482036020860152612b158282612aa1565b915050604083015160408501528091505092915050565b6000602082016020835280845180835260408501915060408160051b86010192506020860160005b82811015612b8557603f19878603018452612b70858351612ae7565b94506020938401939190910190600101612b54565b50929695505050505050565b600060208284031215612ba357600080fd5b813560ff81168114612a9a57600080fd5b6000602082016020835280845180835260408501915060408160051b86010192506020860160005b82811015612b8557603f19878603018452612bf8858351612ae7565b94506020938401939190910190600101612bdc565b602080825282518282018190526000918401906040840190835b81811015612c45578351835260209384019390920191600101612c27565b509095945050505050565b600082612c6d57634e487b7160e01b600052601260045260246000fd5b500490565b80820281158282048414176108b557634e487b7160e01b600052601160045260246000fd5b634e487b7160e01b600052604160045260246000fd5b634e487b7160e01b600052603260045260246000fdfea264697066735822122099e5ed412f2299c06a8ab485393085e694ccc9a8e2ae3267176eb6737a2738d464736f6c634300081a0033",
  "linkReferences": {},
  "deployedLinkReferences": {}
}