{
  "_format": "hh-sol-artifact-1",
  "contractName": "SimpleProxy",
  "sourceName": "contracts/periphery/SimpleProxy.sol",
  "abi": [
    {
      "inputs": [],
      "stateMutability": "nonpayable",
      "type": "constructor"
    },
    {
      "inputs": [],
      "name": "OnlyOwner",
      "type": "error"
    },
    {
      "inputs": [],
      "name": "UnableToTransferOwnershipToZeroAddress",
      "type": "error"
    },
    {
      "anonymous": false,
      "inputs": [
        {
          "indexed": true,
          "internalType": "address",
          "name": "previousOwner",
          "type": "address"
        },
        {
          "indexed": true,
          "internalType": "address",
          "name": "newOwner",
          "type": "address"
        }
      ],
      "name": "OwnershipTransferred",
      "type": "event"
    },
    {
      "stateMutability": "payable",
      "type": "fallback"
    },
    {
      "inputs": [],
      "name": "renounceOwnership",
      "outputs": [],
      "stateMutability": "nonpayable",
      "type": "function"
    },
    {
      "inputs": [
        {
          "internalType": "address",
          "name": "_newImpl",
          "type": "address"
        }
      ],
      "name": "setImplementation",
      "outputs": [],
      "stateMutability": "nonpayable",
      "type": "function"
    },
    {
      "inputs": [
        {
          "internalType": "address",
          "name": "newOwner",
          "type": "address"
        }
      ],
      "name": "transferOwnership",
      "outputs": [],
      "stateMutability": "nonpayable",
      "type": "function"
    }
  ],
  "bytecode": "0x6080604052348015600f57600080fd5b50601733601b565b60b0565b7f89ebf6b655b5bf3480fb4246b9e8786d810726f923695e3ff9668f941b26cb1b80546001600160a01b031981166001600160a01b038481169182179093556040517f89ebf6b655b5bf3480fb4246b9e8786d810726f923695e3ff9668f941b26cb1a939092169182907f8be0079c531659141344cd1fd0a4f28419497f9722a3daafe3b4186f6b6457e090600090a3505050565b6102d6806100bf6000396000f3fe6080604052600436106100345760003560e01c8063715018a61461008a578063d784d4261461009f578063f2fde38b146100bf575b7f89ebf6b655b5bf3480fb4246b9e8786d810726f923695e3ff9668f941b26cb1a80546040516001600160a01b039091169036600082376000803683855af43d806000843e818015610084578184f35b8184fd5b005b34801561009657600080fd5b506100886100df565b3480156100ab57600080fd5b506100886100ba366004610270565b6100f3565b3480156100cb57600080fd5b506100886100da366004610270565b610149565b6100e7610184565b6100f160006101ce565b565b6100fb610184565b7f89ebf6b655b5bf3480fb4246b9e8786d810726f923695e3ff9668f941b26cb1a805473ffffffffffffffffffffffffffffffffffffffff19166001600160a01b0392909216919091179055565b610151610184565b6001600160a01b038116610178576040516372e0a41960e11b815260040160405180910390fd5b610181816101ce565b50565b7f89ebf6b655b5bf3480fb4246b9e8786d810726f923695e3ff9668f941b26cb1b546001600160a01b031633146100f157604051635fc483c560e01b815260040160405180910390fd5b7f89ebf6b655b5bf3480fb4246b9e8786d810726f923695e3ff9668f941b26cb1b805473ffffffffffffffffffffffffffffffffffffffff1981166001600160a01b038481169182179093556040517f89ebf6b655b5bf3480fb4246b9e8786d810726f923695e3ff9668f941b26cb1a939092169182907f8be0079c531659141344cd1fd0a4f28419497f9722a3daafe3b4186f6b6457e090600090a3505050565b60006020828403121561028257600080fd5b81356001600160a01b038116811461029957600080fd5b939250505056fea26469706673582212200c095b1c93f7525a0c92c6194566b070e21baa10e8313983f3bf374be27010d964736f6c634300081a0033",
  "linkReferences": {},
  "deployedLinkReferences": {}
}