{
  "_format": "hh-sol-artifact-1",
  "contractName": "SettlementsListings",
  "sourceName": "contracts/external/SettlementsListings.sol",
  "abi": [
    {
      "inputs": [
        {
          "internalType": "address",
          "name": "bannersAddress",
          "type": "address"
        },
        {
          "internalType": "address",
          "name": "worldAddress",
          "type": "address"
        }
      ],
      "stateMutability": "nonpayable",
      "type": "constructor"
    },
    {
      "inputs": [],
      "name": "CannotAcceptExpiredOrder",
      "type": "error"
    },
    {
      "inputs": [],
      "name": "CannotAcceptNotNewOrder",
      "type": "error"
    },
    {
      "inputs": [],
      "name": "CannotAcceptNotStartedOrder",
      "type": "error"
    },
    {
      "inputs": [],
      "name": "CannotAcceptOrderByNotAllowedAddress",
      "type": "error"
    },
    {
      "inputs": [],
      "name": "CannotAcceptOrderByProvidingNotExactPriceForIt",
      "type": "error"
    },
    {
      "inputs": [],
      "name": "CannotAcceptOrderWithSharesToReceiveLowerThanSpecified",
      "type": "error"
    },
    {
      "inputs": [],
      "name": "CannotCancelActiveOrderIfCallerNotOrderOwnerAndOrderOwnerOwnsBanner",
      "type": "error"
    },
    {
      "inputs": [],
      "name": "CannotCancelNonNewOrder",
      "type": "error"
    },
    {
      "inputs": [],
      "name": "CannotCreateOrderForBannerMoreThanOnce",
      "type": "error"
    },
    {
      "inputs": [],
      "name": "CannotCreateOrderForNotOwnedBanner",
      "type": "error"
    },
    {
      "inputs": [],
      "name": "CannotModifyNonNewOrder",
      "type": "error"
    },
    {
      "inputs": [],
      "name": "CannotModifyOrderByNonOrderOwner",
      "type": "error"
    },
    {
      "anonymous": false,
      "inputs": [
        {
          "indexed": false,
          "internalType": "uint256",
          "name": "orderId",
          "type": "uint256"
        }
      ],
      "name": "OrderAccepted",
      "type": "event"
    },
    {
      "anonymous": false,
      "inputs": [
        {
          "indexed": false,
          "internalType": "uint256",
          "name": "orderId",
          "type": "uint256"
        }
      ],
      "name": "OrderCancelled",
      "type": "event"
    },
    {
      "anonymous": false,
      "inputs": [
        {
          "indexed": false,
          "internalType": "uint256",
          "name": "orderId",
          "type": "uint256"
        },
        {
          "indexed": false,
          "internalType": "uint256",
          "name": "bannerId",
          "type": "uint256"
        },
        {
          "indexed": false,
          "internalType": "address",
          "name": "sellingTokenAddress",
          "type": "address"
        },
        {
          "indexed": false,
          "internalType": "uint256",
          "name": "price",
          "type": "uint256"
        },
        {
          "indexed": false,
          "internalType": "address",
          "name": "allowedAddressToAcceptOrder",
          "type": "address"
        },
        {
          "indexed": false,
          "internalType": "uint256",
          "name": "orderStartTime",
          "type": "uint256"
        },
        {
          "indexed": false,
          "internalType": "uint256",
          "name": "orderEndTime",
          "type": "uint256"
        }
      ],
      "name": "OrderCreated",
      "type": "event"
    },
    {
      "anonymous": false,
      "inputs": [
        {
          "indexed": false,
          "internalType": "uint256",
          "name": "orderId",
          "type": "uint256"
        },
        {
          "indexed": false,
          "internalType": "address",
          "name": "sellingTokenAddress",
          "type": "address"
        },
        {
          "indexed": false,
          "internalType": "uint256",
          "name": "price",
          "type": "uint256"
        },
        {
          "indexed": false,
          "internalType": "address",
          "name": "allowedAddressToAcceptOrder",
          "type": "address"
        },
        {
          "indexed": false,
          "internalType": "uint256",
          "name": "orderStartTime",
          "type": "uint256"
        },
        {
          "indexed": false,
          "internalType": "uint256",
          "name": "orderEndTime",
          "type": "uint256"
        }
      ],
      "name": "OrderModified",
      "type": "event"
    },
    {
      "inputs": [
        {
          "internalType": "uint256",
          "name": "orderId",
          "type": "uint256"
        },
        {
          "components": [
            {
              "internalType": "bytes32",
              "name": "buildingTypeId",
              "type": "bytes32"
            },
            {
              "internalType": "uint256",
              "name": "minSharesAmount",
              "type": "uint256"
            }
          ],
          "internalType": "struct SettlementsListings.SharesInfo[]",
          "name": "minBuildingsSharesToReceive",
          "type": "tuple[]"
        }
      ],
      "name": "acceptOrder",
      "outputs": [],
      "stateMutability": "payable",
      "type": "function"
    },
    {
      "inputs": [],
      "name": "banners",
      "outputs": [
        {
          "internalType": "contract IERC721Enumerable",
          "name": "",
          "type": "address"
        }
      ],
      "stateMutability": "view",
      "type": "function"
    },
    {
      "inputs": [
        {
          "internalType": "uint256",
          "name": "",
          "type": "uint256"
        }
      ],
      "name": "bannersOrders",
      "outputs": [
        {
          "internalType": "uint256",
          "name": "",
          "type": "uint256"
        }
      ],
      "stateMutability": "view",
      "type": "function"
    },
    {
      "inputs": [
        {
          "internalType": "uint256",
          "name": "orderId",
          "type": "uint256"
        }
      ],
      "name": "cancelOrder",
      "outputs": [],
      "stateMutability": "nonpayable",
      "type": "function"
    },
    {
      "inputs": [
        {
          "internalType": "uint256",
          "name": "bannerId",
          "type": "uint256"
        },
        {
          "internalType": "address",
          "name": "sellingTokenAddress",
          "type": "address"
        },
        {
          "internalType": "uint256",
          "name": "price",
          "type": "uint256"
        },
        {
          "internalType": "address",
          "name": "allowedAddressToAcceptOrder",
          "type": "address"
        },
        {
          "internalType": "uint256",
          "name": "orderStartTime",
          "type": "uint256"
        },
        {
          "internalType": "uint256",
          "name": "orderEndTime",
          "type": "uint256"
        }
      ],
      "name": "createOrder",
      "outputs": [],
      "stateMutability": "nonpayable",
      "type": "function"
    },
    {
      "inputs": [],
      "name": "lastOrderId",
      "outputs": [
        {
          "internalType": "uint256",
          "name": "",
          "type": "uint256"
        }
      ],
      "stateMutability": "view",
      "type": "function"
    },
    {
      "inputs": [
        {
          "internalType": "uint256",
          "name": "orderId",
          "type": "uint256"
        },
        {
          "internalType": "address",
          "name": "sellingTokenAddress",
          "type": "address"
        },
        {
          "internalType": "uint256",
          "name": "price",
          "type": "uint256"
        },
        {
          "internalType": "address",
          "name": "allowedAddressToAcceptOrder",
          "type": "address"
        },
        {
          "internalType": "uint256",
          "name": "orderStartTime",
          "type": "uint256"
        },
        {
          "internalType": "uint256",
          "name": "orderEndTime",
          "type": "uint256"
        }
      ],
      "name": "modifyOrder",
      "outputs": [],
      "stateMutability": "nonpayable",
      "type": "function"
    },
    {
      "inputs": [
        {
          "internalType": "uint256",
          "name": "",
          "type": "uint256"
        }
      ],
      "name": "orders",
      "outputs": [
        {
          "internalType": "address",
          "name": "orderOwner",
          "type": "address"
        },
        {
          "internalType": "address",
          "name": "sellingTokenAddress",
          "type": "address"
        },
        {
          "internalType": "address",
          "name": "allowedAddressToAcceptOrder",
          "type": "address"
        },
        {
          "internalType": "uint256",
          "name": "orderStartTime",
          "type": "uint256"
        },
        {
          "internalType": "uint256",
          "name": "orderEndTime",
          "type": "uint256"
        },
        {
          "internalType": "uint256",
          "name": "price",
          "type": "uint256"
        },
        {
          "internalType": "uint256",
          "name": "bannerId",
          "type": "uint256"
        },
        {
          "internalType": "enum SettlementsListings.OrderStatus",
          "name": "status",
          "type": "uint8"
        }
      ],
      "stateMutability": "view",
      "type": "function"
    },
    {
      "inputs": [],
      "name": "world",
      "outputs": [
        {
          "internalType": "contract IWorld",
          "name": "",
          "type": "address"
        }
      ],
      "stateMutability": "view",
      "type": "function"
    }
  ],
  "bytecode": "0x60806040526000600555348015601457600080fd5b5060405161179f38038061179f8339810160408190526031916081565b6001600081905580546001600160a01b039384166001600160a01b0319918216179091556002805492909316911617905560af565b80516001600160a01b0381168114607c57600080fd5b919050565b60008060408385031215609357600080fd5b609a836066565b915060a6602084016066565b90509250929050565b6116e1806100be6000396000f3fe6080604052600436106100965760003560e01c80635662ecc711610069578063a85c38ef1161004e578063a85c38ef1461018b578063aa822eb714610211578063efcc4c501461023157600080fd5b80635662ecc714610155578063599a9aec1461016b57600080fd5b806330b67baa1461009b578063363017cd146100d857806340d9456b14610113578063514fcac714610133575b600080fd5b3480156100a757600080fd5b506002546100bb906001600160a01b031681565b6040516001600160a01b0390911681526020015b60405180910390f35b3480156100e457600080fd5b506101056100f3366004611286565b60046020526000908152604090205481565b6040519081526020016100cf565b34801561011f57600080fd5b506001546100bb906001600160a01b031681565b34801561013f57600080fd5b5061015361014e366004611286565b610244565b005b34801561016157600080fd5b5061010560055481565b34801561017757600080fd5b506101536101863660046112b7565b6103a4565b34801561019757600080fd5b506101fd6101a6366004611286565b6003602081905260009182526040909120805460018201546002830154938301546004840154600585015460068601546007909601546001600160a01b039586169794861696959094169492939192909160ff1688565b6040516100cf989796959493929190611329565b34801561021d57600080fd5b5061015361022c3660046112b7565b610600565b61015361023f366004611415565b610724565b600081815260036020526040808220600154600682015492516331a9108f60e11b81529193926001600160a01b0390911691636352211e9161028c9160040190815260200190565b602060405180830381865afa1580156102a9573d6000803e3d6000fd5b505050506040513d601f19601f820116820180604052508101906102cd91906114f8565b90506001600783015460ff1660038111156102ea576102ea611313565b1461030857604051632f7bd1fd60e11b815260040160405180910390fd5b81546001600160a01b03908116338114918316148115826103265750805b156103445760405163ce86912760e01b815260040160405180910390fd5b60078401805460ff19166002179055600684015460009081526004602090815260408083209290925590518681527f61b9399f2f0f32ca39ce8d7be32caed5ec22fe07a6daba3a467ed479ec606582910160405180910390a15050505050565b6001546040516331a9108f60e11b8152600481018890526000916001600160a01b031690636352211e90602401602060405180830381865afa1580156103ee573d6000803e3d6000fd5b505050506040513d601f19601f8201168201806040525081019061041291906114f8565b6000888152600460209081526040808320548084526003909252909120919250906001600782015460ff16600381111561044e5761044e611313565b148015610468575080546001600160a01b03848116911614155b156104765761047682610244565b6001600160a01b038316331461049f57604051630da8190160e11b815260040160405180910390fd5b600089815260046020526040902054156104cc5760405163a0d2b8ad60e01b815260040160405180910390fd5b6005546104da906001611515565b600581815560008b81526004602090815260408083208590559382526003905291909120600681018b905580543373ffffffffffffffffffffffffffffffffffffffff19918216178255600180830180549092166001600160a01b038d161790915591810189905560078101805491929160ff19168280021790555060028101805473ffffffffffffffffffffffffffffffffffffffff19166001600160a01b03898116918217909255600383018890556004830187905560055460408051918252602082018e9052928c1692810192909252606082018a9052608082015260a0810187905260c081018690527f64a51624f531aae4e5d86d31192645e61feee4523e2544113240356c630f4e109060e00160405180910390a150505050505050505050565b60008681526003602052604090206001600782015460ff16600381111561062957610629611313565b146106475760405163103f438560e21b815260040160405180910390fd5b80546001600160a01b031633146106715760405163ac26d10760e01b815260040160405180910390fd5b6001810180546001600160a01b0388811673ffffffffffffffffffffffffffffffffffffffff199283168117909355600584018890556002840180549188169190921681179091556003830185905560048301849055604080518a81526020810193909352820187905260608201526080810184905260a081018390527fd46c0f1a97fc5abfe74ee09bcdcc14a0f7a1db6e4b80c067f13501aee513493b9060c00160405180910390a150505050505050565b60026000540361077b5760405162461bcd60e51b815260206004820152601f60248201527f5265656e7472616e637947756172643a207265656e7472616e742063616c6c0060448201526064015b60405180910390fd5b600260009081558281526003602052604090206001600782015460ff1660038111156107a9576107a9611313565b146107c75760405163c3cb1a5560e01b815260040160405180910390fd5b60028101546001600160a01b0316158015906107f0575060028101546001600160a01b03163314155b1561080d57604051629d5d6b60e51b815260040160405180910390fd5b6003810154158015906108235750806003015442105b1561084157604051630eb5277f60e41b815260040160405180910390fd5b6004810154158015906108575750806004015442115b15610875576040516311ea326b60e11b815260040160405180910390fd5b60018101546001600160a01b03161580156108cd57816005015434146108ae57604051637edb6f8d60e01b815260040160405180910390fd5b815460058301546108c8916001600160a01b031690610e8b565b6108f3565b6001820154825460058401546108f3926001600160a01b03908116923392911690610fa9565b60015482546006840154604051632142170760e11b81526001600160a01b03928316600482015233602482015260448101919091529116906342842e0e90606401600060405180830381600087803b15801561094e57600080fd5b505af1158015610962573d6000803e3d6000fd5b505050506000600260009054906101000a90046001600160a01b03166001600160a01b031663e4e940f06040518163ffffffff1660e01b8152600401602060405180830381865afa1580156109bb573d6000803e3d6000fd5b505050506040513d601f19601f820116820180604052508101906109df91906114f8565b6002546040805163704f63a160e01b815290519293506000926001600160a01b039092169163720a70bd91839163704f63a1916004808201926020929091908290030181865afa158015610a37573d6000803e3d6000fd5b505050506040513d601f19601f82011682018060405250810190610a5b919061153c565b6040518263ffffffff1660e01b8152600401610a7991815260200190565b602060405180830381865afa158015610a96573d6000803e3d6000fd5b505050506040513d601f19601f82011682018060405250810190610aba91906114f8565b90506000816001600160a01b031663ebe63ec886600601546040518263ffffffff1660e01b8152600401610af091815260200190565b602060405180830381865afa158015610b0d573d6000803e3d6000fd5b505050506040513d601f19601f82011682018060405250810190610b3191906114f8565b90506000865167ffffffffffffffff811115610b4f57610b4f6113a5565b604051908082528060200260200182016040528015610b78578160200160208202803683370190505b5090506000875167ffffffffffffffff811115610b9757610b976113a5565b604051908082528060200260200182016040528015610bc0578160200160208202803683370190505b50905060005b8851811015610da9576000898281518110610be357610be3611555565b602002602001015190506000856001600160a01b0316636e5cf15c83600001516040518263ffffffff1660e01b8152600401610c2191815260200190565b602060405180830381865afa158015610c3e573d6000803e3d6000fd5b505050506040513d601f19601f82011682018060405250810190610c6291906114f8565b6001600160a01b031663c9c0df616040518163ffffffff1660e01b8152600401602060405180830381865afa158015610c9f573d6000803e3d6000fd5b505050506040513d601f19601f82011682018060405250810190610cc3919061153c565b8a54604051627eeac760e11b81526001600160a01b03918216600482015260248101839052919250600091908a169062fdd58e90604401602060405180830381865afa158015610d17573d6000803e3d6000fd5b505050506040513d601f19601f82011682018060405250810190610d3b919061153c565b90508260200151811015610d615760405162b04f4360e51b815260040160405180910390fd5b81868581518110610d7457610d74611555565b60200260200101818152505080858581518110610d9357610d93611555565b6020908102919091010152505050600101610bc6565b50865460408051600081526020810191829052631759616b60e11b9091526001600160a01b0387811692632eb2c2d692610df09290911690339087908790602481016115f7565b600060405180830381600087803b158015610e0a57600080fd5b505af1158015610e1e573d6000803e3d6000fd5b5050505060078701805460ff19166003179055600687015460009081526004602090815260408083209290925590518a81527f262f7ad1922bdcf27203585ef3238620589ce6f74721d45bff6897a19e4f94a1910160405180910390a15050600160005550505050505050565b80471015610edb5760405162461bcd60e51b815260206004820152601d60248201527f416464726573733a20696e73756666696369656e742062616c616e63650000006044820152606401610772565b6000826001600160a01b03168260405160006040518083038185875af1925050503d8060008114610f28576040519150601f19603f3d011682016040523d82523d6000602084013e610f2d565b606091505b5050905080610fa45760405162461bcd60e51b815260206004820152603a60248201527f416464726573733a20756e61626c6520746f2073656e642076616c75652c207260448201527f6563697069656e74206d617920686176652072657665727465640000000000006064820152608401610772565b505050565b604080516001600160a01b0385811660248301528416604482015260648082018490528251808303909101815260849091019091526020810180517bffffffffffffffffffffffffffffffffffffffffffffffffffffffff166323b872dd60e01b17905261101890859061101e565b50505050565b6000611073826040518060400160405280602081526020017f5361666545524332303a206c6f772d6c6576656c2063616c6c206661696c6564815250856001600160a01b03166111039092919063ffffffff16565b805190915015610fa45780806020019051810190611091919061165a565b610fa45760405162461bcd60e51b815260206004820152602a60248201527f5361666545524332303a204552433230206f7065726174696f6e20646964206e60448201527f6f742073756363656564000000000000000000000000000000000000000000006064820152608401610772565b6060611112848460008561111c565b90505b9392505050565b60608247101561117d5760405162461bcd60e51b815260206004820152602660248201527f416464726573733a20696e73756666696369656e742062616c616e636520666f6044820152651c8818d85b1b60d21b6064820152608401610772565b6001600160a01b0385163b6111d45760405162461bcd60e51b815260206004820152601d60248201527f416464726573733a2063616c6c20746f206e6f6e2d636f6e74726163740000006044820152606401610772565b600080866001600160a01b031685876040516111f0919061167c565b60006040518083038185875af1925050503d806000811461122d576040519150601f19603f3d011682016040523d82523d6000602084013e611232565b606091505b509150915061124282828661124d565b979650505050505050565b6060831561125c575081611115565b82511561126c5782518084602001fd5b8160405162461bcd60e51b81526004016107729190611698565b60006020828403121561129857600080fd5b5035919050565b6001600160a01b03811681146112b457600080fd5b50565b60008060008060008060c087890312156112d057600080fd5b8635955060208701356112e28161129f565b94506040870135935060608701356112f98161129f565b9598949750929560808101359460a0909101359350915050565b634e487b7160e01b600052602160045260246000fd5b6000610100820190506001600160a01b038a1682526001600160a01b03891660208301526001600160a01b03881660408301528660608301528560808301528460a08301528360c08301526004831061139257634e487b7160e01b600052602160045260246000fd5b8260e08301529998505050505050505050565b634e487b7160e01b600052604160045260246000fd5b6040805190810167ffffffffffffffff811182821017156113de576113de6113a5565b60405290565b604051601f8201601f1916810167ffffffffffffffff8111828210171561140d5761140d6113a5565b604052919050565b6000806040838503121561142857600080fd5b82359150602083013567ffffffffffffffff81111561144657600080fd5b8301601f8101851361145757600080fd5b803567ffffffffffffffff811115611471576114716113a5565b61148060208260051b016113e4565b8082825260208201915060208360061b8501019250878311156114a257600080fd5b6020840193505b828410156114ea57604084890312156114c157600080fd5b6114c96113bb565b843581526020808601358183015290835260409094019391909101906114a9565b809450505050509250929050565b60006020828403121561150a57600080fd5b81516111158161129f565b8082018082111561153657634e487b7160e01b600052601160045260246000fd5b92915050565b60006020828403121561154e57600080fd5b5051919050565b634e487b7160e01b600052603260045260246000fd5b600081518084526020840193506020830160005b8281101561159d57815186526020958601959091019060010161157f565b5093949350505050565b60005b838110156115c25781810151838201526020016115aa565b50506000910152565b600081518084526115e38160208601602086016115a7565b601f01601f19169290920160200192915050565b6001600160a01b03861681526001600160a01b038516602082015260a06040820152600061162860a083018661156b565b828103606084015261163a818661156b565b9050828103608084015261164e81856115cb565b98975050505050505050565b60006020828403121561166c57600080fd5b8151801515811461111557600080fd5b6000825161168e8184602087016115a7565b9190910192915050565b60208152600061111560208301846115cb56fea2646970667358221220775a335963ebeaf62064f2e602e1dca6f4b53d26060fc48949160cd262ee1a5464736f6c634300081a0033",
  "linkReferences": {},
  "deployedLinkReferences": {}
}