{
  "_format": "hh-sol-artifact-1",
  "contractName": "Workers",
  "sourceName": "contracts/core/assets/tokens/workers/Workers.sol",
  "abi": [
    {
      "inputs": [],
      "stateMutability": "nonpayable",
      "type": "constructor"
    },
    {
      "inputs": [],
      "name": "OnlyActiveGame",
      "type": "error"
    },
    {
      "inputs": [],
      "name": "OnlyMightyCreator",
      "type": "error"
    },
    {
      "inputs": [],
      "name": "OnlyWorldAssetFromSameEra",
      "type": "error"
    },
    {
      "inputs": [],
      "name": "WorkersTransferInvalidParams",
      "type": "error"
    },
    {
      "anonymous": false,
      "inputs": [
        {
          "indexed": true,
          "internalType": "address",
          "name": "owner",
          "type": "address"
        },
        {
          "indexed": true,
          "internalType": "address",
          "name": "spender",
          "type": "address"
        },
        {
          "indexed": false,
          "internalType": "uint256",
          "name": "value",
          "type": "uint256"
        }
      ],
      "name": "Approval",
      "type": "event"
    },
    {
      "anonymous": false,
      "inputs": [
        {
          "indexed": false,
          "internalType": "uint8",
          "name": "version",
          "type": "uint8"
        }
      ],
      "name": "Initialized",
      "type": "event"
    },
    {
      "anonymous": false,
      "inputs": [
        {
          "indexed": true,
          "internalType": "address",
          "name": "from",
          "type": "address"
        },
        {
          "indexed": true,
          "internalType": "address",
          "name": "to",
          "type": "address"
        },
        {
          "indexed": false,
          "internalType": "uint256",
          "name": "value",
          "type": "uint256"
        }
      ],
      "name": "Transfer",
      "type": "event"
    },
    {
      "inputs": [
        {
          "internalType": "address",
          "name": "owner",
          "type": "address"
        },
        {
          "internalType": "address",
          "name": "spender",
          "type": "address"
        }
      ],
      "name": "allowance",
      "outputs": [
        {
          "internalType": "uint256",
          "name": "",
          "type": "uint256"
        }
      ],
      "stateMutability": "view",
      "type": "function"
    },
    {
      "inputs": [
        {
          "internalType": "address",
          "name": "spender",
          "type": "address"
        },
        {
          "internalType": "uint256",
          "name": "amount",
          "type": "uint256"
        }
      ],
      "name": "approve",
      "outputs": [
        {
          "internalType": "bool",
          "name": "",
          "type": "bool"
        }
      ],
      "stateMutability": "nonpayable",
      "type": "function"
    },
    {
      "inputs": [],
      "name": "assetGroupId",
      "outputs": [
        {
          "internalType": "bytes32",
          "name": "",
          "type": "bytes32"
        }
      ],
      "stateMutability": "view",
      "type": "function"
    },
    {
      "inputs": [],
      "name": "assetTypeId",
      "outputs": [
        {
          "internalType": "bytes32",
          "name": "",
          "type": "bytes32"
        }
      ],
      "stateMutability": "view",
      "type": "function"
    },
    {
      "inputs": [
        {
          "internalType": "address",
          "name": "account",
          "type": "address"
        }
      ],
      "name": "balanceOf",
      "outputs": [
        {
          "internalType": "uint256",
          "name": "",
          "type": "uint256"
        }
      ],
      "stateMutability": "view",
      "type": "function"
    },
    {
      "inputs": [
        {
          "internalType": "uint256",
          "name": "amount",
          "type": "uint256"
        }
      ],
      "name": "burn",
      "outputs": [],
      "stateMutability": "nonpayable",
      "type": "function"
    },
    {
      "inputs": [
        {
          "internalType": "address",
          "name": "from",
          "type": "address"
        },
        {
          "internalType": "uint256",
          "name": "amount",
          "type": "uint256"
        }
      ],
      "name": "burnFrom",
      "outputs": [],
      "stateMutability": "nonpayable",
      "type": "function"
    },
    {
      "inputs": [],
      "name": "decimals",
      "outputs": [
        {
          "internalType": "uint8",
          "name": "",
          "type": "uint8"
        }
      ],
      "stateMutability": "view",
      "type": "function"
    },
    {
      "inputs": [
        {
          "internalType": "address",
          "name": "spender",
          "type": "address"
        },
        {
          "internalType": "uint256",
          "name": "subtractedValue",
          "type": "uint256"
        }
      ],
      "name": "decreaseAllowance",
      "outputs": [
        {
          "internalType": "bool",
          "name": "",
          "type": "bool"
        }
      ],
      "stateMutability": "nonpayable",
      "type": "function"
    },
    {
      "inputs": [],
      "name": "era",
      "outputs": [
        {
          "internalType": "contract IEra",
          "name": "",
          "type": "address"
        }
      ],
      "stateMutability": "view",
      "type": "function"
    },
    {
      "inputs": [],
      "name": "eraNumber",
      "outputs": [
        {
          "internalType": "uint256",
          "name": "",
          "type": "uint256"
        }
      ],
      "stateMutability": "view",
      "type": "function"
    },
    {
      "inputs": [
        {
          "internalType": "address",
          "name": "spender",
          "type": "address"
        },
        {
          "internalType": "uint256",
          "name": "addedValue",
          "type": "uint256"
        }
      ],
      "name": "increaseAllowance",
      "outputs": [
        {
          "internalType": "bool",
          "name": "",
          "type": "bool"
        }
      ],
      "stateMutability": "nonpayable",
      "type": "function"
    },
    {
      "inputs": [
        {
          "internalType": "bytes",
          "name": "initParams",
          "type": "bytes"
        }
      ],
      "name": "init",
      "outputs": [],
      "stateMutability": "nonpayable",
      "type": "function"
    },
    {
      "inputs": [
        {
          "internalType": "address",
          "name": "to",
          "type": "address"
        },
        {
          "internalType": "uint256",
          "name": "amount",
          "type": "uint256"
        }
      ],
      "name": "mint",
      "outputs": [],
      "stateMutability": "nonpayable",
      "type": "function"
    },
    {
      "inputs": [],
      "name": "name",
      "outputs": [
        {
          "internalType": "string",
          "name": "",
          "type": "string"
        }
      ],
      "stateMutability": "view",
      "type": "function"
    },
    {
      "inputs": [],
      "name": "registry",
      "outputs": [
        {
          "internalType": "contract IRegistry",
          "name": "",
          "type": "address"
        }
      ],
      "stateMutability": "view",
      "type": "function"
    },
    {
      "inputs": [],
      "name": "symbol",
      "outputs": [
        {
          "internalType": "string",
          "name": "",
          "type": "string"
        }
      ],
      "stateMutability": "view",
      "type": "function"
    },
    {
      "inputs": [],
      "name": "totalSupply",
      "outputs": [
        {
          "internalType": "uint256",
          "name": "",
          "type": "uint256"
        }
      ],
      "stateMutability": "view",
      "type": "function"
    },
    {
      "inputs": [
        {
          "internalType": "address",
          "name": "to",
          "type": "address"
        },
        {
          "internalType": "uint256",
          "name": "amount",
          "type": "uint256"
        }
      ],
      "name": "transfer",
      "outputs": [
        {
          "internalType": "bool",
          "name": "",
          "type": "bool"
        }
      ],
      "stateMutability": "nonpayable",
      "type": "function"
    },
    {
      "inputs": [
        {
          "internalType": "address",
          "name": "from",
          "type": "address"
        },
        {
          "internalType": "address",
          "name": "to",
          "type": "address"
        },
        {
          "internalType": "uint256",
          "name": "amount",
          "type": "uint256"
        }
      ],
      "name": "transferFrom",
      "outputs": [
        {
          "internalType": "bool",
          "name": "",
          "type": "bool"
        }
      ],
      "stateMutability": "nonpayable",
      "type": "function"
    },
    {
      "inputs": [],
      "name": "world",
      "outputs": [
        {
          "internalType": "contract IWorld",
          "name": "",
          "type": "address"
        }
      ],
      "stateMutability": "view",
      "type": "function"
    },
    {
      "inputs": [],
      "name": "worldAssetFactory",
      "outputs": [
        {
          "internalType": "contract IWorldAssetFactory",
          "name": "",
          "type": "address"
        }
      ],
      "stateMutability": "view",
      "type": "function"
    }
  ],
  "bytecode": "0x608060405234801561001057600080fd5b5060408051602080820183526000808352835191820190935291825290600361003983826100ed565b50600461004682826100ed565b5050506101ab565b634e487b7160e01b600052604160045260246000fd5b600181811c9082168061007857607f821691505b60208210810361009857634e487b7160e01b600052602260045260246000fd5b50919050565b601f8211156100e857806000526020600020601f840160051c810160208510156100c55750805b601f840160051c820191505b818110156100e557600081556001016100d1565b50505b505050565b81516001600160401b038111156101065761010661004e565b61011a816101148454610064565b8461009e565b6020601f82116001811461014e57600083156101365750848201515b600019600385901b1c1916600184901b1784556100e5565b600084815260208120601f198516915b8281101561017e578785015182556020948501946001909201910161015e565b508482101561019c5786840151600019600387901b60f8161c191681555b50505050600190811b01905550565b611bda806101ba6000396000f3fe608060405234801561001057600080fd5b50600436106101825760003560e01c80634ddf47d4116100d857806384ba89e31161008c578063a9059cbb11610066578063a9059cbb14610346578063dd62ed3e14610359578063ece56a1a1461039257600080fd5b806384ba89e31461030457806395d89b411461032b578063a457c2d71461033357600080fd5b806379cc6790116100bd57806379cc6790146102c25780637b103999146102d55780637d884c74146102dd57600080fd5b80634ddf47d41461028657806370a082311461029957600080fd5b806323b872dd1161013a5780633950935111610114578063395093511461024b57806340c10f191461025e57806342966c681461027357600080fd5b806323b872dd1461022157806330b67baa14610234578063313ce5671461023c57600080fd5b80630b4e99c31161016b5780630b4e99c3146101c8578063143e55e0146101f957806318160ddd1461021957600080fd5b806306fdde0314610187578063095ea7b3146101a5575b600080fd5b61018f61039a565b60405161019c9190611860565b60405180910390f35b6101b86101b33660046118a8565b6103f0565b604051901515815260200161019c565b7f6c85b93e587873fbe6712f3b438d42c2945689b262f7bd34b8ea4e3f832a89ea545b60405190815260200161019c565b61020161040a565b6040516001600160a01b03909116815260200161019c565b6002546101eb565b6101b861022f3660046118d4565b6104ae565b6102016104e6565b6040516012815260200161019c565b6101b86102593660046118a8565b610519565b61027161026c3660046118a8565b610558565b005b610271610281366004611915565b61056e565b610271610294366004611944565b61057a565b6101eb6102a73660046119fd565b6001600160a01b031660009081526020819052604090205490565b6102716102d03660046118a8565b610697565b6102016106b9565b7f6c85b93e587873fbe6712f3b438d42c2945689b262f7bd34b8ea4e3f832a89e7546101eb565b7f6c85b93e587873fbe6712f3b438d42c2945689b262f7bd34b8ea4e3f832a89e9546101eb565b61018f610700565b6101b86103413660046118a8565b61073d565b6101b86103543660046118a8565b6107da565b6101eb610367366004611a1a565b6001600160a01b03918216600090815260016020908152604080832093909416825291909152205490565b6102016107e8565b60606103cc6103c77f6c85b93e587873fbe6712f3b438d42c2945689b262f7bd34b8ea4e3f832a89e75490565b61082f565b6040516020016103dc9190611a53565b604051602081830303815290604052905090565b6000336103fe818585610950565b60019150505b92915050565b60006104146104e6565b6001600160a01b031663720a70bd61044a7f6c85b93e587873fbe6712f3b438d42c2945689b262f7bd34b8ea4e3f832a89e75490565b6040518263ffffffff1660e01b815260040161046891815260200190565b602060405180830381865afa158015610485573d6000803e3d6000fd5b505050506040513d601f19601f820116820180604052508101906104a99190611a98565b905090565b60006104b933610a75565b156104d1576104c9848484610b68565b5060016104df565b6104dc848484610d43565b90505b9392505050565b60006104a97f6c85b93e587873fbe6712f3b438d42c2945689b262f7bd34b8ea4e3f832a89e6546001600160a01b031690565b3360008181526001602090815260408083206001600160a01b03871684529091528120549091906103fe9082908690610553908790611acb565b610950565b610560610d5c565b61056a8282610e60565b5050565b61057781610f4b565b50565b600554610100900460ff161580801561059a5750600554600160ff909116105b806105b45750303b1580156105b4575060055460ff166001145b61062b5760405162461bcd60e51b815260206004820152602e60248201527f496e697469616c697a61626c653a20636f6e747261637420697320616c72656160448201527f647920696e697469616c697a656400000000000000000000000000000000000060648201526084015b60405180910390fd5b6005805460ff19166001179055801561064e576005805461ff0019166101001790555b801561056a576005805461ff0019169055604051600181527f7f26b83ff96e1f2b6a682f133852f6798a09c465da95921460cefb38474024989060200160405180910390a15050565b6106a033610a75565b156106af5761056a8282610f51565b61056a82826110a3565b60006106c36104e6565b6001600160a01b0316637b1039996040518163ffffffff1660e01b8152600401602060405180830381865afa158015610485573d6000803e3d6000fd5b606061072d6103c77f6c85b93e587873fbe6712f3b438d42c2945689b262f7bd34b8ea4e3f832a89e75490565b6040516020016103dc9190611ade565b3360008181526001602090815260408083206001600160a01b0387168452909152812054909190838110156107c25760405162461bcd60e51b815260206004820152602560248201527f45524332303a2064656372656173656420616c6c6f77616e63652062656c6f77604482015264207a65726f60d81b6064820152608401610622565b6107cf8286868403610950565b506001949350505050565b6000336103fe818585610b68565b60006107f26106b9565b6001600160a01b031663ece56a1a6040518163ffffffff1660e01b8152600401602060405180830381865afa158015610485573d6000803e3d6000fd5b6060816000036108565750506040805180820190915260018152600360fc1b602082015290565b8160005b8115610880578061086a81611b0b565b91506108799050600a83611b3a565b915061085a565b60008167ffffffffffffffff81111561089b5761089b61192e565b6040519080825280601f01601f1916602001820160405280156108c5576020820181803683370190505b5090505b8415610948576108da600183611b4e565b91506108e7600a86611b61565b6108f2906030611acb565b60f81b81838151811061090757610907611b75565b60200101907effffffffffffffffffffffffffffffffffffffffffffffffffffffffffffff1916908160001a905350610941600a86611b3a565b94506108c9565b949350505050565b6001600160a01b0383166109b25760405162461bcd60e51b8152602060048201526024808201527f45524332303a20617070726f76652066726f6d20746865207a65726f206164646044820152637265737360e01b6064820152608401610622565b6001600160a01b038216610a135760405162461bcd60e51b815260206004820152602260248201527f45524332303a20617070726f766520746f20746865207a65726f206164647265604482015261737360f01b6064820152608401610622565b6001600160a01b0383811660008181526001602090815260408083209487168084529482529182902085905590518481527f8c5be1e5ebec7d5bd14f71427d1e84f3dd0314c0f7b2291e5b200ac8c7c3b92591015b60405180910390a3505050565b6000610a7f6104e6565b6001600160a01b0316826001600160a01b0316148061040457506000610aa36104e6565b6001600160a01b031663ebbe8034610ad97f6c85b93e587873fbe6712f3b438d42c2945689b262f7bd34b8ea4e3f832a89e75490565b6040517fffffffff0000000000000000000000000000000000000000000000000000000060e084901b16815260048101919091526001600160a01b0386166024820152604401602060405180830381865afa158015610b3c573d6000803e3d6000fd5b505050506040513d601f19601f82011682018060405250810190610b609190611b8b565b141592915050565b6001600160a01b038316610bcc5760405162461bcd60e51b815260206004820152602560248201527f45524332303a207472616e736665722066726f6d20746865207a65726f206164604482015264647265737360d81b6064820152608401610622565b6001600160a01b038216610c2e5760405162461bcd60e51b815260206004820152602360248201527f45524332303a207472616e7366657220746f20746865207a65726f206164647260448201526265737360e81b6064820152608401610622565b610c398383836110b8565b6001600160a01b03831660009081526020819052604090205481811015610cb15760405162461bcd60e51b815260206004820152602660248201527f45524332303a207472616e7366657220616d6f756e7420657863656564732062604482015265616c616e636560d01b6064820152608401610622565b6001600160a01b03808516600090815260208190526040808220858503905591851681529081208054849290610ce8908490611acb565b92505081905550826001600160a01b0316846001600160a01b03167fddf252ad1be2c89b69c2b068fc378daa952ba7f163c4a11628f55a4df523b3ef84604051610d3491815260200190565b60405180910390a35b50505050565b600033610d5185828561174c565b6107cf858585610b68565b610d646104e6565b6001600160a01b0316336001600160a01b031614158015610e4057506000610d8a6104e6565b6001600160a01b031663ebbe8034610dc07f6c85b93e587873fbe6712f3b438d42c2945689b262f7bd34b8ea4e3f832a89e75490565b6040517fffffffff0000000000000000000000000000000000000000000000000000000060e084901b1681526004810191909152336024820152604401602060405180830381865afa158015610e1a573d6000803e3d6000fd5b505050506040513d601f19601f82011682018060405250810190610e3e9190611b8b565b145b15610e5e5760405163422656d160e01b815260040160405180910390fd5b565b6001600160a01b038216610eb65760405162461bcd60e51b815260206004820152601f60248201527f45524332303a206d696e7420746f20746865207a65726f2061646472657373006044820152606401610622565b610ec2600083836110b8565b8060026000828254610ed49190611acb565b90915550506001600160a01b03821660009081526020819052604081208054839290610f01908490611acb565b90915550506040518181526001600160a01b038316906000907fddf252ad1be2c89b69c2b068fc378daa952ba7f163c4a11628f55a4df523b3ef9060200160405180910390a35050565b61057733825b6001600160a01b038216610fb15760405162461bcd60e51b815260206004820152602160248201527f45524332303a206275726e2066726f6d20746865207a65726f206164647265736044820152607360f81b6064820152608401610622565b610fbd826000836110b8565b6001600160a01b038216600090815260208190526040902054818110156110315760405162461bcd60e51b815260206004820152602260248201527f45524332303a206275726e20616d6f756e7420657863656564732062616c616e604482015261636560f01b6064820152608401610622565b6001600160a01b0383166000908152602081905260408120838303905560028054849290611060908490611b4e565b90915550506040518281526000906001600160a01b038516907fddf252ad1be2c89b69c2b068fc378daa952ba7f163c4a11628f55a4df523b3ef90602001610a68565b6110ae82338361174c565b61056a8282610f51565b60006110c26104e6565b905060006110ee7f6c85b93e587873fbe6712f3b438d42c2945689b262f7bd34b8ea4e3f832a89e75490565b604080518082018252600b81527f776f726b657273506f6f6c00000000000000000000000000000000000000000060209091015251633aefa00d60e21b8152600481018290526001600160a01b0387811660248301529192506000917f6dd10f5694032abddf028b131aa9186f0ec727b5d419b1e0623133ed6f122928919085169063ebbe803490604401602060405180830381865afa158015611196573d6000803e3d6000fd5b505050506040513d601f19601f820116820180604052508101906111ba9190611b8b565b604080518082018252600a8152691cd95d1d1b195b595b9d60b21b60209091015251633aefa00d60e21b8152600481018590526001600160a01b0389811660248301529190921492506000917f6522b1ac0c0c078f1fcc696b9cf72c59bb3624b7d2a9d82059b2f3832fd9973d9186169063ebbe803490604401602060405180830381865afa158015611251573d6000803e3d6000fd5b505050506040513d601f19601f820116820180604052508101906112759190611b8b565b60408051808201825260088152676275696c64696e6760c01b60209091015251633aefa00d60e21b8152600481018690526001600160a01b038a811660248301529190921492506000917f010b6fd4eff8a0ca8c7925f2d29e6173e90462d56ae99e39fa817c79f40285189187169063ebbe803490604401602060405180830381865afa15801561130a573d6000803e3d6000fd5b505050506040513d601f19601f8201168201806040525081019061132e9190611b8b565b1490506001600160a01b03881615801590611347575082155b8015611351575081155b801561135b575080155b15611379576040516311eb3d1360e31b815260040160405180910390fd5b604080518082018252600a8152691cd95d1d1b195b595b9d60b21b60209091015251633aefa00d60e21b8152600481018590526001600160a01b0388811660248301526000917f6522b1ac0c0c078f1fcc696b9cf72c59bb3624b7d2a9d82059b2f3832fd9973d9188169063ebbe803490604401602060405180830381865afa15801561140a573d6000803e3d6000fd5b505050506040513d601f19601f8201168201806040525081019061142e9190611b8b565b60408051808201825260088152676275696c64696e6760c01b60209091015251633aefa00d60e21b8152600481018890526001600160a01b038b811660248301529190921492506000917f010b6fd4eff8a0ca8c7925f2d29e6173e90462d56ae99e39fa817c79f40285189189169063ebbe803490604401602060405180830381865afa1580156114c3573d6000803e3d6000fd5b505050506040513d601f19601f820116820180604052508101906114e79190611b8b565b1490506001600160a01b03891615801590611500575081155b801561150a575080155b15611528576040516311eb3d1360e31b815260040160405180910390fd5b6001600160a01b0389166115425750505050505050505050565b6001600160a01b038a161580156115565750815b156115675750505050505050505050565b8380156115715750805b80156115965750896001600160a01b031661158b8a6117d8565b6001600160a01b0316145b156115fa57886001600160a01b0316631d8557d76040518163ffffffff1660e01b8152600401600060405180830381600087803b1580156115d657600080fd5b505af11580156115ea573d6000803e3d6000fd5b5050505050505050505050505050565b8280156116045750815b80156116295750886001600160a01b031661161e8b6117d8565b6001600160a01b0316145b1561166957896001600160a01b0316631d8557d76040518163ffffffff1660e01b8152600401600060405180830381600087803b1580156115d657600080fd5b8280156116735750805b80156116a05750611683896117d8565b6001600160a01b03166116958b6117d8565b6001600160a01b0316145b1561173357896001600160a01b0316631d8557d76040518163ffffffff1660e01b8152600401600060405180830381600087803b1580156116e057600080fd5b505af11580156116f4573d6000803e3d6000fd5b50505050886001600160a01b0316631d8557d76040518163ffffffff1660e01b8152600401600060405180830381600087803b1580156115d657600080fd5b6040516311eb3d1360e31b815260040160405180910390fd5b6001600160a01b038381166000908152600160209081526040808320938616835292905220546000198114610d3d57818110156117cb5760405162461bcd60e51b815260206004820152601d60248201527f45524332303a20696e73756666696369656e7420616c6c6f77616e63650000006044820152606401610622565b610d3d8484848403610950565b6000816001600160a01b031663c45f10006040518163ffffffff1660e01b8152600401602060405180830381865afa158015611818573d6000803e3d6000fd5b505050506040513d601f19601f820116820180604052508101906104049190611a98565b60005b8381101561185757818101518382015260200161183f565b50506000910152565b602081526000825180602084015261187f81604085016020870161183c565b601f01601f19169190910160400192915050565b6001600160a01b038116811461057757600080fd5b600080604083850312156118bb57600080fd5b82356118c681611893565b946020939093013593505050565b6000806000606084860312156118e957600080fd5b83356118f481611893565b9250602084013561190481611893565b929592945050506040919091013590565b60006020828403121561192757600080fd5b5035919050565b634e487b7160e01b600052604160045260246000fd5b60006020828403121561195657600080fd5b813567ffffffffffffffff81111561196d57600080fd5b8201601f8101841361197e57600080fd5b803567ffffffffffffffff8111156119985761199861192e565b604051601f8201601f19908116603f0116810167ffffffffffffffff811182821017156119c7576119c761192e565b6040528181528282016020018610156119df57600080fd5b81602084016020830137600091810160200191909152949350505050565b600060208284031215611a0f57600080fd5b81356104df81611893565b60008060408385031215611a2d57600080fd5b8235611a3881611893565b91506020830135611a4881611893565b809150509250929050565b7f576f726b65727320400000000000000000000000000000000000000000000000815260008251611a8b81600985016020870161183c565b9190910160090192915050565b600060208284031215611aaa57600080fd5b81516104df81611893565b634e487b7160e01b600052601160045260246000fd5b8082018082111561040457610404611ab5565b64015d492c8160de1b815260008251611afe81600585016020870161183c565b9190910160050192915050565b600060018201611b1d57611b1d611ab5565b5060010190565b634e487b7160e01b600052601260045260246000fd5b600082611b4957611b49611b24565b500490565b8181038181111561040457610404611ab5565b600082611b7057611b70611b24565b500690565b634e487b7160e01b600052603260045260246000fd5b600060208284031215611b9d57600080fd5b505191905056fea2646970667358221220792f4ffe1afe40676390f6d2436c6fcdcc7c775df405139627241f02f9a81cf564736f6c634300081a0033",
  "linkReferences": {},
  "deployedLinkReferences": {}
}