{
  "_format": "hh-sol-artifact-1",
  "contractName": "Lumbermill",
  "sourceName": "contracts/core/assets/building/impl/Lumbermill.sol",
  "abi": [
    {
      "inputs": [],
      "name": "BuildingCannotBeUpgradedWhileUpgradeIsOnCooldown",
      "type": "error"
    },
    {
      "inputs": [],
      "name": "CannotTransferProducingResourceFromBuilding",
      "type": "error"
    },
    {
      "inputs": [],
      "name": "DistributionResetNotAllowedWhenTreasuryThresholdNotMet",
      "type": "error"
    },
    {
      "inputs": [],
      "name": "OnlyActiveGame",
      "type": "error"
    },
    {
      "inputs": [],
      "name": "OnlyDistributions",
      "type": "error"
    },
    {
      "inputs": [],
      "name": "OnlyMightyCreator",
      "type": "error"
    },
    {
      "inputs": [],
      "name": "OnlyRulerOrWorldAssetFromSameEra",
      "type": "error"
    },
    {
      "inputs": [],
      "name": "OnlySettlementOwner",
      "type": "error"
    },
    {
      "inputs": [],
      "name": "OnlyWorldAssetFromSameEra",
      "type": "error"
    },
    {
      "inputs": [],
      "name": "UnknownInputParameter",
      "type": "error"
    },
    {
      "anonymous": false,
      "inputs": [
        {
          "indexed": false,
          "internalType": "uint256",
          "name": "newAdditionalWorkersCapacityMultiplier",
          "type": "uint256"
        }
      ],
      "name": "AdvancedProductionAdditionalWorkersCapacityMultiplierUpdated",
      "type": "event"
    },
    {
      "anonymous": false,
      "inputs": [
        {
          "indexed": false,
          "internalType": "uint256",
          "name": "newAdvancedProductionLevel",
          "type": "uint256"
        },
        {
          "indexed": false,
          "internalType": "uint256",
          "name": "newAdvancedProductionCoefficient",
          "type": "uint256"
        }
      ],
      "name": "AdvancedProductionUpgraded",
      "type": "event"
    },
    {
      "anonymous": false,
      "inputs": [
        {
          "indexed": false,
          "internalType": "uint256",
          "name": "newBasicProductionLevel",
          "type": "uint256"
        },
        {
          "indexed": false,
          "internalType": "uint256",
          "name": "newBasicProductionCoefficient",
          "type": "uint256"
        }
      ],
      "name": "BasicProductionUpgraded",
      "type": "event"
    },
    {
      "anonymous": false,
      "inputs": [
        {
          "indexed": false,
          "internalType": "bytes32",
          "name": "resourceTypeId",
          "type": "bytes32"
        },
        {
          "indexed": false,
          "internalType": "address",
          "name": "holder",
          "type": "address"
        },
        {
          "indexed": false,
          "internalType": "uint256",
          "name": "amount",
          "type": "uint256"
        }
      ],
      "name": "DistributedToShareHolder",
      "type": "event"
    },
    {
      "anonymous": false,
      "inputs": [
        {
          "indexed": false,
          "internalType": "uint256",
          "name": "newDistributionId",
          "type": "uint256"
        }
      ],
      "name": "DistributionCreated",
      "type": "event"
    },
    {
      "anonymous": false,
      "inputs": [
        {
          "indexed": false,
          "internalType": "uint8",
          "name": "version",
          "type": "uint8"
        }
      ],
      "name": "Initialized",
      "type": "event"
    },
    {
      "anonymous": false,
      "inputs": [
        {
          "indexed": false,
          "internalType": "address",
          "name": "distributionNftHolder",
          "type": "address"
        },
        {
          "indexed": false,
          "internalType": "uint256",
          "name": "newDebt",
          "type": "uint256"
        }
      ],
      "name": "ProducedResourceDebtUpdated",
      "type": "event"
    },
    {
      "anonymous": false,
      "inputs": [
        {
          "indexed": false,
          "internalType": "uint256",
          "name": "lastUpdateStateTime",
          "type": "uint256"
        },
        {
          "indexed": false,
          "internalType": "uint256",
          "name": "lastUpdateStateRegionTime",
          "type": "uint256"
        },
        {
          "indexed": false,
          "internalType": "uint256",
          "name": "readyToBeDistributed",
          "type": "uint256"
        },
        {
          "indexed": false,
          "internalType": "uint256",
          "name": "totalDebt",
          "type": "uint256"
        }
      ],
      "name": "ProductionInfoUpdated",
      "type": "event"
    },
    {
      "inputs": [],
      "name": "advancedProduction",
      "outputs": [
        {
          "internalType": "uint256",
          "name": "level",
          "type": "uint256"
        },
        {
          "internalType": "uint256",
          "name": "coefficient",
          "type": "uint256"
        },
        {
          "internalType": "uint256",
          "name": "additionalWorkersCapacityMultiplier",
          "type": "uint256"
        },
        {
          "internalType": "uint256",
          "name": "toBeProducedTicks",
          "type": "uint256"
        }
      ],
      "stateMutability": "view",
      "type": "function"
    },
    {
      "inputs": [],
      "name": "assetGroupId",
      "outputs": [
        {
          "internalType": "bytes32",
          "name": "",
          "type": "bytes32"
        }
      ],
      "stateMutability": "view",
      "type": "function"
    },
    {
      "inputs": [],
      "name": "assetTypeId",
      "outputs": [
        {
          "internalType": "bytes32",
          "name": "",
          "type": "bytes32"
        }
      ],
      "stateMutability": "view",
      "type": "function"
    },
    {
      "inputs": [],
      "name": "basicProduction",
      "outputs": [
        {
          "internalType": "uint256",
          "name": "level",
          "type": "uint256"
        },
        {
          "internalType": "uint256",
          "name": "coefficient",
          "type": "uint256"
        }
      ],
      "stateMutability": "view",
      "type": "function"
    },
    {
      "inputs": [],
      "name": "buildingTypeId",
      "outputs": [
        {
          "internalType": "bytes32",
          "name": "",
          "type": "bytes32"
        }
      ],
      "stateMutability": "view",
      "type": "function"
    },
    {
      "inputs": [
        {
          "internalType": "uint256",
          "name": "burnAmount",
          "type": "uint256"
        }
      ],
      "name": "burnTreasury",
      "outputs": [],
      "stateMutability": "nonpayable",
      "type": "function"
    },
    {
      "inputs": [
        {
          "internalType": "uint256",
          "name": "capacityAmount",
          "type": "uint256"
        }
      ],
      "name": "decreaseAdditionalWorkersCapacityMultiplier",
      "outputs": [],
      "stateMutability": "nonpayable",
      "type": "function"
    },
    {
      "inputs": [],
      "name": "distributeToAllShareholders",
      "outputs": [],
      "stateMutability": "nonpayable",
      "type": "function"
    },
    {
      "inputs": [
        {
          "internalType": "address",
          "name": "holder",
          "type": "address"
        }
      ],
      "name": "distributeToSingleShareholder",
      "outputs": [],
      "stateMutability": "nonpayable",
      "type": "function"
    },
    {
      "inputs": [],
      "name": "distributionId",
      "outputs": [
        {
          "internalType": "uint256",
          "name": "",
          "type": "uint256"
        }
      ],
      "stateMutability": "view",
      "type": "function"
    },
    {
      "inputs": [],
      "name": "era",
      "outputs": [
        {
          "internalType": "contract IEra",
          "name": "",
          "type": "address"
        }
      ],
      "stateMutability": "view",
      "type": "function"
    },
    {
      "inputs": [],
      "name": "eraNumber",
      "outputs": [
        {
          "internalType": "uint256",
          "name": "",
          "type": "uint256"
        }
      ],
      "stateMutability": "view",
      "type": "function"
    },
    {
      "inputs": [],
      "name": "getAdditionalWorkersFromAdditionalWorkersCapacityMultiplier",
      "outputs": [
        {
          "internalType": "uint256",
          "name": "",
          "type": "uint256"
        }
      ],
      "stateMutability": "view",
      "type": "function"
    },
    {
      "inputs": [
        {
          "internalType": "uint256",
          "name": "level",
          "type": "uint256"
        }
      ],
      "name": "getAdvancedUpgradeCooldownDuration",
      "outputs": [
        {
          "internalType": "uint256",
          "name": "",
          "type": "uint256"
        }
      ],
      "stateMutability": "view",
      "type": "function"
    },
    {
      "inputs": [],
      "name": "getAssignedWorkers",
      "outputs": [
        {
          "internalType": "uint256",
          "name": "",
          "type": "uint256"
        }
      ],
      "stateMutability": "view",
      "type": "function"
    },
    {
      "inputs": [],
      "name": "getAvailableForAdvancedProductionWorkersCapacity",
      "outputs": [
        {
          "internalType": "uint256",
          "name": "",
          "type": "uint256"
        }
      ],
      "stateMutability": "view",
      "type": "function"
    },
    {
      "inputs": [
        {
          "internalType": "uint256",
          "name": "level",
          "type": "uint256"
        }
      ],
      "name": "getBasicUpgradeCooldownDuration",
      "outputs": [
        {
          "internalType": "uint256",
          "name": "",
          "type": "uint256"
        }
      ],
      "stateMutability": "view",
      "type": "function"
    },
    {
      "inputs": [
        {
          "internalType": "uint256",
          "name": "level",
          "type": "uint256"
        }
      ],
      "name": "getBuildingCoefficient",
      "outputs": [
        {
          "internalType": "uint256",
          "name": "",
          "type": "uint256"
        }
      ],
      "stateMutability": "pure",
      "type": "function"
    },
    {
      "inputs": [],
      "name": "getBuildingLevel",
      "outputs": [
        {
          "internalType": "uint256",
          "name": "",
          "type": "uint256"
        }
      ],
      "stateMutability": "view",
      "type": "function"
    },
    {
      "inputs": [],
      "name": "getConfig",
      "outputs": [
        {
          "components": [
            {
              "internalType": "bytes32",
              "name": "resourceTypeId",
              "type": "bytes32"
            },
            {
              "internalType": "uint256",
              "name": "amountPerTick",
              "type": "uint256"
            },
            {
              "internalType": "bool",
              "name": "isProducing",
              "type": "bool"
            }
          ],
          "internalType": "struct IBuilding.ProductionConfigItem[]",
          "name": "",
          "type": "tuple[]"
        }
      ],
      "stateMutability": "pure",
      "type": "function"
    },
    {
      "inputs": [
        {
          "internalType": "uint256",
          "name": "level",
          "type": "uint256"
        }
      ],
      "name": "getMaxTreasuryByLevel",
      "outputs": [
        {
          "internalType": "uint256",
          "name": "",
          "type": "uint256"
        }
      ],
      "stateMutability": "view",
      "type": "function"
    },
    {
      "inputs": [],
      "name": "getProducingResourceTypeId",
      "outputs": [
        {
          "internalType": "bytes32",
          "name": "",
          "type": "bytes32"
        }
      ],
      "stateMutability": "view",
      "type": "function"
    },
    {
      "inputs": [
        {
          "internalType": "uint256",
          "name": "timestamp",
          "type": "uint256"
        }
      ],
      "name": "getProductionResult",
      "outputs": [
        {
          "components": [
            {
              "internalType": "bytes32",
              "name": "resourceTypeId",
              "type": "bytes32"
            },
            {
              "internalType": "uint256",
              "name": "balanceDelta",
              "type": "uint256"
            },
            {
              "internalType": "bool",
              "name": "isProduced",
              "type": "bool"
            }
          ],
          "internalType": "struct IBuilding.ProductionResultItem[]",
          "name": "",
          "type": "tuple[]"
        }
      ],
      "stateMutability": "view",
      "type": "function"
    },
    {
      "inputs": [
        {
          "internalType": "bytes32",
          "name": "resourceTypeId",
          "type": "bytes32"
        },
        {
          "internalType": "uint256",
          "name": "timestamp",
          "type": "uint256"
        }
      ],
      "name": "getResourcesAmount",
      "outputs": [
        {
          "internalType": "uint256",
          "name": "",
          "type": "uint256"
        }
      ],
      "stateMutability": "view",
      "type": "function"
    },
    {
      "inputs": [
        {
          "internalType": "uint256",
          "name": "timestamp",
          "type": "uint256"
        }
      ],
      "name": "getTreasuryAmount",
      "outputs": [
        {
          "internalType": "uint256",
          "name": "",
          "type": "uint256"
        }
      ],
      "stateMutability": "view",
      "type": "function"
    },
    {
      "inputs": [
        {
          "internalType": "uint256",
          "name": "level",
          "type": "uint256"
        }
      ],
      "name": "getUpgradePrice",
      "outputs": [
        {
          "internalType": "uint256",
          "name": "",
          "type": "uint256"
        }
      ],
      "stateMutability": "view",
      "type": "function"
    },
    {
      "inputs": [],
      "name": "getWorkersCapacity",
      "outputs": [
        {
          "internalType": "uint256",
          "name": "",
          "type": "uint256"
        }
      ],
      "stateMutability": "view",
      "type": "function"
    },
    {
      "inputs": [],
      "name": "givenProsperityAmount",
      "outputs": [
        {
          "internalType": "uint256",
          "name": "",
          "type": "uint256"
        }
      ],
      "stateMutability": "view",
      "type": "function"
    },
    {
      "inputs": [],
      "name": "handleProductionResourcesChanged",
      "outputs": [],
      "stateMutability": "nonpayable",
      "type": "function"
    },
    {
      "inputs": [
        {
          "internalType": "uint256",
          "name": "capacityAmount",
          "type": "uint256"
        }
      ],
      "name": "increaseAdditionalWorkersCapacityMultiplier",
      "outputs": [],
      "stateMutability": "nonpayable",
      "type": "function"
    },
    {
      "inputs": [
        {
          "internalType": "bytes",
          "name": "initParams",
          "type": "bytes"
        }
      ],
      "name": "init",
      "outputs": [],
      "stateMutability": "nonpayable",
      "type": "function"
    },
    {
      "inputs": [
        {
          "internalType": "bytes32",
          "name": "resourceTypeId",
          "type": "bytes32"
        }
      ],
      "name": "isResourceAcceptable",
      "outputs": [
        {
          "internalType": "bool",
          "name": "",
          "type": "bool"
        }
      ],
      "stateMutability": "view",
      "type": "function"
    },
    {
      "inputs": [
        {
          "internalType": "address",
          "name": "operator",
          "type": "address"
        },
        {
          "internalType": "address",
          "name": "from",
          "type": "address"
        },
        {
          "internalType": "uint256[]",
          "name": "ids",
          "type": "uint256[]"
        },
        {
          "internalType": "uint256[]",
          "name": "values",
          "type": "uint256[]"
        },
        {
          "internalType": "bytes",
          "name": "data",
          "type": "bytes"
        }
      ],
      "name": "onERC1155BatchReceived",
      "outputs": [
        {
          "internalType": "bytes4",
          "name": "",
          "type": "bytes4"
        }
      ],
      "stateMutability": "nonpayable",
      "type": "function"
    },
    {
      "inputs": [
        {
          "internalType": "address",
          "name": "operator",
          "type": "address"
        },
        {
          "internalType": "address",
          "name": "from",
          "type": "address"
        },
        {
          "internalType": "uint256",
          "name": "id",
          "type": "uint256"
        },
        {
          "internalType": "uint256",
          "name": "value",
          "type": "uint256"
        },
        {
          "internalType": "bytes",
          "name": "data",
          "type": "bytes"
        }
      ],
      "name": "onERC1155Received",
      "outputs": [
        {
          "internalType": "bytes4",
          "name": "",
          "type": "bytes4"
        }
      ],
      "stateMutability": "nonpayable",
      "type": "function"
    },
    {
      "inputs": [
        {
          "internalType": "address",
          "name": "",
          "type": "address"
        }
      ],
      "name": "producedResourceDebt",
      "outputs": [
        {
          "internalType": "uint256",
          "name": "",
          "type": "uint256"
        }
      ],
      "stateMutability": "view",
      "type": "function"
    },
    {
      "inputs": [],
      "name": "productionInfo",
      "outputs": [
        {
          "internalType": "uint256",
          "name": "lastUpdateStateTime",
          "type": "uint256"
        },
        {
          "internalType": "uint256",
          "name": "lastUpdateStateRegionTime",
          "type": "uint256"
        },
        {
          "internalType": "uint256",
          "name": "readyToBeDistributed",
          "type": "uint256"
        },
        {
          "internalType": "uint256",
          "name": "totalDebt",
          "type": "uint256"
        }
      ],
      "stateMutability": "view",
      "type": "function"
    },
    {
      "inputs": [],
      "name": "registry",
      "outputs": [
        {
          "internalType": "contract IRegistry",
          "name": "",
          "type": "address"
        }
      ],
      "stateMutability": "view",
      "type": "function"
    },
    {
      "inputs": [],
      "name": "relatedSettlement",
      "outputs": [
        {
          "internalType": "contract ISettlement",
          "name": "",
          "type": "address"
        }
      ],
      "stateMutability": "view",
      "type": "function"
    },
    {
      "inputs": [
        {
          "internalType": "address",
          "name": "workersReceiverAddress",
          "type": "address"
        },
        {
          "internalType": "uint256",
          "name": "workersAmount",
          "type": "uint256"
        },
        {
          "internalType": "address",
          "name": "resourcesReceiverAddress",
          "type": "address"
        },
        {
          "internalType": "bytes32[]",
          "name": "resourceTypeIds",
          "type": "bytes32[]"
        },
        {
          "internalType": "uint256[]",
          "name": "resourcesAmounts",
          "type": "uint256[]"
        }
      ],
      "name": "removeResourcesAndWorkers",
      "outputs": [],
      "stateMutability": "nonpayable",
      "type": "function"
    },
    {
      "inputs": [],
      "name": "resetDistribution",
      "outputs": [],
      "stateMutability": "nonpayable",
      "type": "function"
    },
    {
      "inputs": [
        {
          "internalType": "address",
          "name": "stealerSettlementAddress",
          "type": "address"
        },
        {
          "internalType": "uint256",
          "name": "amount",
          "type": "uint256"
        }
      ],
      "name": "stealTreasury",
      "outputs": [
        {
          "internalType": "uint256",
          "name": "",
          "type": "uint256"
        },
        {
          "internalType": "uint256",
          "name": "",
          "type": "uint256"
        }
      ],
      "stateMutability": "nonpayable",
      "type": "function"
    },
    {
      "inputs": [
        {
          "internalType": "bytes4",
          "name": "interfaceId",
          "type": "bytes4"
        }
      ],
      "name": "supportsInterface",
      "outputs": [
        {
          "internalType": "bool",
          "name": "",
          "type": "bool"
        }
      ],
      "stateMutability": "view",
      "type": "function"
    },
    {
      "inputs": [
        {
          "internalType": "address",
          "name": "from",
          "type": "address"
        },
        {
          "internalType": "address",
          "name": "to",
          "type": "address"
        },
        {
          "internalType": "uint256",
          "name": "amount",
          "type": "uint256"
        }
      ],
      "name": "updateDebtsAccordingToNewDistributionsAmounts",
      "outputs": [],
      "stateMutability": "nonpayable",
      "type": "function"
    },
    {
      "inputs": [],
      "name": "updateState",
      "outputs": [],
      "stateMutability": "nonpayable",
      "type": "function"
    },
    {
      "inputs": [
        {
          "internalType": "address",
          "name": "resourcesOwner",
          "type": "address"
        }
      ],
      "name": "upgradeAdvancedProduction",
      "outputs": [],
      "stateMutability": "nonpayable",
      "type": "function"
    },
    {
      "inputs": [
        {
          "internalType": "address",
          "name": "resourcesOwner",
          "type": "address"
        }
      ],
      "name": "upgradeBasicProduction",
      "outputs": [],
      "stateMutability": "nonpayable",
      "type": "function"
    },
    {
      "inputs": [],
      "name": "upgradeCooldownEndTime",
      "outputs": [
        {
          "internalType": "uint256",
          "name": "",
          "type": "uint256"
        }
      ],
      "stateMutability": "view",
      "type": "function"
    },
    {
      "inputs": [],
      "name": "world",
      "outputs": [
        {
          "internalType": "contract IWorld",
          "name": "",
          "type": "address"
        }
      ],
      "stateMutability": "view",
      "type": "function"
    },
    {
      "inputs": [],
      "name": "worldAssetFactory",
      "outputs": [
        {
          "internalType": "contract IWorldAssetFactory",
          "name": "",
          "type": "address"
        }
      ],
      "stateMutability": "view",
      "type": "function"
    }
  ],
  "bytecode": "0x6080604052348015600f57600080fd5b50615a378061001f6000396000f3fe608060405234801561001057600080fd5b506004361061032a5760003560e01c80638545bc58116101b2578063c724a016116100f9578063e8d4d46d116100a2578063ece56a1a1161007c578063ece56a1a146106d9578063f23a6e61146106e1578063f2477b5b14610701578063ffaf29a01461070957600080fd5b8063e8d4d46d146106a0578063e91bde76146106b3578063eb358534146106c657600080fd5b8063d2bc7d85116100d3578063d2bc7d8514610687578063e05ab4981461068f578063e145c3ad1461069857600080fd5b8063c724a01614610656578063c9c0df6114610676578063d26aaf931461067f57600080fd5b8063ad3662441161015b578063bc197c8111610135578063bc197c81146105ed578063c3f909d414610628578063c45f10001461063d57600080fd5b8063ad366244146105bf578063ae6fd51d146105c7578063b78d1384146105da57600080fd5b80638beab87e1161018c5780638beab87e1461058357806390091872146105a357806391ab778d146105b657600080fd5b80638545bc581461055d5780638a6bbad3146105655780638ae52a381461057b57600080fd5b80633c084b8b1161027657806365e6f4ce1161021f5780637b7a2bfc116101f95780637b7a2bfc146104fc5780637d884c741461050f57806384ba89e31461053657600080fd5b806365e6f4ce146104d95780637abdf949146104e15780637b103999146104f457600080fd5b80634ddf47d4116102505780634ddf47d41461048a578063589ae4001461049d5780635ed697b7146104c557600080fd5b80633c084b8b1461045b57806343e77f461461046e578063486a42d51461048157600080fd5b806314dff0e8116102d85780631e9738d1116102b25780631e9738d11461042d5780631fb91f391461044057806330b67baa1461045357600080fd5b806314dff0e8146103dc578063152d9483146104125780631d8557d71461042557600080fd5b806304b10ac81161030957806304b10ac81461038d5780630b4e99c314610395578063143e55e0146103bc57600080fd5b8062d4fbf81461032f57806301288b521461035557806301ffc9a71461036a575b600080fd5b61034261033d366004615235565b610717565b6040519081526020015b60405180910390f35b6103686103633660046152ab565b610737565b005b61037d61037836600461534f565b61076d565b604051901515815260200161034c565b6103426107a2565b7f6c85b93e587873fbe6712f3b438d42c2945689b262f7bd34b8ea4e3f832a89ea54610342565b6103c4610814565b6040516001600160a01b03909116815260200161034c565b6004546005546006546007546103f29392919084565b60408051948552602085019390935291830152606082015260800161034c565b610368610420366004615379565b6108b8565b610368610a14565b61034261043b3660046153ba565b610dbc565b61036861044e3660046153dc565b6110c1565b6103c461154e565b610342610469366004615235565b611581565b61036861047c366004615235565b6115b5565b61034260095481565b610368610498366004615440565b611616565b6104b06104ab3660046154da565b61197d565b6040805192835260208301919091520161034c565b6103426104d3366004615235565b50600090565b610368611d56565b6103426104ef366004615235565b61218c565b6103c4612217565b61036861050a3660046153dc565b61225e565b7f6c85b93e587873fbe6712f3b438d42c2945689b262f7bd34b8ea4e3f832a89e754610342565b7f6c85b93e587873fbe6712f3b438d42c2945689b262f7bd34b8ea4e3f832a89e954610342565b610342612584565b600a54600b54600c54600d546103f29392919084565b610342612596565b610596610591366004615235565b61266b565b60405161034c9190615506565b61037d6105b1366004615235565b612a8d565b61034260085481565b610342612ae6565b6103686105d5366004615235565b612b00565b6103686105e8366004615235565b612bae565b61060f6105fb3660046155ac565b63bc197c8160e01b98975050505050505050565b6040516001600160e01b0319909116815260200161034c565b610630612c9a565b60405161034c9190615677565b6000546103c4906201000090046001600160a01b031681565b6103426106643660046153dc565b600f6020526000908152604090205481565b610342600e5481565b610342612e0f565b610368612e2b565b61034260015481565b610368612e6a565b6103686106ae3660046153dc565b612e7f565b6103426106c1366004615235565b6132fe565b6103426106d4366004615235565b613379565b6103c461338c565b61060f6106ef3660046156d0565b63f23a6e6160e01b9695505050505050565b6103426133d3565b6002546003546104b0919082565b6000600561072783615460615762565b6107319190615779565b92915050565b61073f613430565b610747613561565b85156107575761075787876136c5565b61076484848785856137a3565b50505050505050565b60006001600160e01b03198216630271189760e51b148061073157506301ffc9a760e01b6001600160e01b0319831614610731565b6000806107ad612c9a565b905060005b815181101561080b578181815181106107cd576107cd61579b565b60200260200101516040015115610803578181815181106107f0576107f061579b565b6020026020010151600001519250505090565b6001016107b2565b50600092915050565b600061081e61154e565b6001600160a01b031663720a70bd6108547f6c85b93e587873fbe6712f3b438d42c2945689b262f7bd34b8ea4e3f832a89e75490565b6040518263ffffffff1660e01b815260040161087291815260200190565b602060405180830381865afa15801561088f573d6000803e3d6000fd5b505050506040513d601f19601f820116820180604052508101906108b391906157b1565b905090565b6108c06137f9565b60006108ca61154e565b6001600160a01b031663e4e940f06040518163ffffffff1660e01b8152600401602060405180830381865afa158015610907573d6000803e3d6000fd5b505050506040513d601f19601f8201168201806040525081019061092b91906157b1565b6001600160a01b03166302705c2e6040518163ffffffff1660e01b8152600401602060405180830381865afa158015610968573d6000803e3d6000fd5b505050506040513d601f19601f8201168201806040525081019061098c91906157ce565b600c5461099a908490615762565b6109a49190615779565b9050806000036109b45750505050565b6001600160a01b0384166000908152600f60205260409020546109e39085906109de9084906157e7565b61388a565b6001600160a01b0383166000908152600f6020526040902054610a0d9084906109de9084906157fa565b505b505050565b600060029054906101000a90046001600160a01b03166001600160a01b031663e6c15c996040518163ffffffff1660e01b8152600401602060405180830381865afa158015610a67573d6000803e3d6000fd5b505050506040513d601f19601f82011682018060405250810190610a8b91906157b1565b6001600160a01b0316631d8557d76040518163ffffffff1660e01b8152600401600060405180830381600087803b158015610ac557600080fd5b505af1158015610ad9573d6000803e3d6000fd5b505050506000610ae76138db565b905080600a6000015403610af85750565b6000610b038261266b565b9050610bf982600060029054906101000a90046001600160a01b03166001600160a01b031663e6c15c996040518163ffffffff1660e01b8152600401602060405180830381865afa158015610b5c573d6000803e3d6000fd5b505050506040513d601f19601f82011682018060405250810190610b8091906157b1565b6001600160a01b03166325fc9289856040518263ffffffff1660e01b8152600401610bad91815260200190565b602060405180830381865afa158015610bca573d6000803e3d6000fd5b505050506040513d601f19601f82011682018060405250810190610bee91906157ce565b600c54600d546139e3565b60005b8151811015610daf57818181518110610c1757610c1761579b565b60200260200101516020015160000315610da757818181518110610c3d57610c3d61579b565b60200260200101516040015115610c9757610c92828281518110610c6357610c6361579b565b602002602001015160000151838381518110610c8157610c8161579b565b602002602001015160200151613a45565b610da7565b610c9f610814565b6001600160a01b031663912929df838381518110610cbf57610cbf61579b565b6020026020010151600001516040518263ffffffff1660e01b8152600401610ce991815260200190565b602060405180830381865afa158015610d06573d6000803e3d6000fd5b505050506040513d601f19601f82011682018060405250810190610d2a91906157b1565b6001600160a01b03166342966c68838381518110610d4a57610d4a61579b565b6020026020010151602001516040518263ffffffff1660e01b8152600401610d7491815260200190565b600060405180830381600087803b158015610d8e57600080fd5b505af1158015610da2573d6000803e3d6000fd5b505050505b600101610bfc565b50610db8613dc1565b5050565b600080610dc88361266b565b905060005b81518110156110b65784828281518110610de957610de961579b565b602002602001015160000151036110ae57818181518110610e0c57610e0c61579b565b60200260200101516040015115610f9d576000610e2a610469612584565b905080600003610e405760009350505050610731565b6000670de0b6b3a764000080858581518110610e5e57610e5e61579b565b602002602001015160200151610e749190615762565b610e7e9190615779565b90506000610e8a610814565b6001600160a01b031663912929df610ea06107a2565b6040518263ffffffff1660e01b8152600401610ebe91815260200190565b602060405180830381865afa158015610edb573d6000803e3d6000fd5b505050506040513d601f19601f82011682018060405250810190610eff91906157b1565b6040516375719b0160e11b81523060048201526001600160a01b03919091169063eae3360290602401602060405180830381865afa158015610f45573d6000803e3d6000fd5b505050506040513d601f19601f82011682018060405250810190610f6991906157ce565b9050828110610f7e5794506107319350505050565b610f91610f8b82846157fa565b8461414c565b95505050505050610731565b818181518110610faf57610faf61579b565b602002602001015160200151610fc3610814565b6001600160a01b031663912929df876040518263ffffffff1660e01b8152600401610ff091815260200190565b602060405180830381865afa15801561100d573d6000803e3d6000fd5b505050506040513d601f19601f8201168201806040525081019061103191906157b1565b6040516375719b0160e11b81523060048201526001600160a01b03919091169063eae3360290602401602060405180830381865afa158015611077573d6000803e3d6000fd5b505050506040513d601f19601f8201168201806040525081019061109b91906157ce565b6110a591906157e7565b92505050610731565b600101610dcd565b506000949350505050565b6110c9613430565b6110d1613561565b6110d9610a14565b6008544210156110fc5760405163aa4aed7160e01b815260040160405180910390fd5b6000611106612584565b905060006111138261218c565b60408051808201909152600481526315d3d3d160e21b60209091015290507f5f3d3bfd5b61198148275c178146c21eec5c5ab7e81758f3c651754ae3f1ed426001600160a01b03841661123d57611168610814565b6001600160a01b031663912929df826040518263ffffffff1660e01b815260040161119591815260200190565b602060405180830381865afa1580156111b2573d6000803e3d6000fd5b505050506040513d601f19601f820116820180604052508101906111d691906157b1565b60405163079cc67960e41b8152336004820152602481018490526001600160a01b0391909116906379cc679090604401600060405180830381600087803b15801561122057600080fd5b505af1158015611234573d6000803e3d6000fd5b50505050611385565b6000611247610814565b6001600160a01b031663912929df836040518263ffffffff1660e01b815260040161127491815260200190565b602060405180830381865afa158015611291573d6000803e3d6000fd5b505050506040513d601f19601f820116820180604052508101906112b591906157b1565b60405163dd8aaa4f60e01b81526001600160a01b038781166004830152336024830152604482018690529192509082169063dd8aaa4f90606401600060405180830381600087803b15801561130957600080fd5b505af115801561131d573d6000803e3d6000fd5b505060405163079cc67960e41b81526001600160a01b03888116600483015260248201879052841692506379cc67909150604401600060405180830381600087803b15801561136b57600080fd5b505af115801561137f573d6000803e3d6000fd5b50505050505b600060029054906101000a90046001600160a01b03166001600160a01b031663e6c15c996040518163ffffffff1660e01b8152600401602060405180830381865afa1580156113d8573d6000803e3d6000fd5b505050506040513d601f19601f820116820180604052508101906113fc91906157b1565b6000546001600160a01b0391821691635053c2999162010000900416670de0b6b3a76400008561142b86614164565b6114359190615762565b61143f9190615779565b6040516001600160e01b031960e085901b1681526001600160a01b0390921660048301526024820152604401600060405180830381600087803b15801561148557600080fd5b505af1158015611499573d6000803e3d6000fd5b505050506114a683610717565b6114b090426157fa565b6008556003546000906114c2856132fe565b6114d06106c18760016157fa565b6114da91906157e7565b6114e491906157fa565b6002549091506000906114f89060016157fa565b60038390556002819055905061150c613dc1565b60408051828152602081018490527fa933a9f591d9b53ffc6316451d228c163207767426d4097ffa9434c2efa4f6ba91015b60405180910390a1505050505050565b60006108b37f6c85b93e587873fbe6712f3b438d42c2945689b262f7bd34b8ea4e3f832a89e6546001600160a01b031690565b6000600261158e836132fe565b61159891906158f4565b6115a390600a615762565b61073190670de0b6b3a7640000615762565b6115bd6142c7565b6115c5610a14565b6006546000906115d69083906157e7565b60068190556040518181529091507fa5b080ca657305a05e233a1bdfe1cb5a92588bd94928658051cf6ea8d91ae4b1906020015b60405180910390a15050565b600054610100900460ff16158080156116365750600054600160ff909116105b806116505750303b158015611650575060005460ff166001145b6116c65760405162461bcd60e51b815260206004820152602e60248201527f496e697469616c697a61626c653a20636f6e747261637420697320616c72656160448201527f647920696e697469616c697a6564000000000000000000000000000000000000606482015260840160405180910390fd5b6000805460ff1916600117905580156116e9576000805461ff0019166101001790555b600080838060200190518101906117009190615903565b600080547fffffffffffffffffffff0000000000000000000000000000000000000000ffff16620100006001600160a01b038581168202929092179283905560018481556002819055600381905560048181556005919091556040805163e6c15c9960e01b8152905196985094965061183b954295929094049092169263e6c15c99928281019260209291908290030181865afa1580156117a5573d6000803e3d6000fd5b505050506040513d601f19601f820116820180604052508101906117c991906157b1565b6040516325fc928960e01b81524260048201526001600160a01b0391909116906325fc928990602401602060405180830381865afa15801561180f573d6000803e3d6000fd5b505050506040513d601f19601f8201168201806040525081019061183391906157ce565b6000806139e3565b6118436143b1565b6000611850610469612584565b9050801561193857611860610814565b6001600160a01b031663912929df6118766107a2565b6040518263ffffffff1660e01b815260040161189491815260200190565b602060405180830381865afa1580156118b1573d6000803e3d6000fd5b505050506040513d601f19601f820116820180604052508101906118d591906157b1565b6040516340c10f1960e01b8152306004820152602481018390526001600160a01b0391909116906340c10f1990604401600060405180830381600087803b15801561191f57600080fd5b505af1158015611933573d6000803e3d6000fd5b505050505b5050508015610db8576000805461ff0019169055604051600181527f7f26b83ff96e1f2b6a682f133852f6798a09c465da95921460cefb38474024989060200161160a565b6000806119886142c7565b611990610a14565b600061199a610814565b6001600160a01b031663912929df6119b06107a2565b6040518263ffffffff1660e01b81526004016119ce91815260200190565b602060405180830381865afa1580156119eb573d6000803e3d6000fd5b505050506040513d601f19601f82011682018060405250810190611a0f91906157b1565b90506000611a8f611a21610469612584565b6040516375719b0160e11b81523060048201526001600160a01b0385169063eae33602906024015b602060405180830381865afa158015611a66573d6000803e3d6000fd5b505050506040513d601f19601f82011682018060405250810190611a8a91906157ce565b61414c565b905080600003611aa757600080935093505050611d4f565b611ab1818661414c565b600154604051631b973c5760e21b815291965087916000916001600160a01b03841691636e5cf15c91611aea9160040190815260200190565b602060405180830381865afa158015611b07573d6000803e3d6000fd5b505050506040513d601f19601f82011682018060405250810190611b2b91906157b1565b9050806001600160a01b0316631d8557d76040518163ffffffff1660e01b8152600401600060405180830381600087803b158015611b6857600080fd5b505af1158015611b7c573d6000803e3d6000fd5b505050506000816001600160a01b0316633c084b8b836001600160a01b0316638545bc586040518163ffffffff1660e01b8152600401602060405180830381865afa158015611bcf573d6000803e3d6000fd5b505050506040513d601f19601f82011682018060405250810190611bf391906157ce565b6040518263ffffffff1660e01b8152600401611c1191815260200190565b602060405180830381865afa158015611c2e573d6000803e3d6000fd5b505050506040513d601f19601f82011682018060405250810190611c5291906157ce565b6040516375719b0160e11b81526001600160a01b038481166004830152919250600091611c8c91849189169063eae3360290602401611a49565b90506000611c9a82846157e7565b90506000611ca8828c61414c565b90506000611cb6828d6157e7565b90508115611d335760405163a9059cbb60e01b81526001600160a01b038781166004830152602482018490528a169063a9059cbb906044016020604051808303816000875af1158015611d0d573d6000803e3d6000fd5b505050506040513d601f19601f82011682018060405250810190611d319190615931565b505b8015611d4257611d4281612bae565b9099509750505050505050505b9250929050565b611d5e610a14565b600c546000611d6b6107a2565b90506000611d77610814565b6001600160a01b031663912929df836040518263ffffffff1660e01b8152600401611da491815260200190565b602060405180830381865afa158015611dc1573d6000803e3d6000fd5b505050506040513d601f19601f82011682018060405250810190611de591906157b1565b90506000611df161154e565b6001600160a01b031663e4e940f06040518163ffffffff1660e01b8152600401602060405180830381865afa158015611e2e573d6000803e3d6000fd5b505050506040513d601f19601f82011682018060405250810190611e5291906157b1565b90506000816001600160a01b03166302705c2e6040518163ffffffff1660e01b8152600401602060405180830381865afa158015611e94573d6000803e3d6000fd5b505050506040513d601f19601f82011682018060405250810190611eb891906157ce565b9050846000611ec561154e565b6001600160a01b031663e4e940f06040518163ffffffff1660e01b8152600401602060405180830381865afa158015611f02573d6000803e3d6000fd5b505050506040513d601f19601f82011682018060405250810190611f2691906157b1565b6001600160a01b03166361a5d38c600e546040518263ffffffff1660e01b8152600401611f5591815260200190565b600060405180830381865afa158015611f72573d6000803e3d6000fd5b505050506040513d6000823e601f3d908101601f19168201604052611f9a9190810190615953565b905060005b8151811015612178576000828281518110611fbc57611fbc61579b565b6020908102919091018101516001600160a01b038082166000818152600f909452604080852054600e549151627eeac760e11b81526004810193909352602483019190915292945091929188918a169062fdd58e90604401602060405180830381865afa158015612031573d6000803e3d6000fd5b505050506040513d601f19601f8201168201806040525081019061205591906157ce565b61205f908d615762565b6120699190615779565b9050600082821161207b576000612085565b61208583836157e7565b905082156120985761209884600061388a565b6120a281846157fa565b6120ac90886157e7565b9650806000036120bf5750505050612170565b6040516340c10f1960e01b81526001600160a01b038581166004830152602482018390528b16906340c10f1990604401600060405180830381600087803b15801561210957600080fd5b505af115801561211d573d6000803e3d6000fd5b5050604080518e81526001600160a01b03881660208201529081018490527f4e4307e8da7cc13a61821561768c6b298d5d9ee55985f18cb747099e3f9fa8759250606001905060405180910390a1505050505b600101611f9f565b50600a54600b5461076491908460006139e3565b60008061219883611581565b905060006121aa6104698560016157fa565b9050600060646121bb84604b615762565b6121c59190615779565b905060006121d382846157e7565b905060006121e2600683615779565b9050670de0b6b3a76400006121f8600154614543565b6122029083615762565b61220c9190615779565b979650505050505050565b600061222161154e565b6001600160a01b0316637b1039996040518163ffffffff1660e01b8152600401602060405180830381865afa15801561088f573d6000803e3d6000fd5b612266610a14565b600061227061154e565b6001600160a01b031663e4e940f06040518163ffffffff1660e01b8152600401602060405180830381865afa1580156122ad573d6000803e3d6000fd5b505050506040513d601f19601f820116820180604052508101906122d191906157b1565b600e54604051627eeac760e11b81526001600160a01b03858116600483015260248201929092529192506000919083169062fdd58e90604401602060405180830381865afa158015612327573d6000803e3d6000fd5b505050506040513d601f19601f8201168201806040525081019061234b91906157ce565b90508060000361235a57505050565b6001600160a01b038084166000908152600f602090815260408083205481516301382e1760e11b8152915190948716926302705c2e92600480820193918290030181865afa1580156123b0573d6000803e3d6000fd5b505050506040513d601f19601f820116820180604052508101906123d491906157ce565b600c546123e2908590615762565b6123ec9190615779565b905060008282116123fe576000612408565b61240883836157e7565b90508060000361241a57505050505050565b612428866109de83866157fa565b600a54600b54600c54600d5461244b939291906124469086906157fa565b6139e3565b60006124556107a2565b905061245f610814565b6001600160a01b031663912929df826040518263ffffffff1660e01b815260040161248c91815260200190565b602060405180830381865afa1580156124a9573d6000803e3d6000fd5b505050506040513d601f19601f820116820180604052508101906124cd91906157b1565b6040516340c10f1960e01b81526001600160a01b0389811660048301526024820185905291909116906340c10f1990604401600060405180830381600087803b15801561251957600080fd5b505af115801561252d573d6000803e3d6000fd5b5050604080518481526001600160a01b038b1660208201529081018590527f4e4307e8da7cc13a61821561768c6b298d5d9ee55985f18cb747099e3f9fa8759250606001905060405180910390a150505050505050565b6004546002546000916108b3916157fa565b60006125a0610814565b6001600160a01b031663cabb62f06040518163ffffffff1660e01b8152600401602060405180830381865afa1580156125dd573d6000803e3d6000fd5b505050506040513d601f19601f8201168201806040525081019061260191906157b1565b6040516370a0823160e01b81523060048201526001600160a01b0391909116906370a0823190602401602060405180830381865afa158015612647573d6000803e3d6000fd5b505050506040513d601f19601f820116820180604052508101906108b391906157ce565b606081600003612679574291505b600061268361154e565b6001600160a01b0316633c8ca83d6040518163ffffffff1660e01b8152600401602060405180830381865afa1580156126c0573d6000803e3d6000fd5b505050506040513d601f19601f820116820180604052508101906126e491906157ce565b9050808310156126f2578092505b60006126fc61154e565b6001600160a01b03166344d9bc5f6040518163ffffffff1660e01b8152600401602060405180830381865afa158015612739573d6000803e3d6000fd5b505050506040513d601f19601f8201168201806040525081019061275d91906157ce565b905080156127725761276f848261414c565b93505b600061277c612c9a565b90506000815167ffffffffffffffff81111561279a5761279a6153f9565b6040519080825280602002602001820160405280156127e557816020015b60408051606081018252600080825260208083018290529282015282526000199092019101816127b85790505b50905060005b82518110156128715760405180606001604052808483815181106128115761281161579b565b60200260200101516000015181526020016000815260200184838151811061283b5761283b61579b565b602002602001015160400151151581525082828151811061285e5761285e61579b565b60209081029190910101526001016127eb565b50600a54600b5485821015612887575084905060005b81881161289a5750909695505050505050565b60008060029054906101000a90046001600160a01b03166001600160a01b031663e6c15c996040518163ffffffff1660e01b8152600401602060405180830381865afa1580156128ee573d6000803e3d6000fd5b505050506040513d601f19601f8201168201806040525081019061291291906157b1565b6001600160a01b03166325fc92898a6040518263ffffffff1660e01b815260040161293f91815260200190565b602060405180830381865afa15801561295c573d6000803e3d6000fd5b505050506040513d601f19601f8201168201806040525081019061298091906157ce565b9050600061298e83836146e7565b905060006129a28484600460030154614761565b905060005b8751811015612a7d57818882815181106129c3576129c361579b565b6020026020010151602001516129d99190615762565b8782815181106129eb576129eb61579b565b60200260200101516020018181525050868181518110612a0d57612a0d61579b565b60200260200101516040015115612a755782888281518110612a3157612a3161579b565b602002602001015160200151612a479190615762565b878281518110612a5957612a5961579b565b6020026020010151602001818151612a7191906157fa565b9052505b6001016129a7565b50949a9950505050505050505050565b600080612a98612c9a565b905060005b8151811015612adc5783828281518110612ab957612ab961579b565b60200260200101516000015103612ad4575060019392505050565b600101612a9d565b5060009392505050565b6000612af36001546147ee565b6005546108b39190615762565b612b086142c7565b612b10610a14565b600654600090612b219083906157fa565b60068190556040518181529091507fa5b080ca657305a05e233a1bdfe1cb5a92588bd94928658051cf6ea8d91ae4b19060200160405180910390a16000612b66612e0f565b90506000612b72612596565b905081811115610a0d576000612b8883836157e7565b600054909150612ba7906201000090046001600160a01b0316826136c5565b5050505050565b612bb66142c7565b6000612bc0610814565b6001600160a01b031663912929df612bd66107a2565b6040518263ffffffff1660e01b8152600401612bf491815260200190565b602060405180830381865afa158015612c11573d6000803e3d6000fd5b505050506040513d601f19601f82011682018060405250810190612c3591906157b1565b604051630852cd8d60e31b8152600481018490529091506001600160a01b038216906342966c6890602401600060405180830381600087803b158015612c7a57600080fd5b505af1158015612c8e573d6000803e3d6000fd5b50505050610db8613dc1565b604080516002808252606082810190935260009190816020015b6040805160608101825260008082526020808301829052928201528252600019909201910181612cb45750506040805160a0810190915260046060820152631193d3d160e21b60808201527f2f6f5a261d6f4514c3f09a834720fe583c82f2ee4758ce9a45fbd67428e9f93d815290915060208101612710612d4162015180678ac7230489e80000615779565b612d4b9190615779565b81526020016000151581525081600081518110612d6a57612d6a61579b565b6020908102919091018101919091526040805160a08101909152600460608201526315d3d3d160e21b60808201527f5f3d3bfd5b61198148275c178146c21eec5c5ab7e81758f3c651754ae3f1ed428152908101612710612dd662015180678ac7230489e80000615779565b612de09190615779565b81526020016001151581525081600181518110612dff57612dff61579b565b6020908102919091010152919050565b6000612e196133d3565b612e21612ae6565b6108b391906157e7565b612e33614992565b612e3b614a2c565b612e5857604051630b7395e560e21b815260040160405180910390fd5b612e60611d56565b612e686143b1565b565b612e72613dc1565b612e7a614b6e565b600755565b612e87613430565b612e8f613561565b612e97610a14565b600854421015612eba5760405163aa4aed7160e01b815260040160405180910390fd5b6000612ec4612584565b90506000612ed18261218c565b6040805180820190915260038152624f524560e81b60209091015290507f9db51ceeef36d28f4a713ba944bdadb00e988c5676c92710eaf0e194efb4cb556001600160a01b038416612ffa57612f25610814565b6001600160a01b031663912929df826040518263ffffffff1660e01b8152600401612f5291815260200190565b602060405180830381865afa158015612f6f573d6000803e3d6000fd5b505050506040513d601f19601f82011682018060405250810190612f9391906157b1565b60405163079cc67960e41b8152336004820152602481018490526001600160a01b0391909116906379cc679090604401600060405180830381600087803b158015612fdd57600080fd5b505af1158015612ff1573d6000803e3d6000fd5b50505050613142565b6000613004610814565b6001600160a01b031663912929df836040518263ffffffff1660e01b815260040161303191815260200190565b602060405180830381865afa15801561304e573d6000803e3d6000fd5b505050506040513d601f19601f8201168201806040525081019061307291906157b1565b60405163dd8aaa4f60e01b81526001600160a01b038781166004830152336024830152604482018690529192509082169063dd8aaa4f90606401600060405180830381600087803b1580156130c657600080fd5b505af11580156130da573d6000803e3d6000fd5b505060405163079cc67960e41b81526001600160a01b03888116600483015260248201879052841692506379cc67909150604401600060405180830381600087803b15801561312857600080fd5b505af115801561313c573d6000803e3d6000fd5b50505050505b600060029054906101000a90046001600160a01b03166001600160a01b031663e6c15c996040518163ffffffff1660e01b8152600401602060405180830381865afa158015613195573d6000803e3d6000fd5b505050506040513d601f19601f820116820180604052508101906131b991906157b1565b6000546001600160a01b0391821691635053c2999162010000900416670de0b6b3a7640000856131e886614164565b6131f29190615762565b6131fc9190615779565b6040516001600160e01b031960e085901b1681526001600160a01b0390921660048301526024820152604401600060405180830381600087803b15801561324257600080fd5b505af1158015613256573d6000803e3d6000fd5b50505050613262600090565b61326c90426157fa565b60085560055460009061327e856132fe565b61328c6106c18760016157fa565b61329691906157e7565b6132a091906157fa565b6004549091506000906132b49060016157fa565b6005839055600481905590506132c8613dc1565b60408051828152602081018490527fd8f5076bf9515e2fc9ee2b3472c1f34b0474833710bcd006c2b502e6c659c9fd910161153e565b600060058161330d8285615779565b9050600061331b8383615762565b61332590866157e7565b90506000836002846133388160016157fa565b6133429190615762565b61334c9190615779565b6133569190615762565b905060006133658460016157fa565b61336f9084615762565b61220c90836157fa565b60006107316133866107a2565b83610dbc565b6000613396612217565b6001600160a01b031663ece56a1a6040518163ffffffff1660e01b8152600401602060405180830381865afa15801561088f573d6000803e3d6000fd5b6000806133ed600460020154670de0b6b3a764000061414c565b905060006133f9612ae6565b9050613429670de0b6b3a76400006134118484615762565b61341b9190615779565b670de0b6b3a7640000614cff565b9250505090565b600061343a61154e565b6001600160a01b0316633c8ca83d6040518163ffffffff1660e01b8152600401602060405180830381865afa158015613477573d6000803e3d6000fd5b505050506040513d601f19601f8201168201806040525081019061349b91906157ce565b905060006134a761154e565b6001600160a01b03166344d9bc5f6040518163ffffffff1660e01b8152600401602060405180830381865afa1580156134e4573d6000803e3d6000fd5b505050506040513d601f19601f8201168201806040525081019061350891906157ce565b905081158061351657508142105b156135345760405163a00eda6960e01b815260040160405180910390fd5b80158015906135435750804210155b15610db85760405163a00eda6960e01b815260040160405180910390fd5b600054604051631b0b969d60e01b8152336004820152620100009091046001600160a01b031690631b0b969d90602401602060405180830381865afa1580156135ae573d6000803e3d6000fd5b505050506040513d601f19601f820116820180604052508101906135d29190615931565b1580156135f857506135e261154e565b6001600160a01b0316336001600160a01b031614155b80156136a75750600061360961154e565b6001600160a01b031663ebbe803461363f7f6c85b93e587873fbe6712f3b438d42c2945689b262f7bd34b8ea4e3f832a89e75490565b6040516001600160e01b031960e084901b1681526004810191909152336024820152604401602060405180830381865afa158015613681573d6000803e3d6000fd5b505050506040513d601f19601f820116820180604052508101906136a591906157ce565b145b15612e6857604051630d319e2360e41b815260040160405180910390fd5b6136cd610814565b6001600160a01b031663cabb62f06040518163ffffffff1660e01b8152600401602060405180830381865afa15801561370a573d6000803e3d6000fd5b505050506040513d601f19601f8201168201806040525081019061372e91906157b1565b60405163a9059cbb60e01b81526001600160a01b03848116600483015260248201849052919091169063a9059cbb906044016020604051808303816000875af115801561377f573d6000803e3d6000fd5b505050506040513d601f19601f82011682018060405250810190610a0f9190615931565b60005b848110156137f1576137e98686838181106137c3576137c361579b565b90506020020135858585858181106137dd576137dd61579b565b90506020020135614d16565b6001016137a6565b505050505050565b3361380261154e565b6001600160a01b031663e4e940f06040518163ffffffff1660e01b8152600401602060405180830381865afa15801561383f573d6000803e3d6000fd5b505050506040513d601f19601f8201168201806040525081019061386391906157b1565b6001600160a01b031614612e6857604051638f857a2960e01b815260040160405180910390fd5b6001600160a01b0382166000818152600f6020908152604091829020849055815192835282018390527fdcea61563ab9f107db39d481e10a7eda8e255efb99c1bf6c57f2b2e5a8a6f90e910161160a565b6000806138e661154e565b6001600160a01b0316633c8ca83d6040518163ffffffff1660e01b8152600401602060405180830381865afa158015613923573d6000803e3d6000fd5b505050506040513d601f19601f8201168201806040525081019061394791906157ce565b9050600061395361154e565b6001600160a01b03166344d9bc5f6040518163ffffffff1660e01b8152600401602060405180830381865afa158015613990573d6000803e3d6000fd5b505050506040513d601f19601f820116820180604052508101906139b491906157ce565b905042828110156139c25750815b816000036139d1579392505050565b6139db818361414c565b935050505090565b600a849055600b839055600c829055600d8190556040805185815260208101859052908101839052606081018290527f0975f780ca30f886d7a3b13619106b83bfcd25cf1d64d5c2dd20e3546c4badf59060800160405180910390a150505050565b80600003613a51575050565b6000670de0b6b3a7640000613a668184615762565b613a709190615779565b90506000613a7c610814565b6001600160a01b031663912929df856040518263ffffffff1660e01b8152600401613aa991815260200190565b602060405180830381865afa158015613ac6573d6000803e3d6000fd5b505050506040513d601f19601f82011682018060405250810190613aea91906157b1565b6040516375719b0160e11b81523060048201526001600160a01b03919091169063eae3360290602401602060405180830381865afa158015613b30573d6000803e3d6000fd5b505050506040513d601f19601f82011682018060405250810190613b5491906157ce565b90506000613b63610469612584565b9050808210613b755760009250613b93565b613b7f82826157e7565b831115613b9357613b9082826157e7565b92505b8215613c8057613ba1610814565b6001600160a01b031663912929df866040518263ffffffff1660e01b8152600401613bce91815260200190565b602060405180830381865afa158015613beb573d6000803e3d6000fd5b505050506040513d601f19601f82011682018060405250810190613c0f91906157b1565b6040516340c10f1960e01b8152306004820152602481018590526001600160a01b0391909116906340c10f1990604401600060405180830381600087803b158015613c5957600080fd5b505af1158015613c6d573d6000803e3d6000fd5b505050508284613c7d91906157e7565b93505b8315612ba757600060029054906101000a90046001600160a01b03166001600160a01b031663e6c15c996040518163ffffffff1660e01b8152600401602060405180830381865afa158015613cd9573d6000803e3d6000fd5b505050506040513d601f19601f82011682018060405250810190613cfd91906157b1565b6000546001600160a01b039182169163e85b89d99162010000900416670de0b6b3a764000087613d2c8a614164565b613d369190615762565b613d409190615779565b6040516001600160e01b031960e085901b1681526001600160a01b0390921660048301526024820152604401600060405180830381600087803b158015613d8657600080fd5b505af1158015613d9a573d6000803e3d6000fd5b5050600a54600b54600c54612ba7945091925090613db99088906157fa565b600d546139e3565b6000613dcb612584565b90506000613dd8826132fe565b90506000613de4610814565b6001600160a01b031663912929df613dfa6107a2565b6040518263ffffffff1660e01b8152600401613e1891815260200190565b602060405180830381865afa158015613e35573d6000803e3d6000fd5b505050506040513d601f19601f82011682018060405250810190613e5991906157b1565b6040516375719b0160e11b81523060048201526001600160a01b03919091169063eae3360290602401602060405180830381865afa158015613e9f573d6000803e3d6000fd5b505050506040513d601f19601f82011682018060405250810190613ec391906157ce565b6009549091506000613edb613ed66107a2565b614ec1565b90506000670de0b6b3a764000085613ef38487615762565b613efd9190615779565b613f079190615779565b90506000670de0b6b3a76400008684613f1f8a611581565b613f299190615762565b613f339190615779565b613f3d9190615779565b90506000613f4b828461414c565b600981905590508085111561404c57613f62610814565b6001600160a01b031663c91b95666040518163ffffffff1660e01b8152600401602060405180830381865afa158015613f9f573d6000803e3d6000fd5b505050506040513d601f19601f82011682018060405250810190613fc391906157b1565b6000546001600160a01b03918216916379cc67909162010000900416613fe984896157e7565b6040516001600160e01b031960e085901b1681526001600160a01b0390921660048301526024820152604401600060405180830381600087803b15801561402f57600080fd5b505af1158015614043573d6000803e3d6000fd5b50505050614142565b808510156141425761405c610814565b6001600160a01b031663c91b95666040518163ffffffff1660e01b8152600401602060405180830381865afa158015614099573d6000803e3d6000fd5b505050506040513d601f19601f820116820180604052508101906140bd91906157b1565b6000546001600160a01b03918216916340c10f1991620100009004166140e388856157e7565b6040516001600160e01b031960e085901b1681526001600160a01b0390921660048301526024820152604401600060405180830381600087803b15801561412957600080fd5b505af115801561413d573d6000803e3d6000fd5b505050505b5050505050505050565b600081831061415b578161415d565b825b9392505050565b6040805180820190915260048152631193d3d160e21b60209091015260007fd090a5d9e290baeb3c0f657cb8df01a7c37d0d11b8a73165ba04298bd71606c382016141b85750670429d069189e0000919050565b60408051808201909152600481526315d3d3d160e21b6020909101527fa0c2c402a49ee67eb7d8a3e87eb93de113a3a54817e8a70c39ae8ab51c0e12be820161420a5750670de0b6b3a7640000919050565b6040805180820190915260038152624f524560e81b6020909101527f624ae31110c92d70b58ec456bb42524ff16773a98936d8ef150f1e6b104b34ab820161425b57506729a2241af62c0000919050565b604080518082019091526005815264125391d3d560da1b6020909101527f0b2c26746c5e8d6f1877c4437947c29fc4d8103cd72878c4c039b7afe27c1a8e82016142ae5750678ac7230489e80000919050565b60405163ea3b0abb60e01b815260040160405180910390fd5b6142cf61154e565b6001600160a01b0316336001600160a01b031614158015614393575060006142f561154e565b6001600160a01b031663ebbe803461432b7f6c85b93e587873fbe6712f3b438d42c2945689b262f7bd34b8ea4e3f832a89e75490565b6040516001600160e01b031960e084901b1681526004810191909152336024820152604401602060405180830381865afa15801561436d573d6000803e3d6000fd5b505050506040513d601f19601f8201168201806040525081019061439191906157ce565b145b15612e685760405163422656d160e01b815260040160405180910390fd5b6143b961154e565b6001600160a01b031663e4e940f06040518163ffffffff1660e01b8152600401602060405180830381865afa1580156143f6573d6000803e3d6000fd5b505050506040513d601f19601f8201168201806040525081019061441a91906157b1565b6001600160a01b0316636a627842600060029054906101000a90046001600160a01b03166001600160a01b031663b5acd4566040518163ffffffff1660e01b8152600401602060405180830381865afa15801561447b573d6000803e3d6000fd5b505050506040513d601f19601f8201168201806040525081019061449f91906157b1565b6040516001600160e01b031960e084901b1681526001600160a01b0390911660048201526024016020604051808303816000875af11580156144e5573d6000803e3d6000fd5b505050506040513d601f19601f8201168201806040525081019061450991906157ce565b600e8190556040519081527f21685fff63336d20fb2b74ff6a44da978e162f9199732816249248bad82657239060200160405180910390a1565b6040805180820190915260048152634641524d60e01b60209091015260007fea182adbe8a99c0376d68ae8663b1e572fb013df4142853d0efacd6d83e4a3f3820161459757506706f05b59d3b20000919050565b60408051808201909152600a8152691315535091549352531360b21b6020909101527f9105c25cd4a4f5de306390a4361214e261c5b47733a14849b60e1afd6befe9a782016145ef5750670de0b6b3a7640000919050565b6040805180820190915260048152634d494e4560e01b6020909101527fba703fbcaf9339015e918255c7c6fb66106877b9277228701a99875362186bbc82016146415750671bc16d674ec80000919050565b604080518082019091526006815265534d4954485960d01b6020909101527f172dd3f67874f5199aae0df823a0dbc7dc361e67643d2a2054a704e56cc7902e82016146955750673782dace9d900000919050565b6040805180820190915260048152631193d49560e21b6020909101527fd6ee2a35c7750db1280c6e5b14dbb9643f0276ca328c44ef8a35818fd5bd14e782016142ae5750671bc16d674ec80000919050565b6000806146f484846157e7565b90506000614714670de0b6b3a764000069021e19e0c9bab2400000615779565b61472690670de0b6b3a7640000615779565b6147309083615779565b9050670de0b6b3a764000081614744615013565b61474e9190615762565b6147589190615779565b95945050505050565b60008383116147725750600061415d565b600061477e85856157e7565b9050600061478a615067565b905060006147aa670de0b6b3a764000069021e19e0c9bab2400000615779565b6147bc90670de0b6b3a7640000615779565b6147c69084615779565b905061220c670de0b6b3a76400006147de8484615762565b6147e89190615779565b8661414c565b6040805180820190915260048152634641524d60e01b60209091015260007fea182adbe8a99c0376d68ae8663b1e572fb013df4142853d0efacd6d83e4a3f382016148425750678ac7230489e80000919050565b60408051808201909152600a8152691315535091549352531360b21b6020909101527f9105c25cd4a4f5de306390a4361214e261c5b47733a14849b60e1afd6befe9a7820161489a5750676124fee993bc0000919050565b6040805180820190915260048152634d494e4560e01b6020909101527fba703fbcaf9339015e918255c7c6fb66106877b9277228701a99875362186bbc82016148ec5750674563918244f40000919050565b604080518082019091526006815265534d4954485960d01b6020909101527f172dd3f67874f5199aae0df823a0dbc7dc361e67643d2a2054a704e56cc7902e820161494057506729a2241af62c0000919050565b6040805180820190915260048152631193d49560e21b6020909101527fd6ee2a35c7750db1280c6e5b14dbb9643f0276ca328c44ef8a35818fd5bd14e782016142ae5750674563918244f40000919050565b60005460408051635ad66a2b60e11b8152905133926201000090046001600160a01b03169163b5acd4569160048083019260209291908290030181865afa1580156149e1573d6000803e3d6000fd5b505050506040513d601f19601f82011682018060405250810190614a0591906157b1565b6001600160a01b031614612e6857604051639807ee1760e01b815260040160405180910390fd5b600080614a3a610469612584565b90506000614a466107a2565b905080614a565760009250505090565b6000670de0b6b3a7640000614a73670429d069189e000085615762565b614a7d9190615779565b90506000614a89610814565b6001600160a01b031663912929df846040518263ffffffff1660e01b8152600401614ab691815260200190565b602060405180830381865afa158015614ad3573d6000803e3d6000fd5b505050506040513d601f19601f82011682018060405250810190614af791906157b1565b6040516370a0823160e01b81523060048201526001600160a01b0391909116906370a0823190602401602060405180830381865afa158015614b3d573d6000803e3d6000fd5b505050506040513d601f19601f82011682018060405250810190614b6191906157ce565b9190911115949350505050565b600080614b79612c9a565b905060001960005b8251811015614cf857828181518110614b9c57614b9c61579b565b602002602001015160400151614cf0576000614bb6610814565b6001600160a01b031663912929df858481518110614bd657614bd661579b565b6020026020010151600001516040518263ffffffff1660e01b8152600401614c0091815260200190565b602060405180830381865afa158015614c1d573d6000803e3d6000fd5b505050506040513d601f19601f82011682018060405250810190614c4191906157b1565b6040516375719b0160e11b81523060048201526001600160a01b03919091169063eae3360290602401602060405180830381865afa158015614c87573d6000803e3d6000fd5b505050506040513d601f19601f82011682018060405250810190614cab91906157ce565b905080600003614cc057600094505050505090565b614cec848381518110614cd557614cd561579b565b60200260200101516020015182610f8b9190615779565b9250505b600101614b81565b5092915050565b600081614d0c8185615779565b61415d9190615762565b614d1e610a14565b614d266107a2565b8303614d4557604051632dbfd57b60e01b815260040160405180910390fd5b6000614d4f610814565b6001600160a01b031663912929df856040518263ffffffff1660e01b8152600401614d7c91815260200190565b602060405180830381865afa158015614d99573d6000803e3d6000fd5b505050506040513d601f19601f82011682018060405250810190614dbd91906157b1565b6040516370a0823160e01b81523060048201529091506000906001600160a01b038316906370a0823190602401602060405180830381865afa158015614e07573d6000803e3d6000fd5b505050506040513d601f19601f82011682018060405250810190614e2b91906157ce565b905080600003614e3c575050505050565b80831115614e48578092505b8215612ba75760405163a9059cbb60e01b81526001600160a01b0385811660048301526024820185905283169063a9059cbb906044016020604051808303816000875af1158015614e9d573d6000803e3d6000fd5b505050506040513d601f19601f820116820180604052508101906137f19190615931565b6040805180820190915260048152631193d3d160e21b60209091015260007fd090a5d9e290baeb3c0f657cb8df01a7c37d0d11b8a73165ba04298bd71606c38201614f1557506706f05b59d3b20000919050565b60408051808201909152600481526315d3d3d160e21b6020909101527fa0c2c402a49ee67eb7d8a3e87eb93de113a3a54817e8a70c39ae8ab51c0e12be8201614f675750670de0b6b3a7640000919050565b6040805180820190915260038152624f524560e81b6020909101527f624ae31110c92d70b58ec456bb42524ff16773a98936d8ef150f1e6b104b34ab8201614fb85750671bc16d674ec80000919050565b604080518082019091526005815264125391d3d560da1b6020909101527f0b2c26746c5e8d6f1877c4437947c29fc4d8103cd72878c4c039b7afe27c1a8e820161500b57506729a2241af62c0000919050565b506000919050565b600154600090670de0b6b3a7640000600561502d836147ee565b61503684615091565b6003546150439190615762565b61504d9190615762565b6150579190615762565b6150619190615779565b91505090565b6000806150726133d3565b61507a612596565b61508491906157fa565b9050615061600582615762565b6040805180820190915260048152634641524d60e01b60209091015260007fea182adbe8a99c0376d68ae8663b1e572fb013df4142853d0efacd6d83e4a3f382016150e557506706f05b59d3b20000919050565b60408051808201909152600a8152691315535091549352531360b21b6020909101527f9105c25cd4a4f5de306390a4361214e261c5b47733a14849b60e1afd6befe9a7820161513d57506705f7aab8c56b0000919050565b6040805180820190915260048152634d494e4560e01b6020909101527fba703fbcaf9339015e918255c7c6fb66106877b9277228701a99875362186bbc820161518f575067058d15e176280000919050565b604080518082019091526006815265534d4954485960d01b6020909101527f172dd3f67874f5199aae0df823a0dbc7dc361e67643d2a2054a704e56cc7902e82016151e35750670494654067e10000919050565b6040805180820190915260048152631193d49560e21b6020909101527fd6ee2a35c7750db1280c6e5b14dbb9643f0276ca328c44ef8a35818fd5bd14e782016142ae575067058d15e176280000919050565b60006020828403121561524757600080fd5b5035919050565b6001600160a01b038116811461526357600080fd5b50565b60008083601f84011261527857600080fd5b50813567ffffffffffffffff81111561529057600080fd5b6020830191508360208260051b8501011115611d4f57600080fd5b600080600080600080600060a0888a0312156152c657600080fd5b87356152d18161524e565b96506020880135955060408801356152e88161524e565b9450606088013567ffffffffffffffff81111561530457600080fd5b6153108a828b01615266565b909550935050608088013567ffffffffffffffff81111561533057600080fd5b61533c8a828b01615266565b989b979a50959850939692959293505050565b60006020828403121561536157600080fd5b81356001600160e01b03198116811461415d57600080fd5b60008060006060848603121561538e57600080fd5b83356153998161524e565b925060208401356153a98161524e565b929592945050506040919091013590565b600080604083850312156153cd57600080fd5b50508035926020909101359150565b6000602082840312156153ee57600080fd5b813561415d8161524e565b634e487b7160e01b600052604160045260246000fd5b604051601f8201601f1916810167ffffffffffffffff81118282101715615438576154386153f9565b604052919050565b60006020828403121561545257600080fd5b813567ffffffffffffffff81111561546957600080fd5b8201601f8101841361547a57600080fd5b803567ffffffffffffffff811115615494576154946153f9565b6154a7601f8201601f191660200161540f565b8181528560208385010111156154bc57600080fd5b81602084016020830137600091810160200191909152949350505050565b600080604083850312156154ed57600080fd5b82356154f88161524e565b946020939093013593505050565b602080825282518282018190526000918401906040840190835b8181101561555f5761554983855180518252602080820151908301526040908101511515910152565b6020939093019260609290920191600101615520565b509095945050505050565b60008083601f84011261557c57600080fd5b50813567ffffffffffffffff81111561559457600080fd5b602083019150836020828501011115611d4f57600080fd5b60008060008060008060008060a0898b0312156155c857600080fd5b88356155d38161524e565b975060208901356155e38161524e565b9650604089013567ffffffffffffffff8111156155ff57600080fd5b61560b8b828c01615266565b909750955050606089013567ffffffffffffffff81111561562b57600080fd5b6156378b828c01615266565b909550935050608089013567ffffffffffffffff81111561565757600080fd5b6156638b828c0161556a565b999c989b5096995094979396929594505050565b602080825282518282018190526000918401906040840190835b8181101561555f576156ba83855180518252602080820151908301526040908101511515910152565b6020939093019260609290920191600101615691565b60008060008060008060a087890312156156e957600080fd5b86356156f48161524e565b955060208701356157048161524e565b94506040870135935060608701359250608087013567ffffffffffffffff81111561572e57600080fd5b61573a89828a0161556a565b979a9699509497509295939492505050565b634e487b7160e01b600052601160045260246000fd5b80820281158282048414176107315761073161574c565b60008261579657634e487b7160e01b600052601260045260246000fd5b500490565b634e487b7160e01b600052603260045260246000fd5b6000602082840312156157c357600080fd5b815161415d8161524e565b6000602082840312156157e057600080fd5b5051919050565b818103818111156107315761073161574c565b808201808211156107315761073161574c565b6001815b60018411156158485780850481111561582c5761582c61574c565b600184161561583a57908102905b60019390931c928002615811565b935093915050565b60008261585f57506001610731565b8161586c57506000610731565b8160018114615882576002811461588c576158a8565b6001915050610731565b60ff84111561589d5761589d61574c565b50506001821b610731565b5060208310610133831016604e8410600b84101617156158cb575081810a610731565b6158d8600019848461580d565b80600019048211156158ec576158ec61574c565b029392505050565b600061415d60ff841683615850565b6000806040838503121561591657600080fd5b82516159218161524e565b6020939093015192949293505050565b60006020828403121561594357600080fd5b8151801515811461415d57600080fd5b60006020828403121561596557600080fd5b815167ffffffffffffffff81111561597c57600080fd5b8201601f8101841361598d57600080fd5b805167ffffffffffffffff8111156159a7576159a76153f9565b8060051b6159b76020820161540f565b918252602081840181019290810190878411156159d357600080fd5b6020850194505b8385101561220c57845192506159ef8361524e565b828252602094850194909101906159da56fea264697066735822122019c73ed0d00197fb0262f36eb81954b35ca672e68720699e3bea59989c1744df64736f6c634300081a0033",
  "linkReferences": {},
  "deployedLinkReferences": {}
}