{
  "_format": "hh-sol-artifact-1",
  "contractName": "WorkersPool",
  "sourceName": "contracts/core/assets/workersPool/WorkersPool.sol",
  "abi": [
    {
      "inputs": [],
      "name": "CannotHireWorkersDueToNotEnoughProsperityInSettlement",
      "type": "error"
    },
    {
      "inputs": [],
      "name": "CannotHireWorkersDueToTheirCostIsHigherThanMaxProsperityToSellSpecified",
      "type": "error"
    },
    {
      "inputs": [],
      "name": "CannotHireWorkersExceedingTransactionLimit",
      "type": "error"
    },
    {
      "inputs": [],
      "name": "CannotHireWorkersInvalidWorkersToBuySpecified",
      "type": "error"
    },
    {
      "inputs": [],
      "name": "OnlyActiveGame",
      "type": "error"
    },
    {
      "inputs": [],
      "name": "OnlyMightyCreator",
      "type": "error"
    },
    {
      "inputs": [],
      "name": "OnlyWorldAssetFromSameEra",
      "type": "error"
    },
    {
      "anonymous": false,
      "inputs": [
        {
          "indexed": false,
          "internalType": "uint8",
          "name": "version",
          "type": "uint8"
        }
      ],
      "name": "Initialized",
      "type": "event"
    },
    {
      "anonymous": false,
      "inputs": [
        {
          "indexed": false,
          "internalType": "address",
          "name": "buyerSettlementAddress",
          "type": "address"
        },
        {
          "indexed": false,
          "internalType": "uint256",
          "name": "boughtWorkersAmount",
          "type": "uint256"
        },
        {
          "indexed": false,
          "internalType": "uint256",
          "name": "spentProsperityAmount",
          "type": "uint256"
        }
      ],
      "name": "WorkersBought",
      "type": "event"
    },
    {
      "inputs": [],
      "name": "assetGroupId",
      "outputs": [
        {
          "internalType": "bytes32",
          "name": "",
          "type": "bytes32"
        }
      ],
      "stateMutability": "view",
      "type": "function"
    },
    {
      "inputs": [],
      "name": "assetTypeId",
      "outputs": [
        {
          "internalType": "bytes32",
          "name": "",
          "type": "bytes32"
        }
      ],
      "stateMutability": "view",
      "type": "function"
    },
    {
      "inputs": [
        {
          "internalType": "uint256",
          "name": "unitsToBuy",
          "type": "uint256"
        }
      ],
      "name": "calculateProsperityForExactWorkers",
      "outputs": [
        {
          "internalType": "uint256",
          "name": "",
          "type": "uint256"
        },
        {
          "internalType": "uint256",
          "name": "",
          "type": "uint256"
        }
      ],
      "stateMutability": "view",
      "type": "function"
    },
    {
      "inputs": [],
      "name": "era",
      "outputs": [
        {
          "internalType": "contract IEra",
          "name": "",
          "type": "address"
        }
      ],
      "stateMutability": "view",
      "type": "function"
    },
    {
      "inputs": [],
      "name": "eraNumber",
      "outputs": [
        {
          "internalType": "uint256",
          "name": "",
          "type": "uint256"
        }
      ],
      "stateMutability": "view",
      "type": "function"
    },
    {
      "inputs": [
        {
          "internalType": "bytes",
          "name": "initParams",
          "type": "bytes"
        }
      ],
      "name": "init",
      "outputs": [],
      "stateMutability": "nonpayable",
      "type": "function"
    },
    {
      "inputs": [],
      "name": "lastPurchaseTime",
      "outputs": [
        {
          "internalType": "uint256",
          "name": "",
          "type": "uint256"
        }
      ],
      "stateMutability": "view",
      "type": "function"
    },
    {
      "inputs": [],
      "name": "registry",
      "outputs": [
        {
          "internalType": "contract IRegistry",
          "name": "",
          "type": "address"
        }
      ],
      "stateMutability": "view",
      "type": "function"
    },
    {
      "inputs": [],
      "name": "relatedRegion",
      "outputs": [
        {
          "internalType": "contract IRegion",
          "name": "",
          "type": "address"
        }
      ],
      "stateMutability": "view",
      "type": "function"
    },
    {
      "inputs": [
        {
          "internalType": "address",
          "name": "settlementAddress",
          "type": "address"
        },
        {
          "internalType": "uint256",
          "name": "workersToBuy",
          "type": "uint256"
        },
        {
          "internalType": "uint256",
          "name": "maxProsperityToSell",
          "type": "uint256"
        }
      ],
      "name": "swapProsperityForExactWorkers",
      "outputs": [
        {
          "internalType": "uint256",
          "name": "",
          "type": "uint256"
        }
      ],
      "stateMutability": "nonpayable",
      "type": "function"
    },
    {
      "inputs": [],
      "name": "workerPrice",
      "outputs": [
        {
          "internalType": "uint256",
          "name": "",
          "type": "uint256"
        }
      ],
      "stateMutability": "view",
      "type": "function"
    },
    {
      "inputs": [],
      "name": "world",
      "outputs": [
        {
          "internalType": "contract IWorld",
          "name": "",
          "type": "address"
        }
      ],
      "stateMutability": "view",
      "type": "function"
    },
    {
      "inputs": [],
      "name": "worldAssetFactory",
      "outputs": [
        {
          "internalType": "contract IWorldAssetFactory",
          "name": "",
          "type": "address"
        }
      ],
      "stateMutability": "view",
      "type": "function"
    }
  ],
  "bytecode": "0x6080604052348015600f57600080fd5b506115d48061001f6000396000f3fe608060405234801561001057600080fd5b50600436106100df5760003560e01c80637b1039991161008c578063be5a391a11610066578063be5a391a146101e8578063c14bafb1146101f1578063e6c15c99146101fa578063ece56a1a1461021357600080fd5b80637b103999146101925780637d884c741461019a57806384ba89e3146101c157600080fd5b806330b67baa116100bd57806330b67baa146101625780634461be261461016a5780634ddf47d41461017d57600080fd5b80630b4e99c3146100e4578063126adfb51461011a578063143e55e014610142575b600080fd5b7f6c85b93e587873fbe6712f3b438d42c2945689b262f7bd34b8ea4e3f832a89ea545b6040519081526020015b60405180910390f35b61012d6101283660046113be565b61021b565b60408051928352602083019190915201610111565b61014a610247565b6040516001600160a01b039091168152602001610111565b61014a6102eb565b6101076101783660046113ef565b61031e565b61019061018b36600461143a565b6106a6565b005b61014a610829565b7f6c85b93e587873fbe6712f3b438d42c2945689b262f7bd34b8ea4e3f832a89e754610107565b7f6c85b93e587873fbe6712f3b438d42c2945689b262f7bd34b8ea4e3f832a89e954610107565b61010760025481565b61010760015481565b60005461014a906201000090046001600160a01b031681565b61014a610870565b6000806103ec6103e88261022f83836108b7565b905061023b86826108fa565b94509450505050915091565b60006102516102eb565b6001600160a01b031663720a70bd6102877f6c85b93e587873fbe6712f3b438d42c2945689b262f7bd34b8ea4e3f832a89e75490565b6040518263ffffffff1660e01b81526004016102a591815260200190565b602060405180830381865afa1580156102c2573d6000803e3d6000fd5b505050506040513d601f19601f820116820180604052508101906102e691906114f3565b905090565b60006102e67f6c85b93e587873fbe6712f3b438d42c2945689b262f7bd34b8ea4e3f832a89e6546001600160a01b031690565b6000610328610997565b821580610344575061034283670de0b6b3a7640000610a9b565b155b15610362576040516301ccb96360e51b815260040160405180910390fd5b836001600160a01b031663bea42f9c6040518163ffffffff1660e01b8152600401600060405180830381600087803b15801561039d57600080fd5b505af11580156103b1573d6000803e3d6000fd5b5050505069010f0cf064dd592000008311156103e057604051635a45d2a760e01b815260040160405180910390fd5b6000806103f8610128670de0b6b3a764000087611526565b915091508382111561041d57604051633ec54df560e11b815260040160405180910390fd5b6000610427610247565b6001600160a01b031663c91b95666040518163ffffffff1660e01b8152600401602060405180830381865afa158015610464573d6000803e3d6000fd5b505050506040513d601f19601f8201168201806040525081019061048891906114f3565b90506000610494610247565b6001600160a01b031663cabb62f06040518163ffffffff1660e01b8152600401602060405180830381865afa1580156104d1573d6000803e3d6000fd5b505050506040513d601f19601f820116820180604052508101906104f591906114f3565b6040516370a0823160e01b81526001600160a01b038a8116600483015291925085918416906370a0823190602401602060405180830381865afa158015610540573d6000803e3d6000fd5b505050506040513d601f19601f82011682018060405250810190610564919061153a565b101561058357604051630465fa2d60e21b815260040160405180910390fd5b60405163af7d6ca360e01b81526001600160a01b0389811660048301526024820186905283169063af7d6ca390604401600060405180830381600087803b1580156105cd57600080fd5b505af11580156105e1573d6000803e3d6000fd5b50506040516340c10f1960e01b81526001600160a01b038b81166004830152602482018b9052841692506340c10f199150604401600060405180830381600087803b15801561062f57600080fd5b505af1158015610643573d6000803e3d6000fd5b50505060028490555042600155604080516001600160a01b038a168152602081018990529081018590527f342c134ff513e129f43ac7bed5ba83a44ae5101933f0f2471d8e2817a2d38e269060600160405180910390a150949695505050505050565b600054610100900460ff16158080156106c65750600054600160ff909116105b806106e05750303b1580156106e0575060005460ff166001145b6107565760405162461bcd60e51b815260206004820152602e60248201527f496e697469616c697a61626c653a20636f6e747261637420697320616c72656160448201527f647920696e697469616c697a6564000000000000000000000000000000000000606482015260840160405180910390fd5b6000805460ff191660011790558015610779576000805461ff0019166101001790555b60008280602001905181019061078f91906114f3565b600080546001600160a01b0390921662010000027fffffffffffffffffffff0000000000000000000000000000000000000000ffff90921691909117905550426001556801158e460913d000006002558015610825576000805461ff0019169055604051600181527f7f26b83ff96e1f2b6a682f133852f6798a09c465da95921460cefb38474024989060200160405180910390a15b5050565b60006108336102eb565b6001600160a01b0316637b1039996040518163ffffffff1660e01b8152600401602060405180830381865afa1580156102c2573d6000803e3d6000fd5b600061087a610829565b6001600160a01b031663ece56a1a6040518163ffffffff1660e01b8152600401602060405180830381865afa1580156102c2573d6000803e3d6000fd5b6000816000036108c657600080fd5b60006108d28484610aaf565b905060016001607f1b036001600160801b03821611156108f157600080fd5b90505b92915050565b6000806000610907610c25565b905060006109158587610da9565b9050600061093d61092f8361092a6001611012565b611030565b6109388861106d565b6110a7565b9050600061094b8483611107565b905060006109598585611107565b9050600061096f83670de0b6b3a7640000611146565b9050600061098583670de0b6b3a7640000611146565b919b919a509098505050505050505050565b61099f6102eb565b6001600160a01b0316336001600160a01b031614158015610a7b575060006109c56102eb565b6001600160a01b031663ebbe80346109fb7f6c85b93e587873fbe6712f3b438d42c2945689b262f7bd34b8ea4e3f832a89e75490565b6040517fffffffff0000000000000000000000000000000000000000000000000000000060e084901b1681526004810191909152336024820152604401602060405180830381865afa158015610a55573d6000803e3d6000fd5b505050506040513d601f19601f82011682018060405250810190610a79919061153a565b145b15610a995760405163422656d160e01b815260040160405180910390fd5b565b6000610aa78284611553565b159392505050565b600081600003610abe57600080fd5b600077ffffffffffffffffffffffffffffffffffffffffffffffff8411610afa5782604085901b81610af257610af2611510565b049050610c11565b60c084811c6401000000008110610b13576020918201911c5b620100008110610b25576010918201911c5b6101008110610b36576008918201911c5b60108110610b46576004918201911c5b60048110610b56576002918201911c5b60028110610b65576001820191505b60bf820360018603901c6001018260ff0387901b81610b8657610b86611510565b0492506001600160801b03831115610b9d57600080fd5b608085901c83026001600160801b038616840260c088901c604089901b82811015610bc9576001820391505b608084901b92900382811015610be0576001820391505b829003608084901c8214610bf657610bf6611567565b888181610c0557610c05611510565b04870196505050505050505b6001600160801b038111156108f157600080fd5b60004281610c316102eb565b6001600160a01b0316633c8ca83d6040518163ffffffff1660e01b8152600401602060405180830381865afa158015610c6e573d6000803e3d6000fd5b505050506040513d601f19601f82011682018060405250810190610c92919061153a565b905080821015610ca0578091505b6000610caa6102eb565b6001600160a01b03166344d9bc5f6040518163ffffffff1660e01b8152600401602060405180830381865afa158015610ce7573d6000803e3d6000fd5b505050506040513d601f19601f82011682018060405250810190610d0b919061153a565b90508015610d2057610d1d8382611248565b92505b60015482811015610d2e5750815b6000610d44600254670de0b6b3a76400006108b7565b9050848210610d565795945050505050565b6000610d62838761157d565b9050662386f07b1c9936662386f26fc100006000610d8083836108b7565b90506000610d8e8286610da9565b9050610d9a8682611107565b9a505050505050505050505090565b600080600084600f0b128015610dc25750826001166001145b905060008085600f0b12610dd65784610ddb565b846000035b6001600160801b03169050600160801b680100000000000000008211610e7557603f82901b91505b8415610e6d576001851615610e18578102607f1c5b908002607f1c906002851615610e2e578102607f1c5b908002607f1c906004851615610e44578102607f1c5b908002607f1c906008851615610e5a578102607f1c5b60049490941c93908002607f1c90610e03565b60401c610fc3565b603f6c01000000000000000000000000831015610e985760209290921b91601f19015b6e010000000000000000000000000000831015610ebb5760109290921b91600f19015b6f01000000000000000000000000000000831015610edf5760089290921b91600719015b6f10000000000000000000000000000000831015610f035760049290921b91600319015b6f40000000000000000000000000000000831015610f275760029290921b91600119015b6001607f1b831015610f3f5760019290921b91600019015b60005b8615610fac5760408210610f5557600080fd5b6001871615610f7b57918302607f1c918101600160801b831115610f7b57600192831c92015b928002607f1c9260019190911b90600160801b8410610fa057600193841c9391909101905b600187901c9650610f42565b60408110610fb957600080fd5b6040039190911c90505b600083610fd05781610fd5565b816000035b90506f7fffffffffffffffffffffffffffffff198112801590610fff575060016001607f1b038113155b61100857600080fd5b9695505050505050565b6000677fffffffffffffff82111561102957600080fd5b5060401b90565b6000600f82810b9084900b036f7fffffffffffffffffffffffffffffff198112801590611064575060016001607f1b038113155b6108f157600080fd5b60008082600f0b1361107e57600080fd5b60806110898361125e565b600f0b6fb17217f7d1cf79abc9e3b39803f2f6af02901c9050919050565b600081600f0b6000036110b957600080fd5b600082600f0b604085600f0b901b816110d4576110d4611510565b0590506f7fffffffffffffffffffffffffffffff198112801590611064575060016001607f1b038113156108f157600080fd5b6000600f83810b9083900b0260401d6f7fffffffffffffffffffffffffffffff198112801590611064575060016001607f1b038113156108f157600080fd5b60006001607f1b600f84900b016111b7577fffffffffffffffff00000000000000000000000000000000000000000000000182121580156111a0575078010000000000000000000000000000000000000000000000008213155b6111a957600080fd5b506000819003603f1b6108f4565b60008084600f0b12156111cf57836000039350600190505b60008312156111e15760009290920391155b60006111ed8585611342565b9050811561121257600160ff1b81111561120657600080fd5b60000391506108f49050565b7f7fffffffffffffffffffffffffffffffffffffffffffffffffffffffffffffff81111561123f57600080fd5b91506108f49050565b600081831061125757816108f1565b5090919050565b60008082600f0b1361126f57600080fd5b6000600f83900b68010000000000000000811261128e576040918201911d5b64010000000081126112a2576020918201911d5b6201000081126112b4576010918201911d5b61010081126112c5576008918201911d5b601081126112d5576004918201911d5b600481126112e5576002918201911d5b600281126112f4576001820191505b603f19820160401b600f85900b607f8490031b6780000000000000005b60008113156113375790800260ff81901c8281029390930192607f011c9060011d611311565b509095945050505050565b600081600003611354575060006108f4565b600083600f0b121561136557600080fd5b600f83900b6001600160801b038316810260401c90608084901c0277ffffffffffffffffffffffffffffffffffffffffffffffff8111156113a557600080fd5b60401b81198111156113b657600080fd5b019392505050565b6000602082840312156113d057600080fd5b5035919050565b6001600160a01b03811681146113ec57600080fd5b50565b60008060006060848603121561140457600080fd5b833561140f816113d7565b95602085013595506040909401359392505050565b634e487b7160e01b600052604160045260246000fd5b60006020828403121561144c57600080fd5b813567ffffffffffffffff81111561146357600080fd5b8201601f8101841361147457600080fd5b803567ffffffffffffffff81111561148e5761148e611424565b604051601f8201601f19908116603f0116810167ffffffffffffffff811182821017156114bd576114bd611424565b6040528181528282016020018610156114d557600080fd5b81602084016020830137600091810160200191909152949350505050565b60006020828403121561150557600080fd5b81516108f1816113d7565b634e487b7160e01b600052601260045260246000fd5b60008261153557611535611510565b500490565b60006020828403121561154c57600080fd5b5051919050565b60008261156257611562611510565b500690565b634e487b7160e01b600052600160045260246000fd5b818103818111156108f457634e487b7160e01b600052601160045260246000fdfea264697066735822122089225e12ae1cf770c78c465e84555b2e2e961727697866ce64b87d872e8d08f664736f6c634300081a0033",
  "linkReferences": {},
  "deployedLinkReferences": {}
}