{
  "_format": "hh-sol-artifact-1",
  "contractName": "StubERC20",
  "sourceName": "contracts/periphery/StubERC20.sol",
  "abi": [
    {
      "inputs": [
        {
          "internalType": "string",
          "name": "name",
          "type": "string"
        },
        {
          "internalType": "string",
          "name": "symbol",
          "type": "string"
        }
      ],
      "stateMutability": "nonpayable",
      "type": "constructor"
    },
    {
      "anonymous": false,
      "inputs": [
        {
          "indexed": true,
          "internalType": "address",
          "name": "owner",
          "type": "address"
        },
        {
          "indexed": true,
          "internalType": "address",
          "name": "spender",
          "type": "address"
        },
        {
          "indexed": false,
          "internalType": "uint256",
          "name": "value",
          "type": "uint256"
        }
      ],
      "name": "Approval",
      "type": "event"
    },
    {
      "anonymous": false,
      "inputs": [
        {
          "indexed": true,
          "internalType": "address",
          "name": "previousOwner",
          "type": "address"
        },
        {
          "indexed": true,
          "internalType": "address",
          "name": "newOwner",
          "type": "address"
        }
      ],
      "name": "OwnershipTransferred",
      "type": "event"
    },
    {
      "anonymous": false,
      "inputs": [
        {
          "indexed": true,
          "internalType": "address",
          "name": "from",
          "type": "address"
        },
        {
          "indexed": true,
          "internalType": "address",
          "name": "to",
          "type": "address"
        },
        {
          "indexed": false,
          "internalType": "uint256",
          "name": "value",
          "type": "uint256"
        }
      ],
      "name": "Transfer",
      "type": "event"
    },
    {
      "inputs": [
        {
          "internalType": "address",
          "name": "owner",
          "type": "address"
        },
        {
          "internalType": "address",
          "name": "spender",
          "type": "address"
        }
      ],
      "name": "allowance",
      "outputs": [
        {
          "internalType": "uint256",
          "name": "",
          "type": "uint256"
        }
      ],
      "stateMutability": "view",
      "type": "function"
    },
    {
      "inputs": [
        {
          "internalType": "address",
          "name": "spender",
          "type": "address"
        },
        {
          "internalType": "uint256",
          "name": "amount",
          "type": "uint256"
        }
      ],
      "name": "approve",
      "outputs": [
        {
          "internalType": "bool",
          "name": "",
          "type": "bool"
        }
      ],
      "stateMutability": "nonpayable",
      "type": "function"
    },
    {
      "inputs": [
        {
          "internalType": "address",
          "name": "account",
          "type": "address"
        }
      ],
      "name": "balanceOf",
      "outputs": [
        {
          "internalType": "uint256",
          "name": "",
          "type": "uint256"
        }
      ],
      "stateMutability": "view",
      "type": "function"
    },
    {
      "inputs": [
        {
          "internalType": "address",
          "name": "srcAddress",
          "type": "address"
        },
        {
          "internalType": "uint256",
          "name": "amount",
          "type": "uint256"
        }
      ],
      "name": "burnFrom",
      "outputs": [],
      "stateMutability": "nonpayable",
      "type": "function"
    },
    {
      "inputs": [],
      "name": "decimals",
      "outputs": [
        {
          "internalType": "uint8",
          "name": "",
          "type": "uint8"
        }
      ],
      "stateMutability": "view",
      "type": "function"
    },
    {
      "inputs": [
        {
          "internalType": "address",
          "name": "spender",
          "type": "address"
        },
        {
          "internalType": "uint256",
          "name": "subtractedValue",
          "type": "uint256"
        }
      ],
      "name": "decreaseAllowance",
      "outputs": [
        {
          "internalType": "bool",
          "name": "",
          "type": "bool"
        }
      ],
      "stateMutability": "nonpayable",
      "type": "function"
    },
    {
      "inputs": [
        {
          "internalType": "address",
          "name": "spender",
          "type": "address"
        },
        {
          "internalType": "uint256",
          "name": "addedValue",
          "type": "uint256"
        }
      ],
      "name": "increaseAllowance",
      "outputs": [
        {
          "internalType": "bool",
          "name": "",
          "type": "bool"
        }
      ],
      "stateMutability": "nonpayable",
      "type": "function"
    },
    {
      "inputs": [
        {
          "internalType": "address",
          "name": "dstAddress",
          "type": "address"
        },
        {
          "internalType": "uint256",
          "name": "amount",
          "type": "uint256"
        }
      ],
      "name": "mintTo",
      "outputs": [],
      "stateMutability": "nonpayable",
      "type": "function"
    },
    {
      "inputs": [],
      "name": "name",
      "outputs": [
        {
          "internalType": "string",
          "name": "",
          "type": "string"
        }
      ],
      "stateMutability": "view",
      "type": "function"
    },
    {
      "inputs": [],
      "name": "owner",
      "outputs": [
        {
          "internalType": "address",
          "name": "",
          "type": "address"
        }
      ],
      "stateMutability": "view",
      "type": "function"
    },
    {
      "inputs": [],
      "name": "renounceOwnership",
      "outputs": [],
      "stateMutability": "nonpayable",
      "type": "function"
    },
    {
      "inputs": [],
      "name": "symbol",
      "outputs": [
        {
          "internalType": "string",
          "name": "",
          "type": "string"
        }
      ],
      "stateMutability": "view",
      "type": "function"
    },
    {
      "inputs": [],
      "name": "totalSupply",
      "outputs": [
        {
          "internalType": "uint256",
          "name": "",
          "type": "uint256"
        }
      ],
      "stateMutability": "view",
      "type": "function"
    },
    {
      "inputs": [
        {
          "internalType": "address",
          "name": "to",
          "type": "address"
        },
        {
          "internalType": "uint256",
          "name": "amount",
          "type": "uint256"
        }
      ],
      "name": "transfer",
      "outputs": [
        {
          "internalType": "bool",
          "name": "",
          "type": "bool"
        }
      ],
      "stateMutability": "nonpayable",
      "type": "function"
    },
    {
      "inputs": [
        {
          "internalType": "address",
          "name": "from",
          "type": "address"
        },
        {
          "internalType": "address",
          "name": "to",
          "type": "address"
        },
        {
          "internalType": "uint256",
          "name": "amount",
          "type": "uint256"
        }
      ],
      "name": "transferFrom",
      "outputs": [
        {
          "internalType": "bool",
          "name": "",
          "type": "bool"
        }
      ],
      "stateMutability": "nonpayable",
      "type": "function"
    },
    {
      "inputs": [
        {
          "internalType": "address",
          "name": "newOwner",
          "type": "address"
        }
      ],
      "name": "transferOwnership",
      "outputs": [],
      "stateMutability": "nonpayable",
      "type": "function"
    }
  ],
  "bytecode": "0x608060405234801561001057600080fd5b5060405161106038038061106083398101604081905261002f91610179565b8181600361003d838261026b565b50600461004a828261026b565b50505061006361005e61006a60201b60201c565b61006e565b5050610329565b3390565b600580546001600160a01b038381166001600160a01b0319831681179093556040519116919082907f8be0079c531659141344cd1fd0a4f28419497f9722a3daafe3b4186f6b6457e090600090a35050565b634e487b7160e01b600052604160045260246000fd5b600082601f8301126100e757600080fd5b81516001600160401b03811115610100576101006100c0565b604051601f8201601f19908116603f011681016001600160401b038111828210171561012e5761012e6100c0565b60405281815283820160200185101561014657600080fd5b60005b8281101561016557602081860181015183830182015201610149565b506000918101602001919091529392505050565b6000806040838503121561018c57600080fd5b82516001600160401b038111156101a257600080fd5b6101ae858286016100d6565b602085015190935090506001600160401b038111156101cc57600080fd5b6101d8858286016100d6565b9150509250929050565b600181811c908216806101f657607f821691505b60208210810361021657634e487b7160e01b600052602260045260246000fd5b50919050565b601f82111561026657806000526020600020601f840160051c810160208510156102435750805b601f840160051c820191505b81811015610263576000815560010161024f565b50505b505050565b81516001600160401b03811115610284576102846100c0565b6102988161029284546101e2565b8461021c565b6020601f8211600181146102cc57600083156102b45750848201515b600019600385901b1c1916600184901b178455610263565b600084815260208120601f198516915b828110156102fc57878501518255602094850194600190920191016102dc565b508482101561031a5786840151600019600387901b60f8161c191681555b50505050600190811b01905550565b610d28806103386000396000f3fe608060405234801561001057600080fd5b50600436106101005760003560e01c8063715018a611610097578063a457c2d711610066578063a457c2d714610209578063a9059cbb1461021c578063dd62ed3e1461022f578063f2fde38b1461026857600080fd5b8063715018a6146101cb57806379cc6790146101d35780638da5cb5b146101e657806395d89b411461020157600080fd5b8063313ce567116100d3578063313ce5671461016b578063395093511461017a578063449a52f81461018d57806370a08231146101a257600080fd5b806306fdde0314610105578063095ea7b31461012357806318160ddd1461014657806323b872dd14610158575b600080fd5b61010d61027b565b60405161011a9190610b56565b60405180910390f35b610136610131366004610bc0565b61030d565b604051901515815260200161011a565b6002545b60405190815260200161011a565b610136610166366004610bea565b610327565b6040516012815260200161011a565b610136610188366004610bc0565b61034b565b6101a061019b366004610bc0565b61038a565b005b61014a6101b0366004610c27565b6001600160a01b031660009081526020819052604090205490565b6101a06103a0565b6101a06101e1366004610bc0565b6103b4565b6005546040516001600160a01b03909116815260200161011a565b61010d6103c6565b610136610217366004610bc0565b6103d5565b61013661022a366004610bc0565b61046c565b61014a61023d366004610c49565b6001600160a01b03918216600090815260016020908152604080832093909416825291909152205490565b6101a0610276366004610c27565b61047a565b60606003805461028a90610c7c565b80601f01602080910402602001604051908101604052809291908181526020018280546102b690610c7c565b80156103035780601f106102d857610100808354040283529160200191610303565b820191906000526020600020905b8154815290600101906020018083116102e657829003601f168201915b5050505050905090565b60003361031b8185856104f3565b60019150505b92915050565b600033610335858285610618565b6103408585856106aa565b506001949350505050565b3360008181526001602090815260408083206001600160a01b038716845290915281205490919061031b9082908690610385908790610ccc565b6104f3565b610392610878565b61039c82826108d2565b5050565b6103a8610878565b6103b260006109b1565b565b6103bc610878565b61039c8282610a10565b60606004805461028a90610c7c565b3360008181526001602090815260408083206001600160a01b03871684529091528120549091908381101561045f5760405162461bcd60e51b815260206004820152602560248201527f45524332303a2064656372656173656420616c6c6f77616e63652062656c6f77604482015264207a65726f60d81b60648201526084015b60405180910390fd5b61034082868684036104f3565b60003361031b8185856106aa565b610482610878565b6001600160a01b0381166104e75760405162461bcd60e51b815260206004820152602660248201527f4f776e61626c653a206e6577206f776e657220697320746865207a65726f206160448201526564647265737360d01b6064820152608401610456565b6104f0816109b1565b50565b6001600160a01b0383166105555760405162461bcd60e51b8152602060048201526024808201527f45524332303a20617070726f76652066726f6d20746865207a65726f206164646044820152637265737360e01b6064820152608401610456565b6001600160a01b0382166105b65760405162461bcd60e51b815260206004820152602260248201527f45524332303a20617070726f766520746f20746865207a65726f206164647265604482015261737360f01b6064820152608401610456565b6001600160a01b0383811660008181526001602090815260408083209487168084529482529182902085905590518481527f8c5be1e5ebec7d5bd14f71427d1e84f3dd0314c0f7b2291e5b200ac8c7c3b92591015b60405180910390a3505050565b6001600160a01b0383811660009081526001602090815260408083209386168352929052205460001981146106a457818110156106975760405162461bcd60e51b815260206004820152601d60248201527f45524332303a20696e73756666696369656e7420616c6c6f77616e63650000006044820152606401610456565b6106a484848484036104f3565b50505050565b6001600160a01b03831661070e5760405162461bcd60e51b815260206004820152602560248201527f45524332303a207472616e736665722066726f6d20746865207a65726f206164604482015264647265737360d81b6064820152608401610456565b6001600160a01b0382166107705760405162461bcd60e51b815260206004820152602360248201527f45524332303a207472616e7366657220746f20746865207a65726f206164647260448201526265737360e81b6064820152608401610456565b6001600160a01b038316600090815260208190526040902054818110156107e85760405162461bcd60e51b815260206004820152602660248201527f45524332303a207472616e7366657220616d6f756e7420657863656564732062604482015265616c616e636560d01b6064820152608401610456565b6001600160a01b0380851660009081526020819052604080822085850390559185168152908120805484929061081f908490610ccc565b92505081905550826001600160a01b0316846001600160a01b03167fddf252ad1be2c89b69c2b068fc378daa952ba7f163c4a11628f55a4df523b3ef8460405161086b91815260200190565b60405180910390a36106a4565b6005546001600160a01b031633146103b25760405162461bcd60e51b815260206004820181905260248201527f4f776e61626c653a2063616c6c6572206973206e6f7420746865206f776e65726044820152606401610456565b6001600160a01b0382166109285760405162461bcd60e51b815260206004820152601f60248201527f45524332303a206d696e7420746f20746865207a65726f2061646472657373006044820152606401610456565b806002600082825461093a9190610ccc565b90915550506001600160a01b03821660009081526020819052604081208054839290610967908490610ccc565b90915550506040518181526001600160a01b038316906000907fddf252ad1be2c89b69c2b068fc378daa952ba7f163c4a11628f55a4df523b3ef9060200160405180910390a35050565b600580546001600160a01b0383811673ffffffffffffffffffffffffffffffffffffffff19831681179093556040519116919082907f8be0079c531659141344cd1fd0a4f28419497f9722a3daafe3b4186f6b6457e090600090a35050565b6001600160a01b038216610a705760405162461bcd60e51b815260206004820152602160248201527f45524332303a206275726e2066726f6d20746865207a65726f206164647265736044820152607360f81b6064820152608401610456565b6001600160a01b03821660009081526020819052604090205481811015610ae45760405162461bcd60e51b815260206004820152602260248201527f45524332303a206275726e20616d6f756e7420657863656564732062616c616e604482015261636560f01b6064820152608401610456565b6001600160a01b0383166000908152602081905260408120838303905560028054849290610b13908490610cdf565b90915550506040518281526000906001600160a01b038516907fddf252ad1be2c89b69c2b068fc378daa952ba7f163c4a11628f55a4df523b3ef9060200161060b565b602081526000825180602084015260005b81811015610b845760208186018101516040868401015201610b67565b506000604082850101526040601f19601f83011684010191505092915050565b80356001600160a01b0381168114610bbb57600080fd5b919050565b60008060408385031215610bd357600080fd5b610bdc83610ba4565b946020939093013593505050565b600080600060608486031215610bff57600080fd5b610c0884610ba4565b9250610c1660208501610ba4565b929592945050506040919091013590565b600060208284031215610c3957600080fd5b610c4282610ba4565b9392505050565b60008060408385031215610c5c57600080fd5b610c6583610ba4565b9150610c7360208401610ba4565b90509250929050565b600181811c90821680610c9057607f821691505b602082108103610cb057634e487b7160e01b600052602260045260246000fd5b50919050565b634e487b7160e01b600052601160045260246000fd5b8082018082111561032157610321610cb6565b8181038181111561032157610321610cb656fea264697066735822122015a064eaef7449b65dbb1689d249c5b94c4d09bf029003e382a4f3ea3cff914164736f6c634300081a0033",
  "linkReferences": {},
  "deployedLinkReferences": {}
}