{
  "_format": "hh-sol-artifact-1",
  "contractName": "Units",
  "sourceName": "contracts/core/assets/tokens/units/Units.sol",
  "abi": [
    {
      "inputs": [],
      "stateMutability": "nonpayable",
      "type": "constructor"
    },
    {
      "inputs": [],
      "name": "Disabled",
      "type": "error"
    },
    {
      "inputs": [],
      "name": "OnlyActiveGame",
      "type": "error"
    },
    {
      "inputs": [],
      "name": "OnlyMightyCreator",
      "type": "error"
    },
    {
      "inputs": [],
      "name": "OnlyWorldAssetFromSameEra",
      "type": "error"
    },
    {
      "anonymous": false,
      "inputs": [
        {
          "indexed": true,
          "internalType": "address",
          "name": "owner",
          "type": "address"
        },
        {
          "indexed": true,
          "internalType": "address",
          "name": "spender",
          "type": "address"
        },
        {
          "indexed": false,
          "internalType": "uint256",
          "name": "value",
          "type": "uint256"
        }
      ],
      "name": "Approval",
      "type": "event"
    },
    {
      "anonymous": false,
      "inputs": [
        {
          "indexed": false,
          "internalType": "uint8",
          "name": "version",
          "type": "uint8"
        }
      ],
      "name": "Initialized",
      "type": "event"
    },
    {
      "anonymous": false,
      "inputs": [
        {
          "indexed": true,
          "internalType": "address",
          "name": "from",
          "type": "address"
        },
        {
          "indexed": true,
          "internalType": "address",
          "name": "to",
          "type": "address"
        },
        {
          "indexed": false,
          "internalType": "uint256",
          "name": "value",
          "type": "uint256"
        }
      ],
      "name": "Transfer",
      "type": "event"
    },
    {
      "inputs": [
        {
          "internalType": "address",
          "name": "owner",
          "type": "address"
        },
        {
          "internalType": "address",
          "name": "spender",
          "type": "address"
        }
      ],
      "name": "allowance",
      "outputs": [
        {
          "internalType": "uint256",
          "name": "",
          "type": "uint256"
        }
      ],
      "stateMutability": "view",
      "type": "function"
    },
    {
      "inputs": [
        {
          "internalType": "address",
          "name": "spender",
          "type": "address"
        },
        {
          "internalType": "uint256",
          "name": "amount",
          "type": "uint256"
        }
      ],
      "name": "approve",
      "outputs": [
        {
          "internalType": "bool",
          "name": "",
          "type": "bool"
        }
      ],
      "stateMutability": "nonpayable",
      "type": "function"
    },
    {
      "inputs": [],
      "name": "assetGroupId",
      "outputs": [
        {
          "internalType": "bytes32",
          "name": "",
          "type": "bytes32"
        }
      ],
      "stateMutability": "view",
      "type": "function"
    },
    {
      "inputs": [],
      "name": "assetTypeId",
      "outputs": [
        {
          "internalType": "bytes32",
          "name": "",
          "type": "bytes32"
        }
      ],
      "stateMutability": "view",
      "type": "function"
    },
    {
      "inputs": [
        {
          "internalType": "address",
          "name": "account",
          "type": "address"
        }
      ],
      "name": "balanceOf",
      "outputs": [
        {
          "internalType": "uint256",
          "name": "",
          "type": "uint256"
        }
      ],
      "stateMutability": "view",
      "type": "function"
    },
    {
      "inputs": [
        {
          "internalType": "uint256",
          "name": "amount",
          "type": "uint256"
        }
      ],
      "name": "burn",
      "outputs": [],
      "stateMutability": "nonpayable",
      "type": "function"
    },
    {
      "inputs": [
        {
          "internalType": "address",
          "name": "account",
          "type": "address"
        },
        {
          "internalType": "uint256",
          "name": "amount",
          "type": "uint256"
        }
      ],
      "name": "burnFrom",
      "outputs": [],
      "stateMutability": "nonpayable",
      "type": "function"
    },
    {
      "inputs": [],
      "name": "decimals",
      "outputs": [
        {
          "internalType": "uint8",
          "name": "",
          "type": "uint8"
        }
      ],
      "stateMutability": "view",
      "type": "function"
    },
    {
      "inputs": [
        {
          "internalType": "address",
          "name": "spender",
          "type": "address"
        },
        {
          "internalType": "uint256",
          "name": "subtractedValue",
          "type": "uint256"
        }
      ],
      "name": "decreaseAllowance",
      "outputs": [
        {
          "internalType": "bool",
          "name": "",
          "type": "bool"
        }
      ],
      "stateMutability": "nonpayable",
      "type": "function"
    },
    {
      "inputs": [],
      "name": "era",
      "outputs": [
        {
          "internalType": "contract IEra",
          "name": "",
          "type": "address"
        }
      ],
      "stateMutability": "view",
      "type": "function"
    },
    {
      "inputs": [],
      "name": "eraNumber",
      "outputs": [
        {
          "internalType": "uint256",
          "name": "",
          "type": "uint256"
        }
      ],
      "stateMutability": "view",
      "type": "function"
    },
    {
      "inputs": [
        {
          "internalType": "address",
          "name": "spender",
          "type": "address"
        },
        {
          "internalType": "uint256",
          "name": "addedValue",
          "type": "uint256"
        }
      ],
      "name": "increaseAllowance",
      "outputs": [
        {
          "internalType": "bool",
          "name": "",
          "type": "bool"
        }
      ],
      "stateMutability": "nonpayable",
      "type": "function"
    },
    {
      "inputs": [
        {
          "internalType": "bytes",
          "name": "initParams",
          "type": "bytes"
        }
      ],
      "name": "init",
      "outputs": [],
      "stateMutability": "nonpayable",
      "type": "function"
    },
    {
      "inputs": [
        {
          "internalType": "address",
          "name": "to",
          "type": "address"
        },
        {
          "internalType": "uint256",
          "name": "amount",
          "type": "uint256"
        }
      ],
      "name": "mint",
      "outputs": [],
      "stateMutability": "nonpayable",
      "type": "function"
    },
    {
      "inputs": [],
      "name": "name",
      "outputs": [
        {
          "internalType": "string",
          "name": "",
          "type": "string"
        }
      ],
      "stateMutability": "view",
      "type": "function"
    },
    {
      "inputs": [],
      "name": "registry",
      "outputs": [
        {
          "internalType": "contract IRegistry",
          "name": "",
          "type": "address"
        }
      ],
      "stateMutability": "view",
      "type": "function"
    },
    {
      "inputs": [],
      "name": "symbol",
      "outputs": [
        {
          "internalType": "string",
          "name": "",
          "type": "string"
        }
      ],
      "stateMutability": "view",
      "type": "function"
    },
    {
      "inputs": [],
      "name": "tokenName",
      "outputs": [
        {
          "internalType": "string",
          "name": "",
          "type": "string"
        }
      ],
      "stateMutability": "view",
      "type": "function"
    },
    {
      "inputs": [],
      "name": "tokenSymbol",
      "outputs": [
        {
          "internalType": "string",
          "name": "",
          "type": "string"
        }
      ],
      "stateMutability": "view",
      "type": "function"
    },
    {
      "inputs": [],
      "name": "totalSupply",
      "outputs": [
        {
          "internalType": "uint256",
          "name": "",
          "type": "uint256"
        }
      ],
      "stateMutability": "view",
      "type": "function"
    },
    {
      "inputs": [
        {
          "internalType": "address",
          "name": "to",
          "type": "address"
        },
        {
          "internalType": "uint256",
          "name": "amount",
          "type": "uint256"
        }
      ],
      "name": "transfer",
      "outputs": [
        {
          "internalType": "bool",
          "name": "success",
          "type": "bool"
        }
      ],
      "stateMutability": "nonpayable",
      "type": "function"
    },
    {
      "inputs": [
        {
          "internalType": "address",
          "name": "from",
          "type": "address"
        },
        {
          "internalType": "address",
          "name": "to",
          "type": "address"
        },
        {
          "internalType": "uint256",
          "name": "amount",
          "type": "uint256"
        }
      ],
      "name": "transferFrom",
      "outputs": [
        {
          "internalType": "bool",
          "name": "success",
          "type": "bool"
        }
      ],
      "stateMutability": "nonpayable",
      "type": "function"
    },
    {
      "inputs": [],
      "name": "unitTypeId",
      "outputs": [
        {
          "internalType": "bytes32",
          "name": "",
          "type": "bytes32"
        }
      ],
      "stateMutability": "view",
      "type": "function"
    },
    {
      "inputs": [],
      "name": "world",
      "outputs": [
        {
          "internalType": "contract IWorld",
          "name": "",
          "type": "address"
        }
      ],
      "stateMutability": "view",
      "type": "function"
    },
    {
      "inputs": [],
      "name": "worldAssetFactory",
      "outputs": [
        {
          "internalType": "contract IWorldAssetFactory",
          "name": "",
          "type": "address"
        }
      ],
      "stateMutability": "view",
      "type": "function"
    }
  ],
  "bytecode": "0x608060405234801561001057600080fd5b5060408051602080820183526000808352835191820190935291825290600361003983826100ed565b50600461004682826100ed565b5050506101ab565b634e487b7160e01b600052604160045260246000fd5b600181811c9082168061007857607f821691505b60208210810361009857634e487b7160e01b600052602260045260246000fd5b50919050565b601f8211156100e857806000526020600020601f840160051c810160208510156100c55750805b601f840160051c820191505b818110156100e557600081556001016100d1565b50505b505050565b81516001600160401b038111156101065761010661004e565b61011a816101148454610064565b8461009e565b6020601f82116001811461014e57600083156101365750848201515b600019600385901b1c1916600184901b1784556100e5565b600084815260208120601f198516915b8281101561017e578785015182556020948501946001909201910161015e565b508482101561019c5786840151600019600387901b60f8161c191681555b50505050600190811b01905550565b612289806101ba6000396000f3fe608060405234801561001057600080fd5b50600436106101a35760003560e01c80635920c543116100ee5780637d884c7411610097578063a457c2d711610071578063a457c2d71461035b578063a9059cbb1461036e578063dd62ed3e14610381578063ece56a1a146103ba57600080fd5b80637d884c741461031757806384ba89e31461032c57806395d89b411461035357600080fd5b806379cc6790116100c857806379cc6790146102f45780637b103999146103075780637b61c3201461030f57600080fd5b80635920c543146102ba5780636c02a931146102c357806370a08231146102cb57600080fd5b806330b67baa1161015057806340c10f191161012a57806340c10f191461027f57806342966c68146102945780634ddf47d4146102a757600080fd5b806330b67baa14610255578063313ce5671461025d578063395093511461026c57600080fd5b8063143e55e011610181578063143e55e01461021a57806318160ddd1461023a57806323b872dd1461024257600080fd5b806306fdde03146101a8578063095ea7b3146101c65780630b4e99c3146101e9575b600080fd5b6101b06103c2565b6040516101bd9190611c3a565b60405180910390f35b6101d96101d4366004611c82565b610428565b60405190151581526020016101bd565b7f6c85b93e587873fbe6712f3b438d42c2945689b262f7bd34b8ea4e3f832a89ea545b6040519081526020016101bd565b610222610442565b6040516001600160a01b0390911681526020016101bd565b60025461020c565b6101d9610250366004611cae565b6104d4565b610222610517565b604051601281526020016101bd565b6101d961027a366004611c82565b61054a565b61029261028d366004611c82565b610589565b005b6102926102a2366004611cef565b61059f565b6102926102b5366004611d77565b6105ab565b61020c60085481565b6101b0610707565b61020c6102d9366004611df7565b6001600160a01b031660009081526020819052604090205490565b610292610302366004611c82565b610795565b6102226107b7565b6101b06107fe565b6000805160206122348339815191525461020c565b7f6c85b93e587873fbe6712f3b438d42c2945689b262f7bd34b8ea4e3f832a89e95461020c565b6101b061080b565b6101d9610369366004611c82565b61081f565b6101d961037c366004611c82565b6108bc565b61020c61038f366004611e14565b6001600160a01b03918216600090815260016020908152604080832093909416825291909152205490565b6102226108d7565b606060066040516020016103d69190611e87565b6040516020818303038152906040526104036103fe6000805160206122348339815191525490565b61091e565b604051602001610414929190611f05565b604051602081830303815290604052905090565b600033610436818585610a3f565b60019150505b92915050565b600061044c610517565b6001600160a01b031663720a70bd6104706000805160206122348339815191525490565b6040518263ffffffff1660e01b815260040161048e91815260200190565b602060405180830381865afa1580156104ab573d6000803e3d6000fd5b505050506040513d601f19601f820116820180604052508101906104cf9190611f34565b905090565b60006104df33610b63565b156104f7576104ef848484610c2c565b506001610510565b604051633ac4266d60e11b815260040160405180910390fd5b9392505050565b60006104cf7f6c85b93e587873fbe6712f3b438d42c2945689b262f7bd34b8ea4e3f832a89e6546001600160a01b031690565b3360008181526001602090815260408083206001600160a01b03871684529091528120549091906104369082908690610584908790611f67565b610a3f565b610591610e11565b61059b8282610eeb565b5050565b6105a881610fde565b50565b600554610100900460ff16158080156105cb5750600554600160ff909116105b806105e55750303b1580156105e5575060055460ff166001145b61065c5760405162461bcd60e51b815260206004820152602e60248201527f496e697469616c697a61626c653a20636f6e747261637420697320616c72656160448201527f647920696e697469616c697a656400000000000000000000000000000000000060648201526084015b60405180910390fd5b6005805460ff19166001179055801561067f576005805461ff0019166101001790555b6000806000848060200190518101906106989190611fbf565b9194509250905060066106ab848261207b565b5060076106b8838261207b565b506008555050801561059b576005805461ff0019169055604051600181527f7f26b83ff96e1f2b6a682f133852f6798a09c465da95921460cefb38474024989060200160405180910390a15050565b6006805461071490611e4d565b80601f016020809104026020016040519081016040528092919081815260200182805461074090611e4d565b801561078d5780601f106107625761010080835404028352916020019161078d565b820191906000526020600020905b81548152906001019060200180831161077057829003601f168201915b505050505081565b61079e33610b63565b156107ad5761059b8282610fe4565b61059b828261114a565b60006107c1610517565b6001600160a01b0316637b1039996040518163ffffffff1660e01b8152600401602060405180830381865afa1580156104ab573d6000803e3d6000fd5b6007805461071490611e4d565b606060076040516020016103d69190611e87565b3360008181526001602090815260408083206001600160a01b0387168452909152812054909190838110156108a45760405162461bcd60e51b815260206004820152602560248201527f45524332303a2064656372656173656420616c6c6f77616e63652062656c6f77604482015264207a65726f60d81b6064820152608401610653565b6108b18286868403610a3f565b506001949350505050565b6000604051633ac4266d60e11b815260040160405180910390fd5b60006108e16107b7565b6001600160a01b031663ece56a1a6040518163ffffffff1660e01b8152600401602060405180830381865afa1580156104ab573d6000803e3d6000fd5b6060816000036109455750506040805180820190915260018152600360fc1b602082015290565b8160005b811561096f57806109598161213a565b91506109689050600a83612169565b9150610949565b60008167ffffffffffffffff81111561098a5761098a611d08565b6040519080825280601f01601f1916602001820160405280156109b4576020820181803683370190505b5090505b8415610a37576109c960018361217d565b91506109d6600a86612190565b6109e1906030611f67565b60f81b8183815181106109f6576109f66121a4565b60200101907effffffffffffffffffffffffffffffffffffffffffffffffffffffffffffff1916908160001a905350610a30600a86612169565b94506109b8565b949350505050565b6001600160a01b038316610aa15760405162461bcd60e51b8152602060048201526024808201527f45524332303a20617070726f76652066726f6d20746865207a65726f206164646044820152637265737360e01b6064820152608401610653565b6001600160a01b038216610b025760405162461bcd60e51b815260206004820152602260248201527f45524332303a20617070726f766520746f20746865207a65726f206164647265604482015261737360f01b6064820152608401610653565b6001600160a01b0383811660008181526001602090815260408083209487168084529482529182902085905590518481527f8c5be1e5ebec7d5bd14f71427d1e84f3dd0314c0f7b2291e5b200ac8c7c3b925910160405180910390a3505050565b6000610b6d610517565b6001600160a01b0316826001600160a01b0316148061043c57506000610b91610517565b6001600160a01b031663ebbe8034610bb56000805160206122348339815191525490565b6040516001600160e01b031960e084901b16815260048101919091526001600160a01b0386166024820152604401602060405180830381865afa158015610c00573d6000803e3d6000fd5b505050506040513d601f19601f82011682018060405250810190610c2491906121ba565b141592915050565b6001600160a01b038316610c905760405162461bcd60e51b815260206004820152602560248201527f45524332303a207472616e736665722066726f6d20746865207a65726f206164604482015264647265737360d81b6064820152608401610653565b6001600160a01b038216610cf25760405162461bcd60e51b815260206004820152602360248201527f45524332303a207472616e7366657220746f20746865207a65726f206164647260448201526265737360e81b6064820152608401610653565b610cfd83838361115f565b6001600160a01b03831660009081526020819052604090205481811015610d755760405162461bcd60e51b815260206004820152602660248201527f45524332303a207472616e7366657220616d6f756e7420657863656564732062604482015265616c616e636560d01b6064820152608401610653565b6001600160a01b03808516600090815260208190526040808220858503905591851681529081208054849290610dac908490611f67565b92505081905550826001600160a01b0316846001600160a01b03167fddf252ad1be2c89b69c2b068fc378daa952ba7f163c4a11628f55a4df523b3ef84604051610df891815260200190565b60405180910390a3610e0b84848461168d565b50505050565b610e19610517565b6001600160a01b0316336001600160a01b031614158015610ecb57506000610e3f610517565b6001600160a01b031663ebbe8034610e636000805160206122348339815191525490565b6040516001600160e01b031960e084901b1681526004810191909152336024820152604401602060405180830381865afa158015610ea5573d6000803e3d6000fd5b505050506040513d601f19601f82011682018060405250810190610ec991906121ba565b145b15610ee95760405163422656d160e01b815260040160405180910390fd5b565b6001600160a01b038216610f415760405162461bcd60e51b815260206004820152601f60248201527f45524332303a206d696e7420746f20746865207a65726f2061646472657373006044820152606401610653565b610f4d6000838361115f565b8060026000828254610f5f9190611f67565b90915550506001600160a01b03821660009081526020819052604081208054839290610f8c908490611f67565b90915550506040518181526001600160a01b038316906000907fddf252ad1be2c89b69c2b068fc378daa952ba7f163c4a11628f55a4df523b3ef9060200160405180910390a361059b6000838361168d565b6105a833825b6001600160a01b0382166110445760405162461bcd60e51b815260206004820152602160248201527f45524332303a206275726e2066726f6d20746865207a65726f206164647265736044820152607360f81b6064820152608401610653565b6110508260008361115f565b6001600160a01b038216600090815260208190526040902054818110156110c45760405162461bcd60e51b815260206004820152602260248201527f45524332303a206275726e20616d6f756e7420657863656564732062616c616e604482015261636560f01b6064820152608401610653565b6001600160a01b03831660009081526020819052604081208383039055600280548492906110f390849061217d565b90915550506040518281526000906001600160a01b038516907fddf252ad1be2c89b69c2b068fc378daa952ba7f163c4a11628f55a4df523b3ef9060200160405180910390a36111458360008461168d565b505050565b611155823383611ae2565b61059b8282610fe4565b6001600160a01b03831615801561124b575060408051808201909152600481526361726d7960e01b6020909101527f1dfa95949f0b18e5ee916f85d0296148ce2f94b82b74404d6a5d6e64ed9b8c5f6111b6610517565b6001600160a01b031663ebbe80346111da6000805160206122348339815191525490565b6040516001600160e01b031960e084901b16815260048101919091526001600160a01b0386166024820152604401602060405180830381865afa158015611225573d6000803e3d6000fd5b505050506040513d601f19601f8201168201806040525081019061124991906121ba565b145b15611384576000826001600160a01b031663c45f10006040518163ffffffff1660e01b8152600401602060405180830381865afa158015611290573d6000803e3d6000fd5b505050506040513d601f19601f820116820180604052508101906112b49190611f34565b90506112bf81611b6e565b1561138257806001600160a01b031663e6c15c996040518163ffffffff1660e01b8152600401602060405180830381865afa158015611302573d6000803e3d6000fd5b505050506040513d601f19601f820116820180604052508101906113269190611f34565b604051637706581760e01b81524260048201526001600160a01b039190911690637706581790602401600060405180830381600087803b15801561136957600080fd5b505af115801561137d573d6000803e3d6000fd5b505050505b505b6001600160a01b038216158015611470575060408051808201909152600481526361726d7960e01b6020909101527f1dfa95949f0b18e5ee916f85d0296148ce2f94b82b74404d6a5d6e64ed9b8c5f6113db610517565b6001600160a01b031663ebbe80346113ff6000805160206122348339815191525490565b6040516001600160e01b031960e084901b16815260048101919091526001600160a01b0387166024820152604401602060405180830381865afa15801561144a573d6000803e3d6000fd5b505050506040513d601f19601f8201168201806040525081019061146e91906121ba565b145b156111455760008390506000816001600160a01b031663c45f10006040518163ffffffff1660e01b8152600401602060405180830381865afa1580156114ba573d6000803e3d6000fd5b505050506040513d601f19601f820116820180604052508101906114de9190611f34565b90506114e981611b6e565b15611686576000826001600160a01b03166344e445456040518163ffffffff1660e01b8152600401602060405180830381865afa15801561152e573d6000803e3d6000fd5b505050506040513d601f19601f820116820180604052508101906115529190611f34565b90506000816001600160a01b031663383f9ac36040518163ffffffff1660e01b8152600401606060405180830381865afa158015611594573d6000803e3d6000fd5b505050506040513d601f19601f820116820180604052508101906115b891906121f0565b92505050826001600160a01b031663e6c15c996040518163ffffffff1660e01b8152600401602060405180830381865afa1580156115fa573d6000803e3d6000fd5b505050506040513d601f19601f8201168201806040525081019061161e9190611f34565b604051637706581760e01b815267ffffffffffffffff831660048201526001600160a01b039190911690637706581790602401600060405180830381600087803b15801561166b57600080fd5b505af115801561167f573d6000803e3d6000fd5b5050505050505b5050505050565b6001600160a01b038316158015611779575060408051808201909152600481526361726d7960e01b6020909101527f1dfa95949f0b18e5ee916f85d0296148ce2f94b82b74404d6a5d6e64ed9b8c5f6116e4610517565b6001600160a01b031663ebbe80346117086000805160206122348339815191525490565b6040516001600160e01b031960e084901b16815260048101919091526001600160a01b0386166024820152604401602060405180830381865afa158015611753573d6000803e3d6000fd5b505050506040513d601f19601f8201168201806040525081019061177791906121ba565b145b156118b6576000826001600160a01b031663c45f10006040518163ffffffff1660e01b8152600401602060405180830381865afa1580156117be573d6000803e3d6000fd5b505050506040513d601f19601f820116820180604052508101906117e29190611f34565b90506117ed81611b6e565b156118b457806001600160a01b031663e6c15c996040518163ffffffff1660e01b8152600401602060405180830381865afa158015611830573d6000803e3d6000fd5b505050506040513d601f19601f820116820180604052508101906118549190611f34565b6001600160a01b031663403e2e43836040518263ffffffff1660e01b815260040161188191815260200190565b600060405180830381600087803b15801561189b57600080fd5b505af11580156118af573d6000803e3d6000fd5b505050505b505b6001600160a01b0382161580156119a2575060408051808201909152600481526361726d7960e01b6020909101527f1dfa95949f0b18e5ee916f85d0296148ce2f94b82b74404d6a5d6e64ed9b8c5f61190d610517565b6001600160a01b031663ebbe80346119316000805160206122348339815191525490565b6040516001600160e01b031960e084901b16815260048101919091526001600160a01b0387166024820152604401602060405180830381865afa15801561197c573d6000803e3d6000fd5b505050506040513d601f19601f820116820180604052508101906119a091906121ba565b145b15611145576000836001600160a01b031663c45f10006040518163ffffffff1660e01b8152600401602060405180830381865afa1580156119e7573d6000803e3d6000fd5b505050506040513d601f19601f82011682018060405250810190611a0b9190611f34565b9050611a1681611b6e565b15610e0b57806001600160a01b031663e6c15c996040518163ffffffff1660e01b8152600401602060405180830381865afa158015611a59573d6000803e3d6000fd5b505050506040513d601f19601f82011682018060405250810190611a7d9190611f34565b6001600160a01b03166354082260836040518263ffffffff1660e01b8152600401611aaa91815260200190565b600060405180830381600087803b158015611ac457600080fd5b505af1158015611ad8573d6000803e3d6000fd5b5050505050505050565b6001600160a01b038381166000908152600160209081526040808320938616835292905220546000198114610e0b5781811015611b615760405162461bcd60e51b815260206004820152601d60248201527f45524332303a20696e73756666696369656e7420616c6c6f77616e63650000006044820152606401610653565b610e0b8484848403610a3f565b60006040518060400160405280600881526020017f43554c544953545300000000000000000000000000000000000000000000000081525080519060200120826001600160a01b0316630b4e99c36040518163ffffffff1660e01b8152600401602060405180830381865afa158015611beb573d6000803e3d6000fd5b505050506040513d601f19601f82011682018060405250810190611c0f91906121ba565b1492915050565b60005b83811015611c31578181015183820152602001611c19565b50506000910152565b6020815260008251806020840152611c59816040850160208701611c16565b601f01601f19169190910160400192915050565b6001600160a01b03811681146105a857600080fd5b60008060408385031215611c9557600080fd5b8235611ca081611c6d565b946020939093013593505050565b600080600060608486031215611cc357600080fd5b8335611cce81611c6d565b92506020840135611cde81611c6d565b929592945050506040919091013590565b600060208284031215611d0157600080fd5b5035919050565b634e487b7160e01b600052604160045260246000fd5b604051601f8201601f1916810167ffffffffffffffff81118282101715611d4757611d47611d08565b604052919050565b600067ffffffffffffffff821115611d6957611d69611d08565b50601f01601f191660200190565b600060208284031215611d8957600080fd5b813567ffffffffffffffff811115611da057600080fd5b8201601f81018413611db157600080fd5b8035611dc4611dbf82611d4f565b611d1e565b818152856020838501011115611dd957600080fd5b81602084016020830137600091810160200191909152949350505050565b600060208284031215611e0957600080fd5b813561051081611c6d565b60008060408385031215611e2757600080fd5b8235611e3281611c6d565b91506020830135611e4281611c6d565b809150509250929050565b600181811c90821680611e6157607f821691505b602082108103611e8157634e487b7160e01b600052602260045260246000fd5b50919050565b6000808354611e9581611e4d565b600182168015611eac5760018114611ec157611ef1565b60ff1983168652811515820286019350611ef1565b86600052602060002060005b83811015611ee957815488820152600190910190602001611ecd565b505081860193505b5050608160f61b8252506002019392505050565b60008351611f17818460208801611c16565b835190830190611f2b818360208801611c16565b01949350505050565b600060208284031215611f4657600080fd5b815161051081611c6d565b634e487b7160e01b600052601160045260246000fd5b8082018082111561043c5761043c611f51565b600082601f830112611f8b57600080fd5b8151611f99611dbf82611d4f565b818152846020838601011115611fae57600080fd5b610a37826020830160208701611c16565b600080600060608486031215611fd457600080fd5b835167ffffffffffffffff811115611feb57600080fd5b611ff786828701611f7a565b935050602084015167ffffffffffffffff81111561201457600080fd5b61202086828701611f7a565b604095909501519396949550929392505050565b601f82111561114557806000526020600020601f840160051c8101602085101561205b5750805b601f840160051c820191505b818110156116865760008155600101612067565b815167ffffffffffffffff81111561209557612095611d08565b6120a9816120a38454611e4d565b84612034565b6020601f8211600181146120dd57600083156120c55750848201515b600019600385901b1c1916600184901b178455611686565b600084815260208120601f198516915b8281101561210d57878501518255602094850194600190920191016120ed565b508482101561212b5786840151600019600387901b60f8161c191681555b50505050600190811b01905550565b60006001820161214c5761214c611f51565b5060010190565b634e487b7160e01b600052601260045260246000fd5b60008261217857612178612153565b500490565b8181038181111561043c5761043c611f51565b60008261219f5761219f612153565b500690565b634e487b7160e01b600052603260045260246000fd5b6000602082840312156121cc57600080fd5b5051919050565b805167ffffffffffffffff811681146121eb57600080fd5b919050565b60008060006060848603121561220557600080fd5b61220e846121d3565b925061221c602085016121d3565b915061222a604085016121d3565b9050925092509256fe6c85b93e587873fbe6712f3b438d42c2945689b262f7bd34b8ea4e3f832a89e7a264697066735822122061b4b5bf7feee5aa9e786ba32eb826b219190045e28c3a21da464d8df1ea99bc64736f6c634300081a0033",
  "linkReferences": {},
  "deployedLinkReferences": {}
}