{
  "_format": "hh-sol-artifact-1",
  "contractName": "Settlement",
  "sourceName": "contracts/core/assets/settlement/Settlement.sol",
  "abi": [
    {
      "inputs": [],
      "name": "GovernorCannotBeAddedIfSenderNotSettlementOwnerOrAnotherGovernor",
      "type": "error"
    },
    {
      "inputs": [],
      "name": "OnlyActiveGame",
      "type": "error"
    },
    {
      "inputs": [],
      "name": "OnlyMightyCreator",
      "type": "error"
    },
    {
      "inputs": [],
      "name": "OnlyRulerOrWorldAsset",
      "type": "error"
    },
    {
      "inputs": [],
      "name": "OnlySettlementOwner",
      "type": "error"
    },
    {
      "inputs": [],
      "name": "OnlyWorldAssetFromSameEra",
      "type": "error"
    },
    {
      "inputs": [],
      "name": "ReentrantCall",
      "type": "error"
    },
    {
      "inputs": [],
      "name": "SettlementCannotBeDestroyedIfItsAlreadyRebuilt",
      "type": "error"
    },
    {
      "inputs": [],
      "name": "SettlementCannotBeDestroyedIfItsNotRotten",
      "type": "error"
    },
    {
      "inputs": [],
      "name": "SettlementCannotDecreaseCorruptionIndexViaPaymentInInactiveEra",
      "type": "error"
    },
    {
      "inputs": [],
      "name": "SettlementCannotDecreaseCorruptionIndexViaPaymentWrongParamProvided",
      "type": "error"
    },
    {
      "inputs": [],
      "name": "SettlementCannotSendWorkersToBuildingOverMaximumAllowedCapacity",
      "type": "error"
    },
    {
      "inputs": [],
      "name": "SettlementCannotSendWorkersWithFractions",
      "type": "error"
    },
    {
      "anonymous": false,
      "inputs": [
        {
          "indexed": false,
          "internalType": "address",
          "name": "armyAddress",
          "type": "address"
        },
        {
          "indexed": false,
          "internalType": "uint64",
          "name": "position",
          "type": "uint64"
        }
      ],
      "name": "ArmyCreated",
      "type": "event"
    },
    {
      "anonymous": false,
      "inputs": [
        {
          "indexed": false,
          "internalType": "address",
          "name": "buildingAddress",
          "type": "address"
        },
        {
          "indexed": false,
          "internalType": "bytes32",
          "name": "buildingTypeId",
          "type": "bytes32"
        }
      ],
      "name": "BuildingCreated",
      "type": "event"
    },
    {
      "anonymous": false,
      "inputs": [],
      "name": "Destroyed",
      "type": "event"
    },
    {
      "anonymous": false,
      "inputs": [
        {
          "indexed": false,
          "internalType": "uint256",
          "name": "currentGovernorsGeneration",
          "type": "uint256"
        },
        {
          "indexed": false,
          "internalType": "address",
          "name": "governorAddress",
          "type": "address"
        },
        {
          "indexed": false,
          "internalType": "address",
          "name": "modifiedByAddress",
          "type": "address"
        },
        {
          "indexed": false,
          "internalType": "bool",
          "name": "newStatus",
          "type": "bool"
        }
      ],
      "name": "GovernorStatusChanged",
      "type": "event"
    },
    {
      "anonymous": false,
      "inputs": [
        {
          "indexed": false,
          "internalType": "uint256",
          "name": "newGovernorsGeneration",
          "type": "uint256"
        }
      ],
      "name": "GovernorsGenerationChanged",
      "type": "event"
    },
    {
      "anonymous": false,
      "inputs": [
        {
          "indexed": false,
          "internalType": "uint8",
          "name": "version",
          "type": "uint8"
        }
      ],
      "name": "Initialized",
      "type": "event"
    },
    {
      "anonymous": false,
      "inputs": [
        {
          "indexed": false,
          "internalType": "address",
          "name": "siegeAddress",
          "type": "address"
        }
      ],
      "name": "SiegeCreated",
      "type": "event"
    },
    {
      "inputs": [
        {
          "internalType": "address",
          "name": "governorAddress",
          "type": "address"
        }
      ],
      "name": "addGovernor",
      "outputs": [],
      "stateMutability": "nonpayable",
      "type": "function"
    },
    {
      "inputs": [],
      "name": "army",
      "outputs": [
        {
          "internalType": "contract IArmy",
          "name": "",
          "type": "address"
        }
      ],
      "stateMutability": "view",
      "type": "function"
    },
    {
      "inputs": [],
      "name": "assetGroupId",
      "outputs": [
        {
          "internalType": "bytes32",
          "name": "",
          "type": "bytes32"
        }
      ],
      "stateMutability": "view",
      "type": "function"
    },
    {
      "inputs": [],
      "name": "assetTypeId",
      "outputs": [
        {
          "internalType": "bytes32",
          "name": "",
          "type": "bytes32"
        }
      ],
      "stateMutability": "view",
      "type": "function"
    },
    {
      "inputs": [
        {
          "internalType": "address",
          "name": "resourcesOwner",
          "type": "address"
        },
        {
          "internalType": "address",
          "name": "buildingAddress",
          "type": "address"
        },
        {
          "internalType": "uint256",
          "name": "workersAmount",
          "type": "uint256"
        },
        {
          "internalType": "bytes32[]",
          "name": "resourceTypeIds",
          "type": "bytes32[]"
        },
        {
          "internalType": "uint256[]",
          "name": "resourcesAmounts",
          "type": "uint256[]"
        }
      ],
      "name": "assignResourcesAndWorkersToBuilding",
      "outputs": [],
      "stateMutability": "nonpayable",
      "type": "function"
    },
    {
      "inputs": [],
      "name": "bannerId",
      "outputs": [
        {
          "internalType": "uint256",
          "name": "",
          "type": "uint256"
        }
      ],
      "stateMutability": "view",
      "type": "function"
    },
    {
      "inputs": [
        {
          "internalType": "uint64",
          "name": "position",
          "type": "uint64"
        },
        {
          "internalType": "uint256",
          "name": "prosperityStake",
          "type": "uint256"
        }
      ],
      "name": "beginTileCapture",
      "outputs": [],
      "stateMutability": "nonpayable",
      "type": "function"
    },
    {
      "inputs": [
        {
          "internalType": "bytes32",
          "name": "",
          "type": "bytes32"
        }
      ],
      "name": "buildings",
      "outputs": [
        {
          "internalType": "contract IBuilding",
          "name": "",
          "type": "address"
        }
      ],
      "stateMutability": "view",
      "type": "function"
    },
    {
      "inputs": [
        {
          "internalType": "uint64",
          "name": "position",
          "type": "uint64"
        }
      ],
      "name": "cancelTileCapture",
      "outputs": [],
      "stateMutability": "nonpayable",
      "type": "function"
    },
    {
      "inputs": [
        {
          "internalType": "uint64",
          "name": "position",
          "type": "uint64"
        }
      ],
      "name": "claimCapturedTile",
      "outputs": [],
      "stateMutability": "nonpayable",
      "type": "function"
    },
    {
      "inputs": [],
      "name": "currentGovernorsGeneration",
      "outputs": [
        {
          "internalType": "uint256",
          "name": "",
          "type": "uint256"
        }
      ],
      "stateMutability": "view",
      "type": "function"
    },
    {
      "inputs": [
        {
          "internalType": "uint256",
          "name": "amount",
          "type": "uint256"
        }
      ],
      "name": "decreaseProducedCorruptionIndex",
      "outputs": [],
      "stateMutability": "nonpayable",
      "type": "function"
    },
    {
      "inputs": [],
      "name": "destroyRottenSettlement",
      "outputs": [],
      "stateMutability": "nonpayable",
      "type": "function"
    },
    {
      "inputs": [],
      "name": "era",
      "outputs": [
        {
          "internalType": "contract IEra",
          "name": "",
          "type": "address"
        }
      ],
      "stateMutability": "view",
      "type": "function"
    },
    {
      "inputs": [],
      "name": "eraNumber",
      "outputs": [
        {
          "internalType": "uint256",
          "name": "",
          "type": "uint256"
        }
      ],
      "stateMutability": "view",
      "type": "function"
    },
    {
      "inputs": [
        {
          "internalType": "uint256",
          "name": "prosperityAmount",
          "type": "uint256"
        }
      ],
      "name": "extendProsperity",
      "outputs": [],
      "stateMutability": "nonpayable",
      "type": "function"
    },
    {
      "inputs": [],
      "name": "extendedProsperityAmount",
      "outputs": [
        {
          "internalType": "uint256",
          "name": "",
          "type": "uint256"
        }
      ],
      "stateMutability": "view",
      "type": "function"
    },
    {
      "inputs": [],
      "name": "getSettlementOwner",
      "outputs": [
        {
          "internalType": "address",
          "name": "",
          "type": "address"
        }
      ],
      "stateMutability": "view",
      "type": "function"
    },
    {
      "inputs": [
        {
          "internalType": "uint64",
          "name": "position",
          "type": "uint64"
        }
      ],
      "name": "giveUpCapturedTile",
      "outputs": [],
      "stateMutability": "nonpayable",
      "type": "function"
    },
    {
      "inputs": [
        {
          "internalType": "uint256",
          "name": "",
          "type": "uint256"
        },
        {
          "internalType": "address",
          "name": "",
          "type": "address"
        }
      ],
      "name": "governors",
      "outputs": [
        {
          "internalType": "bool",
          "name": "",
          "type": "bool"
        }
      ],
      "stateMutability": "view",
      "type": "function"
    },
    {
      "inputs": [
        {
          "internalType": "uint256",
          "name": "amount",
          "type": "uint256"
        }
      ],
      "name": "increaseProducedCorruptionIndex",
      "outputs": [],
      "stateMutability": "nonpayable",
      "type": "function"
    },
    {
      "inputs": [
        {
          "internalType": "bytes",
          "name": "initParams",
          "type": "bytes"
        }
      ],
      "name": "init",
      "outputs": [],
      "stateMutability": "nonpayable",
      "type": "function"
    },
    {
      "inputs": [],
      "name": "isRottenSettlement",
      "outputs": [
        {
          "internalType": "bool",
          "name": "",
          "type": "bool"
        }
      ],
      "stateMutability": "view",
      "type": "function"
    },
    {
      "inputs": [
        {
          "internalType": "address",
          "name": "potentialRuler",
          "type": "address"
        }
      ],
      "name": "isRuler",
      "outputs": [
        {
          "internalType": "bool",
          "name": "",
          "type": "bool"
        }
      ],
      "stateMutability": "view",
      "type": "function"
    },
    {
      "inputs": [
        {
          "internalType": "uint256",
          "name": "tokensAmount",
          "type": "uint256"
        }
      ],
      "name": "payToDecreaseCorruptionIndex",
      "outputs": [],
      "stateMutability": "payable",
      "type": "function"
    },
    {
      "inputs": [],
      "name": "position",
      "outputs": [
        {
          "internalType": "uint64",
          "name": "",
          "type": "uint64"
        }
      ],
      "stateMutability": "view",
      "type": "function"
    },
    {
      "inputs": [],
      "name": "producedCorruptionIndex",
      "outputs": [
        {
          "internalType": "int256",
          "name": "",
          "type": "int256"
        }
      ],
      "stateMutability": "view",
      "type": "function"
    },
    {
      "inputs": [],
      "name": "registry",
      "outputs": [
        {
          "internalType": "contract IRegistry",
          "name": "",
          "type": "address"
        }
      ],
      "stateMutability": "view",
      "type": "function"
    },
    {
      "inputs": [],
      "name": "relatedRegion",
      "outputs": [
        {
          "internalType": "contract IRegion",
          "name": "",
          "type": "address"
        }
      ],
      "stateMutability": "view",
      "type": "function"
    },
    {
      "inputs": [
        {
          "internalType": "address",
          "name": "governorAddress",
          "type": "address"
        }
      ],
      "name": "removeGovernor",
      "outputs": [],
      "stateMutability": "nonpayable",
      "type": "function"
    },
    {
      "inputs": [],
      "name": "removeGovernors",
      "outputs": [],
      "stateMutability": "nonpayable",
      "type": "function"
    },
    {
      "inputs": [],
      "name": "siege",
      "outputs": [
        {
          "internalType": "contract ISiege",
          "name": "",
          "type": "address"
        }
      ],
      "stateMutability": "view",
      "type": "function"
    },
    {
      "inputs": [
        {
          "internalType": "uint256",
          "name": "workersToBuy",
          "type": "uint256"
        },
        {
          "internalType": "uint256",
          "name": "maxProsperityToSell",
          "type": "uint256"
        }
      ],
      "name": "swapProsperityForExactWorkers",
      "outputs": [],
      "stateMutability": "nonpayable",
      "type": "function"
    },
    {
      "inputs": [],
      "name": "updateFortHealth",
      "outputs": [],
      "stateMutability": "nonpayable",
      "type": "function"
    },
    {
      "inputs": [],
      "name": "updateProsperityAmount",
      "outputs": [],
      "stateMutability": "nonpayable",
      "type": "function"
    },
    {
      "inputs": [
        {
          "internalType": "bytes32",
          "name": "resourceTypeId",
          "type": "bytes32"
        },
        {
          "internalType": "address",
          "name": "to",
          "type": "address"
        },
        {
          "internalType": "uint256",
          "name": "amount",
          "type": "uint256"
        }
      ],
      "name": "withdrawResources",
      "outputs": [],
      "stateMutability": "nonpayable",
      "type": "function"
    },
    {
      "inputs": [],
      "name": "world",
      "outputs": [
        {
          "internalType": "contract IWorld",
          "name": "",
          "type": "address"
        }
      ],
      "stateMutability": "view",
      "type": "function"
    },
    {
      "inputs": [],
      "name": "worldAssetFactory",
      "outputs": [
        {
          "internalType": "contract IWorldAssetFactory",
          "name": "",
          "type": "address"
        }
      ],
      "stateMutability": "view",
      "type": "function"
    }
  ],
  "bytecode": "0x6080604052348015600f57600080fd5b5061365b8061001f6000396000f3fe6080604052600436106102855760003560e01c806384ba89e311610153578063c023c095116100cb578063d9bbf2a81161007f578063ece56a1a11610064578063ece56a1a14610707578063eecdac881461071c578063f10e38af1461073c57600080fd5b8063d9bbf2a8146106c0578063e6c15c99146106e057600080fd5b8063c68cf906116100b0578063c68cf9061461066a578063ca8250431461068a578063d63a68ec146106aa57600080fd5b8063c023c0951461062a578063c433a1601461064a57600080fd5b8063aef281d311610122578063b942d2c111610107578063b942d2c1146105ba578063bc2a493a146105f5578063bea42f9c1461061557600080fd5b8063aef281d314610590578063b5acd456146105a557600080fd5b806384ba89e31461051e578063977a2d1314610552578063996bebda146105675780639dd26bd21461057a57600080fd5b80633c4a25d0116102015780636e5cf15c116101b55780637d884c741161019a5780637d884c74146104d05780637e6fc4f0146104f25780637fd4d5e51461050857600080fd5b80636e5cf15c146104855780637b103999146104bb57600080fd5b806341b989d9116101e657806341b989d9146104305780634ddf47d41461045057806352fa2c8e1461047057600080fd5b80633c4a25d0146103f05780633fa95a4a1461041057600080fd5b806316e8d7ff116102585780632de7e9b01161023d5780632de7e9b0146103a657806330b67baa146103c65780633133f7d9146103db57600080fd5b806316e8d7ff146103565780631b0b969d1461037657600080fd5b806309218e911461028a5780630b4e99c3146102c957806310592e2414610307578063143e55e014610329575b600080fd5b34801561029657600080fd5b506008546102ab9067ffffffffffffffff1681565b60405167ffffffffffffffff90911681526020015b60405180910390f35b3480156102d557600080fd5b507f6c85b93e587873fbe6712f3b438d42c2945689b262f7bd34b8ea4e3f832a89ea545b6040519081526020016102c0565b34801561031357600080fd5b5061032761032236600461301f565b61075c565b005b34801561033557600080fd5b5061033e61077e565b6040516001600160a01b0390911681526020016102c0565b34801561036257600080fd5b50610327610371366004613038565b610810565b34801561038257600080fd5b50610396610391366004613072565b610918565b60405190151581526020016102c0565b3480156103b257600080fd5b5060025461033e906001600160a01b031681565b3480156103d257600080fd5b5061033e61096c565b3480156103e757600080fd5b5061032761099f565b3480156103fc57600080fd5b5061032761040b366004613072565b610a01565b34801561041c57600080fd5b5061032761042b36600461301f565b610af2565b34801561043c57600080fd5b5061032761044b36600461308f565b610bd7565b34801561045c57600080fd5b5061032761046b36600461310e565b610cca565b34801561047c57600080fd5b50610327610e87565b34801561049157600080fd5b5061033e6104a036600461301f565b6003602052600090815260409020546001600160a01b031681565b3480156104c757600080fd5b5061033e6112d7565b3480156104dc57600080fd5b50600080516020613606833981519152546102f9565b3480156104fe57600080fd5b506102f960045481565b34801561051457600080fd5b506102f960095481565b34801561052a57600080fd5b507f6c85b93e587873fbe6712f3b438d42c2945689b262f7bd34b8ea4e3f832a89e9546102f9565b34801561055e57600080fd5b5061039661131e565b61032761057536600461301f565b6113ca565b34801561058657600080fd5b506102f960075481565b34801561059c57600080fd5b506103276116d8565b3480156105b157600080fd5b5061033e611791565b3480156105c657600080fd5b506103966105d53660046131a8565b600560209081526000928352604080842090915290825290205460ff1681565b34801561060157600080fd5b50610327610610366004613269565b61182b565b34801561062157600080fd5b50610327611af2565b34801561063657600080fd5b50610327610645366004613370565b611ba8565b34801561065657600080fd5b50610327610665366004613370565b611c90565b34801561067657600080fd5b5061032761068536600461338d565b611d47565b34801561069657600080fd5b506103276106a536600461301f565b611e2e565b3480156106b657600080fd5b506102f960015481565b3480156106cc57600080fd5b506103276106db366004613370565b611e48565b3480156106ec57600080fd5b5060005461033e90630100000090046001600160a01b031681565b34801561071357600080fd5b5061033e611eff565b34801561072857600080fd5b50610327610737366004613072565b611f46565b34801561074857600080fd5b5060065461033e906001600160a01b031681565b610764611fcb565b806009600082825461077691906133cf565b909155505050565b600061078861096c565b6001600160a01b031663720a70bd6107ac6000805160206136068339815191525490565b6040518263ffffffff1660e01b81526004016107ca91815260200190565b602060405180830381865afa1580156107e7573d6000803e3d6000fd5b505050506040513d601f19601f8201168201806040525081019061080b91906133f6565b905090565b6108186120a5565b6108206121d6565b60008060039054906101000a90046001600160a01b03166001600160a01b0316638ee6bc116040518163ffffffff1660e01b8152600401602060405180830381865afa158015610874573d6000803e3d6000fd5b505050506040513d601f19601f8201168201806040525081019061089891906133f6565b604051632230df1360e11b815230600482015260248101859052604481018490526001600160a01b039190911690634461be26906064016020604051808303816000875af11580156108ee573d6000803e3d6000fd5b505050506040513d601f19601f820116820180604052508101906109129190613413565b50505050565b6000816001600160a01b031661092c611791565b6001600160a01b03161480610966575060045460009081526005602090815260408083206001600160a01b038616845290915290205460ff165b92915050565b600061080b7f6c85b93e587873fbe6712f3b438d42c2945689b262f7bd34b8ea4e3f832a89e6546001600160a01b031690565b6109a76120a5565b6109af61229b565b600480549060006109bf8361342c565b91905055507fad79f2b70ff9c58b0a408be18f8ceec31bd694cacffb2fc1905edd927e0d36566004546040516109f791815260200190565b60405180910390a1565b610a096120a5565b610a11611791565b6001600160a01b0316336001600160a01b031614158015610a4f5750600454600090815260056020908152604080832033845290915290205460ff16155b15610a6c5760405162de7aeb60e61b815260040160405180910390fd5b6004805460009081526005602090815260408083206001600160a01b03861680855290835292819020805460ff191660019081179091559354815190815291820192909252339181019190915260608101919091527f85b8b06e4b2b23e6bdbc246ca0774d4809e0d78b74465956a0eb49676d1a26d0906080015b60405180910390a150565b610afa611fcb565b610b0261077e565b6001600160a01b031663c91b95666040518163ffffffff1660e01b8152600401602060405180830381865afa158015610b3f573d6000803e3d6000fd5b505050506040513d601f19601f82011682018060405250810190610b6391906133f6565b6040516340c10f1960e01b8152306004820152602481018390526001600160a01b0391909116906340c10f1990604401600060405180830381600087803b158015610bad57600080fd5b505af1158015610bc1573d6000803e3d6000fd5b5050505080600760008282546107769190613445565b610bdf6121d6565b610be761077e565b6001600160a01b031663912929df846040518263ffffffff1660e01b8152600401610c1491815260200190565b602060405180830381865afa158015610c31573d6000803e3d6000fd5b505050506040513d601f19601f82011682018060405250810190610c5591906133f6565b60405163a9059cbb60e01b81526001600160a01b03848116600483015260248201849052919091169063a9059cbb906044016020604051808303816000875af1158015610ca6573d6000803e3d6000fd5b505050506040513d601f19601f820116820180604052508101906109129190613458565b600054610100900460ff1615808015610cea5750600054600160ff909116105b80610d045750303b158015610d04575060005460ff166001145b610d7b5760405162461bcd60e51b815260206004820152602e60248201527f496e697469616c697a61626c653a20636f6e747261637420697320616c72656160448201527f647920696e697469616c697a656400000000000000000000000000000000000060648201526084015b60405180910390fd5b6000805460ff191660011790558015610d9e576000805461ff0019166101001790555b600080600084806020019051810190610db7919061347a565b600080547fffffffffffffffffff0000000000000000000000000000000000000000ffffff1663010000006001600160a01b0385160217905560018390556008805467ffffffffffffffff191667ffffffffffffffff831617905591945092509050610e216122d4565b610e29612316565b610e316124a9565b610e3961262a565b5050508015610e83576000805461ff0019169055604051600181527f7f26b83ff96e1f2b6a682f133852f6798a09c465da95921460cefb3847402498906020015b60405180910390a15b5050565b610e8f6120a5565b610e9761131e565b610eb457604051638d20f60160e01b815260040160405180910390fd5b6000610ebe61096c565b6001600160a01b031663a8d66c756040518163ffffffff1660e01b8152600401602060405180830381865afa158015610efb573d6000803e3d6000fd5b505050506040513d601f19601f82011682018060405250810190610f1f91906133f6565b60085460405163c4c31e8560e01b815267ffffffffffffffff909116600482015290915030906001600160a01b0383169063c4c31e8590602401602060405180830381865afa158015610f76573d6000803e3d6000fd5b505050506040513d601f19601f82011682018060405250810190610f9a91906133f6565b6001600160a01b031614610fc157604051630de8415d60e41b815260040160405180910390fd5b6000610fcb61096c565b6001600160a01b031663720a70bd610fe161096c565b6001600160a01b031663704f63a16040518163ffffffff1660e01b8152600401602060405180830381865afa15801561101e573d6000803e3d6000fd5b505050506040513d601f19601f820116820180604052508101906110429190613413565b6040518263ffffffff1660e01b815260040161106091815260200190565b602060405180830381865afa15801561107d573d6000803e3d6000fd5b505050506040513d601f19601f820116820180604052508101906110a191906133f6565b90506000816001600160a01b031663c5375e99600060039054906101000a90046001600160a01b03166001600160a01b031663b2fd89336040518163ffffffff1660e01b8152600401602060405180830381865afa158015611107573d6000803e3d6000fd5b505050506040513d601f19601f8201168201806040525081019061112b91906134be565b6040516001600160e01b031960e084901b16815267ffffffffffffffff9091166004820152602401602060405180830381865afa158015611170573d6000803e3d6000fd5b505050506040513d601f19601f8201168201806040525081019061119491906133f6565b90506000816001600160a01b031663ffd7a09f6040518163ffffffff1660e01b8152600401602060405180830381865afa1580156111d6573d6000803e3d6000fd5b505050506040513d601f19601f820116820180604052508101906111fa91906133f6565b9050806001600160a01b0316631d8557d76040518163ffffffff1660e01b8152600401600060405180830381600087803b15801561123757600080fd5b505af115801561124b573d6000803e3d6000fd5b505060405163038c079960e61b81523060048201526001600160a01b038716925063e301e6409150602401600060405180830381600087803b15801561129057600080fd5b505af11580156112a4573d6000803e3d6000fd5b50506040517fcc0e82c1b8fa4695d6ae60217024b293814bde0f381a23cafaa0a1e25973c14b925060009150a150505050565b60006112e161096c565b6001600160a01b0316637b1039996040518163ffffffff1660e01b8152600401602060405180830381865afa1580156107e7573d6000803e3d6000fd5b60008061132961096c565b6001600160a01b031663704f63a16040518163ffffffff1660e01b8152600401602060405180830381865afa158015611366573d6000803e3d6000fd5b505050506040513d601f19601f8201168201806040525081019061138a9190613413565b9050806113a36000805160206136068339815191525490565b106113b057600091505090565b6000600954136113c257600091505090565b600191505090565b6113d26120a5565b60005462010000900460ff161515600103611400576040516306fda65d60e31b815260040160405180910390fd5b6000805462ff000019166201000017905561141961096c565b6001600160a01b031663704f63a16040518163ffffffff1660e01b8152600401602060405180830381865afa158015611456573d6000803e3d6000fd5b505050506040513d601f19601f8201168201806040525081019061147a9190613413565b60008051602061360683398151915254146114a85760405163d7357e0360e01b815260040160405180910390fd5b60006114b261096c565b6001600160a01b031663c1897e346040518163ffffffff1660e01b8152600401602060405180830381865afa1580156114ef573d6000803e3d6000fd5b505050506040513d601f19601f8201168201806040525081019061151391906133f6565b90506001600160a01b0381161580801561152c57508215155b1561154a57604051636effeacf60e01b815260040160405180910390fd5b6000816115575783611559565b345b905081156115d8576115d361156c61096c565b6001600160a01b03166366666aa96040518163ffffffff1660e01b8152600401602060405180830381865afa1580156115a9573d6000803e3d6000fd5b505050506040513d601f19601f820116820180604052508101906115cd91906133f6565b826126e4565b61164c565b61164c83336115e561096c565b6001600160a01b03166366666aa96040518163ffffffff1660e01b8152600401602060405180830381865afa158015611622573d6000803e3d6000fd5b505050506040513d601f19601f8201168201806040525081019061164691906133f6565b84612802565b60006116598260106134db565b600054604051635053c29960e01b815230600482015260248101839052919250630100000090046001600160a01b031690635053c29990604401600060405180830381600087803b1580156116ad57600080fd5b505af11580156116c1573d6000803e3d6000fd5b50506000805462ff00001916905550505050505050565b6040805180820182526004808252631193d49560e21b6020928301527f2911d5ca388af24ed7f391a4eb24469bc0fd8935cd73bb1075ca7e702a42eb19600090815260039092527f647f49359f3a148b6d61ffd122d774bb8822cc42f7dd0b48eb3d3753068a2726548351631d8557d760e01b815293516001600160a01b0390911693631d8557d7938184019390929182900301818387803b15801561177d57600080fd5b505af1158015610912573d6000803e3d6000fd5b600061179b61096c565b6001600160a01b031663183100fa6040518163ffffffff1660e01b8152600401602060405180830381865afa1580156117d8573d6000803e3d6000fd5b505050506040513d601f19601f820116820180604052508101906117fc91906133f6565b6001600160a01b0316636352211e6001546040518263ffffffff1660e01b81526004016107ca91815260200190565b6118336120a5565b61183b6121d6565b821561184b5761184b8484612871565b60005b8251811015611aea57600061186161077e565b6001600160a01b031663912929df858481518110611881576118816134f2565b60200260200101516040518263ffffffff1660e01b81526004016118a791815260200190565b602060405180830381865afa1580156118c4573d6000803e3d6000fd5b505050506040513d601f19601f820116820180604052508101906118e891906133f6565b90506001600160a01b0387166119a457806001600160a01b03166323b872dd338886868151811061191b5761191b6134f2565b60209081029190910101516040516001600160e01b031960e086901b1681526001600160a01b03938416600482015292909116602483015260448201526064016020604051808303816000875af115801561197a573d6000803e3d6000fd5b505050506040513d601f19601f8201168201806040525081019061199e9190613458565b50611ae1565b806001600160a01b031663dd8aaa4f88338686815181106119c7576119c76134f2565b60209081029190910101516040516001600160e01b031960e086901b1681526001600160a01b0393841660048201529290911660248301526044820152606401600060405180830381600087803b158015611a2157600080fd5b505af1158015611a35573d6000803e3d6000fd5b50505050806001600160a01b03166323b872dd8888868681518110611a5c57611a5c6134f2565b60209081029190910101516040516001600160e01b031960e086901b1681526001600160a01b03938416600482015292909116602483015260448201526064016020604051808303816000875af1158015611abb573d6000803e3d6000fd5b505050506040513d601f19601f82011682018060405250810190611adf9190613458565b505b5060010161184e565b505050505050565b6000611afc612a76565b905060005b8151811015610e835760036000838381518110611b2057611b206134f2565b6020026020010151815260200190815260200160002060009054906101000a90046001600160a01b03166001600160a01b0316631d8557d76040518163ffffffff1660e01b8152600401600060405180830381600087803b158015611b8457600080fd5b505af1158015611b98573d6000803e3d6000fd5b505060019092019150611b019050565b611bb06120a5565b611bb86121d6565b611bc061077e565b6001600160a01b0316632c4613dc6040518163ffffffff1660e01b8152600401602060405180830381865afa158015611bfd573d6000803e3d6000fd5b505050506040513d601f19601f82011682018060405250810190611c2191906133f6565b604051631e4eb6f160e21b815230600482015267ffffffffffffffff831660248201526001600160a01b03919091169063793adbc4906044015b600060405180830381600087803b158015611c7557600080fd5b505af1158015611c89573d6000803e3d6000fd5b5050505050565b611c986120a5565b611ca06121d6565b611ca861077e565b6001600160a01b0316632c4613dc6040518163ffffffff1660e01b8152600401602060405180830381865afa158015611ce5573d6000803e3d6000fd5b505050506040513d601f19601f82011682018060405250810190611d0991906133f6565b6040516306b1512360e11b815230600482015267ffffffffffffffff831660248201526001600160a01b039190911690630d62a24690604401611c5b565b611d4f6120a5565b611d576121d6565b611d5f61077e565b6001600160a01b0316632c4613dc6040518163ffffffff1660e01b8152600401602060405180830381865afa158015611d9c573d6000803e3d6000fd5b505050506040513d601f19601f82011682018060405250810190611dc091906133f6565b604051633c87d24f60e21b815230600482015267ffffffffffffffff84166024820152604481018390526001600160a01b03919091169063f21f493c90606401600060405180830381600087803b158015611e1a57600080fd5b505af1158015611aea573d6000803e3d6000fd5b611e36611fcb565b80600960008282546107769190613508565b611e506120a5565b611e586121d6565b611e6061077e565b6001600160a01b0316632c4613dc6040518163ffffffff1660e01b8152600401602060405180830381865afa158015611e9d573d6000803e3d6000fd5b505050506040513d601f19601f82011682018060405250810190611ec191906133f6565b60405163db06797b60e01b815230600482015267ffffffffffffffff831660248201526001600160a01b03919091169063db06797b90604401611c5b565b6000611f096112d7565b6001600160a01b031663ece56a1a6040518163ffffffff1660e01b8152600401602060405180830381865afa1580156107e7573d6000803e3d6000fd5b611f4e6120a5565b611f5661229b565b6004805460009081526005602090815260408083206001600160a01b038616808552908352818420805460ff191690559354815190815291820193909352339281019290925260608201527f85b8b06e4b2b23e6bdbc246ca0774d4809e0d78b74465956a0eb49676d1a26d090608001610ae7565b611fd361096c565b6001600160a01b0316336001600160a01b03161415801561208557506000611ff961096c565b6001600160a01b031663ebbe803461201d6000805160206136068339815191525490565b6040516001600160e01b031960e084901b1681526004810191909152336024820152604401602060405180830381865afa15801561205f573d6000803e3d6000fd5b505050506040513d601f19601f820116820180604052508101906120839190613413565b145b156120a35760405163422656d160e01b815260040160405180910390fd5b565b60006120af61096c565b6001600160a01b0316633c8ca83d6040518163ffffffff1660e01b8152600401602060405180830381865afa1580156120ec573d6000803e3d6000fd5b505050506040513d601f19601f820116820180604052508101906121109190613413565b9050600061211c61096c565b6001600160a01b03166344d9bc5f6040518163ffffffff1660e01b8152600401602060405180830381865afa158015612159573d6000803e3d6000fd5b505050506040513d601f19601f8201168201806040525081019061217d9190613413565b905081158061218b57508142105b156121a95760405163a00eda6960e01b815260040160405180910390fd5b80158015906121b85750804210155b15610e835760405163a00eda6960e01b815260040160405180910390fd5b6121df33610918565b15801561227d575060006121f161096c565b6001600160a01b031663ebbe80346122156000805160206136068339815191525490565b6040516001600160e01b031960e084901b1681526004810191909152336024820152604401602060405180830381865afa158015612257573d6000803e3d6000fd5b505050506040513d601f19601f8201168201806040525081019061227b9190613413565b145b156120a357604051636b6ee4e160e11b815260040160405180910390fd5b6122a3611791565b6001600160a01b0316336001600160a01b0316146120a357604051639807ee1760e01b815260040160405180910390fd5b60006122de612a76565b905060005b8151811015610e835761230e828281518110612301576123016134f2565b6020026020010151612c25565b6001016122e3565b6000612320611eff565b6001600160a01b031663c19755fd61233661096c565b60008051602061360683398151915254604080518082018252600481526361726d7960e01b602091820152815180830183526005815264424153494360d81b908201528151308183015282518082039092018252808301928390526001600160e01b031960e087901b169092526123f59392917f1dfa95949f0b18e5ee916f85d0296148ce2f94b82b74404d6a5d6e64ed9b8c5f917fdc0ae866100b2876ab26eb62a50ca2cd083944f439e6d78aab2fc402e669e9ee91604401613580565b6020604051808303816000875af1158015612414573d6000803e3d6000fd5b505050506040513d601f19601f8201168201806040525081019061243891906133f6565b6006805473ffffffffffffffffffffffffffffffffffffffff19166001600160a01b0383169081179091556008546040805192835267ffffffffffffffff90911660208301529192507f36e6a2ad1103b62e30506738cea4d983c8be134a35b666a8403fd1469c6754519101610ae7565b60006124b3611eff565b6001600160a01b031663c19755fd6124c961096c565b60008051602061360683398151915254604080518082018252600580825264736965676560d81b6020928301528251808401845290815264424153494360d81b908201528151308183015282518082039092018252808301928390526001600160e01b031960e087901b169092526125899392917f97c6863e562673ade7ccd0833cdfbe9a6f3e5b44141e7e5501350c90323ec829917fdc0ae866100b2876ab26eb62a50ca2cd083944f439e6d78aab2fc402e669e9ee91604401613580565b6020604051808303816000875af11580156125a8573d6000803e3d6000fd5b505050506040513d601f19601f820116820180604052508101906125cc91906133f6565b6002805473ffffffffffffffffffffffffffffffffffffffff19166001600160a01b0383169081179091556040519081529091507f58b4f8ad26597f458102aedd40d93d4b024f8865cf7eef74ceb74c76892221db90602001610ae7565b61263261077e565b6001600160a01b031663cabb62f06040518163ffffffff1660e01b8152600401602060405180830381865afa15801561266f573d6000803e3d6000fd5b505050506040513d601f19601f8201168201806040525081019061269391906133f6565b6040516340c10f1960e01b8152306004820152676124fee993bc000060248201526001600160a01b0391909116906340c10f1990604401600060405180830381600087803b15801561177d57600080fd5b804710156127345760405162461bcd60e51b815260206004820152601d60248201527f416464726573733a20696e73756666696369656e742062616c616e63650000006044820152606401610d72565b6000826001600160a01b03168260405160006040518083038185875af1925050503d8060008114612781576040519150601f19603f3d011682016040523d82523d6000602084013e612786565b606091505b50509050806127fd5760405162461bcd60e51b815260206004820152603a60248201527f416464726573733a20756e61626c6520746f2073656e642076616c75652c207260448201527f6563697069656e74206d617920686176652072657665727465640000000000006064820152608401610d72565b505050565b604080516001600160a01b0385811660248301528416604482015260648082018490528251808303909101815260849091019091526020810180517bffffffffffffffffffffffffffffffffffffffffffffffffffffffff166323b872dd60e01b179052610912908590612da3565b61288381670de0b6b3a7640000612e88565b6128a057604051630fc4070360e41b815260040160405180910390fd5b600081836001600160a01b0316638ae52a386040518163ffffffff1660e01b8152600401602060405180830381865afa1580156128e1573d6000803e3d6000fd5b505050506040513d601f19601f820116820180604052508101906129059190613413565b61290f9190613445565b90506000836001600160a01b031663d26aaf936040518163ffffffff1660e01b8152600401602060405180830381865afa158015612951573d6000803e3d6000fd5b505050506040513d601f19601f820116820180604052508101906129759190613413565b90508082111561299857604051630d2d5b9360e31b815260040160405180910390fd5b6129a061077e565b6001600160a01b031663cabb62f06040518163ffffffff1660e01b8152600401602060405180830381865afa1580156129dd573d6000803e3d6000fd5b505050506040513d601f19601f82011682018060405250810190612a0191906133f6565b60405163a9059cbb60e01b81526001600160a01b03868116600483015260248201869052919091169063a9059cbb906044016020604051808303816000875af1158015612a52573d6000803e3d6000fd5b505050506040513d601f19601f82011682018060405250810190611c899190613458565b60408051600580825260c08201909252606091600091906020820160a08036833750506040805180820190915260048152634641524d60e01b6020909101525080519091507f15e7d524175663fc8929751799c4e1a8d04fec20bebd7ac2f10532927c1b5c0d908290600090612aee57612aee6134f2565b6020026020010181815250506040518060400160405280600a81526020017f4c554d4245524d494c4c000000000000000000000000000000000000000000008152508051906020012081600181518110612b4a57612b4a6134f2565b602002602001018181525050604051806040016040528060048152602001634d494e4560e01b8152508051906020012081600281518110612b8d57612b8d6134f2565b60200260200101818152505060405180604001604052806006815260200165534d4954485960d01b8152508051906020012081600381518110612bd257612bd26134f2565b602002602001018181525050604051806040016040528060048152602001631193d49560e21b8152508051906020012081600481518110612c1557612c156134f2565b6020908102919091010152919050565b6000612c2f611eff565b6001600160a01b031663c19755fd612c4561096c565b60008051602061360683398151915254604080518082018252600881527f6275696c64696e67000000000000000000000000000000000000000000000000602091820152815130918101919091529081018790527f010b6fd4eff8a0ca8c7925f2d29e6173e90462d56ae99e39fa817c79f40285189087906060016040516020818303038152906040526040518663ffffffff1660e01b8152600401612cef959493929190613580565b6020604051808303816000875af1158015612d0e573d6000803e3d6000fd5b505050506040513d601f19601f82011682018060405250810190612d3291906133f6565b600083815260036020908152604091829020805473ffffffffffffffffffffffffffffffffffffffff19166001600160a01b03851690811790915582519081529081018590529192507fb5d06a9347afd5927eca0f133c27e30a6233e7230011c194f15ac1630378c8e09101610e7a565b6000612df8826040518060400160405280602081526020017f5361666545524332303a206c6f772d6c6576656c2063616c6c206661696c6564815250856001600160a01b0316612e9c9092919063ffffffff16565b8051909150156127fd5780806020019051810190612e169190613458565b6127fd5760405162461bcd60e51b815260206004820152602a60248201527f5361666545524332303a204552433230206f7065726174696f6e20646964206e60448201527f6f742073756363656564000000000000000000000000000000000000000000006064820152608401610d72565b6000612e9482846135b4565b159392505050565b6060612eab8484600085612eb5565b90505b9392505050565b606082471015612f165760405162461bcd60e51b815260206004820152602660248201527f416464726573733a20696e73756666696369656e742062616c616e636520666f6044820152651c8818d85b1b60d21b6064820152608401610d72565b6001600160a01b0385163b612f6d5760405162461bcd60e51b815260206004820152601d60248201527f416464726573733a2063616c6c20746f206e6f6e2d636f6e74726163740000006044820152606401610d72565b600080866001600160a01b03168587604051612f8991906135d6565b60006040518083038185875af1925050503d8060008114612fc6576040519150601f19603f3d011682016040523d82523d6000602084013e612fcb565b606091505b5091509150612fdb828286612fe6565b979650505050505050565b60608315612ff5575081612eae565b8251156130055782518084602001fd5b8160405162461bcd60e51b8152600401610d7291906135f2565b60006020828403121561303157600080fd5b5035919050565b6000806040838503121561304b57600080fd5b50508035926020909101359150565b6001600160a01b038116811461306f57600080fd5b50565b60006020828403121561308457600080fd5b8135612eae8161305a565b6000806000606084860312156130a457600080fd5b8335925060208401356130b68161305a565b929592945050506040919091013590565b634e487b7160e01b600052604160045260246000fd5b604051601f8201601f1916810167ffffffffffffffff81118282101715613106576131066130c7565b604052919050565b60006020828403121561312057600080fd5b813567ffffffffffffffff81111561313757600080fd5b8201601f8101841361314857600080fd5b803567ffffffffffffffff811115613162576131626130c7565b613175601f8201601f19166020016130dd565b81815285602083850101111561318a57600080fd5b81602084016020830137600091810160200191909152949350505050565b600080604083850312156131bb57600080fd5b8235915060208301356131cd8161305a565b809150509250929050565b600067ffffffffffffffff8211156131f2576131f26130c7565b5060051b60200190565b600082601f83011261320d57600080fd5b813561322061321b826131d8565b6130dd565b8082825260208201915060208360051b86010192508583111561324257600080fd5b602085015b8381101561325f578035835260209283019201613247565b5095945050505050565b600080600080600060a0868803121561328157600080fd5b853561328c8161305a565b9450602086013561329c8161305a565b935060408601359250606086013567ffffffffffffffff8111156132bf57600080fd5b8601601f810188136132d057600080fd5b80356132de61321b826131d8565b8082825260208201915060208360051b85010192508a83111561330057600080fd5b6020840193505b82841015613322578335825260209384019390910190613307565b9450505050608086013567ffffffffffffffff81111561334157600080fd5b61334d888289016131fc565b9150509295509295909350565b67ffffffffffffffff8116811461306f57600080fd5b60006020828403121561338257600080fd5b8135612eae8161335a565b600080604083850312156133a057600080fd5b82356133ab8161335a565b946020939093013593505050565b634e487b7160e01b600052601160045260246000fd5b81810360008312801583831316838312821617156133ef576133ef6133b9565b5092915050565b60006020828403121561340857600080fd5b8151612eae8161305a565b60006020828403121561342557600080fd5b5051919050565b60006001820161343e5761343e6133b9565b5060010190565b80820180821115610966576109666133b9565b60006020828403121561346a57600080fd5b81518015158114612eae57600080fd5b60008060006060848603121561348f57600080fd5b835160208501519093506134a28161305a565b60408501519092506134b38161335a565b809150509250925092565b6000602082840312156134d057600080fd5b8151612eae8161335a565b8082028115828204841417610966576109666133b9565b634e487b7160e01b600052603260045260246000fd5b8082018281126000831280158216821582161715613528576135286133b9565b505092915050565b60005b8381101561354b578181015183820152602001613533565b50506000910152565b6000815180845261356c816020860160208601613530565b601f01601f19169290920160200192915050565b6001600160a01b038616815284602082015283604082015282606082015260a060808201526000612fdb60a0830184613554565b6000826135d157634e487b7160e01b600052601260045260246000fd5b500690565b600082516135e8818460208701613530565b9190910192915050565b602081526000612eae602083018461355456fe6c85b93e587873fbe6712f3b438d42c2945689b262f7bd34b8ea4e3f832a89e7a2646970667358221220e4e2b40abec080b015a55504add40ab4c2d1e108c99c87e71a97a15aa9ebb32a64736f6c634300081a0033",
  "linkReferences": {},
  "deployedLinkReferences": {}
}