{
  "_format": "hh-sol-artifact-1",
  "contractName": "Region",
  "sourceName": "contracts/core/assets/region/Region.sol",
  "abi": [
    {
      "inputs": [],
      "name": "OnlyActiveGame",
      "type": "error"
    },
    {
      "inputs": [],
      "name": "OnlyEraUnits",
      "type": "error"
    },
    {
      "inputs": [],
      "name": "OnlyMightyCreator",
      "type": "error"
    },
    {
      "inputs": [],
      "name": "OnlyWorldAssetFromSameEra",
      "type": "error"
    },
    {
      "inputs": [],
      "name": "UnknownInputParameter",
      "type": "error"
    },
    {
      "anonymous": false,
      "inputs": [
        {
          "indexed": false,
          "internalType": "address",
          "name": "settlementAddress",
          "type": "address"
        },
        {
          "indexed": false,
          "internalType": "uint256",
          "name": "reducedCorruptionIndexAmount",
          "type": "uint256"
        }
      ],
      "name": "CorruptionIndexDecreased",
      "type": "event"
    },
    {
      "anonymous": false,
      "inputs": [
        {
          "indexed": false,
          "internalType": "address",
          "name": "settlementAddress",
          "type": "address"
        },
        {
          "indexed": false,
          "internalType": "uint256",
          "name": "addedCorruptionIndexAmount",
          "type": "uint256"
        }
      ],
      "name": "CorruptionIndexIncreased",
      "type": "event"
    },
    {
      "anonymous": false,
      "inputs": [
        {
          "indexed": false,
          "internalType": "uint8",
          "name": "version",
          "type": "uint8"
        }
      ],
      "name": "Initialized",
      "type": "event"
    },
    {
      "anonymous": false,
      "inputs": [
        {
          "indexed": false,
          "internalType": "uint256",
          "name": "newCultistsSummonIntervalNumber",
          "type": "uint256"
        }
      ],
      "name": "LastCultistsSummonIntervalNumberUpdated",
      "type": "event"
    },
    {
      "anonymous": false,
      "inputs": [
        {
          "indexed": false,
          "internalType": "uint256",
          "name": "newRegionCultistsAmount",
          "type": "uint256"
        }
      ],
      "name": "RegionCultistsChanged",
      "type": "event"
    },
    {
      "anonymous": false,
      "inputs": [
        {
          "indexed": false,
          "internalType": "uint256",
          "name": "lastUpdateTime",
          "type": "uint256"
        },
        {
          "indexed": false,
          "internalType": "uint256",
          "name": "lastUpdateRegionTime",
          "type": "uint256"
        }
      ],
      "name": "RegionTimeChanged",
      "type": "event"
    },
    {
      "anonymous": false,
      "inputs": [
        {
          "indexed": false,
          "internalType": "address",
          "name": "settlementsMarketAddress",
          "type": "address"
        }
      ],
      "name": "SettlementsMarketCreated",
      "type": "event"
    },
    {
      "anonymous": false,
      "inputs": [
        {
          "indexed": false,
          "internalType": "address",
          "name": "unitsPoolAddress",
          "type": "address"
        },
        {
          "indexed": false,
          "internalType": "bytes32",
          "name": "unitTypeId",
          "type": "bytes32"
        }
      ],
      "name": "UnitsPoolCreated",
      "type": "event"
    },
    {
      "anonymous": false,
      "inputs": [
        {
          "indexed": false,
          "internalType": "address",
          "name": "workersPoolAddress",
          "type": "address"
        }
      ],
      "name": "WorkersPoolCreated",
      "type": "event"
    },
    {
      "inputs": [],
      "name": "assetGroupId",
      "outputs": [
        {
          "internalType": "bytes32",
          "name": "",
          "type": "bytes32"
        }
      ],
      "stateMutability": "view",
      "type": "function"
    },
    {
      "inputs": [],
      "name": "assetTypeId",
      "outputs": [
        {
          "internalType": "bytes32",
          "name": "",
          "type": "bytes32"
        }
      ],
      "stateMutability": "view",
      "type": "function"
    },
    {
      "inputs": [
        {
          "internalType": "address",
          "name": "resourcesOwner",
          "type": "address"
        },
        {
          "internalType": "address",
          "name": "settlementAddress",
          "type": "address"
        },
        {
          "internalType": "bytes32[]",
          "name": "unitTypeIds",
          "type": "bytes32[]"
        },
        {
          "internalType": "uint256[]",
          "name": "unitsAmounts",
          "type": "uint256[]"
        },
        {
          "internalType": "uint256[]",
          "name": "maxTokensToSell",
          "type": "uint256[]"
        }
      ],
      "name": "buyUnitsBatch",
      "outputs": [],
      "stateMutability": "nonpayable",
      "type": "function"
    },
    {
      "inputs": [],
      "name": "corruptionIndex",
      "outputs": [
        {
          "internalType": "int256",
          "name": "",
          "type": "int256"
        }
      ],
      "stateMutability": "view",
      "type": "function"
    },
    {
      "inputs": [
        {
          "internalType": "uint64",
          "name": "cultistsPosition",
          "type": "uint64"
        }
      ],
      "name": "createCultistsSettlement",
      "outputs": [],
      "stateMutability": "nonpayable",
      "type": "function"
    },
    {
      "inputs": [],
      "name": "cultistsSettlement",
      "outputs": [
        {
          "internalType": "contract ISettlement",
          "name": "",
          "type": "address"
        }
      ],
      "stateMutability": "view",
      "type": "function"
    },
    {
      "inputs": [
        {
          "internalType": "address",
          "name": "settlementAddress",
          "type": "address"
        },
        {
          "internalType": "uint256",
          "name": "value",
          "type": "uint256"
        }
      ],
      "name": "decreaseCorruptionIndex",
      "outputs": [],
      "stateMutability": "nonpayable",
      "type": "function"
    },
    {
      "inputs": [],
      "name": "era",
      "outputs": [
        {
          "internalType": "contract IEra",
          "name": "",
          "type": "address"
        }
      ],
      "stateMutability": "view",
      "type": "function"
    },
    {
      "inputs": [],
      "name": "eraNumber",
      "outputs": [
        {
          "internalType": "uint256",
          "name": "",
          "type": "uint256"
        }
      ],
      "stateMutability": "view",
      "type": "function"
    },
    {
      "inputs": [],
      "name": "getPenaltyFromCultists",
      "outputs": [
        {
          "internalType": "uint256",
          "name": "",
          "type": "uint256"
        }
      ],
      "stateMutability": "view",
      "type": "function"
    },
    {
      "inputs": [
        {
          "internalType": "uint256",
          "name": "timestamp",
          "type": "uint256"
        }
      ],
      "name": "getRegionTime",
      "outputs": [
        {
          "internalType": "uint256",
          "name": "",
          "type": "uint256"
        }
      ],
      "stateMutability": "view",
      "type": "function"
    },
    {
      "inputs": [
        {
          "internalType": "uint256",
          "name": "value",
          "type": "uint256"
        }
      ],
      "name": "handleCultistsDefeated",
      "outputs": [],
      "stateMutability": "nonpayable",
      "type": "function"
    },
    {
      "inputs": [
        {
          "internalType": "uint256",
          "name": "value",
          "type": "uint256"
        }
      ],
      "name": "handleCultistsSummoned",
      "outputs": [],
      "stateMutability": "nonpayable",
      "type": "function"
    },
    {
      "inputs": [
        {
          "internalType": "address",
          "name": "settlementAddress",
          "type": "address"
        },
        {
          "internalType": "uint256",
          "name": "value",
          "type": "uint256"
        }
      ],
      "name": "increaseCorruptionIndex",
      "outputs": [],
      "stateMutability": "nonpayable",
      "type": "function"
    },
    {
      "inputs": [
        {
          "internalType": "bytes",
          "name": "initParams",
          "type": "bytes"
        }
      ],
      "name": "init",
      "outputs": [],
      "stateMutability": "nonpayable",
      "type": "function"
    },
    {
      "inputs": [],
      "name": "lastCultistsSummonIntervalNumber",
      "outputs": [
        {
          "internalType": "uint256",
          "name": "",
          "type": "uint256"
        }
      ],
      "stateMutability": "view",
      "type": "function"
    },
    {
      "inputs": [],
      "name": "lastUpdateRegionTime",
      "outputs": [
        {
          "internalType": "uint256",
          "name": "",
          "type": "uint256"
        }
      ],
      "stateMutability": "view",
      "type": "function"
    },
    {
      "inputs": [],
      "name": "lastUpdateTime",
      "outputs": [
        {
          "internalType": "uint256",
          "name": "",
          "type": "uint256"
        }
      ],
      "stateMutability": "view",
      "type": "function"
    },
    {
      "inputs": [],
      "name": "regionId",
      "outputs": [
        {
          "internalType": "uint64",
          "name": "",
          "type": "uint64"
        }
      ],
      "stateMutability": "view",
      "type": "function"
    },
    {
      "inputs": [],
      "name": "registry",
      "outputs": [
        {
          "internalType": "contract IRegistry",
          "name": "",
          "type": "address"
        }
      ],
      "stateMutability": "view",
      "type": "function"
    },
    {
      "inputs": [],
      "name": "settlementsMarket",
      "outputs": [
        {
          "internalType": "contract ISettlementsMarket",
          "name": "",
          "type": "address"
        }
      ],
      "stateMutability": "view",
      "type": "function"
    },
    {
      "inputs": [
        {
          "internalType": "bytes32",
          "name": "",
          "type": "bytes32"
        }
      ],
      "name": "unitsPools",
      "outputs": [
        {
          "internalType": "contract IUnitsPool",
          "name": "",
          "type": "address"
        }
      ],
      "stateMutability": "view",
      "type": "function"
    },
    {
      "inputs": [
        {
          "internalType": "uint256",
          "name": "globalTime",
          "type": "uint256"
        }
      ],
      "name": "updateRegionTime",
      "outputs": [],
      "stateMutability": "nonpayable",
      "type": "function"
    },
    {
      "inputs": [],
      "name": "updateState",
      "outputs": [],
      "stateMutability": "nonpayable",
      "type": "function"
    },
    {
      "inputs": [],
      "name": "workersPool",
      "outputs": [
        {
          "internalType": "contract IWorkersPool",
          "name": "",
          "type": "address"
        }
      ],
      "stateMutability": "view",
      "type": "function"
    },
    {
      "inputs": [],
      "name": "world",
      "outputs": [
        {
          "internalType": "contract IWorld",
          "name": "",
          "type": "address"
        }
      ],
      "stateMutability": "view",
      "type": "function"
    },
    {
      "inputs": [],
      "name": "worldAssetFactory",
      "outputs": [
        {
          "internalType": "contract IWorldAssetFactory",
          "name": "",
          "type": "address"
        }
      ],
      "stateMutability": "view",
      "type": "function"
    }
  ],
  "bytecode": "0x6080604052348015600f57600080fd5b5061296b8061001f6000396000f3fe608060405234801561001057600080fd5b50600436106101b95760003560e01c80637d884c74116100f9578063d2bb2eae11610097578063ece56a1a11610071578063ece56a1a146103a7578063f8ed0fe8146103af578063facb94fb146103c2578063ffd7a09f146103cb57600080fd5b8063d2bb2eae14610379578063d99d7d8114610381578063e85b89d91461039457600080fd5b8063901c2828116100d3578063901c282814610327578063b2fd893314610330578063c20c92501461035d578063c8f33c911461037057600080fd5b80637d884c74146102d257806384ba89e3146102e75780638ee6bc111461030e57600080fd5b8063403e2e43116101665780635408226011610140578063540822601461027b57806358a445c51461028e57806377065817146102b75780637b103999146102ca57600080fd5b8063403e2e43146102425780634ddf47d4146102555780635053c2991461026857600080fd5b806324ea75c61161019757806324ea75c61461021e57806325fc92891461022757806330b67baa1461023a57600080fd5b80630b4e99c3146101be578063143e55e0146101f45780631d8557d714610214575b600080fd5b7f6c85b93e587873fbe6712f3b438d42c2945689b262f7bd34b8ea4e3f832a89ea545b6040519081526020015b60405180910390f35b6101fc6103de565b6040516001600160a01b0390911681526020016101eb565b61021c610470565b005b6101e160085481565b6101e1610235366004612448565b610482565b6101fc6105fe565b61021c610250366004612448565b610631565b61021c6102633660046124a8565b6106de565b61021c610276366004612557565b610d61565b61021c610289366004612448565b610d7b565b6101fc61029c366004612448565b6001602052600090815260409020546001600160a01b031681565b61021c6102c5366004612448565b610db8565b6101fc610e16565b600080516020612916833981519152546101e1565b7f6c85b93e587873fbe6712f3b438d42c2945689b262f7bd34b8ea4e3f832a89e9546101e1565b6000546101fc906201000090046001600160a01b031681565b6101e160045481565b6006546103449067ffffffffffffffff1681565b60405167ffffffffffffffff90911681526020016101eb565b6003546101fc906001600160a01b031681565b6101e160075481565b6101e1610e5d565b61021c61038f366004612599565b610ebb565b61021c6103a2366004612557565b611124565b6101fc61113e565b61021c6103bd366004612647565b611185565b6101e160055481565b6002546101fc906001600160a01b031681565b60006103e86105fe565b6001600160a01b031663720a70bd61040c6000805160206129168339815191525490565b6040518263ffffffff1660e01b815260040161042a91815260200190565b602060405180830381865afa158015610447573d6000803e3d6000fd5b505050506040513d601f19601f8201168201806040525081019061046b919061275a565b905090565b6104786112b2565b6104806114b7565b565b600081600003610490574291505b600061049a6105fe565b6001600160a01b0316633c8ca83d6040518163ffffffff1660e01b8152600401602060405180830381865afa1580156104d7573d6000803e3d6000fd5b505050506040513d601f19601f820116820180604052508101906104fb9190612777565b905080831015610509578092505b60006105136105fe565b6001600160a01b03166344d9bc5f6040518163ffffffff1660e01b8152600401602060405180830381865afa158015610550573d6000803e3d6000fd5b505050506040513d601f19601f820116820180604052508101906105749190612777565b9050801580159061058457508084115b1561058d578093505b600754600854838210156105a2575082905060005b8186116105b25795945050505050565b60006105be83886127a6565b905060006105ca610e5d565b90506105de81670de0b6b3a76400006127a6565b6105e890836127b9565b6105f290846127d0565b98975050505050505050565b600061046b7f6c85b93e587873fbe6712f3b438d42c2945689b262f7bd34b8ea4e3f832a89e6546001600160a01b031690565b6106396115fe565b6106416103de565b6001600160a01b031663c096b3f7826040518263ffffffff1660e01b815260040161066e91815260200190565b600060405180830381600087803b15801561068857600080fd5b505af115801561069c573d6000803e3d6000fd5b505050507fe6537ef9de80c86b778fd21bbf662464035e006f3e89b6074fe3280b4d9dd2a56106c9611702565b6040519081526020015b60405180910390a150565b600054610100900460ff16158080156106fe5750600054600160ff909116105b806107185750303b158015610718575060005460ff166001145b61078e5760405162461bcd60e51b815260206004820152602e60248201527f496e697469616c697a61626c653a20636f6e747261637420697320616c72656160448201527f647920696e697469616c697a6564000000000000000000000000000000000000606482015260840160405180910390fd5b6000805460ff1916600117905580156107b1576000805461ff0019166101001790555b6000828060200190518101906107c791906127e3565b6006805467ffffffffffffffff191667ffffffffffffffff83161790554260078190559091506107f690610482565b6008556000610803610e16565b9050600061080f61113e565b90506000816001600160a01b031663c19755fd61082a6105fe565b60008051602061291683398151915254604080518082018252600b81527f776f726b657273506f6f6c000000000000000000000000000000000000000000602091820152815180830183526005815264424153494360d81b908201528151308183015282518082039092018252808301928390526001600160e01b031960e087901b169092526109029392917f6dd10f5694032abddf028b131aa9186f0ec727b5d419b1e0623133ed6f122928917fdc0ae866100b2876ab26eb62a50ca2cd083944f439e6d78aab2fc402e669e9ee91604401612800565b6020604051808303816000875af1158015610921573d6000803e3d6000fd5b505050506040513d601f19601f82011682018060405250810190610945919061275a565b600080547fffffffffffffffffffff0000000000000000000000000000000000000000ffff16620100006001600160a01b038416908102919091179091556040519081529091507fe7ddd620fd16596faeb8a1d8afc92f00debed651f475b643ce469a07c0c247ec9060200160405180910390a16000826001600160a01b031663c19755fd6109d26105fe565b60008051602061291683398151915254604080518082018252601181527f736574746c656d656e74734d61726b6574000000000000000000000000000000602091820152815180830183526005815264424153494360d81b908201528151308183015282518082039092018252808301928390526001600160e01b031960e087901b16909252610aaa9392917f91517c2ebe3f5c03da0b048b13e3f173bc97ca7f2da46cc37c1cae7177d7646c917fdc0ae866100b2876ab26eb62a50ca2cd083944f439e6d78aab2fc402e669e9ee91604401612800565b6020604051808303816000875af1158015610ac9573d6000803e3d6000fd5b505050506040513d601f19601f82011682018060405250810190610aed919061275a565b6002805473ffffffffffffffffffffffffffffffffffffffff19166001600160a01b0383169081179091556040519081529091507f02d56eb340d542c3f5a451aead2c3d806238d3e9d81723b46e944bebb3a387769060200160405180910390a16000610b5861189f565b905060005b8151811015610d0f576000828281518110610b7a57610b7a612873565b602002602001015190506000866001600160a01b031663c19755fd610b9d6105fe565b6000805160206129168339815191525460408051808201909152600981527f756e697473506f6f6c00000000000000000000000000000000000000000000006020909101527f14ee5cfb3dc8725e4e101c5cf564476f0e48040af6629fec85a678334699c997610c0c8761194b565b604080513060208201529081018990526060016040516020818303038152906040526040518663ffffffff1660e01b8152600401610c4e959493929190612800565b6020604051808303816000875af1158015610c6d573d6000803e3d6000fd5b505050506040513d601f19601f82011682018060405250810190610c91919061275a565b600083815260016020908152604091829020805473ffffffffffffffffffffffffffffffffffffffff19166001600160a01b03851690811790915582519081529081018590529192507f0dff9287540f6a481d1b54c7a56eb3db3d44b60de42dca1cd0d4a51cb1355917910160405180910390a15050600101610b5d565b505050505050508015610d5d576000805461ff0019169055604051600181527f7f26b83ff96e1f2b6a682f133852f6798a09c465da95921460cefb3847402498906020015b60405180910390a15b5050565b610d69611b2f565b610d71610470565b610d5d8282611c07565b610d836115fe565b610d8b6103de565b6001600160a01b031663558c31ce826040518263ffffffff1660e01b815260040161066e91815260200190565b610dc0611b2f565b6007548114610e1357610dd281610482565b600881905560078290556040805183815260208101929092527f6c12308e84d8918db07724ca628050fa45134651fb4e77f6db452c7a54e3924291016106d3565b50565b6000610e206105fe565b6001600160a01b0316637b1039996040518163ffffffff1660e01b8152600401602060405180830381865afa158015610447573d6000803e3d6000fd5b600080610e68611702565b9050600069021e19e0c9bab2400000610e8983670de0b6b3a76400006127b9565b610e939190612889565b9050670de0b6b3a7640000811115610eb557670de0b6b3a76400009250505090565b92915050565b610ec3611b2f565b6000610ecd6103de565b600654604080518082018252600881527f43554c54495354530000000000000000000000000000000000000000000000006020909101525163d6ea8dc360e01b81526000600482015267ffffffffffffffff918216602482015290841660448201527f68df48fcd9cdb73398d3d230d42cb2c985c02b74e432f851c9e661aec1cc00f060648201526001600160a01b03919091169063d6ea8dc3906084016020604051808303816000875af1158015610f8a573d6000803e3d6000fd5b505050506040513d601f19601f82011682018060405250810190610fae919061275a565b6003805473ffffffffffffffffffffffffffffffffffffffff19166001600160a01b03831617905590506000610fe26105fe565b6001600160a01b031663f5f026a36040518163ffffffff1660e01b8152600401602060405180830381865afa15801561101f573d6000803e3d6000fd5b505050506040513d601f19601f82011682018060405250810190611043919061275a565b60065460405163335cf12b60e11b815267ffffffffffffffff90911660048201526001600160a01b0391909116906366b9e25690602401602060405180830381865afa158015611097573d6000803e3d6000fd5b505050506040513d601f19601f820116820180604052508101906110bb9190612777565b6110c69060046127a6565b905060006110dd685150ae84a8cdf00000836127b9565b90506110f0816110eb611d48565b611e6a565b6000611106685150ae84a8cdf0000060056127b9565b61111090846127b9565b905061111d600082612032565b5050505050565b61112c611b2f565b611134610470565b610d5d8282612032565b6000611148610e16565b6001600160a01b031663ece56a1a6040518163ffffffff1660e01b8152600401602060405180830381865afa158015610447573d6000803e3d6000fd5b60005b83518110156112aa57600160008583815181106111a7576111a7612873565b6020026020010151815260200190815260200160002060009054906101000a90046001600160a01b03166001600160a01b031663772584518733888786815181106111f4576111f4612873565b602002602001015187878151811061120e5761120e612873565b60209081029190910101516040516001600160e01b031960e088901b1681526001600160a01b03958616600482015293851660248501529390911660448301526064820152608481019190915260a4016020604051808303816000875af115801561127d573d6000803e3d6000fd5b505050506040513d601f19601f820116820180604052508101906112a19190612777565b50600101611188565b505050505050565b6003546040805163f10e38af60e01b815290516000926001600160a01b03169163f10e38af9160048083019260209291908290030181865afa1580156112fc573d6000803e3d6000fd5b505050506040513d601f19601f82011682018060405250810190611320919061275a565b6001600160a01b03166344e445456040518163ffffffff1660e01b8152600401602060405180830381865afa15801561135d573d6000803e3d6000fd5b505050506040513d601f19601f82011682018060405250810190611381919061275a565b90506001600160a01b038116158015906113fa5750806001600160a01b0316631852b5af6040518163ffffffff1660e01b8152600401602060405180830381865afa1580156113d4573d6000803e3d6000fd5b505050506040513d601f19601f820116820180604052508101906113f891906128ab565b155b80156114635750806001600160a01b0316639d4095fe6040518163ffffffff1660e01b8152600401602060405180830381865afa15801561143f573d6000803e3d6000fd5b505050506040513d601f19601f8201168201806040525081019061146391906128ab565b15610e1357806001600160a01b031663d1c986186040518163ffffffff1660e01b8152600401600060405180830381600087803b1580156114a357600080fd5b505af115801561111d573d6000803e3d6000fd5b6114bf6105fe565b6001600160a01b031663704f63a16040518163ffffffff1660e01b8152600401602060405180830381865afa1580156114fc573d6000803e3d6000fd5b505050506040513d601f19601f820116820180604052508101906115209190612777565b600080516020612916833981519152541461153757565b6000611541611d48565b9050806004541061154f5750565b60008060055413611561576000611565565b6005545b9050600081156115ef576000611579611702565b9050611586600a84612889565b611591600283612889565b116115e8576115e36115ca6115a7600284612889565b6115b2600a87612889565b6115bc91906127a6565b670de0b6b3a7640000612149565b6115de8369021e19e0c9bab24000006127a6565b612167565b6115eb565b60005b9150505b6115f98184611e6a565b505050565b6000336001600160a01b0316635920c5436040518163ffffffff1660e01b8152600401602060405180830381865afa15801561163e573d6000803e3d6000fd5b505050506040513d601f19601f820116820180604052508101906116629190612777565b90503361166d6103de565b6001600160a01b031663feae7dc3836040518263ffffffff1660e01b815260040161169a91815260200190565b602060405180830381865afa1580156116b7573d6000803e3d6000fd5b505050506040513d601f19601f820116820180604052508101906116db919061275a565b6001600160a01b031614610e135760405163140e5a6960e01b815260040160405180910390fd5b600061170c6103de565b60408051808201825260078152662ba0a92924a7a960c91b6020909101525163feae7dc360e01b81527f69c5317e5ce44f1a1fb56c6a5eff904214e6353da6310ab0a6b511eef9a7c39160048201526001600160a01b03919091169063feae7dc390602401602060405180830381865afa15801561178e573d6000803e3d6000fd5b505050506040513d601f19601f820116820180604052508101906117b2919061275a565b6001600160a01b03166370a08231600360009054906101000a90046001600160a01b03166001600160a01b031663f10e38af6040518163ffffffff1660e01b8152600401602060405180830381865afa158015611813573d6000803e3d6000fd5b505050506040513d601f19601f82011682018060405250810190611837919061275a565b6040516001600160e01b031960e084901b1681526001600160a01b039091166004820152602401602060405180830381865afa15801561187b573d6000803e3d6000fd5b505050506040513d601f19601f8201168201806040525081019061046b9190612777565b606060006118ab61217d565b90506000815167ffffffffffffffff8111156118c9576118c9612461565b6040519080825280602002602001820160405280156118f2578160200160208202803683370190505b50905060005b81518110156119445782818151811061191357611913612873565b60200260200101516040015182828151811061193157611931612873565b60209081029190910101526001016118f8565b5092915050565b6040805180820190915260078152662ba0a92924a7a960c91b60209091015260007f963ace81a31bb0e5e04a9395a1006fbdeb19cac259cef54f594aee1106583c6f82016119ee57505060408051808201909152601181527f574f524b4552535f554e49545f504f4f4c0000000000000000000000000000006020909101527f8f75178ea8b939732f30df87bf2b4d5864e1068291d6e7b65eb7efcdd75e570290565b60408051808201909152600681526520a921a422a960d11b6020909101527fbd21a0403f8a882c166bd206a22b19e35435476f82a2cccdbfebf4d666c861c08201611a8157505060408051808201909152601081526f125391d3d514d7d553925517d413d3d360821b6020909101527facde00cf82db2dd178c1275275df8e6a2355a26d2338720a6239578a1148b9f790565b6040805180820190915260088152672427a929a2a6a0a760c11b6020909101527f762a1190b034cd04c3eae43da1943cdf0137d457634c4d62e69626f81f1986c78201611b1657505060408051808201909152601081526f125391d3d514d7d553925517d413d3d360821b6020909101527facde00cf82db2dd178c1275275df8e6a2355a26d2338720a6239578a1148b9f790565b60405163ea3b0abb60e01b815260040160405180910390fd5b611b376105fe565b6001600160a01b0316336001600160a01b031614158015611be957506000611b5d6105fe565b6001600160a01b031663ebbe8034611b816000805160206129168339815191525490565b6040516001600160e01b031960e084901b1681526004810191909152336024820152604401602060405180830381865afa158015611bc3573d6000803e3d6000fd5b505050506040513d601f19601f82011682018060405250810190611be79190612777565b145b156104805760405163422656d160e01b815260040160405180910390fd5b611c0f6105fe565b6001600160a01b031663704f63a16040518163ffffffff1660e01b8152600401602060405180830381865afa158015611c4c573d6000803e3d6000fd5b505050506040513d601f19601f82011682018060405250810190611c709190612777565b6000805160206129168339815191525414611c89575050565b8060056000828254611c9b91906128cd565b9091555050604080516001600160a01b0384168152602081018390527fe96dd1d5d4c15a71bae1b7b1403f6ca0b4804ec59aeadead4d33fbefa4c971bc910160405180910390a16001600160a01b03821615610d5d576040516304164b8960e21b8152600481018290526001600160a01b038316906310592e24906024015b600060405180830381600087803b158015611d3457600080fd5b505af11580156112aa573d6000803e3d6000fd5b600080611d53610e16565b90506000611e31611d626103de565b6001600160a01b031663d8270dce6040518163ffffffff1660e01b8152600401602060405180830381865afa158015611d9f573d6000803e3d6000fd5b505050506040513d601f19601f82011682018060405250810190611dc39190612777565b611dcb6105fe565b6001600160a01b0316633c8ca83d6040518163ffffffff1660e01b8152600401602060405180830381865afa158015611e08573d6000803e3d6000fd5b505050506040513d601f19601f82011682018060405250810190611e2c9190612777565b612438565b9050804211611e41576000611e63565b611e4f6005621a5e00612889565b611e5982426127a6565b611e639190612889565b9250505090565b611e726103de565b60408051808201825260078152662ba0a92924a7a960c91b6020909101525163feae7dc360e01b81527f69c5317e5ce44f1a1fb56c6a5eff904214e6353da6310ab0a6b511eef9a7c39160048201526001600160a01b03919091169063feae7dc390602401602060405180830381865afa158015611ef4573d6000803e3d6000fd5b505050506040513d601f19601f82011682018060405250810190611f18919061275a565b6001600160a01b03166340c10f19600360009054906101000a90046001600160a01b03166001600160a01b031663f10e38af6040518163ffffffff1660e01b8152600401602060405180830381865afa158015611f79573d6000803e3d6000fd5b505050506040513d601f19601f82011682018060405250810190611f9d919061275a565b6040516001600160e01b031960e084901b1681526001600160a01b03909116600482015260248101859052604401600060405180830381600087803b158015611fe557600080fd5b505af1158015611ff9573d6000803e3d6000fd5b5050506004829055506040518181527fdf8b38cd05460b94bf10085f7d4c200121bf794f70fbfda02a150a0c7c6f1cde90602001610d54565b61203a6105fe565b6001600160a01b031663704f63a16040518163ffffffff1660e01b8152600401602060405180830381865afa158015612077573d6000803e3d6000fd5b505050506040513d601f19601f8201168201806040525081019061209b9190612777565b60008051602061291683398151915254146120b4575050565b80600560008282546120c691906128ed565b9091555050604080516001600160a01b0384168152602081018390527f7315efea3152f63ef4c3f7859af79e8e8619fadb38cbd344b9c9dd5ebb9f32fc910160405180910390a16001600160a01b03821615610d5d5760405163ca82504360e01b8152600481018290526001600160a01b0383169063ca82504390602401611d1a565b6000816121568185612889565b61216091906127b9565b9392505050565b60008183106121765781612160565b5090919050565b6040805160038082526080820190925260609160009190816020015b604080516060808201835280825260208201526000918101919091528152602001906001900390816121995750506040805160a0810182526011606082019081527f4d697468726165756d2057617272696f720000000000000000000000000000006080830152815281518083018352600881527f6d57415252494f52000000000000000000000000000000000000000000000000602080830191909152808301919091528251808401845260078152662ba0a92924a7a960c91b9101527f69c5317e5ce44f1a1fb56c6a5eff904214e6353da6310ab0a6b511eef9a7c39191810191909152815191925090829060009061229657612296612873565b6020908102919091018101919091526040805160a0810182526010606082019081527f4d697468726165756d20417263686572000000000000000000000000000000006080830152815281518083018352600781526636a0a921a422a960c91b818501528184015281518083018352600681526520a921a422a960d11b9301929092527f42de5fbfc07577d3e9942df95dd4e61cabcab8907d5d333240140b2999379e409082015281518290600190811061235357612353612873565b6020908102919091018101919091526040805160a0810182526012606082019081527f4d697468726165756d20486f7273656d616e00000000000000000000000000006080830152815281518083018352600981527f6d484f5253454d414e000000000000000000000000000000000000000000000081850152818401528151808301835260088152672427a929a2a6a0a760c11b9301929092527f89d5ee6f4fcb32fb3c151bc25e6bc320fec82ba89cb3b29d1969d907e0e679399082015281518290600290811061242857612428612873565b6020908102919091010152919050565b6000818310156121765781612160565b60006020828403121561245a57600080fd5b5035919050565b634e487b7160e01b600052604160045260246000fd5b604051601f8201601f1916810167ffffffffffffffff811182821017156124a0576124a0612461565b604052919050565b6000602082840312156124ba57600080fd5b813567ffffffffffffffff8111156124d157600080fd5b8201601f810184136124e257600080fd5b803567ffffffffffffffff8111156124fc576124fc612461565b61250f601f8201601f1916602001612477565b81815285602083850101111561252457600080fd5b81602084016020830137600091810160200191909152949350505050565b6001600160a01b0381168114610e1357600080fd5b6000806040838503121561256a57600080fd5b823561257581612542565b946020939093013593505050565b67ffffffffffffffff81168114610e1357600080fd5b6000602082840312156125ab57600080fd5b813561216081612583565b600067ffffffffffffffff8211156125d0576125d0612461565b5060051b60200190565b600082601f8301126125eb57600080fd5b81356125fe6125f9826125b6565b612477565b8082825260208201915060208360051b86010192508583111561262057600080fd5b602085015b8381101561263d578035835260209283019201612625565b5095945050505050565b600080600080600060a0868803121561265f57600080fd5b853561266a81612542565b9450602086013561267a81612542565b9350604086013567ffffffffffffffff81111561269657600080fd5b8601601f810188136126a757600080fd5b80356126b56125f9826125b6565b8082825260208201915060208360051b85010192508a8311156126d757600080fd5b6020840193505b828410156126f95783358252602093840193909101906126de565b9550505050606086013567ffffffffffffffff81111561271857600080fd5b612724888289016125da565b925050608086013567ffffffffffffffff81111561274157600080fd5b61274d888289016125da565b9150509295509295909350565b60006020828403121561276c57600080fd5b815161216081612542565b60006020828403121561278957600080fd5b5051919050565b634e487b7160e01b600052601160045260246000fd5b81810381811115610eb557610eb5612790565b8082028115828204841417610eb557610eb5612790565b80820180821115610eb557610eb5612790565b6000602082840312156127f557600080fd5b815161216081612583565b6001600160a01b038616815284602082015283604082015282606082015260a06080820152600082518060a084015260005b8181101561284f57602081860181015160c0868401015201612832565b50600060c0828501015260c0601f19601f8301168401019150509695505050505050565b634e487b7160e01b600052603260045260246000fd5b6000826128a657634e487b7160e01b600052601260045260246000fd5b500490565b6000602082840312156128bd57600080fd5b8151801515811461216057600080fd5b818103600083128015838313168383128216171561194457611944612790565b808201828112600083128015821682158216171561290d5761290d612790565b50509291505056fe6c85b93e587873fbe6712f3b438d42c2945689b262f7bd34b8ea4e3f832a89e7a26469706673582212202cbfd34782980316f4a16ff162ced727646ae8fd7424265ff4c47ef41be4750164736f6c634300081a0033",
  "linkReferences": {},
  "deployedLinkReferences": {}
}