{
  "_format": "hh-sol-artifact-1",
  "contractName": "Farm",
  "sourceName": "contracts/core/assets/building/impl/Farm.sol",
  "abi": [
    {
      "inputs": [],
      "name": "BuildingCannotBeUpgradedWhileUpgradeIsOnCooldown",
      "type": "error"
    },
    {
      "inputs": [],
      "name": "CannotTransferProducingResourceFromBuilding",
      "type": "error"
    },
    {
      "inputs": [],
      "name": "DistributionResetNotAllowedWhenTreasuryThresholdNotMet",
      "type": "error"
    },
    {
      "inputs": [],
      "name": "OnlyActiveGame",
      "type": "error"
    },
    {
      "inputs": [],
      "name": "OnlyDistributions",
      "type": "error"
    },
    {
      "inputs": [],
      "name": "OnlyMightyCreator",
      "type": "error"
    },
    {
      "inputs": [],
      "name": "OnlyRulerOrWorldAssetFromSameEra",
      "type": "error"
    },
    {
      "inputs": [],
      "name": "OnlySettlementOwner",
      "type": "error"
    },
    {
      "inputs": [],
      "name": "OnlyWorldAssetFromSameEra",
      "type": "error"
    },
    {
      "inputs": [],
      "name": "UnknownInputParameter",
      "type": "error"
    },
    {
      "anonymous": false,
      "inputs": [
        {
          "indexed": false,
          "internalType": "uint256",
          "name": "newAdditionalWorkersCapacityMultiplier",
          "type": "uint256"
        }
      ],
      "name": "AdvancedProductionAdditionalWorkersCapacityMultiplierUpdated",
      "type": "event"
    },
    {
      "anonymous": false,
      "inputs": [
        {
          "indexed": false,
          "internalType": "uint256",
          "name": "newAdvancedProductionLevel",
          "type": "uint256"
        },
        {
          "indexed": false,
          "internalType": "uint256",
          "name": "newAdvancedProductionCoefficient",
          "type": "uint256"
        }
      ],
      "name": "AdvancedProductionUpgraded",
      "type": "event"
    },
    {
      "anonymous": false,
      "inputs": [
        {
          "indexed": false,
          "internalType": "uint256",
          "name": "newBasicProductionLevel",
          "type": "uint256"
        },
        {
          "indexed": false,
          "internalType": "uint256",
          "name": "newBasicProductionCoefficient",
          "type": "uint256"
        }
      ],
      "name": "BasicProductionUpgraded",
      "type": "event"
    },
    {
      "anonymous": false,
      "inputs": [
        {
          "indexed": false,
          "internalType": "bytes32",
          "name": "resourceTypeId",
          "type": "bytes32"
        },
        {
          "indexed": false,
          "internalType": "address",
          "name": "holder",
          "type": "address"
        },
        {
          "indexed": false,
          "internalType": "uint256",
          "name": "amount",
          "type": "uint256"
        }
      ],
      "name": "DistributedToShareHolder",
      "type": "event"
    },
    {
      "anonymous": false,
      "inputs": [
        {
          "indexed": false,
          "internalType": "uint256",
          "name": "newDistributionId",
          "type": "uint256"
        }
      ],
      "name": "DistributionCreated",
      "type": "event"
    },
    {
      "anonymous": false,
      "inputs": [
        {
          "indexed": false,
          "internalType": "uint8",
          "name": "version",
          "type": "uint8"
        }
      ],
      "name": "Initialized",
      "type": "event"
    },
    {
      "anonymous": false,
      "inputs": [
        {
          "indexed": false,
          "internalType": "address",
          "name": "distributionNftHolder",
          "type": "address"
        },
        {
          "indexed": false,
          "internalType": "uint256",
          "name": "newDebt",
          "type": "uint256"
        }
      ],
      "name": "ProducedResourceDebtUpdated",
      "type": "event"
    },
    {
      "anonymous": false,
      "inputs": [
        {
          "indexed": false,
          "internalType": "uint256",
          "name": "lastUpdateStateTime",
          "type": "uint256"
        },
        {
          "indexed": false,
          "internalType": "uint256",
          "name": "lastUpdateStateRegionTime",
          "type": "uint256"
        },
        {
          "indexed": false,
          "internalType": "uint256",
          "name": "readyToBeDistributed",
          "type": "uint256"
        },
        {
          "indexed": false,
          "internalType": "uint256",
          "name": "totalDebt",
          "type": "uint256"
        }
      ],
      "name": "ProductionInfoUpdated",
      "type": "event"
    },
    {
      "inputs": [],
      "name": "advancedProduction",
      "outputs": [
        {
          "internalType": "uint256",
          "name": "level",
          "type": "uint256"
        },
        {
          "internalType": "uint256",
          "name": "coefficient",
          "type": "uint256"
        },
        {
          "internalType": "uint256",
          "name": "additionalWorkersCapacityMultiplier",
          "type": "uint256"
        },
        {
          "internalType": "uint256",
          "name": "toBeProducedTicks",
          "type": "uint256"
        }
      ],
      "stateMutability": "view",
      "type": "function"
    },
    {
      "inputs": [],
      "name": "assetGroupId",
      "outputs": [
        {
          "internalType": "bytes32",
          "name": "",
          "type": "bytes32"
        }
      ],
      "stateMutability": "view",
      "type": "function"
    },
    {
      "inputs": [],
      "name": "assetTypeId",
      "outputs": [
        {
          "internalType": "bytes32",
          "name": "",
          "type": "bytes32"
        }
      ],
      "stateMutability": "view",
      "type": "function"
    },
    {
      "inputs": [],
      "name": "basicProduction",
      "outputs": [
        {
          "internalType": "uint256",
          "name": "level",
          "type": "uint256"
        },
        {
          "internalType": "uint256",
          "name": "coefficient",
          "type": "uint256"
        }
      ],
      "stateMutability": "view",
      "type": "function"
    },
    {
      "inputs": [],
      "name": "buildingTypeId",
      "outputs": [
        {
          "internalType": "bytes32",
          "name": "",
          "type": "bytes32"
        }
      ],
      "stateMutability": "view",
      "type": "function"
    },
    {
      "inputs": [
        {
          "internalType": "uint256",
          "name": "burnAmount",
          "type": "uint256"
        }
      ],
      "name": "burnTreasury",
      "outputs": [],
      "stateMutability": "nonpayable",
      "type": "function"
    },
    {
      "inputs": [
        {
          "internalType": "uint256",
          "name": "capacityAmount",
          "type": "uint256"
        }
      ],
      "name": "decreaseAdditionalWorkersCapacityMultiplier",
      "outputs": [],
      "stateMutability": "nonpayable",
      "type": "function"
    },
    {
      "inputs": [],
      "name": "distributeToAllShareholders",
      "outputs": [],
      "stateMutability": "nonpayable",
      "type": "function"
    },
    {
      "inputs": [
        {
          "internalType": "address",
          "name": "holder",
          "type": "address"
        }
      ],
      "name": "distributeToSingleShareholder",
      "outputs": [],
      "stateMutability": "nonpayable",
      "type": "function"
    },
    {
      "inputs": [],
      "name": "distributionId",
      "outputs": [
        {
          "internalType": "uint256",
          "name": "",
          "type": "uint256"
        }
      ],
      "stateMutability": "view",
      "type": "function"
    },
    {
      "inputs": [],
      "name": "era",
      "outputs": [
        {
          "internalType": "contract IEra",
          "name": "",
          "type": "address"
        }
      ],
      "stateMutability": "view",
      "type": "function"
    },
    {
      "inputs": [],
      "name": "eraNumber",
      "outputs": [
        {
          "internalType": "uint256",
          "name": "",
          "type": "uint256"
        }
      ],
      "stateMutability": "view",
      "type": "function"
    },
    {
      "inputs": [],
      "name": "getAdditionalWorkersFromAdditionalWorkersCapacityMultiplier",
      "outputs": [
        {
          "internalType": "uint256",
          "name": "",
          "type": "uint256"
        }
      ],
      "stateMutability": "view",
      "type": "function"
    },
    {
      "inputs": [
        {
          "internalType": "uint256",
          "name": "level",
          "type": "uint256"
        }
      ],
      "name": "getAdvancedUpgradeCooldownDuration",
      "outputs": [
        {
          "internalType": "uint256",
          "name": "",
          "type": "uint256"
        }
      ],
      "stateMutability": "view",
      "type": "function"
    },
    {
      "inputs": [],
      "name": "getAssignedWorkers",
      "outputs": [
        {
          "internalType": "uint256",
          "name": "",
          "type": "uint256"
        }
      ],
      "stateMutability": "view",
      "type": "function"
    },
    {
      "inputs": [],
      "name": "getAvailableForAdvancedProductionWorkersCapacity",
      "outputs": [
        {
          "internalType": "uint256",
          "name": "",
          "type": "uint256"
        }
      ],
      "stateMutability": "view",
      "type": "function"
    },
    {
      "inputs": [
        {
          "internalType": "uint256",
          "name": "level",
          "type": "uint256"
        }
      ],
      "name": "getBasicUpgradeCooldownDuration",
      "outputs": [
        {
          "internalType": "uint256",
          "name": "",
          "type": "uint256"
        }
      ],
      "stateMutability": "view",
      "type": "function"
    },
    {
      "inputs": [
        {
          "internalType": "uint256",
          "name": "level",
          "type": "uint256"
        }
      ],
      "name": "getBuildingCoefficient",
      "outputs": [
        {
          "internalType": "uint256",
          "name": "",
          "type": "uint256"
        }
      ],
      "stateMutability": "pure",
      "type": "function"
    },
    {
      "inputs": [],
      "name": "getBuildingLevel",
      "outputs": [
        {
          "internalType": "uint256",
          "name": "",
          "type": "uint256"
        }
      ],
      "stateMutability": "view",
      "type": "function"
    },
    {
      "inputs": [],
      "name": "getConfig",
      "outputs": [
        {
          "components": [
            {
              "internalType": "bytes32",
              "name": "resourceTypeId",
              "type": "bytes32"
            },
            {
              "internalType": "uint256",
              "name": "amountPerTick",
              "type": "uint256"
            },
            {
              "internalType": "bool",
              "name": "isProducing",
              "type": "bool"
            }
          ],
          "internalType": "struct IBuilding.ProductionConfigItem[]",
          "name": "",
          "type": "tuple[]"
        }
      ],
      "stateMutability": "pure",
      "type": "function"
    },
    {
      "inputs": [
        {
          "internalType": "uint256",
          "name": "level",
          "type": "uint256"
        }
      ],
      "name": "getMaxTreasuryByLevel",
      "outputs": [
        {
          "internalType": "uint256",
          "name": "",
          "type": "uint256"
        }
      ],
      "stateMutability": "view",
      "type": "function"
    },
    {
      "inputs": [],
      "name": "getProducingResourceTypeId",
      "outputs": [
        {
          "internalType": "bytes32",
          "name": "",
          "type": "bytes32"
        }
      ],
      "stateMutability": "view",
      "type": "function"
    },
    {
      "inputs": [
        {
          "internalType": "uint256",
          "name": "timestamp",
          "type": "uint256"
        }
      ],
      "name": "getProductionResult",
      "outputs": [
        {
          "components": [
            {
              "internalType": "bytes32",
              "name": "resourceTypeId",
              "type": "bytes32"
            },
            {
              "internalType": "uint256",
              "name": "balanceDelta",
              "type": "uint256"
            },
            {
              "internalType": "bool",
              "name": "isProduced",
              "type": "bool"
            }
          ],
          "internalType": "struct IBuilding.ProductionResultItem[]",
          "name": "",
          "type": "tuple[]"
        }
      ],
      "stateMutability": "view",
      "type": "function"
    },
    {
      "inputs": [
        {
          "internalType": "bytes32",
          "name": "resourceTypeId",
          "type": "bytes32"
        },
        {
          "internalType": "uint256",
          "name": "timestamp",
          "type": "uint256"
        }
      ],
      "name": "getResourcesAmount",
      "outputs": [
        {
          "internalType": "uint256",
          "name": "",
          "type": "uint256"
        }
      ],
      "stateMutability": "view",
      "type": "function"
    },
    {
      "inputs": [
        {
          "internalType": "uint256",
          "name": "timestamp",
          "type": "uint256"
        }
      ],
      "name": "getTreasuryAmount",
      "outputs": [
        {
          "internalType": "uint256",
          "name": "",
          "type": "uint256"
        }
      ],
      "stateMutability": "view",
      "type": "function"
    },
    {
      "inputs": [
        {
          "internalType": "uint256",
          "name": "level",
          "type": "uint256"
        }
      ],
      "name": "getUpgradePrice",
      "outputs": [
        {
          "internalType": "uint256",
          "name": "",
          "type": "uint256"
        }
      ],
      "stateMutability": "view",
      "type": "function"
    },
    {
      "inputs": [],
      "name": "getWorkersCapacity",
      "outputs": [
        {
          "internalType": "uint256",
          "name": "",
          "type": "uint256"
        }
      ],
      "stateMutability": "view",
      "type": "function"
    },
    {
      "inputs": [],
      "name": "givenProsperityAmount",
      "outputs": [
        {
          "internalType": "uint256",
          "name": "",
          "type": "uint256"
        }
      ],
      "stateMutability": "view",
      "type": "function"
    },
    {
      "inputs": [],
      "name": "handleProductionResourcesChanged",
      "outputs": [],
      "stateMutability": "nonpayable",
      "type": "function"
    },
    {
      "inputs": [
        {
          "internalType": "uint256",
          "name": "capacityAmount",
          "type": "uint256"
        }
      ],
      "name": "increaseAdditionalWorkersCapacityMultiplier",
      "outputs": [],
      "stateMutability": "nonpayable",
      "type": "function"
    },
    {
      "inputs": [
        {
          "internalType": "bytes",
          "name": "initParams",
          "type": "bytes"
        }
      ],
      "name": "init",
      "outputs": [],
      "stateMutability": "nonpayable",
      "type": "function"
    },
    {
      "inputs": [
        {
          "internalType": "bytes32",
          "name": "resourceTypeId",
          "type": "bytes32"
        }
      ],
      "name": "isResourceAcceptable",
      "outputs": [
        {
          "internalType": "bool",
          "name": "",
          "type": "bool"
        }
      ],
      "stateMutability": "view",
      "type": "function"
    },
    {
      "inputs": [
        {
          "internalType": "address",
          "name": "operator",
          "type": "address"
        },
        {
          "internalType": "address",
          "name": "from",
          "type": "address"
        },
        {
          "internalType": "uint256[]",
          "name": "ids",
          "type": "uint256[]"
        },
        {
          "internalType": "uint256[]",
          "name": "values",
          "type": "uint256[]"
        },
        {
          "internalType": "bytes",
          "name": "data",
          "type": "bytes"
        }
      ],
      "name": "onERC1155BatchReceived",
      "outputs": [
        {
          "internalType": "bytes4",
          "name": "",
          "type": "bytes4"
        }
      ],
      "stateMutability": "nonpayable",
      "type": "function"
    },
    {
      "inputs": [
        {
          "internalType": "address",
          "name": "operator",
          "type": "address"
        },
        {
          "internalType": "address",
          "name": "from",
          "type": "address"
        },
        {
          "internalType": "uint256",
          "name": "id",
          "type": "uint256"
        },
        {
          "internalType": "uint256",
          "name": "value",
          "type": "uint256"
        },
        {
          "internalType": "bytes",
          "name": "data",
          "type": "bytes"
        }
      ],
      "name": "onERC1155Received",
      "outputs": [
        {
          "internalType": "bytes4",
          "name": "",
          "type": "bytes4"
        }
      ],
      "stateMutability": "nonpayable",
      "type": "function"
    },
    {
      "inputs": [
        {
          "internalType": "address",
          "name": "",
          "type": "address"
        }
      ],
      "name": "producedResourceDebt",
      "outputs": [
        {
          "internalType": "uint256",
          "name": "",
          "type": "uint256"
        }
      ],
      "stateMutability": "view",
      "type": "function"
    },
    {
      "inputs": [],
      "name": "productionInfo",
      "outputs": [
        {
          "internalType": "uint256",
          "name": "lastUpdateStateTime",
          "type": "uint256"
        },
        {
          "internalType": "uint256",
          "name": "lastUpdateStateRegionTime",
          "type": "uint256"
        },
        {
          "internalType": "uint256",
          "name": "readyToBeDistributed",
          "type": "uint256"
        },
        {
          "internalType": "uint256",
          "name": "totalDebt",
          "type": "uint256"
        }
      ],
      "stateMutability": "view",
      "type": "function"
    },
    {
      "inputs": [],
      "name": "registry",
      "outputs": [
        {
          "internalType": "contract IRegistry",
          "name": "",
          "type": "address"
        }
      ],
      "stateMutability": "view",
      "type": "function"
    },
    {
      "inputs": [],
      "name": "relatedSettlement",
      "outputs": [
        {
          "internalType": "contract ISettlement",
          "name": "",
          "type": "address"
        }
      ],
      "stateMutability": "view",
      "type": "function"
    },
    {
      "inputs": [
        {
          "internalType": "address",
          "name": "workersReceiverAddress",
          "type": "address"
        },
        {
          "internalType": "uint256",
          "name": "workersAmount",
          "type": "uint256"
        },
        {
          "internalType": "address",
          "name": "resourcesReceiverAddress",
          "type": "address"
        },
        {
          "internalType": "bytes32[]",
          "name": "resourceTypeIds",
          "type": "bytes32[]"
        },
        {
          "internalType": "uint256[]",
          "name": "resourcesAmounts",
          "type": "uint256[]"
        }
      ],
      "name": "removeResourcesAndWorkers",
      "outputs": [],
      "stateMutability": "nonpayable",
      "type": "function"
    },
    {
      "inputs": [],
      "name": "resetDistribution",
      "outputs": [],
      "stateMutability": "nonpayable",
      "type": "function"
    },
    {
      "inputs": [
        {
          "internalType": "address",
          "name": "stealerSettlementAddress",
          "type": "address"
        },
        {
          "internalType": "uint256",
          "name": "amount",
          "type": "uint256"
        }
      ],
      "name": "stealTreasury",
      "outputs": [
        {
          "internalType": "uint256",
          "name": "",
          "type": "uint256"
        },
        {
          "internalType": "uint256",
          "name": "",
          "type": "uint256"
        }
      ],
      "stateMutability": "nonpayable",
      "type": "function"
    },
    {
      "inputs": [
        {
          "internalType": "bytes4",
          "name": "interfaceId",
          "type": "bytes4"
        }
      ],
      "name": "supportsInterface",
      "outputs": [
        {
          "internalType": "bool",
          "name": "",
          "type": "bool"
        }
      ],
      "stateMutability": "view",
      "type": "function"
    },
    {
      "inputs": [
        {
          "internalType": "address",
          "name": "from",
          "type": "address"
        },
        {
          "internalType": "address",
          "name": "to",
          "type": "address"
        },
        {
          "internalType": "uint256",
          "name": "amount",
          "type": "uint256"
        }
      ],
      "name": "updateDebtsAccordingToNewDistributionsAmounts",
      "outputs": [],
      "stateMutability": "nonpayable",
      "type": "function"
    },
    {
      "inputs": [],
      "name": "updateState",
      "outputs": [],
      "stateMutability": "nonpayable",
      "type": "function"
    },
    {
      "inputs": [
        {
          "internalType": "address",
          "name": "resourcesOwner",
          "type": "address"
        }
      ],
      "name": "upgradeAdvancedProduction",
      "outputs": [],
      "stateMutability": "nonpayable",
      "type": "function"
    },
    {
      "inputs": [
        {
          "internalType": "address",
          "name": "resourcesOwner",
          "type": "address"
        }
      ],
      "name": "upgradeBasicProduction",
      "outputs": [],
      "stateMutability": "nonpayable",
      "type": "function"
    },
    {
      "inputs": [],
      "name": "upgradeCooldownEndTime",
      "outputs": [
        {
          "internalType": "uint256",
          "name": "",
          "type": "uint256"
        }
      ],
      "stateMutability": "view",
      "type": "function"
    },
    {
      "inputs": [],
      "name": "world",
      "outputs": [
        {
          "internalType": "contract IWorld",
          "name": "",
          "type": "address"
        }
      ],
      "stateMutability": "view",
      "type": "function"
    },
    {
      "inputs": [],
      "name": "worldAssetFactory",
      "outputs": [
        {
          "internalType": "contract IWorldAssetFactory",
          "name": "",
          "type": "address"
        }
      ],
      "stateMutability": "view",
      "type": "function"
    }
  ],
  "bytecode": "0x6080604052348015600f57600080fd5b506159a38061001f6000396000f3fe608060405234801561001057600080fd5b506004361061032a5760003560e01c80638545bc58116101b2578063c724a016116100f9578063e8d4d46d116100a2578063ece56a1a1161007c578063ece56a1a146106d9578063f23a6e61146106e1578063f2477b5b14610701578063ffaf29a01461070957600080fd5b8063e8d4d46d146106a0578063e91bde76146106b3578063eb358534146106c657600080fd5b8063d2bc7d85116100d3578063d2bc7d8514610687578063e05ab4981461068f578063e145c3ad1461069857600080fd5b8063c724a01614610656578063c9c0df6114610676578063d26aaf931461067f57600080fd5b8063ad3662441161015b578063bc197c8111610135578063bc197c81146105ed578063c3f909d414610628578063c45f10001461063d57600080fd5b8063ad366244146105bf578063ae6fd51d146105c7578063b78d1384146105da57600080fd5b80638beab87e1161018c5780638beab87e1461058357806390091872146105a357806391ab778d146105b657600080fd5b80638545bc581461055d5780638a6bbad3146105655780638ae52a381461057b57600080fd5b80633c084b8b1161027657806365e6f4ce1161021f5780637b7a2bfc116101f95780637b7a2bfc146104fc5780637d884c741461050f57806384ba89e31461053657600080fd5b806365e6f4ce146104d95780637abdf949146104e15780637b103999146104f457600080fd5b80634ddf47d4116102505780634ddf47d41461048a578063589ae4001461049d5780635ed697b7146104c557600080fd5b80633c084b8b1461045b57806343e77f461461046e578063486a42d51461048157600080fd5b806314dff0e8116102d85780631e9738d1116102b25780631e9738d11461042d5780631fb91f391461044057806330b67baa1461045357600080fd5b806314dff0e8146103dc578063152d9483146104125780631d8557d71461042557600080fd5b806304b10ac81161030957806304b10ac81461038d5780630b4e99c314610395578063143e55e0146103bc57600080fd5b8062d4fbf81461032f57806301288b521461035557806301ffc9a71461036a575b600080fd5b61034261033d3660046151a1565b610717565b6040519081526020015b60405180910390f35b610368610363366004615217565b610737565b005b61037d6103783660046152bb565b61076d565b604051901515815260200161034c565b6103426107a2565b7f6c85b93e587873fbe6712f3b438d42c2945689b262f7bd34b8ea4e3f832a89ea54610342565b6103c4610814565b6040516001600160a01b03909116815260200161034c565b6004546005546006546007546103f29392919084565b60408051948552602085019390935291830152606082015260800161034c565b6103686104203660046152e5565b6108b8565b610368610a14565b61034261043b366004615326565b610dbc565b61036861044e366004615348565b6110c1565b6103c461154e565b6103426104693660046151a1565b611581565b61036861047c3660046151a1565b6115b5565b61034260095481565b6103686104983660046153ac565b611616565b6104b06104ab366004615446565b61197d565b6040805192835260208301919091520161034c565b6103426104d33660046151a1565b50600090565b610368611d56565b6103426104ef3660046151a1565b61218c565b6103c4612217565b61036861050a366004615348565b61225e565b7f6c85b93e587873fbe6712f3b438d42c2945689b262f7bd34b8ea4e3f832a89e754610342565b7f6c85b93e587873fbe6712f3b438d42c2945689b262f7bd34b8ea4e3f832a89e954610342565b610342612584565b600a54600b54600c54600d546103f29392919084565b610342612596565b6105966105913660046151a1565b61266b565b60405161034c9190615472565b61037d6105b13660046151a1565b612a8d565b61034260085481565b610342612ae6565b6103686105d53660046151a1565b612b00565b6103686105e83660046151a1565b612bae565b61060f6105fb366004615518565b63bc197c8160e01b98975050505050505050565b6040516001600160e01b0319909116815260200161034c565b610630612c9a565b60405161034c91906155e3565b6000546103c4906201000090046001600160a01b031681565b610342610664366004615348565b600f6020526000908152604090205481565b610342600e5481565b610342612d7b565b610368612d97565b61034260015481565b610368612dd6565b6103686106ae366004615348565b612deb565b6103426106c13660046151a1565b61326a565b6103426106d43660046151a1565b6132e5565b6103c46132f8565b61060f6106ef36600461563c565b63f23a6e6160e01b9695505050505050565b61034261333f565b6002546003546104b0919082565b60006005610727836154606156ce565b61073191906156e5565b92915050565b61073f61339c565b6107476134cd565b8515610757576107578787613631565b610764848487858561370f565b50505050505050565b60006001600160e01b03198216630271189760e51b148061073157506301ffc9a760e01b6001600160e01b0319831614610731565b6000806107ad612c9a565b905060005b815181101561080b578181815181106107cd576107cd615707565b60200260200101516040015115610803578181815181106107f0576107f0615707565b6020026020010151600001519250505090565b6001016107b2565b50600092915050565b600061081e61154e565b6001600160a01b031663720a70bd6108547f6c85b93e587873fbe6712f3b438d42c2945689b262f7bd34b8ea4e3f832a89e75490565b6040518263ffffffff1660e01b815260040161087291815260200190565b602060405180830381865afa15801561088f573d6000803e3d6000fd5b505050506040513d601f19601f820116820180604052508101906108b3919061571d565b905090565b6108c0613765565b60006108ca61154e565b6001600160a01b031663e4e940f06040518163ffffffff1660e01b8152600401602060405180830381865afa158015610907573d6000803e3d6000fd5b505050506040513d601f19601f8201168201806040525081019061092b919061571d565b6001600160a01b03166302705c2e6040518163ffffffff1660e01b8152600401602060405180830381865afa158015610968573d6000803e3d6000fd5b505050506040513d601f19601f8201168201806040525081019061098c919061573a565b600c5461099a9084906156ce565b6109a491906156e5565b9050806000036109b45750505050565b6001600160a01b0384166000908152600f60205260409020546109e39085906109de908490615753565b6137f6565b6001600160a01b0383166000908152600f6020526040902054610a0d9084906109de908490615766565b505b505050565b600060029054906101000a90046001600160a01b03166001600160a01b031663e6c15c996040518163ffffffff1660e01b8152600401602060405180830381865afa158015610a67573d6000803e3d6000fd5b505050506040513d601f19601f82011682018060405250810190610a8b919061571d565b6001600160a01b0316631d8557d76040518163ffffffff1660e01b8152600401600060405180830381600087803b158015610ac557600080fd5b505af1158015610ad9573d6000803e3d6000fd5b505050506000610ae7613847565b905080600a6000015403610af85750565b6000610b038261266b565b9050610bf982600060029054906101000a90046001600160a01b03166001600160a01b031663e6c15c996040518163ffffffff1660e01b8152600401602060405180830381865afa158015610b5c573d6000803e3d6000fd5b505050506040513d601f19601f82011682018060405250810190610b80919061571d565b6001600160a01b03166325fc9289856040518263ffffffff1660e01b8152600401610bad91815260200190565b602060405180830381865afa158015610bca573d6000803e3d6000fd5b505050506040513d601f19601f82011682018060405250810190610bee919061573a565b600c54600d5461394f565b60005b8151811015610daf57818181518110610c1757610c17615707565b60200260200101516020015160000315610da757818181518110610c3d57610c3d615707565b60200260200101516040015115610c9757610c92828281518110610c6357610c63615707565b602002602001015160000151838381518110610c8157610c81615707565b6020026020010151602001516139b1565b610da7565b610c9f610814565b6001600160a01b031663912929df838381518110610cbf57610cbf615707565b6020026020010151600001516040518263ffffffff1660e01b8152600401610ce991815260200190565b602060405180830381865afa158015610d06573d6000803e3d6000fd5b505050506040513d601f19601f82011682018060405250810190610d2a919061571d565b6001600160a01b03166342966c68838381518110610d4a57610d4a615707565b6020026020010151602001516040518263ffffffff1660e01b8152600401610d7491815260200190565b600060405180830381600087803b158015610d8e57600080fd5b505af1158015610da2573d6000803e3d6000fd5b505050505b600101610bfc565b50610db8613d2d565b5050565b600080610dc88361266b565b905060005b81518110156110b65784828281518110610de957610de9615707565b602002602001015160000151036110ae57818181518110610e0c57610e0c615707565b60200260200101516040015115610f9d576000610e2a610469612584565b905080600003610e405760009350505050610731565b6000670de0b6b3a764000080858581518110610e5e57610e5e615707565b602002602001015160200151610e7491906156ce565b610e7e91906156e5565b90506000610e8a610814565b6001600160a01b031663912929df610ea06107a2565b6040518263ffffffff1660e01b8152600401610ebe91815260200190565b602060405180830381865afa158015610edb573d6000803e3d6000fd5b505050506040513d601f19601f82011682018060405250810190610eff919061571d565b6040516375719b0160e11b81523060048201526001600160a01b03919091169063eae3360290602401602060405180830381865afa158015610f45573d6000803e3d6000fd5b505050506040513d601f19601f82011682018060405250810190610f69919061573a565b9050828110610f7e5794506107319350505050565b610f91610f8b8284615766565b846140b8565b95505050505050610731565b818181518110610faf57610faf615707565b602002602001015160200151610fc3610814565b6001600160a01b031663912929df876040518263ffffffff1660e01b8152600401610ff091815260200190565b602060405180830381865afa15801561100d573d6000803e3d6000fd5b505050506040513d601f19601f82011682018060405250810190611031919061571d565b6040516375719b0160e11b81523060048201526001600160a01b03919091169063eae3360290602401602060405180830381865afa158015611077573d6000803e3d6000fd5b505050506040513d601f19601f8201168201806040525081019061109b919061573a565b6110a59190615753565b92505050610731565b600101610dcd565b506000949350505050565b6110c961339c565b6110d16134cd565b6110d9610a14565b6008544210156110fc5760405163aa4aed7160e01b815260040160405180910390fd5b6000611106612584565b905060006111138261218c565b60408051808201909152600481526315d3d3d160e21b60209091015290507f5f3d3bfd5b61198148275c178146c21eec5c5ab7e81758f3c651754ae3f1ed426001600160a01b03841661123d57611168610814565b6001600160a01b031663912929df826040518263ffffffff1660e01b815260040161119591815260200190565b602060405180830381865afa1580156111b2573d6000803e3d6000fd5b505050506040513d601f19601f820116820180604052508101906111d6919061571d565b60405163079cc67960e41b8152336004820152602481018490526001600160a01b0391909116906379cc679090604401600060405180830381600087803b15801561122057600080fd5b505af1158015611234573d6000803e3d6000fd5b50505050611385565b6000611247610814565b6001600160a01b031663912929df836040518263ffffffff1660e01b815260040161127491815260200190565b602060405180830381865afa158015611291573d6000803e3d6000fd5b505050506040513d601f19601f820116820180604052508101906112b5919061571d565b60405163dd8aaa4f60e01b81526001600160a01b038781166004830152336024830152604482018690529192509082169063dd8aaa4f90606401600060405180830381600087803b15801561130957600080fd5b505af115801561131d573d6000803e3d6000fd5b505060405163079cc67960e41b81526001600160a01b03888116600483015260248201879052841692506379cc67909150604401600060405180830381600087803b15801561136b57600080fd5b505af115801561137f573d6000803e3d6000fd5b50505050505b600060029054906101000a90046001600160a01b03166001600160a01b031663e6c15c996040518163ffffffff1660e01b8152600401602060405180830381865afa1580156113d8573d6000803e3d6000fd5b505050506040513d601f19601f820116820180604052508101906113fc919061571d565b6000546001600160a01b0391821691635053c2999162010000900416670de0b6b3a76400008561142b866140d0565b61143591906156ce565b61143f91906156e5565b6040516001600160e01b031960e085901b1681526001600160a01b0390921660048301526024820152604401600060405180830381600087803b15801561148557600080fd5b505af1158015611499573d6000803e3d6000fd5b505050506114a683610717565b6114b09042615766565b6008556003546000906114c28561326a565b6114d06106c1876001615766565b6114da9190615753565b6114e49190615766565b6002549091506000906114f8906001615766565b60038390556002819055905061150c613d2d565b60408051828152602081018490527fa933a9f591d9b53ffc6316451d228c163207767426d4097ffa9434c2efa4f6ba91015b60405180910390a1505050505050565b60006108b37f6c85b93e587873fbe6712f3b438d42c2945689b262f7bd34b8ea4e3f832a89e6546001600160a01b031690565b6000600261158e8361326a565b6115989190615860565b6115a390600a6156ce565b61073190670de0b6b3a76400006156ce565b6115bd614233565b6115c5610a14565b6006546000906115d6908390615753565b60068190556040518181529091507fa5b080ca657305a05e233a1bdfe1cb5a92588bd94928658051cf6ea8d91ae4b1906020015b60405180910390a15050565b600054610100900460ff16158080156116365750600054600160ff909116105b806116505750303b158015611650575060005460ff166001145b6116c65760405162461bcd60e51b815260206004820152602e60248201527f496e697469616c697a61626c653a20636f6e747261637420697320616c72656160448201527f647920696e697469616c697a6564000000000000000000000000000000000000606482015260840160405180910390fd5b6000805460ff1916600117905580156116e9576000805461ff0019166101001790555b60008083806020019051810190611700919061586f565b600080547fffffffffffffffffffff0000000000000000000000000000000000000000ffff16620100006001600160a01b038581168202929092179283905560018481556002819055600381905560048181556005919091556040805163e6c15c9960e01b8152905196985094965061183b954295929094049092169263e6c15c99928281019260209291908290030181865afa1580156117a5573d6000803e3d6000fd5b505050506040513d601f19601f820116820180604052508101906117c9919061571d565b6040516325fc928960e01b81524260048201526001600160a01b0391909116906325fc928990602401602060405180830381865afa15801561180f573d6000803e3d6000fd5b505050506040513d601f19601f82011682018060405250810190611833919061573a565b60008061394f565b61184361431d565b6000611850610469612584565b9050801561193857611860610814565b6001600160a01b031663912929df6118766107a2565b6040518263ffffffff1660e01b815260040161189491815260200190565b602060405180830381865afa1580156118b1573d6000803e3d6000fd5b505050506040513d601f19601f820116820180604052508101906118d5919061571d565b6040516340c10f1960e01b8152306004820152602481018390526001600160a01b0391909116906340c10f1990604401600060405180830381600087803b15801561191f57600080fd5b505af1158015611933573d6000803e3d6000fd5b505050505b5050508015610db8576000805461ff0019169055604051600181527f7f26b83ff96e1f2b6a682f133852f6798a09c465da95921460cefb38474024989060200161160a565b600080611988614233565b611990610a14565b600061199a610814565b6001600160a01b031663912929df6119b06107a2565b6040518263ffffffff1660e01b81526004016119ce91815260200190565b602060405180830381865afa1580156119eb573d6000803e3d6000fd5b505050506040513d601f19601f82011682018060405250810190611a0f919061571d565b90506000611a8f611a21610469612584565b6040516375719b0160e11b81523060048201526001600160a01b0385169063eae33602906024015b602060405180830381865afa158015611a66573d6000803e3d6000fd5b505050506040513d601f19601f82011682018060405250810190611a8a919061573a565b6140b8565b905080600003611aa757600080935093505050611d4f565b611ab181866140b8565b600154604051631b973c5760e21b815291965087916000916001600160a01b03841691636e5cf15c91611aea9160040190815260200190565b602060405180830381865afa158015611b07573d6000803e3d6000fd5b505050506040513d601f19601f82011682018060405250810190611b2b919061571d565b9050806001600160a01b0316631d8557d76040518163ffffffff1660e01b8152600401600060405180830381600087803b158015611b6857600080fd5b505af1158015611b7c573d6000803e3d6000fd5b505050506000816001600160a01b0316633c084b8b836001600160a01b0316638545bc586040518163ffffffff1660e01b8152600401602060405180830381865afa158015611bcf573d6000803e3d6000fd5b505050506040513d601f19601f82011682018060405250810190611bf3919061573a565b6040518263ffffffff1660e01b8152600401611c1191815260200190565b602060405180830381865afa158015611c2e573d6000803e3d6000fd5b505050506040513d601f19601f82011682018060405250810190611c52919061573a565b6040516375719b0160e11b81526001600160a01b038481166004830152919250600091611c8c91849189169063eae3360290602401611a49565b90506000611c9a8284615753565b90506000611ca8828c6140b8565b90506000611cb6828d615753565b90508115611d335760405163a9059cbb60e01b81526001600160a01b038781166004830152602482018490528a169063a9059cbb906044016020604051808303816000875af1158015611d0d573d6000803e3d6000fd5b505050506040513d601f19601f82011682018060405250810190611d31919061589d565b505b8015611d4257611d4281612bae565b9099509750505050505050505b9250929050565b611d5e610a14565b600c546000611d6b6107a2565b90506000611d77610814565b6001600160a01b031663912929df836040518263ffffffff1660e01b8152600401611da491815260200190565b602060405180830381865afa158015611dc1573d6000803e3d6000fd5b505050506040513d601f19601f82011682018060405250810190611de5919061571d565b90506000611df161154e565b6001600160a01b031663e4e940f06040518163ffffffff1660e01b8152600401602060405180830381865afa158015611e2e573d6000803e3d6000fd5b505050506040513d601f19601f82011682018060405250810190611e52919061571d565b90506000816001600160a01b03166302705c2e6040518163ffffffff1660e01b8152600401602060405180830381865afa158015611e94573d6000803e3d6000fd5b505050506040513d601f19601f82011682018060405250810190611eb8919061573a565b9050846000611ec561154e565b6001600160a01b031663e4e940f06040518163ffffffff1660e01b8152600401602060405180830381865afa158015611f02573d6000803e3d6000fd5b505050506040513d601f19601f82011682018060405250810190611f26919061571d565b6001600160a01b03166361a5d38c600e546040518263ffffffff1660e01b8152600401611f5591815260200190565b600060405180830381865afa158015611f72573d6000803e3d6000fd5b505050506040513d6000823e601f3d908101601f19168201604052611f9a91908101906158bf565b905060005b8151811015612178576000828281518110611fbc57611fbc615707565b6020908102919091018101516001600160a01b038082166000818152600f909452604080852054600e549151627eeac760e11b81526004810193909352602483019190915292945091929188918a169062fdd58e90604401602060405180830381865afa158015612031573d6000803e3d6000fd5b505050506040513d601f19601f82011682018060405250810190612055919061573a565b61205f908d6156ce565b61206991906156e5565b9050600082821161207b576000612085565b6120858383615753565b90508215612098576120988460006137f6565b6120a28184615766565b6120ac9088615753565b9650806000036120bf5750505050612170565b6040516340c10f1960e01b81526001600160a01b038581166004830152602482018390528b16906340c10f1990604401600060405180830381600087803b15801561210957600080fd5b505af115801561211d573d6000803e3d6000fd5b5050604080518e81526001600160a01b03881660208201529081018490527f4e4307e8da7cc13a61821561768c6b298d5d9ee55985f18cb747099e3f9fa8759250606001905060405180910390a1505050505b600101611f9f565b50600a54600b54610764919084600061394f565b60008061219883611581565b905060006121aa610469856001615766565b9050600060646121bb84604b6156ce565b6121c591906156e5565b905060006121d38284615753565b905060006121e26006836156e5565b9050670de0b6b3a76400006121f86001546144af565b61220290836156ce565b61220c91906156e5565b979650505050505050565b600061222161154e565b6001600160a01b0316637b1039996040518163ffffffff1660e01b8152600401602060405180830381865afa15801561088f573d6000803e3d6000fd5b612266610a14565b600061227061154e565b6001600160a01b031663e4e940f06040518163ffffffff1660e01b8152600401602060405180830381865afa1580156122ad573d6000803e3d6000fd5b505050506040513d601f19601f820116820180604052508101906122d1919061571d565b600e54604051627eeac760e11b81526001600160a01b03858116600483015260248201929092529192506000919083169062fdd58e90604401602060405180830381865afa158015612327573d6000803e3d6000fd5b505050506040513d601f19601f8201168201806040525081019061234b919061573a565b90508060000361235a57505050565b6001600160a01b038084166000908152600f602090815260408083205481516301382e1760e11b8152915190948716926302705c2e92600480820193918290030181865afa1580156123b0573d6000803e3d6000fd5b505050506040513d601f19601f820116820180604052508101906123d4919061573a565b600c546123e29085906156ce565b6123ec91906156e5565b905060008282116123fe576000612408565b6124088383615753565b90508060000361241a57505050505050565b612428866109de8386615766565b600a54600b54600c54600d5461244b93929190612446908690615766565b61394f565b60006124556107a2565b905061245f610814565b6001600160a01b031663912929df826040518263ffffffff1660e01b815260040161248c91815260200190565b602060405180830381865afa1580156124a9573d6000803e3d6000fd5b505050506040513d601f19601f820116820180604052508101906124cd919061571d565b6040516340c10f1960e01b81526001600160a01b0389811660048301526024820185905291909116906340c10f1990604401600060405180830381600087803b15801561251957600080fd5b505af115801561252d573d6000803e3d6000fd5b5050604080518481526001600160a01b038b1660208201529081018590527f4e4307e8da7cc13a61821561768c6b298d5d9ee55985f18cb747099e3f9fa8759250606001905060405180910390a150505050505050565b6004546002546000916108b391615766565b60006125a0610814565b6001600160a01b031663cabb62f06040518163ffffffff1660e01b8152600401602060405180830381865afa1580156125dd573d6000803e3d6000fd5b505050506040513d601f19601f82011682018060405250810190612601919061571d565b6040516370a0823160e01b81523060048201526001600160a01b0391909116906370a0823190602401602060405180830381865afa158015612647573d6000803e3d6000fd5b505050506040513d601f19601f820116820180604052508101906108b3919061573a565b606081600003612679574291505b600061268361154e565b6001600160a01b0316633c8ca83d6040518163ffffffff1660e01b8152600401602060405180830381865afa1580156126c0573d6000803e3d6000fd5b505050506040513d601f19601f820116820180604052508101906126e4919061573a565b9050808310156126f2578092505b60006126fc61154e565b6001600160a01b03166344d9bc5f6040518163ffffffff1660e01b8152600401602060405180830381865afa158015612739573d6000803e3d6000fd5b505050506040513d601f19601f8201168201806040525081019061275d919061573a565b905080156127725761276f84826140b8565b93505b600061277c612c9a565b90506000815167ffffffffffffffff81111561279a5761279a615365565b6040519080825280602002602001820160405280156127e557816020015b60408051606081018252600080825260208083018290529282015282526000199092019101816127b85790505b50905060005b825181101561287157604051806060016040528084838151811061281157612811615707565b60200260200101516000015181526020016000815260200184838151811061283b5761283b615707565b602002602001015160400151151581525082828151811061285e5761285e615707565b60209081029190910101526001016127eb565b50600a54600b5485821015612887575084905060005b81881161289a5750909695505050505050565b60008060029054906101000a90046001600160a01b03166001600160a01b031663e6c15c996040518163ffffffff1660e01b8152600401602060405180830381865afa1580156128ee573d6000803e3d6000fd5b505050506040513d601f19601f82011682018060405250810190612912919061571d565b6001600160a01b03166325fc92898a6040518263ffffffff1660e01b815260040161293f91815260200190565b602060405180830381865afa15801561295c573d6000803e3d6000fd5b505050506040513d601f19601f82011682018060405250810190612980919061573a565b9050600061298e8383614653565b905060006129a284846004600301546146cd565b905060005b8751811015612a7d57818882815181106129c3576129c3615707565b6020026020010151602001516129d991906156ce565b8782815181106129eb576129eb615707565b60200260200101516020018181525050868181518110612a0d57612a0d615707565b60200260200101516040015115612a755782888281518110612a3157612a31615707565b602002602001015160200151612a4791906156ce565b878281518110612a5957612a59615707565b6020026020010151602001818151612a719190615766565b9052505b6001016129a7565b50949a9950505050505050505050565b600080612a98612c9a565b905060005b8151811015612adc5783828281518110612ab957612ab9615707565b60200260200101516000015103612ad4575060019392505050565b600101612a9d565b5060009392505050565b6000612af360015461475a565b6005546108b391906156ce565b612b08614233565b612b10610a14565b600654600090612b21908390615766565b60068190556040518181529091507fa5b080ca657305a05e233a1bdfe1cb5a92588bd94928658051cf6ea8d91ae4b19060200160405180910390a16000612b66612d7b565b90506000612b72612596565b905081811115610a0d576000612b888383615753565b600054909150612ba7906201000090046001600160a01b031682613631565b5050505050565b612bb6614233565b6000612bc0610814565b6001600160a01b031663912929df612bd66107a2565b6040518263ffffffff1660e01b8152600401612bf491815260200190565b602060405180830381865afa158015612c11573d6000803e3d6000fd5b505050506040513d601f19601f82011682018060405250810190612c35919061571d565b604051630852cd8d60e31b8152600481018490529091506001600160a01b038216906342966c6890602401600060405180830381600087803b158015612c7a57600080fd5b505af1158015612c8e573d6000803e3d6000fd5b50505050610db8613d2d565b60408051600180825281830190925260609160009190816020015b6040805160608101825260008082526020808301829052928201528252600019909201910181612cb55750506040805160a0810190915260046060820152631193d3d160e21b60808201527f2f6f5a261d6f4514c3f09a834720fe583c82f2ee4758ce9a45fbd67428e9f93d815290915060208101612710612d4262015180678ac7230489e800006156e5565b612d4c91906156e5565b81526020016001151581525081600081518110612d6b57612d6b615707565b6020908102919091010152919050565b6000612d8561333f565b612d8d612ae6565b6108b39190615753565b612d9f6148fe565b612da7614998565b612dc457604051630b7395e560e21b815260040160405180910390fd5b612dcc611d56565b612dd461431d565b565b612dde613d2d565b612de6614ada565b600755565b612df361339c565b612dfb6134cd565b612e03610a14565b600854421015612e265760405163aa4aed7160e01b815260040160405180910390fd5b6000612e30612584565b90506000612e3d8261218c565b6040805180820190915260038152624f524560e81b60209091015290507f9db51ceeef36d28f4a713ba944bdadb00e988c5676c92710eaf0e194efb4cb556001600160a01b038416612f6657612e91610814565b6001600160a01b031663912929df826040518263ffffffff1660e01b8152600401612ebe91815260200190565b602060405180830381865afa158015612edb573d6000803e3d6000fd5b505050506040513d601f19601f82011682018060405250810190612eff919061571d565b60405163079cc67960e41b8152336004820152602481018490526001600160a01b0391909116906379cc679090604401600060405180830381600087803b158015612f4957600080fd5b505af1158015612f5d573d6000803e3d6000fd5b505050506130ae565b6000612f70610814565b6001600160a01b031663912929df836040518263ffffffff1660e01b8152600401612f9d91815260200190565b602060405180830381865afa158015612fba573d6000803e3d6000fd5b505050506040513d601f19601f82011682018060405250810190612fde919061571d565b60405163dd8aaa4f60e01b81526001600160a01b038781166004830152336024830152604482018690529192509082169063dd8aaa4f90606401600060405180830381600087803b15801561303257600080fd5b505af1158015613046573d6000803e3d6000fd5b505060405163079cc67960e41b81526001600160a01b03888116600483015260248201879052841692506379cc67909150604401600060405180830381600087803b15801561309457600080fd5b505af11580156130a8573d6000803e3d6000fd5b50505050505b600060029054906101000a90046001600160a01b03166001600160a01b031663e6c15c996040518163ffffffff1660e01b8152600401602060405180830381865afa158015613101573d6000803e3d6000fd5b505050506040513d601f19601f82011682018060405250810190613125919061571d565b6000546001600160a01b0391821691635053c2999162010000900416670de0b6b3a764000085613154866140d0565b61315e91906156ce565b61316891906156e5565b6040516001600160e01b031960e085901b1681526001600160a01b0390921660048301526024820152604401600060405180830381600087803b1580156131ae57600080fd5b505af11580156131c2573d6000803e3d6000fd5b505050506131ce600090565b6131d89042615766565b6008556005546000906131ea8561326a565b6131f86106c1876001615766565b6132029190615753565b61320c9190615766565b600454909150600090613220906001615766565b600583905560048190559050613234613d2d565b60408051828152602081018490527fd8f5076bf9515e2fc9ee2b3472c1f34b0474833710bcd006c2b502e6c659c9fd910161153e565b600060058161327982856156e5565b9050600061328783836156ce565b6132919086615753565b90506000836002846132a4816001615766565b6132ae91906156ce565b6132b891906156e5565b6132c291906156ce565b905060006132d1846001615766565b6132db90846156ce565b61220c9083615766565b60006107316132f26107a2565b83610dbc565b6000613302612217565b6001600160a01b031663ece56a1a6040518163ffffffff1660e01b8152600401602060405180830381865afa15801561088f573d6000803e3d6000fd5b600080613359600460020154670de0b6b3a76400006140b8565b90506000613365612ae6565b9050613395670de0b6b3a764000061337d84846156ce565b61338791906156e5565b670de0b6b3a7640000614c6b565b9250505090565b60006133a661154e565b6001600160a01b0316633c8ca83d6040518163ffffffff1660e01b8152600401602060405180830381865afa1580156133e3573d6000803e3d6000fd5b505050506040513d601f19601f82011682018060405250810190613407919061573a565b9050600061341361154e565b6001600160a01b03166344d9bc5f6040518163ffffffff1660e01b8152600401602060405180830381865afa158015613450573d6000803e3d6000fd5b505050506040513d601f19601f82011682018060405250810190613474919061573a565b905081158061348257508142105b156134a05760405163a00eda6960e01b815260040160405180910390fd5b80158015906134af5750804210155b15610db85760405163a00eda6960e01b815260040160405180910390fd5b600054604051631b0b969d60e01b8152336004820152620100009091046001600160a01b031690631b0b969d90602401602060405180830381865afa15801561351a573d6000803e3d6000fd5b505050506040513d601f19601f8201168201806040525081019061353e919061589d565b158015613564575061354e61154e565b6001600160a01b0316336001600160a01b031614155b80156136135750600061357561154e565b6001600160a01b031663ebbe80346135ab7f6c85b93e587873fbe6712f3b438d42c2945689b262f7bd34b8ea4e3f832a89e75490565b6040516001600160e01b031960e084901b1681526004810191909152336024820152604401602060405180830381865afa1580156135ed573d6000803e3d6000fd5b505050506040513d601f19601f82011682018060405250810190613611919061573a565b145b15612dd457604051630d319e2360e41b815260040160405180910390fd5b613639610814565b6001600160a01b031663cabb62f06040518163ffffffff1660e01b8152600401602060405180830381865afa158015613676573d6000803e3d6000fd5b505050506040513d601f19601f8201168201806040525081019061369a919061571d565b60405163a9059cbb60e01b81526001600160a01b03848116600483015260248201849052919091169063a9059cbb906044016020604051808303816000875af11580156136eb573d6000803e3d6000fd5b505050506040513d601f19601f82011682018060405250810190610a0f919061589d565b60005b8481101561375d5761375586868381811061372f5761372f615707565b905060200201358585858581811061374957613749615707565b90506020020135614c82565b600101613712565b505050505050565b3361376e61154e565b6001600160a01b031663e4e940f06040518163ffffffff1660e01b8152600401602060405180830381865afa1580156137ab573d6000803e3d6000fd5b505050506040513d601f19601f820116820180604052508101906137cf919061571d565b6001600160a01b031614612dd457604051638f857a2960e01b815260040160405180910390fd5b6001600160a01b0382166000818152600f6020908152604091829020849055815192835282018390527fdcea61563ab9f107db39d481e10a7eda8e255efb99c1bf6c57f2b2e5a8a6f90e910161160a565b60008061385261154e565b6001600160a01b0316633c8ca83d6040518163ffffffff1660e01b8152600401602060405180830381865afa15801561388f573d6000803e3d6000fd5b505050506040513d601f19601f820116820180604052508101906138b3919061573a565b905060006138bf61154e565b6001600160a01b03166344d9bc5f6040518163ffffffff1660e01b8152600401602060405180830381865afa1580156138fc573d6000803e3d6000fd5b505050506040513d601f19601f82011682018060405250810190613920919061573a565b9050428281101561392e5750815b8160000361393d579392505050565b61394781836140b8565b935050505090565b600a849055600b839055600c829055600d8190556040805185815260208101859052908101839052606081018290527f0975f780ca30f886d7a3b13619106b83bfcd25cf1d64d5c2dd20e3546c4badf59060800160405180910390a150505050565b806000036139bd575050565b6000670de0b6b3a76400006139d281846156ce565b6139dc91906156e5565b905060006139e8610814565b6001600160a01b031663912929df856040518263ffffffff1660e01b8152600401613a1591815260200190565b602060405180830381865afa158015613a32573d6000803e3d6000fd5b505050506040513d601f19601f82011682018060405250810190613a56919061571d565b6040516375719b0160e11b81523060048201526001600160a01b03919091169063eae3360290602401602060405180830381865afa158015613a9c573d6000803e3d6000fd5b505050506040513d601f19601f82011682018060405250810190613ac0919061573a565b90506000613acf610469612584565b9050808210613ae15760009250613aff565b613aeb8282615753565b831115613aff57613afc8282615753565b92505b8215613bec57613b0d610814565b6001600160a01b031663912929df866040518263ffffffff1660e01b8152600401613b3a91815260200190565b602060405180830381865afa158015613b57573d6000803e3d6000fd5b505050506040513d601f19601f82011682018060405250810190613b7b919061571d565b6040516340c10f1960e01b8152306004820152602481018590526001600160a01b0391909116906340c10f1990604401600060405180830381600087803b158015613bc557600080fd5b505af1158015613bd9573d6000803e3d6000fd5b505050508284613be99190615753565b93505b8315612ba757600060029054906101000a90046001600160a01b03166001600160a01b031663e6c15c996040518163ffffffff1660e01b8152600401602060405180830381865afa158015613c45573d6000803e3d6000fd5b505050506040513d601f19601f82011682018060405250810190613c69919061571d565b6000546001600160a01b039182169163e85b89d99162010000900416670de0b6b3a764000087613c988a6140d0565b613ca291906156ce565b613cac91906156e5565b6040516001600160e01b031960e085901b1681526001600160a01b0390921660048301526024820152604401600060405180830381600087803b158015613cf257600080fd5b505af1158015613d06573d6000803e3d6000fd5b5050600a54600b54600c54612ba7945091925090613d25908890615766565b600d5461394f565b6000613d37612584565b90506000613d448261326a565b90506000613d50610814565b6001600160a01b031663912929df613d666107a2565b6040518263ffffffff1660e01b8152600401613d8491815260200190565b602060405180830381865afa158015613da1573d6000803e3d6000fd5b505050506040513d601f19601f82011682018060405250810190613dc5919061571d565b6040516375719b0160e11b81523060048201526001600160a01b03919091169063eae3360290602401602060405180830381865afa158015613e0b573d6000803e3d6000fd5b505050506040513d601f19601f82011682018060405250810190613e2f919061573a565b6009549091506000613e47613e426107a2565b614e2d565b90506000670de0b6b3a764000085613e5f84876156ce565b613e6991906156e5565b613e7391906156e5565b90506000670de0b6b3a76400008684613e8b8a611581565b613e9591906156ce565b613e9f91906156e5565b613ea991906156e5565b90506000613eb782846140b8565b6009819055905080851115613fb857613ece610814565b6001600160a01b031663c91b95666040518163ffffffff1660e01b8152600401602060405180830381865afa158015613f0b573d6000803e3d6000fd5b505050506040513d601f19601f82011682018060405250810190613f2f919061571d565b6000546001600160a01b03918216916379cc67909162010000900416613f558489615753565b6040516001600160e01b031960e085901b1681526001600160a01b0390921660048301526024820152604401600060405180830381600087803b158015613f9b57600080fd5b505af1158015613faf573d6000803e3d6000fd5b505050506140ae565b808510156140ae57613fc8610814565b6001600160a01b031663c91b95666040518163ffffffff1660e01b8152600401602060405180830381865afa158015614005573d6000803e3d6000fd5b505050506040513d601f19601f82011682018060405250810190614029919061571d565b6000546001600160a01b03918216916340c10f19916201000090041661404f8885615753565b6040516001600160e01b031960e085901b1681526001600160a01b0390921660048301526024820152604401600060405180830381600087803b15801561409557600080fd5b505af11580156140a9573d6000803e3d6000fd5b505050505b5050505050505050565b60008183106140c757816140c9565b825b9392505050565b6040805180820190915260048152631193d3d160e21b60209091015260007fd090a5d9e290baeb3c0f657cb8df01a7c37d0d11b8a73165ba04298bd71606c382016141245750670429d069189e0000919050565b60408051808201909152600481526315d3d3d160e21b6020909101527fa0c2c402a49ee67eb7d8a3e87eb93de113a3a54817e8a70c39ae8ab51c0e12be82016141765750670de0b6b3a7640000919050565b6040805180820190915260038152624f524560e81b6020909101527f624ae31110c92d70b58ec456bb42524ff16773a98936d8ef150f1e6b104b34ab82016141c757506729a2241af62c0000919050565b604080518082019091526005815264125391d3d560da1b6020909101527f0b2c26746c5e8d6f1877c4437947c29fc4d8103cd72878c4c039b7afe27c1a8e820161421a5750678ac7230489e80000919050565b60405163ea3b0abb60e01b815260040160405180910390fd5b61423b61154e565b6001600160a01b0316336001600160a01b0316141580156142ff5750600061426161154e565b6001600160a01b031663ebbe80346142977f6c85b93e587873fbe6712f3b438d42c2945689b262f7bd34b8ea4e3f832a89e75490565b6040516001600160e01b031960e084901b1681526004810191909152336024820152604401602060405180830381865afa1580156142d9573d6000803e3d6000fd5b505050506040513d601f19601f820116820180604052508101906142fd919061573a565b145b15612dd45760405163422656d160e01b815260040160405180910390fd5b61432561154e565b6001600160a01b031663e4e940f06040518163ffffffff1660e01b8152600401602060405180830381865afa158015614362573d6000803e3d6000fd5b505050506040513d601f19601f82011682018060405250810190614386919061571d565b6001600160a01b0316636a627842600060029054906101000a90046001600160a01b03166001600160a01b031663b5acd4566040518163ffffffff1660e01b8152600401602060405180830381865afa1580156143e7573d6000803e3d6000fd5b505050506040513d601f19601f8201168201806040525081019061440b919061571d565b6040516001600160e01b031960e084901b1681526001600160a01b0390911660048201526024016020604051808303816000875af1158015614451573d6000803e3d6000fd5b505050506040513d601f19601f82011682018060405250810190614475919061573a565b600e8190556040519081527f21685fff63336d20fb2b74ff6a44da978e162f9199732816249248bad82657239060200160405180910390a1565b6040805180820190915260048152634641524d60e01b60209091015260007fea182adbe8a99c0376d68ae8663b1e572fb013df4142853d0efacd6d83e4a3f3820161450357506706f05b59d3b20000919050565b60408051808201909152600a8152691315535091549352531360b21b6020909101527f9105c25cd4a4f5de306390a4361214e261c5b47733a14849b60e1afd6befe9a7820161455b5750670de0b6b3a7640000919050565b6040805180820190915260048152634d494e4560e01b6020909101527fba703fbcaf9339015e918255c7c6fb66106877b9277228701a99875362186bbc82016145ad5750671bc16d674ec80000919050565b604080518082019091526006815265534d4954485960d01b6020909101527f172dd3f67874f5199aae0df823a0dbc7dc361e67643d2a2054a704e56cc7902e82016146015750673782dace9d900000919050565b6040805180820190915260048152631193d49560e21b6020909101527fd6ee2a35c7750db1280c6e5b14dbb9643f0276ca328c44ef8a35818fd5bd14e7820161421a5750671bc16d674ec80000919050565b6000806146608484615753565b90506000614680670de0b6b3a764000069021e19e0c9bab24000006156e5565b61469290670de0b6b3a76400006156e5565b61469c90836156e5565b9050670de0b6b3a7640000816146b0614f7f565b6146ba91906156ce565b6146c491906156e5565b95945050505050565b60008383116146de575060006140c9565b60006146ea8585615753565b905060006146f6614fd3565b90506000614716670de0b6b3a764000069021e19e0c9bab24000006156e5565b61472890670de0b6b3a76400006156e5565b61473290846156e5565b905061220c670de0b6b3a764000061474a84846156ce565b61475491906156e5565b866140b8565b6040805180820190915260048152634641524d60e01b60209091015260007fea182adbe8a99c0376d68ae8663b1e572fb013df4142853d0efacd6d83e4a3f382016147ae5750678ac7230489e80000919050565b60408051808201909152600a8152691315535091549352531360b21b6020909101527f9105c25cd4a4f5de306390a4361214e261c5b47733a14849b60e1afd6befe9a782016148065750676124fee993bc0000919050565b6040805180820190915260048152634d494e4560e01b6020909101527fba703fbcaf9339015e918255c7c6fb66106877b9277228701a99875362186bbc82016148585750674563918244f40000919050565b604080518082019091526006815265534d4954485960d01b6020909101527f172dd3f67874f5199aae0df823a0dbc7dc361e67643d2a2054a704e56cc7902e82016148ac57506729a2241af62c0000919050565b6040805180820190915260048152631193d49560e21b6020909101527fd6ee2a35c7750db1280c6e5b14dbb9643f0276ca328c44ef8a35818fd5bd14e7820161421a5750674563918244f40000919050565b60005460408051635ad66a2b60e11b8152905133926201000090046001600160a01b03169163b5acd4569160048083019260209291908290030181865afa15801561494d573d6000803e3d6000fd5b505050506040513d601f19601f82011682018060405250810190614971919061571d565b6001600160a01b031614612dd457604051639807ee1760e01b815260040160405180910390fd5b6000806149a6610469612584565b905060006149b26107a2565b9050806149c25760009250505090565b6000670de0b6b3a76400006149df670429d069189e0000856156ce565b6149e991906156e5565b905060006149f5610814565b6001600160a01b031663912929df846040518263ffffffff1660e01b8152600401614a2291815260200190565b602060405180830381865afa158015614a3f573d6000803e3d6000fd5b505050506040513d601f19601f82011682018060405250810190614a63919061571d565b6040516370a0823160e01b81523060048201526001600160a01b0391909116906370a0823190602401602060405180830381865afa158015614aa9573d6000803e3d6000fd5b505050506040513d601f19601f82011682018060405250810190614acd919061573a565b9190911115949350505050565b600080614ae5612c9a565b905060001960005b8251811015614c6457828181518110614b0857614b08615707565b602002602001015160400151614c5c576000614b22610814565b6001600160a01b031663912929df858481518110614b4257614b42615707565b6020026020010151600001516040518263ffffffff1660e01b8152600401614b6c91815260200190565b602060405180830381865afa158015614b89573d6000803e3d6000fd5b505050506040513d601f19601f82011682018060405250810190614bad919061571d565b6040516375719b0160e11b81523060048201526001600160a01b03919091169063eae3360290602401602060405180830381865afa158015614bf3573d6000803e3d6000fd5b505050506040513d601f19601f82011682018060405250810190614c17919061573a565b905080600003614c2c57600094505050505090565b614c58848381518110614c4157614c41615707565b60200260200101516020015182610f8b91906156e5565b9250505b600101614aed565b5092915050565b600081614c7881856156e5565b6140c991906156ce565b614c8a610a14565b614c926107a2565b8303614cb157604051632dbfd57b60e01b815260040160405180910390fd5b6000614cbb610814565b6001600160a01b031663912929df856040518263ffffffff1660e01b8152600401614ce891815260200190565b602060405180830381865afa158015614d05573d6000803e3d6000fd5b505050506040513d601f19601f82011682018060405250810190614d29919061571d565b6040516370a0823160e01b81523060048201529091506000906001600160a01b038316906370a0823190602401602060405180830381865afa158015614d73573d6000803e3d6000fd5b505050506040513d601f19601f82011682018060405250810190614d97919061573a565b905080600003614da8575050505050565b80831115614db4578092505b8215612ba75760405163a9059cbb60e01b81526001600160a01b0385811660048301526024820185905283169063a9059cbb906044016020604051808303816000875af1158015614e09573d6000803e3d6000fd5b505050506040513d601f19601f8201168201806040525081019061375d919061589d565b6040805180820190915260048152631193d3d160e21b60209091015260007fd090a5d9e290baeb3c0f657cb8df01a7c37d0d11b8a73165ba04298bd71606c38201614e8157506706f05b59d3b20000919050565b60408051808201909152600481526315d3d3d160e21b6020909101527fa0c2c402a49ee67eb7d8a3e87eb93de113a3a54817e8a70c39ae8ab51c0e12be8201614ed35750670de0b6b3a7640000919050565b6040805180820190915260038152624f524560e81b6020909101527f624ae31110c92d70b58ec456bb42524ff16773a98936d8ef150f1e6b104b34ab8201614f245750671bc16d674ec80000919050565b604080518082019091526005815264125391d3d560da1b6020909101527f0b2c26746c5e8d6f1877c4437947c29fc4d8103cd72878c4c039b7afe27c1a8e8201614f7757506729a2241af62c0000919050565b506000919050565b600154600090670de0b6b3a76400006005614f998361475a565b614fa284614ffd565b600354614faf91906156ce565b614fb991906156ce565b614fc391906156ce565b614fcd91906156e5565b91505090565b600080614fde61333f565b614fe6612596565b614ff09190615766565b9050614fcd6005826156ce565b6040805180820190915260048152634641524d60e01b60209091015260007fea182adbe8a99c0376d68ae8663b1e572fb013df4142853d0efacd6d83e4a3f3820161505157506706f05b59d3b20000919050565b60408051808201909152600a8152691315535091549352531360b21b6020909101527f9105c25cd4a4f5de306390a4361214e261c5b47733a14849b60e1afd6befe9a782016150a957506705f7aab8c56b0000919050565b6040805180820190915260048152634d494e4560e01b6020909101527fba703fbcaf9339015e918255c7c6fb66106877b9277228701a99875362186bbc82016150fb575067058d15e176280000919050565b604080518082019091526006815265534d4954485960d01b6020909101527f172dd3f67874f5199aae0df823a0dbc7dc361e67643d2a2054a704e56cc7902e820161514f5750670494654067e10000919050565b6040805180820190915260048152631193d49560e21b6020909101527fd6ee2a35c7750db1280c6e5b14dbb9643f0276ca328c44ef8a35818fd5bd14e7820161421a575067058d15e176280000919050565b6000602082840312156151b357600080fd5b5035919050565b6001600160a01b03811681146151cf57600080fd5b50565b60008083601f8401126151e457600080fd5b50813567ffffffffffffffff8111156151fc57600080fd5b6020830191508360208260051b8501011115611d4f57600080fd5b600080600080600080600060a0888a03121561523257600080fd5b873561523d816151ba565b9650602088013595506040880135615254816151ba565b9450606088013567ffffffffffffffff81111561527057600080fd5b61527c8a828b016151d2565b909550935050608088013567ffffffffffffffff81111561529c57600080fd5b6152a88a828b016151d2565b989b979a50959850939692959293505050565b6000602082840312156152cd57600080fd5b81356001600160e01b0319811681146140c957600080fd5b6000806000606084860312156152fa57600080fd5b8335615305816151ba565b92506020840135615315816151ba565b929592945050506040919091013590565b6000806040838503121561533957600080fd5b50508035926020909101359150565b60006020828403121561535a57600080fd5b81356140c9816151ba565b634e487b7160e01b600052604160045260246000fd5b604051601f8201601f1916810167ffffffffffffffff811182821017156153a4576153a4615365565b604052919050565b6000602082840312156153be57600080fd5b813567ffffffffffffffff8111156153d557600080fd5b8201601f810184136153e657600080fd5b803567ffffffffffffffff81111561540057615400615365565b615413601f8201601f191660200161537b565b81815285602083850101111561542857600080fd5b81602084016020830137600091810160200191909152949350505050565b6000806040838503121561545957600080fd5b8235615464816151ba565b946020939093013593505050565b602080825282518282018190526000918401906040840190835b818110156154cb576154b583855180518252602080820151908301526040908101511515910152565b602093909301926060929092019160010161548c565b509095945050505050565b60008083601f8401126154e857600080fd5b50813567ffffffffffffffff81111561550057600080fd5b602083019150836020828501011115611d4f57600080fd5b60008060008060008060008060a0898b03121561553457600080fd5b883561553f816151ba565b9750602089013561554f816151ba565b9650604089013567ffffffffffffffff81111561556b57600080fd5b6155778b828c016151d2565b909750955050606089013567ffffffffffffffff81111561559757600080fd5b6155a38b828c016151d2565b909550935050608089013567ffffffffffffffff8111156155c357600080fd5b6155cf8b828c016154d6565b999c989b5096995094979396929594505050565b602080825282518282018190526000918401906040840190835b818110156154cb5761562683855180518252602080820151908301526040908101511515910152565b60209390930192606092909201916001016155fd565b60008060008060008060a0878903121561565557600080fd5b8635615660816151ba565b95506020870135615670816151ba565b94506040870135935060608701359250608087013567ffffffffffffffff81111561569a57600080fd5b6156a689828a016154d6565b979a9699509497509295939492505050565b634e487b7160e01b600052601160045260246000fd5b8082028115828204841417610731576107316156b8565b60008261570257634e487b7160e01b600052601260045260246000fd5b500490565b634e487b7160e01b600052603260045260246000fd5b60006020828403121561572f57600080fd5b81516140c9816151ba565b60006020828403121561574c57600080fd5b5051919050565b81810381811115610731576107316156b8565b80820180821115610731576107316156b8565b6001815b60018411156157b457808504811115615798576157986156b8565b60018416156157a657908102905b60019390931c92800261577d565b935093915050565b6000826157cb57506001610731565b816157d857506000610731565b81600181146157ee57600281146157f857615814565b6001915050610731565b60ff841115615809576158096156b8565b50506001821b610731565b5060208310610133831016604e8410600b8410161715615837575081810a610731565b6158446000198484615779565b8060001904821115615858576158586156b8565b029392505050565b60006140c960ff8416836157bc565b6000806040838503121561588257600080fd5b825161588d816151ba565b6020939093015192949293505050565b6000602082840312156158af57600080fd5b815180151581146140c957600080fd5b6000602082840312156158d157600080fd5b815167ffffffffffffffff8111156158e857600080fd5b8201601f810184136158f957600080fd5b805167ffffffffffffffff81111561591357615913615365565b8060051b6159236020820161537b565b9182526020818401810192908101908784111561593f57600080fd5b6020850194505b8385101561220c578451925061595b836151ba565b8282526020948501949091019061594656fea26469706673582212200a79b0f37db7c69abfb7ddf0bd147ba99ccb5e8941ebee942f134c58e89d937364736f6c634300081a0033",
  "linkReferences": {},
  "deployedLinkReferences": {}
}