{
  "_format": "hh-sol-artifact-1",
  "contractName": "Banners",
  "sourceName": "contracts/banners/Banners.sol",
  "abi": [
    {
      "inputs": [
        {
          "internalType": "string",
          "name": "name_",
          "type": "string"
        },
        {
          "internalType": "string",
          "name": "symbol_",
          "type": "string"
        },
        {
          "internalType": "string",
          "name": "uri_",
          "type": "string"
        },
        {
          "internalType": "uint256",
          "name": "maxAmountOfMintedBannersPerAddress_",
          "type": "uint256"
        }
      ],
      "stateMutability": "nonpayable",
      "type": "constructor"
    },
    {
      "inputs": [],
      "name": "CannotMintMoreThanMaximumAllowedAmountToMintForThisMsgSender",
      "type": "error"
    },
    {
      "inputs": [],
      "name": "UnableToUpdateBannerDueToTokenIdDoesNotBelongToCaller",
      "type": "error"
    },
    {
      "anonymous": false,
      "inputs": [
        {
          "indexed": true,
          "internalType": "address",
          "name": "owner",
          "type": "address"
        },
        {
          "indexed": true,
          "internalType": "address",
          "name": "approved",
          "type": "address"
        },
        {
          "indexed": true,
          "internalType": "uint256",
          "name": "tokenId",
          "type": "uint256"
        }
      ],
      "name": "Approval",
      "type": "event"
    },
    {
      "anonymous": false,
      "inputs": [
        {
          "indexed": true,
          "internalType": "address",
          "name": "owner",
          "type": "address"
        },
        {
          "indexed": true,
          "internalType": "address",
          "name": "operator",
          "type": "address"
        },
        {
          "indexed": false,
          "internalType": "bool",
          "name": "approved",
          "type": "bool"
        }
      ],
      "name": "ApprovalForAll",
      "type": "event"
    },
    {
      "anonymous": false,
      "inputs": [
        {
          "indexed": false,
          "internalType": "uint256",
          "name": "tokenId",
          "type": "uint256"
        },
        {
          "indexed": false,
          "internalType": "string",
          "name": "bannerName",
          "type": "string"
        },
        {
          "components": [
            {
              "internalType": "address",
              "name": "addr",
              "type": "address"
            },
            {
              "internalType": "uint256",
              "name": "id",
              "type": "uint256"
            }
          ],
          "indexed": false,
          "internalType": "struct Banners.Part[16]",
          "name": "bannerParts",
          "type": "tuple[16]"
        },
        {
          "indexed": false,
          "internalType": "bytes",
          "name": "data",
          "type": "bytes"
        }
      ],
      "name": "BannerCreated",
      "type": "event"
    },
    {
      "anonymous": false,
      "inputs": [
        {
          "indexed": false,
          "internalType": "uint256",
          "name": "tokenId",
          "type": "uint256"
        },
        {
          "indexed": false,
          "internalType": "string",
          "name": "newBannerName",
          "type": "string"
        },
        {
          "components": [
            {
              "internalType": "address",
              "name": "addr",
              "type": "address"
            },
            {
              "internalType": "uint256",
              "name": "id",
              "type": "uint256"
            }
          ],
          "indexed": false,
          "internalType": "struct Banners.Part[16]",
          "name": "newBannerParts",
          "type": "tuple[16]"
        },
        {
          "indexed": false,
          "internalType": "bytes",
          "name": "data",
          "type": "bytes"
        }
      ],
      "name": "BannerUpdated",
      "type": "event"
    },
    {
      "anonymous": false,
      "inputs": [
        {
          "indexed": true,
          "internalType": "address",
          "name": "previousOwner",
          "type": "address"
        },
        {
          "indexed": true,
          "internalType": "address",
          "name": "newOwner",
          "type": "address"
        }
      ],
      "name": "OwnershipTransferred",
      "type": "event"
    },
    {
      "anonymous": false,
      "inputs": [
        {
          "indexed": true,
          "internalType": "address",
          "name": "from",
          "type": "address"
        },
        {
          "indexed": true,
          "internalType": "address",
          "name": "to",
          "type": "address"
        },
        {
          "indexed": true,
          "internalType": "uint256",
          "name": "tokenId",
          "type": "uint256"
        }
      ],
      "name": "Transfer",
      "type": "event"
    },
    {
      "inputs": [
        {
          "internalType": "address",
          "name": "to",
          "type": "address"
        },
        {
          "internalType": "uint256",
          "name": "tokenId",
          "type": "uint256"
        }
      ],
      "name": "approve",
      "outputs": [],
      "stateMutability": "nonpayable",
      "type": "function"
    },
    {
      "inputs": [
        {
          "internalType": "address",
          "name": "owner",
          "type": "address"
        }
      ],
      "name": "balanceOf",
      "outputs": [
        {
          "internalType": "uint256",
          "name": "",
          "type": "uint256"
        }
      ],
      "stateMutability": "view",
      "type": "function"
    },
    {
      "inputs": [
        {
          "internalType": "uint256",
          "name": "",
          "type": "uint256"
        }
      ],
      "name": "bannerData",
      "outputs": [
        {
          "internalType": "string",
          "name": "name",
          "type": "string"
        },
        {
          "internalType": "bytes",
          "name": "data",
          "type": "bytes"
        }
      ],
      "stateMutability": "view",
      "type": "function"
    },
    {
      "inputs": [],
      "name": "baseURI",
      "outputs": [
        {
          "internalType": "string",
          "name": "",
          "type": "string"
        }
      ],
      "stateMutability": "view",
      "type": "function"
    },
    {
      "inputs": [
        {
          "internalType": "uint256",
          "name": "tokenId",
          "type": "uint256"
        }
      ],
      "name": "getApproved",
      "outputs": [
        {
          "internalType": "address",
          "name": "",
          "type": "address"
        }
      ],
      "stateMutability": "view",
      "type": "function"
    },
    {
      "inputs": [
        {
          "internalType": "uint256",
          "name": "tokenIndex",
          "type": "uint256"
        }
      ],
      "name": "getBannerData",
      "outputs": [
        {
          "internalType": "string",
          "name": "name",
          "type": "string"
        },
        {
          "components": [
            {
              "internalType": "address",
              "name": "addr",
              "type": "address"
            },
            {
              "internalType": "uint256",
              "name": "id",
              "type": "uint256"
            }
          ],
          "internalType": "struct Banners.Part[16]",
          "name": "parts",
          "type": "tuple[16]"
        },
        {
          "internalType": "bytes",
          "name": "data",
          "type": "bytes"
        }
      ],
      "stateMutability": "view",
      "type": "function"
    },
    {
      "inputs": [
        {
          "internalType": "uint256[]",
          "name": "tokenIds",
          "type": "uint256[]"
        }
      ],
      "name": "getBannersDataByTokenIds",
      "outputs": [
        {
          "components": [
            {
              "internalType": "string",
              "name": "name",
              "type": "string"
            },
            {
              "components": [
                {
                  "internalType": "address",
                  "name": "addr",
                  "type": "address"
                },
                {
                  "internalType": "uint256",
                  "name": "id",
                  "type": "uint256"
                }
              ],
              "internalType": "struct Banners.Part[16]",
              "name": "parts",
              "type": "tuple[16]"
            },
            {
              "internalType": "bytes",
              "name": "data",
              "type": "bytes"
            }
          ],
          "internalType": "struct Banners.BannerData[]",
          "name": "bannersData",
          "type": "tuple[]"
        }
      ],
      "stateMutability": "view",
      "type": "function"
    },
    {
      "inputs": [
        {
          "internalType": "address",
          "name": "holderAddress",
          "type": "address"
        }
      ],
      "name": "getTokenIdsByAddress",
      "outputs": [
        {
          "internalType": "uint256[]",
          "name": "tokenIds",
          "type": "uint256[]"
        }
      ],
      "stateMutability": "view",
      "type": "function"
    },
    {
      "inputs": [
        {
          "internalType": "address",
          "name": "owner",
          "type": "address"
        },
        {
          "internalType": "address",
          "name": "operator",
          "type": "address"
        }
      ],
      "name": "isApprovedForAll",
      "outputs": [
        {
          "internalType": "bool",
          "name": "",
          "type": "bool"
        }
      ],
      "stateMutability": "view",
      "type": "function"
    },
    {
      "inputs": [],
      "name": "lastTokenId",
      "outputs": [
        {
          "internalType": "uint256",
          "name": "",
          "type": "uint256"
        }
      ],
      "stateMutability": "view",
      "type": "function"
    },
    {
      "inputs": [],
      "name": "maxAmountOfMintedBannersPerAddress",
      "outputs": [
        {
          "internalType": "uint256",
          "name": "",
          "type": "uint256"
        }
      ],
      "stateMutability": "view",
      "type": "function"
    },
    {
      "inputs": [
        {
          "internalType": "string",
          "name": "name",
          "type": "string"
        },
        {
          "components": [
            {
              "internalType": "address",
              "name": "addr",
              "type": "address"
            },
            {
              "internalType": "uint256",
              "name": "id",
              "type": "uint256"
            }
          ],
          "internalType": "struct Banners.Part[16]",
          "name": "parts",
          "type": "tuple[16]"
        },
        {
          "internalType": "bytes",
          "name": "data",
          "type": "bytes"
        }
      ],
      "name": "mint",
      "outputs": [],
      "stateMutability": "nonpayable",
      "type": "function"
    },
    {
      "inputs": [
        {
          "internalType": "address",
          "name": "",
          "type": "address"
        }
      ],
      "name": "mintedBannersByAddress",
      "outputs": [
        {
          "internalType": "uint256",
          "name": "",
          "type": "uint256"
        }
      ],
      "stateMutability": "view",
      "type": "function"
    },
    {
      "inputs": [],
      "name": "name",
      "outputs": [
        {
          "internalType": "string",
          "name": "",
          "type": "string"
        }
      ],
      "stateMutability": "view",
      "type": "function"
    },
    {
      "inputs": [
        {
          "internalType": "address",
          "name": "operator",
          "type": "address"
        },
        {
          "internalType": "address",
          "name": "from",
          "type": "address"
        },
        {
          "internalType": "uint256[]",
          "name": "ids",
          "type": "uint256[]"
        },
        {
          "internalType": "uint256[]",
          "name": "values",
          "type": "uint256[]"
        },
        {
          "internalType": "bytes",
          "name": "data",
          "type": "bytes"
        }
      ],
      "name": "onERC1155BatchReceived",
      "outputs": [
        {
          "internalType": "bytes4",
          "name": "",
          "type": "bytes4"
        }
      ],
      "stateMutability": "nonpayable",
      "type": "function"
    },
    {
      "inputs": [
        {
          "internalType": "address",
          "name": "operator",
          "type": "address"
        },
        {
          "internalType": "address",
          "name": "from",
          "type": "address"
        },
        {
          "internalType": "uint256",
          "name": "id",
          "type": "uint256"
        },
        {
          "internalType": "uint256",
          "name": "value",
          "type": "uint256"
        },
        {
          "internalType": "bytes",
          "name": "data",
          "type": "bytes"
        }
      ],
      "name": "onERC1155Received",
      "outputs": [
        {
          "internalType": "bytes4",
          "name": "",
          "type": "bytes4"
        }
      ],
      "stateMutability": "nonpayable",
      "type": "function"
    },
    {
      "inputs": [],
      "name": "owner",
      "outputs": [
        {
          "internalType": "address",
          "name": "",
          "type": "address"
        }
      ],
      "stateMutability": "view",
      "type": "function"
    },
    {
      "inputs": [
        {
          "internalType": "uint256",
          "name": "tokenId",
          "type": "uint256"
        }
      ],
      "name": "ownerOf",
      "outputs": [
        {
          "internalType": "address",
          "name": "",
          "type": "address"
        }
      ],
      "stateMutability": "view",
      "type": "function"
    },
    {
      "inputs": [],
      "name": "renounceOwnership",
      "outputs": [],
      "stateMutability": "nonpayable",
      "type": "function"
    },
    {
      "inputs": [
        {
          "internalType": "address",
          "name": "from",
          "type": "address"
        },
        {
          "internalType": "address",
          "name": "to",
          "type": "address"
        },
        {
          "internalType": "uint256",
          "name": "tokenId",
          "type": "uint256"
        }
      ],
      "name": "safeTransferFrom",
      "outputs": [],
      "stateMutability": "nonpayable",
      "type": "function"
    },
    {
      "inputs": [
        {
          "internalType": "address",
          "name": "from",
          "type": "address"
        },
        {
          "internalType": "address",
          "name": "to",
          "type": "address"
        },
        {
          "internalType": "uint256",
          "name": "tokenId",
          "type": "uint256"
        },
        {
          "internalType": "bytes",
          "name": "data",
          "type": "bytes"
        }
      ],
      "name": "safeTransferFrom",
      "outputs": [],
      "stateMutability": "nonpayable",
      "type": "function"
    },
    {
      "inputs": [
        {
          "internalType": "address",
          "name": "operator",
          "type": "address"
        },
        {
          "internalType": "bool",
          "name": "approved",
          "type": "bool"
        }
      ],
      "name": "setApprovalForAll",
      "outputs": [],
      "stateMutability": "nonpayable",
      "type": "function"
    },
    {
      "inputs": [
        {
          "internalType": "bytes4",
          "name": "interfaceId",
          "type": "bytes4"
        }
      ],
      "name": "supportsInterface",
      "outputs": [
        {
          "internalType": "bool",
          "name": "",
          "type": "bool"
        }
      ],
      "stateMutability": "view",
      "type": "function"
    },
    {
      "inputs": [],
      "name": "symbol",
      "outputs": [
        {
          "internalType": "string",
          "name": "",
          "type": "string"
        }
      ],
      "stateMutability": "view",
      "type": "function"
    },
    {
      "inputs": [
        {
          "internalType": "uint256",
          "name": "index",
          "type": "uint256"
        }
      ],
      "name": "tokenByIndex",
      "outputs": [
        {
          "internalType": "uint256",
          "name": "",
          "type": "uint256"
        }
      ],
      "stateMutability": "view",
      "type": "function"
    },
    {
      "inputs": [
        {
          "internalType": "address",
          "name": "owner",
          "type": "address"
        },
        {
          "internalType": "uint256",
          "name": "index",
          "type": "uint256"
        }
      ],
      "name": "tokenOfOwnerByIndex",
      "outputs": [
        {
          "internalType": "uint256",
          "name": "",
          "type": "uint256"
        }
      ],
      "stateMutability": "view",
      "type": "function"
    },
    {
      "inputs": [
        {
          "internalType": "uint256",
          "name": "tokenId",
          "type": "uint256"
        }
      ],
      "name": "tokenURI",
      "outputs": [
        {
          "internalType": "string",
          "name": "",
          "type": "string"
        }
      ],
      "stateMutability": "view",
      "type": "function"
    },
    {
      "inputs": [],
      "name": "totalSupply",
      "outputs": [
        {
          "internalType": "uint256",
          "name": "",
          "type": "uint256"
        }
      ],
      "stateMutability": "view",
      "type": "function"
    },
    {
      "inputs": [
        {
          "internalType": "address",
          "name": "from",
          "type": "address"
        },
        {
          "internalType": "address",
          "name": "to",
          "type": "address"
        },
        {
          "internalType": "uint256",
          "name": "tokenId",
          "type": "uint256"
        }
      ],
      "name": "transferFrom",
      "outputs": [],
      "stateMutability": "nonpayable",
      "type": "function"
    },
    {
      "inputs": [
        {
          "internalType": "address",
          "name": "newOwner",
          "type": "address"
        }
      ],
      "name": "transferOwnership",
      "outputs": [],
      "stateMutability": "nonpayable",
      "type": "function"
    },
    {
      "inputs": [
        {
          "internalType": "uint256",
          "name": "tokenId",
          "type": "uint256"
        },
        {
          "internalType": "string",
          "name": "name",
          "type": "string"
        },
        {
          "components": [
            {
              "internalType": "address",
              "name": "addr",
              "type": "address"
            },
            {
              "internalType": "uint256",
              "name": "id",
              "type": "uint256"
            }
          ],
          "internalType": "struct Banners.Part[16]",
          "name": "parts",
          "type": "tuple[16]"
        },
        {
          "internalType": "bytes",
          "name": "data",
          "type": "bytes"
        }
      ],
      "name": "updateBanner",
      "outputs": [],
      "stateMutability": "nonpayable",
      "type": "function"
    },
    {
      "inputs": [
        {
          "internalType": "string",
          "name": "_uri",
          "type": "string"
        }
      ],
      "name": "updateURI",
      "outputs": [],
      "stateMutability": "nonpayable",
      "type": "function"
    }
  ],
  "bytecode": "0x60806040526000600d5534801561001557600080fd5b5060405161379e38038061379e83398101604081905261003491610190565b8383600061004283826102b6565b50600161004f82826102b6565b50505061006861006361008160201b60201c565b610085565b600c61007483826102b6565b50600e5550610374915050565b3390565b600a80546001600160a01b038381166001600160a01b0319831681179093556040519116919082907f8be0079c531659141344cd1fd0a4f28419497f9722a3daafe3b4186f6b6457e090600090a35050565b634e487b7160e01b600052604160045260246000fd5b600082601f8301126100fe57600080fd5b81516001600160401b03811115610117576101176100d7565b604051601f8201601f19908116603f011681016001600160401b0381118282101715610145576101456100d7565b60405281815283820160200185101561015d57600080fd5b60005b8281101561017c57602081860181015183830182015201610160565b506000918101602001919091529392505050565b600080600080608085870312156101a657600080fd5b84516001600160401b038111156101bc57600080fd5b6101c8878288016100ed565b602087015190955090506001600160401b038111156101e657600080fd5b6101f2878288016100ed565b604087015190945090506001600160401b0381111561021057600080fd5b61021c878288016100ed565b606096909601519497939650505050565b600181811c9082168061024157607f821691505b60208210810361026157634e487b7160e01b600052602260045260246000fd5b50919050565b601f8211156102b157806000526020600020601f840160051c8101602085101561028e5750805b601f840160051c820191505b818110156102ae576000815560010161029a565b50505b505050565b81516001600160401b038111156102cf576102cf6100d7565b6102e3816102dd845461022d565b84610267565b6020601f82116001811461031757600083156102ff5750848201515b600019600385901b1c1916600184901b1784556102ae565b600084815260208120601f198516915b828110156103475787850151825560209485019460019092019101610327565b50848210156103655786840151600019600387901b60f8161c191681555b50505050600190811b01905550565b61341b806103836000396000f3fe608060405234801561001057600080fd5b50600436106101f05760003560e01c806389d5feee1161010f578063be0c5c63116100a2578063edc7e76211610071578063edc7e76214610494578063f23a6e61146104b4578063f2fde38b146104d4578063f84ddf0b146104e757600080fd5b8063be0c5c6314610410578063c30f4a5a14610432578063c87b56dd14610445578063e985e9c51461045857600080fd5b8063a6a53009116100de578063a6a530091461039c578063b64a1097146103af578063b88d4fde146103c2578063bc197c81146103d557600080fd5b806389d5feee146103505780638da5cb5b1461037057806395d89b4114610381578063a22cb4651461038957600080fd5b806342842e0e116101875780636c0360eb116101565780636c0360eb1461030c57806370a0823114610314578063715018a61461032757806389c74e9e1461032f57600080fd5b806342842e0e146102ca5780634b4e5cac146102dd5780634f6ccce7146102e65780636352211e146102f957600080fd5b806318160ddd116101c357806318160ddd1461027257806323b872dd146102845780632f745c59146102975780633bc2e726146102aa57600080fd5b806301ffc9a7146101f557806306fdde031461021d578063081812fc14610232578063095ea7b31461025d575b600080fd5b61020861020336600461275e565b6104f0565b60405190151581526020015b60405180910390f35b610225610510565b60405161021491906127cb565b6102456102403660046127de565b6105a2565b6040516001600160a01b039091168152602001610214565b61027061026b366004612813565b6105c9565b005b6008545b604051908152602001610214565b61027061029236600461283d565b6106e3565b6102766102a5366004612813565b61075b565b6102766102b836600461287a565b600f6020526000908152604090205481565b6102706102d836600461283d565b610803565b610276600e5481565b6102766102f43660046127de565b61081e565b6102456103073660046127de565b6108c2565b610225610927565b61027661032236600461287a565b6109b5565b610270610a4f565b61034261033d3660046127de565b610a63565b604051610214929190612895565b61036361035e36600461287a565b610b8f565b60405161021491906128c3565b600a546001600160a01b0316610245565b610225610c24565b610270610397366004612906565b610c33565b6102706103aa366004612b14565b610c42565b6102706103bd366004612ba1565b61121d565b6102706103d0366004612c24565b611311565b6103f76103e3366004612cb9565b63bc197c8160e01b98975050505050505050565b6040516001600160e01b03199091168152602001610214565b61042361041e3660046127de565b611390565b60405161021493929190612db8565b610270610440366004612df7565b61153a565b6102256104533660046127de565b61154e565b610208610466366004612e40565b6001600160a01b03918216600090815260056020908152604080832093909416825291909152205460ff1690565b6104a76104a2366004612e73565b6115b5565b6040516102149190612f24565b6103f76104c2366004612fc6565b63f23a6e6160e01b9695505050505050565b6102706104e236600461287a565b611803565b610276600d5481565b60006104fb8261187c565b8061050a575061050a826118a1565b92915050565b60606000805461051f9061303e565b80601f016020809104026020016040519081016040528092919081815260200182805461054b9061303e565b80156105985780601f1061056d57610100808354040283529160200191610598565b820191906000526020600020905b81548152906001019060200180831161057b57829003601f168201915b5050505050905090565b60006105ad826118c6565b506000908152600460205260409020546001600160a01b031690565b60006105d4826108c2565b9050806001600160a01b0316836001600160a01b0316036106465760405162461bcd60e51b815260206004820152602160248201527f4552433732313a20617070726f76616c20746f2063757272656e74206f776e656044820152603960f91b60648201526084015b60405180910390fd5b336001600160a01b038216148061066257506106628133610466565b6106d45760405162461bcd60e51b815260206004820152603e60248201527f4552433732313a20617070726f76652063616c6c6572206973206e6f7420746f60448201527f6b656e206f776e6572206e6f7220617070726f76656420666f7220616c6c0000606482015260840161063d565b6106de838361192a565b505050565b6106ed3382611998565b6107505760405162461bcd60e51b815260206004820152602e60248201527f4552433732313a2063616c6c6572206973206e6f7420746f6b656e206f776e6560448201526d1c881b9bdc88185c1c1c9bdd995960921b606482015260840161063d565b6106de838383611a17565b6000610766836109b5565b82106107da5760405162461bcd60e51b815260206004820152602b60248201527f455243373231456e756d657261626c653a206f776e657220696e646578206f7560448201527f74206f6620626f756e6473000000000000000000000000000000000000000000606482015260840161063d565b506001600160a01b03919091166000908152600660209081526040808320938352929052205490565b6106de83838360405180602001604052806000815250611311565b600061082960085490565b821061089d5760405162461bcd60e51b815260206004820152602c60248201527f455243373231456e756d657261626c653a20676c6f62616c20696e646578206f60448201527f7574206f6620626f756e64730000000000000000000000000000000000000000606482015260840161063d565b600882815481106108b0576108b0613072565b90600052602060002001549050919050565b6000818152600260205260408120546001600160a01b03168061050a5760405162461bcd60e51b815260206004820152601860248201527f4552433732313a20696e76616c696420746f6b656e2049440000000000000000604482015260640161063d565b600c80546109349061303e565b80601f01602080910402602001604051908101604052809291908181526020018280546109609061303e565b80156109ad5780601f10610982576101008083540402835291602001916109ad565b820191906000526020600020905b81548152906001019060200180831161099057829003601f168201915b505050505081565b60006001600160a01b038216610a335760405162461bcd60e51b815260206004820152602960248201527f4552433732313a2061646472657373207a65726f206973206e6f74206120766160448201527f6c6964206f776e65720000000000000000000000000000000000000000000000606482015260840161063d565b506001600160a01b031660009081526003602052604090205490565b610a57611bbe565b610a616000611c18565b565b600b60205260009081526040902080548190610a7e9061303e565b80601f0160208091040260200160405190810160405280929190818152602001828054610aaa9061303e565b8015610af75780601f10610acc57610100808354040283529160200191610af7565b820191906000526020600020905b815481529060010190602001808311610ada57829003601f168201915b505050505090806021018054610b0c9061303e565b80601f0160208091040260200160405190810160405280929190818152602001828054610b389061303e565b8015610b855780601f10610b5a57610100808354040283529160200191610b85565b820191906000526020600020905b815481529060010190602001808311610b6857829003601f168201915b5050505050905082565b60606000610b9c836109b5565b90508067ffffffffffffffff811115610bb757610bb761298b565b604051908082528060200260200182016040528015610be0578160200160208202803683370190505b50915060005b81811015610c1d57610bf8848261075b565b838281518110610c0a57610c0a613072565b6020908102919091010152600101610be6565b5050919050565b60606001805461051f9061303e565b610c3e338383611c6a565b5050565b610c4b856108c2565b6001600160a01b0316336001600160a01b031614610c7b5760405162559caf60e91b815260040160405180910390fd5b60005b60108110156111a0576000868152600b602052604090206001018160108110610ca957610ca9613072565b60020201546001600160a01b0316838260108110610cc957610cc9613072565b6020020151516001600160a01b0316148015610d2757506000868152600b602052604090206001018160108110610d0257610d02613072565b6002020160010154838260108110610d1c57610d1c613072565b602002015160200151145b611198576000838260108110610d3f57610d3f613072565b6020020151516001600160a01b031614610efc57828160108110610d6557610d65613072565b6020020151516001600160a01b031663f242432a3330868560108110610d8d57610d8d613072565b6020908102919091015101516040516001600160e01b031960e086901b1681526001600160a01b03938416600482015292909116602483015260448201526001606482015260a06084820152600260a482015261060f60f31b60c482015260e401600060405180830381600087803b158015610e0857600080fd5b505af1925050508015610e19575060015b610efc573d808015610e47576040519150601f19603f3d011682016040523d82523d6000602084013e610e4c565b606091505b50838260108110610e5f57610e5f613072565b6020020151516001600160a01b03166342842e0e3330878660108110610e8757610e87613072565b6020908102919091015101516040516001600160e01b031960e086901b1681526001600160a01b0393841660048201529290911660248301526044820152606401600060405180830381600087803b158015610ee257600080fd5b505af1158015610ef6573d6000803e3d6000fd5b50505050505b6000868152600b602052604081206001018260108110610f1e57610f1e613072565b60020201546001600160a01b031614611124576000868152600b602052604090206001018160108110610f5357610f53613072565b60020201546000878152600b602052604090206001600160a01b039091169063f242432a90309033906001018560108110610f9057610f90613072565b60016002918202929092018201546040516001600160e01b031960e088901b1681526001600160a01b0395861660048201529490931660248501526044840192909252606483015260a0608483015260a482015261060f60f31b60c482015260e401600060405180830381600087803b15801561100c57600080fd5b505af192505050801561101d575060015b611124573d80801561104b576040519150601f19603f3d011682016040523d82523d6000602084013e611050565b606091505b506000878152600b60205260409020600101826010811061107357611073613072565b60020201546000888152600b602052604090206001600160a01b03909116906342842e0e903090339060010186601081106110b0576110b0613072565b600202016001015460405160e085901b6001600160e01b03191681526001600160a01b0393841660048201529190921660248201526044810191909152606401600060405180830381600087803b15801561110a57600080fd5b505af115801561111e573d6000803e3d6000fd5b50505050505b82816010811061113657611136613072565b6020020151600b6000888152602001908152602001600020600101826010811061116257611162613072565b82516002919091029190910180546001600160a01b0319166001600160a01b039092169190911781556020909101516001909101555b600101610c7e565b506000858152600b602052604090206111ba8486836130d6565b506000858152600b602052604090206021016111d68282613196565b507fc5af4baabe0b43f9c9e905f83dd1191768ee8fd60b73a30fc23fceedce7eb396858585858560405161120e959493929190613255565b60405180910390a15050505050565b336000908152600f6020526040902054600e54811061124f57604051636ea5241d60e01b815260040160405180910390fd5b600d805490600061125f836132cf565b9091555050600d546000908152600b602052604090206112808587836130d6565b50600d546000908152600b6020526040902060210161129f8382613196565b506112ac600d5484611d38565b6112b933600d5484611f91565b6112c48160016132e8565b336000908152600f60205260409081902091909155600d5490517f1165ee153be167f0f334897324f2a433c03db8c7b736e9bfa08df0c866f1fb109161120e918890889088908890613255565b61131b3383611998565b61137e5760405162461bcd60e51b815260206004820152602e60248201527f4552433732313a2063616c6c6572206973206e6f7420746f6b656e206f776e6560448201526d1c881b9bdc88185c1c1c9bdd995960921b606482015260840161063d565b61138a8484848461200f565b50505050565b606061139a6126e7565b6000838152600b602052604090208054606091906001820190602183019083906113c39061303e565b80601f01602080910402602001604051908101604052809291908181526020018280546113ef9061303e565b801561143c5780601f106114115761010080835404028352916020019161143c565b820191906000526020600020905b81548152906001019060200180831161141f57829003601f168201915b50506040805161020081019091529396508592506010915060009050835b8282101561149b576040805180820190915260028302850180546001600160a01b03168252600190810154602080840191909152918352909201910161145a565b5050505091508080546114ad9061303e565b80601f01602080910402602001604051908101604052809291908181526020018280546114d99061303e565b80156115265780601f106114fb57610100808354040283529160200191611526565b820191906000526020600020905b81548152906001019060200180831161150957829003601f168201915b505050505090509250925092509193909250565b611542611bbe565b600c610c3e8282613196565b6060611559826118c6565b600061156361208d565b9050600081511161158357604051806020016040528060008152506115ae565b8061158d8461209c565b60405160200161159e9291906132fb565b6040516020818303038152906040525b9392505050565b6060815167ffffffffffffffff8111156115d1576115d161298b565b60405190808252806020026020018201604052801561160a57816020015b6115f7612721565b8152602001906001900390816115ef5790505b50905060005b82518110156117fd57600b600084838151811061162f5761162f613072565b602002602001015181526020019081526020016000206040518060600160405290816000820180546116609061303e565b80601f016020809104026020016040519081016040528092919081815260200182805461168c9061303e565b80156116d95780601f106116ae576101008083540402835291602001916116d9565b820191906000526020600020905b8154815290600101906020018083116116bc57829003601f168201915b50505091835250506040805161020081019091526020909101906001830160106000835b8282101561173e576040805180820190915260028302850180546001600160a01b0316825260019081015460208084019190915291835290920191016116fd565b5050505081526020016021820180546117569061303e565b80601f01602080910402602001604051908101604052809291908181526020018280546117829061303e565b80156117cf5780601f106117a4576101008083540402835291602001916117cf565b820191906000526020600020905b8154815290600101906020018083116117b257829003601f168201915b5050505050815250508282815181106117ea576117ea613072565b6020908102919091010152600101611610565b50919050565b61180b611bbe565b6001600160a01b0381166118705760405162461bcd60e51b815260206004820152602660248201527f4f776e61626c653a206e6577206f776e657220697320746865207a65726f206160448201526564647265737360d01b606482015260840161063d565b61187981611c18565b50565b60006001600160e01b0319821663780e9d6360e01b148061050a575061050a826121b5565b60006001600160e01b03198216630271189760e51b148061050a575061050a8261187c565b6000818152600260205260409020546001600160a01b03166118795760405162461bcd60e51b815260206004820152601860248201527f4552433732313a20696e76616c696420746f6b656e2049440000000000000000604482015260640161063d565b600081815260046020526040902080546001600160a01b0319166001600160a01b038416908117909155819061195f826108c2565b6001600160a01b03167f8c5be1e5ebec7d5bd14f71427d1e84f3dd0314c0f7b2291e5b200ac8c7c3b92560405160405180910390a45050565b6000806119a4836108c2565b9050806001600160a01b0316846001600160a01b031614806119eb57506001600160a01b0380821660009081526005602090815260408083209388168352929052205460ff165b80611a0f5750836001600160a01b0316611a04846105a2565b6001600160a01b0316145b949350505050565b826001600160a01b0316611a2a826108c2565b6001600160a01b031614611a8e5760405162461bcd60e51b815260206004820152602560248201527f4552433732313a207472616e736665722066726f6d20696e636f72726563742060448201526437bbb732b960d91b606482015260840161063d565b6001600160a01b038216611af05760405162461bcd60e51b8152602060048201526024808201527f4552433732313a207472616e7366657220746f20746865207a65726f206164646044820152637265737360e01b606482015260840161063d565b611afb838383612205565b611b0660008261192a565b6001600160a01b0383166000908152600360205260408120805460019290611b2f90849061332a565b90915550506001600160a01b0382166000908152600360205260408120805460019290611b5d9084906132e8565b909155505060008181526002602052604080822080546001600160a01b0319166001600160a01b0386811691821790925591518493918716917fddf252ad1be2c89b69c2b068fc378daa952ba7f163c4a11628f55a4df523b3ef91a4505050565b600a546001600160a01b03163314610a615760405162461bcd60e51b815260206004820181905260248201527f4f776e61626c653a2063616c6c6572206973206e6f7420746865206f776e6572604482015260640161063d565b600a80546001600160a01b038381166001600160a01b0319831681179093556040519116919082907f8be0079c531659141344cd1fd0a4f28419497f9722a3daafe3b4186f6b6457e090600090a35050565b816001600160a01b0316836001600160a01b031603611ccb5760405162461bcd60e51b815260206004820152601960248201527f4552433732313a20617070726f766520746f2063616c6c657200000000000000604482015260640161063d565b6001600160a01b03838116600081815260056020908152604080832094871680845294825291829020805460ff191686151590811790915591519182527f17307eab39ab6107e8899845ad3d59bd9653f200f220920489ca2b5937696c31910160405180910390a3505050565b60005b60108110156106de576000828260108110611d5857611d58613072565b6020020151516001600160a01b031614611f8957818160108110611d7e57611d7e613072565b6020020151516001600160a01b031663f242432a3330858560108110611da657611da6613072565b6020908102919091015101516040516001600160e01b031960e086901b1681526001600160a01b03938416600482015292909116602483015260448201526001606482015260a06084820152600260a482015261060f60f31b60c482015260e401600060405180830381600087803b158015611e2157600080fd5b505af1925050508015611e32575060015b611f15573d808015611e60576040519150601f19603f3d011682016040523d82523d6000602084013e611e65565b606091505b50828260108110611e7857611e78613072565b6020020151516001600160a01b03166342842e0e3330868660108110611ea057611ea0613072565b6020908102919091015101516040516001600160e01b031960e086901b1681526001600160a01b0393841660048201529290911660248301526044820152606401600060405180830381600087803b158015611efb57600080fd5b505af1158015611f0f573d6000803e3d6000fd5b50505050505b818160108110611f2757611f27613072565b6020020151600b60008581526020019081526020016000206001018260108110611f5357611f53613072565b82516002919091029190910180546001600160a01b0319166001600160a01b039092169190911781556020909101516001909101555b600101611d3b565b611f9b83836122bd565b611fa8600084848461240b565b6106de5760405162461bcd60e51b815260206004820152603260248201527f4552433732313a207472616e7366657220746f206e6f6e20455243373231526560448201527131b2b4bb32b91034b6b83632b6b2b73a32b960711b606482015260840161063d565b61201a848484611a17565b6120268484848461240b565b61138a5760405162461bcd60e51b815260206004820152603260248201527f4552433732313a207472616e7366657220746f206e6f6e20455243373231526560448201527131b2b4bb32b91034b6b83632b6b2b73a32b960711b606482015260840161063d565b6060600c805461051f9061303e565b6060816000036120c35750506040805180820190915260018152600360fc1b602082015290565b8160005b81156120ed57806120d7816132cf565b91506120e69050600a83613353565b91506120c7565b60008167ffffffffffffffff8111156121085761210861298b565b6040519080825280601f01601f191660200182016040528015612132576020820181803683370190505b5090505b8415611a0f5761214760018361332a565b9150612154600a86613367565b61215f9060306132e8565b60f81b81838151811061217457612174613072565b60200101907effffffffffffffffffffffffffffffffffffffffffffffffffffffffffffff1916908160001a9053506121ae600a86613353565b9450612136565b60006001600160e01b031982166380ac58cd60e01b14806121e657506001600160e01b03198216635b5e139f60e01b145b8061050a57506301ffc9a760e01b6001600160e01b031983161461050a565b6001600160a01b0383166122605761225b81600880546000838152600960205260408120829055600182018355919091527ff3f7a9fe364faab93b216da50a3214154f22a0a2b415b23a84c8169e8b636ee30155565b612283565b816001600160a01b0316836001600160a01b031614612283576122838382612557565b6001600160a01b03821661229a576106de816125f4565b826001600160a01b0316826001600160a01b0316146106de576106de82826126a3565b6001600160a01b0382166123135760405162461bcd60e51b815260206004820181905260248201527f4552433732313a206d696e7420746f20746865207a65726f2061646472657373604482015260640161063d565b6000818152600260205260409020546001600160a01b0316156123785760405162461bcd60e51b815260206004820152601c60248201527f4552433732313a20746f6b656e20616c7265616479206d696e74656400000000604482015260640161063d565b61238460008383612205565b6001600160a01b03821660009081526003602052604081208054600192906123ad9084906132e8565b909155505060008181526002602052604080822080546001600160a01b0319166001600160a01b03861690811790915590518392907fddf252ad1be2c89b69c2b068fc378daa952ba7f163c4a11628f55a4df523b3ef908290a45050565b60006001600160a01b0384163b1561254c57604051630a85bd0160e11b81526001600160a01b0385169063150b7a029061244f90339089908890889060040161337b565b6020604051808303816000875af192505050801561248a575060408051601f3d908101601f19168201909252612487918101906133b2565b60015b612532573d8080156124b8576040519150601f19603f3d011682016040523d82523d6000602084013e6124bd565b606091505b50805160000361252a5760405162461bcd60e51b815260206004820152603260248201527f4552433732313a207472616e7366657220746f206e6f6e20455243373231526560448201527131b2b4bb32b91034b6b83632b6b2b73a32b960711b606482015260840161063d565b805181602001fd5b6001600160e01b031916630a85bd0160e11b149050611a0f565b506001949350505050565b60006001612564846109b5565b61256e919061332a565b6000838152600760205260409020549091508082146125c1576001600160a01b03841660009081526006602090815260408083208584528252808320548484528184208190558352600790915290208190555b5060009182526007602090815260408084208490556001600160a01b039094168352600681528383209183525290812055565b6008546000906126069060019061332a565b6000838152600960205260408120546008805493945090928490811061262e5761262e613072565b90600052602060002001549050806008838154811061264f5761264f613072565b6000918252602080832090910192909255828152600990915260408082208490558582528120556008805480612687576126876133cf565b6001900381819060005260206000200160009055905550505050565b60006126ae836109b5565b6001600160a01b039093166000908152600660209081526040808320868452825280832085905593825260079052919091209190915550565b6040518061020001604052806010905b60408051808201909152600080825260208201528152602001906001900390816126f75790505090565b60405180606001604052806060815260200161273b6126e7565b8152602001606081525090565b6001600160e01b03198116811461187957600080fd5b60006020828403121561277057600080fd5b81356115ae81612748565b60005b8381101561279657818101518382015260200161277e565b50506000910152565b600081518084526127b781602086016020860161277b565b601f01601f19169290920160200192915050565b6020815260006115ae602083018461279f565b6000602082840312156127f057600080fd5b5035919050565b80356001600160a01b038116811461280e57600080fd5b919050565b6000806040838503121561282657600080fd5b61282f836127f7565b946020939093013593505050565b60008060006060848603121561285257600080fd5b61285b846127f7565b9250612869602085016127f7565b929592945050506040919091013590565b60006020828403121561288c57600080fd5b6115ae826127f7565b6040815260006128a8604083018561279f565b82810360208401526128ba818561279f565b95945050505050565b602080825282518282018190526000918401906040840190835b818110156128fb5783518352602093840193909201916001016128dd565b509095945050505050565b6000806040838503121561291957600080fd5b612922836127f7565b91506020830135801515811461293757600080fd5b809150509250929050565b60008083601f84011261295457600080fd5b50813567ffffffffffffffff81111561296c57600080fd5b60208301915083602082850101111561298457600080fd5b9250929050565b634e487b7160e01b600052604160045260246000fd5b6040805190810167ffffffffffffffff811182821017156129c4576129c461298b565b60405290565b604051601f8201601f1916810167ffffffffffffffff811182821017156129f3576129f361298b565b604052919050565b600082601f830112612a0c57600080fd5b604051610200810167ffffffffffffffff81118282101715612a3057612a3061298b565b60405280610400840185811115612a4657600080fd5b845b81811015612a8d5760408188031215612a6057600080fd5b612a686129a1565b612a71826127f7565b8152602082810135818301529084529290920191604001612a48565b509195945050505050565b60008067ffffffffffffffff841115612ab357612ab361298b565b50601f8301601f1916602001612ac8816129ca565b915050828152838383011115612add57600080fd5b828260208301376000602084830101529392505050565b600082601f830112612b0557600080fd5b6115ae83833560208501612a98565b60008060008060006104608688031215612b2d57600080fd5b85359450602086013567ffffffffffffffff811115612b4b57600080fd5b612b5788828901612942565b9095509350612b6b905087604088016129fb565b915061044086013567ffffffffffffffff811115612b8857600080fd5b612b9488828901612af4565b9150509295509295909350565b6000806000806104408587031215612bb857600080fd5b843567ffffffffffffffff811115612bcf57600080fd5b612bdb87828801612942565b9095509350612bef905086602087016129fb565b915061042085013567ffffffffffffffff811115612c0c57600080fd5b612c1887828801612af4565b91505092959194509250565b60008060008060808587031215612c3a57600080fd5b612c43856127f7565b9350612c51602086016127f7565b925060408501359150606085013567ffffffffffffffff811115612c0c57600080fd5b60008083601f840112612c8657600080fd5b50813567ffffffffffffffff811115612c9e57600080fd5b6020830191508360208260051b850101111561298457600080fd5b60008060008060008060008060a0898b031215612cd557600080fd5b612cde896127f7565b9750612cec60208a016127f7565b9650604089013567ffffffffffffffff811115612d0857600080fd5b612d148b828c01612c74565b909750955050606089013567ffffffffffffffff811115612d3457600080fd5b612d408b828c01612c74565b909550935050608089013567ffffffffffffffff811115612d6057600080fd5b612d6c8b828c01612942565b999c989b5096995094979396929594505050565b8060005b601081101561138a57815180516001600160a01b031685526020908101518186015260409094019390910190600101612d84565b61044081526000612dcd61044083018661279f565b612dda6020840186612d80565b828103610420840152612ded818561279f565b9695505050505050565b600060208284031215612e0957600080fd5b813567ffffffffffffffff811115612e2057600080fd5b8201601f81018413612e3157600080fd5b611a0f84823560208401612a98565b60008060408385031215612e5357600080fd5b612e5c836127f7565b9150612e6a602084016127f7565b90509250929050565b600060208284031215612e8557600080fd5b813567ffffffffffffffff811115612e9c57600080fd5b8201601f81018413612ead57600080fd5b803567ffffffffffffffff811115612ec757612ec761298b565b8060051b612ed7602082016129ca565b91825260208184018101929081019087841115612ef357600080fd5b6020850194505b83851015612f1957843580835260209586019590935090910190612efa565b979650505050505050565b6000602082016020835280845180835260408501915060408160051b86010192506020860160005b82811015612fba57603f19878603018452815180516104408752612f7461044088018261279f565b90506020820151612f886020890182612d80565b5060408201519150868103610420880152612fa3818361279f565b965050506020938401939190910190600101612f4c565b50929695505050505050565b60008060008060008060a08789031215612fdf57600080fd5b612fe8876127f7565b9550612ff6602088016127f7565b94506040870135935060608701359250608087013567ffffffffffffffff81111561302057600080fd5b61302c89828a01612942565b979a9699509497509295939492505050565b600181811c9082168061305257607f821691505b6020821081036117fd57634e487b7160e01b600052602260045260246000fd5b634e487b7160e01b600052603260045260246000fd5b601f8211156106de57806000526020600020601f840160051c810160208510156130af5750805b601f840160051c820191505b818110156130cf57600081556001016130bb565b5050505050565b67ffffffffffffffff8311156130ee576130ee61298b565b613102836130fc835461303e565b83613088565b6000601f841160018114613136576000851561311e5750838201355b600019600387901b1c1916600186901b1783556130cf565b600083815260209020601f19861690835b828110156131675786850135825560209485019460019092019101613147565b50868210156131845760001960f88860031b161c19848701351681555b505060018560011b0183555050505050565b815167ffffffffffffffff8111156131b0576131b061298b565b6131c4816131be845461303e565b84613088565b6020601f8211600181146131f857600083156131e05750848201515b600019600385901b1c1916600184901b1784556130cf565b600084815260208120601f198516915b828110156132285787850151825560209485019460019092019101613208565b50848210156132465786840151600019600387901b60f8161c191681555b50505050600190811b01905550565b8581526104606020820152836104608201528385610480830137600061048085830101526000601f19601f86011682016132926040840186612d80565b610480838203016104408401526132ad61048082018561279f565b98975050505050505050565b634e487b7160e01b600052601160045260246000fd5b6000600182016132e1576132e16132b9565b5060010190565b8082018082111561050a5761050a6132b9565b6000835161330d81846020880161277b565b83519083019061332181836020880161277b565b01949350505050565b8181038181111561050a5761050a6132b9565b634e487b7160e01b600052601260045260246000fd5b6000826133625761336261333d565b500490565b6000826133765761337661333d565b500690565b6001600160a01b03851681526001600160a01b0384166020820152826040820152608060608201526000612ded608083018461279f565b6000602082840312156133c457600080fd5b81516115ae81612748565b634e487b7160e01b600052603160045260246000fdfea264697066735822122016eefd8e7d995bdacffa075b02a8976ead96dbbe45d62903e4d91ed64c938d4e64736f6c634300081a0033",
  "linkReferences": {},
  "deployedLinkReferences": {}
}