{
  "_format": "hh-sol-artifact-1",
  "contractName": "BannerParts",
  "sourceName": "contracts/banners/BannerParts.sol",
  "abi": [
    {
      "inputs": [
        {
          "internalType": "string",
          "name": "_name",
          "type": "string"
        },
        {
          "internalType": "string",
          "name": "_symbol",
          "type": "string"
        },
        {
          "internalType": "string",
          "name": "uri_",
          "type": "string"
        }
      ],
      "stateMutability": "nonpayable",
      "type": "constructor"
    },
    {
      "inputs": [],
      "name": "UnableToQueryBalanceOfZeroAddress",
      "type": "error"
    },
    {
      "anonymous": false,
      "inputs": [
        {
          "indexed": true,
          "internalType": "address",
          "name": "account",
          "type": "address"
        },
        {
          "indexed": true,
          "internalType": "address",
          "name": "operator",
          "type": "address"
        },
        {
          "indexed": false,
          "internalType": "bool",
          "name": "approved",
          "type": "bool"
        }
      ],
      "name": "ApprovalForAll",
      "type": "event"
    },
    {
      "anonymous": false,
      "inputs": [
        {
          "indexed": true,
          "internalType": "address",
          "name": "previousOwner",
          "type": "address"
        },
        {
          "indexed": true,
          "internalType": "address",
          "name": "newOwner",
          "type": "address"
        }
      ],
      "name": "OwnershipTransferred",
      "type": "event"
    },
    {
      "anonymous": false,
      "inputs": [
        {
          "indexed": true,
          "internalType": "address",
          "name": "operator",
          "type": "address"
        },
        {
          "indexed": true,
          "internalType": "address",
          "name": "from",
          "type": "address"
        },
        {
          "indexed": true,
          "internalType": "address",
          "name": "to",
          "type": "address"
        },
        {
          "indexed": false,
          "internalType": "uint256[]",
          "name": "ids",
          "type": "uint256[]"
        },
        {
          "indexed": false,
          "internalType": "uint256[]",
          "name": "values",
          "type": "uint256[]"
        }
      ],
      "name": "TransferBatch",
      "type": "event"
    },
    {
      "anonymous": false,
      "inputs": [
        {
          "indexed": true,
          "internalType": "address",
          "name": "operator",
          "type": "address"
        },
        {
          "indexed": true,
          "internalType": "address",
          "name": "from",
          "type": "address"
        },
        {
          "indexed": true,
          "internalType": "address",
          "name": "to",
          "type": "address"
        },
        {
          "indexed": false,
          "internalType": "uint256",
          "name": "id",
          "type": "uint256"
        },
        {
          "indexed": false,
          "internalType": "uint256",
          "name": "value",
          "type": "uint256"
        }
      ],
      "name": "TransferSingle",
      "type": "event"
    },
    {
      "anonymous": false,
      "inputs": [
        {
          "indexed": false,
          "internalType": "string",
          "name": "value",
          "type": "string"
        },
        {
          "indexed": true,
          "internalType": "uint256",
          "name": "id",
          "type": "uint256"
        }
      ],
      "name": "URI",
      "type": "event"
    },
    {
      "inputs": [
        {
          "internalType": "address",
          "name": "account",
          "type": "address"
        },
        {
          "internalType": "uint256",
          "name": "id",
          "type": "uint256"
        }
      ],
      "name": "balanceOf",
      "outputs": [
        {
          "internalType": "uint256",
          "name": "",
          "type": "uint256"
        }
      ],
      "stateMutability": "view",
      "type": "function"
    },
    {
      "inputs": [
        {
          "internalType": "address[]",
          "name": "accounts",
          "type": "address[]"
        },
        {
          "internalType": "uint256[]",
          "name": "ids",
          "type": "uint256[]"
        }
      ],
      "name": "balanceOfBatch",
      "outputs": [
        {
          "internalType": "uint256[]",
          "name": "",
          "type": "uint256[]"
        }
      ],
      "stateMutability": "view",
      "type": "function"
    },
    {
      "inputs": [
        {
          "internalType": "address",
          "name": "from",
          "type": "address"
        },
        {
          "internalType": "uint256",
          "name": "id",
          "type": "uint256"
        },
        {
          "internalType": "uint256",
          "name": "amount",
          "type": "uint256"
        }
      ],
      "name": "burn",
      "outputs": [],
      "stateMutability": "nonpayable",
      "type": "function"
    },
    {
      "inputs": [
        {
          "internalType": "address",
          "name": "_owner",
          "type": "address"
        },
        {
          "internalType": "address",
          "name": "_operator",
          "type": "address"
        }
      ],
      "name": "isApprovedForAll",
      "outputs": [
        {
          "internalType": "bool",
          "name": "isOperator",
          "type": "bool"
        }
      ],
      "stateMutability": "view",
      "type": "function"
    },
    {
      "inputs": [
        {
          "internalType": "uint256",
          "name": "",
          "type": "uint256"
        }
      ],
      "name": "isFreePart",
      "outputs": [
        {
          "internalType": "bool",
          "name": "",
          "type": "bool"
        }
      ],
      "stateMutability": "view",
      "type": "function"
    },
    {
      "inputs": [
        {
          "internalType": "address",
          "name": "",
          "type": "address"
        }
      ],
      "name": "isSafeApprovedAddress",
      "outputs": [
        {
          "internalType": "bool",
          "name": "",
          "type": "bool"
        }
      ],
      "stateMutability": "view",
      "type": "function"
    },
    {
      "inputs": [
        {
          "internalType": "address",
          "name": "account",
          "type": "address"
        },
        {
          "internalType": "uint256",
          "name": "id",
          "type": "uint256"
        },
        {
          "internalType": "uint256",
          "name": "amount",
          "type": "uint256"
        },
        {
          "internalType": "bytes",
          "name": "data",
          "type": "bytes"
        }
      ],
      "name": "mint",
      "outputs": [],
      "stateMutability": "nonpayable",
      "type": "function"
    },
    {
      "inputs": [
        {
          "internalType": "address",
          "name": "to",
          "type": "address"
        },
        {
          "internalType": "uint256[]",
          "name": "ids",
          "type": "uint256[]"
        },
        {
          "internalType": "uint256[]",
          "name": "amounts",
          "type": "uint256[]"
        },
        {
          "internalType": "bytes",
          "name": "data",
          "type": "bytes"
        }
      ],
      "name": "mintBatch",
      "outputs": [],
      "stateMutability": "nonpayable",
      "type": "function"
    },
    {
      "inputs": [],
      "name": "name",
      "outputs": [
        {
          "internalType": "string",
          "name": "",
          "type": "string"
        }
      ],
      "stateMutability": "view",
      "type": "function"
    },
    {
      "inputs": [],
      "name": "owner",
      "outputs": [
        {
          "internalType": "address",
          "name": "",
          "type": "address"
        }
      ],
      "stateMutability": "view",
      "type": "function"
    },
    {
      "inputs": [],
      "name": "renounceOwnership",
      "outputs": [],
      "stateMutability": "nonpayable",
      "type": "function"
    },
    {
      "inputs": [
        {
          "internalType": "address",
          "name": "from",
          "type": "address"
        },
        {
          "internalType": "address",
          "name": "to",
          "type": "address"
        },
        {
          "internalType": "uint256[]",
          "name": "ids",
          "type": "uint256[]"
        },
        {
          "internalType": "uint256[]",
          "name": "amounts",
          "type": "uint256[]"
        },
        {
          "internalType": "bytes",
          "name": "data",
          "type": "bytes"
        }
      ],
      "name": "safeBatchTransferFrom",
      "outputs": [],
      "stateMutability": "nonpayable",
      "type": "function"
    },
    {
      "inputs": [
        {
          "internalType": "address",
          "name": "from",
          "type": "address"
        },
        {
          "internalType": "address",
          "name": "to",
          "type": "address"
        },
        {
          "internalType": "uint256",
          "name": "id",
          "type": "uint256"
        },
        {
          "internalType": "uint256",
          "name": "amount",
          "type": "uint256"
        },
        {
          "internalType": "bytes",
          "name": "data",
          "type": "bytes"
        }
      ],
      "name": "safeTransferFrom",
      "outputs": [],
      "stateMutability": "nonpayable",
      "type": "function"
    },
    {
      "inputs": [
        {
          "internalType": "address",
          "name": "operator",
          "type": "address"
        },
        {
          "internalType": "bool",
          "name": "approved",
          "type": "bool"
        }
      ],
      "name": "setApprovalForAll",
      "outputs": [],
      "stateMutability": "nonpayable",
      "type": "function"
    },
    {
      "inputs": [
        {
          "internalType": "uint256[]",
          "name": "ids",
          "type": "uint256[]"
        },
        {
          "internalType": "bool[]",
          "name": "statuses",
          "type": "bool[]"
        }
      ],
      "name": "setFreeParts",
      "outputs": [],
      "stateMutability": "nonpayable",
      "type": "function"
    },
    {
      "inputs": [
        {
          "internalType": "address",
          "name": "_address",
          "type": "address"
        },
        {
          "internalType": "bool",
          "name": "_status",
          "type": "bool"
        }
      ],
      "name": "setSafeApprovedAddress",
      "outputs": [],
      "stateMutability": "nonpayable",
      "type": "function"
    },
    {
      "inputs": [
        {
          "internalType": "bytes4",
          "name": "interfaceId",
          "type": "bytes4"
        }
      ],
      "name": "supportsInterface",
      "outputs": [
        {
          "internalType": "bool",
          "name": "",
          "type": "bool"
        }
      ],
      "stateMutability": "view",
      "type": "function"
    },
    {
      "inputs": [],
      "name": "symbol",
      "outputs": [
        {
          "internalType": "string",
          "name": "",
          "type": "string"
        }
      ],
      "stateMutability": "view",
      "type": "function"
    },
    {
      "inputs": [
        {
          "internalType": "address",
          "name": "newOwner",
          "type": "address"
        }
      ],
      "name": "transferOwnership",
      "outputs": [],
      "stateMutability": "nonpayable",
      "type": "function"
    },
    {
      "inputs": [
        {
          "internalType": "string",
          "name": "uri_",
          "type": "string"
        }
      ],
      "name": "updateURI",
      "outputs": [],
      "stateMutability": "nonpayable",
      "type": "function"
    },
    {
      "inputs": [
        {
          "internalType": "uint256",
          "name": "",
          "type": "uint256"
        }
      ],
      "name": "uri",
      "outputs": [
        {
          "internalType": "string",
          "name": "",
          "type": "string"
        }
      ],
      "stateMutability": "view",
      "type": "function"
    }
  ],
  "bytecode": "0x608060405234801561001057600080fd5b5060405161274638038061274683398101604081905261002f91610180565b8061003981610065565b5061004333610075565b600461004f848261029e565b50600561005c838261029e565b5050505061035c565b6002610071828261029e565b5050565b600380546001600160a01b038381166001600160a01b0319831681179093556040519116919082907f8be0079c531659141344cd1fd0a4f28419497f9722a3daafe3b4186f6b6457e090600090a35050565b634e487b7160e01b600052604160045260246000fd5b600082601f8301126100ee57600080fd5b81516001600160401b03811115610107576101076100c7565b604051601f8201601f19908116603f011681016001600160401b0381118282101715610135576101356100c7565b60405281815283820160200185101561014d57600080fd5b60005b8281101561016c57602081860181015183830182015201610150565b506000918101602001919091529392505050565b60008060006060848603121561019557600080fd5b83516001600160401b038111156101ab57600080fd5b6101b7868287016100dd565b602086015190945090506001600160401b038111156101d557600080fd5b6101e1868287016100dd565b604086015190935090506001600160401b038111156101ff57600080fd5b61020b868287016100dd565b9150509250925092565b600181811c9082168061022957607f821691505b60208210810361024957634e487b7160e01b600052602260045260246000fd5b50919050565b601f82111561029957806000526020600020601f840160051c810160208510156102765750805b601f840160051c820191505b818110156102965760008155600101610282565b50505b505050565b81516001600160401b038111156102b7576102b76100c7565b6102cb816102c58454610215565b8461024f565b6020601f8211600181146102ff57600083156102e75750848201515b600019600385901b1c1916600184901b178455610296565b600084815260208120601f198516915b8281101561032f578785015182556020948501946001909201910161030f565b508482101561034d5786840151600019600387901b60f8161c191681555b50505050600190811b01905550565b6123db8061036b6000396000f3fe608060405234801561001057600080fd5b50600436106101765760003560e01c8063731133e9116100d8578063c30f4a5a1161008c578063f242432a11610066578063f242432a14610317578063f2fde38b1461032a578063f5298aca1461033d57600080fd5b8063c30f4a5a146102de578063d4cea072146102f1578063e985e9c51461030457600080fd5b806395d89b41116100bd57806395d89b41146102a0578063a22cb465146102a8578063af4c0e44146102bb57600080fd5b8063731133e9146102725780638da5cb5b1461028557600080fd5b80631f7fdffa1161012f5780634935413d116101145780634935413d146102375780634e1273f41461024a578063715018a61461026a57600080fd5b80631f7fdffa1461020f5780632eb2c2d61461022457600080fd5b806306fdde031161016057806306fdde03146101c45780630e89341c146101d95780631baa7cc4146101ec57600080fd5b8062fdd58e1461017b57806301ffc9a7146101a1575b600080fd5b61018e610189366004611945565b610350565b6040519081526020015b60405180910390f35b6101b46101af366004611985565b6103ad565b6040519015158152602001610198565b6101cc6103fd565b60405161019891906119ef565b6101cc6101e7366004611a02565b61048b565b6101b46101fa366004611a02565b60066020526000908152604090205460ff1681565b61022261021d366004611b79565b61051f565b005b610222610232366004611c1e565b6106f2565b610222610245366004611d20565b61078b565b61025d610258366004611d91565b61080b565b6040516101989190611ea2565b610222610941565b610222610280366004611eb5565b610955565b6003546040516001600160a01b039091168152602001610198565b6101cc610985565b6102226102b6366004611f0e565b610992565b6101b46102c9366004611f41565b60076020526000908152604090205460ff1681565b6102226102ec366004611f5c565b6109a1565b6102226102ff366004611f0e565b6109b5565b6101b4610312366004611fad565b6109e8565b610222610325366004611fd7565b610a3f565b610222610338366004611f41565b610a62565b61022261034b366004612030565b610ad8565b60006001600160a01b03831661037957604051631c7d8e7960e11b815260040160405180910390fd5b60008281526006602052604090205460ff161561039a5750620f42406103a7565b6103a48383610b06565b90505b92915050565b60006001600160e01b03198216636cdb3d1360e11b14806103de57506001600160e01b031982166303a24d0760e21b145b806103a757506301ffc9a760e01b6001600160e01b03198316146103a7565b6004805461040a90612063565b80601f016020809104026020016040519081016040528092919081815260200182805461043690612063565b80156104835780601f1061045857610100808354040283529160200191610483565b820191906000526020600020905b81548152906001019060200180831161046657829003601f168201915b505050505081565b60606002805461049a90612063565b80601f01602080910402602001604051908101604052809291908181526020018280546104c690612063565b80156105135780601f106104e857610100808354040283529160200191610513565b820191906000526020600020905b8154815290600101906020018083116104f657829003601f168201915b50505050509050919050565b610527610baa565b6000805b8451811015610582576006600086838151811061054a5761054a61209d565b60209081029190910181015182528101919091526040016000205460ff1661057a5781610576816120c9565b9250505b60010161052b565b5060008167ffffffffffffffff81111561059e5761059e611a1b565b6040519080825280602002602001820160405280156105c7578160200160208202803683370190505b50905060008267ffffffffffffffff8111156105e5576105e5611a1b565b60405190808252806020026020018201604052801561060e578160200160208202803683370190505b5090506000805b87518110156106db57600660008983815181106106345761063461209d565b60209081029190910181015182528101919091526040016000205460ff166106d3578781815181106106685761066861209d565b60200260200101518483815181106106825761068261209d565b6020026020010181815250508681815181106106a0576106a061209d565b60200260200101518383815181106106ba576106ba61209d565b6020908102919091010152816106cf816120c9565b9250505b600101610615565b506106e888848488610c04565b5050505050505050565b6001600160a01b03851633148061070e575061070e85336109e8565b6107775760405162461bcd60e51b815260206004820152602f60248201527f455243313135353a2063616c6c6572206973206e6f7420746f6b656e206f776e60448201526e195c881b9bdc88185c1c1c9bdd9959608a1b60648201526084015b60405180910390fd5b6107848585858585610dbf565b5050505050565b610793610baa565b60005b83811015610784578282828181106107b0576107b061209d565b90506020020160208101906107c591906120e2565b600660008787858181106107db576107db61209d565b60209081029290920135835250810191909152604001600020805460ff1916911515919091179055600101610796565b606081518351146108845760405162461bcd60e51b815260206004820152602960248201527f455243313135353a206163636f756e747320616e6420696473206c656e67746860448201527f206d69736d617463680000000000000000000000000000000000000000000000606482015260840161076e565b6000835167ffffffffffffffff8111156108a0576108a0611a1b565b6040519080825280602002602001820160405280156108c9578160200160208202803683370190505b50905060005b8451811015610939576109148582815181106108ed576108ed61209d565b60200260200101518583815181106109075761090761209d565b6020026020010151610350565b8282815181106109265761092661209d565b60209081029190910101526001016108cf565b509392505050565b610949610baa565b6109536000611016565b565b61095d610baa565b60008381526006602052604090205460ff1661097f5761097f84848484611075565b50505050565b6005805461040a90612063565b61099d338383611189565b5050565b6109a9610baa565b6109b28161127d565b50565b6109bd610baa565b6001600160a01b03919091166000908152600760205260409020805460ff1916911515919091179055565b6001600160a01b03811660009081526007602052604081205460ff1615610a11575060016103a7565b6001600160a01b0380841660009081526001602090815260408083209386168352929052205460ff166103a4565b60008381526006602052604090205460ff16610784576107848585858585611289565b610a6a610baa565b6001600160a01b038116610acf5760405162461bcd60e51b815260206004820152602660248201527f4f776e61626c653a206e6577206f776e657220697320746865207a65726f206160448201526564647265737360d01b606482015260840161076e565b6109b281611016565b610ae0610baa565b60008281526006602052604090205460ff16610b0157610b01838383611316565b505050565b60006001600160a01b038316610b845760405162461bcd60e51b815260206004820152602a60248201527f455243313135353a2061646472657373207a65726f206973206e6f742061207660448201527f616c6964206f776e657200000000000000000000000000000000000000000000606482015260840161076e565b506000908152602081815260408083206001600160a01b03949094168352929052205490565b6003546001600160a01b031633146109535760405162461bcd60e51b815260206004820181905260248201527f4f776e61626c653a2063616c6c6572206973206e6f7420746865206f776e6572604482015260640161076e565b6001600160a01b038416610c645760405162461bcd60e51b815260206004820152602160248201527f455243313135353a206d696e7420746f20746865207a65726f206164647265736044820152607360f81b606482015260840161076e565b8151835114610cc65760405162461bcd60e51b815260206004820152602860248201527f455243313135353a2069647320616e6420616d6f756e7473206c656e677468206044820152670dad2e6dac2e8c6d60c31b606482015260840161076e565b3360005b8451811015610d5757838181518110610ce557610ce561209d565b6020026020010151600080878481518110610d0257610d0261209d565b602002602001015181526020019081526020016000206000886001600160a01b03166001600160a01b031681526020019081526020016000206000828254610d4a91906120fd565b9091555050600101610cca565b50846001600160a01b031660006001600160a01b0316826001600160a01b03167f4a39dc06d4c0dbc64b70af90fd698a233a518aa5d07e595d983b8c0526c8f7fb8787604051610da8929190612110565b60405180910390a461078481600087878787611492565b8151835114610e215760405162461bcd60e51b815260206004820152602860248201527f455243313135353a2069647320616e6420616d6f756e7473206c656e677468206044820152670dad2e6dac2e8c6d60c31b606482015260840161076e565b6001600160a01b038416610e855760405162461bcd60e51b815260206004820152602560248201527f455243313135353a207472616e7366657220746f20746865207a65726f206164604482015264647265737360d81b606482015260840161076e565b3360005b8451811015610fa8576000858281518110610ea657610ea661209d565b602002602001015190506000858381518110610ec457610ec461209d565b602090810291909101810151600084815280835260408082206001600160a01b038e168352909352919091205490915081811015610f575760405162461bcd60e51b815260206004820152602a60248201527f455243313135353a20696e73756666696369656e742062616c616e636520666f60448201526939103a3930b739b332b960b11b606482015260840161076e565b6000838152602081815260408083206001600160a01b038e8116855292528083208585039055908b16825281208054849290610f949084906120fd565b909155505060019093019250610e89915050565b50846001600160a01b0316866001600160a01b0316826001600160a01b03167f4a39dc06d4c0dbc64b70af90fd698a233a518aa5d07e595d983b8c0526c8f7fb8787604051610ff8929190612110565b60405180910390a461100e818787878787611492565b505050505050565b600380546001600160a01b0383811673ffffffffffffffffffffffffffffffffffffffff19831681179093556040519116919082907f8be0079c531659141344cd1fd0a4f28419497f9722a3daafe3b4186f6b6457e090600090a35050565b6001600160a01b0384166110d55760405162461bcd60e51b815260206004820152602160248201527f455243313135353a206d696e7420746f20746865207a65726f206164647265736044820152607360f81b606482015260840161076e565b3360006110e185611637565b905060006110ee85611637565b90506000868152602081815260408083206001600160a01b038b168452909152812080548792906111209084906120fd565b909155505060408051878152602081018790526001600160a01b03808a1692600092918716917fc3d58168c5ae7397731d063d5bbf3d657854427343f4c083240f7aacaa2d0f62910160405180910390a461118083600089898989611682565b50505050505050565b816001600160a01b0316836001600160a01b0316036112105760405162461bcd60e51b815260206004820152602960248201527f455243313135353a2073657474696e6720617070726f76616c2073746174757360448201527f20666f722073656c660000000000000000000000000000000000000000000000606482015260840161076e565b6001600160a01b03838116600081815260016020908152604080832094871680845294825291829020805460ff191686151590811790915591519182527f17307eab39ab6107e8899845ad3d59bd9653f200f220920489ca2b5937696c31910160405180910390a3505050565b600261099d8282612185565b6001600160a01b0385163314806112a557506112a585336109e8565b6113095760405162461bcd60e51b815260206004820152602f60248201527f455243313135353a2063616c6c6572206973206e6f7420746f6b656e206f776e60448201526e195c881b9bdc88185c1c1c9bdd9959608a1b606482015260840161076e565b610784858585858561177e565b6001600160a01b0383166113785760405162461bcd60e51b815260206004820152602360248201527f455243313135353a206275726e2066726f6d20746865207a65726f206164647260448201526265737360e81b606482015260840161076e565b33600061138484611637565b9050600061139184611637565b60408051602080820183526000918290528882528181528282206001600160a01b038b168352905220549091508481101561141a5760405162461bcd60e51b8152602060048201526024808201527f455243313135353a206275726e20616d6f756e7420657863656564732062616c604482015263616e636560e01b606482015260840161076e565b6000868152602081815260408083206001600160a01b038b81168086529184528285208a8703905582518b81529384018a90529092908816917fc3d58168c5ae7397731d063d5bbf3d657854427343f4c083240f7aacaa2d0f62910160405180910390a4604080516020810190915260009052611180565b6001600160a01b0384163b1561100e5760405163bc197c8160e01b81526001600160a01b0385169063bc197c81906114d69089908990889088908890600401612244565b6020604051808303816000875af1925050508015611511575060408051601f3d908101601f1916820190925261150e918101906122a7565b60015b6115c65761151d6122c4565b806308c379a00361155657506115316122e0565b8061153c5750611558565b8060405162461bcd60e51b815260040161076e91906119ef565b505b60405162461bcd60e51b815260206004820152603460248201527f455243313135353a207472616e7366657220746f206e6f6e204552433131353560448201527f526563656976657220696d706c656d656e746572000000000000000000000000606482015260840161076e565b6001600160e01b0319811663bc197c8160e01b146111805760405162461bcd60e51b815260206004820152602860248201527f455243313135353a204552433131353552656365697665722072656a656374656044820152676420746f6b656e7360c01b606482015260840161076e565b604080516001808252818301909252606091600091906020808301908036833701905050905082816000815181106116715761167161209d565b602090810291909101015292915050565b6001600160a01b0384163b1561100e5760405163f23a6e6160e01b81526001600160a01b0385169063f23a6e61906116c6908990899088908890889060040161235d565b6020604051808303816000875af1925050508015611701575060408051601f3d908101601f191682019092526116fe918101906122a7565b60015b61170d5761151d6122c4565b6001600160e01b0319811663f23a6e6160e01b146111805760405162461bcd60e51b815260206004820152602860248201527f455243313135353a204552433131353552656365697665722072656a656374656044820152676420746f6b656e7360c01b606482015260840161076e565b6001600160a01b0384166117e25760405162461bcd60e51b815260206004820152602560248201527f455243313135353a207472616e7366657220746f20746865207a65726f206164604482015264647265737360d81b606482015260840161076e565b3360006117ee85611637565b905060006117fb85611637565b90506000868152602081815260408083206001600160a01b038c168452909152902054858110156118815760405162461bcd60e51b815260206004820152602a60248201527f455243313135353a20696e73756666696369656e742062616c616e636520666f60448201526939103a3930b739b332b960b11b606482015260840161076e565b6000878152602081815260408083206001600160a01b038d8116855292528083208985039055908a168252812080548892906118be9084906120fd565b909155505060408051888152602081018890526001600160a01b03808b16928c821692918816917fc3d58168c5ae7397731d063d5bbf3d657854427343f4c083240f7aacaa2d0f62910160405180910390a461191e848a8a8a8a8a611682565b505050505050505050565b80356001600160a01b038116811461194057600080fd5b919050565b6000806040838503121561195857600080fd5b61196183611929565b946020939093013593505050565b6001600160e01b0319811681146109b257600080fd5b60006020828403121561199757600080fd5b81356119a28161196f565b9392505050565b6000815180845260005b818110156119cf576020818501810151868301820152016119b3565b506000602082860101526020601f19601f83011685010191505092915050565b6020815260006103a460208301846119a9565b600060208284031215611a1457600080fd5b5035919050565b634e487b7160e01b600052604160045260246000fd5b601f8201601f1916810167ffffffffffffffff81118282101715611a5757611a57611a1b565b6040525050565b600067ffffffffffffffff821115611a7857611a78611a1b565b5060051b60200190565b600082601f830112611a9357600080fd5b8135611a9e81611a5e565b604051611aab8282611a31565b80915082815260208101915060208360051b860101925085831115611acf57600080fd5b602085015b83811015611aec578035835260209283019201611ad4565b5095945050505050565b60008067ffffffffffffffff841115611b1157611b11611a1b565b50604051601f8401601f191660200190611b2b8282611a31565b809250848152858585011115611b4057600080fd5b8484602083013760006020868301015250509392505050565b600082601f830112611b6a57600080fd5b6103a483833560208501611af6565b60008060008060808587031215611b8f57600080fd5b611b9885611929565b9350602085013567ffffffffffffffff811115611bb457600080fd5b611bc087828801611a82565b935050604085013567ffffffffffffffff811115611bdd57600080fd5b611be987828801611a82565b925050606085013567ffffffffffffffff811115611c0657600080fd5b611c1287828801611b59565b91505092959194509250565b600080600080600060a08688031215611c3657600080fd5b611c3f86611929565b9450611c4d60208701611929565b9350604086013567ffffffffffffffff811115611c6957600080fd5b611c7588828901611a82565b935050606086013567ffffffffffffffff811115611c9257600080fd5b611c9e88828901611a82565b925050608086013567ffffffffffffffff811115611cbb57600080fd5b611cc788828901611b59565b9150509295509295909350565b60008083601f840112611ce657600080fd5b50813567ffffffffffffffff811115611cfe57600080fd5b6020830191508360208260051b8501011115611d1957600080fd5b9250929050565b60008060008060408587031215611d3657600080fd5b843567ffffffffffffffff811115611d4d57600080fd5b611d5987828801611cd4565b909550935050602085013567ffffffffffffffff811115611d7957600080fd5b611d8587828801611cd4565b95989497509550505050565b60008060408385031215611da457600080fd5b823567ffffffffffffffff811115611dbb57600080fd5b8301601f81018513611dcc57600080fd5b8035611dd781611a5e565b604051611de48282611a31565b80915082815260208101915060208360051b850101925087831115611e0857600080fd5b6020840193505b82841015611e3157611e2084611929565b825260209384019390910190611e0f565b9450505050602083013567ffffffffffffffff811115611e5057600080fd5b611e5c85828601611a82565b9150509250929050565b600081518084526020840193506020830160005b82811015611e98578151865260209586019590910190600101611e7a565b5093949350505050565b6020815260006103a46020830184611e66565b60008060008060808587031215611ecb57600080fd5b611ed485611929565b93506020850135925060408501359150606085013567ffffffffffffffff811115611c0657600080fd5b8035801515811461194057600080fd5b60008060408385031215611f2157600080fd5b611f2a83611929565b9150611f3860208401611efe565b90509250929050565b600060208284031215611f5357600080fd5b6103a482611929565b600060208284031215611f6e57600080fd5b813567ffffffffffffffff811115611f8557600080fd5b8201601f81018413611f9657600080fd5b611fa584823560208401611af6565b949350505050565b60008060408385031215611fc057600080fd5b611fc983611929565b9150611f3860208401611929565b600080600080600060a08688031215611fef57600080fd5b611ff886611929565b945061200660208701611929565b93506040860135925060608601359150608086013567ffffffffffffffff811115611cbb57600080fd5b60008060006060848603121561204557600080fd5b61204e84611929565b95602085013595506040909401359392505050565b600181811c9082168061207757607f821691505b60208210810361209757634e487b7160e01b600052602260045260246000fd5b50919050565b634e487b7160e01b600052603260045260246000fd5b634e487b7160e01b600052601160045260246000fd5b6000600182016120db576120db6120b3565b5060010190565b6000602082840312156120f457600080fd5b6103a482611efe565b808201808211156103a7576103a76120b3565b6040815260006121236040830185611e66565b82810360208401526121358185611e66565b95945050505050565b601f821115610b0157806000526020600020601f840160051c810160208510156121655750805b601f840160051c820191505b818110156107845760008155600101612171565b815167ffffffffffffffff81111561219f5761219f611a1b565b6121b3816121ad8454612063565b8461213e565b6020601f8211600181146121e757600083156121cf5750848201515b600019600385901b1c1916600184901b178455610784565b600084815260208120601f198516915b8281101561221757878501518255602094850194600190920191016121f7565b50848210156122355786840151600019600387901b60f8161c191681555b50505050600190811b01905550565b6001600160a01b03861681526001600160a01b038516602082015260a06040820152600061227560a0830186611e66565b82810360608401526122878186611e66565b9050828103608084015261229b81856119a9565b98975050505050505050565b6000602082840312156122b957600080fd5b81516119a28161196f565b600060033d11156122dd5760046000803e5060005160e01c5b90565b600060443d10156122ee5790565b6040513d600319016004823e80513d602482011167ffffffffffffffff8211171561231857505090565b808201805167ffffffffffffffff811115612334575050505090565b3d840160031901828201602001111561234e575050505090565b61093960208285010185611a31565b6001600160a01b03861681526001600160a01b038516602082015283604082015282606082015260a06080820152600061239a60a08301846119a9565b97965050505050505056fea2646970667358221220fbe0249b8bb9ee7efdbefe172e78970d6b69ea15ab5ffb5ac97dafd0e17d2ea564736f6c634300081a0033",
  "linkReferences": {},
  "deployedLinkReferences": {}
}