{
  "_format": "hh-sol-artifact-1",
  "contractName": "World",
  "sourceName": "contracts/core/World.sol",
  "abi": [
    {
      "inputs": [],
      "name": "CurrentEraCannotBeDestroyedDueCultistsLimitNotReached",
      "type": "error"
    },
    {
      "inputs": [],
      "name": "CurrentEraCannotBeDestroyedDueToCultistsNoDestructionDelayNotPassed",
      "type": "error"
    },
    {
      "inputs": [],
      "name": "OnlyActiveGame",
      "type": "error"
    },
    {
      "inputs": [],
      "name": "OnlyFactory",
      "type": "error"
    },
    {
      "inputs": [],
      "name": "OnlyMightyCreator",
      "type": "error"
    },
    {
      "inputs": [],
      "name": "OnlyMightyCreatorOrRewardPool",
      "type": "error"
    },
    {
      "anonymous": false,
      "inputs": [
        {
          "indexed": false,
          "internalType": "uint256",
          "name": "newEraNumber",
          "type": "uint256"
        }
      ],
      "name": "CurrentEraNumberUpdated",
      "type": "event"
    },
    {
      "anonymous": false,
      "inputs": [
        {
          "indexed": false,
          "internalType": "address",
          "name": "newEraAddress",
          "type": "address"
        },
        {
          "indexed": false,
          "internalType": "uint256",
          "name": "newEraNumber",
          "type": "uint256"
        }
      ],
      "name": "EraCreated",
      "type": "event"
    },
    {
      "anonymous": false,
      "inputs": [
        {
          "indexed": false,
          "internalType": "uint256",
          "name": "newBeginTime",
          "type": "uint256"
        }
      ],
      "name": "GameBeginTimeUpdated",
      "type": "event"
    },
    {
      "anonymous": false,
      "inputs": [
        {
          "indexed": false,
          "internalType": "uint256",
          "name": "newEndTime",
          "type": "uint256"
        }
      ],
      "name": "GameEndTimeUpdated",
      "type": "event"
    },
    {
      "anonymous": false,
      "inputs": [
        {
          "indexed": false,
          "internalType": "uint8",
          "name": "version",
          "type": "uint8"
        }
      ],
      "name": "Initialized",
      "type": "event"
    },
    {
      "anonymous": false,
      "inputs": [
        {
          "indexed": false,
          "internalType": "address",
          "name": "registryAddress",
          "type": "address"
        },
        {
          "indexed": false,
          "internalType": "address",
          "name": "crossErasMemoryAddress",
          "type": "address"
        },
        {
          "indexed": false,
          "internalType": "address",
          "name": "geographyAddress",
          "type": "address"
        },
        {
          "indexed": false,
          "internalType": "address",
          "name": "bannersAddress",
          "type": "address"
        },
        {
          "indexed": false,
          "internalType": "address",
          "name": "erc20ForBuyingSettlementAddress",
          "type": "address"
        },
        {
          "indexed": false,
          "internalType": "address",
          "name": "erc20ForRegionInclusionAddress",
          "type": "address"
        },
        {
          "indexed": false,
          "internalType": "address",
          "name": "regionOwnershipTokenAddress",
          "type": "address"
        },
        {
          "indexed": false,
          "internalType": "address",
          "name": "distributionsAddress",
          "type": "address"
        },
        {
          "indexed": false,
          "internalType": "address",
          "name": "rewardPoolAddress",
          "type": "address"
        }
      ],
      "name": "WorldInitialized",
      "type": "event"
    },
    {
      "inputs": [
        {
          "internalType": "uint256",
          "name": "eraNumber",
          "type": "uint256"
        },
        {
          "internalType": "address",
          "name": "worldAsset",
          "type": "address"
        },
        {
          "internalType": "bytes32",
          "name": "assetType",
          "type": "bytes32"
        }
      ],
      "name": "addWorldAsset",
      "outputs": [],
      "stateMutability": "nonpayable",
      "type": "function"
    },
    {
      "inputs": [],
      "name": "bannerContract",
      "outputs": [
        {
          "internalType": "contract IERC721",
          "name": "",
          "type": "address"
        }
      ],
      "stateMutability": "view",
      "type": "function"
    },
    {
      "inputs": [],
      "name": "crossErasMemory",
      "outputs": [
        {
          "internalType": "contract ICrossErasMemory",
          "name": "",
          "type": "address"
        }
      ],
      "stateMutability": "view",
      "type": "function"
    },
    {
      "inputs": [],
      "name": "currentEraNumber",
      "outputs": [
        {
          "internalType": "uint256",
          "name": "",
          "type": "uint256"
        }
      ],
      "stateMutability": "view",
      "type": "function"
    },
    {
      "inputs": [],
      "name": "destroyCurrentEra",
      "outputs": [],
      "stateMutability": "nonpayable",
      "type": "function"
    },
    {
      "inputs": [],
      "name": "distributions",
      "outputs": [
        {
          "internalType": "contract IDistributions",
          "name": "",
          "type": "address"
        }
      ],
      "stateMutability": "view",
      "type": "function"
    },
    {
      "inputs": [
        {
          "internalType": "uint256",
          "name": "",
          "type": "uint256"
        }
      ],
      "name": "eras",
      "outputs": [
        {
          "internalType": "contract IEra",
          "name": "",
          "type": "address"
        }
      ],
      "stateMutability": "view",
      "type": "function"
    },
    {
      "inputs": [],
      "name": "erc20ForRegionInclusion",
      "outputs": [
        {
          "internalType": "contract IERC20",
          "name": "",
          "type": "address"
        }
      ],
      "stateMutability": "view",
      "type": "function"
    },
    {
      "inputs": [],
      "name": "erc20ForSettlementPurchase",
      "outputs": [
        {
          "internalType": "contract IERC20",
          "name": "",
          "type": "address"
        }
      ],
      "stateMutability": "view",
      "type": "function"
    },
    {
      "inputs": [],
      "name": "gameBeginTime",
      "outputs": [
        {
          "internalType": "uint256",
          "name": "",
          "type": "uint256"
        }
      ],
      "stateMutability": "view",
      "type": "function"
    },
    {
      "inputs": [],
      "name": "gameEndTime",
      "outputs": [
        {
          "internalType": "uint256",
          "name": "",
          "type": "uint256"
        }
      ],
      "stateMutability": "view",
      "type": "function"
    },
    {
      "inputs": [],
      "name": "geography",
      "outputs": [
        {
          "internalType": "contract IGeography",
          "name": "",
          "type": "address"
        }
      ],
      "stateMutability": "view",
      "type": "function"
    },
    {
      "inputs": [],
      "name": "getRegionRadius",
      "outputs": [
        {
          "internalType": "uint64",
          "name": "",
          "type": "uint64"
        }
      ],
      "stateMutability": "pure",
      "type": "function"
    },
    {
      "inputs": [],
      "name": "getRegionSeed",
      "outputs": [
        {
          "internalType": "bytes32",
          "name": "",
          "type": "bytes32"
        }
      ],
      "stateMutability": "pure",
      "type": "function"
    },
    {
      "inputs": [],
      "name": "getRegionTierSeed",
      "outputs": [
        {
          "internalType": "bytes32",
          "name": "",
          "type": "bytes32"
        }
      ],
      "stateMutability": "view",
      "type": "function"
    },
    {
      "inputs": [],
      "name": "getTileBonusesSeed",
      "outputs": [
        {
          "internalType": "bytes32",
          "name": "",
          "type": "bytes32"
        }
      ],
      "stateMutability": "pure",
      "type": "function"
    },
    {
      "inputs": [
        {
          "internalType": "bytes28",
          "name": "",
          "type": "bytes28"
        }
      ],
      "name": "implementations",
      "outputs": [
        {
          "internalType": "address",
          "name": "",
          "type": "address"
        }
      ],
      "stateMutability": "view",
      "type": "function"
    },
    {
      "inputs": [
        {
          "internalType": "bytes",
          "name": "packedAddresses",
          "type": "bytes"
        },
        {
          "internalType": "bytes28[]",
          "name": "assetIds",
          "type": "bytes28[]"
        },
        {
          "internalType": "address[]",
          "name": "implementationAddresses",
          "type": "address[]"
        }
      ],
      "name": "init",
      "outputs": [],
      "stateMutability": "nonpayable",
      "type": "function"
    },
    {
      "inputs": [
        {
          "internalType": "uint256",
          "name": "eraNumber",
          "type": "uint256"
        },
        {
          "internalType": "bytes32",
          "name": "resourceTypeId",
          "type": "bytes32"
        },
        {
          "internalType": "address",
          "name": "to",
          "type": "address"
        },
        {
          "internalType": "uint256",
          "name": "value",
          "type": "uint256"
        }
      ],
      "name": "mintResources",
      "outputs": [],
      "stateMutability": "nonpayable",
      "type": "function"
    },
    {
      "inputs": [
        {
          "internalType": "uint256",
          "name": "eraNumber",
          "type": "uint256"
        },
        {
          "internalType": "bytes32",
          "name": "unitTypeId",
          "type": "bytes32"
        },
        {
          "internalType": "address",
          "name": "to",
          "type": "address"
        },
        {
          "internalType": "uint256",
          "name": "value",
          "type": "uint256"
        }
      ],
      "name": "mintUnits",
      "outputs": [],
      "stateMutability": "nonpayable",
      "type": "function"
    },
    {
      "inputs": [
        {
          "internalType": "uint256",
          "name": "eraNumber",
          "type": "uint256"
        },
        {
          "internalType": "address",
          "name": "_to",
          "type": "address"
        },
        {
          "internalType": "uint256",
          "name": "_value",
          "type": "uint256"
        }
      ],
      "name": "mintWorkers",
      "outputs": [],
      "stateMutability": "nonpayable",
      "type": "function"
    },
    {
      "inputs": [],
      "name": "regionOwnershipToken",
      "outputs": [
        {
          "internalType": "contract IRegionOwnershipToken",
          "name": "",
          "type": "address"
        }
      ],
      "stateMutability": "view",
      "type": "function"
    },
    {
      "inputs": [],
      "name": "registry",
      "outputs": [
        {
          "internalType": "contract IRegistry",
          "name": "",
          "type": "address"
        }
      ],
      "stateMutability": "view",
      "type": "function"
    },
    {
      "inputs": [],
      "name": "rewardPool",
      "outputs": [
        {
          "internalType": "contract IRewardPool",
          "name": "",
          "type": "address"
        }
      ],
      "stateMutability": "view",
      "type": "function"
    },
    {
      "inputs": [
        {
          "internalType": "uint256",
          "name": "value",
          "type": "uint256"
        }
      ],
      "name": "setGameBeginTime",
      "outputs": [],
      "stateMutability": "nonpayable",
      "type": "function"
    },
    {
      "inputs": [
        {
          "internalType": "uint256",
          "name": "value",
          "type": "uint256"
        }
      ],
      "name": "setGameEndTime",
      "outputs": [],
      "stateMutability": "nonpayable",
      "type": "function"
    },
    {
      "inputs": [
        {
          "internalType": "bytes28[]",
          "name": "assetIds",
          "type": "bytes28[]"
        },
        {
          "internalType": "address[]",
          "name": "implementationAddresses",
          "type": "address[]"
        }
      ],
      "name": "setImplementations",
      "outputs": [],
      "stateMutability": "nonpayable",
      "type": "function"
    },
    {
      "inputs": [
        {
          "internalType": "uint256",
          "name": "",
          "type": "uint256"
        },
        {
          "internalType": "address",
          "name": "",
          "type": "address"
        }
      ],
      "name": "worldAssets",
      "outputs": [
        {
          "internalType": "bytes32",
          "name": "",
          "type": "bytes32"
        }
      ],
      "stateMutability": "view",
      "type": "function"
    }
  ],
  "bytecode": "0x6080604052348015600f57600080fd5b506117108061001f6000396000f3fe608060405234801561001057600080fd5b50600436106101c45760003560e01c80637b103999116100f9578063bb993a5811610097578063e4e940f011610071578063e4e940f0146103d7578063e7f3602e146103ea578063ebbe8034146103fd578063f5f026a31461042857600080fd5b8063bb993a5814610388578063bc3700dd146103b1578063c1897e34146103c457600080fd5b8063879d62ed116100d3578063879d62ed14610340578063909a85311461034f578063a8d66c7514610362578063bae6772a1461037557600080fd5b80637b103999146102ca5780637f953d1a146102e35780638544dbda146102f657600080fd5b80635a4482d1116101665780636dbd4f04116101405780636dbd4f041461027d578063704f63a1146102905780637100296b14610299578063720a70bd146102a157600080fd5b80635a4482d11461024457806366666aa9146102575780636c4f17731461026a57600080fd5b80633c8ca83d116101a25780633c8ca83d1461021d57806344d9bc5f1461022657806348524fe5146101c9578063492b3f841461022f57600080fd5b8063041cb846146101c957806316229bef146101df578063183100fa1461020a575b600080fd5b60005b6040519081526020015b60405180910390f35b6004546101f2906001600160a01b031681565b6040516001600160a01b0390911681526020016101d6565b6002546101f2906001600160a01b031681565b6101cc60095481565b6101cc600a5481565b61024261023d366004611231565b61043b565b005b610242610252366004611269565b610524565b6008546101f2906001600160a01b031681565b6102426102783660046112ce565b610568565b61024261028b366004611269565b6108b4565b6101cc600b5481565b6102426108f1565b6101f26102af366004611269565b600c602052600090815260409020546001600160a01b031681565b6000546101f2906201000090046001600160a01b031681565b6102426102f13660046113a3565b610b3d565b6101cc600b546040516bffffffffffffffffffffffff193060601b166020820152603481019190915260009060540160405160208183030381529060405280519060200120905090565b604051600f81526020016101d6565b61024261035d366004611231565b610c2a565b6007546101f2906001600160a01b031681565b6005546101f2906001600160a01b031681565b6101f26103963660046113e2565b600d602052600090815260409020546001600160a01b031681565b6102426103bf366004611410565b610c58565b6003546101f2906001600160a01b031681565b6006546101f2906001600160a01b031681565b6102426103f83660046113a3565b610d0e565b6101cc61040b366004611481565b600e60209081526000928352604080842090915290825290205481565b6001546101f2906001600160a01b031681565b610443610d54565b6000838152600c6020908152604091829020548251630cabb62f60e41b815292516001600160a01b039091169263cabb62f09260048083019391928290030181865afa158015610497573d6000803e3d6000fd5b505050506040513d601f19601f820116820180604052508101906104bb91906114b1565b6040516340c10f1960e01b81526001600160a01b0384811660048301526024820184905291909116906340c10f1990604401600060405180830381600087803b15801561050757600080fd5b505af115801561051b573d6000803e3d6000fd5b50505050505050565b61052c610dfe565b600a8190556040518181527f1809de91754ef9d7e3f050adb54f24015cb34965236b6cc681504d06d060e2f5906020015b60405180910390a150565b600054610100900460ff16158080156105885750600054600160ff909116105b806105a25750303b1580156105a2575060005460ff166001145b6106185760405162461bcd60e51b815260206004820152602e60248201527f496e697469616c697a61626c653a20636f6e747261637420697320616c72656160448201527f647920696e697469616c697a6564000000000000000000000000000000000000606482015260840160405180910390fd5b6000805460ff19166001179055801561063b576000805461ff0019166101001790555b60008060008060008060008060008f8f81019061065891906114ce565b98509850985098509850985098509850985088600060026101000a8154816001600160a01b0302191690836001600160a01b0316021790555087600760006101000a8154816001600160a01b0302191690836001600160a01b0316021790555086600160006101000a8154816001600160a01b0302191690836001600160a01b0316021790555085600260006101000a8154816001600160a01b0302191690836001600160a01b0316021790555084600360006101000a8154816001600160a01b0302191690836001600160a01b0316021790555083600460006101000a8154816001600160a01b0302191690836001600160a01b0316021790555082600560006101000a8154816001600160a01b0302191690836001600160a01b0316021790555081600660006101000a8154816001600160a01b0302191690836001600160a01b0316021790555080600860006101000a8154816001600160a01b0302191690836001600160a01b031602179055506107d58e8e8e8e610c58565b604080516001600160a01b038b811682528a81166020830152898116828401528881166060830152878116608083015286811660a083015285811660c083015284811660e0830152831661010082015290517fb88ddf2ff0dcee9e335a235c71b4be093a27a1c7eafd8c78202016ea221600f7918190036101200190a161085d600b54610ebf565b505050505050505050801561051b576000805461ff0019169055604051600181527f7f26b83ff96e1f2b6a682f133852f6798a09c465da95921460cefb38474024989060200160405180910390a150505050505050565b6108bc610d54565b60098190556040518181527f2c3b4ec3f2328b3635f8946c67e708f31223bb2f2d37e947bdd41f6535f7097c9060200161055d565b6108f9610f4b565b600b546000908152600c60205260408120546001600160a01b03169060059061092582621a5e006115b6565b9050600061093683620d2f006115b6565b905060006109a7856001600160a01b031663d8270dce6040518163ffffffff1660e01b8152600401602060405180830381865afa15801561097b573d6000803e3d6000fd5b505050506040513d601f19601f8201168201806040525081019061099f91906115ca565b600954610fa8565b90508042116109c957604051630146103160e11b815260040160405180910390fd5b60006109d582426115e3565b905060006109e385836115f6565b9050838111610a0557604051630146103160e11b815260040160405180910390fd5b600069010f0cf064dd59200000600160009054906101000a90046001600160a01b03166001600160a01b031663e114c8d96040518163ffffffff1660e01b8152600401602060405180830381865afa158015610a65573d6000803e3d6000fd5b505050506040513d601f19601f82011682018060405250810190610a8991906115ca565b610a93919061160a565b905080886001600160a01b031663fcc814b06040518163ffffffff1660e01b8152600401602060405180830381865afa158015610ad4573d6000803e3d6000fd5b505050506040513d601f19601f82011682018060405250810190610af891906115ca565b11610b1657604051635c3f841160e11b815260040160405180910390fd5b6000600b546001610b279190611621565b9050610b3281610ebf565b505050505050505050565b610b45610d54565b6000848152600c60205260409081902054905163912929df60e01b8152600481018590526001600160a01b039091169063912929df906024015b602060405180830381865afa158015610b9c573d6000803e3d6000fd5b505050506040513d601f19601f82011682018060405250810190610bc091906114b1565b6040516340c10f1960e01b81526001600160a01b0384811660048301526024820184905291909116906340c10f1990604401600060405180830381600087803b158015610c0c57600080fd5b505af1158015610c20573d6000803e3d6000fd5b5050505050505050565b610c32610fc3565b6000928352600e602090815260408085206001600160a01b039094168552929052912055565b610c60610d54565b60005b83811015610d0757828282818110610c7d57610c7d611634565b9050602002016020810190610c92919061164a565b600d6000878785818110610ca857610ca8611634565b9050602002016020810190610cbd91906113e2565b63ffffffff191681526020810191909152604001600020805473ffffffffffffffffffffffffffffffffffffffff19166001600160a01b0392909216919091179055600101610c63565b5050505050565b610d16610d54565b6000848152600c60205260409081902054905163feae7dc360e01b8152600481018590526001600160a01b039091169063feae7dc390602401610b7f565b600060029054906101000a90046001600160a01b03166001600160a01b031663271530506040518163ffffffff1660e01b8152600401602060405180830381865afa158015610da7573d6000803e3d6000fd5b505050506040513d601f19601f82011682018060405250810190610dcb91906114b1565b6001600160a01b0316336001600160a01b031614610dfc5760405163d136afd560e01b815260040160405180910390fd5b565b600060029054906101000a90046001600160a01b03166001600160a01b031663271530506040518163ffffffff1660e01b8152600401602060405180830381865afa158015610e51573d6000803e3d6000fd5b505050506040513d601f19601f82011682018060405250810190610e7591906114b1565b6001600160a01b0316336001600160a01b031614158015610ea157506008546001600160a01b03163314155b15610dfc5760405163c90a1bdb60e01b815260040160405180910390fd5b6000610eca8261106b565b6000838152600c6020908152604091829020805473ffffffffffffffffffffffffffffffffffffffff19166001600160a01b03851690811790915582519081529081018590529192507fd4f8a54e816a47778b66fb7c728d60157748b9f4a3a2d12d94977acfbd4f2a2c910160405180910390a1610f47826111e4565b5050565b600954600a54811580610f5d57508142105b15610f7b5760405163a00eda6960e01b815260040160405180910390fd5b8015801590610f8a5750804210155b15610f475760405163a00eda6960e01b815260040160405180910390fd5b600081831015610fb85781610fba565b825b90505b92915050565b600060029054906101000a90046001600160a01b03166001600160a01b031663ece56a1a6040518163ffffffff1660e01b8152600401602060405180830381865afa158015611016573d6000803e3d6000fd5b505050506040513d601f19601f8201168201806040525081019061103a91906114b1565b6001600160a01b0316336001600160a01b031614610dfc57604051630636a15760e11b815260040160405180910390fd5b60008060029054906101000a90046001600160a01b03166001600160a01b031663ece56a1a6040518163ffffffff1660e01b8152600401602060405180830381865afa1580156110bf573d6000803e3d6000fd5b505050506040513d601f19601f820116820180604052508101906110e391906114b1565b604080518082018252600381526265726160e81b602091820152815180830183526005815264424153494360d81b908201528151808201869052825180820390920182528083019283905263c19755fd60e01b9092526001600160a01b03929092169163c19755fd916111a191309187917f59be402c15bd54a04f1c437d99253c48b320e5bdc871e9737791cc38e7718112917fdc0ae866100b2876ab26eb62a50ca2cd083944f439e6d78aab2fc402e669e9ee9190604401611667565b6020604051808303816000875af11580156111c0573d6000803e3d6000fd5b505050506040513d601f19601f82011682018060405250810190610fbd91906114b1565b600b8190556040518181527f6c10311cc3d648f9dedb8a798aae315f8801ef33016ed6143c2c3deb5b215a269060200161055d565b6001600160a01b038116811461122e57600080fd5b50565b60008060006060848603121561124657600080fd5b83359250602084013561125881611219565b929592945050506040919091013590565b60006020828403121561127b57600080fd5b5035919050565b60008083601f84011261129457600080fd5b50813567ffffffffffffffff8111156112ac57600080fd5b6020830191508360208260051b85010111156112c757600080fd5b9250929050565b600080600080600080606087890312156112e757600080fd5b863567ffffffffffffffff8111156112fe57600080fd5b8701601f8101891361130f57600080fd5b803567ffffffffffffffff81111561132657600080fd5b89602082840101111561133857600080fd5b60209182019750955087013567ffffffffffffffff81111561135957600080fd5b61136589828a01611282565b909550935050604087013567ffffffffffffffff81111561138557600080fd5b61139189828a01611282565b979a9699509497509295939492505050565b600080600080608085870312156113b957600080fd5b843593506020850135925060408501356113d281611219565b9396929550929360600135925050565b6000602082840312156113f457600080fd5b813563ffffffff198116811461140957600080fd5b9392505050565b6000806000806040858703121561142657600080fd5b843567ffffffffffffffff81111561143d57600080fd5b61144987828801611282565b909550935050602085013567ffffffffffffffff81111561146957600080fd5b61147587828801611282565b95989497509550505050565b6000806040838503121561149457600080fd5b8235915060208301356114a681611219565b809150509250929050565b6000602082840312156114c357600080fd5b815161140981611219565b60008060008060008060008060006101208a8c0312156114ed57600080fd5b89356114f881611219565b985060208a013561150881611219565b975060408a013561151881611219565b965060608a013561152881611219565b955060808a013561153881611219565b945060a08a013561154881611219565b935060c08a013561155881611219565b925060e08a013561156881611219565b91506101008a013561157981611219565b809150509295985092959850929598565b634e487b7160e01b600052601260045260246000fd5b634e487b7160e01b600052601160045260246000fd5b6000826115c5576115c561158a565b500490565b6000602082840312156115dc57600080fd5b5051919050565b81810381811115610fbd57610fbd6115a0565b6000826116055761160561158a565b500690565b8082028115828204841417610fbd57610fbd6115a0565b80820180821115610fbd57610fbd6115a0565b634e487b7160e01b600052603260045260246000fd5b60006020828403121561165c57600080fd5b813561140981611219565b6001600160a01b038616815284602082015283604082015282606082015260a06080820152600082518060a084015260005b818110156116b657602081860181015160c0868401015201611699565b50600060c0828501015260c0601f19601f830116840101915050969550505050505056fea264697066735822122008c5b988fa81030f1e4c855ed1c6a87291bf20bf4c5b7076d108627782c648e164736f6c634300081a0033",
  "linkReferences": {},
  "deployedLinkReferences": {}
}