{
  "_format": "hh-sol-artifact-1",
  "contractName": "ERC20Int",
  "sourceName": "contracts/token/ERC20Int.sol",
  "abi": [
    {
      "inputs": [
        {
          "internalType": "string",
          "name": "name_",
          "type": "string"
        },
        {
          "internalType": "string",
          "name": "symbol_",
          "type": "string"
        }
      ],
      "stateMutability": "nonpayable",
      "type": "constructor"
    },
    {
      "inputs": [],
      "name": "CannotApproveFromZeroAddress",
      "type": "error"
    },
    {
      "inputs": [],
      "name": "CannotApproveToZeroAddress",
      "type": "error"
    },
    {
      "inputs": [],
      "name": "CannotBurnFromZeroAddress",
      "type": "error"
    },
    {
      "inputs": [],
      "name": "CannotDecreaseAllowanceBelowZero",
      "type": "error"
    },
    {
      "inputs": [],
      "name": "CannotMintToZeroAddress",
      "type": "error"
    },
    {
      "inputs": [],
      "name": "CannotSpendMoreAllowanceThanCurrentValue",
      "type": "error"
    },
    {
      "inputs": [],
      "name": "CannotTransferFromZeroAddress",
      "type": "error"
    },
    {
      "inputs": [],
      "name": "CannotTransferHigherThanOwnedAmountOfTokens",
      "type": "error"
    },
    {
      "inputs": [],
      "name": "CannotTransferToZeroAddress",
      "type": "error"
    },
    {
      "anonymous": false,
      "inputs": [
        {
          "indexed": true,
          "internalType": "address",
          "name": "owner",
          "type": "address"
        },
        {
          "indexed": true,
          "internalType": "address",
          "name": "spender",
          "type": "address"
        },
        {
          "indexed": false,
          "internalType": "uint256",
          "name": "value",
          "type": "uint256"
        }
      ],
      "name": "Approval",
      "type": "event"
    },
    {
      "anonymous": false,
      "inputs": [
        {
          "indexed": true,
          "internalType": "address",
          "name": "from",
          "type": "address"
        },
        {
          "indexed": true,
          "internalType": "address",
          "name": "to",
          "type": "address"
        },
        {
          "indexed": false,
          "internalType": "uint256",
          "name": "value",
          "type": "uint256"
        }
      ],
      "name": "Transfer",
      "type": "event"
    },
    {
      "inputs": [
        {
          "internalType": "address",
          "name": "owner",
          "type": "address"
        },
        {
          "internalType": "address",
          "name": "spender",
          "type": "address"
        }
      ],
      "name": "allowance",
      "outputs": [
        {
          "internalType": "uint256",
          "name": "",
          "type": "uint256"
        }
      ],
      "stateMutability": "view",
      "type": "function"
    },
    {
      "inputs": [
        {
          "internalType": "address",
          "name": "spender",
          "type": "address"
        },
        {
          "internalType": "uint256",
          "name": "amount",
          "type": "uint256"
        }
      ],
      "name": "approve",
      "outputs": [
        {
          "internalType": "bool",
          "name": "",
          "type": "bool"
        }
      ],
      "stateMutability": "nonpayable",
      "type": "function"
    },
    {
      "inputs": [
        {
          "internalType": "address",
          "name": "account",
          "type": "address"
        }
      ],
      "name": "balanceOf",
      "outputs": [
        {
          "internalType": "uint256",
          "name": "",
          "type": "uint256"
        }
      ],
      "stateMutability": "view",
      "type": "function"
    },
    {
      "inputs": [],
      "name": "decimals",
      "outputs": [
        {
          "internalType": "uint8",
          "name": "",
          "type": "uint8"
        }
      ],
      "stateMutability": "view",
      "type": "function"
    },
    {
      "inputs": [
        {
          "internalType": "address",
          "name": "spender",
          "type": "address"
        },
        {
          "internalType": "uint256",
          "name": "subtractedValue",
          "type": "uint256"
        }
      ],
      "name": "decreaseAllowance",
      "outputs": [
        {
          "internalType": "bool",
          "name": "",
          "type": "bool"
        }
      ],
      "stateMutability": "nonpayable",
      "type": "function"
    },
    {
      "inputs": [
        {
          "internalType": "address",
          "name": "spender",
          "type": "address"
        },
        {
          "internalType": "uint256",
          "name": "addedValue",
          "type": "uint256"
        }
      ],
      "name": "increaseAllowance",
      "outputs": [
        {
          "internalType": "bool",
          "name": "",
          "type": "bool"
        }
      ],
      "stateMutability": "nonpayable",
      "type": "function"
    },
    {
      "inputs": [],
      "name": "name",
      "outputs": [
        {
          "internalType": "string",
          "name": "",
          "type": "string"
        }
      ],
      "stateMutability": "view",
      "type": "function"
    },
    {
      "inputs": [
        {
          "internalType": "address",
          "name": "account",
          "type": "address"
        }
      ],
      "name": "realBalanceOf",
      "outputs": [
        {
          "internalType": "int256",
          "name": "",
          "type": "int256"
        }
      ],
      "stateMutability": "view",
      "type": "function"
    },
    {
      "inputs": [],
      "name": "realTotalSupply",
      "outputs": [
        {
          "internalType": "int256",
          "name": "",
          "type": "int256"
        }
      ],
      "stateMutability": "view",
      "type": "function"
    },
    {
      "inputs": [],
      "name": "symbol",
      "outputs": [
        {
          "internalType": "string",
          "name": "",
          "type": "string"
        }
      ],
      "stateMutability": "view",
      "type": "function"
    },
    {
      "inputs": [],
      "name": "totalSupply",
      "outputs": [
        {
          "internalType": "uint256",
          "name": "",
          "type": "uint256"
        }
      ],
      "stateMutability": "view",
      "type": "function"
    },
    {
      "inputs": [
        {
          "internalType": "address",
          "name": "to",
          "type": "address"
        },
        {
          "internalType": "uint256",
          "name": "amount",
          "type": "uint256"
        }
      ],
      "name": "transfer",
      "outputs": [
        {
          "internalType": "bool",
          "name": "",
          "type": "bool"
        }
      ],
      "stateMutability": "nonpayable",
      "type": "function"
    },
    {
      "inputs": [
        {
          "internalType": "address",
          "name": "from",
          "type": "address"
        },
        {
          "internalType": "address",
          "name": "to",
          "type": "address"
        },
        {
          "internalType": "uint256",
          "name": "amount",
          "type": "uint256"
        }
      ],
      "name": "transferFrom",
      "outputs": [
        {
          "internalType": "bool",
          "name": "",
          "type": "bool"
        }
      ],
      "stateMutability": "nonpayable",
      "type": "function"
    }
  ],
  "bytecode": "0x608060405234801561001057600080fd5b50604051610ad4380380610ad483398101604081905261002f91610109565b600361003b83826101fb565b50600461004882826101fb565b5050506102b9565b634e487b7160e01b600052604160045260246000fd5b600082601f83011261007757600080fd5b81516001600160401b0381111561009057610090610050565b604051601f8201601f19908116603f011681016001600160401b03811182821017156100be576100be610050565b6040528181528382016020018510156100d657600080fd5b60005b828110156100f5576020818601810151838301820152016100d9565b506000918101602001919091529392505050565b6000806040838503121561011c57600080fd5b82516001600160401b0381111561013257600080fd5b61013e85828601610066565b602085015190935090506001600160401b0381111561015c57600080fd5b61016885828601610066565b9150509250929050565b600181811c9082168061018657607f821691505b6020821081036101a657634e487b7160e01b600052602260045260246000fd5b50919050565b601f8211156101f657806000526020600020601f840160051c810160208510156101d35750805b601f840160051c820191505b818110156101f357600081556001016101df565b50505b505050565b81516001600160401b0381111561021457610214610050565b610228816102228454610172565b846101ac565b6020601f82116001811461025c57600083156102445750848201515b600019600385901b1c1916600184901b1784556101f3565b600084815260208120601f198516915b8281101561028c578785015182556020948501946001909201910161026c565b50848210156102aa5786840151600019600387901b60f8161c191681555b50505050600190811b01905550565b61080c806102c86000396000f3fe608060405234801561001057600080fd5b50600436106100df5760003560e01c806370a082311161008c578063a457c2d711610066578063a457c2d7146101b4578063a9059cbb146101c7578063dd62ed3e146101da578063ef356a791461021357600080fd5b806370a082311461017057806395d89b411461018357806399a03c701461018b57600080fd5b806323b872dd116100bd57806323b872dd1461013b578063313ce5671461014e578063395093511461015d57600080fd5b806306fdde03146100e4578063095ea7b31461010257806318160ddd14610125575b600080fd5b6100ec61021b565b6040516100f99190610625565b60405180910390f35b61011561011036600461068f565b6102ad565b60405190151581526020016100f9565b61012d6102c7565b6040519081526020016100f9565b6101156101493660046106b9565b6102e0565b604051601281526020016100f9565b61011561016b36600461068f565b610304565b61012d61017e3660046106f6565b610343565b6100ec610387565b61012d6101993660046106f6565b6001600160a01b031660009081526020819052604090205490565b6101156101c236600461068f565b610396565b6101156101d536600461068f565b6103eb565b61012d6101e8366004610718565b6001600160a01b03918216600090815260016020908152604080832093909416825291909152205490565b60025461012d565b60606003805461022a9061074b565b80601f01602080910402602001604051908101604052809291908181526020018280546102569061074b565b80156102a35780601f10610278576101008083540402835291602001916102a3565b820191906000526020600020905b81548152906001019060200180831161028657829003601f168201915b5050505050905090565b6000336102bb8185856103f9565b60019150505b92915050565b60008060025412156102d95750600090565b5060025490565b6000336102ee8582856104a8565b6102f985858561050b565b506001949350505050565b3360008181526001602090815260408083206001600160a01b03871684529091528120549091906102bb908290869061033e90879061079b565b6103f9565b6001600160a01b03811660009081526020819052604081205481131561036b57506000919050565b506001600160a01b031660009081526020819052604090205490565b60606004805461022a9061074b565b3360008181526001602090815260408083206001600160a01b0387168452909152812054909190838110156103de5760405163285af3b760e11b815260040160405180910390fd5b6102f982868684036103f9565b6000336102bb81858561050b565b6001600160a01b0383166104205760405163abe3697f60e01b815260040160405180910390fd5b6001600160a01b038216610447576040516396a1f38160e01b815260040160405180910390fd5b6001600160a01b0383811660008181526001602090815260408083209487168084529482529182902085905590518481527f8c5be1e5ebec7d5bd14f71427d1e84f3dd0314c0f7b2291e5b200ac8c7c3b925910160405180910390a3505050565b6001600160a01b03838116600090815260016020908152604080832093861683529290522054600019811461050557818110156104f85760405163013d476760e61b815260040160405180910390fd5b61050584848484036103f9565b50505050565b6001600160a01b038316610531576040516246d99360e41b815260040160405180910390fd5b6001600160a01b038216610558576040516337af64f560e11b815260040160405180910390fd5b806001600160a01b0384166000908152602081905260409020548181121561059357604051631b56476360e31b815260040160405180910390fd5b6001600160a01b038086166000908152602081905260408082208585039055918616815290812080548492906105ca9084906107ae565b92505081905550836001600160a01b0316856001600160a01b03167fddf252ad1be2c89b69c2b068fc378daa952ba7f163c4a11628f55a4df523b3ef8560405161061691815260200190565b60405180910390a35050505050565b602081526000825180602084015260005b818110156106535760208186018101516040868401015201610636565b506000604082850101526040601f19601f83011684010191505092915050565b80356001600160a01b038116811461068a57600080fd5b919050565b600080604083850312156106a257600080fd5b6106ab83610673565b946020939093013593505050565b6000806000606084860312156106ce57600080fd5b6106d784610673565b92506106e560208501610673565b929592945050506040919091013590565b60006020828403121561070857600080fd5b61071182610673565b9392505050565b6000806040838503121561072b57600080fd5b61073483610673565b915061074260208401610673565b90509250929050565b600181811c9082168061075f57607f821691505b60208210810361077f57634e487b7160e01b600052602260045260246000fd5b50919050565b634e487b7160e01b600052601160045260246000fd5b808201808211156102c1576102c1610785565b80820182811260008312801582168215821617156107ce576107ce610785565b50509291505056fea26469706673582212208f6487ba783df532a252d9416aec8a1a0dcbe5559344240b360b25fb410f9ae064736f6c634300081a0033",
  "linkReferences": {},
  "deployedLinkReferences": {}
}