{
  "_format": "hh-sol-artifact-1",
  "contractName": "Resource",
  "sourceName": "contracts/core/assets/tokens/resources/Resource.sol",
  "abi": [
    {
      "inputs": [],
      "stateMutability": "nonpayable",
      "type": "constructor"
    },
    {
      "inputs": [],
      "name": "OnlyActiveGame",
      "type": "error"
    },
    {
      "inputs": [],
      "name": "OnlyMightyCreator",
      "type": "error"
    },
    {
      "inputs": [],
      "name": "OnlyWorldAssetFromSameEra",
      "type": "error"
    },
    {
      "inputs": [],
      "name": "OnlyWorldAssetFromSameEraOrRewardPool",
      "type": "error"
    },
    {
      "inputs": [],
      "name": "ResourceNotAcceptable",
      "type": "error"
    },
    {
      "inputs": [],
      "name": "UnknownInputParameter",
      "type": "error"
    },
    {
      "anonymous": false,
      "inputs": [
        {
          "indexed": true,
          "internalType": "address",
          "name": "owner",
          "type": "address"
        },
        {
          "indexed": true,
          "internalType": "address",
          "name": "spender",
          "type": "address"
        },
        {
          "indexed": false,
          "internalType": "uint256",
          "name": "value",
          "type": "uint256"
        }
      ],
      "name": "Approval",
      "type": "event"
    },
    {
      "anonymous": false,
      "inputs": [
        {
          "indexed": false,
          "internalType": "uint8",
          "name": "version",
          "type": "uint8"
        }
      ],
      "name": "Initialized",
      "type": "event"
    },
    {
      "anonymous": false,
      "inputs": [
        {
          "indexed": true,
          "internalType": "address",
          "name": "from",
          "type": "address"
        },
        {
          "indexed": true,
          "internalType": "address",
          "name": "to",
          "type": "address"
        },
        {
          "indexed": false,
          "internalType": "uint256",
          "name": "value",
          "type": "uint256"
        }
      ],
      "name": "Transfer",
      "type": "event"
    },
    {
      "inputs": [
        {
          "internalType": "address",
          "name": "owner",
          "type": "address"
        },
        {
          "internalType": "address",
          "name": "spender",
          "type": "address"
        }
      ],
      "name": "allowance",
      "outputs": [
        {
          "internalType": "uint256",
          "name": "",
          "type": "uint256"
        }
      ],
      "stateMutability": "view",
      "type": "function"
    },
    {
      "inputs": [
        {
          "internalType": "address",
          "name": "spender",
          "type": "address"
        },
        {
          "internalType": "uint256",
          "name": "amount",
          "type": "uint256"
        }
      ],
      "name": "approve",
      "outputs": [
        {
          "internalType": "bool",
          "name": "",
          "type": "bool"
        }
      ],
      "stateMutability": "nonpayable",
      "type": "function"
    },
    {
      "inputs": [],
      "name": "assetGroupId",
      "outputs": [
        {
          "internalType": "bytes32",
          "name": "",
          "type": "bytes32"
        }
      ],
      "stateMutability": "view",
      "type": "function"
    },
    {
      "inputs": [],
      "name": "assetTypeId",
      "outputs": [
        {
          "internalType": "bytes32",
          "name": "",
          "type": "bytes32"
        }
      ],
      "stateMutability": "view",
      "type": "function"
    },
    {
      "inputs": [
        {
          "internalType": "address",
          "name": "tokenOwner",
          "type": "address"
        }
      ],
      "name": "balanceOf",
      "outputs": [
        {
          "internalType": "uint256",
          "name": "",
          "type": "uint256"
        }
      ],
      "stateMutability": "view",
      "type": "function"
    },
    {
      "inputs": [
        {
          "internalType": "uint256",
          "name": "amount",
          "type": "uint256"
        }
      ],
      "name": "burn",
      "outputs": [],
      "stateMutability": "nonpayable",
      "type": "function"
    },
    {
      "inputs": [
        {
          "internalType": "address",
          "name": "account",
          "type": "address"
        },
        {
          "internalType": "uint256",
          "name": "amount",
          "type": "uint256"
        }
      ],
      "name": "burnFrom",
      "outputs": [],
      "stateMutability": "nonpayable",
      "type": "function"
    },
    {
      "inputs": [],
      "name": "decimals",
      "outputs": [
        {
          "internalType": "uint8",
          "name": "",
          "type": "uint8"
        }
      ],
      "stateMutability": "view",
      "type": "function"
    },
    {
      "inputs": [
        {
          "internalType": "address",
          "name": "spender",
          "type": "address"
        },
        {
          "internalType": "uint256",
          "name": "subtractedValue",
          "type": "uint256"
        }
      ],
      "name": "decreaseAllowance",
      "outputs": [
        {
          "internalType": "bool",
          "name": "",
          "type": "bool"
        }
      ],
      "stateMutability": "nonpayable",
      "type": "function"
    },
    {
      "inputs": [],
      "name": "era",
      "outputs": [
        {
          "internalType": "contract IEra",
          "name": "",
          "type": "address"
        }
      ],
      "stateMutability": "view",
      "type": "function"
    },
    {
      "inputs": [],
      "name": "eraNumber",
      "outputs": [
        {
          "internalType": "uint256",
          "name": "",
          "type": "uint256"
        }
      ],
      "stateMutability": "view",
      "type": "function"
    },
    {
      "inputs": [
        {
          "internalType": "address",
          "name": "spender",
          "type": "address"
        },
        {
          "internalType": "uint256",
          "name": "addedValue",
          "type": "uint256"
        }
      ],
      "name": "increaseAllowance",
      "outputs": [
        {
          "internalType": "bool",
          "name": "",
          "type": "bool"
        }
      ],
      "stateMutability": "nonpayable",
      "type": "function"
    },
    {
      "inputs": [
        {
          "internalType": "bytes",
          "name": "initParams",
          "type": "bytes"
        }
      ],
      "name": "init",
      "outputs": [],
      "stateMutability": "nonpayable",
      "type": "function"
    },
    {
      "inputs": [
        {
          "internalType": "address",
          "name": "to",
          "type": "address"
        },
        {
          "internalType": "uint256",
          "name": "amount",
          "type": "uint256"
        }
      ],
      "name": "mint",
      "outputs": [],
      "stateMutability": "nonpayable",
      "type": "function"
    },
    {
      "inputs": [],
      "name": "name",
      "outputs": [
        {
          "internalType": "string",
          "name": "",
          "type": "string"
        }
      ],
      "stateMutability": "view",
      "type": "function"
    },
    {
      "inputs": [],
      "name": "registry",
      "outputs": [
        {
          "internalType": "contract IRegistry",
          "name": "",
          "type": "address"
        }
      ],
      "stateMutability": "view",
      "type": "function"
    },
    {
      "inputs": [],
      "name": "resourceTypeId",
      "outputs": [
        {
          "internalType": "bytes32",
          "name": "",
          "type": "bytes32"
        }
      ],
      "stateMutability": "view",
      "type": "function"
    },
    {
      "inputs": [
        {
          "internalType": "address",
          "name": "owner",
          "type": "address"
        },
        {
          "internalType": "address",
          "name": "spender",
          "type": "address"
        },
        {
          "internalType": "uint256",
          "name": "amount",
          "type": "uint256"
        }
      ],
      "name": "spendAllowance",
      "outputs": [],
      "stateMutability": "nonpayable",
      "type": "function"
    },
    {
      "inputs": [
        {
          "internalType": "address",
          "name": "tokenOwner",
          "type": "address"
        }
      ],
      "name": "stateBalanceOf",
      "outputs": [
        {
          "internalType": "uint256",
          "name": "balance",
          "type": "uint256"
        }
      ],
      "stateMutability": "view",
      "type": "function"
    },
    {
      "inputs": [],
      "name": "symbol",
      "outputs": [
        {
          "internalType": "string",
          "name": "",
          "type": "string"
        }
      ],
      "stateMutability": "view",
      "type": "function"
    },
    {
      "inputs": [],
      "name": "tokenName",
      "outputs": [
        {
          "internalType": "string",
          "name": "",
          "type": "string"
        }
      ],
      "stateMutability": "view",
      "type": "function"
    },
    {
      "inputs": [],
      "name": "tokenSymbol",
      "outputs": [
        {
          "internalType": "string",
          "name": "",
          "type": "string"
        }
      ],
      "stateMutability": "view",
      "type": "function"
    },
    {
      "inputs": [],
      "name": "totalSupply",
      "outputs": [
        {
          "internalType": "uint256",
          "name": "",
          "type": "uint256"
        }
      ],
      "stateMutability": "view",
      "type": "function"
    },
    {
      "inputs": [
        {
          "internalType": "address",
          "name": "to",
          "type": "address"
        },
        {
          "internalType": "uint256",
          "name": "amount",
          "type": "uint256"
        }
      ],
      "name": "transfer",
      "outputs": [
        {
          "internalType": "bool",
          "name": "success",
          "type": "bool"
        }
      ],
      "stateMutability": "nonpayable",
      "type": "function"
    },
    {
      "inputs": [
        {
          "internalType": "address",
          "name": "from",
          "type": "address"
        },
        {
          "internalType": "address",
          "name": "to",
          "type": "address"
        },
        {
          "internalType": "uint256",
          "name": "amount",
          "type": "uint256"
        }
      ],
      "name": "transferFrom",
      "outputs": [
        {
          "internalType": "bool",
          "name": "success",
          "type": "bool"
        }
      ],
      "stateMutability": "nonpayable",
      "type": "function"
    },
    {
      "inputs": [],
      "name": "world",
      "outputs": [
        {
          "internalType": "contract IWorld",
          "name": "",
          "type": "address"
        }
      ],
      "stateMutability": "view",
      "type": "function"
    },
    {
      "inputs": [],
      "name": "worldAssetFactory",
      "outputs": [
        {
          "internalType": "contract IWorldAssetFactory",
          "name": "",
          "type": "address"
        }
      ],
      "stateMutability": "view",
      "type": "function"
    }
  ],
  "bytecode": "0x608060405234801561001057600080fd5b5060408051602080820183526000808352835191820190935291825290600361003983826100ed565b50600461004682826100ed565b5050506101ab565b634e487b7160e01b600052604160045260246000fd5b600181811c9082168061007857607f821691505b60208210810361009857634e487b7160e01b600052602260045260246000fd5b50919050565b601f8211156100e857806000526020600020601f840160051c810160208510156100c55750805b601f840160051c820191505b818110156100e557600081556001016100d1565b50505b505050565b81516001600160401b038111156101065761010661004e565b61011a816101148454610064565b8461009e565b6020601f82116001811461014e57600083156101365750848201515b600019600385901b1c1916600184901b1784556100e5565b600084815260208120601f198516915b8281101561017e578785015182556020948501946001909201910161015e565b508482101561019c5786840151600019600387901b60f8161c191681555b50505050600190811b01905550565b6130a1806101ba6000396000f3fe608060405234801561001057600080fd5b50600436106101b95760003560e01c80636c02a931116100f957806395d89b4111610097578063dd62ed3e11610071578063dd62ed3e14610381578063dd8aaa4f146103ba578063eae33602146103cd578063ece56a1a146103e057600080fd5b806395d89b4114610353578063a457c2d71461035b578063a9059cbb1461036e57600080fd5b80637b103999116100d35780637b103999146103075780637b61c3201461030f5780637d884c741461031757806384ba89e31461032c57600080fd5b80636c02a931146102d957806370a08231146102e157806379cc6790146102f457600080fd5b806330b67baa1161016657806340c10f191161014057806340c10f191461029557806342966c68146102aa57806346aced0d146102bd5780634ddf47d4146102c657600080fd5b806330b67baa1461026b578063313ce56714610273578063395093511461028257600080fd5b8063143e55e011610197578063143e55e01461023057806318160ddd1461025057806323b872dd1461025857600080fd5b806306fdde03146101be578063095ea7b3146101dc5780630b4e99c3146101ff575b600080fd5b6101c66103e8565b6040516101d39190612959565b60405180910390f35b6101ef6101ea3660046129a1565b61044e565b60405190151581526020016101d3565b7f6c85b93e587873fbe6712f3b438d42c2945689b262f7bd34b8ea4e3f832a89ea545b6040519081526020016101d3565b610238610468565b6040516001600160a01b0390911681526020016101d3565b600254610222565b6101ef6102663660046129cd565b6104fa565b6102386106b2565b604051601281526020016101d3565b6101ef6102903660046129a1565b6106e5565b6102a86102a33660046129a1565b610724565b005b6102a86102b8366004612a0e565b61073a565b61022260085481565b6102a86102d4366004612abf565b610746565b6101c66108a2565b6102226102ef366004612b3f565b610930565b6102a86103023660046129a1565b610aa4565b610238610ac6565b6101c6610b0d565b60008051602061304c83398151915254610222565b7f6c85b93e587873fbe6712f3b438d42c2945689b262f7bd34b8ea4e3f832a89e954610222565b6101c6610b1a565b6101ef6103693660046129a1565b610b2e565b6101ef61037c3660046129a1565b610bcb565b61022261038f366004612b5c565b6001600160a01b03918216600090815260016020908152604080832093909416825291909152205490565b6102a86103c83660046129cd565b610d48565b6102226103db366004612b3f565b610d60565b610238610d7e565b606060066040516020016103fc9190612bcf565b60405160208183030381529060405261042961042460008051602061304c8339815191525490565b610dc5565b60405160200161043a929190612c4d565b604051602081830303815290604052905090565b60003361045c818585610ee6565b60019150505b92915050565b60006104726106b2565b6001600160a01b031663720a70bd61049660008051602061304c8339815191525490565b6040518263ffffffff1660e01b81526004016104b491815260200190565b602060405180830381865afa1580156104d1573d6000803e3d6000fd5b505050506040513d601f19601f820116820180604052508101906104f59190612c7c565b905090565b6040805180820190915260088152676275696c64696e6760c01b60209091015260007f010b6fd4eff8a0ca8c7925f2d29e6173e90462d56ae99e39fa817c79f40285186105456106b2565b6001600160a01b031663ebbe803461056960008051602061304c8339815191525490565b6040516001600160e01b031960e084901b16815260048101919091526001600160a01b0387166024820152604401602060405180830381865afa1580156105b4573d6000803e3d6000fd5b505050506040513d601f19601f820116820180604052508101906105d89190612c99565b14801561064f57506008546040516348048c3960e11b815260048101919091526001600160a01b03841690639009187290602401602060405180830381865afa158015610629573d6000803e3d6000fd5b505050506040513d601f19601f8201168201806040525081019061064d9190612cc7565b155b1561066d57604051638c482f0560e01b815260040160405180910390fd5b6106763361100a565b806106855750610685336110d3565b1561069d57610695848484611158565b5060016106ab565b6106a8848484611996565b90505b9392505050565b60006104f57f6c85b93e587873fbe6712f3b438d42c2945689b262f7bd34b8ea4e3f832a89e6546001600160a01b031690565b3360008181526001602090815260408083206001600160a01b038716845290915281205490919061045c908290869061071f908790612cf8565b610ee6565b61072c6119af565b6107368282611a89565b5050565b61074381611f44565b50565b600554610100900460ff16158080156107665750600554600160ff909116105b806107805750303b158015610780575060055460ff166001145b6107f75760405162461bcd60e51b815260206004820152602e60248201527f496e697469616c697a61626c653a20636f6e747261637420697320616c72656160448201527f647920696e697469616c697a656400000000000000000000000000000000000060648201526084015b60405180910390fd5b6005805460ff19166001179055801561081a576005805461ff0019166101001790555b6000806000848060200190518101906108339190612d50565b9194509250905060066108468482612e0c565b5060076108538382612e0c565b5060085550508015610736576005805461ff0019169055604051600181527f7f26b83ff96e1f2b6a682f133852f6798a09c465da95921460cefb38474024989060200160405180910390a15050565b600680546108af90612b95565b80601f01602080910402602001604051908101604052809291908181526020018280546108db90612b95565b80156109285780601f106108fd57610100808354040283529160200191610928565b820191906000526020600020905b81548152906001019060200180831161090b57829003601f168201915b505050505081565b6040805180820190915260088152676275696c64696e6760c01b60209091015260007f010b6fd4eff8a0ca8c7925f2d29e6173e90462d56ae99e39fa817c79f402851861097b6106b2565b6001600160a01b031663ebbe803461099f60008051602061304c8339815191525490565b6040516001600160e01b031960e084901b16815260048101919091526001600160a01b0386166024820152604401602060405180830381865afa1580156109ea573d6000803e3d6000fd5b505050506040513d601f19601f82011682018060405250810190610a0e9190612c99565b03610a8657600854604051631e9738d160e01b815260048101919091524260248201526001600160a01b03831690631e9738d190604401602060405180830381865afa158015610a62573d6000803e3d6000fd5b505050506040513d601f19601f820116820180604052508101906104629190612c99565b6001600160a01b038216600090815260208190526040902054610462565b610aad3361100a565b15610abc576107368282611f4a565b61073682826120e4565b6000610ad06106b2565b6001600160a01b0316637b1039996040518163ffffffff1660e01b8152600401602060405180830381865afa1580156104d1573d6000803e3d6000fd5b600780546108af90612b95565b606060076040516020016103fc9190612bcf565b3360008181526001602090815260408083206001600160a01b038716845290915281205490919083811015610bb35760405162461bcd60e51b815260206004820152602560248201527f45524332303a2064656372656173656420616c6c6f77616e63652062656c6f77604482015264207a65726f60d81b60648201526084016107ee565b610bc08286868403610ee6565b506001949350505050565b6040805180820190915260088152676275696c64696e6760c01b60209091015260007f010b6fd4eff8a0ca8c7925f2d29e6173e90462d56ae99e39fa817c79f4028518610c166106b2565b6001600160a01b031663ebbe8034610c3a60008051602061304c8339815191525490565b6040516001600160e01b031960e084901b16815260048101919091526001600160a01b0387166024820152604401602060405180830381865afa158015610c85573d6000803e3d6000fd5b505050506040513d601f19601f82011682018060405250810190610ca99190612c99565b148015610d2057506008546040516348048c3960e11b815260048101919091526001600160a01b03841690639009187290602401602060405180830381865afa158015610cfa573d6000803e3d6000fd5b505050506040513d601f19601f82011682018060405250810190610d1e9190612cc7565b155b15610d3e57604051638c482f0560e01b815260040160405180910390fd5b6106ab83836120f9565b610d50612107565b610d5b838383612264565b505050565b6001600160a01b038116600090815260208190526040812054610462565b6000610d88610ac6565b6001600160a01b031663ece56a1a6040518163ffffffff1660e01b8152600401602060405180830381865afa1580156104d1573d6000803e3d6000fd5b606081600003610dec5750506040805180820190915260018152600360fc1b602082015290565b8160005b8115610e165780610e0081612ecb565b9150610e0f9050600a83612efa565b9150610df0565b60008167ffffffffffffffff811115610e3157610e31612a27565b6040519080825280601f01601f191660200182016040528015610e5b576020820181803683370190505b5090505b8415610ede57610e70600183612f0e565b9150610e7d600a86612f21565b610e88906030612cf8565b60f81b818381518110610e9d57610e9d612f35565b60200101907effffffffffffffffffffffffffffffffffffffffffffffffffffffffffffff1916908160001a905350610ed7600a86612efa565b9450610e5f565b949350505050565b6001600160a01b038316610f485760405162461bcd60e51b8152602060048201526024808201527f45524332303a20617070726f76652066726f6d20746865207a65726f206164646044820152637265737360e01b60648201526084016107ee565b6001600160a01b038216610fa95760405162461bcd60e51b815260206004820152602260248201527f45524332303a20617070726f766520746f20746865207a65726f206164647265604482015261737360f01b60648201526084016107ee565b6001600160a01b0383811660008181526001602090815260408083209487168084529482529182902085905590518481527f8c5be1e5ebec7d5bd14f71427d1e84f3dd0314c0f7b2291e5b200ac8c7c3b925910160405180910390a3505050565b60006110146106b2565b6001600160a01b0316826001600160a01b03161480610462575060006110386106b2565b6001600160a01b031663ebbe803461105c60008051602061304c8339815191525490565b6040516001600160e01b031960e084901b16815260048101919091526001600160a01b0386166024820152604401602060405180830381865afa1580156110a7573d6000803e3d6000fd5b505050506040513d601f19601f820116820180604052508101906110cb9190612c99565b141592915050565b6000816001600160a01b03166110e76106b2565b6001600160a01b03166366666aa96040518163ffffffff1660e01b8152600401602060405180830381865afa158015611124573d6000803e3d6000fd5b505050506040513d601f19601f820116820180604052508101906111489190612c7c565b6001600160a01b03161492915050565b6040805180820190915260088152676275696c64696e6760c01b60209091015260007f010b6fd4eff8a0ca8c7925f2d29e6173e90462d56ae99e39fa817c79f40285186111a36106b2565b6001600160a01b031663ebbe80346111c760008051602061304c8339815191525490565b6040516001600160e01b031960e084901b16815260048101919091526001600160a01b0388166024820152604401602060405180830381865afa158015611212573d6000803e3d6000fd5b505050506040513d601f19601f820116820180604052508101906112369190612c99565b6040805180820190915260088152676275696c64696e6760c01b60209091015214905060007f010b6fd4eff8a0ca8c7925f2d29e6173e90462d56ae99e39fa817c79f40285186112846106b2565b6001600160a01b031663ebbe80346112a860008051602061304c8339815191525490565b6040516001600160e01b031960e084901b16815260048101919091526001600160a01b0388166024820152604401602060405180830381865afa1580156112f3573d6000803e3d6000fd5b505050506040513d601f19601f820116820180604052508101906113179190612c99565b149050600082611328576000611336565b6113366008548760016122f0565b9050600082611346576000611354565b6113546008548760016122f0565b905083156113b057866001600160a01b0316631d8557d76040518163ffffffff1660e01b8152600401600060405180830381600087803b15801561139757600080fd5b505af11580156113ab573d6000803e3d6000fd5b505050505b821561140a57856001600160a01b0316631d8557d76040518163ffffffff1660e01b8152600401600060405180830381600087803b1580156113f157600080fd5b505af1158015611405573d6000803e3d6000fd5b505050505b8380156114145750825b801561141d5750815b80156114265750805b1561143b576114368787876123d7565b6115e7565b8280156114455750805b1561145657611436878760006123d7565b82156115dc576000866001600160a01b031663c45f10006040518163ffffffff1660e01b8152600401602060405180830381865afa15801561149c573d6000803e3d6000fd5b505050506040513d601f19601f820116820180604052508101906114c09190612c7c565b90506000816001600160a01b031663e6c15c996040518163ffffffff1660e01b8152600401602060405180830381865afa158015611502573d6000803e3d6000fd5b505050506040513d601f19601f820116820180604052508101906115269190612c7c565b6001600160a01b031663d2bb2eae6040518163ffffffff1660e01b8152600401602060405180830381865afa158015611563573d6000803e3d6000fd5b505050506040513d601f19601f820116820180604052508101906115879190612c99565b90506000670de0b6b3a764000061159e838a612f4b565b6115a89190612efa565b905060006115b6828a612f0e565b90506115c38b8b836123d7565b81156115d3576115d38b836125a5565b505050506115e7565b6115e78787876123d7565b83156117ba57866001600160a01b031663e145c3ad6040518163ffffffff1660e01b8152600401600060405180830381600087803b15801561162857600080fd5b505af115801561163c573d6000803e3d6000fd5b5050505060006116506008548960006122f0565b905080156117b8576000886001600160a01b031663c45f10006040518163ffffffff1660e01b8152600401602060405180830381865afa158015611698573d6000803e3d6000fd5b505050506040513d601f19601f820116820180604052508101906116bc9190612c7c565b9050806001600160a01b031663e6c15c996040518163ffffffff1660e01b8152600401602060405180830381865afa1580156116fc573d6000803e3d6000fd5b505050506040513d601f19601f820116820180604052508101906117209190612c7c565b6001600160a01b031663e85b89d982670de0b6b3a76400008a6117446008546126f3565b61174e9190612f4b565b6117589190612efa565b6040516001600160e01b031960e085901b1681526001600160a01b0390921660048301526024820152604401600060405180830381600087803b15801561179e57600080fd5b505af11580156117b2573d6000803e3d6000fd5b50505050505b505b821561198d57856001600160a01b031663e145c3ad6040518163ffffffff1660e01b8152600401600060405180830381600087803b1580156117fb57600080fd5b505af115801561180f573d6000803e3d6000fd5b5050505060006118236008548860006122f0565b9050801561198b576000876001600160a01b031663c45f10006040518163ffffffff1660e01b8152600401602060405180830381865afa15801561186b573d6000803e3d6000fd5b505050506040513d601f19601f8201168201806040525081019061188f9190612c7c565b9050806001600160a01b031663e6c15c996040518163ffffffff1660e01b8152600401602060405180830381865afa1580156118cf573d6000803e3d6000fd5b505050506040513d601f19601f820116820180604052508101906118f39190612c7c565b6001600160a01b0316635053c29982670de0b6b3a76400008a6119176008546126f3565b6119219190612f4b565b61192b9190612efa565b6040516001600160e01b031960e085901b1681526001600160a01b0390921660048301526024820152604401600060405180830381600087803b15801561197157600080fd5b505af1158015611985573d6000803e3d6000fd5b50505050505b505b50505050505050565b6000336119a4858285612264565b610bc0858585611158565b6119b76106b2565b6001600160a01b0316336001600160a01b031614158015611a69575060006119dd6106b2565b6001600160a01b031663ebbe8034611a0160008051602061304c8339815191525490565b6040516001600160e01b031960e084901b1681526004810191909152336024820152604401602060405180830381865afa158015611a43573d6000803e3d6000fd5b505050506040513d601f19601f82011682018060405250810190611a679190612c99565b145b15611a875760405163422656d160e01b815260040160405180910390fd5b565b6040805180820190915260088152676275696c64696e6760c01b60209091015260007f010b6fd4eff8a0ca8c7925f2d29e6173e90462d56ae99e39fa817c79f4028518611ad46106b2565b6001600160a01b031663ebbe8034611af860008051602061304c8339815191525490565b6040516001600160e01b031960e084901b16815260048101919091526001600160a01b0387166024820152604401602060405180830381865afa158015611b43573d6000803e3d6000fd5b505050506040513d601f19601f82011682018060405250810190611b679190612c99565b149050600081611b78576000611b86565b611b866008548560016122f0565b90508115611be257836001600160a01b0316631d8557d76040518163ffffffff1660e01b8152600401600060405180830381600087803b158015611bc957600080fd5b505af1158015611bdd573d6000803e3d6000fd5b505050505b818015611bed575080155b15611d61576000846001600160a01b031663c45f10006040518163ffffffff1660e01b8152600401602060405180830381865afa158015611c32573d6000803e3d6000fd5b505050506040513d601f19601f82011682018060405250810190611c569190612c7c565b90506000816001600160a01b031663e6c15c996040518163ffffffff1660e01b8152600401602060405180830381865afa158015611c98573d6000803e3d6000fd5b505050506040513d601f19601f82011682018060405250810190611cbc9190612c7c565b6001600160a01b031663d2bb2eae6040518163ffffffff1660e01b8152600401602060405180830381865afa158015611cf9573d6000803e3d6000fd5b505050506040513d601f19601f82011682018060405250810190611d1d9190612c99565b90506000670de0b6b3a7640000611d348388612f4b565b611d3e9190612efa565b90506000611d4c8288612f0e565b9050611d588882612856565b50505050611d6b565b611d6b8484612856565b8115611f3e57836001600160a01b031663e145c3ad6040518163ffffffff1660e01b8152600401600060405180830381600087803b158015611dac57600080fd5b505af1158015611dc0573d6000803e3d6000fd5b505050506000611dd46008548660006122f0565b90508015611f3c576000856001600160a01b031663c45f10006040518163ffffffff1660e01b8152600401602060405180830381865afa158015611e1c573d6000803e3d6000fd5b505050506040513d601f19601f82011682018060405250810190611e409190612c7c565b9050806001600160a01b031663e6c15c996040518163ffffffff1660e01b8152600401602060405180830381865afa158015611e80573d6000803e3d6000fd5b505050506040513d601f19601f82011682018060405250810190611ea49190612c7c565b6001600160a01b0316635053c29982670de0b6b3a764000088611ec86008546126f3565b611ed29190612f4b565b611edc9190612efa565b6040516001600160e01b031960e085901b1681526001600160a01b0390921660048301526024820152604401600060405180830381600087803b158015611f2257600080fd5b505af1158015611f36573d6000803e3d6000fd5b50505050505b505b50505050565b61074333825b6040805180820190915260088152676275696c64696e6760c01b60209091015260007f010b6fd4eff8a0ca8c7925f2d29e6173e90462d56ae99e39fa817c79f4028518611f956106b2565b6001600160a01b031663ebbe8034611fb960008051602061304c8339815191525490565b6040516001600160e01b031960e084901b16815260048101919091526001600160a01b0387166024820152604401602060405180830381865afa158015612004573d6000803e3d6000fd5b505050506040513d601f19601f820116820180604052508101906120289190612c99565b149050801561208557826001600160a01b0316631d8557d76040518163ffffffff1660e01b8152600401600060405180830381600087803b15801561206c57600080fd5b505af1158015612080573d6000803e3d6000fd5b505050505b61208f83836125a5565b8015610d5b57826001600160a01b031663e145c3ad6040518163ffffffff1660e01b8152600401600060405180830381600087803b1580156120d057600080fd5b505af115801561198d573d6000803e3d6000fd5b6120ef823383612264565b6107368282611f4a565b60003361045c818585611158565b61210f6106b2565b6001600160a01b0316336001600160a01b0316141580156121c1575060006121356106b2565b6001600160a01b031663ebbe803461215960008051602061304c8339815191525490565b6040516001600160e01b031960e084901b1681526004810191909152336024820152604401602060405180830381865afa15801561219b573d6000803e3d6000fd5b505050506040513d601f19601f820116820180604052508101906121bf9190612c99565b145b801561224757506121d06106b2565b6001600160a01b03166366666aa96040518163ffffffff1660e01b8152600401602060405180830381865afa15801561220d573d6000803e3d6000fd5b505050506040513d601f19601f820116820180604052508101906122319190612c7c565b6001600160a01b0316336001600160a01b031614155b15611a8757604051621c1f0560e91b815260040160405180910390fd5b6001600160a01b038381166000908152600160209081526040808320938616835292905220546000198114611f3e57818110156122e35760405162461bcd60e51b815260206004820152601d60248201527f45524332303a20696e73756666696369656e7420616c6c6f77616e636500000060448201526064016107ee565b611f3e8484848403610ee6565b600080836001600160a01b031663c3f909d46040518163ffffffff1660e01b8152600401600060405180830381865afa158015612331573d6000803e3d6000fd5b505050506040513d6000823e601f3d908101601f191682016040526123599190810190612f62565b905060005b81518110156123cb5783151582828151811061237c5761237c612f35565b60200260200101516040015115151480156123b357508181815181106123a4576123a4612f35565b60200260200101516000015186145b156123c3576001925050506106ab565b60010161235e565b50600095945050505050565b6001600160a01b03831661243b5760405162461bcd60e51b815260206004820152602560248201527f45524332303a207472616e736665722066726f6d20746865207a65726f206164604482015264647265737360d81b60648201526084016107ee565b6001600160a01b03821661249d5760405162461bcd60e51b815260206004820152602360248201527f45524332303a207472616e7366657220746f20746865207a65726f206164647260448201526265737360e81b60648201526084016107ee565b6001600160a01b038316600090815260208190526040902054818110156125155760405162461bcd60e51b815260206004820152602660248201527f45524332303a207472616e7366657220616d6f756e7420657863656564732062604482015265616c616e636560d01b60648201526084016107ee565b6001600160a01b0380851660009081526020819052604080822085850390559185168152908120805484929061254c908490612cf8565b92505081905550826001600160a01b0316846001600160a01b03167fddf252ad1be2c89b69c2b068fc378daa952ba7f163c4a11628f55a4df523b3ef8460405161259891815260200190565b60405180910390a3611f3e565b6001600160a01b0382166126055760405162461bcd60e51b815260206004820152602160248201527f45524332303a206275726e2066726f6d20746865207a65726f206164647265736044820152607360f81b60648201526084016107ee565b6001600160a01b038216600090815260208190526040902054818110156126795760405162461bcd60e51b815260206004820152602260248201527f45524332303a206275726e20616d6f756e7420657863656564732062616c616e604482015261636560f01b60648201526084016107ee565b6001600160a01b03831660009081526020819052604081208383039055600280548492906126a8908490612f0e565b90915550506040518281526000906001600160a01b038516907fddf252ad1be2c89b69c2b068fc378daa952ba7f163c4a11628f55a4df523b3ef9060200160405180910390a3505050565b6040805180820190915260048152631193d3d160e21b60209091015260007fd090a5d9e290baeb3c0f657cb8df01a7c37d0d11b8a73165ba04298bd71606c382016127475750670429d069189e0000919050565b60408051808201909152600481526315d3d3d160e21b6020909101527fa0c2c402a49ee67eb7d8a3e87eb93de113a3a54817e8a70c39ae8ab51c0e12be82016127995750670de0b6b3a7640000919050565b6040805180820190915260038152624f524560e81b6020909101527f624ae31110c92d70b58ec456bb42524ff16773a98936d8ef150f1e6b104b34ab82016127ea57506729a2241af62c0000919050565b604080518082019091526005815264125391d3d560da1b6020909101527f0b2c26746c5e8d6f1877c4437947c29fc4d8103cd72878c4c039b7afe27c1a8e820161283d5750678ac7230489e80000919050565b60405163ea3b0abb60e01b815260040160405180910390fd5b6001600160a01b0382166128ac5760405162461bcd60e51b815260206004820152601f60248201527f45524332303a206d696e7420746f20746865207a65726f20616464726573730060448201526064016107ee565b80600260008282546128be9190612cf8565b90915550506001600160a01b038216600090815260208190526040812080548392906128eb908490612cf8565b90915550506040518181526001600160a01b038316906000907fddf252ad1be2c89b69c2b068fc378daa952ba7f163c4a11628f55a4df523b3ef9060200160405180910390a35050565b60005b83811015612950578181015183820152602001612938565b50506000910152565b6020815260008251806020840152612978816040850160208701612935565b601f01601f19169190910160400192915050565b6001600160a01b038116811461074357600080fd5b600080604083850312156129b457600080fd5b82356129bf8161298c565b946020939093013593505050565b6000806000606084860312156129e257600080fd5b83356129ed8161298c565b925060208401356129fd8161298c565b929592945050506040919091013590565b600060208284031215612a2057600080fd5b5035919050565b634e487b7160e01b600052604160045260246000fd5b6040516060810167ffffffffffffffff81118282101715612a6057612a60612a27565b60405290565b604051601f8201601f1916810167ffffffffffffffff81118282101715612a8f57612a8f612a27565b604052919050565b600067ffffffffffffffff821115612ab157612ab1612a27565b50601f01601f191660200190565b600060208284031215612ad157600080fd5b813567ffffffffffffffff811115612ae857600080fd5b8201601f81018413612af957600080fd5b8035612b0c612b0782612a97565b612a66565b818152856020838501011115612b2157600080fd5b81602084016020830137600091810160200191909152949350505050565b600060208284031215612b5157600080fd5b81356106ab8161298c565b60008060408385031215612b6f57600080fd5b8235612b7a8161298c565b91506020830135612b8a8161298c565b809150509250929050565b600181811c90821680612ba957607f821691505b602082108103612bc957634e487b7160e01b600052602260045260246000fd5b50919050565b6000808354612bdd81612b95565b600182168015612bf45760018114612c0957612c39565b60ff1983168652811515820286019350612c39565b86600052602060002060005b83811015612c3157815488820152600190910190602001612c15565b505081860193505b5050608160f61b8252506002019392505050565b60008351612c5f818460208801612935565b835190830190612c73818360208801612935565b01949350505050565b600060208284031215612c8e57600080fd5b81516106ab8161298c565b600060208284031215612cab57600080fd5b5051919050565b80518015158114612cc257600080fd5b919050565b600060208284031215612cd957600080fd5b6106ab82612cb2565b634e487b7160e01b600052601160045260246000fd5b8082018082111561046257610462612ce2565b600082601f830112612d1c57600080fd5b8151612d2a612b0782612a97565b818152846020838601011115612d3f57600080fd5b610ede826020830160208701612935565b600080600060608486031215612d6557600080fd5b835167ffffffffffffffff811115612d7c57600080fd5b612d8886828701612d0b565b935050602084015167ffffffffffffffff811115612da557600080fd5b612db186828701612d0b565b604095909501519396949550929392505050565b601f821115610d5b57806000526020600020601f840160051c81016020851015612dec5750805b601f840160051c820191505b81811015611f3c5760008155600101612df8565b815167ffffffffffffffff811115612e2657612e26612a27565b612e3a81612e348454612b95565b84612dc5565b6020601f821160018114612e6e5760008315612e565750848201515b600019600385901b1c1916600184901b178455611f3c565b600084815260208120601f198516915b82811015612e9e5787850151825560209485019460019092019101612e7e565b5084821015612ebc5786840151600019600387901b60f8161c191681555b50505050600190811b01905550565b600060018201612edd57612edd612ce2565b5060010190565b634e487b7160e01b600052601260045260246000fd5b600082612f0957612f09612ee4565b500490565b8181038181111561046257610462612ce2565b600082612f3057612f30612ee4565b500690565b634e487b7160e01b600052603260045260246000fd5b808202811582820484141761046257610462612ce2565b600060208284031215612f7457600080fd5b815167ffffffffffffffff811115612f8b57600080fd5b8201601f81018413612f9c57600080fd5b805167ffffffffffffffff811115612fb657612fb6612a27565b612fc560208260051b01612a66565b80828252602082019150602060608402850101925086831115612fe757600080fd5b6020840193505b82841015613041576060848803121561300657600080fd5b61300e612a3d565b845181526020808601519082015261302860408601612cb2565b6040820152825260609390930192602090910190612fee565b969550505050505056fe6c85b93e587873fbe6712f3b438d42c2945689b262f7bd34b8ea4e3f832a89e7a2646970667358221220d2428a31ed3063c02670b551a95cd29b183fe3ac5b61cba21809573783f677e464736f6c634300081a0033",
  "linkReferences": {},
  "deployedLinkReferences": {}
}