{
  "_format": "hh-sol-artifact-1",
  "contractName": "EraView",
  "sourceName": "contracts/periphery/EraView.sol",
  "abi": [
    {
      "inputs": [
        {
          "internalType": "address",
          "name": "settlementAddress",
          "type": "address"
        }
      ],
      "name": "destroySettlementWithRegionActivation",
      "outputs": [],
      "stateMutability": "nonpayable",
      "type": "function"
    },
    {
      "inputs": [
        {
          "internalType": "address",
          "name": "eraAddress",
          "type": "address"
        },
        {
          "internalType": "uint256[]",
          "name": "bannerIds",
          "type": "uint256[]"
        }
      ],
      "name": "getUserSettlements",
      "outputs": [
        {
          "internalType": "address[]",
          "name": "",
          "type": "address[]"
        }
      ],
      "stateMutability": "view",
      "type": "function"
    },
    {
      "inputs": [
        {
          "internalType": "address",
          "name": "eraAddress",
          "type": "address"
        },
        {
          "internalType": "uint64",
          "name": "position",
          "type": "uint64"
        },
        {
          "internalType": "uint64",
          "name": "regionId",
          "type": "uint64"
        }
      ],
      "name": "restoreSettlementWithRegionActivation",
      "outputs": [],
      "stateMutability": "nonpayable",
      "type": "function"
    }
  ],
  "bytecode": "0x6080604052348015600f57600080fd5b506108d58061001f6000396000f3fe608060405234801561001057600080fd5b50600436106100415760003560e01c80631219a79f146100465780637a56efa31461005b5780638692fa911461006e575b600080fd5b610059610054366004610683565b610097565b005b6100596100693660046106ce565b6101e9565b61008161007c366004610708565b610537565b60405161008e91906107ea565b60405180910390f35b60405163c5375e9960e01b815267ffffffffffffffff8216600482015283906000906001600160a01b0383169063c5375e9990602401602060405180830381865afa1580156100ea573d6000803e3d6000fd5b505050506040513d601f19601f8201168201806040525081019061010e9190610836565b6001600160a01b031603610180576040516329dfc8a560e01b815267ffffffffffffffff831660048201526001600160a01b038216906329dfc8a590602401600060405180830381600087803b15801561016757600080fd5b505af115801561017b573d6000803e3d6000fd5b505050505b604051638b68214d60e01b815267ffffffffffffffff841660048201526001600160a01b03821690638b68214d90602401600060405180830381600087803b1580156101cb57600080fd5b505af11580156101df573d6000803e3d6000fd5b5050505050505050565b600081905060008290506000816001600160a01b03166330b67baa6040518163ffffffff1660e01b8152600401602060405180830381865afa158015610233573d6000803e3d6000fd5b505050506040513d601f19601f820116820180604052508101906102579190610836565b90506000816001600160a01b031663720a70bd836001600160a01b031663704f63a16040518163ffffffff1660e01b8152600401602060405180830381865afa1580156102a8573d6000803e3d6000fd5b505050506040513d601f19601f820116820180604052508101906102cc9190610853565b6040518263ffffffff1660e01b81526004016102ea91815260200190565b602060405180830381865afa158015610307573d6000803e3d6000fd5b505050506040513d601f19601f8201168201806040525081019061032b9190610836565b90506000846001600160a01b031663e6c15c996040518163ffffffff1660e01b8152600401602060405180830381865afa15801561036d573d6000803e3d6000fd5b505050506040513d601f19601f820116820180604052508101906103919190610836565b6001600160a01b031663b2fd89336040518163ffffffff1660e01b8152600401602060405180830381865afa1580156103ce573d6000803e3d6000fd5b505050506040513d601f19601f820116820180604052508101906103f2919061086c565b60405163c5375e9960e01b815267ffffffffffffffff821660048201529091506000906001600160a01b0384169063c5375e9990602401602060405180830381865afa158015610446573d6000803e3d6000fd5b505050506040513d601f19601f8201168201806040525081019061046a9190610836565b6001600160a01b0316036104dc576040516329dfc8a560e01b815267ffffffffffffffff821660048201526001600160a01b038316906329dfc8a590602401600060405180830381600087803b1580156104c357600080fd5b505af11580156104d7573d6000803e3d6000fd5b505050505b846001600160a01b03166352fa2c8e6040518163ffffffff1660e01b8152600401600060405180830381600087803b15801561051757600080fd5b505af115801561052b573d6000803e3d6000fd5b50505050505050505050565b606060008390506000835167ffffffffffffffff81111561055a5761055a6106f2565b604051908082528060200260200182016040528015610583578160200160208202803683370190505b50905060005b845181101561064c57826001600160a01b031663ebe63ec88683815181106105b3576105b3610889565b60200260200101516040518263ffffffff1660e01b81526004016105d991815260200190565b602060405180830381865afa1580156105f6573d6000803e3d6000fd5b505050506040513d601f19601f8201168201806040525081019061061a9190610836565b82828151811061062c5761062c610889565b6001600160a01b0390921660209283029190910190910152600101610589565b50949350505050565b6001600160a01b038116811461066a57600080fd5b50565b67ffffffffffffffff8116811461066a57600080fd5b60008060006060848603121561069857600080fd5b83356106a381610655565b925060208401356106b38161066d565b915060408401356106c38161066d565b809150509250925092565b6000602082840312156106e057600080fd5b81356106eb81610655565b9392505050565b634e487b7160e01b600052604160045260246000fd5b6000806040838503121561071b57600080fd5b823561072681610655565b9150602083013567ffffffffffffffff81111561074257600080fd5b8301601f8101851361075357600080fd5b803567ffffffffffffffff81111561076d5761076d6106f2565b8060051b604051601f19603f830116810181811067ffffffffffffffff8211171561079a5761079a6106f2565b6040529182526020818401810192908101888411156107b857600080fd5b6020850194505b838510156107db578435808252602095860195909350016107bf565b50809450505050509250929050565b602080825282518282018190526000918401906040840190835b8181101561082b5783516001600160a01b0316835260209384019390920191600101610804565b509095945050505050565b60006020828403121561084857600080fd5b81516106eb81610655565b60006020828403121561086557600080fd5b5051919050565b60006020828403121561087e57600080fd5b81516106eb8161066d565b634e487b7160e01b600052603260045260246000fdfea2646970667358221220027823bfa505c7101adb17ae941db090a437d1b417bd5492b6db3e78eaa49de364736f6c634300081a0033",
  "linkReferences": {},
  "deployedLinkReferences": {}
}