{
  "_format": "hh-sol-artifact-1",
  "contractName": "ArmyView",
  "sourceName": "contracts/periphery/ArmyView.sol",
  "abi": [
    {
      "inputs": [
        {
          "internalType": "address",
          "name": "armyAddress",
          "type": "address"
        },
        {
          "internalType": "uint256",
          "name": "timestamp",
          "type": "uint256"
        }
      ],
      "name": "getArmyCombinedData",
      "outputs": [
        {
          "components": [
            {
              "internalType": "address",
              "name": "id",
              "type": "address"
            },
            {
              "internalType": "address",
              "name": "owner",
              "type": "address"
            },
            {
              "internalType": "address",
              "name": "ownerSettlementId",
              "type": "address"
            },
            {
              "internalType": "uint64",
              "name": "currentPosition",
              "type": "uint64"
            },
            {
              "internalType": "address",
              "name": "currentPositionSettlementId",
              "type": "address"
            },
            {
              "internalType": "uint64",
              "name": "destinationPosition",
              "type": "uint64"
            },
            {
              "internalType": "address",
              "name": "destinationPositionSettlementId",
              "type": "address"
            },
            {
              "internalType": "uint64",
              "name": "secretDestinationRegionId",
              "type": "uint64"
            },
            {
              "internalType": "bytes32",
              "name": "secretDestinationPosition",
              "type": "bytes32"
            },
            {
              "internalType": "uint64",
              "name": "maneuverBeginTime",
              "type": "uint64"
            },
            {
              "internalType": "uint64",
              "name": "maneuverEndTime",
              "type": "uint64"
            },
            {
              "internalType": "address",
              "name": "battleId",
              "type": "address"
            },
            {
              "internalType": "uint256[]",
              "name": "units",
              "type": "uint256[]"
            },
            {
              "internalType": "uint256[]",
              "name": "besiegingUnits",
              "type": "uint256[]"
            },
            {
              "internalType": "uint256",
              "name": "robberyPoints",
              "type": "uint256"
            },
            {
              "internalType": "uint64",
              "name": "stunBeginTime",
              "type": "uint64"
            },
            {
              "internalType": "uint64",
              "name": "stunEndTime",
              "type": "uint64"
            }
          ],
          "internalType": "struct ArmyView.ArmyCombinedData",
          "name": "armyCombinedData",
          "type": "tuple"
        }
      ],
      "stateMutability": "view",
      "type": "function"
    }
  ],
  "bytecode": "0x6080604052348015600f57600080fd5b506118248061001f6000396000f3fe608060405234801561001057600080fd5b506004361061002b5760003560e01c8063fc26340214610030575b600080fd5b61004361003e3660046112a3565b610059565b604051610050919061130b565b60405180910390f35b604080516102208101825260008082526020820181905291810182905260608082018390526080820183905260a0820183905260c0820183905260e08201839052610100820183905261012082018390526101408201839052610160820183905261018082018190526101a08201526101c081018290526101e08101829052610200810191909152816000036100ed574291505b60008390506000846001600160a01b03166330b67baa6040518163ffffffff1660e01b8152600401602060405180830381865afa158015610132573d6000803e3d6000fd5b505050506040513d601f19601f8201168201806040525081019061015691906114a5565b90506000856001600160a01b031663143e55e06040518163ffffffff1660e01b8152600401602060405180830381865afa158015610198573d6000803e3d6000fd5b505050506040513d601f19601f820116820180604052508101906101bc91906114a5565b905060006101c8610bec565b6001600160a01b03808916875260408051636a9a6b1b60e11b815290519293509086169163d534d636916004808201926020929091908290030181865afa158015610217573d6000803e3d6000fd5b505050506040513d601f19601f8201168201806040525081019061023b91906114e6565b67ffffffffffffffff166060860181905260405163c4c31e8560e01b815260048101919091526001600160a01b0383169063c4c31e8590602401602060405180830381865afa158015610292573d6000803e3d6000fd5b505050506040513d601f19601f820116820180604052508101906102b691906114a5565b6001600160a01b0390811660808701526040805163023956f760e61b8152815192871692638e55bdc0926004808401939192918290030181865afa158015610302573d6000803e3d6000fd5b505050506040513d601f19601f820116820180604052508101906103269190611501565b67ffffffffffffffff908116610200880152166101e0860152604080516303085db560e51b815290516001600160a01b0386169163610bb6a09160048083019260a09291908290030181865afa158015610384573d6000803e3d6000fd5b505050506040513d601f19601f820116820180604052508101906103a89190611534565b6101008a015267ffffffffffffffff90811660e08a015290811660a0890152908116610140880181905291166101208701526000036103e8576000610460565b60a085015160405163c4c31e8560e01b815267ffffffffffffffff90911660048201526001600160a01b0383169063c4c31e8590602401602060405180830381865afa15801561043c573d6000803e3d6000fd5b505050506040513d601f19601f8201168201806040525081019061046091906114a5565b6001600160a01b031660c086015261014085015167ffffffffffffffff161580159061049b575084610140015167ffffffffffffffff168610155b156105835760a08501805167ffffffffffffffff16606087015260c0860180516001600160a01b031660808801526000918290528190526101208601516101408701516104e891906115a8565b90506000670de0b6b3a7640000610511670853a0d2313c000067ffffffffffffffff85166115c8565b61051b91906115df565b61014088015190915060006105308383611601565b905088610200015167ffffffffffffffff168167ffffffffffffffff16111561056e5767ffffffffffffffff8083166101e08b015281166102008a01525b50506000610120880181905261014088015250505b61058c84610c98565b85602001906001600160a01b031690816001600160a01b031681525050836001600160a01b031663c45f10006040518163ffffffff1660e01b8152600401602060405180830381865afa1580156105e7573d6000803e3d6000fd5b505050506040513d601f19601f8201168201806040525081019061060b91906114a5565b6001600160a01b03166040860152805167ffffffffffffffff81111561063357610633611621565b60405190808252806020026020018201604052801561065c578160200160208202803683370190505b5061018086015260005b815181101561078d57826001600160a01b031663feae7dc383838151811061069057610690611637565b60200260200101516040518263ffffffff1660e01b81526004016106b691815260200190565b602060405180830381865afa1580156106d3573d6000803e3d6000fd5b505050506040513d601f19601f820116820180604052508101906106f791906114a5565b6040516370a0823160e01b81526001600160a01b038a8116600483015291909116906370a0823190602401602060405180830381865afa15801561073f573d6000803e3d6000fd5b505050506040513d601f19601f82011682018060405250810190610763919061164d565b866101800151828151811061077a5761077a611637565b6020908102919091010152600101610666565b50836001600160a01b03166344e445456040518163ffffffff1660e01b8152600401602060405180830381865afa1580156107cc573d6000803e3d6000fd5b505050506040513d601f19601f820116820180604052508101906107f091906114a5565b6001600160a01b0316610160860181905215610a55576101608501516108168188610d78565b15610a53576040516339a88e0160e11b81526001600160a01b03898116600483015260009182918416906373511c0290602401600060405180830381865afa158015610866573d6000803e3d6000fd5b505050506040513d6000823e601f3d908101601f1916820160405261088e9190810190611705565b9150915060005b845181101561090b578181815181106108b0576108b0611637565b602002602001015189610180015182815181106108cf576108cf611637565b60200260200101516108e1919061175b565b89610180015182815181106108f8576108f8611637565b6020908102919091010152600101610895565b50600080846001600160a01b031663383f9ac36040518163ffffffff1660e01b8152600401606060405180830381865afa15801561094d573d6000803e3d6000fd5b505050506040513d601f19601f82011682018060405250810190610971919061176e565b509150915060008461098b5767093a8dfa07a28000610995565b6704a628b99fc180005b90506000670de0b6b3a76400006109b68367ffffffffffffffff86166115c8565b6109c091906115df565b905060006109ce8486611601565b905060006109dc8383611601565b90508d610200015167ffffffffffffffff168167ffffffffffffffff161115610a4257818e6101e0019067ffffffffffffffff16908167ffffffffffffffff1681525050808e610200019067ffffffffffffffff16908167ffffffffffffffff16815250505b505060006101608d01525050505050505b505b84610200015167ffffffffffffffff168610610a7c5760006101e086018190526102008601525b610a8584610e1a565b610be257600085608001516001600160a01b0316632de7e9b06040518163ffffffff1660e01b8152600401602060405180830381865afa158015610acd573d6000803e3d6000fd5b505050506040513d601f19601f82011682018060405250810190610af191906114a5565b604051631f40e7c360e21b81526001600160a01b038a81166004830152602482018a905291925090821690637d039f0c90604401602060405180830381865afa158015610b42573d6000803e3d6000fd5b505050506040513d601f19601f82011682018060405250810190610b66919061164d565b6101c087015260405163417fbd1d60e01b81526001600160a01b03898116600483015282169063417fbd1d90602401600060405180830381865afa158015610bb2573d6000803e3d6000fd5b505050506040513d6000823e601f3d908101601f19168201604052610bda91908101906117b1565b6101a0870152505b5050505092915050565b60606000610bf8610fbb565b90506000815167ffffffffffffffff811115610c1657610c16611621565b604051908082528060200260200182016040528015610c3f578160200160208202803683370190505b50905060005b8151811015610c9157828181518110610c6057610c60611637565b602002602001015160400151828281518110610c7e57610c7e611637565b6020908102919091010152600101610c45565b5092915050565b6000610ca382610e1a565b15610caf576000610d72565b816001600160a01b031663c45f10006040518163ffffffff1660e01b8152600401602060405180830381865afa158015610ced573d6000803e3d6000fd5b505050506040513d601f19601f82011682018060405250810190610d1191906114a5565b6001600160a01b031663b5acd4566040518163ffffffff1660e01b8152600401602060405180830381865afa158015610d4e573d6000803e3d6000fd5b505050506040513d601f19601f82011682018060405250810190610d7291906114a5565b92915050565b6000806000846001600160a01b031663383f9ac36040518163ffffffff1660e01b8152600401606060405180830381865afa158015610dbb573d6000803e3d6000fd5b505050506040513d601f19601f82011682018060405250810190610ddf919061176e565b509150915060008267ffffffffffffffff16118015610e115750610e038183611601565b67ffffffffffffffff168410155b95945050505050565b6000816001600160a01b031663c45f10006040518163ffffffff1660e01b8152600401602060405180830381865afa158015610e5a573d6000803e3d6000fd5b505050506040513d601f19601f82011682018060405250810190610e7e91906114a5565b6001600160a01b031663e6c15c996040518163ffffffff1660e01b8152600401602060405180830381865afa158015610ebb573d6000803e3d6000fd5b505050506040513d601f19601f82011682018060405250810190610edf91906114a5565b6001600160a01b031663c20c92506040518163ffffffff1660e01b8152600401602060405180830381865afa158015610f1c573d6000803e3d6000fd5b505050506040513d601f19601f82011682018060405250810190610f4091906114a5565b6001600160a01b0316826001600160a01b031663c45f10006040518163ffffffff1660e01b8152600401602060405180830381865afa158015610f87573d6000803e3d6000fd5b505050506040513d601f19601f82011682018060405250810190610fab91906114a5565b6001600160a01b03161492915050565b6040805160038082526080820190925260609160009190816020015b60408051606080820183528082526020820152600091810191909152815260200190600190039081610fd75750506040805160a0810182526011606082019081527f4d697468726165756d2057617272696f720000000000000000000000000000006080830152815281518083018352600881527f6d57415252494f52000000000000000000000000000000000000000000000000602080830191909152808301919091528251808401845260078152662ba0a92924a7a960c91b9101527f69c5317e5ce44f1a1fb56c6a5eff904214e6353da6310ab0a6b511eef9a7c3919181019190915281519192509082906000906110d4576110d4611637565b6020908102919091018101919091526040805160a0810182526010606082019081527f4d697468726165756d20417263686572000000000000000000000000000000006080830152815281518083018352600781526636a0a921a422a960c91b818501528184015281518083018352600681526520a921a422a960d11b9301929092527f42de5fbfc07577d3e9942df95dd4e61cabcab8907d5d333240140b2999379e409082015281518290600190811061119157611191611637565b6020908102919091018101919091526040805160a0810182526012606082019081527f4d697468726165756d20486f7273656d616e00000000000000000000000000006080830152815281518083018352600981527f6d484f5253454d414e0000000000000000000000000000000000000000000000818501528184015281518083018352600881527f484f5253454d414e0000000000000000000000000000000000000000000000009301929092527f89d5ee6f4fcb32fb3c151bc25e6bc320fec82ba89cb3b29d1969d907e0e679399082015281518290600290811061127b5761127b611637565b6020908102919091010152919050565b6001600160a01b03811681146112a057600080fd5b50565b600080604083850312156112b657600080fd5b82356112c18161128b565b946020939093013593505050565b600081518084526020840193506020830160005b828110156113015781518652602095860195909101906001016112e3565b5093949350505050565b602081526113256020820183516001600160a01b03169052565b6000602083015161134160408401826001600160a01b03169052565b5060408301516001600160a01b038116606084015250606083015167ffffffffffffffff811660808401525060808301516001600160a01b03811660a08401525060a083015167ffffffffffffffff811660c08401525060c08301516001600160a01b03811660e08401525060e083015167ffffffffffffffff8116610100840152506101008301516101208301526101208301516113ed61014084018267ffffffffffffffff169052565b5061014083015167ffffffffffffffff8116610160840152506101608301516001600160a01b038116610180840152506101808301516102206101a084015261143a6102408401826112cf565b90506101a0840151601f19848303016101c085015261145982826112cf565b9150506101c08401516101e08401526101e084015161148561020085018267ffffffffffffffff169052565b5061020084015167ffffffffffffffff8116610220850152509392505050565b6000602082840312156114b757600080fd5b81516114c28161128b565b9392505050565b805167ffffffffffffffff811681146114e157600080fd5b919050565b6000602082840312156114f857600080fd5b6114c2826114c9565b6000806040838503121561151457600080fd5b61151d836114c9565b915061152b602084016114c9565b90509250929050565b600080600080600060a0868803121561154c57600080fd5b611555866114c9565b9450611563602087016114c9565b9350611571604087016114c9565b925061157f606087016114c9565b9150608086015190509295509295909350565b634e487b7160e01b600052601160045260246000fd5b67ffffffffffffffff8281168282160390811115610d7257610d72611592565b8082028115828204841417610d7257610d72611592565b6000826115fc57634e487b7160e01b600052601260045260246000fd5b500490565b67ffffffffffffffff8181168382160190811115610d7257610d72611592565b634e487b7160e01b600052604160045260246000fd5b634e487b7160e01b600052603260045260246000fd5b60006020828403121561165f57600080fd5b5051919050565b600082601f83011261167757600080fd5b815167ffffffffffffffff81111561169157611691611621565b8060051b604051601f19603f830116810181811067ffffffffffffffff821117156116be576116be611621565b6040529182526020818501810192908101868411156116dc57600080fd5b6020860192505b838310156116fb5782518152602092830192016116e3565b5095945050505050565b6000806040838503121561171857600080fd5b8251801515811461172857600080fd5b602084015190925067ffffffffffffffff81111561174557600080fd5b61175185828601611666565b9150509250929050565b81810381811115610d7257610d72611592565b60008060006060848603121561178357600080fd5b61178c846114c9565b925061179a602085016114c9565b91506117a8604085016114c9565b90509250925092565b6000602082840312156117c357600080fd5b815167ffffffffffffffff8111156117da57600080fd5b6117e684828501611666565b94935050505056fea26469706673582212208866fd6e3ebf26062f379b35325ab74d3fb0d7ae4ca049baeb4c1eb4fccfb74664736f6c634300081a0033",
  "linkReferences": {},
  "deployedLinkReferences": {}
}