{
  "_format": "hh-sol-artifact-1",
  "contractName": "Era",
  "sourceName": "contracts/core/assets/era/Era.sol",
  "abi": [
    {
      "inputs": [],
      "name": "EraCannotActivateNotIncludedRegion",
      "type": "error"
    },
    {
      "inputs": [],
      "name": "EraCannotActivateRegionMoreThanOnce",
      "type": "error"
    },
    {
      "inputs": [],
      "name": "OnlyActiveGame",
      "type": "error"
    },
    {
      "inputs": [],
      "name": "OnlyMightyCreator",
      "type": "error"
    },
    {
      "inputs": [],
      "name": "OnlyWorldAssetFromSameEra",
      "type": "error"
    },
    {
      "inputs": [],
      "name": "UserSettlementCannotBeCreatedIfBannerNftIdIsAlreadyTakenByAnotherSettlement",
      "type": "error"
    },
    {
      "inputs": [],
      "name": "UserSettlementCannotBeCreatedInInactiveEra",
      "type": "error"
    },
    {
      "inputs": [],
      "name": "UserSettlementCannotBeCreatedInRegionWithMaximumAllowedSettlements",
      "type": "error"
    },
    {
      "inputs": [],
      "name": "UserSettlementCannotBeCreatedOnPositionWhichIsNotConnectedToAnotherSettlement",
      "type": "error"
    },
    {
      "inputs": [],
      "name": "UserSettlementCannotBeCreatedOnPositionWhichIsToCloseToAnotherSettlement",
      "type": "error"
    },
    {
      "inputs": [],
      "name": "UserSettlementCannotBeCreatedOnPositionWithAnotherSettlement",
      "type": "error"
    },
    {
      "inputs": [],
      "name": "UserSettlementCannotBeRestoredFromInactiveEra",
      "type": "error"
    },
    {
      "inputs": [],
      "name": "UserSettlementCannotBeRestoredIfItsRotten",
      "type": "error"
    },
    {
      "anonymous": false,
      "inputs": [
        {
          "indexed": false,
          "internalType": "uint8",
          "name": "version",
          "type": "uint8"
        }
      ],
      "name": "Initialized",
      "type": "event"
    },
    {
      "anonymous": false,
      "inputs": [
        {
          "indexed": false,
          "internalType": "address",
          "name": "prosperityAddress",
          "type": "address"
        }
      ],
      "name": "ProsperityCreated",
      "type": "event"
    },
    {
      "anonymous": false,
      "inputs": [
        {
          "indexed": false,
          "internalType": "address",
          "name": "regionAddress",
          "type": "address"
        },
        {
          "indexed": false,
          "internalType": "uint256",
          "name": "regionId",
          "type": "uint256"
        }
      ],
      "name": "RegionActivated",
      "type": "event"
    },
    {
      "anonymous": false,
      "inputs": [
        {
          "indexed": false,
          "internalType": "address",
          "name": "resourceAddress",
          "type": "address"
        },
        {
          "indexed": false,
          "internalType": "bytes32",
          "name": "resourceTypeId",
          "type": "bytes32"
        }
      ],
      "name": "ResourceCreated",
      "type": "event"
    },
    {
      "anonymous": false,
      "inputs": [
        {
          "indexed": false,
          "internalType": "address",
          "name": "settlementAddress",
          "type": "address"
        },
        {
          "indexed": false,
          "internalType": "bytes32",
          "name": "assetTypeId",
          "type": "bytes32"
        },
        {
          "indexed": false,
          "internalType": "address",
          "name": "regionAddress",
          "type": "address"
        },
        {
          "indexed": false,
          "internalType": "uint64",
          "name": "position",
          "type": "uint64"
        },
        {
          "indexed": false,
          "internalType": "uint256",
          "name": "bannerId",
          "type": "uint256"
        }
      ],
      "name": "SettlementCreated",
      "type": "event"
    },
    {
      "anonymous": false,
      "inputs": [
        {
          "indexed": false,
          "internalType": "address",
          "name": "settlementAddress",
          "type": "address"
        },
        {
          "indexed": false,
          "internalType": "uint64",
          "name": "position",
          "type": "uint64"
        }
      ],
      "name": "SettlementRestored",
      "type": "event"
    },
    {
      "anonymous": false,
      "inputs": [
        {
          "indexed": false,
          "internalType": "address",
          "name": "tileCapturingSystemAddress",
          "type": "address"
        }
      ],
      "name": "TileCapturingSystemCreated",
      "type": "event"
    },
    {
      "anonymous": false,
      "inputs": [
        {
          "indexed": false,
          "internalType": "uint256",
          "name": "newTotalCultists",
          "type": "uint256"
        }
      ],
      "name": "TotalCultistsChanged",
      "type": "event"
    },
    {
      "anonymous": false,
      "inputs": [
        {
          "indexed": false,
          "internalType": "address",
          "name": "unitsAddress",
          "type": "address"
        },
        {
          "indexed": false,
          "internalType": "bytes32",
          "name": "unitTypeId",
          "type": "bytes32"
        }
      ],
      "name": "UnitsCreated",
      "type": "event"
    },
    {
      "anonymous": false,
      "inputs": [
        {
          "indexed": false,
          "internalType": "address",
          "name": "workersAddress",
          "type": "address"
        }
      ],
      "name": "WorkersCreated",
      "type": "event"
    },
    {
      "inputs": [
        {
          "internalType": "uint64",
          "name": "regionId",
          "type": "uint64"
        }
      ],
      "name": "activateRegion",
      "outputs": [],
      "stateMutability": "nonpayable",
      "type": "function"
    },
    {
      "inputs": [],
      "name": "assetGroupId",
      "outputs": [
        {
          "internalType": "bytes32",
          "name": "",
          "type": "bytes32"
        }
      ],
      "stateMutability": "view",
      "type": "function"
    },
    {
      "inputs": [],
      "name": "assetTypeId",
      "outputs": [
        {
          "internalType": "bytes32",
          "name": "",
          "type": "bytes32"
        }
      ],
      "stateMutability": "view",
      "type": "function"
    },
    {
      "inputs": [
        {
          "internalType": "uint256",
          "name": "bannerId",
          "type": "uint256"
        },
        {
          "internalType": "uint64",
          "name": "position",
          "type": "uint64"
        },
        {
          "internalType": "uint64",
          "name": "regionId",
          "type": "uint64"
        },
        {
          "internalType": "bytes32",
          "name": "assetTypeId",
          "type": "bytes32"
        }
      ],
      "name": "createSettlementByType",
      "outputs": [
        {
          "internalType": "address",
          "name": "",
          "type": "address"
        }
      ],
      "stateMutability": "nonpayable",
      "type": "function"
    },
    {
      "inputs": [
        {
          "internalType": "uint64",
          "name": "position",
          "type": "uint64"
        },
        {
          "internalType": "uint64",
          "name": "regionId",
          "type": "uint64"
        },
        {
          "internalType": "uint256",
          "name": "bannerId",
          "type": "uint256"
        }
      ],
      "name": "createUserSettlement",
      "outputs": [
        {
          "internalType": "address",
          "name": "",
          "type": "address"
        }
      ],
      "stateMutability": "nonpayable",
      "type": "function"
    },
    {
      "inputs": [],
      "name": "creationTime",
      "outputs": [
        {
          "internalType": "uint256",
          "name": "",
          "type": "uint256"
        }
      ],
      "stateMutability": "view",
      "type": "function"
    },
    {
      "inputs": [
        {
          "internalType": "uint256",
          "name": "value",
          "type": "uint256"
        }
      ],
      "name": "decreaseTotalCultists",
      "outputs": [],
      "stateMutability": "nonpayable",
      "type": "function"
    },
    {
      "inputs": [],
      "name": "era",
      "outputs": [
        {
          "internalType": "contract IEra",
          "name": "",
          "type": "address"
        }
      ],
      "stateMutability": "view",
      "type": "function"
    },
    {
      "inputs": [],
      "name": "eraNumber",
      "outputs": [
        {
          "internalType": "uint256",
          "name": "",
          "type": "uint256"
        }
      ],
      "stateMutability": "view",
      "type": "function"
    },
    {
      "inputs": [
        {
          "internalType": "uint256",
          "name": "value",
          "type": "uint256"
        }
      ],
      "name": "increaseTotalCultists",
      "outputs": [],
      "stateMutability": "nonpayable",
      "type": "function"
    },
    {
      "inputs": [
        {
          "internalType": "bytes",
          "name": "initParams",
          "type": "bytes"
        }
      ],
      "name": "init",
      "outputs": [],
      "stateMutability": "nonpayable",
      "type": "function"
    },
    {
      "inputs": [],
      "name": "prosperity",
      "outputs": [
        {
          "internalType": "contract IProsperity",
          "name": "",
          "type": "address"
        }
      ],
      "stateMutability": "view",
      "type": "function"
    },
    {
      "inputs": [
        {
          "internalType": "uint64",
          "name": "",
          "type": "uint64"
        }
      ],
      "name": "regions",
      "outputs": [
        {
          "internalType": "contract IRegion",
          "name": "",
          "type": "address"
        }
      ],
      "stateMutability": "view",
      "type": "function"
    },
    {
      "inputs": [],
      "name": "registry",
      "outputs": [
        {
          "internalType": "contract IRegistry",
          "name": "",
          "type": "address"
        }
      ],
      "stateMutability": "view",
      "type": "function"
    },
    {
      "inputs": [
        {
          "internalType": "bytes32",
          "name": "",
          "type": "bytes32"
        }
      ],
      "name": "resources",
      "outputs": [
        {
          "internalType": "contract IResource",
          "name": "",
          "type": "address"
        }
      ],
      "stateMutability": "view",
      "type": "function"
    },
    {
      "inputs": [
        {
          "internalType": "uint64",
          "name": "position",
          "type": "uint64"
        }
      ],
      "name": "restoreUserSettlement",
      "outputs": [],
      "stateMutability": "nonpayable",
      "type": "function"
    },
    {
      "inputs": [
        {
          "internalType": "uint256",
          "name": "",
          "type": "uint256"
        }
      ],
      "name": "settlementByBannerId",
      "outputs": [
        {
          "internalType": "contract ISettlement",
          "name": "",
          "type": "address"
        }
      ],
      "stateMutability": "view",
      "type": "function"
    },
    {
      "inputs": [
        {
          "internalType": "uint64",
          "name": "",
          "type": "uint64"
        }
      ],
      "name": "settlementByPosition",
      "outputs": [
        {
          "internalType": "contract ISettlement",
          "name": "",
          "type": "address"
        }
      ],
      "stateMutability": "view",
      "type": "function"
    },
    {
      "inputs": [],
      "name": "tileCapturingSystem",
      "outputs": [
        {
          "internalType": "contract ITileCapturingSystem",
          "name": "",
          "type": "address"
        }
      ],
      "stateMutability": "view",
      "type": "function"
    },
    {
      "inputs": [],
      "name": "totalCultists",
      "outputs": [
        {
          "internalType": "uint256",
          "name": "",
          "type": "uint256"
        }
      ],
      "stateMutability": "view",
      "type": "function"
    },
    {
      "inputs": [
        {
          "internalType": "bytes32",
          "name": "",
          "type": "bytes32"
        }
      ],
      "name": "units",
      "outputs": [
        {
          "internalType": "contract IUnits",
          "name": "",
          "type": "address"
        }
      ],
      "stateMutability": "view",
      "type": "function"
    },
    {
      "inputs": [],
      "name": "workers",
      "outputs": [
        {
          "internalType": "contract IWorkers",
          "name": "",
          "type": "address"
        }
      ],
      "stateMutability": "view",
      "type": "function"
    },
    {
      "inputs": [],
      "name": "world",
      "outputs": [
        {
          "internalType": "contract IWorld",
          "name": "",
          "type": "address"
        }
      ],
      "stateMutability": "view",
      "type": "function"
    },
    {
      "inputs": [],
      "name": "worldAssetFactory",
      "outputs": [
        {
          "internalType": "contract IWorldAssetFactory",
          "name": "",
          "type": "address"
        }
      ],
      "stateMutability": "view",
      "type": "function"
    }
  ],
  "bytecode": "0x6080604052348015600f57600080fd5b50612f428061001f6000396000f3fe608060405234801561001057600080fd5b50600436106101985760003560e01c8063c096b3f7116100e3578063d6ea8dc31161008c578063ece56a1a11610066578063ece56a1a146103be578063fcc814b0146103c6578063feae7dc3146103cf57600080fd5b8063d6ea8dc314610379578063d8270dce1461038c578063ebe63ec81461039557600080fd5b8063c91b9566116100bd578063c91b956614610340578063cabb62f014610353578063d653a66a1461036657600080fd5b8063c096b3f7146102db578063c4c31e85146102ee578063c5375e991461031757600080fd5b8063558c31ce1161014557806384ba89e31161011f57806384ba89e3146102785780638b68214d1461029f578063912929df146102b257600080fd5b8063558c31ce146102365780637b103999146102495780637d884c741461025157600080fd5b80632c4613dc116101765780632c4613dc1461020857806330b67baa1461021b5780634ddf47d41461022357600080fd5b80630b4e99c31461019d578063143e55e0146101d357806329dfc8a5146101f3575b600080fd5b7f6c85b93e587873fbe6712f3b438d42c2945689b262f7bd34b8ea4e3f832a89ea545b6040519081526020015b60405180910390f35b6101db6103f8565b6040516001600160a01b0390911681526020016101ca565b610206610201366004612aaf565b61049c565b005b600a546101db906001600160a01b031681565b6101db6107f4565b610206610231366004612b1a565b610827565b610206610244366004612bb4565b610bf7565b6101db610c4f565b7f6c85b93e587873fbe6712f3b438d42c2945689b262f7bd34b8ea4e3f832a89e7546101c0565b7f6c85b93e587873fbe6712f3b438d42c2945689b262f7bd34b8ea4e3f832a89e9546101c0565b6102066102ad366004612aaf565b610c96565b6101db6102c0366004612bb4565b6008602052600090815260409020546001600160a01b031681565b6102066102e9366004612bb4565b611117565b6101db6102fc366004612aaf565b6002602052600090815260409020546001600160a01b031681565b6101db610325366004612aaf565b6001602052600090815260409020546001600160a01b031681565b6007546101db906001600160a01b031681565b6006546101db906001600160a01b031681565b6101db610374366004612bcd565b611131565b6101db610387366004612c0e565b6115aa565b6101c060055481565b6101db6103a3366004612bb4565b6003602052600090815260409020546001600160a01b031681565b6101db61185d565b6101c060045481565b6101db6103dd366004612bb4565b6009602052600090815260409020546001600160a01b031681565b60006104026107f4565b6001600160a01b031663720a70bd6104387f6c85b93e587873fbe6712f3b438d42c2945689b262f7bd34b8ea4e3f832a89e75490565b6040518263ffffffff1660e01b815260040161045691815260200190565b602060405180830381865afa158015610473573d6000803e3d6000fd5b505050506040513d601f19601f820116820180604052508101906104979190612c6b565b905090565b67ffffffffffffffff81166000908152600160205260409020546001600160a01b0316156104dd57604051637de3a75b60e11b815260040160405180910390fd5b6104e56107f4565b6001600160a01b031663f5f026a36040518163ffffffff1660e01b8152600401602060405180830381865afa158015610522573d6000803e3d6000fd5b505050506040513d601f19601f820116820180604052508101906105469190612c6b565b6040516332b3462d60e11b815267ffffffffffffffff831660048201526001600160a01b0391909116906365668c5a90602401602060405180830381865afa158015610596573d6000803e3d6000fd5b505050506040513d601f19601f820116820180604052508101906105ba9190612c9d565b6105d757604051633a3887a560e11b815260040160405180910390fd5b60006105e161185d565b6001600160a01b031663c19755fd6105f76107f4565b7f6c85b93e587873fbe6712f3b438d42c2945689b262f7bd34b8ea4e3f832a89e75460408051808201825260068152653932b3b4b7b760d11b602091820152815180830183526005815264424153494360d81b90820152815167ffffffffffffffff89168183015282518082039092018252808301928390526001600160e01b031960e087901b169092526106d49392917f04fa4af4920f7d24ca3096947bd17e47d5f138126bc597199d0ce383188e7009917fdc0ae866100b2876ab26eb62a50ca2cd083944f439e6d78aab2fc402e669e9ee91604401612cfe565b6020604051808303816000875af11580156106f3573d6000803e3d6000fd5b505050506040513d601f19601f820116820180604052508101906107179190612c6b565b67ffffffffffffffff831660008181526001602090815260409182902080546001600160a01b0319166001600160a01b03861690811790915582519081529081019290925291925082917f6d7eaafe6ca1a9953fcf80e67d9581b2adcb02d91c66c17c46d39211f06113cd910160405180910390a160405163d99d7d8160e01b815267ffffffffffffffff841660048201526001600160a01b0382169063d99d7d8190602401600060405180830381600087803b1580156107d757600080fd5b505af11580156107eb573d6000803e3d6000fd5b50505050505050565b60006104977f6c85b93e587873fbe6712f3b438d42c2945689b262f7bd34b8ea4e3f832a89e6546001600160a01b031690565b600054610100900460ff16158080156108475750600054600160ff909116105b806108615750303b158015610861575060005460ff166001145b6108d75760405162461bcd60e51b815260206004820152602e60248201527f496e697469616c697a61626c653a20636f6e747261637420697320616c72656160448201527f647920696e697469616c697a6564000000000000000000000000000000000000606482015260840160405180910390fd5b6000805460ff1916600117905580156108fa576000805461ff0019166101001790555b4260055581516000906109169084016020908101908501612d3d565b905060006109226118a4565b905060005b81518110156109d057600082828151811061094457610944612d56565b60200260200101519050600061095a8286611bdd565b604083810180516000908152600860209081529083902080546001600160a01b0319166001600160a01b03861690811790915591518351928352908201529192507f9a7fe77d7d31a53bbf7b5d5b007916243804ad2717e5e2b6f15144f79912ace5910160405180910390a15050600101610927565b5060006109db611d25565b905060005b8151811015610a895760008282815181106109fd576109fd612d56565b602002602001015190506000610a138287611fe5565b604083810180516000908152600960209081529083902080546001600160a01b0319166001600160a01b03861690811790915591518351928352908201529192507f3357c42a52a37cd452e72fa6d0719b00d055e010acc1cf9aca4bb79fd67e67de910160405180910390a150506001016109e0565b506000610a958461209a565b600680546001600160a01b0319166001600160a01b0383169081179091556040519081529091507f9b4b02a4fc86363400ab2364e8dbd2162514be797103e84323447d8a647733c29060200160405180910390a16000610af4856121a6565b600780546001600160a01b0319166001600160a01b0383169081179091556040519081529091507f1ab63186faee6524e01201749c3f482f2a221e9dcd660ac3c5c7c44026d097c89060200160405180910390a16000610b5386612285565b600a80546001600160a01b0319166001600160a01b0383169081179091556040519081529091507fb6bd208619a1c452a6c23bc255ecdbed68b60dcd586bb350d42cdacd4847014f9060200160405180910390a15050505050508015610bf3576000805461ff0019169055604051600181527f7f26b83ff96e1f2b6a682f133852f6798a09c465da95921460cefb38474024989060200160405180910390a15b5050565b610bff612364565b8060046000828254610c119190612d82565b90915550506004546040519081527f4900a9dc1c09a36a7cf858b3f2b1c047f0bf4f44ad5cd4427e80ca26b11ae0929060200160405180910390a150565b6000610c596107f4565b6001600160a01b0316637b1039996040518163ffffffff1660e01b8152600401602060405180830381865afa158015610473573d6000803e3d6000fd5b610c9e612450565b610ca66107f4565b6001600160a01b031663704f63a16040518163ffffffff1660e01b8152600401602060405180830381865afa158015610ce3573d6000803e3d6000fd5b505050506040513d601f19601f82011682018060405250810190610d079190612d3d565b7f6c85b93e587873fbe6712f3b438d42c2945689b262f7bd34b8ea4e3f832a89e75414610d4757604051631c2c6b6b60e01b815260040160405180910390fd5b6000610d516107f4565b6001600160a01b031663a8d66c756040518163ffffffff1660e01b8152600401602060405180830381865afa158015610d8e573d6000803e3d6000fd5b505050506040513d601f19601f82011682018060405250810190610db29190612c6b565b60405163c4c31e8560e01b815267ffffffffffffffff841660048201529091506000906001600160a01b0383169063c4c31e8590602401602060405180830381865afa158015610e06573d6000803e3d6000fd5b505050506040513d601f19601f82011682018060405250810190610e2a9190612c6b565b9050806001600160a01b031663977a2d136040518163ffffffff1660e01b81526004016020604051808303816000875af1158015610e6c573d6000803e3d6000fd5b505050506040513d601f19601f82011682018060405250810190610e909190612c9d565b15610eae57604051631e7b0a4160e21b815260040160405180910390fd5b6000816001600160a01b031663d63a68ec6040518163ffffffff1660e01b8152600401602060405180830381865afa158015610eee573d6000803e3d6000fd5b505050506040513d601f19601f82011682018060405250810190610f129190612d3d565b9050600080610f1f6107f4565b6001600160a01b031663f5f026a36040518163ffffffff1660e01b8152600401602060405180830381865afa158015610f5c573d6000803e3d6000fd5b505050506040513d601f19601f82011682018060405250810190610f809190612c6b565b604051630915dd5d60e01b815267ffffffffffffffff881660048201526001600160a01b039190911690630915dd5d906024016040805180830381865afa158015610fcf573d6000803e3d6000fd5b505050506040513d601f19601f82011682018060405250810190610ff39190612d95565b6040805180820182526005815264424153494360d81b6020909101525163d6ea8dc360e01b81526004810186905267ffffffffffffffff808a166024830152831660448201527fdc0ae866100b2876ab26eb62a50ca2cd083944f439e6d78aab2fc402e669e9ee60648201529193509150600090309063d6ea8dc3906084016020604051808303816000875af1158015611091573d6000803e3d6000fd5b505050506040513d601f19601f820116820180604052508101906110b59190612c6b565b90506110c386826000612581565b604080516001600160a01b038316815267ffffffffffffffff891660208201527f44cb97c4dc5db5966a23b37c4ed419b794425ecfc2b8c32576a0291071c598e5910160405180910390a150505050505050565b61111f612364565b8060046000828254610c119190612dca565b600061113b612364565b60006111456107f4565b6001600160a01b031663f5f026a36040518163ffffffff1660e01b8152600401602060405180830381865afa158015611182573d6000803e3d6000fd5b505050506040513d601f19601f820116820180604052508101906111a69190612c6b565b905060006111b26107f4565b6001600160a01b031663a8d66c756040518163ffffffff1660e01b8152600401602060405180830381865afa1580156111ef573d6000803e3d6000fd5b505050506040513d601f19601f820116820180604052508101906112139190612c6b565b60405163c4c31e8560e01b815267ffffffffffffffff881660048201529091506000906001600160a01b0383169063c4c31e8590602401602060405180830381865afa158015611267573d6000803e3d6000fd5b505050506040513d601f19601f8201168201806040525081019061128b9190612c6b565b6001600160a01b0316146112b25760405163045342fb60e41b815260040160405180910390fd5b6112bf8282886002612774565b156112dd57604051636d558f3560e01b815260040160405180910390fd5b604051631d7cc7d960e31b8152600481018590526000906001600160a01b0383169063ebe63ec890602401602060405180830381865afa158015611325573d6000803e3d6000fd5b505050506040513d601f19601f820116820180604052508101906113499190612c6b565b6001600160a01b03161461136f5760405162af8e8960e31b815260040160405180910390fd5b6113776107f4565b6001600160a01b031663704f63a16040518163ffffffff1660e01b8152600401602060405180830381865afa1580156113b4573d6000803e3d6000fd5b505050506040513d601f19601f820116820180604052508101906113d89190612d3d565b7f6c85b93e587873fbe6712f3b438d42c2945689b262f7bd34b8ea4e3f832a89e75414611418576040516364ac20a960e11b815260040160405180910390fd5b604051631373443d60e31b815267ffffffffffffffff861660048201526028906001600160a01b03831690639b9a21e890602401602060405180830381865afa158015611469573d6000803e3d6000fd5b505050506040513d601f19601f8201168201806040525081019061148d9190612d3d565b036114ab576040516307e7dd6760e21b815260040160405180910390fd5b6114b882828860036127b9565b6114d5576040516309f10f5960e41b815260040160405180910390fd5b6040805180820182526005815264424153494360d81b6020909101525163d6ea8dc360e01b81526004810185905267ffffffffffffffff8088166024830152861660448201527fdc0ae866100b2876ab26eb62a50ca2cd083944f439e6d78aab2fc402e669e9ee6064820152600090309063d6ea8dc3906084016020604051808303816000875af115801561156e573d6000803e3d6000fd5b505050506040513d601f19601f820116820180604052508101906115929190612c6b565b90506115a082826001612581565b9695505050505050565b60006115b4612364565b67ffffffffffffffff83166000908152600160205260408120546001600160a01b0316906115e061185d565b6001600160a01b031663c19755fd6115f66107f4565b7f6c85b93e587873fbe6712f3b438d42c2945689b262f7bd34b8ea4e3f832a89e754604080518082018252600a81527f736574746c656d656e740000000000000000000000000000000000000000000060209182015281519081018d90526001600160a01b0388169181019190915267ffffffffffffffff8b1660608201527f6522b1ac0c0c078f1fcc696b9cf72c59bb3624b7d2a9d82059b2f3832fd9973d9089906080016040516020818303038152906040526040518663ffffffff1660e01b81526004016116cb959493929190612cfe565b6020604051808303816000875af11580156116ea573d6000803e3d6000fd5b505050506040513d601f19601f8201168201806040525081019061170e9190612c6b565b9050600061171a6107f4565b6001600160a01b031663a8d66c756040518163ffffffff1660e01b8152600401602060405180830381865afa158015611757573d6000803e3d6000fd5b505050506040513d601f19601f8201168201806040525081019061177b9190612c6b565b9050611787818361291d565b600a5460405163e06ca91760e01b815267ffffffffffffffff891660048201526001600160a01b039091169063e06ca91790602401600060405180830381600087803b1580156117d657600080fd5b505af11580156117ea573d6000803e3d6000fd5b5050604080516001600160a01b038681168252602082018a905287168183015267ffffffffffffffff8b166060820152608081018c905290517ff8953a2f0dae968b2f4e3bcece7df1227a8b512f046aa66b1dbaadb0efbc994093509081900360a0019150a1509150505b949350505050565b6000611867610c4f565b6001600160a01b031663ece56a1a6040518163ffffffff1660e01b8152600401602060405180830381865afa158015610473573d6000803e3d6000fd5b60408051600480825260a0820190925260609160009190816020015b604080516060808201835280825260208201526000918101919091528152602001906001900390816118c05750506040805160a081018252600e606082019081527f4d697468726165756d20466f6f64000000000000000000000000000000000000608083015281528151808301835260058152641b5193d3d160da1b602080830191909152808301919091528251808401845260048152631193d3d160e21b9101527f2f6f5a261d6f4514c3f09a834720fe583c82f2ee4758ce9a45fbd67428e9f93d9181019190915281519192509082906000906119a2576119a2612d56565b6020908102919091018101919091526040805160a081018252600e606082019081527f4d697468726165756d20576f6f64000000000000000000000000000000000000608083015281528151808301835260058152641b55d3d3d160da1b818501528184015281518083018352600481526315d3d3d160e21b9301929092527f5f3d3bfd5b61198148275c178146c21eec5c5ab7e81758f3c651754ae3f1ed4290820152815182906001908110611a5b57611a5b612d56565b6020908102919091018101919091526040805160a081018252600d606082019081527f4d697468726165756d204f726500000000000000000000000000000000000000608083015281528151808301835260048152636d4f524560e01b81850152818401528151808301835260038152624f524560e81b9301929092527f9db51ceeef36d28f4a713ba944bdadb00e988c5676c92710eaf0e194efb4cb5590820152815182906002908110611b1257611b12612d56565b6020908102919091018101919091526040805160a081018252600f606082019081527f4d697468726165756d20496e676f740000000000000000000000000000000000608083015281528151808301835260068152651b525391d3d560d21b8185015281840152815180830183526005815264125391d3d560da1b9301929092527ff4d3d98b93a17290e7883bbc86b83d603b27efc328d7873b3fc648501d83e57290820152815182906003908110611bcd57611bcd612d56565b6020908102919091010152919050565b6000611be761185d565b6001600160a01b031663c19755fd611bfd6107f4565b604080518082018252600881527f7265736f75726365000000000000000000000000000000000000000000000000602091820152815180830183526005815264424153494360d81b9082015287518882015189840151935189947fb61e407d61f27eefb9ebf3cf25f5c7560bafafe518410eb7c781777da1102bd3947fdc0ae866100b2876ab26eb62a50ca2cd083944f439e6d78aab2fc402e669e9ee94611caa94909390929101612ddd565b6040516020818303038152906040526040518663ffffffff1660e01b8152600401611cd9959493929190612cfe565b6020604051808303816000875af1158015611cf8573d6000803e3d6000fd5b505050506040513d601f19601f82011682018060405250810190611d1c9190612c6b565b90505b92915050565b6040805160038082526080820190925260609160009190816020015b60408051606080820183528082526020820152600091810191909152815260200190600190039081611d415750506040805160a0810182526011606082019081527f4d697468726165756d2057617272696f720000000000000000000000000000006080830152815281518083018352600881527f6d57415252494f52000000000000000000000000000000000000000000000000602080830191909152808301919091528251808401845260078152662ba0a92924a7a960c91b9101527f69c5317e5ce44f1a1fb56c6a5eff904214e6353da6310ab0a6b511eef9a7c391918101919091528151919250908290600090611e3e57611e3e612d56565b6020908102919091018101919091526040805160a0810182526010606082019081527f4d697468726165756d20417263686572000000000000000000000000000000006080830152815281518083018352600781526636a0a921a422a960c91b818501528184015281518083018352600681526520a921a422a960d11b9301929092527f42de5fbfc07577d3e9942df95dd4e61cabcab8907d5d333240140b2999379e4090820152815182906001908110611efb57611efb612d56565b6020908102919091018101919091526040805160a0810182526012606082019081527f4d697468726165756d20486f7273656d616e00000000000000000000000000006080830152815281518083018352600981527f6d484f5253454d414e0000000000000000000000000000000000000000000000818501528184015281518083018352600881527f484f5253454d414e0000000000000000000000000000000000000000000000009301929092527f89d5ee6f4fcb32fb3c151bc25e6bc320fec82ba89cb3b29d1969d907e0e6793990820152815182906002908110611bcd57611bcd612d56565b6000611fef61185d565b6001600160a01b031663c19755fd6120056107f4565b604080518082018252600580825264756e69747360d81b6020928301528251808401845290815264424153494360d81b9082015287518882015189840151935189947f6ee7504b8b6b1f686066063d6ddcc2e2631964acb479aaf6090f46afb98a581d947fdc0ae866100b2876ab26eb62a50ca2cd083944f439e6d78aab2fc402e669e9ee94611caa94909390929101612ddd565b60006120a461185d565b6001600160a01b031663c19755fd6120ba6107f4565b6040805180820182526007815266776f726b65727360c81b602091820152815180830183526005815264424153494360d81b90820152815160008152908101918290526001600160e01b031960e085901b16909152612163919086907f091da8adcebb1cfee436688986f1a45b70fee77307dce9107a667995c2bfe23b907fdc0ae866100b2876ab26eb62a50ca2cd083944f439e6d78aab2fc402e669e9ee9060248101612cfe565b6020604051808303816000875af1158015612182573d6000803e3d6000fd5b505050506040513d601f19601f82011682018060405250810190611d1f9190612c6b565b60006121b061185d565b6001600160a01b031663c19755fd6121c66107f4565b604080518082018252600a81527f70726f7370657269747900000000000000000000000000000000000000000000602091820152815180830183526005815264424153494360d81b90820152815160008152908101918290526001600160e01b031960e085901b16909152612163919086907f439eae5fe478429877da2477496a018c34aba9e736ace861a831c827eb739eb6907fdc0ae866100b2876ab26eb62a50ca2cd083944f439e6d78aab2fc402e669e9ee9060248101612cfe565b600061228f61185d565b6001600160a01b031663c19755fd6122a56107f4565b604080518082018252601381527f74696c65436170747572696e6753797374656d00000000000000000000000000602091820152815180830183526005815264424153494360d81b90820152815160008152908101918290526001600160e01b031960e085901b16909152612163919086907f2d3acee8aac5846cb4dc645ddf7d7a4910a84a276e67b6e320c4180488acad41907fdc0ae866100b2876ab26eb62a50ca2cd083944f439e6d78aab2fc402e669e9ee9060248101612cfe565b61236c6107f4565b6001600160a01b0316336001600160a01b031614158015612430575060006123926107f4565b6001600160a01b031663ebbe80346123c87f6c85b93e587873fbe6712f3b438d42c2945689b262f7bd34b8ea4e3f832a89e75490565b6040516001600160e01b031960e084901b1681526004810191909152336024820152604401602060405180830381865afa15801561240a573d6000803e3d6000fd5b505050506040513d601f19601f8201168201806040525081019061242e9190612d3d565b145b1561244e5760405163422656d160e01b815260040160405180910390fd5b565b600061245a6107f4565b6001600160a01b0316633c8ca83d6040518163ffffffff1660e01b8152600401602060405180830381865afa158015612497573d6000803e3d6000fd5b505050506040513d601f19601f820116820180604052508101906124bb9190612d3d565b905060006124c76107f4565b6001600160a01b03166344d9bc5f6040518163ffffffff1660e01b8152600401602060405180830381865afa158015612504573d6000803e3d6000fd5b505050506040513d601f19601f820116820180604052508101906125289190612d3d565b905081158061253657508142105b156125545760405163a00eda6960e01b815260040160405180910390fd5b80158015906125635750804210155b15610bf35760405163a00eda6960e01b815260040160405180910390fd5b60008290506000816001600160a01b031663d63a68ec6040518163ffffffff1660e01b8152600401602060405180830381865afa1580156125c6573d6000803e3d6000fd5b505050506040513d601f19601f820116820180604052508101906125ea9190612d3d565b90506000826001600160a01b031663e6c15c996040518163ffffffff1660e01b8152600401602060405180830381865afa15801561262c573d6000803e3d6000fd5b505050506040513d601f19601f820116820180604052508101906126509190612c6b565b6001600160a01b031663b2fd89336040518163ffffffff1660e01b8152600401602060405180830381865afa15801561268d573d6000803e3d6000fd5b505050506040513d601f19601f820116820180604052508101906126b19190612e13565b6000838152600360205260409081902080546001600160a01b0319166001600160a01b0389811691821790925591517fff0336730000000000000000000000000000000000000000000000000000000081526004810186905267ffffffffffffffff84166024820152604481019290925286151560648301529192509087169063ff03367390608401600060405180830381600087803b15801561275457600080fd5b505af1158015612768573d6000803e3d6000fd5b50505050505050505050565b600060015b8281116127ad5761278c868686846127b9565b1561279b576001915050611855565b806127a581612e30565b915050612779565b50600095945050505050565b604051630585cac160e41b815267ffffffffffffffff8316600482015260248101829052600090819081906001600160a01b0388169063585cac1090604401600060405180830381865afa158015612815573d6000803e3d6000fd5b505050506040513d6000823e601f3d908101601f1916820160405261283d9190810190612e49565b9150915060005b8181101561290f5760006001600160a01b0316876001600160a01b031663c4c31e8585848151811061287857612878612d56565b60200260200101516040518263ffffffff1660e01b81526004016128ac919067ffffffffffffffff91909116815260200190565b602060405180830381865afa1580156128c9573d6000803e3d6000fd5b505050506040513d601f19601f820116820180604052508101906128ed9190612c6b565b6001600160a01b0316146129075760019350505050611855565b600101612844565b506000979650505050505050565b60008190506000816001600160a01b03166309218e916040518163ffffffff1660e01b8152600401602060405180830381865afa158015612962573d6000803e3d6000fd5b505050506040513d601f19601f820116820180604052508101906129869190612e13565b67ffffffffffffffff8116600090815260026020526040902080546001600160a01b0319166001600160a01b03851617905590506129c26107f4565b6001600160a01b031663a8d66c756040518163ffffffff1660e01b8152600401602060405180830381865afa1580156129ff573d6000803e3d6000fd5b505050506040513d601f19601f82011682018060405250810190612a239190612c6b565b60405163dc39f80960e01b815267ffffffffffffffff831660048201526001600160a01b038581166024830152919091169063dc39f80990604401600060405180830381600087803b158015612a7857600080fd5b505af1158015612a8c573d6000803e3d6000fd5b5050505050505050565b67ffffffffffffffff81168114612aac57600080fd5b50565b600060208284031215612ac157600080fd5b8135612acc81612a96565b9392505050565b634e487b7160e01b600052604160045260246000fd5b604051601f8201601f1916810167ffffffffffffffff81118282101715612b1257612b12612ad3565b604052919050565b600060208284031215612b2c57600080fd5b813567ffffffffffffffff811115612b4357600080fd5b8201601f81018413612b5457600080fd5b803567ffffffffffffffff811115612b6e57612b6e612ad3565b612b81601f8201601f1916602001612ae9565b818152856020838501011115612b9657600080fd5b81602084016020830137600091810160200191909152949350505050565b600060208284031215612bc657600080fd5b5035919050565b600080600060608486031215612be257600080fd5b8335612bed81612a96565b92506020840135612bfd81612a96565b929592945050506040919091013590565b60008060008060808587031215612c2457600080fd5b843593506020850135612c3681612a96565b92506040850135612c4681612a96565b9396929550929360600135925050565b6001600160a01b0381168114612aac57600080fd5b600060208284031215612c7d57600080fd5b8151612acc81612c56565b80518015158114612c9857600080fd5b919050565b600060208284031215612caf57600080fd5b611d1c82612c88565b6000815180845260005b81811015612cde57602081850181015186830182015201612cc2565b506000602082860101526020601f19601f83011685010191505092915050565b6001600160a01b038616815284602082015283604082015282606082015260a060808201526000612d3260a0830184612cb8565b979650505050505050565b600060208284031215612d4f57600080fd5b5051919050565b634e487b7160e01b600052603260045260246000fd5b634e487b7160e01b600052601160045260246000fd5b81810381811115611d1f57611d1f612d6c565b60008060408385031215612da857600080fd5b8251612db381612a96565b9150612dc160208401612c88565b90509250929050565b80820180821115611d1f57611d1f612d6c565b606081526000612df06060830186612cb8565b8281036020840152612e028186612cb8565b915050826040830152949350505050565b600060208284031215612e2557600080fd5b8151612acc81612a96565b600060018201612e4257612e42612d6c565b5060010190565b60008060408385031215612e5c57600080fd5b825167ffffffffffffffff811115612e7357600080fd5b8301601f81018513612e8457600080fd5b805167ffffffffffffffff811115612e9e57612e9e612ad3565b8060051b612eae60208201612ae9565b91825260208184018101929081019088841115612eca57600080fd5b6020850194505b83851015612ef85784519250612ee683612a96565b82825260209485019490910190612ed1565b60209790970151969896975050505050505056fea26469706673582212201b54ad68dc9fec0fb67dfc87a28eff99b8c32f5527ed828001581ef69015c32664736f6c634300081a0033",
  "linkReferences": {},
  "deployedLinkReferences": {}
}