{
  "_format": "hh-sol-artifact-1",
  "contractName": "Army",
  "sourceName": "contracts/core/assets/army/Army.sol",
  "abi": [
    {
      "inputs": [],
      "name": "ArmyCannotAccelerateManeuverFromCultistsSettlementWithNonZeroCultistsArmy",
      "type": "error"
    },
    {
      "inputs": [],
      "name": "ArmyCannotAttackAnotherArmyIfTheyAreNotOnSamePosition",
      "type": "error"
    },
    {
      "inputs": [],
      "name": "ArmyCannotAttackItself",
      "type": "error"
    },
    {
      "inputs": [],
      "name": "ArmyCannotAttackNotCurrentEraArmy",
      "type": "error"
    },
    {
      "inputs": [],
      "name": "ArmyCannotBesiegeOwnSettlement",
      "type": "error"
    },
    {
      "inputs": [],
      "name": "ArmyCannotJoinToBattleNotAtSamePosition",
      "type": "error"
    },
    {
      "inputs": [],
      "name": "ArmyCannotJoinToBattleNotInLobbyPhase",
      "type": "error"
    },
    {
      "inputs": [],
      "name": "ArmyCannotJoinToNotCurrentEraBattle",
      "type": "error"
    },
    {
      "inputs": [],
      "name": "ArmyCannotManeuverToPositionWithoutSettlement",
      "type": "error"
    },
    {
      "inputs": [],
      "name": "ArmyCannotManeuverToSamePosition",
      "type": "error"
    },
    {
      "inputs": [],
      "name": "ArmyCannotModifySiegeUnitsToLiquidatableState",
      "type": "error"
    },
    {
      "inputs": [],
      "name": "ArmyCannotUseMoreResourcesForAccelerationThanBuildingTreasuryHas",
      "type": "error"
    },
    {
      "inputs": [],
      "name": "ArmyIsInBattle",
      "type": "error"
    },
    {
      "inputs": [],
      "name": "ArmyIsInSiege",
      "type": "error"
    },
    {
      "inputs": [],
      "name": "ArmyIsManeuvering",
      "type": "error"
    },
    {
      "inputs": [],
      "name": "ArmyIsNotManeuveringSecretly",
      "type": "error"
    },
    {
      "inputs": [],
      "name": "ArmyIsStunned",
      "type": "error"
    },
    {
      "inputs": [],
      "name": "ArmyWithoutUnitsCannotAccelerate",
      "type": "error"
    },
    {
      "inputs": [],
      "name": "ArmyWithoutUnitsCannotBeginSecretManeuver",
      "type": "error"
    },
    {
      "inputs": [],
      "name": "ArmyWithoutUnitsCannotJoinBattle",
      "type": "error"
    },
    {
      "inputs": [],
      "name": "ArmyWithoutUnitsCannotManeuverToNotHomeSettlement",
      "type": "error"
    },
    {
      "inputs": [],
      "name": "NotEnoughUnitsForDemilitarization",
      "type": "error"
    },
    {
      "inputs": [],
      "name": "OnlyActiveGame",
      "type": "error"
    },
    {
      "inputs": [],
      "name": "OnlyMightyCreator",
      "type": "error"
    },
    {
      "inputs": [],
      "name": "OnlyRulerOrWorldAssetFromSameEra",
      "type": "error"
    },
    {
      "inputs": [],
      "name": "OnlyWorldAssetFromSameEra",
      "type": "error"
    },
    {
      "inputs": [],
      "name": "SecretManeuverRevealNotPossibleAtThisTime",
      "type": "error"
    },
    {
      "inputs": [],
      "name": "SecretManeuverRevealNotPossibleToNotSpecifiedRegion",
      "type": "error"
    },
    {
      "inputs": [],
      "name": "UnknownInputParameter",
      "type": "error"
    },
    {
      "inputs": [],
      "name": "WrongDemilitarizationInput",
      "type": "error"
    },
    {
      "inputs": [],
      "name": "WrongJoinSide",
      "type": "error"
    },
    {
      "inputs": [],
      "name": "WrongRobberyMultiplierSpecified",
      "type": "error"
    },
    {
      "inputs": [],
      "name": "WrongSecretManeuverRevealInfo",
      "type": "error"
    },
    {
      "anonymous": false,
      "inputs": [
        {
          "indexed": false,
          "internalType": "address",
          "name": "battleAddress",
          "type": "address"
        },
        {
          "indexed": false,
          "internalType": "address",
          "name": "targetArmyAddress",
          "type": "address"
        }
      ],
      "name": "BattleCreated",
      "type": "event"
    },
    {
      "anonymous": false,
      "inputs": [
        {
          "indexed": false,
          "internalType": "address",
          "name": "battleAddress",
          "type": "address"
        }
      ],
      "name": "ExitedFromBattle",
      "type": "event"
    },
    {
      "anonymous": false,
      "inputs": [
        {
          "indexed": false,
          "internalType": "uint8",
          "name": "version",
          "type": "uint8"
        }
      ],
      "name": "Initialized",
      "type": "event"
    },
    {
      "anonymous": false,
      "inputs": [
        {
          "indexed": false,
          "internalType": "address",
          "name": "battleAddress",
          "type": "address"
        },
        {
          "indexed": false,
          "internalType": "uint256",
          "name": "side",
          "type": "uint256"
        }
      ],
      "name": "JoinedBattle",
      "type": "event"
    },
    {
      "anonymous": false,
      "inputs": [
        {
          "indexed": false,
          "internalType": "uint64",
          "name": "position",
          "type": "uint64"
        },
        {
          "indexed": false,
          "internalType": "uint64",
          "name": "secretDestinationRegionId",
          "type": "uint64"
        },
        {
          "indexed": false,
          "internalType": "bytes32",
          "name": "secretDestinationPosition",
          "type": "bytes32"
        },
        {
          "indexed": false,
          "internalType": "uint256",
          "name": "beginTime",
          "type": "uint256"
        },
        {
          "indexed": false,
          "internalType": "uint256",
          "name": "endTime",
          "type": "uint256"
        },
        {
          "indexed": false,
          "internalType": "uint256",
          "name": "tokensToSpendOnAcceleration",
          "type": "uint256"
        }
      ],
      "name": "ManeuveringBegan",
      "type": "event"
    },
    {
      "anonymous": false,
      "inputs": [],
      "name": "SecretManeuverCancelled",
      "type": "event"
    },
    {
      "anonymous": false,
      "inputs": [
        {
          "indexed": false,
          "internalType": "uint64",
          "name": "stunBeginTime",
          "type": "uint64"
        },
        {
          "indexed": false,
          "internalType": "uint64",
          "name": "stunEndTime",
          "type": "uint64"
        }
      ],
      "name": "StunApplied",
      "type": "event"
    },
    {
      "anonymous": false,
      "inputs": [
        {
          "indexed": false,
          "internalType": "bytes32[]",
          "name": "unitTypeIds",
          "type": "bytes32[]"
        },
        {
          "indexed": false,
          "internalType": "uint256[]",
          "name": "unitsAmounts",
          "type": "uint256[]"
        }
      ],
      "name": "UnitsDemilitarized",
      "type": "event"
    },
    {
      "anonymous": false,
      "inputs": [
        {
          "indexed": false,
          "internalType": "address",
          "name": "settlementAddress",
          "type": "address"
        },
        {
          "indexed": false,
          "internalType": "uint64",
          "name": "position",
          "type": "uint64"
        }
      ],
      "name": "UpdatedPosition",
      "type": "event"
    },
    {
      "inputs": [
        {
          "internalType": "bytes32",
          "name": "",
          "type": "bytes32"
        }
      ],
      "name": "additionalUnitsBattleMultipliers",
      "outputs": [
        {
          "internalType": "uint256",
          "name": "",
          "type": "uint256"
        }
      ],
      "stateMutability": "view",
      "type": "function"
    },
    {
      "inputs": [
        {
          "internalType": "uint64",
          "name": "stunDuration",
          "type": "uint64"
        }
      ],
      "name": "applySelfStun",
      "outputs": [],
      "stateMutability": "nonpayable",
      "type": "function"
    },
    {
      "inputs": [],
      "name": "assetGroupId",
      "outputs": [
        {
          "internalType": "bytes32",
          "name": "",
          "type": "bytes32"
        }
      ],
      "stateMutability": "view",
      "type": "function"
    },
    {
      "inputs": [],
      "name": "assetTypeId",
      "outputs": [
        {
          "internalType": "bytes32",
          "name": "",
          "type": "bytes32"
        }
      ],
      "stateMutability": "view",
      "type": "function"
    },
    {
      "inputs": [],
      "name": "battle",
      "outputs": [
        {
          "internalType": "contract IBattle",
          "name": "",
          "type": "address"
        }
      ],
      "stateMutability": "view",
      "type": "function"
    },
    {
      "inputs": [
        {
          "internalType": "address",
          "name": "targetArmyAddress",
          "type": "address"
        },
        {
          "internalType": "bytes32[]",
          "name": "maxUnitTypeIdsToAttack",
          "type": "bytes32[]"
        },
        {
          "internalType": "uint256[]",
          "name": "maxUnitsToAttack",
          "type": "uint256[]"
        }
      ],
      "name": "beginBattle",
      "outputs": [],
      "stateMutability": "nonpayable",
      "type": "function"
    },
    {
      "inputs": [
        {
          "internalType": "uint64",
          "name": "position",
          "type": "uint64"
        },
        {
          "internalType": "uint256",
          "name": "foodToSpendOnAcceleration",
          "type": "uint256"
        }
      ],
      "name": "beginOpenManeuver",
      "outputs": [],
      "stateMutability": "nonpayable",
      "type": "function"
    },
    {
      "inputs": [
        {
          "internalType": "uint64",
          "name": "secretDestinationRegionId",
          "type": "uint64"
        },
        {
          "internalType": "bytes32",
          "name": "secretDestinationPosition",
          "type": "bytes32"
        }
      ],
      "name": "beginSecretManeuver",
      "outputs": [],
      "stateMutability": "nonpayable",
      "type": "function"
    },
    {
      "inputs": [
        {
          "internalType": "bytes32[]",
          "name": "unitTypeIds",
          "type": "bytes32[]"
        },
        {
          "internalType": "uint256[]",
          "name": "unitsAmounts",
          "type": "uint256[]"
        }
      ],
      "name": "burnUnits",
      "outputs": [],
      "stateMutability": "nonpayable",
      "type": "function"
    },
    {
      "inputs": [],
      "name": "cancelSecretManeuver",
      "outputs": [],
      "stateMutability": "nonpayable",
      "type": "function"
    },
    {
      "inputs": [],
      "name": "currentPosition",
      "outputs": [
        {
          "internalType": "uint64",
          "name": "",
          "type": "uint64"
        }
      ],
      "stateMutability": "view",
      "type": "function"
    },
    {
      "inputs": [
        {
          "internalType": "bytes32",
          "name": "unitTypeId",
          "type": "bytes32"
        },
        {
          "internalType": "uint256",
          "name": "unitBattleMultiplier",
          "type": "uint256"
        }
      ],
      "name": "decreaseUnitBattleMultiplier",
      "outputs": [],
      "stateMutability": "nonpayable",
      "type": "function"
    },
    {
      "inputs": [
        {
          "internalType": "bytes32[]",
          "name": "unitTypeIds",
          "type": "bytes32[]"
        },
        {
          "internalType": "uint256[]",
          "name": "unitsAmounts",
          "type": "uint256[]"
        }
      ],
      "name": "demilitarize",
      "outputs": [],
      "stateMutability": "nonpayable",
      "type": "function"
    },
    {
      "inputs": [],
      "name": "era",
      "outputs": [
        {
          "internalType": "contract IEra",
          "name": "",
          "type": "address"
        }
      ],
      "stateMutability": "view",
      "type": "function"
    },
    {
      "inputs": [],
      "name": "eraNumber",
      "outputs": [
        {
          "internalType": "uint256",
          "name": "",
          "type": "uint256"
        }
      ],
      "stateMutability": "view",
      "type": "function"
    },
    {
      "inputs": [],
      "name": "getCurrentPosition",
      "outputs": [
        {
          "internalType": "uint64",
          "name": "",
          "type": "uint64"
        }
      ],
      "stateMutability": "view",
      "type": "function"
    },
    {
      "inputs": [],
      "name": "getOwner",
      "outputs": [
        {
          "internalType": "address",
          "name": "",
          "type": "address"
        }
      ],
      "stateMutability": "view",
      "type": "function"
    },
    {
      "inputs": [],
      "name": "getTotalSiegeSupport",
      "outputs": [
        {
          "internalType": "uint256",
          "name": "",
          "type": "uint256"
        }
      ],
      "stateMutability": "view",
      "type": "function"
    },
    {
      "inputs": [
        {
          "internalType": "bytes32",
          "name": "unitTypeId",
          "type": "bytes32"
        },
        {
          "internalType": "uint256",
          "name": "unitBattleMultiplier",
          "type": "uint256"
        }
      ],
      "name": "increaseUnitBattleMultiplier",
      "outputs": [],
      "stateMutability": "nonpayable",
      "type": "function"
    },
    {
      "inputs": [
        {
          "internalType": "bytes",
          "name": "initParams",
          "type": "bytes"
        }
      ],
      "name": "init",
      "outputs": [],
      "stateMutability": "nonpayable",
      "type": "function"
    },
    {
      "inputs": [],
      "name": "isAtHomePosition",
      "outputs": [
        {
          "internalType": "bool",
          "name": "",
          "type": "bool"
        }
      ],
      "stateMutability": "view",
      "type": "function"
    },
    {
      "inputs": [],
      "name": "isManeuvering",
      "outputs": [
        {
          "internalType": "bool",
          "name": "",
          "type": "bool"
        }
      ],
      "stateMutability": "view",
      "type": "function"
    },
    {
      "inputs": [
        {
          "internalType": "address",
          "name": "battleAddress",
          "type": "address"
        },
        {
          "internalType": "uint256",
          "name": "side",
          "type": "uint256"
        }
      ],
      "name": "joinBattle",
      "outputs": [],
      "stateMutability": "nonpayable",
      "type": "function"
    },
    {
      "inputs": [
        {
          "internalType": "bytes32[]",
          "name": "unitTypeIds",
          "type": "bytes32[]"
        },
        {
          "internalType": "uint256[]",
          "name": "unitsAmounts",
          "type": "uint256[]"
        }
      ],
      "name": "liquidateUnits",
      "outputs": [],
      "stateMutability": "nonpayable",
      "type": "function"
    },
    {
      "inputs": [],
      "name": "maneuverInfo",
      "outputs": [
        {
          "internalType": "uint64",
          "name": "beginTime",
          "type": "uint64"
        },
        {
          "internalType": "uint64",
          "name": "endTime",
          "type": "uint64"
        },
        {
          "internalType": "uint64",
          "name": "destinationPosition",
          "type": "uint64"
        },
        {
          "internalType": "uint64",
          "name": "secretDestinationRegionId",
          "type": "uint64"
        },
        {
          "internalType": "bytes32",
          "name": "secretDestinationPosition",
          "type": "bytes32"
        }
      ],
      "stateMutability": "view",
      "type": "function"
    },
    {
      "inputs": [
        {
          "internalType": "bytes32[]",
          "name": "unitTypeIds",
          "type": "bytes32[]"
        },
        {
          "internalType": "bool[]",
          "name": "toAddIndication",
          "type": "bool[]"
        },
        {
          "internalType": "uint256[]",
          "name": "unitsAmounts",
          "type": "uint256[]"
        },
        {
          "internalType": "uint256",
          "name": "newRobberyMultiplier",
          "type": "uint256"
        }
      ],
      "name": "modifySiege",
      "outputs": [],
      "stateMutability": "nonpayable",
      "type": "function"
    },
    {
      "inputs": [],
      "name": "registry",
      "outputs": [
        {
          "internalType": "contract IRegistry",
          "name": "",
          "type": "address"
        }
      ],
      "stateMutability": "view",
      "type": "function"
    },
    {
      "inputs": [],
      "name": "relatedSettlement",
      "outputs": [
        {
          "internalType": "contract ISettlement",
          "name": "",
          "type": "address"
        }
      ],
      "stateMutability": "view",
      "type": "function"
    },
    {
      "inputs": [
        {
          "internalType": "uint64",
          "name": "destinationPosition",
          "type": "uint64"
        },
        {
          "internalType": "bytes32",
          "name": "revealKey",
          "type": "bytes32"
        },
        {
          "internalType": "uint256",
          "name": "woodToSpendOnAcceleration",
          "type": "uint256"
        }
      ],
      "name": "revealSecretManeuver",
      "outputs": [],
      "stateMutability": "nonpayable",
      "type": "function"
    },
    {
      "inputs": [],
      "name": "stunInfo",
      "outputs": [
        {
          "internalType": "uint64",
          "name": "beginTime",
          "type": "uint64"
        },
        {
          "internalType": "uint64",
          "name": "endTime",
          "type": "uint64"
        }
      ],
      "stateMutability": "view",
      "type": "function"
    },
    {
      "inputs": [
        {
          "internalType": "address",
          "name": "buildingAddress",
          "type": "address"
        },
        {
          "internalType": "uint256",
          "name": "pointsToSpend",
          "type": "uint256"
        }
      ],
      "name": "swapRobberyPointsForResourceFromBuildingTreasury",
      "outputs": [],
      "stateMutability": "nonpayable",
      "type": "function"
    },
    {
      "inputs": [],
      "name": "updateState",
      "outputs": [],
      "stateMutability": "nonpayable",
      "type": "function"
    },
    {
      "inputs": [],
      "name": "world",
      "outputs": [
        {
          "internalType": "contract IWorld",
          "name": "",
          "type": "address"
        }
      ],
      "stateMutability": "view",
      "type": "function"
    },
    {
      "inputs": [],
      "name": "worldAssetFactory",
      "outputs": [
        {
          "internalType": "contract IWorldAssetFactory",
          "name": "",
          "type": "address"
        }
      ],
      "stateMutability": "view",
      "type": "function"
    }
  ],
  "bytecode": "0x6080604052348015600f57600080fd5b50615fdd8061001f6000396000f3fe608060405234801561001057600080fd5b50600436106102265760003560e01c806384ba89e31161012a578063ab6a9acb116100bd578063c66353a01161008c578063d534d63611610071578063d534d63614610534578063d5bd7d571461054e578063ece56a1a1461056157600080fd5b8063c66353a014610519578063cbd603691461052157600080fd5b8063ab6a9acb146104dd578063b8c90347146104e5578063bc3b0c4b146104f8578063c45f10001461050057600080fd5b80638ff54e35116100f95780638ff54e351461048c5780639cba43f8146104a45780639f86bb66146104b7578063ab106026146104ca57600080fd5b806384ba89e31461040c578063893d20e81461043357806389609e9f1461043b5780638e55bdc01461044e57600080fd5b8063394eeca8116101bd578063574f41251161018c578063610bb6a011610171578063610bb6a01461036b5780637b103999146103dd5780637d884c74146103e557600080fd5b8063574f4125146103455780635fd5d3a71461035857600080fd5b8063394eeca8146102df578063418f35cc146102ff57806344e445451461031f5780634ddf47d41461033257600080fd5b80631d8557d7116101f95780631d8557d7146102a95780632242e614146102b15780632f04106c146102c457806330b67baa146102d757600080fd5b8063027304b31461022b5780630b4e99c314610240578063143e55e0146102765780631abcf47114610296575b600080fd5b61023e610239366004615630565b610569565b005b7f6c85b93e587873fbe6712f3b438d42c2945689b262f7bd34b8ea4e3f832a89ea545b6040519081526020015b60405180910390f35b61027e610974565b6040516001600160a01b03909116815260200161026d565b61023e6102a43660046156f1565b610a18565b61023e610b32565b61023e6102bf36600461571d565b6111ff565b61023e6102d236600461580b565b61122e565b61027e6113ff565b6102636102ed3660046158cb565b60056020526000908152604090205481565b610307611432565b6040516001600160401b03909116815260200161026d565b60015461027e906001600160a01b031681565b61023e6103403660046158e4565b61151a565b61023e61035336600461571d565b611715565b61023e610366366004615991565b61173b565b6002546003546103a2916001600160401b0380821692600160401b8304821692600160801b8104831692600160c01b909104169085565b604080516001600160401b0396871681529486166020860152928516928401929092529092166060820152608081019190915260a00161026d565b61027e611766565b7f6c85b93e587873fbe6712f3b438d42c2945689b262f7bd34b8ea4e3f832a89e754610263565b7f6c85b93e587873fbe6712f3b438d42c2945689b262f7bd34b8ea4e3f832a89e954610263565b61027e6117ad565b61023e61044936600461580b565b611801565b60045461046c906001600160401b0380821691600160401b90041682565b604080516001600160401b0393841681529290911660208301520161026d565b610494611b99565b604051901515815260200161026d565b61023e6104b23660046156f1565b611bd8565b61023e6104c536600461580b565b61202c565b61023e6104d83660046159b5565b6122c8565b610263612a6e565b61023e6104f33660046159ea565b612d57565b610494613155565b60005461027e906201000090046001600160a01b031681565b61023e61329b565b61023e61052f366004615a70565b6135bf565b60005461030790600160b01b90046001600160401b031681565b61023e61055c366004615a70565b61373e565b61027e613bfe565b610571613c45565b610579613d76565b610581610b32565b600454600160401b90046001600160401b0316156105b257604051631efa2fd160e31b815260040160405180910390fd5b6105ba611b99565b156105d85760405163db0a291b60e01b815260040160405180910390fd5b60006105e2613ecf565b6000549091506001600160a01b036201000090910481169082160361061a57604051632fd6e04f60e11b815260040160405180910390fd5b60008060005b8981101561068c57600087878381811061063c5761063c615a8e565b905060200201351115610684578261065357600192505b88888281811061066557610665615a8e565b905060200201602081019061067a9190615ab2565b1561068457600191505b600101610620565b508080156106a457506001546001600160a01b031615155b156106c25760405163671284a360e11b815260040160405180910390fd5b506000826001600160a01b0316632de7e9b06040518163ffffffff1660e01b8152600401602060405180830381865afa158015610703573d6000803e3d6000fd5b505050506040513d601f19601f820116820180604052508101906107279190615acf565b604051631f5919d560e11b81523060048201529091506000906001600160a01b03831690633eb233aa90602401606060405180830381865afa158015610771573d6000803e3d6000fd5b505050506040513d601f19601f820116820180604052508101906107959190615aec565b5050905060006107a3611766565b90506000846107c3576107be6729a2241af62c000084615b30565b6107cd565b6729a2241af62c00005b9050808711156107f05760405163063545e760e01b815260040160405180910390fd5b841580156107fe5750828711155b1561081c5760405163063545e760e01b815260040160405180910390fd5b836001600160a01b031663eacaef90308f8f8f8f8f8f8f6040518963ffffffff1660e01b8152600401610856989796959493929190615b8e565b600060405180830381600087803b15801561087057600080fd5b505af1158015610884573d6000803e3d6000fd5b5050505060008561089e576108998489615c18565b6108a0565b875b90506000670de0b6b3a76400006108ba8362015180615c2b565b6108c49190615c58565b90506108d1600582615c58565b90506108dd4282613f1b565b604051632e5d9f7f60e21b81523060048201526001600160a01b0387169063b9767dfc90602401602060405180830381865afa158015610921573d6000803e3d6000fd5b505050506040513d601f19601f820116820180604052508101906109459190615c6c565b156109635760405163c0df548d60e01b815260040160405180910390fd5b505050505050505050505050505050565b600061097e6113ff565b6001600160a01b031663720a70bd6109b47f6c85b93e587873fbe6712f3b438d42c2945689b262f7bd34b8ea4e3f832a89e75490565b6040518263ffffffff1660e01b81526004016109d291815260200190565b602060405180830381865afa1580156109ef573d6000803e3d6000fd5b505050506040513d601f19601f82011682018060405250810190610a139190615acf565b905090565b610a20613c45565b610a28613d76565b610a30610b32565b600454600160401b90046001600160401b031615610a6157604051631efa2fd160e31b815260040160405180910390fd5b610a69613ecf565b6001600160a01b0316632de7e9b06040518163ffffffff1660e01b8152600401602060405180830381865afa158015610aa6573d6000803e3d6000fd5b505050506040513d601f19601f82011682018060405250810190610aca9190615acf565b604051631abcf47160e01b81526001600160a01b038481166004830152602482018490529190911690631abcf47190604401600060405180830381600087803b158015610b1657600080fd5b505af1158015610b2a573d6000803e3d6000fd5b505050505050565b6000610b3c611766565b6001549091506001600160a01b031615610f4357600160009054906101000a90046001600160a01b03166001600160a01b0316631852b5af6040518163ffffffff1660e01b8152600401602060405180830381865afa158015610ba3573d6000803e3d6000fd5b505050506040513d601f19601f82011682018060405250810190610bc79190615c6c565b158015610c465750600160009054906101000a90046001600160a01b03166001600160a01b0316639d4095fe6040518163ffffffff1660e01b8152600401602060405180830381865afa158015610c22573d6000803e3d6000fd5b505050506040513d601f19601f82011682018060405250810190610c469190615c6c565b15610cb457600160009054906101000a90046001600160a01b03166001600160a01b031663d1c986186040518163ffffffff1660e01b8152600401600060405180830381600087803b158015610c9b57600080fd5b505af1158015610caf573d6000803e3d6000fd5b505050505b600160009054906101000a90046001600160a01b03166001600160a01b0316631852b5af6040518163ffffffff1660e01b8152600401602060405180830381865afa158015610d07573d6000803e3d6000fd5b505050506040513d601f19601f82011682018060405250810190610d2b9190615c6c565b15610f43576001546040516339a88e0160e11b81523060048201526001600160a01b0390911690600090819083906373511c0290602401600060405180830381865afa158015610d7f573d6000803e3d6000fd5b505050506040513d6000823e601f3d908101601f19168201604052610da79190810190615ce7565b909250905030632f04106c610dba613fcd565b836040518363ffffffff1660e01b8152600401610dd8929190615d2d565b600060405180830381600087803b158015610df257600080fd5b505af1158015610e06573d6000803e3d6000fd5b50506001805473ffffffffffffffffffffffffffffffffffffffff1916905550506040805163383f9ac360e01b8152905160009182916001600160a01b0387169163383f9ac39160048083019260609291908290030181865afa158015610e71573d6000803e3d6000fd5b505050506040513d601f19601f82011682018060405250810190610e959190615daf565b5090925090506000610ea78284615dfc565b9050600085610ebe5767093a8dfa07a28000610ec8565b6704a628b99fc180005b90506000670de0b6b3a7640000610ee8836001600160401b038716615c2b565b610ef29190615c58565b9050610efe8382613f1b565b6040516001600160a01b03891681527ffebc8def56488478b478cd17f7881ec8fd12fce9906b0c458a4612ab4e338f799060200160405180910390a150505050505050505b610f4b614078565b8015610f5a5750610f5a6140a9565b1561112557600254600090610f82906001600160401b0380821691600160401b900416615e1b565b6002549091506001600160401b03600160401b909104811690600090670de0b6b3a764000090610fbd90670853a0d2313c0000908616615c2b565b610fc79190615c58565b60028054600080547fffff0000000000000000ffffffffffffffffffffffffffffffffffffffffffff16600160801b9092046001600160401b0316600160b01b029190911781556040805160a08101825282815260208101839052908101829052606081018290526080018190529081905560035590506110488282613f1b565b7f8a04a40db03cccace603b464ca2260cf52fca39a4fb28f1da32a7b7e19212c5f611071610974565b60005460405163c4c31e8560e01b8152600160b01b9091046001600160401b031660048201526001600160a01b03919091169063c4c31e8590602401602060405180830381865afa1580156110ca573d6000803e3d6000fd5b505050506040513d601f19601f820116820180604052508101906110ee9190615acf565b600054604080516001600160a01b039093168352600160b01b9091046001600160401b031660208301520160405180910390a15050505b600454600160401b90046001600160401b0316156111fc5760006111476113ff565b6001600160a01b03166344d9bc5f6040518163ffffffff1660e01b8152600401602060405180830381865afa158015611184573d6000803e3d6000fd5b505050506040513d601f19601f820116820180604052508101906111a89190615e3a565b9050600081156111c1576111bc428361417d565b6111c3565b425b600454909150600160401b90046001600160401b031681106111f957600480546fffffffffffffffffffffffffffffffff191690555b50505b50565b611207614197565b60008281526005602052604081208054839290611225908490615c18565b90915550505050565b611236614197565b6000611240610974565b905060005b83518110156113f95782818151811061126057611260615a8e565b6020026020010151600003156113f1576000826001600160a01b031663feae7dc386848151811061129357611293615a8e565b60200260200101516040518263ffffffff1660e01b81526004016112b991815260200190565b602060405180830381865afa1580156112d6573d6000803e3d6000fd5b505050506040513d601f19601f820116820180604052508101906112fa9190615acf565b6040516370a0823160e01b81523060048201529091506000906001600160a01b038316906370a0823190602401602060405180830381865afa158015611344573d6000803e3d6000fd5b505050506040513d601f19601f820116820180604052508101906113689190615e3a565b9050600085848151811061137e5761137e615a8e565b60200260200101519050818111156113935750805b604051630852cd8d60e31b8152600481018290526001600160a01b038416906342966c6890602401600060405180830381600087803b1580156113d557600080fd5b505af11580156113e9573d6000803e3d6000fd5b505050505050505b600101611245565b50505050565b6000610a137f6c85b93e587873fbe6712f3b438d42c2945689b262f7bd34b8ea4e3f832a89e6546001600160a01b031690565b60008061143d6113ff565b6001600160a01b03166344d9bc5f6040518163ffffffff1660e01b8152600401602060405180830381865afa15801561147a573d6000803e3d6000fd5b505050506040513d601f19601f8201168201806040525081019061149e9190615e3a565b9050600081156114b7576114b2428361417d565b6114b9565b425b90506114c3614078565b80156114e15750600254600160401b90046001600160401b03168110155b15611500575050600254600160801b90046001600160401b0316919050565b5050600054600160b01b90046001600160401b0316919050565b600054610100900460ff161580801561153a5750600054600160ff909116105b806115545750303b158015611554575060005460ff166001145b6115ca5760405162461bcd60e51b815260206004820152602e60248201527f496e697469616c697a61626c653a20636f6e747261637420697320616c72656160448201527f647920696e697469616c697a6564000000000000000000000000000000000000606482015260840160405180910390fd5b6000805460ff1916600117905580156115ed576000805461ff0019166101001790555b6000828060200190518101906116039190615acf565b905080600060026101000a8154816001600160a01b0302191690836001600160a01b03160217905550600060029054906101000a90046001600160a01b03166001600160a01b03166309218e916040518163ffffffff1660e01b8152600401602060405180830381865afa15801561167f573d6000803e3d6000fd5b505050506040513d601f19601f820116820180604052508101906116a39190615e53565b600060166101000a8154816001600160401b0302191690836001600160401b03160217905550508015611711576000805461ff0019169055604051600181527f7f26b83ff96e1f2b6a682f133852f6798a09c465da95921460cefb3847402498906020015b60405180910390a15b5050565b61171d614197565b60008281526005602052604081208054839290611225908490615b30565b611743613c45565b61174b613d76565b611753610b32565b6111fc42826001600160401b0316613f1b565b60006117706113ff565b6001600160a01b0316637b1039996040518163ffffffff1660e01b8152600401602060405180830381865afa1580156109ef573d6000803e3d6000fd5b60008060029054906101000a90046001600160a01b03166001600160a01b031663b5acd4566040518163ffffffff1660e01b8152600401602060405180830381865afa1580156109ef573d6000803e3d6000fd5b611809614197565b604051630bc1041b60e21b81523090632f04106c9061182e9085908590600401615d2d565b600060405180830381600087803b15801561184857600080fd5b505af115801561185c573d6000803e3d6000fd5b50505050600061186a613ecf565b90506000816001600160a01b031663e6c15c996040518163ffffffff1660e01b8152600401602060405180830381865afa1580156118ac573d6000803e3d6000fd5b505050506040513d601f19601f820116820180604052508101906118d09190615acf565b6001600160a01b031663c20c92506040518163ffffffff1660e01b8152600401602060405180830381865afa15801561190d573d6000803e3d6000fd5b505050506040513d601f19601f820116820180604052508101906119319190615acf565b9050600061193d611766565b90506000611949610974565b9050836001600160a01b0316836001600160a01b031614610b2a5760008060005b8851811015611a455761199589828151811061198857611988615a8e565b6020026020010151614283565b670de0b6b3a76400008983815181106119b0576119b0615a8e565b60200260200101516119c29190615c58565b6119cc9190615c2b565b6119d69084615b30565b92506119fa8982815181106119ed576119ed615a8e565b6020026020010151614396565b670de0b6b3a7640000898381518110611a1557611a15615a8e565b6020026020010151611a279190615c58565b611a319190615c2b565b611a3b9083615b30565b915060010161196a565b508115611aa757604051631fd4ad2560e11b8152600481018390526001600160a01b03871690633fa95a4a90602401600060405180830381600087803b158015611a8e57600080fd5b505af1158015611aa2573d6000803e3d6000fd5b505050505b8015611b8f57826001600160a01b031663cabb62f06040518163ffffffff1660e01b8152600401602060405180830381865afa158015611aeb573d6000803e3d6000fd5b505050506040513d601f19601f82011682018060405250810190611b0f9190615acf565b6001600160a01b03166340c10f1987611b3084670de0b6b3a7640000614489565b6040516001600160e01b031960e085901b1681526001600160a01b0390921660048301526024820152604401600060405180830381600087803b158015611b7657600080fd5b505af1158015611b8a573d6000803e3d6000fd5b505050505b5050505050505050565b6000611ba3614078565b8015611bb45750611bb26140a9565b155b15611bbf5750600190565b611bc76144a0565b15611bd25750600190565b50600090565b611be0613c45565b611be8613d76565b611bf0610b32565b604080518082019091526006815265626174746c6560d01b6020909101527f1d3e47c3991e843d528c0f9f043ad863de6aeee16578e4fc478e274804caf7e2611c376113ff565b6001600160a01b031663ebbe8034611c6d7f6c85b93e587873fbe6712f3b438d42c2945689b262f7bd34b8ea4e3f832a89e75490565b6040516001600160e01b031960e084901b16815260048101919091526001600160a01b0386166024820152604401602060405180830381865afa158015611cb8573d6000803e3d6000fd5b505050506040513d601f19601f82011682018060405250810190611cdc9190615e3a565b14611cfa576040516334fd54d360e11b815260040160405180910390fd5b336001600160a01b03831614611d6157611d12611b99565b15611d305760405163db0a291b60e01b815260040160405180910390fd5b600454600160401b90046001600160401b031615611d6157604051631efa2fd160e31b815260040160405180910390fd5b6001546001600160a01b031615611d8b5760405163671284a360e11b815260040160405180910390fd5b611d94306144c1565b600003611db457604051633f2820c560e11b815260040160405180910390fd5b80600114158015611dc6575080600214155b15611de457604051630c6a1c1960e01b815260040160405180910390fd5b6000829050806001600160a01b031663758461356040518163ffffffff1660e01b8152600401602060405180830381865afa158015611e27573d6000803e3d6000fd5b505050506040513d601f19601f82011682018060405250810190611e4b9190615c6c565b611e685760405163154ca56d60e31b815260040160405180910390fd5b600060169054906101000a90046001600160401b03166001600160401b0316816001600160a01b03166309218e916040518163ffffffff1660e01b8152600401602060405180830381865afa158015611ec5573d6000803e3d6000fd5b505050506040513d601f19601f82011682018060405250810190611ee99190615e53565b6001600160401b031614611f1057604051637bc2a38d60e11b815260040160405180910390fd5b6001805473ffffffffffffffffffffffffffffffffffffffff19166001600160a01b03831617815582146000611f4683856145f8565b6040516308f5803f60e41b815230600482015260248101869052901591506001600160a01b03841690638f5803f090604401600060405180830381600087803b158015611f9257600080fd5b505af1158015611fa6573d6000803e3d6000fd5b505050506000611fb4611766565b9050828015611fc1575081155b15611fe25761a8c0611fd4600582615c58565b9050611fe04282613f1b565b505b604080516001600160a01b0388168152602081018790527f47fe3458f42ceb5e6af6aa6b78401c3bf85a6d44e984b1a84ebf6546f6d8b761910160405180910390a1505050505050565b612034613c45565b61203c613d76565b612044610b32565b600454600160401b90046001600160401b03161561207557604051631efa2fd160e31b815260040160405180910390fd5b6001546001600160a01b03161561209f5760405163671284a360e11b815260040160405180910390fd5b60006120a9610974565b905060005b83518110156122325760008382815181106120cb576120cb615a8e565b6020026020010151905080600014806120f357506120f181670de0b6b3a76400006146cf565b155b15612111576040516378b4befb60e01b815260040160405180910390fd5b6000836001600160a01b031663feae7dc387858151811061213457612134615a8e565b60200260200101516040518263ffffffff1660e01b815260040161215a91815260200190565b602060405180830381865afa158015612177573d6000803e3d6000fd5b505050506040513d601f19601f8201168201806040525081019061219b9190615acf565b6040516370a0823160e01b81523060048201526001600160a01b0391909116906370a0823190602401602060405180830381865afa1580156121e1573d6000803e3d6000fd5b505050506040513d601f19601f820116820180604052508101906122059190615e3a565b9050818110156122285760405163182d830b60e31b815260040160405180910390fd5b50506001016120ae565b506040516389609e9f60e01b815230906389609e9f906122589086908690600401615d2d565b600060405180830381600087803b15801561227257600080fd5b505af1158015612286573d6000803e3d6000fd5b505050507f2a64db6599c5382d2381d60bad93c206dab9f324daa5fda790e6b0ed1d9b13ab83836040516122bb929190615d2d565b60405180910390a1505050565b6122d0613c45565b6122d8610b32565b6122e06144a0565b6122fd576040516365266ce960e01b815260040160405180910390fd5b6003546040517fffffffffffffffff00000000000000000000000000000000000000000000000060c086901b16602082015260288101849052604801604051602081830303815290604052805190602001201461236d57604051637802828360e11b815260040160405180910390fd5b60006123776113ff565b6001600160a01b031663f5f026a36040518163ffffffff1660e01b8152600401602060405180830381865afa1580156123b4573d6000803e3d6000fd5b505050506040513d601f19601f820116820180604052508101906123d89190615acf565b6000546040516340adb9d560e01b81526001600160401b03600160b01b9092048216600482015290861660248201526001600160a01b0391909116906340adb9d590604401602060405180830381865afa15801561243a573d6000803e3d6000fd5b505050506040513d601f19601f8201168201806040525081019061245e9190615e53565b9050600061246b826146e3565b6002549091506000906124889083906001600160401b0316615b30565b9050831561256657600454600160401b90046001600160401b0316156124c157604051631efa2fd160e31b815260040160405180910390fd5b6001546001600160a01b0316156124eb5760405163671284a360e11b815260040160405180910390fd5b60006124f684614706565b6002549091506000906125139083906001600160401b0316615b30565b6002549091506000906125309086906001600160401b0316615b30565b9050814210806125405750804210155b1561255e5760405163409313a960e01b815260040160405180910390fd5b5050506126ad565b6001546001600160a01b03161561267157600080600160009054906101000a90046001600160a01b03166001600160a01b031663383f9ac36040518163ffffffff1660e01b8152600401606060405180830381865afa1580156125cd573d6000803e3d6000fd5b505050506040513d601f19601f820116820180604052508101906125f19190615daf565b50909250905060006126038284615dfc565b6001600160401b0316905083811061262e5760405163409313a960e01b815260040160405180910390fd5b6002546001600160401b031684428211806126495750804210155b156126675760405163409313a960e01b815260040160405180910390fd5b50505050506126ad565b6002546001600160401b0316814282118061268c5750804210155b156126aa5760405163409313a960e01b815260040160405180910390fd5b50505b60006126b7610974565b60405163c4c31e8560e01b81526001600160401b03891660048201526001600160a01b03919091169063c4c31e8590602401602060405180830381865afa158015612706573d6000803e3d6000fd5b505050506040513d601f19601f8201168201806040525081019061272a9190615acf565b90506001600160a01b03811661275357604051636bc6705b60e11b815260040160405180910390fd5b6000546001600160401b03600160b01b90910481169088160361278957604051632ea8b7d360e21b815260040160405180910390fd5b6000816001600160a01b031663e6c15c996040518163ffffffff1660e01b8152600401602060405180830381865afa1580156127c9573d6000803e3d6000fd5b505050506040513d601f19601f820116820180604052508101906127ed9190615acf565b6001600160a01b031663b2fd89336040518163ffffffff1660e01b8152600401602060405180830381865afa15801561282a573d6000803e3d6000fd5b505050506040513d601f19601f8201168201806040525081019061284e9190615e53565b6002549091506001600160401b03808316600160c01b909204161461288657604051635a11cf6760e11b815260040160405180910390fd5b83861561290f5760006128994286615c18565b60408051808201909152600a81527f4c554d4245524d494c4c00000000000000000000000000000000000000000000602090910152905060006128fe82898b7f6efa3da32b5b0a21cf9c6f5bc9edeb1d9e3a4b88cc5eb7b649f1e5029410165961474c565b905061290a8184615c18565b925050505b6002546129269082906001600160401b0316615dfc565b600260000160086101000a8154816001600160401b0302191690836001600160401b031602179055507fdfeba1af9e54b35500726a561ed7ed92532779f5db4dc8b7ba5df57602e416c789600260000160189054906101000a90046001600160401b0316600260010154600260000160009054906101000a90046001600160401b0316600260000160089054906101000a90046001600160401b03168c604051612a0b969594939291906001600160401b039687168152948616602086015260408501939093529084166060840152909216608082015260a081019190915260c00190565b60405180910390a15050600280546fffffffffffffffffffffffffffffffff16600160801b6001600160401b03999099169890980277ffffffffffffffffffffffffffffffffffffffffffffffff16979097179096555050600060035550505050565b600080612a79611766565b90506000612a85610974565b90506000612a91613fcd565b9050600081516001600160401b03811115612aae57612aae61573f565b604051908082528060200260200182016040528015612ad7578160200160208202803683370190505b506001549091506001600160a01b031615801590612b675750600160009054906101000a90046001600160a01b03166001600160a01b0316639d4095fe6040518163ffffffff1660e01b8152600401602060405180830381865afa158015612b43573d6000803e3d6000fd5b505050506040513d601f19601f82011682018060405250810190612b679190615c6c565b15612be0576001546040516339a88e0160e11b81523060048201526001600160a01b03909116906373511c0290602401600060405180830381865afa158015612bb4573d6000803e3d6000fd5b505050506040513d6000823e601f3d908101601f19168201604052612bdc9190810190615ce7565b9150505b6000805b8351811015612d4d576000848281518110612c0157612c01615a8e565b602002602001015190506000612c1682614c03565b9050670de0b6b3a76400008160a00151868581518110612c3857612c38615a8e565b6020026020010151896001600160a01b031663feae7dc3866040518263ffffffff1660e01b8152600401612c6e91815260200190565b602060405180830381865afa158015612c8b573d6000803e3d6000fd5b505050506040513d601f19601f82011682018060405250810190612caf9190615acf565b6040516370a0823160e01b81523060048201526001600160a01b0391909116906370a0823190602401602060405180830381865afa158015612cf5573d6000803e3d6000fd5b505050506040513d601f19601f82011682018060405250810190612d199190615e3a565b612d239190615c18565b612d2d9190615c2b565b612d379190615c58565b612d419085615b30565b93505050600101612be4565b5095945050505050565b612d5f613c45565b612d67613d76565b612d6f610b32565b6000859050806001600160a01b0316631d8557d76040518163ffffffff1660e01b8152600401600060405180830381600087803b158015612daf57600080fd5b505af1158015612dc3573d6000803e3d6000fd5b505050506000816001600160a01b031663418f35cc6040518163ffffffff1660e01b8152600401602060405180830381865afa158015612e07573d6000803e3d6000fd5b505050506040513d601f19601f82011682018060405250810190612e2b9190615e53565b60408051808201909152600481526361726d7960e01b60209091015290507f1dfa95949f0b18e5ee916f85d0296148ce2f94b82b74404d6a5d6e64ed9b8c5f612e726113ff565b6001600160a01b031663ebbe8034612ea87f6c85b93e587873fbe6712f3b438d42c2945689b262f7bd34b8ea4e3f832a89e75490565b6040516001600160e01b031960e084901b16815260048101919091526001600160a01b038b166024820152604401602060405180830381865afa158015612ef3573d6000803e3d6000fd5b505050506040513d601f19601f82011682018060405250810190612f179190615e3a565b14612f3557604051631ca23ba960e01b815260040160405180910390fd5b6001600160a01b0387163003612f5e5760405163dbfa9fe360e01b815260040160405180910390fd5b600454600160401b90046001600160401b031615612f8f57604051631efa2fd160e31b815260040160405180910390fd5b612f97611b99565b15612fb55760405163db0a291b60e01b815260040160405180910390fd5b6000546001600160401b03828116600160b01b9092041614612fea576040516313b6cc3f60e11b815260040160405180910390fd5b6000612ff4613bfe565b6001600160a01b031663c19755fd61300a6113ff565b7f6c85b93e587873fbe6712f3b438d42c2945689b262f7bd34b8ea4e3f832a89e75460405180604001604052806006815260200165626174746c6560d01b8152508051906020012060405180604001604052806005815260200164424153494360d81b81525080519060200120308e8e8e8e8e60405160200161309296959493929190615e70565b6040516020818303038152906040526040518663ffffffff1660e01b81526004016130c1959493929190615ec2565b6020604051808303816000875af11580156130e0573d6000803e3d6000fd5b505050506040513d601f19601f820116820180604052508101906131049190615acf565b604080516001600160a01b0380841682528b1660208201529192507f1ef6891675997a15544cae2164f91b54f110dde48492f8023f7d73eb16f6315391015b60405180910390a15050505050505050565b600061315f614078565b801561316e575061316e6140a9565b1561320757600060029054906101000a90046001600160a01b03166001600160a01b03166309218e916040518163ffffffff1660e01b8152600401602060405180830381865afa1580156131c6573d6000803e3d6000fd5b505050506040513d601f19601f820116820180604052508101906131ea9190615e53565b600254600160801b90046001600160401b03908116911614919050565b600060029054906101000a90046001600160a01b03166001600160a01b03166309218e916040518163ffffffff1660e01b8152600401602060405180830381865afa15801561325a573d6000803e3d6000fd5b505050506040513d601f19601f8201168201806040525081019061327e9190615e53565b600054600160b01b90046001600160401b03908116911614919050565b6132a3613c45565b6132ab613d76565b6132b3610b32565b6132bb6144a0565b6132d8576040516365266ce960e01b815260040160405180910390fd5b600454600160401b90046001600160401b03161561330957604051631efa2fd160e31b815260040160405180910390fd5b6001546001600160a01b0316156133335760405163671284a360e11b815260040160405180910390fd5b600061333d611766565b90506000613349610974565b6002549091506706f05b59d3b2000090600090670de0b6b3a764000090839061337b906001600160401b031642615c18565b6133859190615c2b565b61338f9190615c58565b905061339b4282613f1b565b6002805477ffffffffffffffffffffffffffffffff0000000000000000169055600060038190556133ca613fcd565b9050600081516001600160401b038111156133e7576133e761573f565b604051908082528060200260200182016040528015613410578160200160208202803683370190505b50905060005b825181101561353657856001600160a01b031663feae7dc384838151811061344057613440615a8e565b60200260200101516040518263ffffffff1660e01b815260040161346691815260200190565b602060405180830381865afa158015613483573d6000803e3d6000fd5b505050506040513d601f19601f820116820180604052508101906134a79190615acf565b6040516370a0823160e01b81523060048201526001600160a01b0391909116906370a0823190602401602060405180830381865afa1580156134ed573d6000803e3d6000fd5b505050506040513d601f19601f820116820180604052508101906135119190615e3a565b82828151811061352357613523615a8e565b6020908102919091010152600101613416565b506040516389609e9f60e01b815230906389609e9f9061355c9085908590600401615d2d565b600060405180830381600087803b15801561357657600080fd5b505af115801561358a573d6000803e3d6000fd5b50506040517f17f43c516bdaa870a5b1a2c84f0b47934166331cbe8b8cbbc4217cb5dcaefe2b925060009150a1505050505050565b6135c7613c45565b6135cf613d76565b6135d7610b32565b600454600160401b90046001600160401b03161561360857604051631efa2fd160e31b815260040160405180910390fd5b613610611b99565b1561362e5760405163db0a291b60e01b815260040160405180910390fd5b6001546001600160a01b0316156136585760405163671284a360e11b815260040160405180910390fd5b613660614dda565b1561367e57604051637d39eee560e11b815260040160405180910390fd5b613687306144c1565b6000036136a75760405163340ead6160e01b815260040160405180910390fd5b600280546001600160401b03848116600160c01b810277ffffffffffffffffffffffffffffffff000000000000000090931642831617929092179283905560038490556040805160008082526020820194909452908101859052921660608301526080820181905260a08201527fdfeba1af9e54b35500726a561ed7ed92532779f5db4dc8b7ba5df57602e416c79060c001611708565b613746613c45565b61374e613d76565b613756610b32565b600454600160401b90046001600160401b03161561378757604051631efa2fd160e31b815260040160405180910390fd5b61378f611b99565b156137ad5760405163db0a291b60e01b815260040160405180910390fd5b6001546001600160a01b0316156137d75760405163671284a360e11b815260040160405180910390fd5b6137df614dda565b156137fd57604051637d39eee560e11b815260040160405180910390fd5b6000546001600160401b03808416600160b01b909204160361383257604051632ea8b7d360e21b815260040160405180910390fd5b600061383c610974565b60405163c4c31e8560e01b81526001600160401b03851660048201526001600160a01b03919091169063c4c31e8590602401602060405180830381865afa15801561388b573d6000803e3d6000fd5b505050506040513d601f19601f820116820180604052508101906138af9190615acf565b90506001600160a01b0381161515806138db57604051636bc6705b60e11b815260040160405180910390fd5b60006138e6306144c1565b1590508015613945576000546001600160a01b03848116620100009092041614806139245760405163038eb4e560e51b815260040160405180910390fd5b84156139435760405163a59c22a960e01b815260040160405180910390fd5b505b600061394f6113ff565b6001600160a01b031663f5f026a36040518163ffffffff1660e01b8152600401602060405180830381865afa15801561398c573d6000803e3d6000fd5b505050506040513d601f19601f820116820180604052508101906139b09190615acf565b6000546040516340adb9d560e01b81526001600160401b03600160b01b9092048216600482015290881660248201526001600160a01b0391909116906340adb9d590604401602060405180830381865afa158015613a12573d6000803e3d6000fd5b505050506040513d601f19601f82011682018060405250810190613a369190615e53565b90506000613a43826146e3565b9050808615613ac3576000613a5784614706565b90506000613a658285615c18565b6040805180820190915260048152634641524d60e01b60209091015290506000613ab182878c7f15e7d524175663fc8929751799c4e1a8d04fec20bebd7ac2f10532927c1b5c0d61474c565b9050613abd8185615c18565b93505050505b6040518060a00160405280426001600160401b031681526020018242613ae99190615b30565b6001600160401b0390811682528a81166020808401829052600060408086018290526060958601829052865160028054898601518a8501518b8b0151948a166fffffffffffffffffffffffffffffffff1990931692909217600160401b918a168202176fffffffffffffffffffffffffffffffff16600160801b928a169290920277ffffffffffffffffffffffffffffffffffffffffffffffff1691909117600160c01b9389169390930292909217908190556080988901516003558251958652938501839052908401919091528184169483019490945292909204169181019190915260a081018890527fdfeba1af9e54b35500726a561ed7ed92532779f5db4dc8b7ba5df57602e416c79060c001613143565b6000613c08611766565b6001600160a01b031663ece56a1a6040518163ffffffff1660e01b8152600401602060405180830381865afa1580156109ef573d6000803e3d6000fd5b6000613c4f6113ff565b6001600160a01b0316633c8ca83d6040518163ffffffff1660e01b8152600401602060405180830381865afa158015613c8c573d6000803e3d6000fd5b505050506040513d601f19601f82011682018060405250810190613cb09190615e3a565b90506000613cbc6113ff565b6001600160a01b03166344d9bc5f6040518163ffffffff1660e01b8152600401602060405180830381865afa158015613cf9573d6000803e3d6000fd5b505050506040513d601f19601f82011682018060405250810190613d1d9190615e3a565b9050811580613d2b57508142105b15613d495760405163a00eda6960e01b815260040160405180910390fd5b8015801590613d585750804210155b156117115760405163a00eda6960e01b815260040160405180910390fd5b6000613d806113ff565b600054604051631b0b969d60e01b81523360048201529192506201000090046001600160a01b031690631b0b969d90602401602060405180830381865afa158015613dcf573d6000803e3d6000fd5b505050506040513d601f19601f82011682018060405250810190613df39190615c6c565b158015613e095750336001600160a01b03821614155b8015613eb1575060006001600160a01b03821663ebbe8034613e497f6c85b93e587873fbe6712f3b438d42c2945689b262f7bd34b8ea4e3f832a89e75490565b6040516001600160e01b031960e084901b1681526004810191909152336024820152604401602060405180830381865afa158015613e8b573d6000803e3d6000fd5b505050506040513d601f19601f82011682018060405250810190613eaf9190615e3a565b145b156111fc57604051630d319e2360e41b815260040160405180910390fd5b6000613ed9610974565b6001600160a01b031663c4c31e85613eef611432565b6040516001600160e01b031960e084901b1681526001600160401b0390911660048201526024016109d2565b80600003613f27575050565b6000613f338284615dfc565b6004549091506001600160401b03600160401b909104811690821611156111f957600480546fffffffffffffffffffffffffffffffff1916600160401b6001600160401b0384811691820267ffffffffffffffff1916929092179186169182179092556040805191825260208201929092527ff861d322fccc59c7a2d50d1d5a7e59edd351307a86833244abbb1b584dec696491016122bb565b60606000613fd9614f9c565b9050600081516001600160401b03811115613ff657613ff661573f565b60405190808252806020026020018201604052801561401f578160200160208202803683370190505b50905060005b81518110156140715782818151811061404057614040615a8e565b60200260200101516040015182828151811061405e5761405e615a8e565b6020908102919091010152600101614025565b5092915050565b6002546000906001600160401b031615801590610a13575050600254600160401b90046001600160401b0316151590565b6000806140b46113ff565b6001600160a01b03166344d9bc5f6040518163ffffffff1660e01b8152600401602060405180830381865afa1580156140f1573d6000803e3d6000fd5b505050506040513d601f19601f820116820180604052508101906141159190615e3a565b90506000811561412e57614129428361417d565b614130565b425b600254909150600160401b90046001600160401b0316158015906141665750600254600160401b90046001600160401b03168110155b156141745760019250505090565b60009250505090565b600081831061418c578161418e565b825b90505b92915050565b61419f6113ff565b6001600160a01b0316336001600160a01b031614158015614263575060006141c56113ff565b6001600160a01b031663ebbe80346141fb7f6c85b93e587873fbe6712f3b438d42c2945689b262f7bd34b8ea4e3f832a89e75490565b6040516001600160e01b031960e084901b1681526004810191909152336024820152604401602060405180830381865afa15801561423d573d6000803e3d6000fd5b505050506040513d601f19601f820116820180604052508101906142619190615e3a565b145b156142815760405163422656d160e01b815260040160405180910390fd5b565b6040805180820190915260078152662ba0a92924a7a960c91b60209091015260007f963ace81a31bb0e5e04a9395a1006fbdeb19cac259cef54f594aee1106583c6f82016142d357506000919050565b60408051808201909152600681526520a921a422a960d11b6020909101527fbd21a0403f8a882c166bd206a22b19e35435476f82a2cccdbfebf4d666c861c0820161432757506729a2241af62c0000919050565b6040805180820190915260088152672427a929a2a6a0a760c11b6020909101527f762a1190b034cd04c3eae43da1943cdf0137d457634c4d62e69626f81f1986c7820161437d5750673782dace9d900000919050565b60405163ea3b0abb60e01b815260040160405180910390fd5b6040805180820190915260078152662ba0a92924a7a960c91b60209091015260007f963ace81a31bb0e5e04a9395a1006fbdeb19cac259cef54f594aee1106583c6f82016143ed5750670de0b6b3a7640000919050565b60408051808201909152600681526520a921a422a960d11b6020909101527fbd21a0403f8a882c166bd206a22b19e35435476f82a2cccdbfebf4d666c861c0820161443a57506000919050565b6040805180820190915260088152672427a929a2a6a0a760c11b6020909101527f762a1190b034cd04c3eae43da1943cdf0137d457634c4d62e69626f81f1986c7820161437d57506000919050565b6000816144968185615c58565b61418e9190615c2b565b6002546000906001600160401b031615801590610a13575050600354151590565b6000806144cc610974565b905060006144d8613fcd565b90506000805b82518110156145ef57836001600160a01b031663feae7dc384838151811061450857614508615a8e565b60200260200101516040518263ffffffff1660e01b815260040161452e91815260200190565b602060405180830381865afa15801561454b573d6000803e3d6000fd5b505050506040513d601f19601f8201168201806040525081019061456f9190615acf565b6040516370a0823160e01b81526001600160a01b03888116600483015291909116906370a0823190602401602060405180830381865afa1580156145b7573d6000803e3d6000fd5b505050506040513d601f19601f820116820180604052508101906145db9190615e3a565b6145e59083615b30565b91506001016144de565b50949350505050565b600080614603613fcd565b905060005b81518110156146c457600082828151811061462557614625615a8e565b602002602001015190506000866001600160a01b0316633856937987846040518363ffffffff1660e01b8152600401614668929190918252602082015260400190565b602060405180830381865afa158015614685573d6000803e3d6000fd5b505050506040513d601f19601f820116820180604052508101906146a99190615e3a565b11156146bb5760019350505050614191565b50600101614608565b506000949350505050565b60006146db8284615f35565b159392505050565b600060056146f383614650615f49565b6001600160401b03166141919190615c58565b6000600561271061472c61471e856305f5e100615f49565b6001600160401b0316615257565b61473890614650615c2b565b6147429190615c58565b6141919190615c58565b6000806147576152c7565b90506147638185615f35565b61476d9085615c18565b9350600061477b8288615c2b565b905080851115614789578094505b6000614793613ecf565b905060006147a082615457565b90506000826001600160a01b031663f10e38af6040518163ffffffff1660e01b8152600401602060405180830381865afa1580156147e2573d6000803e3d6000fd5b505050506040513d601f19601f820116820180604052508101906148069190615acf565b9050811561488857806001600160a01b0316631d8557d76040518163ffffffff1660e01b8152600401600060405180830381600087803b15801561484957600080fd5b505af115801561485d573d6000803e3d6000fd5b5050505061486a816144c1565b156148885760405163cdce805560e01b815260040160405180910390fd5b81614beb57604051631b973c5760e21b8152600481018890526000906001600160a01b03851690636e5cf15c90602401602060405180830381865afa1580156148d5573d6000803e3d6000fd5b505050506040513d601f19601f820116820180604052508101906148f99190615acf565b9050806001600160a01b0316631d8557d76040518163ffffffff1660e01b8152600401600060405180830381600087803b15801561493657600080fd5b505af115801561494a573d6000803e3d6000fd5b505050506000614b6b61495b610974565b6001600160a01b031663912929df846001600160a01b03166304b10ac86040518163ffffffff1660e01b8152600401602060405180830381865afa1580156149a7573d6000803e3d6000fd5b505050506040513d601f19601f820116820180604052508101906149cb9190615e3a565b6040518263ffffffff1660e01b81526004016149e991815260200190565b602060405180830381865afa158015614a06573d6000803e3d6000fd5b505050506040513d601f19601f82011682018060405250810190614a2a9190615acf565b6040516375719b0160e11b81526001600160a01b038581166004830152919091169063eae3360290602401602060405180830381865afa158015614a72573d6000803e3d6000fd5b505050506040513d601f19601f82011682018060405250810190614a969190615e3a565b836001600160a01b0316633c084b8b856001600160a01b0316638545bc586040518163ffffffff1660e01b8152600401602060405180830381865afa158015614ae3573d6000803e3d6000fd5b505050506040513d601f19601f82011682018060405250810190614b079190615e3a565b6040518263ffffffff1660e01b8152600401614b2591815260200190565b602060405180830381865afa158015614b42573d6000803e3d6000fd5b505050506040513d601f19601f82011682018060405250810190614b669190615e3a565b61417d565b905089811015614b8e576040516386a8386760e01b815260040160405180910390fd5b604051632de344e160e21b8152600481018b90526001600160a01b0383169063b78d138490602401600060405180830381600087803b158015614bd057600080fd5b505af1158015614be4573d6000803e3d6000fd5b5050505050505b614bf58589615c58565b9a9950505050505050505050565b614c3c6040518060c001604052806000815260200160008152602001600081526020016000815260200160008152602001600081525090565b6040805180820190915260078152662ba0a92924a7a960c91b6020909101527f963ace81a31bb0e5e04a9395a1006fbdeb19cac259cef54f594aee1106583c6f8201614cc6576040518060c0016040528060008152602001601481526020016005815260200160058152602001650a86cc92e3da815260200165150d9925c7b48152509050919050565b60408051808201909152600681526520a921a422a960d11b6020909101527fbd21a0403f8a882c166bd206a22b19e35435476f82a2cccdbfebf4d666c861c08201614d4f576040518060c0016040528060058152602001600581526020016000815260200160058152602001650a86cc92e3da815260200165150d9925c7b48152509050919050565b6040805180820190915260088152672427a929a2a6a0a760c11b6020909101527f762a1190b034cd04c3eae43da1943cdf0137d457634c4d62e69626f81f1986c7820161437d576040518060c0016040528060008152602001600581526020016005815260200160148152602001650a86cc92e3da815260200165150d9925c7b48152509050919050565b600080614de5613ecf565b90506040518060400160405280600881526020016743554c544953545360c01b81525080519060200120816001600160a01b0316630b4e99c36040518163ffffffff1660e01b8152600401602060405180830381865afa158015614e4d573d6000803e3d6000fd5b505050506040513d601f19601f82011682018060405250810190614e719190615e3a565b03614e7e57600091505090565b6000816001600160a01b0316632de7e9b06040518163ffffffff1660e01b8152600401602060405180830381865afa158015614ebe573d6000803e3d6000fd5b505050506040513d601f19601f82011682018060405250810190614ee29190615acf565b60405163417fbd1d60e01b81523060048201526001600160a01b03919091169063417fbd1d90602401600060405180830381865afa158015614f28573d6000803e3d6000fd5b505050506040513d6000823e601f3d908101601f19168201604052614f509190810190615f6b565b905060005b8151811015614f92576000828281518110614f7257614f72615a8e565b60200260200101511115614f8a576001935050505090565b600101614f55565b5060009250505090565b6040805160038082526080820190925260609160009190816020015b60408051606080820183528082526020820152600091810191909152815260200190600190039081614fb85750506040805160a0810182526011606082019081527f4d697468726165756d2057617272696f720000000000000000000000000000006080830152815281518083018352600881527f6d57415252494f52000000000000000000000000000000000000000000000000602080830191909152808301919091528251808401845260078152662ba0a92924a7a960c91b9101527f69c5317e5ce44f1a1fb56c6a5eff904214e6353da6310ab0a6b511eef9a7c3919181019190915281519192509082906000906150b5576150b5615a8e565b6020908102919091018101919091526040805160a0810182526010606082019081527f4d697468726165756d20417263686572000000000000000000000000000000006080830152815281518083018352600781526636a0a921a422a960c91b818501528184015281518083018352600681526520a921a422a960d11b9301929092527f42de5fbfc07577d3e9942df95dd4e61cabcab8907d5d333240140b2999379e409082015281518290600190811061517257615172615a8e565b6020908102919091018101919091526040805160a0810182526012606082019081527f4d697468726165756d20486f7273656d616e00000000000000000000000000006080830152815281518083018352600981527f6d484f5253454d414e000000000000000000000000000000000000000000000081850152818401528151808301835260088152672427a929a2a6a0a760c11b9301929092527f89d5ee6f4fcb32fb3c151bc25e6bc320fec82ba89cb3b29d1969d907e0e679399082015281518290600290811061524757615247615a8e565b6020908102919091010152919050565b600060038211156152b85750806000615271600283615c58565b61527c906001615b30565b90505b818110156152b2579050806002816152978186615c58565b6152a19190615b30565b6152ab9190615c58565b905061527f565b50919050565b81156152c2575060015b919050565b6000806152d2611766565b905060006152de610974565b905060006152ea613fcd565b90506000805b8251811015615442576000846001600160a01b031663feae7dc385848151811061531c5761531c615a8e565b60200260200101516040518263ffffffff1660e01b815260040161534291815260200190565b602060405180830381865afa15801561535f573d6000803e3d6000fd5b505050506040513d601f19601f820116820180604052508101906153839190615acf565b6040516370a0823160e01b81523060048201526001600160a01b0391909116906370a0823190602401602060405180830381865afa1580156153c9573d6000803e3d6000fd5b505050506040513d601f19601f820116820180604052508101906153ed9190615e3a565b905061541184838151811061540457615404615a8e565b60200260200101516154ea565b615423670de0b6b3a764000083615c58565b61542d9190615c2b565b6154379084615b30565b9250506001016152f0565b5061544e600582615c2b565b94505050505090565b60006040518060400160405280600881526020016743554c544953545360c01b81525080519060200120826001600160a01b0316630b4e99c36040518163ffffffff1660e01b8152600401602060405180830381865afa1580156154bf573d6000803e3d6000fd5b505050506040513d601f19601f820116820180604052508101906154e39190615e3a565b1492915050565b6040805180820190915260078152662ba0a92924a7a960c91b60209091015260007f963ace81a31bb0e5e04a9395a1006fbdeb19cac259cef54f594aee1106583c6f820161553f57506597951b766aaa919050565b60408051808201909152600681526520a921a422a960d11b6020909101527fbd21a0403f8a882c166bd206a22b19e35435476f82a2cccdbfebf4d666c861c082016155915750653287092778e3919050565b6040805180820190915260088152672427a929a2a6a0a760c11b6020909101527f762a1190b034cd04c3eae43da1943cdf0137d457634c4d62e69626f81f1986c7820161437d5750650f2882bf0aaa919050565b60008083601f8401126155f757600080fd5b5081356001600160401b0381111561560e57600080fd5b6020830191508360208260051b850101111561562957600080fd5b9250929050565b60008060008060008060006080888a03121561564b57600080fd5b87356001600160401b0381111561566157600080fd5b61566d8a828b016155e5565b90985096505060208801356001600160401b0381111561568c57600080fd5b6156988a828b016155e5565b90965094505060408801356001600160401b038111156156b757600080fd5b6156c38a828b016155e5565b989b979a50959894979596606090950135949350505050565b6001600160a01b03811681146111fc57600080fd5b6000806040838503121561570457600080fd5b823561570f816156dc565b946020939093013593505050565b6000806040838503121561573057600080fd5b50508035926020909101359150565b634e487b7160e01b600052604160045260246000fd5b604051601f8201601f191681016001600160401b038111828210171561577d5761577d61573f565b604052919050565b60006001600160401b0382111561579e5761579e61573f565b5060051b60200190565b600082601f8301126157b957600080fd5b81356157cc6157c782615785565b615755565b8082825260208201915060208360051b8601019250858311156157ee57600080fd5b602085015b83811015612d4d5780358352602092830192016157f3565b6000806040838503121561581e57600080fd5b82356001600160401b0381111561583457600080fd5b8301601f8101851361584557600080fd5b80356158536157c782615785565b8082825260208201915060208360051b85010192508783111561587557600080fd5b6020840193505b8284101561589757833582526020938401939091019061587c565b945050505060208301356001600160401b038111156158b557600080fd5b6158c1858286016157a8565b9150509250929050565b6000602082840312156158dd57600080fd5b5035919050565b6000602082840312156158f657600080fd5b81356001600160401b0381111561590c57600080fd5b8201601f8101841361591d57600080fd5b80356001600160401b038111156159365761593661573f565b615949601f8201601f1916602001615755565b81815285602083850101111561595e57600080fd5b81602084016020830137600091810160200191909152949350505050565b6001600160401b03811681146111fc57600080fd5b6000602082840312156159a357600080fd5b81356159ae8161597c565b9392505050565b6000806000606084860312156159ca57600080fd5b83356159d58161597c565b95602085013595506040909401359392505050565b600080600080600060608688031215615a0257600080fd5b8535615a0d816156dc565b945060208601356001600160401b03811115615a2857600080fd5b615a34888289016155e5565b90955093505060408601356001600160401b03811115615a5357600080fd5b615a5f888289016155e5565b969995985093965092949392505050565b60008060408385031215615a8357600080fd5b823561570f8161597c565b634e487b7160e01b600052603260045260246000fd5b80151581146111fc57600080fd5b600060208284031215615ac457600080fd5b81356159ae81615aa4565b600060208284031215615ae157600080fd5b81516159ae816156dc565b600080600060608486031215615b0157600080fd5b5050815160208301516040909301519094929350919050565b634e487b7160e01b600052601160045260246000fd5b8082018082111561419157614191615b1a565b81835260007f07ffffffffffffffffffffffffffffffffffffffffffffffffffffffffffffff831115615b7557600080fd5b8260051b80836020870137939093016020019392505050565b6001600160a01b038916815260a060208201526000615bb160a08301898b615b43565b8281036040840152868152879060200160005b88811015615bed578235615bd781615aa4565b1515825260209283019290910190600101615bc4565b508381036060850152615c01818789615b43565b925050508260808301529998505050505050505050565b8181038181111561419157614191615b1a565b808202811582820484141761419157614191615b1a565b634e487b7160e01b600052601260045260246000fd5b600082615c6757615c67615c42565b500490565b600060208284031215615c7e57600080fd5b81516159ae81615aa4565b600082601f830112615c9a57600080fd5b8151615ca86157c782615785565b8082825260208201915060208360051b860101925085831115615cca57600080fd5b602085015b83811015612d4d578051835260209283019201615ccf565b60008060408385031215615cfa57600080fd5b8251615d0581615aa4565b60208401519092506001600160401b03811115615d2157600080fd5b6158c185828601615c89565b6040808252835190820181905260009060208501906060840190835b81811015615d67578351835260209384019390920191600101615d49565b50508381036020808601919091528551808352918101925085019060005b81811015615da3578251845260209384019390920191600101615d85565b50919695505050505050565b600080600060608486031215615dc457600080fd5b8351615dcf8161597c565b6020850151909350615de08161597c565b6040850151909250615df18161597c565b809150509250925092565b6001600160401b03818116838216019081111561419157614191615b1a565b6001600160401b03828116828216039081111561419157614191615b1a565b600060208284031215615e4c57600080fd5b5051919050565b600060208284031215615e6557600080fd5b81516159ae8161597c565b6001600160a01b03871681526001600160a01b0386166020820152608060408201526000615ea2608083018688615b43565b8281036060840152615eb5818587615b43565b9998505050505050505050565b6001600160a01b038616815284602082015283604082015282606082015260a06080820152600082518060a084015260005b81811015615f1157602081860181015160c0868401015201615ef4565b50600060c0828501015260c0601f19601f8301168401019150509695505050505050565b600082615f4457615f44615c42565b500690565b6001600160401b03818116838216029081169081811461407157614071615b1a565b600060208284031215615f7d57600080fd5b81516001600160401b03811115615f9357600080fd5b615f9f84828501615c89565b94935050505056fea264697066735822122060882d17e10e9c6730793bab1ece5e2de3b3e6c977dca19de71d9e129cf1dfd264736f6c634300081a0033",
  "linkReferences": {},
  "deployedLinkReferences": {}
}