{
  "_format": "hh-sol-artifact-1",
  "contractName": "WorldAssetFactory",
  "sourceName": "contracts/core/assets/WorldAssetFactory.sol",
  "abi": [
    {
      "inputs": [],
      "name": "OnlyWorldOrWorldAsset",
      "type": "error"
    },
    {
      "inputs": [
        {
          "internalType": "address",
          "name": "worldAddress",
          "type": "address"
        },
        {
          "internalType": "uint256",
          "name": "eraNumber",
          "type": "uint256"
        },
        {
          "internalType": "bytes32",
          "name": "assetGroupId",
          "type": "bytes32"
        },
        {
          "internalType": "bytes32",
          "name": "assetTypeId",
          "type": "bytes32"
        },
        {
          "internalType": "bytes",
          "name": "initParams",
          "type": "bytes"
        }
      ],
      "name": "create",
      "outputs": [
        {
          "internalType": "address",
          "name": "",
          "type": "address"
        }
      ],
      "stateMutability": "nonpayable",
      "type": "function"
    }
  ],
  "bytecode": "0x6080604052348015600f57600080fd5b5061071d8061001f6000396000f3fe608060405234801561001057600080fd5b506004361061002b5760003560e01c8063c19755fd14610030575b600080fd5b61004361003e366004610296565b61005f565b6040516001600160a01b03909116815260200160405180910390f35b60008061006e878787876100da565b604051631377d1f560e21b81529091506001600160a01b03821690634ddf47d49061009d90869060040161038b565b600060405180830381600087803b1580156100b757600080fd5b505af11580156100cb573d6000803e3d6000fd5b50929998505050505050505050565b600084846100e8828261016f565b60006100f688888888610219565b60405163909a853160e01b8152600481018990526001600160a01b038083166024830152604482018990529192509089169063909a853190606401600060405180830381600087803b15801561014b57600080fd5b505af115801561015f573d6000803e3d6000fd5b50929a9950505050505050505050565b336001600160a01b038316148015906101f75750604051633aefa00d60e21b8152600481018290523360248201526000906001600160a01b0384169063ebbe803490604401602060405180830381865afa1580156101d1573d6000803e3d6000fd5b505050506040513d601f19601f820116820180604052508101906101f591906103d9565b145b1561021557604051634ffa334f60e01b815260040160405180910390fd5b5050565b60008484848460405161022b90610273565b6001600160a01b039094168452602084019290925260408301526060820152608001604051809103906000f080158015610269573d6000803e3d6000fd5b5095945050505050565b6102f5806103f383390190565b634e487b7160e01b600052604160045260246000fd5b600080600080600060a086880312156102ae57600080fd5b85356001600160a01b03811681146102c557600080fd5b9450602086013593506040860135925060608601359150608086013567ffffffffffffffff8111156102f657600080fd5b8601601f8101881361030757600080fd5b803567ffffffffffffffff81111561032157610321610280565b604051601f8201601f19908116603f0116810167ffffffffffffffff8111828210171561035057610350610280565b6040528181528282016020018a101561036857600080fd5b816020840160208301376000602083830101528093505050509295509295909350565b602081526000825180602084015260005b818110156103b9576020818601810151604086840101520161039c565b506000604082850101526040601f19601f83011684010191505092915050565b6000602082840312156103eb57600080fd5b505191905056fe608060405234801561001057600080fd5b506040516102f53803806102f583398101604081905261002f9161013a565b7f6c85b93e587873fbe6712f3b438d42c2945689b262f7bd34b8ea4e3f832a89e680546001600160a01b0319166001600160a01b0395909516949094179093557f6c85b93e587873fbe6712f3b438d42c2945689b262f7bd34b8ea4e3f832a89e79190915560408051602080820184905281830185905282518083038401815260609092019092528051908201207f6c85b93e587873fbe6712f3b438d42c2945689b262f7bd34b8ea4e3f832a89e880546001600160e01b0319169190921c1790557f6c85b93e587873fbe6712f3b438d42c2945689b262f7bd34b8ea4e3f832a89e9557f6c85b93e587873fbe6712f3b438d42c2945689b262f7bd34b8ea4e3f832a89ea55610185565b6000806000806080858703121561015057600080fd5b84516001600160a01b038116811461016757600080fd5b60208601516040870151606090970151919890975090945092505050565b610161806101946000396000f3fe608060408190527f6c85b93e587873fbe6712f3b438d42c2945689b262f7bd34b8ea4e3f832a89e680547f6c85b93e587873fbe6712f3b438d42c2945689b262f7bd34b8ea4e3f832a89e854631773274b60e31b845263ffffffff19602091821b16608452919260009273ffffffffffffffffffffffffffffffffffffffff9092169163bb993a589160a49190602481865afa1580156100a3573d6000803e3d6000fd5b505050506040513d601f19601f820116820180604052508101906100c791906100ee565b905060405136600082376000803683855af43d806000843e8180156100ea578184f35b8184fd5b60006020828403121561010057600080fd5b815173ffffffffffffffffffffffffffffffffffffffff8116811461012457600080fd5b939250505056fea2646970667358221220cd7ae0805782b27f689ad574922ef0155da5f42fc691db7d646e75b4d3c9635164736f6c634300081a0033a26469706673582212202a6a4d7e7e95c8a00f02d6b8b9fecb2cf849c04b5a731bb9a5031323a347240a64736f6c634300081a0033",
  "linkReferences": {},
  "deployedLinkReferences": {}
}