{
  "_format": "hh-sol-artifact-1",
  "contractName": "WorkersUnitsPool",
  "sourceName": "contracts/core/assets/unitsPool/WorkersUnitsPool.sol",
  "abi": [
    {
      "inputs": [],
      "name": "CannotHireUnitsDueToTheirCostIsHigherThanMaxTokensToSellSpecified",
      "type": "error"
    },
    {
      "inputs": [],
      "name": "CannotHireUnitsExceedingArmyUnitsLimit",
      "type": "error"
    },
    {
      "inputs": [],
      "name": "CannotHireUnitsExceedingTransactionLimit",
      "type": "error"
    },
    {
      "inputs": [],
      "name": "CannotHireUnitsForArmyWhichSettlementDoesNotBelongToRelatedRegion",
      "type": "error"
    },
    {
      "inputs": [],
      "name": "CannotHireUnitsInvalidUnitsToBuySpecified",
      "type": "error"
    },
    {
      "inputs": [],
      "name": "CannotHireUnitsWhileArmyIsManeuvering",
      "type": "error"
    },
    {
      "inputs": [],
      "name": "CannotHireUnitsWhileArmyIsNotOnHomePosition",
      "type": "error"
    },
    {
      "inputs": [],
      "name": "CannotHireUnitsWhileArmyIsStunned",
      "type": "error"
    },
    {
      "inputs": [],
      "name": "OnlyActiveGame",
      "type": "error"
    },
    {
      "inputs": [],
      "name": "OnlyMightyCreator",
      "type": "error"
    },
    {
      "inputs": [],
      "name": "OnlyRelatedRegion",
      "type": "error"
    },
    {
      "inputs": [],
      "name": "OnlyRulerOrWorldAsset",
      "type": "error"
    },
    {
      "inputs": [],
      "name": "OnlyWorldAssetFromSameEra",
      "type": "error"
    },
    {
      "anonymous": false,
      "inputs": [
        {
          "indexed": false,
          "internalType": "uint8",
          "name": "version",
          "type": "uint8"
        }
      ],
      "name": "Initialized",
      "type": "event"
    },
    {
      "anonymous": false,
      "inputs": [
        {
          "indexed": false,
          "internalType": "address",
          "name": "spender",
          "type": "address"
        },
        {
          "indexed": false,
          "internalType": "address",
          "name": "armyAddress",
          "type": "address"
        },
        {
          "indexed": false,
          "internalType": "uint256",
          "name": "boughtUnitsAmount",
          "type": "uint256"
        },
        {
          "indexed": false,
          "internalType": "uint256",
          "name": "spentTokensAmount",
          "type": "uint256"
        },
        {
          "indexed": false,
          "internalType": "uint256",
          "name": "newUnitPrice",
          "type": "uint256"
        }
      ],
      "name": "UnitsBought",
      "type": "event"
    },
    {
      "inputs": [],
      "name": "assetGroupId",
      "outputs": [
        {
          "internalType": "bytes32",
          "name": "",
          "type": "bytes32"
        }
      ],
      "stateMutability": "view",
      "type": "function"
    },
    {
      "inputs": [],
      "name": "assetTypeId",
      "outputs": [
        {
          "internalType": "bytes32",
          "name": "",
          "type": "bytes32"
        }
      ],
      "stateMutability": "view",
      "type": "function"
    },
    {
      "inputs": [
        {
          "internalType": "uint256",
          "name": "unitsToBuy",
          "type": "uint256"
        }
      ],
      "name": "calculateTokensForExactUnits",
      "outputs": [
        {
          "internalType": "uint256",
          "name": "",
          "type": "uint256"
        },
        {
          "internalType": "uint256",
          "name": "",
          "type": "uint256"
        }
      ],
      "stateMutability": "view",
      "type": "function"
    },
    {
      "inputs": [],
      "name": "era",
      "outputs": [
        {
          "internalType": "contract IEra",
          "name": "",
          "type": "address"
        }
      ],
      "stateMutability": "view",
      "type": "function"
    },
    {
      "inputs": [],
      "name": "eraNumber",
      "outputs": [
        {
          "internalType": "uint256",
          "name": "",
          "type": "uint256"
        }
      ],
      "stateMutability": "view",
      "type": "function"
    },
    {
      "inputs": [
        {
          "internalType": "bytes",
          "name": "initParams",
          "type": "bytes"
        }
      ],
      "name": "init",
      "outputs": [],
      "stateMutability": "nonpayable",
      "type": "function"
    },
    {
      "inputs": [],
      "name": "lastPurchaseTime",
      "outputs": [
        {
          "internalType": "uint256",
          "name": "",
          "type": "uint256"
        }
      ],
      "stateMutability": "view",
      "type": "function"
    },
    {
      "inputs": [],
      "name": "registry",
      "outputs": [
        {
          "internalType": "contract IRegistry",
          "name": "",
          "type": "address"
        }
      ],
      "stateMutability": "view",
      "type": "function"
    },
    {
      "inputs": [],
      "name": "relatedRegion",
      "outputs": [
        {
          "internalType": "contract IRegion",
          "name": "",
          "type": "address"
        }
      ],
      "stateMutability": "view",
      "type": "function"
    },
    {
      "inputs": [
        {
          "internalType": "address",
          "name": "tokensOwner",
          "type": "address"
        },
        {
          "internalType": "address",
          "name": "settlementAddress",
          "type": "address"
        },
        {
          "internalType": "uint256",
          "name": "unitsToBuy",
          "type": "uint256"
        },
        {
          "internalType": "uint256",
          "name": "maxTokensToSell",
          "type": "uint256"
        }
      ],
      "name": "swapTokensForExactUnits",
      "outputs": [
        {
          "internalType": "uint256",
          "name": "",
          "type": "uint256"
        }
      ],
      "stateMutability": "nonpayable",
      "type": "function"
    },
    {
      "inputs": [
        {
          "internalType": "address",
          "name": "tokensOwner",
          "type": "address"
        },
        {
          "internalType": "address",
          "name": "msgSender",
          "type": "address"
        },
        {
          "internalType": "address",
          "name": "settlementAddress",
          "type": "address"
        },
        {
          "internalType": "uint256",
          "name": "unitsToBuy",
          "type": "uint256"
        },
        {
          "internalType": "uint256",
          "name": "maxTokensToSell",
          "type": "uint256"
        }
      ],
      "name": "swapTokensForExactUnitsByRegion",
      "outputs": [
        {
          "internalType": "uint256",
          "name": "",
          "type": "uint256"
        }
      ],
      "stateMutability": "nonpayable",
      "type": "function"
    },
    {
      "inputs": [],
      "name": "unitPrice",
      "outputs": [
        {
          "internalType": "uint256",
          "name": "",
          "type": "uint256"
        }
      ],
      "stateMutability": "view",
      "type": "function"
    },
    {
      "inputs": [],
      "name": "unitTypeId",
      "outputs": [
        {
          "internalType": "bytes32",
          "name": "",
          "type": "bytes32"
        }
      ],
      "stateMutability": "view",
      "type": "function"
    },
    {
      "inputs": [],
      "name": "world",
      "outputs": [
        {
          "internalType": "contract IWorld",
          "name": "",
          "type": "address"
        }
      ],
      "stateMutability": "view",
      "type": "function"
    },
    {
      "inputs": [],
      "name": "worldAssetFactory",
      "outputs": [
        {
          "internalType": "contract IWorldAssetFactory",
          "name": "",
          "type": "address"
        }
      ],
      "stateMutability": "view",
      "type": "function"
    }
  ],
  "bytecode": "0x6080604052348015600f57600080fd5b506119048061001f6000396000f3fe608060405234801561001057600080fd5b50600436106100f55760003560e01c80637d884c7411610097578063e6c15c9911610066578063e6c15c9914610210578063e73faa2d14610229578063ece56a1a14610232578063fb75b12c1461023a57600080fd5b80637d884c741461019157806384ba89e3146101b8578063a7d6911c146101df578063c14bafb11461020757600080fd5b80634ddf47d4116100d35780634ddf47d4146101585780635920c5431461016d57806377258451146101765780637b1039991461018957600080fd5b80630b4e99c3146100fa578063143e55e01461013057806330b67baa14610150575b600080fd5b7f6c85b93e587873fbe6712f3b438d42c2945689b262f7bd34b8ea4e3f832a89ea545b6040519081526020015b60405180910390f35b61013861024d565b6040516001600160a01b039091168152602001610127565b6101386102f1565b61016b6101663660046115c6565b610324565b005b61011d60025481565b61011d610184366004611697565b6104ac565b6101386104e3565b7f6c85b93e587873fbe6712f3b438d42c2945689b262f7bd34b8ea4e3f832a89e75461011d565b7f6c85b93e587873fbe6712f3b438d42c2945689b262f7bd34b8ea4e3f832a89e95461011d565b6101f26101ed3660046116f2565b61052a565b60408051928352602083019190915201610127565b61011d60015481565b600054610138906201000090046001600160a01b031681565b61011d60035481565b610138610547565b61011d61024836600461170b565b61058e565b60006102576102f1565b6001600160a01b031663720a70bd61028d7f6c85b93e587873fbe6712f3b438d42c2945689b262f7bd34b8ea4e3f832a89e75490565b6040518263ffffffff1660e01b81526004016102ab91815260200190565b602060405180830381865afa1580156102c8573d6000803e3d6000fd5b505050506040513d601f19601f820116820180604052508101906102ec9190611751565b905090565b60006102ec7f6c85b93e587873fbe6712f3b438d42c2945689b262f7bd34b8ea4e3f832a89e6546001600160a01b031690565b600054610100900460ff16158080156103445750600054600160ff909116105b8061035e5750303b15801561035e575060005460ff166001145b6103d45760405162461bcd60e51b815260206004820152602e60248201527f496e697469616c697a61626c653a20636f6e747261637420697320616c72656160448201527f647920696e697469616c697a6564000000000000000000000000000000000000606482015260840160405180910390fd5b6000805460ff1916600117905580156103f7576000805461ff0019166101001790555b6000808380602001905181019061040e919061176e565b600080546001600160a01b0390931662010000027fffffffffffffffffffff0000000000000000000000000000000000000000ffff90931692909217909155600255505042600155670de0b6b3a764000060035580156104a8576000805461ff0019169055604051600181527f7f26b83ff96e1f2b6a682f133852f6798a09c465da95921460cefb38474024989060200160405180910390a15b5050565b60006104b66105bc565b6104be6106ed565b84846104ca8282610720565b6104d78888888888610879565b98975050505050505050565b60006104ed6102f1565b6001600160a01b0316637b1039996040518163ffffffff1660e01b8152600401602060405180830381865afa1580156102c8573d6000803e3d6000fd5b6000806003548361053b91906117b2565b60035491509150915091565b60006105516104e3565b6001600160a01b031663ece56a1a6040518163ffffffff1660e01b8152600401602060405180830381865afa1580156102c8573d6000803e3d6000fd5b60006105986105bc565b33846105a48282610720565b6105b18733888888610879565b979650505050505050565b60006105c66102f1565b6001600160a01b0316633c8ca83d6040518163ffffffff1660e01b8152600401602060405180830381865afa158015610603573d6000803e3d6000fd5b505050506040513d601f19601f8201168201806040525081019061062791906117c9565b905060006106336102f1565b6001600160a01b03166344d9bc5f6040518163ffffffff1660e01b8152600401602060405180830381865afa158015610670573d6000803e3d6000fd5b505050506040513d601f19601f8201168201806040525081019061069491906117c9565b90508115806106a257508142105b156106c05760405163a00eda6960e01b815260040160405180910390fd5b80158015906106cf5750804210155b156104a85760405163a00eda6960e01b815260040160405180910390fd5b6000546201000090046001600160a01b0316331461071e57604051630ca829d560e31b815260040160405180910390fd5b565b604051631b0b969d60e01b81526001600160a01b038381166004830152821690631b0b969d90602401602060405180830381865afa158015610766573d6000803e3d6000fd5b505050506040513d601f19601f8201168201806040525081019061078a91906117e2565b15801561085b5750600061079c6102f1565b6001600160a01b031663ebbe80346107d27f6c85b93e587873fbe6712f3b438d42c2945689b262f7bd34b8ea4e3f832a89e75490565b6040517fffffffff0000000000000000000000000000000000000000000000000000000060e084901b16815260048101919091526001600160a01b0386166024820152604401602060405180830381865afa158015610835573d6000803e3d6000fd5b505050506040513d601f19601f8201168201806040525081019061085991906117c9565b145b156104a857604051636b6ee4e160e11b815260040160405180910390fd5b6000808490506000816001600160a01b031663f10e38af6040518163ffffffff1660e01b8152600401602060405180830381865afa1580156108bf573d6000803e3d6000fd5b505050506040513d601f19601f820116820180604052508101906108e39190611751565b9050816001600160a01b031663aef281d36040518163ffffffff1660e01b8152600401600060405180830381600087803b15801561092057600080fd5b505af1158015610934573d6000803e3d6000fd5b50505050806001600160a01b0316631d8557d76040518163ffffffff1660e01b8152600401600060405180830381600087803b15801561097357600080fd5b505af1158015610987573d6000803e3d6000fd5b50505050806001600160a01b0316638ff54e356040518163ffffffff1660e01b8152600401602060405180830381865afa1580156109c9573d6000803e3d6000fd5b505050506040513d601f19601f820116820180604052508101906109ed91906117e2565b15610a0b5760405163100c419560e01b815260040160405180910390fd5b806001600160a01b031663bc3b0c4b6040518163ffffffff1660e01b8152600401602060405180830381865afa158015610a49573d6000803e3d6000fd5b505050506040513d601f19601f82011682018060405250810190610a6d91906117e2565b610a8a5760405163a854541160e01b815260040160405180910390fd5b841580610aa65750610aa485670de0b6b3a7640000610ddb565b155b15610ac45760405163a700f36360e01b815260040160405180910390fd5b600060029054906101000a90046001600160a01b03166001600160a01b0316826001600160a01b031663e6c15c996040518163ffffffff1660e01b8152600401602060405180830381865afa158015610b21573d6000803e3d6000fd5b505050506040513d601f19601f82011682018060405250810190610b459190611751565b6001600160a01b031614610b6c5760405163194d6c7d60e21b815260040160405180910390fd5b610b768282610df1565b851115610b9657604051633181b8d360e01b815260040160405180910390fd5b69010f0cf064dd59200000851115610bc1576040516302d67e2960e41b815260040160405180910390fd5b600080610bd96101ed670de0b6b3a76400008961181a565b9150915085821115610bfe5760405163331a433f60e11b815260040160405180910390fd5b6000836001600160a01b0316638e55bdc06040518163ffffffff1660e01b81526004016040805180830381865afa158015610c3d573d6000803e3d6000fd5b505050506040513d601f19601f82011682018060405250810190610c61919061184b565b91505067ffffffffffffffff811615610c8d576040516384cc247f60e01b815260040160405180910390fd5b6000610c97610e73565b60405163079cc67960e41b81526001600160a01b038c8116600483015260248201879052919250908216906379cc679090604401600060405180830381600087803b158015610ce557600080fd5b505af1158015610cf9573d6000803e3d6000fd5b50505050610d05610eba565b6040516340c10f1960e01b81526001600160a01b038781166004830152602482018c905291909116906340c10f1990604401600060405180830381600087803b158015610d5157600080fd5b505af1158015610d65573d6000803e3d6000fd5b50505060038490555042600155604080516001600160a01b03808e168252871660208201529081018a905260608101859052608081018490527f2cdc858ec98ef184c62b1a5ad6d7fcfd26ec15fd28a95398a046e9593bb5ce1d9060a00160405180910390a150969a9950505050505050505050565b6000610de7828461187e565b1590505b92915050565b6000806000610dff85610ef3565b915091506000610e0e856110e5565b90506000610e5383670de0b6b3a7640000610e31671bc16d674ec80000886117b2565b610e3b919061181a565b610e45919061181a565b670de0b6b3a7640000611216565b9050808210610e69576000945050505050610deb565b6105b18282611892565b6000610e7d61024d565b6001600160a01b031663cabb62f06040518163ffffffff1660e01b8152600401602060405180830381865afa1580156102c8573d6000803e3d6000fd5b6000610ec461024d565b6001600160a01b031663feae7dc36002546040518263ffffffff1660e01b81526004016102ab91815260200190565b6040805180820182526004808252631193d49560e21b6020909201919091529051631b973c5760e21b8152600091829182916001600160a01b03861691636e5cf15c91610f66917f2911d5ca388af24ed7f391a4eb24469bc0fd8935cd73bb1075ca7e702a42eb19910190815260200190565b602060405180830381865afa158015610f83573d6000803e3d6000fd5b505050506040513d601f19601f82011682018060405250810190610fa79190611751565b9050806001600160a01b0316637633a22c6040518163ffffffff1660e01b8152600401602060405180830381865afa158015610fe7573d6000803e3d6000fd5b505050506040513d601f19601f8201168201806040525081019061100b91906117c9565b816001600160a01b031663e91bde76836001600160a01b0316638545bc586040518163ffffffff1660e01b8152600401602060405180830381865afa158015611058573d6000803e3d6000fd5b505050506040513d601f19601f8201168201806040525081019061107c91906117c9565b6040518263ffffffff1660e01b815260040161109a91815260200190565b602060405180830381865afa1580156110b7573d6000803e3d6000fd5b505050506040513d601f19601f820116820180604052508101906110db91906117c9565b9250925050915091565b6000806110f0611234565b90506000805b825181101561120e5761110761024d565b6001600160a01b031663feae7dc3848381518110611127576111276118a5565b60200260200101516040518263ffffffff1660e01b815260040161114d91815260200190565b602060405180830381865afa15801561116a573d6000803e3d6000fd5b505050506040513d601f19601f8201168201806040525081019061118e9190611751565b6040516370a0823160e01b81526001600160a01b03878116600483015291909116906370a0823190602401602060405180830381865afa1580156111d6573d6000803e3d6000fd5b505050506040513d601f19601f820116820180604052508101906111fa91906117c9565b61120490836118bb565b91506001016110f6565b509392505050565b600081611223818561181a565b61122d91906117b2565b9392505050565b606060006112406112e0565b90506000815167ffffffffffffffff81111561125e5761125e6115b0565b604051908082528060200260200182016040528015611287578160200160208202803683370190505b50905060005b81518110156112d9578281815181106112a8576112a86118a5565b6020026020010151604001518282815181106112c6576112c66118a5565b602090810291909101015260010161128d565b5092915050565b6040805160038082526080820190925260609160009190816020015b604080516060808201835280825260208201526000918101919091528152602001906001900390816112fc5750506040805160a0810182526011606082019081527f4d697468726165756d2057617272696f720000000000000000000000000000006080830152815281518083018352600881527f6d57415252494f52000000000000000000000000000000000000000000000000602080830191909152808301919091528251808401845260078152662ba0a92924a7a960c91b9101527f69c5317e5ce44f1a1fb56c6a5eff904214e6353da6310ab0a6b511eef9a7c3919181019190915281519192509082906000906113f9576113f96118a5565b6020908102919091018101919091526040805160a0810182526010606082019081527f4d697468726165756d20417263686572000000000000000000000000000000006080830152815281518083018352600781526636a0a921a422a960c91b818501528184015281518083018352600681526520a921a422a960d11b9301929092527f42de5fbfc07577d3e9942df95dd4e61cabcab8907d5d333240140b2999379e40908201528151829060019081106114b6576114b66118a5565b6020908102919091018101919091526040805160a0810182526012606082019081527f4d697468726165756d20486f7273656d616e00000000000000000000000000006080830152815281518083018352600981527f6d484f5253454d414e0000000000000000000000000000000000000000000000818501528184015281518083018352600881527f484f5253454d414e0000000000000000000000000000000000000000000000009301929092527f89d5ee6f4fcb32fb3c151bc25e6bc320fec82ba89cb3b29d1969d907e0e67939908201528151829060029081106115a0576115a06118a5565b6020908102919091010152919050565b634e487b7160e01b600052604160045260246000fd5b6000602082840312156115d857600080fd5b813567ffffffffffffffff8111156115ef57600080fd5b8201601f8101841361160057600080fd5b803567ffffffffffffffff81111561161a5761161a6115b0565b604051601f8201601f19908116603f0116810167ffffffffffffffff81118282101715611649576116496115b0565b60405281815282820160200186101561166157600080fd5b81602084016020830137600091810160200191909152949350505050565b6001600160a01b038116811461169457600080fd5b50565b600080600080600060a086880312156116af57600080fd5b85356116ba8161167f565b945060208601356116ca8161167f565b935060408601356116da8161167f565b94979396509394606081013594506080013592915050565b60006020828403121561170457600080fd5b5035919050565b6000806000806080858703121561172157600080fd5b843561172c8161167f565b9350602085013561173c8161167f565b93969395505050506040820135916060013590565b60006020828403121561176357600080fd5b815161122d8161167f565b6000806040838503121561178157600080fd5b825161178c8161167f565b6020939093015192949293505050565b634e487b7160e01b600052601160045260246000fd5b8082028115828204841417610deb57610deb61179c565b6000602082840312156117db57600080fd5b5051919050565b6000602082840312156117f457600080fd5b8151801515811461122d57600080fd5b634e487b7160e01b600052601260045260246000fd5b60008261182957611829611804565b500490565b805167ffffffffffffffff8116811461184657600080fd5b919050565b6000806040838503121561185e57600080fd5b6118678361182e565b91506118756020840161182e565b90509250929050565b60008261188d5761188d611804565b500690565b81810381811115610deb57610deb61179c565b634e487b7160e01b600052603260045260246000fd5b80820180821115610deb57610deb61179c56fea264697066735822122034deb32ffb62ea0c8410e5edae9ba49d29d63e055832d953999c7b9957faff2c64736f6c634300081a0033",
  "linkReferences": {},
  "deployedLinkReferences": {}
}