{
  "_format": "hh-sol-artifact-1",
  "contractName": "Resolver",
  "sourceName": "contracts/periphery/Resolver.sol",
  "abi": [
    {
      "anonymous": false,
      "inputs": [
        {
          "indexed": false,
          "internalType": "address",
          "name": "deployer",
          "type": "address"
        },
        {
          "indexed": false,
          "internalType": "string",
          "name": "environmentName",
          "type": "string"
        },
        {
          "indexed": false,
          "internalType": "address",
          "name": "worldAddress",
          "type": "address"
        }
      ],
      "name": "NewWorldAddress",
      "type": "event"
    },
    {
      "inputs": [
        {
          "internalType": "string",
          "name": "environmentName",
          "type": "string"
        },
        {
          "internalType": "address",
          "name": "worldAddress",
          "type": "address"
        }
      ],
      "name": "setWorldAddress",
      "outputs": [],
      "stateMutability": "nonpayable",
      "type": "function"
    },
    {
      "inputs": [
        {
          "internalType": "address",
          "name": "",
          "type": "address"
        },
        {
          "internalType": "string",
          "name": "",
          "type": "string"
        }
      ],
      "name": "worlds",
      "outputs": [
        {
          "internalType": "address",
          "name": "",
          "type": "address"
        }
      ],
      "stateMutability": "view",
      "type": "function"
    }
  ],
  "bytecode": "0x6080604052348015600f57600080fd5b506103708061001f6000396000f3fe608060405234801561001057600080fd5b50600436106100365760003560e01c806333601b5d1461003b57806366b42cfc14610050575b600080fd5b61004e61004936600461020a565b6100ae565b005b61009261005e366004610258565b600060208181529281526040902081518083018401805192815290840192909301919091209152546001600160a01b031681565b6040516001600160a01b03909116815260200160405180910390f35b336000908152602081905260409081902090518291906100cf9085906102ca565b90815260405190819003602001812080546001600160a01b039390931673ffffffffffffffffffffffffffffffffffffffff19909316929092179091557fc219116f670ad2db6bd792174de75b2007f3ce26201ce084717bd66d3e3730689061013d903390859085906102e6565b60405180910390a15050565b634e487b7160e01b600052604160045260246000fd5b600082601f83011261017057600080fd5b813567ffffffffffffffff81111561018a5761018a610149565b604051601f8201601f19908116603f0116810167ffffffffffffffff811182821017156101b9576101b9610149565b6040528181528382016020018510156101d157600080fd5b816020850160208301376000918101602001919091529392505050565b80356001600160a01b038116811461020557600080fd5b919050565b6000806040838503121561021d57600080fd5b823567ffffffffffffffff81111561023457600080fd5b6102408582860161015f565b92505061024f602084016101ee565b90509250929050565b6000806040838503121561026b57600080fd5b610274836101ee565b9150602083013567ffffffffffffffff81111561029057600080fd5b61029c8582860161015f565b9150509250929050565b60005b838110156102c15781810151838201526020016102a9565b50506000910152565b600082516102dc8184602087016102a6565b9190910192915050565b6001600160a01b038416815260606020820152600083518060608401526103148160808501602088016102a6565b6001600160a01b0393909316604083015250601f91909101601f1916016080019291505056fea2646970667358221220d9bee3a5aff449fee7a42f01c2f809d7432a6136d35a9c4396517b1c0892c3d164736f6c634300081a0033",
  "linkReferences": {},
  "deployedLinkReferences": {}
}