{
  "_format": "hh-sol-artifact-1",
  "contractName": "TileCapturingSystem",
  "sourceName": "contracts/core/assets/tileCapturingSystem/TileCapturingSystem.sol",
  "abi": [
    {
      "inputs": [],
      "name": "CannotBeginTileCaptureBySettlementAlreadyHavingMaximumCapturedTilesWithSameBonus",
      "type": "error"
    },
    {
      "inputs": [],
      "name": "CannotBeginTileCaptureBySettlementWhichIsAlreadyCapturingTile",
      "type": "error"
    },
    {
      "inputs": [],
      "name": "CannotBeginTileCaptureDueToNonExistentPositionSpecified",
      "type": "error"
    },
    {
      "inputs": [],
      "name": "CannotBeginTileCaptureDueToNotHavingSpecifiedProsperity",
      "type": "error"
    },
    {
      "inputs": [],
      "name": "CannotBeginTileCaptureDueToNotReachedNextMinimumProsperityStake",
      "type": "error"
    },
    {
      "inputs": [],
      "name": "CannotBeginTileCaptureOfPositionWithoutBonus",
      "type": "error"
    },
    {
      "inputs": [],
      "name": "CannotBeginTileCaptureOnNotActivatedRegion",
      "type": "error"
    },
    {
      "inputs": [],
      "name": "CannotBeginTileCaptureOnPositionWithSettlement",
      "type": "error"
    },
    {
      "inputs": [],
      "name": "CapturedTileCannotBeGivenUpByNonSettlementOwner",
      "type": "error"
    },
    {
      "inputs": [],
      "name": "ClaimTileCaptureCannotBeDoneAtThisTime",
      "type": "error"
    },
    {
      "inputs": [],
      "name": "ClaimTileCaptureCannotBeDoneByNonUsurperSettlement",
      "type": "error"
    },
    {
      "inputs": [],
      "name": "ClaimTileCaptureCannotBeDoneWithoutNecessaryProsperity",
      "type": "error"
    },
    {
      "inputs": [],
      "name": "OnlyActiveGame",
      "type": "error"
    },
    {
      "inputs": [],
      "name": "OnlyMightyCreator",
      "type": "error"
    },
    {
      "inputs": [],
      "name": "OnlyWorldAssetFromSameEra",
      "type": "error"
    },
    {
      "inputs": [],
      "name": "TileCaptureCannotBeCancelledBySettlementWhichIsNotCurrentTileUsurper",
      "type": "error"
    },
    {
      "inputs": [],
      "name": "UnknownInputParameter",
      "type": "error"
    },
    {
      "inputs": [],
      "name": "UnknownTileBonus",
      "type": "error"
    },
    {
      "anonymous": false,
      "inputs": [
        {
          "indexed": false,
          "internalType": "address",
          "name": "previousSettlementOwnerAddress",
          "type": "address"
        },
        {
          "indexed": false,
          "internalType": "uint64",
          "name": "position",
          "type": "uint64"
        },
        {
          "indexed": false,
          "internalType": "address",
          "name": "settlementAddress",
          "type": "address"
        },
        {
          "indexed": false,
          "internalType": "uint256",
          "name": "prosperityStake",
          "type": "uint256"
        }
      ],
      "name": "CapturedTileClaimed",
      "type": "event"
    },
    {
      "anonymous": false,
      "inputs": [
        {
          "indexed": false,
          "internalType": "uint64",
          "name": "position",
          "type": "uint64"
        },
        {
          "indexed": false,
          "internalType": "address",
          "name": "settlementAddress",
          "type": "address"
        }
      ],
      "name": "CapturedTileGivenUp",
      "type": "event"
    },
    {
      "anonymous": false,
      "inputs": [
        {
          "indexed": false,
          "internalType": "uint8",
          "name": "version",
          "type": "uint8"
        }
      ],
      "name": "Initialized",
      "type": "event"
    },
    {
      "anonymous": false,
      "inputs": [
        {
          "indexed": false,
          "internalType": "address",
          "name": "previousUsurperAddress",
          "type": "address"
        },
        {
          "indexed": false,
          "internalType": "uint64",
          "name": "position",
          "type": "uint64"
        },
        {
          "indexed": false,
          "internalType": "address",
          "name": "settlementAddress",
          "type": "address"
        },
        {
          "indexed": false,
          "internalType": "uint256",
          "name": "prosperityStake",
          "type": "uint256"
        },
        {
          "indexed": false,
          "internalType": "uint64",
          "name": "captureBeginTime",
          "type": "uint64"
        },
        {
          "indexed": false,
          "internalType": "uint64",
          "name": "captureEndTime",
          "type": "uint64"
        }
      ],
      "name": "TileCapturingBegan",
      "type": "event"
    },
    {
      "anonymous": false,
      "inputs": [
        {
          "indexed": false,
          "internalType": "uint64",
          "name": "position",
          "type": "uint64"
        },
        {
          "indexed": false,
          "internalType": "address",
          "name": "settlementAddress",
          "type": "address"
        }
      ],
      "name": "TileCapturingCancelled",
      "type": "event"
    },
    {
      "inputs": [],
      "name": "assetGroupId",
      "outputs": [
        {
          "internalType": "bytes32",
          "name": "",
          "type": "bytes32"
        }
      ],
      "stateMutability": "view",
      "type": "function"
    },
    {
      "inputs": [],
      "name": "assetTypeId",
      "outputs": [
        {
          "internalType": "bytes32",
          "name": "",
          "type": "bytes32"
        }
      ],
      "stateMutability": "view",
      "type": "function"
    },
    {
      "inputs": [
        {
          "internalType": "address",
          "name": "settlementAddress",
          "type": "address"
        },
        {
          "internalType": "uint64",
          "name": "position",
          "type": "uint64"
        },
        {
          "internalType": "uint256",
          "name": "prosperityStake",
          "type": "uint256"
        }
      ],
      "name": "beginTileCapture",
      "outputs": [],
      "stateMutability": "nonpayable",
      "type": "function"
    },
    {
      "inputs": [
        {
          "internalType": "address",
          "name": "settlementAddress",
          "type": "address"
        },
        {
          "internalType": "uint64",
          "name": "position",
          "type": "uint64"
        }
      ],
      "name": "cancelTileCapture",
      "outputs": [],
      "stateMutability": "nonpayable",
      "type": "function"
    },
    {
      "inputs": [
        {
          "internalType": "address",
          "name": "settlementAddress",
          "type": "address"
        },
        {
          "internalType": "uint64",
          "name": "position",
          "type": "uint64"
        }
      ],
      "name": "claimTileCapture",
      "outputs": [],
      "stateMutability": "nonpayable",
      "type": "function"
    },
    {
      "inputs": [],
      "name": "era",
      "outputs": [
        {
          "internalType": "contract IEra",
          "name": "",
          "type": "address"
        }
      ],
      "stateMutability": "view",
      "type": "function"
    },
    {
      "inputs": [],
      "name": "eraNumber",
      "outputs": [
        {
          "internalType": "uint256",
          "name": "",
          "type": "uint256"
        }
      ],
      "stateMutability": "view",
      "type": "function"
    },
    {
      "inputs": [
        {
          "internalType": "address",
          "name": "settlementAddress",
          "type": "address"
        },
        {
          "internalType": "uint8",
          "name": "tileBonusType",
          "type": "uint8"
        }
      ],
      "name": "getCapturedTilesBySettlementAddress",
      "outputs": [
        {
          "internalType": "uint64[]",
          "name": "",
          "type": "uint64[]"
        }
      ],
      "stateMutability": "view",
      "type": "function"
    },
    {
      "inputs": [
        {
          "internalType": "address",
          "name": "settlementAddress",
          "type": "address"
        },
        {
          "internalType": "uint64",
          "name": "position",
          "type": "uint64"
        }
      ],
      "name": "giveUpCapturedTile",
      "outputs": [],
      "stateMutability": "nonpayable",
      "type": "function"
    },
    {
      "inputs": [
        {
          "internalType": "uint64",
          "name": "position",
          "type": "uint64"
        }
      ],
      "name": "handleSettlementCreatedOnPosition",
      "outputs": [],
      "stateMutability": "nonpayable",
      "type": "function"
    },
    {
      "inputs": [
        {
          "internalType": "bytes",
          "name": "initParams",
          "type": "bytes"
        }
      ],
      "name": "init",
      "outputs": [],
      "stateMutability": "nonpayable",
      "type": "function"
    },
    {
      "inputs": [],
      "name": "registry",
      "outputs": [
        {
          "internalType": "contract IRegistry",
          "name": "",
          "type": "address"
        }
      ],
      "stateMutability": "view",
      "type": "function"
    },
    {
      "inputs": [
        {
          "internalType": "address",
          "name": "",
          "type": "address"
        }
      ],
      "name": "settlementCapturingTile",
      "outputs": [
        {
          "internalType": "uint64",
          "name": "",
          "type": "uint64"
        }
      ],
      "stateMutability": "view",
      "type": "function"
    },
    {
      "inputs": [
        {
          "internalType": "uint64",
          "name": "",
          "type": "uint64"
        }
      ],
      "name": "tilesInfo",
      "outputs": [
        {
          "internalType": "address",
          "name": "ownerSettlementAddress",
          "type": "address"
        },
        {
          "internalType": "address",
          "name": "usurperSettlementAddress",
          "type": "address"
        },
        {
          "internalType": "uint256",
          "name": "usurperProsperityStake",
          "type": "uint256"
        },
        {
          "internalType": "uint64",
          "name": "usurperCaptureBeginTime",
          "type": "uint64"
        },
        {
          "internalType": "uint64",
          "name": "usurperCaptureEndTime",
          "type": "uint64"
        }
      ],
      "stateMutability": "view",
      "type": "function"
    },
    {
      "inputs": [],
      "name": "world",
      "outputs": [
        {
          "internalType": "contract IWorld",
          "name": "",
          "type": "address"
        }
      ],
      "stateMutability": "view",
      "type": "function"
    },
    {
      "inputs": [],
      "name": "worldAssetFactory",
      "outputs": [
        {
          "internalType": "contract IWorldAssetFactory",
          "name": "",
          "type": "address"
        }
      ],
      "stateMutability": "view",
      "type": "function"
    }
  ],
  "bytecode": "0x6080604052348015600f57600080fd5b50612dc18061001f6000396000f3fe608060405234801561001057600080fd5b50600436106101005760003560e01c80637b10399911610097578063db06797b11610066578063db06797b146102f1578063e06ca91714610304578063ece56a1a14610317578063f21f493c1461031f57600080fd5b80637b103999146101ff5780637d884c741461020757806384ba89e31461022e578063cc3072351461025557600080fd5b806330b67baa116100d357806330b67baa146101b1578063447b9aa0146101b95780634ddf47d4146101d9578063793adbc4146101ec57600080fd5b80630b4e99c3146101055780630d62a2461461013b578063123753dd14610150578063143e55e014610191575b600080fd5b7f6c85b93e587873fbe6712f3b438d42c2945689b262f7bd34b8ea4e3f832a89ea545b6040519081526020015b60405180910390f35b61014e6101493660046129ce565b610332565b005b61017961015e366004612a07565b6002602052600090815260409020546001600160401b031681565b6040516001600160401b039091168152602001610132565b6101996107e8565b6040516001600160a01b039091168152602001610132565b61019961088c565b6101cc6101c7366004612a33565b6108bf565b6040516101329190612a61565b61014e6101e7366004612af3565b6109d6565b61014e6101fa3660046129ce565b610af3565b610199610cd4565b7f6c85b93e587873fbe6712f3b438d42c2945689b262f7bd34b8ea4e3f832a89e754610128565b7f6c85b93e587873fbe6712f3b438d42c2945689b262f7bd34b8ea4e3f832a89e954610128565b6102b2610263366004612b8b565b600360208190526000918252604090912080546001820154600283015492909301546001600160a01b039182169390911691906001600160401b03808216916801000000000000000090041685565b604080516001600160a01b039687168152959094166020860152928401919091526001600160401b03908116606084015216608082015260a001610132565b61014e6102ff3660046129ce565b610d1b565b61014e610312366004612b8b565b610f86565b610199611197565b61014e61032d366004612ba8565b6111de565b61033a611ba9565b816001600160a01b031663bea42f9c6040518163ffffffff1660e01b8152600401600060405180830381600087803b15801561037557600080fd5b505af1158015610389573d6000803e3d6000fd5b5050506001600160401b038216600090815260036020526040812091506103ae61088c565b6001600160a01b031663f5f026a36040518163ffffffff1660e01b8152600401602060405180830381865afa1580156103eb573d6000803e3d6000fd5b505050506040513d601f19601f8201168201806040525081019061040f9190612be9565b604051630915dd5d60e01b81526001600160401b03851660048201526001600160a01b039190911690630915dd5d906024016040805180830381865afa15801561045d573d6000803e3d6000fd5b505050506040513d601f19601f820116820180604052508101906104819190612c06565b50905060006104908285611c95565b60018401549091506001600160a01b038681169116146104c357604051637de2716760e11b815260040160405180910390fd5b60038301546001600160401b0368010000000000000000909104811642909116101561050257604051630ec0969760e11b815260040160405180910390fd5b60028301546000670de0b6b3a76400006105246709b6e64a8ec6000084612c50565b61052e9190612c67565b9050806105396107e8565b6001600160a01b031663c91b95666040518163ffffffff1660e01b8152600401602060405180830381865afa158015610576573d6000803e3d6000fd5b505050506040513d601f19601f8201168201806040525081019061059a9190612be9565b6040516370a0823160e01b81526001600160a01b038a8116600483015291909116906370a0823190602401602060405180830381865afa1580156105e2573d6000803e3d6000fd5b505050506040513d601f19601f820116820180604052508101906106069190612c89565b101561062557604051634986900b60e11b815260040160405180910390fd5b84546001600160a01b031680156106a9576001600160a01b0381166000908152600160205260408120855161069e926001600160401b038b169291600281111561067157610671612ca2565b600281111561068257610682612ca2565b8152602001908152602001600020611e9090919063ffffffff16565b506106a98482611ea3565b85546001600160a01b0389166001600160a01b03199182168117885560006002808a0182905560018a0180549094169093556003890180546fffffffffffffffffffffffffffffffff1916905590815260209190915260409020805467ffffffffffffffff1916905561071c8489612081565b6001600160a01b03881660009081526001602052604081208551610784926001600160401b038b169291600281111561075757610757612ca2565b600281111561076857610768612ca2565b815260200190815260200160002061220d90919063ffffffff16565b50604080516001600160a01b0383811682526001600160401b038a1660208301528a16818301526060810185905290517f243f020c0b528445e46dbed2ba6a0e6aaa422a61564ba614ad1f8cf30a8e56ce9181900360800190a15050505050505050565b60006107f261088c565b6001600160a01b031663720a70bd6108287f6c85b93e587873fbe6712f3b438d42c2945689b262f7bd34b8ea4e3f832a89e75490565b6040518263ffffffff1660e01b815260040161084691815260200190565b602060405180830381865afa158015610863573d6000803e3d6000fd5b505050506040513d601f19601f820116820180604052508101906108879190612be9565b905090565b60006108877f6c85b93e587873fbe6712f3b438d42c2945689b262f7bd34b8ea4e3f832a89e6546001600160a01b031690565b6001600160a01b03821660009081526001602052604081206060919061092a908260ff861660028111156108f5576108f5612ca2565b600281111561090657610906612ca2565b600281111561091757610917612ca2565b8152602001908152602001600020612219565b9050600081516001600160401b0381111561094757610947612aad565b604051908082528060200260200182016040528015610970578160200160208202803683370190505b50905060005b82518110156109cb5782818151811061099157610991612cb8565b60200260200101518282815181106109ab576109ab612cb8565b6001600160401b0390921660209283029190910190910152600101610976565b509150505b92915050565b600054610100900460ff16158080156109f65750600054600160ff909116105b80610a105750303b158015610a10575060005460ff166001145b610a865760405162461bcd60e51b815260206004820152602e60248201527f496e697469616c697a61626c653a20636f6e747261637420697320616c72656160448201527f647920696e697469616c697a6564000000000000000000000000000000000000606482015260840160405180910390fd5b6000805460ff191660011790558015610aa9576000805461ff0019166101001790555b8015610aef576000805461ff0019169055604051600181527f7f26b83ff96e1f2b6a682f133852f6798a09c465da95921460cefb38474024989060200160405180910390a15b5050565b610afb611ba9565b6001600160401b038116600090815260036020526040902080546001600160a01b03848116911614610b4057604051632f7782c560e01b815260040160405180910390fd5b6000610b4a61088c565b6001600160a01b031663f5f026a36040518163ffffffff1660e01b8152600401602060405180830381865afa158015610b87573d6000803e3d6000fd5b505050506040513d601f19601f82011682018060405250810190610bab9190612be9565b604051630915dd5d60e01b81526001600160401b03851660048201526001600160a01b039190911690630915dd5d906024016040805180830381865afa158015610bf9573d6000803e3d6000fd5b505050506040513d601f19601f82011682018060405250810190610c1d9190612c06565b5090506000610c2c8285611c95565b6001600160a01b03861660009081526001602052604081208251929350610c6a926001600160401b0388169290600281111561067157610671612ca2565b50610c758186611ea3565b82546001600160a01b0319168355604080516001600160401b03861681526001600160a01b03871660208201527f2d7ab882c89b34472559b612309227fb1b2652d3b6b12bcf260a9b4d628331a3910160405180910390a15050505050565b6000610cde61088c565b6001600160a01b0316637b1039996040518163ffffffff1660e01b8152600401602060405180830381865afa158015610863573d6000803e3d6000fd5b610d23611ba9565b6001600160401b038116600090815260036020526040902060018101546001600160a01b03848116911614610d6b57604051633ccbf74b60e21b815260040160405180910390fd5b60038101546001600160401b03680100000000000000009091048116429091161015610ee657826001600160a01b031663bea42f9c6040518163ffffffff1660e01b8152600401600060405180830381600087803b158015610dcc57600080fd5b505af1158015610de0573d6000803e3d6000fd5b50505050610dec6107e8565b6001600160a01b031663c91b95666040518163ffffffff1660e01b8152600401602060405180830381865afa158015610e29573d6000803e3d6000fd5b505050506040513d601f19601f82011682018060405250810190610e4d9190612be9565b6001600160a01b031663af7d6ca384670de0b6b3a764000067058d15e1762800008560020154610e7d9190612c50565b610e879190612c67565b6040516001600160e01b031960e085901b1681526001600160a01b0390921660048301526024820152604401600060405180830381600087803b158015610ecd57600080fd5b505af1158015610ee1573d6000803e3d6000fd5b505050505b600060028281018290556001830180546001600160a01b03191690556003830180546fffffffffffffffffffffffffffffffff191690556001600160a01b0385168083526020918252604092839020805467ffffffffffffffff1916905582516001600160401b0386168152918201527fe569daab5509951e0f3c0f72e36514dfc13e05dfffffe224e5d727679b0164f5910160405180910390a1505050565b610f8e611ba9565b6000610f9861088c565b6001600160a01b031663f5f026a36040518163ffffffff1660e01b8152600401602060405180830381865afa158015610fd5573d6000803e3d6000fd5b505050506040513d601f19601f82011682018060405250810190610ff99190612be9565b604051630915dd5d60e01b81526001600160401b03841660048201526001600160a01b039190911690630915dd5d906024016040805180830381865afa158015611047573d6000803e3d6000fd5b505050506040513d601f19601f8201168201806040525081019061106b9190612c06565b509050600061107a8284611c95565b905060008151600281111561109157611091612ca2565b0361109b57505050565b6001600160401b038316600090815260036020526040902080546001600160a01b0316156111165780546001600160a01b0316600090815260016020526040812083516110ff926001600160401b0388169291600281111561067157610671612ca2565b5080546111169083906001600160a01b0316611ea3565b60018101546001600160a01b0316156111555760018101546001600160a01b03166000908152600260205260409020805467ffffffffffffffff191690555b80546001600160a01b0319908116825560006002830155600182018054909116905560030180546fffffffffffffffffffffffffffffffff1916905550505b50565b60006111a1610cd4565b6001600160a01b031663ece56a1a6040518163ffffffff1660e01b8152600401602060405180830381865afa158015610863573d6000803e3d6000fd5b6111e6611ba9565b6000839050806001600160a01b031663bea42f9c6040518163ffffffff1660e01b8152600401600060405180830381600087803b15801561122657600080fd5b505af115801561123a573d6000803e3d6000fd5b5050505060008061124961088c565b6001600160a01b031663f5f026a36040518163ffffffff1660e01b8152600401602060405180830381865afa158015611286573d6000803e3d6000fd5b505050506040513d601f19601f820116820180604052508101906112aa9190612be9565b604051630915dd5d60e01b81526001600160401b03871660048201526001600160a01b039190911690630915dd5d906024016040805180830381865afa1580156112f8573d6000803e3d6000fd5b505050506040513d601f19601f8201168201806040525081019061131c9190612c06565b915091508061133e5760405163099b856f60e41b815260040160405180910390fd5b600061134a8387611c95565b905060006113566107e8565b60405163c5375e9960e01b81526001600160401b03861660048201526001600160a01b03919091169063c5375e9990602401602060405180830381865afa1580156113a5573d6000803e3d6000fd5b505050506040513d601f19601f820116820180604052508101906113c99190612be9565b6001600160a01b0316036113f05760405163e45913b360e01b815260040160405180910390fd5b60006113fa61088c565b6001600160a01b031663a8d66c756040518163ffffffff1660e01b8152600401602060405180830381865afa158015611437573d6000803e3d6000fd5b505050506040513d601f19601f8201168201806040525081019061145b9190612be9565b60405163c4c31e8560e01b81526001600160401b03891660048201526001600160a01b03919091169063c4c31e8590602401602060405180830381865afa1580156114aa573d6000803e3d6000fd5b505050506040513d601f19601f820116820180604052508101906114ce9190612be9565b6001600160a01b0316146114f5576040516377dbcfb760e11b815260040160405180910390fd5b6001600160a01b0387166000908152600260205260409020546001600160401b0316156115355760405163d04ee71160e01b815260040160405180910390fd5b805161155190600281111561154c5761154c612ca2565b612226565b6001600160a01b038816600090815260016020526040812083516115a59290600281111561158157611581612ca2565b600281111561159257611592612ca2565b8152602001908152602001600020612256565b036115c357604051637281145360e11b815260040160405180910390fd5b6000815160028111156115d8576115d8612ca2565b036115f65760405163053ca15f60e51b815260040160405180910390fd5b846115ff6107e8565b6001600160a01b031663c91b95666040518163ffffffff1660e01b8152600401602060405180830381865afa15801561163c573d6000803e3d6000fd5b505050506040513d601f19601f820116820180604052508101906116609190612be9565b6040516370a0823160e01b81526001600160a01b038a8116600483015291909116906370a0823190602401602060405180830381865afa1580156116a8573d6000803e3d6000fd5b505050506040513d601f19601f820116820180604052508101906116cc9190612c89565b10156116eb576040516345f294f560e01b815260040160405180910390fd5b6001600160401b0386166000908152600360205260408120600181015490916001600160a01b039091169081611722576000611728565b82600201545b9050600061173461088c565b6001600160a01b031663f5f026a36040518163ffffffff1660e01b8152600401602060405180830381865afa158015611771573d6000803e3d6000fd5b505050506040513d601f19601f820116820180604052508101906117959190612be9565b6001600160a01b03166340adb9d58b8a6001600160a01b03166309218e916040518163ffffffff1660e01b8152600401602060405180830381865afa1580156117e2573d6000803e3d6000fd5b505050506040513d601f19601f820116820180604052508101906118069190612cce565b6040516001600160e01b031960e085901b1681526001600160401b03928316600482015291166024820152604401602060405180830381865afa158015611851573d6000803e3d6000fd5b505050506040513d601f19601f820116820180604052508101906118759190612cce565b6001600160401b0316905061188a8282612260565b8910156118aa57604051634f396a6f60e11b815260040160405180910390fd5b6001600160a01b03831615611a27576001600160a01b038316600081815260026020526040808220805467ffffffffffffffff191690558051632fa90be760e21b8152905163bea42f9c9260048084019391929182900301818387803b15801561191357600080fd5b505af1158015611927573d6000803e3d6000fd5b505050506119336107e8565b6001600160a01b031663c91b95666040518163ffffffff1660e01b8152600401602060405180830381865afa158015611970573d6000803e3d6000fd5b505050506040513d601f19601f820116820180604052508101906119949190612be9565b6001600160a01b031663af7d6ca384670de0b6b3a76400006119be67058d15e17628000087612c50565b6119c89190612c67565b6040516001600160e01b031960e085901b1681526001600160a01b0390921660048301526024820152604401600060405180830381600087803b158015611a0e57600080fd5b505af1158015611a22573d6000803e3d6000fd5b505050505b4260006005611a38617e9085612c50565b611a429190612c67565b611a4c9042612ceb565b90508a86600201819055508c8660010160006101000a8154816001600160a01b0302191690836001600160a01b03160217905550818660030160006101000a8154816001600160401b0302191690836001600160401b03160217905550808660030160086101000a8154816001600160401b0302191690836001600160401b031602179055508b600260008f6001600160a01b03166001600160a01b0316815260200190815260200160002060006101000a8154816001600160401b0302191690836001600160401b031602179055507f9bd7a4d817ec097236552d2df9d28dfbddd8c3653b1c72a29c10e5820c5ff165858d8f8e8686604051611b92969594939291906001600160a01b0396871681526001600160401b039586166020820152939095166040840152606083019190915282166080820152911660a082015260c00190565b60405180910390a150505050505050505050505050565b611bb161088c565b6001600160a01b0316336001600160a01b031614158015611c7557506000611bd761088c565b6001600160a01b031663ebbe8034611c0d7f6c85b93e587873fbe6712f3b438d42c2945689b262f7bd34b8ea4e3f832a89e75490565b6040516001600160e01b031960e084901b1681526004810191909152336024820152604401602060405180830381865afa158015611c4f573d6000803e3d6000fd5b505050506040513d601f19601f82011682018060405250810190611c739190612c89565b145b15611c935760405163422656d160e01b815260040160405180910390fd5b565b60408051808201909152600080825260208201526000611cb361088c565b90506000816001600160a01b031663f5f026a36040518163ffffffff1660e01b8152600401602060405180830381865afa158015611cf5573d6000803e3d6000fd5b505050506040513d601f19601f82011682018060405250810190611d199190612be9565b60405163335cf12b60e11b81526001600160401b03871660048201529091506000906001600160a01b038316906366b9e25690602401602060405180830381865afa158015611d6c573d6000803e3d6000fd5b505050506040513d601f19601f82011682018060405250810190611d909190612c89565b90506000611d9d826122e4565b90506000846001600160a01b031663041cb8466040518163ffffffff1660e01b8152600401602060405180830381865afa158015611ddf573d6000803e3d6000fd5b505050506040513d601f19601f82011682018060405250810190611e039190612c89565b60405163d1331b0760e01b815260048101829052602481018490526001600160401b03891660448201529091506001600160a01b0385169063d1331b07906064016040805180830381865afa158015611e60573d6000803e3d6000fd5b505050506040513d601f19601f82011682018060405250810190611e849190612cfe565b98975050505050505050565b6000611e9c838361235a565b9392505050565b80600183516002811115611eb957611eb9612ca2565b03611fa257600080611ece856020015161244d565b604051631b973c5760e21b81526004810183905291935091506001600160a01b03841690636e5cf15c90602401602060405180830381865afa158015611f18573d6000803e3d6000fd5b505050506040513d601f19601f82011682018060405250810190611f3c9190612be9565b6001600160a01b03166343e77f46826040518263ffffffff1660e01b8152600401611f6991815260200190565b600060405180830381600087803b158015611f8357600080fd5b505af1158015611f97573d6000803e3d6000fd5b505050505050505050565b600283516002811115611fb757611fb7612ca2565b0361206857600080611fcc85602001516127d0565b91509150826001600160a01b031663f10e38af6040518163ffffffff1660e01b8152600401602060405180830381865afa15801561200e573d6000803e3d6000fd5b505050506040513d601f19601f820116820180604052508101906120329190612be9565b604051630890b98560e21b815260048101849052602481018390526001600160a01b039190911690632242e61490604401611f69565b60405163a56cd49160e01b815260040160405180910390fd5b8060018351600281111561209757612097612ca2565b03612147576000806120ac856020015161244d565b604051631b973c5760e21b81526004810183905291935091506001600160a01b03841690636e5cf15c90602401602060405180830381865afa1580156120f6573d6000803e3d6000fd5b505050506040513d601f19601f8201168201806040525081019061211a9190612be9565b6001600160a01b031663ae6fd51d826040518263ffffffff1660e01b8152600401611f6991815260200190565b60028351600281111561215c5761215c612ca2565b036120685760008061217185602001516127d0565b91509150826001600160a01b031663f10e38af6040518163ffffffff1660e01b8152600401602060405180830381865afa1580156121b3573d6000803e3d6000fd5b505050506040513d601f19601f820116820180604052508101906121d79190612be9565b60405163574f412560e01b815260048101849052602481018390526001600160a01b03919091169063574f412590604401611f69565b6000611e9c83836128f9565b60606000611e9c83612948565b60008160ff1660010361223b57506002919050565b8160ff1660020361224e57506001919050565b506000919050565b60006109d0825490565b6000826000036122955761227c6703782dace9d9000083612c50565b61228e90670de0b6b3a7640000612ceb565b90506109d0565b60006122a866b1a2bc2ec5000084612c50565b6122ba906710a741a462780000612ceb565b90506000670de0b6b3a76400006122d18387612c50565b6122db9190612c67565b95945050505050565b6000816001036122fc5750668e1bc9bf040000919050565b81600203612313575067011c37937e080000919050565b8160030361232a57506701aa535d3d0c0000919050565b816004036123415750670214e8348c4f0000919050565b60405163ea3b0abb60e01b815260040160405180910390fd5b6000818152600183016020526040812054801561244357600061237e600183612d62565b855490915060009061239290600190612d62565b90508181146123f75760008660000182815481106123b2576123b2612cb8565b90600052602060002001549050808760000184815481106123d5576123d5612cb8565b6000918252602080832090910192909255918252600188019052604090208390555b855486908061240857612408612d75565b6001900381819060005260206000200160009055905585600101600086815260200190815260200160002060009055600193505050506109d0565b60009150506109d0565b6000808260ff166000036124a85750506040805180820190915260048152634641524d60e01b602090910152507f15e7d524175663fc8929751799c4e1a8d04fec20bebd7ac2f10532927c1b5c0d906703782dace9d9000090565b8260ff166001036125005750506040805180820190915260048152634641524d60e01b602090910152507f15e7d524175663fc8929751799c4e1a8d04fec20bebd7ac2f10532927c1b5c0d9067058d15e17628000090565b8260ff1660020361255e57505060408051808201909152600a8152691315535091549352531360b21b602090910152507f6efa3da32b5b0a21cf9c6f5bc9edeb1d9e3a4b88cc5eb7b649f1e5029410165990670429d069189e000090565b8260ff166003036125bc57505060408051808201909152600a8152691315535091549352531360b21b602090910152507f6efa3da32b5b0a21cf9c6f5bc9edeb1d9e3a4b88cc5eb7b649f1e5029410165990670853a0d2313c000090565b8260ff166004036126145750506040805180820190915260048152634d494e4560e01b602090910152507f458fc043506cc6fea16e7daa38390499ef978846d88dd78fe56678ac9de79444906706f05b59d3b2000090565b8260ff1660050361266c5750506040805180820190915260048152634d494e4560e01b602090910152507f458fc043506cc6fea16e7daa38390499ef978846d88dd78fe56678ac9de7944490670b1a2bc2ec50000090565b8260ff166006036126c6575050604080518082019091526006815265534d4954485960d01b602090910152507fe8d22c09878b0ae66551f207dc5f243823c9e1989bc2d5dfab58fb1a93386fd2906709b6e64a8ec6000090565b8260ff16600703612720575050604080518082019091526006815265534d4954485960d01b602090910152507fe8d22c09878b0ae66551f207dc5f243823c9e1989bc2d5dfab58fb1a93386fd290670de0b6b3a764000090565b8260ff166008036127785750506040805180820190915260048152631193d49560e21b602090910152507f2911d5ca388af24ed7f391a4eb24469bc0fd8935cd73bb1075ca7e702a42eb199067058d15e17628000090565b8260ff166009036123415750506040805180820190915260048152631193d49560e21b602090910152507f2911d5ca388af24ed7f391a4eb24469bc0fd8935cd73bb1075ca7e702a42eb1990670853a0d2313c000090565b6000808260ff1660000361282e5750506040805180820190915260078152662ba0a92924a7a960c91b602090910152507f69c5317e5ce44f1a1fb56c6a5eff904214e6353da6310ab0a6b511eef9a7c39190670429d069189e000090565b8260ff1660010361288857505060408051808201909152600681526520a921a422a960d11b602090910152507f42de5fbfc07577d3e9942df95dd4e61cabcab8907d5d333240140b2999379e40906706f05b59d3b2000090565b8260ff1660020361234157505060408051808201909152600881527f484f5253454d414e000000000000000000000000000000000000000000000000602090910152507f89d5ee6f4fcb32fb3c151bc25e6bc320fec82ba89cb3b29d1969d907e0e6793990670de0b6b3a764000090565b6000818152600183016020526040812054612940575081546001818101845560008481526020808220909301849055845484825282860190935260409020919091556109d0565b5060006109d0565b60608160000180548060200260200160405190810160405280929190818152602001828054801561299857602002820191906000526020600020905b815481526020019060010190808311612984575b50505050509050919050565b6001600160a01b038116811461119457600080fd5b6001600160401b038116811461119457600080fd5b600080604083850312156129e157600080fd5b82356129ec816129a4565b915060208301356129fc816129b9565b809150509250929050565b600060208284031215612a1957600080fd5b8135611e9c816129a4565b60ff8116811461119457600080fd5b60008060408385031215612a4657600080fd5b8235612a51816129a4565b915060208301356129fc81612a24565b602080825282518282018190526000918401906040840190835b81811015612aa25783516001600160401b0316835260209384019390920191600101612a7b565b509095945050505050565b634e487b7160e01b600052604160045260246000fd5b604051601f8201601f191681016001600160401b0381118282101715612aeb57612aeb612aad565b604052919050565b600060208284031215612b0557600080fd5b81356001600160401b03811115612b1b57600080fd5b8201601f81018413612b2c57600080fd5b80356001600160401b03811115612b4557612b45612aad565b612b58601f8201601f1916602001612ac3565b818152856020838501011115612b6d57600080fd5b81602084016020830137600091810160200191909152949350505050565b600060208284031215612b9d57600080fd5b8135611e9c816129b9565b600080600060608486031215612bbd57600080fd5b8335612bc8816129a4565b92506020840135612bd8816129b9565b929592945050506040919091013590565b600060208284031215612bfb57600080fd5b8151611e9c816129a4565b60008060408385031215612c1957600080fd5b8251612c24816129b9565b602084015190925080151581146129fc57600080fd5b634e487b7160e01b600052601160045260246000fd5b80820281158282048414176109d0576109d0612c3a565b600082612c8457634e487b7160e01b600052601260045260246000fd5b500490565b600060208284031215612c9b57600080fd5b5051919050565b634e487b7160e01b600052602160045260246000fd5b634e487b7160e01b600052603260045260246000fd5b600060208284031215612ce057600080fd5b8151611e9c816129b9565b808201808211156109d0576109d0612c3a565b60006040828403128015612d1157600080fd5b50604080519081016001600160401b0381118282101715612d3457612d34612aad565b604052825160038110612d4657600080fd5b81526020830151612d5681612a24565b60208201529392505050565b818103818111156109d0576109d0612c3a565b634e487b7160e01b600052603160045260246000fdfea2646970667358221220e5c4dba0210ea7105c74d12f1c64d1ec8e1ae10efca659f545df65fe423d4b9564736f6c634300081a0033",
  "linkReferences": {},
  "deployedLinkReferences": {}
}